{
  "address": "0x88ed56C855b3ae77AeE3e5BEF500DEa782363C92",
  "abi": [
    {
      "inputs": [
        {
          "internalType": "address",
          "name": "nftAddress",
          "type": "address"
        }
      ],
      "stateMutability": "nonpayable",
      "type": "constructor"
    },
    {
      "anonymous": false,
      "inputs": [
        {
          "indexed": true,
          "internalType": "uint256",
          "name": "assetId",
          "type": "uint256"
        },
        {
          "indexed": true,
          "internalType": "address",
          "name": "owner",
          "type": "address"
        },
        {
          "indexed": false,
          "internalType": "string",
          "name": "tokenURI",
          "type": "string"
        }
      ],
      "name": "AssetCreated",
      "type": "event"
    },
    {
      "anonymous": false,
      "inputs": [
        {
          "indexed": true,
          "internalType": "address",
          "name": "investor",
          "type": "address"
        },
        {
          "indexed": true,
          "internalType": "uint256",
          "name": "assetId",
          "type": "uint256"
        },
        {
          "indexed": true,
          "internalType": "uint256",
          "name": "tokenId",
          "type": "uint256"
        },
        {
          "indexed": false,
          "internalType": "uint256",
          "name": "tokenAmount",
          "type": "uint256"
        },
        {
          "indexed": false,
          "internalType": "uint256",
          "name": "value",
          "type": "uint256"
        }
      ],
      "name": "LogInvestment",
      "type": "event"
    },
    {
      "inputs": [
        {
          "internalType": "uint256",
          "name": "price",
          "type": "uint256"
        },
        {
          "internalType": "string",
          "name": "author",
          "type": "string"
        },
        {
          "internalType": "string",
          "name": "title",
          "type": "string"
        },
        {
          "internalType": "string",
          "name": "description",
          "type": "string"
        },
        {
          "internalType": "uint256",
          "name": "projectEndDate",
          "type": "uint256"
        },
        {
          "internalType": "address",
          "name": "to",
          "type": "address"
        },
        {
          "internalType": "string",
          "name": "tokenURI",
          "type": "string"
        },
        {
          "internalType": "string",
          "name": "mainPhoto",
          "type": "string"
        },
        {
          "internalType": "string[]",
          "name": "secondaryPhotos",
          "type": "string[]"
        },
        {
          "internalType": "enum Category",
          "name": "category",
          "type": "uint8"
        }
      ],
      "name": "addAsset",
      "outputs": [],
      "stateMutability": "nonpayable",
      "type": "function"
    },
    {
      "inputs": [
        {
          "internalType": "enum ProjectStatus",
          "name": "status",
          "type": "uint8"
        }
      ],
      "name": "getAllAssets",
      "outputs": [
        {
          "components": [
            {
              "internalType": "uint256",
              "name": "assetId",
              "type": "uint256"
            },
            {
              "internalType": "uint256",
              "name": "price",
              "type": "uint256"
            },
            {
              "internalType": "string",
              "name": "author",
              "type": "string"
            },
            {
              "internalType": "string",
              "name": "title",
              "type": "string"
            },
            {
              "internalType": "string",
              "name": "description",
              "type": "string"
            },
            {
              "internalType": "uint256",
              "name": "projectStartDate",
              "type": "uint256"
            },
            {
              "internalType": "uint256",
              "name": "projectEndDate",
              "type": "uint256"
            },
            {
              "components": [
                {
                  "internalType": "string",
                  "name": "title",
                  "type": "string"
                },
                {
                  "internalType": "string",
                  "name": "description",
                  "type": "string"
                },
                {
                  "internalType": "uint256",
                  "name": "tokenAmount",
                  "type": "uint256"
                },
                {
                  "internalType": "uint256",
                  "name": "individualPrice",
                  "type": "uint256"
                },
                {
                  "internalType": "uint256",
                  "name": "availableTokens",
                  "type": "uint256"
                },
                {
                  "internalType": "uint256",
                  "name": "rewardTokenId",
                  "type": "uint256"
                }
              ],
              "internalType": "struct Reward[]",
              "name": "rewards",
              "type": "tuple[]"
            },
            {
              "internalType": "enum ProjectStatus",
              "name": "status",
              "type": "uint8"
            },
            {
              "internalType": "address",
              "name": "rewardTokenAddress",
              "type": "address"
            },
            {
              "internalType": "string",
              "name": "mainPhoto",
              "type": "string"
            },
            {
              "internalType": "string[]",
              "name": "secondaryPhotos",
              "type": "string[]"
            },
            {
              "internalType": "enum Category",
              "name": "category",
              "type": "uint8"
            }
          ],
          "internalType": "struct Asset[]",
          "name": "",
          "type": "tuple[]"
        },
        {
          "internalType": "uint256[]",
          "name": "",
          "type": "uint256[]"
        },
        {
          "internalType": "uint256[]",
          "name": "",
          "type": "uint256[]"
        }
      ],
      "stateMutability": "view",
      "type": "function"
    },
    {
      "inputs": [
        {
          "internalType": "enum ProjectStatus",
          "name": "status",
          "type": "uint8"
        },
        {
          "internalType": "enum Category",
          "name": "category",
          "type": "uint8"
        }
      ],
      "name": "getAllAssetsByCategory",
      "outputs": [
        {
          "components": [
            {
              "internalType": "uint256",
              "name": "assetId",
              "type": "uint256"
            },
            {
              "internalType": "uint256",
              "name": "price",
              "type": "uint256"
            },
            {
              "internalType": "string",
              "name": "author",
              "type": "string"
            },
            {
              "internalType": "string",
              "name": "title",
              "type": "string"
            },
            {
              "internalType": "string",
              "name": "description",
              "type": "string"
            },
            {
              "internalType": "uint256",
              "name": "projectStartDate",
              "type": "uint256"
            },
            {
              "internalType": "uint256",
              "name": "projectEndDate",
              "type": "uint256"
            },
            {
              "components": [
                {
                  "internalType": "string",
                  "name": "title",
                  "type": "string"
                },
                {
                  "internalType": "string",
                  "name": "description",
                  "type": "string"
                },
                {
                  "internalType": "uint256",
                  "name": "tokenAmount",
                  "type": "uint256"
                },
                {
                  "internalType": "uint256",
                  "name": "individualPrice",
                  "type": "uint256"
                },
                {
                  "internalType": "uint256",
                  "name": "availableTokens",
                  "type": "uint256"
                },
                {
                  "internalType": "uint256",
                  "name": "rewardTokenId",
                  "type": "uint256"
                }
              ],
              "internalType": "struct Reward[]",
              "name": "rewards",
              "type": "tuple[]"
            },
            {
              "internalType": "enum ProjectStatus",
              "name": "status",
              "type": "uint8"
            },
            {
              "internalType": "address",
              "name": "rewardTokenAddress",
              "type": "address"
            },
            {
              "internalType": "string",
              "name": "mainPhoto",
              "type": "string"
            },
            {
              "internalType": "string[]",
              "name": "secondaryPhotos",
              "type": "string[]"
            },
            {
              "internalType": "enum Category",
              "name": "category",
              "type": "uint8"
            }
          ],
          "internalType": "struct Asset[]",
          "name": "",
          "type": "tuple[]"
        }
      ],
      "stateMutability": "view",
      "type": "function"
    },
    {
      "inputs": [
        {
          "internalType": "uint256",
          "name": "assetId",
          "type": "uint256"
        }
      ],
      "name": "getAssetById",
      "outputs": [
        {
          "components": [
            {
              "internalType": "uint256",
              "name": "assetId",
              "type": "uint256"
            },
            {
              "internalType": "uint256",
              "name": "price",
              "type": "uint256"
            },
            {
              "internalType": "string",
              "name": "author",
              "type": "string"
            },
            {
              "internalType": "string",
              "name": "title",
              "type": "string"
            },
            {
              "internalType": "string",
              "name": "description",
              "type": "string"
            },
            {
              "internalType": "uint256",
              "name": "projectStartDate",
              "type": "uint256"
            },
            {
              "internalType": "uint256",
              "name": "projectEndDate",
              "type": "uint256"
            },
            {
              "components": [
                {
                  "internalType": "string",
                  "name": "title",
                  "type": "string"
                },
                {
                  "internalType": "string",
                  "name": "description",
                  "type": "string"
                },
                {
                  "internalType": "uint256",
                  "name": "tokenAmount",
                  "type": "uint256"
                },
                {
                  "internalType": "uint256",
                  "name": "individualPrice",
                  "type": "uint256"
                },
                {
                  "internalType": "uint256",
                  "name": "availableTokens",
                  "type": "uint256"
                },
                {
                  "internalType": "uint256",
                  "name": "rewardTokenId",
                  "type": "uint256"
                }
              ],
              "internalType": "struct Reward[]",
              "name": "rewards",
              "type": "tuple[]"
            },
            {
              "internalType": "enum ProjectStatus",
              "name": "status",
              "type": "uint8"
            },
            {
              "internalType": "address",
              "name": "rewardTokenAddress",
              "type": "address"
            },
            {
              "internalType": "string",
              "name": "mainPhoto",
              "type": "string"
            },
            {
              "internalType": "string[]",
              "name": "secondaryPhotos",
              "type": "string[]"
            },
            {
              "internalType": "enum Category",
              "name": "category",
              "type": "uint8"
            }
          ],
          "internalType": "struct Asset",
          "name": "",
          "type": "tuple"
        }
      ],
      "stateMutability": "view",
      "type": "function"
    },
    {
      "inputs": [
        {
          "internalType": "address",
          "name": "owner",
          "type": "address"
        }
      ],
      "name": "getAssetsOfOwner",
      "outputs": [
        {
          "components": [
            {
              "internalType": "uint256",
              "name": "assetId",
              "type": "uint256"
            },
            {
              "internalType": "uint256",
              "name": "price",
              "type": "uint256"
            },
            {
              "internalType": "string",
              "name": "author",
              "type": "string"
            },
            {
              "internalType": "string",
              "name": "title",
              "type": "string"
            },
            {
              "internalType": "string",
              "name": "description",
              "type": "string"
            },
            {
              "internalType": "uint256",
              "name": "projectStartDate",
              "type": "uint256"
            },
            {
              "internalType": "uint256",
              "name": "projectEndDate",
              "type": "uint256"
            },
            {
              "components": [
                {
                  "internalType": "string",
                  "name": "title",
                  "type": "string"
                },
                {
                  "internalType": "string",
                  "name": "description",
                  "type": "string"
                },
                {
                  "internalType": "uint256",
                  "name": "tokenAmount",
                  "type": "uint256"
                },
                {
                  "internalType": "uint256",
                  "name": "individualPrice",
                  "type": "uint256"
                },
                {
                  "internalType": "uint256",
                  "name": "availableTokens",
                  "type": "uint256"
                },
                {
                  "internalType": "uint256",
                  "name": "rewardTokenId",
                  "type": "uint256"
                }
              ],
              "internalType": "struct Reward[]",
              "name": "rewards",
              "type": "tuple[]"
            },
            {
              "internalType": "enum ProjectStatus",
              "name": "status",
              "type": "uint8"
            },
            {
              "internalType": "address",
              "name": "rewardTokenAddress",
              "type": "address"
            },
            {
              "internalType": "string",
              "name": "mainPhoto",
              "type": "string"
            },
            {
              "internalType": "string[]",
              "name": "secondaryPhotos",
              "type": "string[]"
            },
            {
              "internalType": "enum Category",
              "name": "category",
              "type": "uint8"
            }
          ],
          "internalType": "struct Asset[]",
          "name": "",
          "type": "tuple[]"
        }
      ],
      "stateMutability": "view",
      "type": "function"
    },
    {
      "inputs": [],
      "name": "supervisor",
      "outputs": [
        {
          "internalType": "address",
          "name": "",
          "type": "address"
        }
      ],
      "stateMutability": "view",
      "type": "function"
    },
    {
      "inputs": [
        {
          "internalType": "uint256",
          "name": "assetId",
          "type": "uint256"
        },
        {
          "internalType": "string",
          "name": "mainPhoto",
          "type": "string"
        },
        {
          "internalType": "string[]",
          "name": "secondaryPhotos",
          "type": "string[]"
        },
        {
          "internalType": "string",
          "name": "description",
          "type": "string"
        }
      ],
      "name": "updateAsset",
      "outputs": [],
      "stateMutability": "nonpayable",
      "type": "function"
    }
  ],
  "transactionHash": "0x85322f6dc65281236670f623790001efc725519293904a9f62dd72e2662d3b24",
  "args": [
    "0x18feA9a72fe998f2f0643061FC2149F728D5475B"
  ],
  "numDeployments": 1,
  "solcInputHash": "289b62e2243967edd4cdb5ffc0cfa5dd",
  "bytecode": "0x60803461007c57601f6119a238819003918201601f19168301916001600160401b038311848410176100815780849260209460405283398101031261007c57516001600160a01b0381169081900361007c5760018060a01b0319908160005416176000553390600154161760015560405161190a90816100988239f35b600080fd5b634e487b7160e01b600052604160045260246000fdfe608080604052600436101561001357600080fd5b600090813560e01c9081633803112314610c94575080634663a28c146109855780635563633d146106f257806356e4b68b146106c957806386275c5a14610248578063b3e444a7146101b35763f3ab880e1461006e57600080fd5b346101b05760203660031901126101b0576004356001600160a01b0381811692918390036101ab57815416604051926379d5c40760e11b8452600484015260249082848381845afa9384156101a057839461017c575b508351916100d1836114fe565b94845b8481106100f557604051602080825281906100f19082018a61120a565b0390f35b6100ff81836115a5565b5160405190631d591eb760e31b8252600482015286818581885afa908115610171579061014a9291889161014f575b50610139828a6115a5565b5261014481896115a5565b50611580565b6100d4565b61016b91503d808a833e61016381836112df565b810190611611565b3861012e565b6040513d89823e3d90fd5b6101999194503d8085833e61019181836112df565b810190611424565b92386100c4565b6040513d85823e3d90fd5b600080fd5b80fd5b50346101b05760203660031901126101b0576101cd61149d565b508054604051631d591eb760e31b81526004803590820152908290829060249082906001600160a01b03165afa90811561023d57826100f19392610222575b5050604051918291602083526020830190611034565b61023692503d8091833e61016381836112df565b388061020c565b6040513d84823e3d90fd5b50346101b0576101403660031901126101b0576001600160401b0360243581811161055e5761027b90369060040161131d565b6044358281116105425761029390369060040161131d565b906064358381116106c5576102ac90369060040161131d565b9260a435916001600160a01b03831683036101ab5760c4358281116106c1576102d990369060040161131d565b9460e4358381116106bd576102f290369060040161131d565b92610104359081116106bd5761030c90369060040161137b565b60056101243510156106bd576001546001600160a01b03163303610669576004351561062d5742608435106105d7576001600160a01b03851615610599578754604051630aac5dfd60e01b81529689956001600160a01b039092169390602089600481885afa988915610171578799610562575b506040519561038e876112c3565b89875260043560208801526040870152606086015260808501524260a085015260843560c0850152606060e0850152846101008501528461012085015261014084015261016083015261012435610180830152803b1561055e5761041a8392918392604051948580948193631b8513e960e31b83528b6004840152606060248401526064830190611034565b6001600160a01b038a16604483015203925af1801561023d5761054a575b5080546001600160a01b0316803b15610546576040516334ff261960e21b81526001600160a01b03841660048201526024810185905260606044820152908290829081838161048a606482018c610fec565b03925af1801561023d5761052e575b505060405160208082526001600160a01b03909216937f49b4e4c6879cdc85b51d8c3b572252aaa7842edb863810854acb6d2ed420d9629282916104df91830190610fec565b0390a3805481906001600160a01b0316803b1561052b57818091600460405180948193632c5bdb1f60e01b83525af1801561023d5761051b5750f35b6105249061129a565b6101b05780f35b50fd5b6105379061129a565b610542578338610499565b8380fd5b5080fd5b6105539061129a565b610542578338610438565b8280fd5b965097506020863d602011610591575b8161057f602093836112df565b810103126101ab578995519738610380565b3d9150610572565b60405162461bcd60e51b8152602060048201526016602482015275416464726573732063616e6e6f74206265207a65726f60501b6044820152606490fd5b60405162461bcd60e51b815260206004820152602860248201527f50726f6a65637420656e6420646174652073686f756c6420626520696e207468604482015267652066757475726560c01b6064820152608490fd5b60405162461bcd60e51b815260206004820152601460248201527350726963652063616e6e6f74206265207a65726f60601b6044820152606490fd5b60405162461bcd60e51b815260206004820152602660248201527f4f6e6c792073757065727669736f722063616e2063616c6c20746869732066756044820152653731ba34b7b760d11b6064820152608490fd5b8780fd5b8680fd5b8480fd5b50346101b057806003193601126101b0576001546040516001600160a01b039091168152602090f35b50346101b05760803660031901126101b0576024906001600160401b0360043583358281116105425761072990369060040161131d565b916044358181116106c55761074290369060040161137b565b906064359081116106c55761075b90369060040161131d565b8454604051634f558e7960e01b8152600481018590526001600160a01b03909116929060209081818a81885afa908115610923578891610968575b501561092e5760405163430c208160e01b81523360048201528881018690528181604481885afa9081156109235788916108f6575b50156108bb575085939291879160405196631d591eb760e31b885285600489015286888581885afa97881561017157879861089f575b50805115610893575b610140880152805115610887575b61016087015280511561087c575b6080860152813b15610542578360409361085e855197889687958694631c29952960e31b865260048601528401526044830190611034565b03925af1801561023d57610870575080f35b6108799061129a565b80f35b506080850151610826565b50610160860151610818565b5061014087015161080a565b6108b49198503d8089833e61016381836112df565b9689610801565b6064906015896040519262461bcd60e51b84526004840152820152742737ba1030b8383937bb32b21037b91037bbb732b960591b6044820152fd5b6109169150823d841161091c575b61090e81836112df565b8101906118bc565b386107cb565b503d610904565b6040513d8a823e3d90fd5b6064906014896040519262461bcd60e51b8452600484015282015273105cdcd95d08191bd95cc81b9bdd08195e1a5cdd60621b6044820152fd5b61097f9150823d841161091c5761090e81836112df565b38610796565b50346101b05760403660031901126101b057600435600481101561054657602480359160058310156105425780610b9c575082546040516301fb15dd60e31b8152908490829060049082906001600160a01b03165afa908115610b91578491610b77575b50925b805460405163a2311d5f60e01b81526001600160a01b0390911693610a15906004830190611011565b81818481875afa90811561023d578291610b5d575b50610a35815161154e565b928290835b8751811015610a675780610a51610a62928a6115a5565b51610a5c82896115a5565b52611580565b610a3a565b5090919294610a7684516114fe565b9186945b8051861015610b4757875b8751811015610b3c57610a9887836115a5565b51610aa3828a6115a5565b5114610ab757610ab290611580565b610a85565b509493610ac485876115a5565b5160405190631d591eb760e31b8252600482015288818481875afa918215610b3157610b1192610b0b928b91610b17575b50610b0082886115a5565b5261014481876115a5565b94611580565b94610a7a565b610b2b91503d808d833e61016381836112df565b8b610af5565b6040513d8b823e3d90fd5b5094610b1190611580565b604051602080825281906100f19082018761120a565b610b7191503d8084833e61019181836112df565b38610a2a565b610b8b91503d8086833e61019181836112df565b386109e9565b6040513d86823e3d90fd5b60018103610bf757508254604051620dee2360e51b8152908490829060049082906001600160a01b03165afa908115610b91578491610bdd575b50926109ec565b610bf191503d8086833e61019181836112df565b38610bd6565b60028103610c3857508254604051630f4facc560e21b8152908490829060049082906001600160a01b03165afa908115610b91578491610bdd5750926109ec565b600303610c77578254604051635aff92c160e11b8152908490829060049082906001600160a01b03165afa908115610b91578491610bdd5750926109ec565b60405162461bcd60e51b815280610c90600482016113fb565b0390fd5b82346101b0576020918260031936011261054657600435600481101561055e5780610ed557505080546040516301fb15dd60e31b8152908290829060049082906001600160a01b03165afa90811561023d578291610ebb575b50905b815191610cfc836114fe565b92610d068161154e565b91610d108261154e565b845490946001600160a01b0390911691815b848110610d6557610d4a886100f189610d578d8b60405196879660608852606088019061120a565b9186830390870152611266565b908382036040850152611266565b610d6f81836115a5565b519060405191631d591eb760e31b8352600483015260249184818481895afa908115610e96578591610ea1575b50610da7828b6115a5565b52610db2818a6115a5565b50610dbd81846115a5565b51604051906334422a4760e01b825260048201528a818481895afa908115610e96578591610e69575b50610df182896115a5565b5289610dfd82856115a5565b51604051938491631d6e430760e11b8352600483015281885afa8015610b91578490610e38575b610e339250610a5c828a6115a5565b610d22565b50908981813d8311610e62575b610e4f81836112df565b810103126105425790610e339151610e24565b503d610e45565b90508a81813d8311610e8f575b610e8081836112df565b810103126106c557518b610de6565b503d610e76565b6040513d87823e3d90fd5b610eb591503d8087833e61016381836112df565b8b610d9c565b610ecf91503d8084833e61019181836112df565b83610ced565b60018103610f315750508054604051620dee2360e51b8152908290829060049082906001600160a01b03165afa90811561023d578291610f17575b5090610cf0565b610f2b91503d8084833e61019181836112df565b83610f10565b60028103610f735750508054604051630f4facc560e21b8152908290829060049082906001600160a01b03165afa90811561023d578291610f17575090610cf0565b600303610fb357508054604051635aff92c160e11b8152908290829060049082906001600160a01b03165afa90811561023d578291610f17575090610cf0565b62461bcd60e51b815280610c90600482016113fb565b60005b838110610fdc5750506000910152565b8181015183820152602001610fcc565b9060209161100581518092818552858086019101610fc9565b601f01601f1916010190565b90600582101561101e5752565b634e487b7160e01b600052602160045260246000fd5b9190825181526020908184015182820152604061105e818601516101a08084860152840190610fec565b6110746060918288015185820384870152610fec565b9161108b6080938489015186820386880152610fec565b60a093848901518587015260c092838a01518488015260e08a01519587840360e0890152865194858552898501938a808860051b8801019901976000965b8c8989106111975750505050505050505050506101009081860151600481101561101e5761111b9284015261012060018060a01b03818801511690840152610140808701519084830390850152610fec565b936101609283820151938387039084015283518087528187019180808360051b8a01019601926000905b83821061116a5750505050506111679293945061018080910151910190611011565b90565b909192939683806111886001938d601f199082030186528b51610fec565b99019201920190939291611145565b80600192939495969798999a9b9c601f19858203018b528d519089806111d76111c785518d86528d860190610fec565b8686015185820388870152610fec565b938d8082015190850152898101518a8501528a8101518b85015201519101529c01980198019698979594939291906110c9565b908082519081815260208091019281808460051b8301019501936000915b8483106112385750505050505090565b9091929394958480611256600193601f198682030187528a51611034565b9801930193019194939290611228565b90815180825260208080930193019160005b828110611286575050505090565b835185529381019392810192600101611278565b6001600160401b0381116112ad57604052565b634e487b7160e01b600052604160045260246000fd5b6101a081019081106001600160401b038211176112ad57604052565b601f909101601f19168101906001600160401b038211908210176112ad57604052565b6001600160401b0381116112ad57601f01601f191660200190565b81601f820112156101ab5780359061133482611302565b9261134260405194856112df565b828452602083830101116101ab57816000926020809301838601378301015290565b6001600160401b0381116112ad5760051b60200190565b9080601f830112156101ab5781359061139382611364565b926113a160405194856112df565b828452602092838086019160051b830101928084116101ab57848301915b8483106113cf5750505050505090565b82356001600160401b0381116101ab5786916113f08484809489010161131d565b8152019201916113bf565b60609060208152600e60208201526d496e76616c69642073746174757360901b60408201520190565b60209081818403126101ab578051906001600160401b0382116101ab57019180601f840112156101ab57825161145981611364565b9361146760405195866112df565b818552838086019260051b8201019283116101ab578301905b82821061148e575050505090565b81518152908301908301611480565b604051906114aa826112c3565b81610180600091828152826020820152606080604083015280808301528060808301528360a08301528360c08301528060e08301528361010083015283610120830152806101408301526101608201520152565b9061150882611364565b61151560405191826112df565b8281528092611526601f1991611364565b019060005b82811061153757505050565b60209061154261149d565b8282850101520161152b565b9061155882611364565b61156560405191826112df565b8281528092611576601f1991611364565b0190602036910137565b600019811461158f5760010190565b634e487b7160e01b600052601160045260246000fd5b80518210156115b95760209160051b010190565b634e487b7160e01b600052603260045260246000fd5b81601f820112156101ab5780516115e581611302565b926115f360405194856112df565b818452602082840101116101ab576111679160208085019101610fc9565b602080828403126101ab5781516001600160401b03928382116101ab5701916101a0838503126101ab5760409182519461164a866112c3565b845186528185015182870152838501518381116101ab578161166d9187016115cf565b848701526060808601518481116101ab578261168a9188016115cf565b818801526080808701518581116101ab57836116a79189016115cf565b8189015260a09081880151828a015260c09182890151838b015260e08901518781116101ab5789019285601f850112156101ab578351926116e784611364565b956116f48b5197886112df565b848752888088019560051b870101958887116101ab57898101955b87871061180d57505050505050505060e0870152610100808601519060048210156101ab5787015261012085810151906001600160a01b03821682036101ab57870152610140808601518481116101ab578261176c9188016115cf565b9087015261016092838601518181116101ab5786019082601f830112156101ab578151906117a561179c83611364565b975197886112df565b818752848088019260051b840101938085116101ab57858401925b8584106117e85750505050505050830152610180809101519060058210156101ab5782015290565b83518381116101ab578791611802848480948a01016115cf565b8152019301926117c0565b86518c81116101ab57820185601f19828d0301126101ab578d5186810192908e8411818510176118a757928f52818d0151928e84116101ab578f8f948f8f90611858928701016115cf565b82528301519384116101ab578f838f95918f61187a90888d95819901016115cf565b86850152888201519084015288810151888401528a8101518984015201518982015281520196019561170f565b60246000634e487b7160e01b81526041600452fd5b908160209103126101ab575180151581036101ab579056fea2646970667358221220c7ef6d38c6a1fc5f2261734b79d582d2f9ddb4de8debdc97f69db8d31cbc94da64736f6c63430008130033",
  "devdoc": {
    "kind": "dev",
    "methods": {},
    "version": 1
  },
  "userdoc": {
    "kind": "user",
    "methods": {},
    "version": 1
  },
  "storageLayout": {
    "storage": [
      {
        "astId": 4661,
        "contract": "contracts/Assets.sol:Assets",
        "label": "nftContract",
        "offset": 0,
        "slot": "0",
        "type": "t_contract(NFTVenture)7155"
      },
      {
        "astId": 4663,
        "contract": "contracts/Assets.sol:Assets",
        "label": "supervisor",
        "offset": 0,
        "slot": "1",
        "type": "t_address"
      }
    ],
    "types": {
      "t_address": {
        "encoding": "inplace",
        "label": "address",
        "numberOfBytes": "20"
      },
      "t_contract(NFTVenture)7155": {
        "encoding": "inplace",
        "label": "contract NFTVenture",
        "numberOfBytes": "20"
      }
    }
  }
}