{
  "address": "0x61497be772a03E81081D9E4Cf5956ea039ed6DB0",
  "abi": [
    {
      "inputs": [
        {
          "internalType": "address",
          "name": "nftAddress",
          "type": "address"
        },
        {
          "internalType": "address",
          "name": "reward_tokens",
          "type": "address"
        }
      ],
      "stateMutability": "nonpayable",
      "type": "constructor"
    },
    {
      "anonymous": false,
      "inputs": [
        {
          "indexed": true,
          "internalType": "address",
          "name": "investor",
          "type": "address"
        },
        {
          "indexed": true,
          "internalType": "uint256",
          "name": "assetId",
          "type": "uint256"
        },
        {
          "indexed": true,
          "internalType": "uint256",
          "name": "tokenId",
          "type": "uint256"
        },
        {
          "indexed": false,
          "internalType": "uint256",
          "name": "tokenAmount",
          "type": "uint256"
        },
        {
          "indexed": false,
          "internalType": "uint256",
          "name": "value",
          "type": "uint256"
        }
      ],
      "name": "LogInvestment",
      "type": "event"
    },
    {
      "inputs": [],
      "name": "Reward_tokens",
      "outputs": [
        {
          "internalType": "address",
          "name": "",
          "type": "address"
        }
      ],
      "stateMutability": "view",
      "type": "function"
    },
    {
      "inputs": [
        {
          "internalType": "uint256",
          "name": "assetId",
          "type": "uint256"
        }
      ],
      "name": "getInvestmentDetails",
      "outputs": [
        {
          "internalType": "uint256",
          "name": "totalInvested",
          "type": "uint256"
        },
        {
          "internalType": "uint256",
          "name": "remainingFunding",
          "type": "uint256"
        }
      ],
      "stateMutability": "view",
      "type": "function"
    },
    {
      "inputs": [
        {
          "internalType": "uint256",
          "name": "assetId",
          "type": "uint256"
        }
      ],
      "name": "getInvestmentHistory",
      "outputs": [
        {
          "internalType": "address[]",
          "name": "investors",
          "type": "address[]"
        },
        {
          "internalType": "uint256[]",
          "name": "amounts",
          "type": "uint256[]"
        },
        {
          "internalType": "uint256[][]",
          "name": "tokenIds",
          "type": "uint256[][]"
        },
        {
          "internalType": "uint256[][]",
          "name": "tokenAmounts",
          "type": "uint256[][]"
        }
      ],
      "stateMutability": "view",
      "type": "function"
    },
    {
      "inputs": [
        {
          "internalType": "address",
          "name": "investor",
          "type": "address"
        }
      ],
      "name": "getInvestmentsByAddress",
      "outputs": [
        {
          "internalType": "uint256[]",
          "name": "assetIds",
          "type": "uint256[]"
        },
        {
          "internalType": "uint256[]",
          "name": "amounts",
          "type": "uint256[]"
        },
        {
          "internalType": "uint256[][]",
          "name": "tokenIds",
          "type": "uint256[][]"
        },
        {
          "internalType": "uint256[][]",
          "name": "tokenAmounts",
          "type": "uint256[][]"
        }
      ],
      "stateMutability": "view",
      "type": "function"
    },
    {
      "inputs": [
        {
          "internalType": "uint256",
          "name": "assetId",
          "type": "uint256"
        },
        {
          "internalType": "address",
          "name": "investor",
          "type": "address"
        }
      ],
      "name": "getInvestmentsByAddressInAsset",
      "outputs": [
        {
          "internalType": "uint256",
          "name": "amount",
          "type": "uint256"
        },
        {
          "internalType": "uint256[]",
          "name": "tokenIds",
          "type": "uint256[]"
        },
        {
          "internalType": "uint256[]",
          "name": "tokenAmounts",
          "type": "uint256[]"
        }
      ],
      "stateMutability": "view",
      "type": "function"
    },
    {
      "inputs": [
        {
          "internalType": "uint256",
          "name": "assetId",
          "type": "uint256"
        },
        {
          "internalType": "uint256",
          "name": "rewardTokenId",
          "type": "uint256"
        },
        {
          "internalType": "uint256",
          "name": "tokenAmount",
          "type": "uint256"
        }
      ],
      "name": "investAsset",
      "outputs": [],
      "stateMutability": "payable",
      "type": "function"
    },
    {
      "inputs": [],
      "name": "supervisor",
      "outputs": [
        {
          "internalType": "address",
          "name": "",
          "type": "address"
        }
      ],
      "stateMutability": "view",
      "type": "function"
    }
  ],
  "transactionHash": "0xb6835bb600dd276b08f5cc2136c36fec2b23fec3572cef1fd7d70d588e5356a7",
  "args": [
    "0x18feA9a72fe998f2f0643061FC2149F728D5475B",
    "0x1e6b741A06f858CD61bFFcE7D8EAC6d76415548A"
  ],
  "numDeployments": 1,
  "solcInputHash": "289b62e2243967edd4cdb5ffc0cfa5dd",
  "bytecode": "0x60803461009857601f61155a38819003918201601f19168301916001600160401b0383118484101761009d57808492604094855283398101031261009857610052602061004b836100b3565b92016100b3565b600080546001600160a01b03199081166001600160a01b039485161790915560028054821633179055600180549091169190921617905560405161149290816100c88239f35b600080fd5b634e487b7160e01b600052604160045260246000fd5b51906001600160a01b03821682036100985756fe608080604052600436101561001357600080fd5b60009060e08235811c91826309b3da2b14610da75750816316bd19d414610b555781631e011b3e1461092d57816356e4b68b14610904578163af33062314610783578163bc4040d2146101f1575063ce7f35b41461007057600080fd5b346101ee57602090816003193601126101ee576004359160018060a01b0382541691604051634f558e7960e01b81528460048201528281602481875afa9081156101b657906100c69183916101c1575b50610edb565b604051631d591eb760e31b815260048101859052938185602481875afa9485156101b6578295610190575b508290602460405180968193630c0adb9160e41b835260048301525afa92831561018357819361014c575b5082826040950151818111600014610144576101389250611295565b905b8351928352820152f35b50509061013a565b9180935082813d831161017c575b6101648183610ea0565b810103126101775790519190604061011c565b600080fd5b503d61015a565b50604051903d90823e3d90fd5b839195506101af903d8085833e6101a78183610ea0565b810190610fb9565b94906100f1565b6040513d84823e3d90fd5b6101e19150843d86116101e7575b6101d98183610ea0565b810190610ec3565b386100c0565b503d6101cf565b80fd5b9050606036600319011261077f576044351561072e578154604051634f558e7960e01b815260048035908201526001600160a01b0390911690602081602481855afa801561070a576102499185916107155750610edb565b604051631d591eb760e31b81526004803590820152918383602481855afa92831561070a5784936106ee575b5061010083015160048110156106da576106965760405161029581610e5c565b60608152606060208201528460408201528460608201528460808201528460a08201529084908590865b8187018051805183101561068a5760a06102dc846024359361126b565b510151146102f357506102ee90611246565b6102bf565b92509495505061030792508391505161126b565b5160015b156106395760808101906044358251106105f6576060015160443581029080820460443514901517156105e25734036105a657839161034d6044358351611295565b809252833b156105a2576064908360405195869485936343d08af360e11b85526004356004860152602485015260448401525af180156101b657610593575b50805481906001600160a01b0316803b156104f957818091606460405180948193631e7d210960e21b835260043560048401523360248401523460448401525af180156101b65761057f575b509060018060a01b038154166040516307c9054760e01b815260043560048201528281602481855afa908115610574578391610552575b50825b815181101561054957336001600160a01b0361042e838561126b565b5116146104435761043e90611246565b610412565b505081925060015b156104fc575b5080546001600160a01b0316803b156104f9578180916084604051809481936368b3727760e11b83526004356004840152336024840152602435604484015260443560648401525af180156101b6576104e5575b50604051604435815234602082015260243590600435907ff85c915ce9c62984825f2ff42dc2ac372422bebf345a567590885dc78681325d60403392a480f35b6104ee90610e8d565b6101ee5780386104a5565b50fd5b803b156104f957816040518092635df1839160e11b82528183816105263360043560048401611323565b03925af180156101b657156104515761053e90610e8d565b6101ee578038610451565b5050819261044b565b61056e91503d8085833e6105668183610ea0565b8101906112a2565b3861040f565b6040513d85823e3d90fd5b61058890610e8d565b6101ee5780386103d8565b61059c90610e8d565b3861038c565b8280fd5b60405162461bcd60e51b8152602060048201526014602482015273125b98dbdc9c9958dd081d985b1d59481cd95b9d60621b6044820152606490fd5b634e487b7160e01b85526011600452602485fd5b60405162461bcd60e51b815260206004820152601b60248201527a4e6f7420656e6f75676820617661696c61626c6520746f6b656e7360281b6044820152606490fd5b60405162461bcd60e51b8152602060048201526024808201527f52657761726420646f6573206e6f7420657869737420666f72207468697320616044820152631cdcd95d60e21b6064820152608490fd5b5050505092935061030b565b606460405162461bcd60e51b815260206004820152602060248201527f50726f6a656374206973206e6f7420696e2053746172746564207374617475736044820152fd5b634e487b7160e01b85526021600452602485fd5b6107039193503d8086833e6101a78183610ea0565b9138610275565b6040513d86823e3d90fd5b6101e1915060203d6020116101e7576101d98183610ea0565b60405162461bcd60e51b815260206004820152602360248201527f546f6b656e20616d6f756e74206d75737420626520677265617465722074686160448201526206e20360ec1b6064820152608490fd5b5080fd5b82346101ee5760403660031901126101ee5760243590600435906001600160a01b03808416840361077f578154169260405193634f558e7960e01b85528360048601526020948581602481855afa90811561070a57906107e99185916108e75750610edb565b604051635dbf1c2d60e11b815293858580610808868560048401611323565b0381855afa94851561070a5784956108b2575b5060405163ebcab60560e01b81529392839285929091839182916108429160048401611323565b03915afa9182156101835790610886929181809361088a575b505061087890606060405196879687528601526060850190610dcc565b908382036040850152610dcc565b0390f35b61087893506108ab92503d8091833e6108a38183610ea0565b810190611416565b918661085b565b9094508581813d83116108e0575b6108ca8183610ea0565b810103126108dc57519361084261081b565b8380fd5b503d6108c0565b6108fe9150873d89116101e7576101d98183610ea0565b876100c0565b82346101ee57806003193601126101ee576002546040516001600160a01b039091168152602090f35b82346101ee57602090816003193601126101ee576004356001600160a01b03818116918290036105a25782541660405191633a79e15360e21b835260048301528282602481845afa918215610574578392610b10575b508151936109908561133c565b9361099a8661133c565b956109a48161136e565b936109ae8261136e565b95835b838110610a07576109de896108868a6109f98b8f8c6109eb9160405198899860808a5260808a0190610dcc565b9188830390890152610dcc565b908582036040870152610e00565b908382036060850152610e00565b610a11818361126b565b51604051635dbf1c2d60e11b8152878180610a326004358660048401611323565b0381885afa908115610ad4578791610adf575b50610a50838d61126b565b5260405163ebcab60560e01b8152868180610a716004358660048401611323565b0381885afa8015610ad45790610ab393929188918991610ab8575b50610a97848d61126b565b52610aa2838b61126b565b52610aad828c61126b565b52611246565b6109b1565b9050610ace91503d808a833e6108a38183610ea0565b8e610a8c565b6040513d89823e3d90fd5b90508781813d8311610b09575b610af68183610ea0565b81010312610b0557518c610a45565b8680fd5b503d610aec565b9091503d8084833e610b228183610ea0565b81019084818303126108dc578051906001600160401b038211610b5157610b4a9291016113b8565b9084610983565b8480fd5b82346101ee5760203660031901126101ee578054604051634f558e7960e01b815260048035908201526001600160a01b039291831690602081602481855afa9081156105745790610bac918491610d885750610edb565b6040516307c9054760e01b815260048035908201528281602481855afa908115610574578391610d6e575b50805190610be48261133c565b610bed8361136e565b92610bf78161136e565b94865b828110610c5a575050506040519460808601608087528351809152602060a088019401915b818110610c42578780610886896109f98a6109eb8b8b8782036020890152610dcc565b82518916855260209485019490920191600101610c1f565b88610c65828761126b565b5116604051635dbf1c2d60e11b815260208180610c888560043560048401611323565b0381875afa908115610d6357908a918291610d28575b5091610ccc92610cae858961126b565b526040518093819263ebcab60560e01b835260043560048401611323565b0381865afa8015610d1d5790610cfc92918a918b91610d01575b50610cf1838b61126b565b52610aad828961126b565b610bfa565b9050610d1791503d808c833e6108a38183610ea0565b8c610ce6565b6040513d8b823e3d90fd5b9150506020813d602011610d5b575b81610d4460209383610ea0565b81010312610d5757518990610ccc610c9e565b8980fd5b3d9150610d37565b6040513d8c823e3d90fd5b610d8291503d8085833e6105668183610ea0565b84610bd7565b610da1915060203d6020116101e7576101d98183610ea0565b856100c0565b83903461077f578160031936011261077f576001546001600160a01b03168152602090f35b90815180825260208080930193019160005b828110610dec575050505090565b835185529381019392810192600101610dde565b908082519081815260208091019281808460051b8301019501936000915b848310610e2e5750505050505090565b9091929394958480610e4c600193601f198682030187528a51610dcc565b9801930193019194939290610e1e565b60c081019081106001600160401b03821117610e7757604052565b634e487b7160e01b600052604160045260246000fd5b6001600160401b038111610e7757604052565b601f909101601f19168101906001600160401b03821190821017610e7757604052565b90816020910312610177575180151581036101775790565b15610ee257565b60405162461bcd60e51b8152602060048201526014602482015273105cdcd95d08191bd95cc81b9bdd08195e1a5cdd60621b6044820152606490fd5b919080601f84011215610177578251906001600160401b038211610e775760405191602091610f56601f8301601f1916840185610ea0565b8184528282870101116101775760005b818110610f7b57508260009394955001015290565b8581018301518482018401528201610f66565b6001600160401b038111610e775760051b60200190565b51906001600160a01b038216820361017757565b60209182828203126101775781516001600160401b03928382116101775701916101a093848484031261017757604092835195860186811084821117610e7757845284518652818501518287015283850151838111610177578161101e918701610f1e565b84870152606080860151848111610177578261103b918801610f1e565b818801526080808701518581116101775783611058918901610f1e565b8189015260a09081880151828a015260c09182890151838b015260e08901518781116101775789019285601f850112156101775783519261109884610f8e565b956110a58b519788610ea0565b848752888088019560051b8701019588871161017757898101955b8787106111b557505050505050505060e087015261010080860151906004821015610177578701526101206110f6818701610fa5565b90870152610140808601518481116101775782611114918801610f1e565b9087015261016092838601518181116101775786019082601f830112156101775781519061114d61114483610f8e565b97519788610ea0565b818752848088019260051b8401019380851161017757858401925b8584106111905750505050505050830152610180809101519060058210156101775782015290565b83518381116101775787916111aa848480948a0101610f1e565b815201930192611168565b86518c811161017757820185601f19828d030112610177578c918e516111da81610e5c565b8d830151938411610177578f8f948f8f906111f792870101610f1e565b8252830151938411610177578f838f95918f61121990888d9581990101610f1e565b86850152888201519084015288810151888401528a810151898401520151898201528152019601956110c0565b60001981146112555760010190565b634e487b7160e01b600052601160045260246000fd5b805182101561127f5760209160051b010190565b634e487b7160e01b600052603260045260246000fd5b9190820391821161125557565b6020908181840312610177578051906001600160401b03821161017757019180601f840112156101775782516112d781610f8e565b936112e56040519586610ea0565b818552838086019260051b820101928311610177578301905b82821061130c575050505090565b83809161131884610fa5565b8152019101906112fe565b9081526001600160a01b03909116602082015260400190565b9061134682610f8e565b6113536040519182610ea0565b8281528092611364601f1991610f8e565b0190602036910137565b9061137882610f8e565b6113856040519182610ea0565b8281528092611396601f1991610f8e565b019060005b8281106113a757505050565b80606060208093850101520161139b565b81601f82011215610177578051916113cf83610f8e565b926113dd6040519485610ea0565b808452602092838086019260051b820101928311610177578301905b828210611407575050505090565b815181529083019083016113f9565b9190916040818403126101775780516001600160401b03939084811161017757816114429184016113b8565b9360208301519081116101775761145992016113b8565b9056fea264697066735822122086a1d8be9730b5e466827830571e6ea7f455a35dcaf2df1becf79207756bb90364736f6c63430008130033",
  "devdoc": {
    "kind": "dev",
    "methods": {},
    "version": 1
  },
  "userdoc": {
    "kind": "user",
    "methods": {},
    "version": 1
  },
  "storageLayout": {
    "storage": [
      {
        "astId": 5505,
        "contract": "contracts/Investments.sol:Investments",
        "label": "nftContract",
        "offset": 0,
        "slot": "0",
        "type": "t_contract(NFTVenture)7155"
      },
      {
        "astId": 5507,
        "contract": "contracts/Investments.sol:Investments",
        "label": "Reward_tokens",
        "offset": 0,
        "slot": "1",
        "type": "t_address"
      },
      {
        "astId": 5509,
        "contract": "contracts/Investments.sol:Investments",
        "label": "supervisor",
        "offset": 0,
        "slot": "2",
        "type": "t_address"
      }
    ],
    "types": {
      "t_address": {
        "encoding": "inplace",
        "label": "address",
        "numberOfBytes": "20"
      },
      "t_contract(NFTVenture)7155": {
        "encoding": "inplace",
        "label": "contract NFTVenture",
        "numberOfBytes": "20"
      }
    }
  }
}