{
  "address": "0x9B9Ce3146B8Aa36Bc2FD1D764Ea27e5692C03C39",
  "abi": [
    {
      "inputs": [
        {
          "internalType": "address",
          "name": "nftAddress",
          "type": "address"
        }
      ],
      "stateMutability": "nonpayable",
      "type": "constructor"
    },
    {
      "anonymous": false,
      "inputs": [
        {
          "indexed": true,
          "internalType": "uint256",
          "name": "assetId",
          "type": "uint256"
        },
        {
          "indexed": false,
          "internalType": "uint256",
          "name": "rewardsCount",
          "type": "uint256"
        }
      ],
      "name": "RewardsAdded",
      "type": "event"
    },
    {
      "inputs": [
        {
          "internalType": "uint256",
          "name": "assetId",
          "type": "uint256"
        },
        {
          "components": [
            {
              "internalType": "string",
              "name": "tokenURI",
              "type": "string"
            },
            {
              "internalType": "string",
              "name": "title",
              "type": "string"
            },
            {
              "internalType": "string",
              "name": "description",
              "type": "string"
            },
            {
              "internalType": "uint256",
              "name": "tokenAmount",
              "type": "uint256"
            },
            {
              "internalType": "uint256",
              "name": "individualPrice",
              "type": "uint256"
            }
          ],
          "internalType": "struct NewReward[]",
          "name": "rewards",
          "type": "tuple[]"
        }
      ],
      "name": "addRewards",
      "outputs": [],
      "stateMutability": "nonpayable",
      "type": "function"
    },
    {
      "inputs": [
        {
          "internalType": "uint256",
          "name": "assetId",
          "type": "uint256"
        }
      ],
      "name": "getRewardsForAsset",
      "outputs": [
        {
          "components": [
            {
              "internalType": "string",
              "name": "title",
              "type": "string"
            },
            {
              "internalType": "string",
              "name": "description",
              "type": "string"
            },
            {
              "internalType": "uint256",
              "name": "tokenAmount",
              "type": "uint256"
            },
            {
              "internalType": "uint256",
              "name": "individualPrice",
              "type": "uint256"
            },
            {
              "internalType": "uint256",
              "name": "availableTokens",
              "type": "uint256"
            },
            {
              "internalType": "uint256",
              "name": "rewardTokenId",
              "type": "uint256"
            }
          ],
          "internalType": "struct Reward[]",
          "name": "",
          "type": "tuple[]"
        }
      ],
      "stateMutability": "view",
      "type": "function"
    },
    {
      "inputs": [
        {
          "internalType": "address",
          "name": "",
          "type": "address"
        },
        {
          "internalType": "address",
          "name": "",
          "type": "address"
        },
        {
          "internalType": "uint256[]",
          "name": "",
          "type": "uint256[]"
        },
        {
          "internalType": "uint256[]",
          "name": "",
          "type": "uint256[]"
        },
        {
          "internalType": "bytes",
          "name": "",
          "type": "bytes"
        }
      ],
      "name": "onERC1155BatchReceived",
      "outputs": [
        {
          "internalType": "bytes4",
          "name": "",
          "type": "bytes4"
        }
      ],
      "stateMutability": "nonpayable",
      "type": "function"
    },
    {
      "inputs": [
        {
          "internalType": "address",
          "name": "",
          "type": "address"
        },
        {
          "internalType": "address",
          "name": "",
          "type": "address"
        },
        {
          "internalType": "uint256",
          "name": "",
          "type": "uint256"
        },
        {
          "internalType": "uint256",
          "name": "",
          "type": "uint256"
        },
        {
          "internalType": "bytes",
          "name": "",
          "type": "bytes"
        }
      ],
      "name": "onERC1155Received",
      "outputs": [
        {
          "internalType": "bytes4",
          "name": "",
          "type": "bytes4"
        }
      ],
      "stateMutability": "nonpayable",
      "type": "function"
    },
    {
      "inputs": [],
      "name": "supervisor",
      "outputs": [
        {
          "internalType": "address",
          "name": "",
          "type": "address"
        }
      ],
      "stateMutability": "view",
      "type": "function"
    },
    {
      "inputs": [
        {
          "internalType": "bytes4",
          "name": "interfaceId",
          "type": "bytes4"
        }
      ],
      "name": "supportsInterface",
      "outputs": [
        {
          "internalType": "bool",
          "name": "",
          "type": "bool"
        }
      ],
      "stateMutability": "view",
      "type": "function"
    }
  ],
  "transactionHash": "0xf5eba077a7286186bf2b0d94668206871a1628cbfa10b0899ce340003607e3ce",
  "args": [
    "0x49B430C6eCf01d31dfBD61A9f9444d94eE079AAA"
  ],
  "numDeployments": 1,
  "solcInputHash": "911df7b597bf5222e98b16d7123feb1a",
  "bytecode": "0x60803461007c57601f61327738819003918201601f19168301916001600160401b038311848410176100815780849260209460405283398101031261007c57516001600160a01b0381169081900361007c5760018060a01b031990816000541617600055339060015416176001556040516131df90816100988239f35b600080fd5b634e487b7160e01b600052604160045260246000fdfe60808060405260043610156200001457600080fd5b600090813560e01c90816301ffc9a714620008d85750806356e4b68b14620008ad578063660486ff14620002995780638bfa795d146200016b578063bc197c8114620000cf5763f23a6e61146200006a57600080fd5b34620000cc5760a0366003190112620000cc576200008762000a3c565b506200009262000a53565b506084356001600160401b038111620000c857620000b59036906004016200099e565b5060405163f23a6e6160e01b8152602090f35b5080fd5b80fd5b5034620000cc5760a0366003190112620000cc57620000ed62000a3c565b50620000f862000a53565b506001600160401b0360443581811162000167576200011c90369060040162000a6a565b5060643581811162000167576200013890369060040162000a6a565b50608435908111620000c857620001549036906004016200099e565b5060405163bc197c8160e01b8152602090f35b8280fd5b5034620000cc57602080600319360112620000c8578154604051631d591eb760e31b81526004803590820152908390829060249082906001600160a01b03165afa80156200028e5760e091849162000267575b5001516040805183815282518185018190529093600582901b850183019381019285015b828710620001f05785850386f35b909192938280600192603f198982030185528751906200022e6200021d835160c080855284019062000a15565b848401518382038685015262000a15565b9160408101516040830152606080820151908301526080808201519083015260a0809101519101529601920196019592919092620001e2565b6200028791503d8086833e6200027e818362000946565b81019062000b1d565b38620001be565b6040513d85823e3d90fd5b5034620000cc576040366003190112620000cc576001600160401b0390602435828111620000c85736602382011215620000c8578060040135620002dd816200096a565b91620002ed604051938462000946565b8183526024602084019260051b82010190368211620005c15760248101925b828410620007d15750506001546001600160a01b0316330391506200077d9050578154604051634f558e7960e01b815260048035908201526001600160a01b0390911690602081602481855afa908115620006c25784916200073b575b5015620006ff578260249160405192838092631d591eb760e31b825260043560048301525afa9081156200028e5790610120918491620006e1575b500180516001600160a01b0316156200061e575b516001600160a01b031690825b8151811015620005ea5760405160208101906004358252826040820152604081526060810181811088821117620005d45760405251902060606200040a838562000e02565b51015162000419838562000e02565b515190853b15620005d057869060206200045f60405194859363a4b645eb60e01b8552306004860152876024860152604485015260a0606485015260a484019062000a15565b83838203916003198301608486015252018183895af18015620005c557908691620005a9575b505084546001600160a01b03166020620004a0848662000e02565b5101516040620004b1858762000e02565b510151926060620004c3868862000e02565b510151906080620004d5878962000e02565b510151843b15620005a5576200053195938a95936200051e938793604051998a9889978896630fe6a85560e21b8852600435600489015260c0602489015260c488019062000a15565b8681036003190160448801529062000a15565b926064850152608484015260a483015203925af180156200059a579085916200057e575b505060001981146200056a57600101620003c5565b634e487b7160e01b84526011600452602484fd5b620005899062000932565b6200059657833862000555565b8380fd5b6040513d87823e3d90fd5b8980fd5b620005b49062000932565b620005c157843862000485565b8480fd5b6040513d88823e3d90fd5b8680fd5b634e487b7160e01b600052604160045260246000fd5b8382516040519081527f40df43107e8b4d467127964bd3c966687c0a6a39aaede970755397fd09535e98602060043592a280f35b60405161237c8082019082821087831117620006cd57604091839162000e2e83396020815286602082015203019084f080156200028e576001600160a01b03908116808352845490911690813b15620005c1578491604483926040519485938492633489952160e01b8452600435600485015260248401525af18015620006c257620006ac575b50620003b8565b620006ba9093919362000932565b9138620006a5565b6040513d86823e3d90fd5b634e487b7160e01b86526041600452602486fd5b620006f891503d8086833e6200027e818362000946565b38620003a4565b60405162461bcd60e51b8152602060048201526014602482015273105cdcd95d08191bd95cc81b9bdd08195e1a5cdd60621b6044820152606490fd5b90506020813d60201162000774575b81620007596020938362000946565b81010312620005965751801515810362000596573862000369565b3d91506200074a565b60405162461bcd60e51b815260206004820152602660248201527f4f6e6c792073757065727669736f722063616e2063616c6c20746869732066756044820152653731ba34b7b760d11b6064820152608490fd5b8335878111620005d057820160a090816023198236030112620008a9576040519182018281108a8211176200089557604052602481013589811162000891576200082290602436918401016200099e565b8252604481013589811162000891576200084390602436918401016200099e565b6020830152606481013589811162000891579160a4602094926200086f8695602436918401016200099e565b604084015260848101356060840152013560808201528152019301926200030c565b8880fd5b634e487b7160e01b89526041600452602489fd5b8780fd5b5034620000cc5780600319360112620000cc576001546040516001600160a01b039091168152602090f35b905034620000c8576020366003190112620000c85760043563ffffffff60e01b8116809103620001675760209250630271189760e51b811490811562000920575b5015158152f35b6301ffc9a760e01b1490503862000919565b6001600160401b038111620005d457604052565b601f909101601f19168101906001600160401b03821190821017620005d457604052565b6001600160401b038111620005d45760051b60200190565b6001600160401b038111620005d457601f01601f191660200190565b81601f82011215620009eb57803590620009b88262000982565b92620009c8604051948562000946565b82845260208383010111620009eb57816000926020809301838601378301015290565b600080fd5b60005b83811062000a045750506000910152565b8181015183820152602001620009f3565b9060209162000a3081518092818552858086019101620009f0565b601f01601f1916010190565b600435906001600160a01b0382168203620009eb57565b602435906001600160a01b0382168203620009eb57565b81601f82011215620009eb5780359162000a84836200096a565b9262000a94604051948562000946565b808452602092838086019260051b820101928311620009eb578301905b82821062000ac0575050505090565b8135815290830190830162000ab1565b81601f82011215620009eb57805162000ae98162000982565b9262000af9604051948562000946565b81845260208284010111620009eb5762000b1a9160208085019101620009f0565b90565b6020918282820312620009eb5781516001600160401b0392838211620009eb5701916101a0938484840312620009eb57604092835195860186811084821117620005d457845284518652818501518287015283850151838111620009eb578162000b8991870162000ad0565b84870152606080860151848111620009eb578262000ba991880162000ad0565b81880152608080870151858111620009eb578362000bc991890162000ad0565b8189015260a09081880151828a015260c09182890151838b015260e0890151878111620009eb5789019285601f85011215620009eb5783519262000c0d846200096a565b9562000c1c8b51978862000946565b848752888088019560051b87010195888711620009eb57898101955b87871062000d4957505050505050505060e087015261010080860151906004821015620009eb5787015261012085810151906001600160a01b0382168203620009eb5787015261014080860151848111620009eb578262000c9b91880162000ad0565b908701526101609283860151818111620009eb5786019082601f83011215620009eb5781519062000cda62000cd0836200096a565b9751978862000946565b818752848088019260051b84010193808511620009eb57858401925b85841062000d20575050505050505083015261018080910151906005821015620009eb5782015290565b8351838111620009eb57879162000d3d848480948a010162000ad0565b81520193019262000cf6565b86518c8111620009eb57820185601f19828d030112620009eb578d5186810192908e84118185101762000ded57928f52818d0151928e8411620009eb578f8f948f8f9062000d9a9287010162000ad0565b8252830151938411620009eb578f838f95918f62000dbf90888d958199010162000ad0565b86850152888201519084015288810151888401528a8101518984015201518982015281520196019562000c38565b60246000634e487b7160e01b81526041600452fd5b805182101562000e175760209160051b010190565b634e487b7160e01b600052603260045260246000fdfe608060405234620002bb576200237c803803806200001d81620002c0565b9283398101906020918282820312620002bb5781516001600160401b0392838211620002bb570191601f91808385011215620002bb578351938285116200029157601f19946200007385820187168801620002c0565b92818452878284010111620002bb57869160005b828110620002a7575050906000918301015280519182116200029157620000b0600254620002e6565b83811162000253575b508493838311600114620001ec575092819293600092620001e0575b50508160011b916000199060031b1c1916176002555b600380546001600160a01b0319163390811790915560007f8be0079c531659141344cd1fd0a4f28419497f9722a3daafe3b4186f6b6457e08180a362000133600454620002e6565b818111620001bc575b507f4672616374696f6e616c2043545620546f6b656e73000000000000000000002a6004556005546200016f90620002e6565b9080821162000198575b600a641190d5159560da1b0160055560405161203f90816200033d8239f35b620001b3926005600052600020910160051c81019062000323565b38808062000179565b620001d99060046000528284600020910160051c81019062000323565b386200013c565b015190503880620000d5565b8216936002600052856000209160005b878782106200023c57505083600195961062000222575b505050811b01600255620000eb565b015160001960f88460031b161c1916905538808062000213565b6001849582939585015181550194019201620001fc565b62000280906002600052866000208580860160051c82019289871062000287575b0160051c019062000323565b38620000b9565b9250819262000274565b634e487b7160e01b600052604160045260246000fd5b818101840151858201850152830162000087565b600080fd5b6040519190601f01601f191682016001600160401b038111838210176200029157604052565b90600182811c9216801562000318575b60208310146200030257565b634e487b7160e01b600052602260045260246000fd5b91607f1691620002f6565b8181106200032f575050565b600081556001016200032356fe6040608081526004908136101561001557600080fd5b600091823560e01c908162fdd58e1461182057816301ffc9a7146117b257816306fdde03146116ff5781630e89341c146116265781632eb2c2d6146113425781634e1273f4146111ad5781636b20c45414611069578163715018a61461101a578163862440e214610eed5781638da5cb5b14610ec457816395d89b4114610ddf578163a22cb46514610d01578163a4b645eb146109f4578163b9571e8414610539578163e985e9c5146104e7578163f242432a1461028d578163f2fde38b146101d2575063f5298aca146100e857600080fd5b8190346101cf5760603660031901126101cf57610103611850565b6001600160a01b03169060243590600080516020611fca8339815191529060443533851480156101b0575b61013790611bc8565b610142851515611ea3565b61014b84611e6e565b5061015581611e6e565b50858251610162816118bb565b528386528560205281862085875260205261018c818388205461018782821015611efb565b611c85565b8487528660205282872086885260205282872055815193845260208401523392a480f35b508486526001602090815282872033885290528186205460ff1661012e565b50fd5b905034610289576020366003190112610289576101ed611850565b600354916001600160a01b0380841692610208338514611a4e565b169384156102375750508290600080516020611fea8339815191528580a36001600160a01b0319161760035580f35b906020608492519162461bcd60e51b8352820152602660248201527f4f776e61626c653a206e6577206f776e657220697320746865207a65726f206160448201526564647265737360d01b6064820152fd5b8280fd5b919050346102895760a0366003190112610289576102a9611850565b836102b261186b565b916044356064356084356001600160401b0381116104e3576102d790369089016119c4565b926001600160a01b03868116916102ef831515611b6e565b169233841480156104c4575b61030490611bc8565b61030d81611e6e565b5061031783611e6e565b50808652602096868852888720858852885261033d848a89205461018782821015611c26565b828852878952898820868952895289882055818752868852888720838852885288872061036b858254611c92565b905582858a51848152868b820152600080516020611fca8339815191528c3392a43b610395578580f35b889587946103d68a519788968795869463f23a6e6160e01b9c8d8752339087015260248601526044850152606484015260a0608484015260a483019061190f565b03925af1869181610495575b506104645750506001906103f4611d8d565b6308c379a014610431575b506104145750505b3880808381808080808580f35b5162461bcd60e51b81529150819061042d908201611e19565b0390fd5b610439611dab565b8061044457506103ff565b61042d8591855193849362461bcd60e51b8552840152602483019061190f565b6001600160e01b03191603905061047c575050610407565b5162461bcd60e51b81529150819061042d908201611d44565b6104b6919250843d86116104bd575b6104ae81836118ec565b810190611d24565b90386103e2565b503d6104a4565b508386526001602090815288872033885290528786205460ff166102fb565b8480fd5b50503461053557806003193601126105355760ff81602093610507611850565b61050f61186b565b6001600160a01b0391821683526001875283832091168252855220549151911615158152f35b5080fd5b905034610289576003199160a0368401126109f057610556611850565b6024946001600160401b039490919086358681116109f05761057b9036908701611966565b946044358781116104e3576105939036908301611966565b96606435938185116109ec57366023860112156109ec5784830135996105b88b61194f565b946105c5895196876118ec565b8b86526020968787018360059e8f1b830101913683116109e857848101915b8383106109be57505050506084358481116109ba5761060690369087016119c4565b60018060a01b039360039461061f818754163314611a4e565b8c5189510361096957906106508d9a9997959f98969493928f9083169b6106478d1515611f53565b51905114611c9f565b8a5b8d518110156106b157908e9f9392918e9f908f8f8f908f918f9261069e9361068887610681816106a59b611b44565b5197611b44565b5183528281528383209183525220918254611c92565b9055611b1f565b909192939f9e50610652565b508e8c8f8f95908c8f968f888d95888c94869b858588600080516020611faa8339815191526106e88f8e9051918291339583611cfc565b0390a43b610847575b5050509450505050505b85518110156108435761070e818b611b44565b516107198288611b44565b51865260068552828620908051908a8211610831578d9061073a8454611881565b601f928382116107f1575b505087918311600114610789576107799493929189918361077e575b50508160011b91600019908c1b1c1916179055611b1f565b6106fb565b015190508f80610761565b8389528789209190601f1984168a5b8a8282106107db5750509084610779979695949392106107c3575b505050600190811b019055611b1f565b0151600019838d1b60f8161c191690558e80806107b3565b6001859682939686015181550195019301610798565b858b52898b209084808701821c8301938c8810610828575b01901c01905b81811061081d57508f610745565b8a815560010161080f565b93508293610809565b634e487b7160e01b885260418c528588fd5b8480f35b83928a519889978896879563bc197c8160e01b9d8e885233908801528601526044850160a0905260a4850161087b91611a1a565b8285820301606486015261088e91611a1a565b908382030160848401526108a19161190f565b03925af186918161094a575b5061092557505060016108be611d8d565b6308c379a0146108f2575b6108dc575b878b848782888188816106f1565b5162461bcd60e51b81528061042d818a01611e19565b6108fa611dab565b8061090557506108c9565b9050889261042d925194859462461bcd60e51b865285015283019061190f565b6001600160e01b031916146108ce575162461bcd60e51b81528061042d818a01611d44565b610962919250863d88116104bd576104ae81836118ec565b908d6108ad565b508a5162461bcd60e51b81528088018a90526025818601527f455243313135353a2069647320616e642075726973206c656e677468206d69736044820152640dac2e8c6d60db1b6064820152608490fd5b8880fd5b82358881116109e4578b916109d983928936918701016119c4565b8152019201916105e4565b8c80fd5b8a80fd5b8580fd5b8380fd5b839150346105355760a036600319011261053557610a10611850565b604435936001600160401b039190602435606435848111610cfd57610a3890369087016119c4565b96608435858111610cf95790610a528792369084016119c4565b9460018060a01b03610a6981600354163314611a4e565b811695610a77871515611f53565b610a8085611e6e565b50610a8a83611e6e565b50848a5260209687928b8452878c20828d528452878c20610aac868254611c92565b9055818c89518981528787820152600080516020611fca8339815191528b3392a43b610bf1575b50505050508552600682528420928551928311610bde5750610af58354611881565b601f8111610b9b575b5080601f8311600114610b395750839482939492610b2e575b50508160011b916000199060031b1c191617905580f35b015190508480610b17565b90601f198316958486528286209286905b888210610b8357505083600195969710610b6a575b505050811b01905580f35b015160001960f88460031b161c19169055848080610b5f565b80600185968294968601518155019501930190610b4a565b838552818520601f840160051c810191838510610bd4575b601f0160051c01905b818110610bc95750610afe565b858155600101610bbc565b9091508190610bb3565b634e487b7160e01b855260419052602484fd5b610c31938b885180968195829463f23a6e6160e01b9a8b855233908501528460248501528b6044850152606484015260a0608484015260a483019061190f565b03925af1889181610cda575b50610cb45750506001610c4e611d8d565b6308c379a014610c7f575b610c68575b8488848180610ad3565b815162461bcd60e51b81528061042d818801611e19565b610c87611dab565b80610c925750610c59565b835162461bcd60e51b815280880186905290819061042d90602483019061190f565b6001600160e01b03191614610c5e57815162461bcd60e51b81528061042d818801611d44565b610cf2919250863d88116104bd576104ae81836118ec565b908a610c3d565b8780fd5b8680fd5b91905034610289578060031936011261028957610d1c611850565b90602435918215158093036104e3576001600160a01b031692338414610d8b5750338452600160205280842083855260205280842060ff1981541660ff8416179055519081527f17307eab39ab6107e8899845ad3d59bd9653f200f220920489ca2b5937696c3160203392a380f35b6020608492519162461bcd60e51b8352820152602960248201527f455243313135353a2073657474696e6720617070726f76616c20737461747573604482015268103337b91039b2b63360b91b6064820152fd5b50503461053557816003193601126105355780519082600554610e0181611881565b80855290600190818116908115610e9c5750600114610e43575b505050610e2d82610e3f9403836118ec565b5191829160208352602083019061190f565b0390f35b60058352602095507f036b6384b5eca791c62761152d0c79bb0604c104a5fb6f4eb0703f3154bb3db05b828410610e895750505082610e3f94610e2d9282010194610e1b565b8054868501880152928601928101610e6d565b610e3f9750610e2d9450602092508693915060ff191682840152151560051b82010194610e1b565b50503461053557816003193601126105355760035490516001600160a01b039091168152602090f35b839150346105355782600319360112610535576001600160401b036024358181116109f057610f1f90369084016119c4565b93610f3560018060a01b03600354163314611a4e565b82358452602090600682528420928551928311610bde5750610f578354611881565b601f8111610fd7575b5080601f8311600114610f8f5750839482939492610b2e5750508160011b916000199060031b1c191617905580f35b90601f198316958486528286209286905b888210610fbf57505083600195969710610b6a57505050811b01905580f35b80600185968294968601518155019501930190610fa0565b838552818520601f840160051c810191838510611010575b601f0160051c01905b8181106110055750610f60565b858155600101610ff8565b9091508190610fef565b8334611066578060031936011261106657600354816001600160a01b038216611044338214611a4e565b600080516020611fea8339815191528280a36001600160a01b03191660035580f35b80fd5b9190503461028957606036600319011261028957611085611850565b906001600160401b036024358181116109ec576110a59036908601611966565b936044359182116109ec576110bc91369101611966565b916001600160a01b0316338114801561118e575b6110d990611bc8565b6110e4811515611ea3565b6110f18451845114611c9f565b8482516110fd816118bb565b52845b8585518210156111655750806111196111609287611b44565b516111248287611b44565b518189526111496020918a8352878b20878c528352878b205461018782821015611efb565b91895288815285892090858a525284882055611b1f565b611100565b808387600080516020611faa833981519152611188898951918291339583611cfc565b0390a480f35b508085526001602090815282862033875290528185205460ff166110d0565b90503461028957816003193601126102895780356001600160401b038082116104e357366023830112156104e35781830135906111e98261194f565b926111f6865194856118ec565b82845260209260248486019160051b830101913683116109ba57602401905b82821061131f575050506024359081116109ec576112369036908501611966565b9282518451036112cc575081519461124d8661194f565b9561125a865197886118ec565b808752611269601f199161194f565b0136838801375b82518110156112ba576112b5906112a56001600160a01b036112928387611b44565b511661129e8388611b44565b5190611a99565b6112af8289611b44565b52611b1f565b611270565b845182815280610e3f81850189611a1a565b60849185519162461bcd60e51b8352820152602960248201527f455243313135353a206163636f756e747320616e6420696473206c656e677468604482015268040dad2e6dac2e8c6d60bb1b6064820152fd5b81356001600160a01b038116810361133e578152908401908401611215565b8980fd5b905034610289576003199160a0368401126109f05761135f611850565b61136761186b565b936001600160401b0393604435858111610cf9576113889036908301611966565b906064358681116109ba576113a09036908301611966565b956084359081116109ba576113b890369083016119c4565b926113c68351885114611c9f565b6001600160a01b03888116956113dd871515611b6e565b16933385148015611608575b156115aa57895b8a855182101561146e57908961069e8a6114699461141985611412818d611b44565b5195611b44565b51938082526020908282528383208d84528252611440868585205461018782821015611c26565b8184528383528d8585209085528352848420558252818152828220908d83525220918254611c92565b6113f0565b5050909493959692919784878951600080516020611faa8339815191523391806114998a8a83611cfc565b0390a43b6114a5578880f35b8651948593849363bc197c8160e01b98898652338c87015260248601526044850160a0905260a485016114d791611a1a565b828582030160648601526114ea91611a1a565b908382030160848401526114fd9161190f565b0381885a94602095f185918161158a575b50611574575050600161151f611d8d565b6308c379a01461153d575b6104145750505b38808080808080808880f35b611545611dab565b80611550575061152a565b905061042d91602094505193849362461bcd60e51b8552840152602483019061190f565b6001600160e01b0319160361047c575050611531565b6115a391925060203d81116104bd576104ae81836118ec565b903861150e565b865162461bcd60e51b8152602081850152603260248201527f455243313135353a207472616e736665722063616c6c6572206973206e6f74206044820152711bdddb995c881b9bdc88185c1c1c9bdd995960721b6064820152608490fd5b50848a526001602052868a20338b5260205260ff878b2054166113e9565b9190503461028957602091826003193601126109f0573583526006825280832081519384918181549061165882611881565b928386526001928884821691826000146116d5575050600114611697575b8588610e3f89611688848a03856118ec565b5192828493845283019061190f565b87945081939291528383205b8284106116bd5750505082010181611688610e3f38611676565b8054848a0186015288955087949093019281016116a3565b60ff19168882015294151560051b870190940194508593506116889250610e3f9150389050611676565b8383346105355781600319360112610535578051918093805461172181611881565b80865291600191808316908115611787575060011461174c575b610e3f8686610e2d828b03836118ec565b835260208084209096505b8284106117745750505082610e3f94610e2d92820101948661173b565b8054868501880152928601928101611757565b9050610e3f9750610e2d9450602092508693915060ff191682840152151560051b820101948661173b565b90503461028957602036600319011261028957359063ffffffff60e01b82168092036102895760209250636cdb3d1360e11b821491821561180f575b82156117fe575b50519015158152f35b6301ffc9a760e01b149150386117f5565b6303a24d0760e21b811492506117ee565b505034610535578060031936011261053557602090611849611840611850565b60243590611a99565b9051908152f35b600435906001600160a01b038216820361186657565b600080fd5b602435906001600160a01b038216820361186657565b90600182811c921680156118b1575b602083101461189b57565b634e487b7160e01b600052602260045260246000fd5b91607f1691611890565b602081019081106001600160401b038211176118d657604052565b634e487b7160e01b600052604160045260246000fd5b601f909101601f19168101906001600160401b038211908210176118d657604052565b919082519283825260005b84811061193b575050826000602080949584010152601f8019910116010190565b60208183018101518483018201520161191a565b6001600160401b0381116118d65760051b60200190565b81601f820112156118665780359161197d8361194f565b9261198b60405194856118ec565b808452602092838086019260051b820101928311611866578301905b8282106119b5575050505090565b813581529083019083016119a7565b81601f82011215611866578035906001600160401b0382116118d657604051926119f8601f8401601f1916602001856118ec565b8284526020838301011161186657816000926020809301838601378301015290565b90815180825260208080930193019160005b828110611a3a575050505090565b835185529381019392810192600101611a2c565b15611a5557565b606460405162461bcd60e51b815260206004820152602060248201527f4f776e61626c653a2063616c6c6572206973206e6f7420746865206f776e65726044820152fd5b6001600160a01b0316908115611ac657600052600060205260406000209060005260205260406000205490565b60405162461bcd60e51b815260206004820152602b60248201527f455243313135353a2062616c616e636520717565727920666f7220746865207a60448201526a65726f206164647265737360a81b6064820152608490fd5b6000198114611b2e5760010190565b634e487b7160e01b600052601160045260246000fd5b8051821015611b585760209160051b010190565b634e487b7160e01b600052603260045260246000fd5b15611b7557565b60405162461bcd60e51b815260206004820152602560248201527f455243313135353a207472616e7366657220746f20746865207a65726f206164604482015264647265737360d81b6064820152608490fd5b15611bcf57565b60405162461bcd60e51b815260206004820152602960248201527f455243313135353a2063616c6c6572206973206e6f74206f776e6572206e6f7260448201526808185c1c1c9bdd995960ba1b6064820152608490fd5b15611c2d57565b60405162461bcd60e51b815260206004820152602a60248201527f455243313135353a20696e73756666696369656e742062616c616e636520666f60448201526939103a3930b739b332b960b11b6064820152608490fd5b91908203918211611b2e57565b91908201809211611b2e57565b15611ca657565b60405162461bcd60e51b815260206004820152602860248201527f455243313135353a2069647320616e6420616d6f756e7473206c656e677468206044820152670dad2e6dac2e8c6d60c31b6064820152608490fd5b9091611d13611d2193604084526040840190611a1a565b916020818403910152611a1a565b90565b9081602091031261186657516001600160e01b0319811681036118665790565b60809060208152602860208201527f455243313135353a204552433131353552656365697665722072656a656374656040820152676420746f6b656e7360c01b60608201520190565b60009060033d11611d9a57565b905060046000803e60005160e01c90565b600060443d10611d2157604051600319913d83016004833e81516001600160401b03918282113d602484011117611e0857818401948551938411611e10573d85010160208487010111611e085750611d21929101602001906118ec565b949350505050565b50949350505050565b60809060208152603460208201527f455243313135353a207472616e7366657220746f206e6f6e20455243313135356040820152732932b1b2b4bb32b91034b6b83632b6b2b73a32b960611b60608201520190565b60408051919082016001600160401b038111838210176118d65760405260018252602082016020368237825115611b58575290565b15611eaa57565b60405162461bcd60e51b815260206004820152602360248201527f455243313135353a206275726e2066726f6d20746865207a65726f206164647260448201526265737360e81b6064820152608490fd5b15611f0257565b60405162461bcd60e51b8152602060048201526024808201527f455243313135353a206275726e20616d6f756e7420657863656564732062616c604482015263616e636560e01b6064820152608490fd5b15611f5a57565b60405162461bcd60e51b815260206004820152602160248201527f455243313135353a206d696e7420746f20746865207a65726f206164647265736044820152607360f81b6064820152608490fdfe4a39dc06d4c0dbc64b70af90fd698a233a518aa5d07e595d983b8c0526c8f7fbc3d58168c5ae7397731d063d5bbf3d657854427343f4c083240f7aacaa2d0f628be0079c531659141344cd1fd0a4f28419497f9722a3daafe3b4186f6b6457e0a2646970667358221220661f93ef58911c552407a294425731cd6da151104af99e286490ae3ea5beb00a64736f6c63430008130033a2646970667358221220b037d9c6d8fd2b286ba81910930e92430f44390a6082ef5cc9a772f493244e4d64736f6c63430008130033",
  "devdoc": {
    "kind": "dev",
    "methods": {
      "supportsInterface(bytes4)": {
        "details": "See {IERC165-supportsInterface}."
      }
    },
    "version": 1
  },
  "userdoc": {
    "kind": "user",
    "methods": {},
    "version": 1
  },
  "storageLayout": {
    "storage": [
      {
        "astId": 7340,
        "contract": "contracts/Rewards.sol:Rewards",
        "label": "nftContract",
        "offset": 0,
        "slot": "0",
        "type": "t_contract(NFTVenture)7037"
      },
      {
        "astId": 7342,
        "contract": "contracts/Rewards.sol:Rewards",
        "label": "supervisor",
        "offset": 0,
        "slot": "1",
        "type": "t_address"
      }
    ],
    "types": {
      "t_address": {
        "encoding": "inplace",
        "label": "address",
        "numberOfBytes": "20"
      },
      "t_contract(NFTVenture)7037": {
        "encoding": "inplace",
        "label": "contract NFTVenture",
        "numberOfBytes": "20"
      }
    }
  }
}