{
  "_format": "hh-sol-artifact-1",
  "contractName": "FCTVToken",
  "sourceName": "contracts/FCTVToken.sol",
  "abi": [
    {
      "inputs": [
        {
          "internalType": "string",
          "name": "baseURI",
          "type": "string"
        }
      ],
      "stateMutability": "nonpayable",
      "type": "constructor"
    },
    {
      "anonymous": false,
      "inputs": [
        {
          "indexed": true,
          "internalType": "address",
          "name": "account",
          "type": "address"
        },
        {
          "indexed": true,
          "internalType": "address",
          "name": "operator",
          "type": "address"
        },
        {
          "indexed": false,
          "internalType": "bool",
          "name": "approved",
          "type": "bool"
        }
      ],
      "name": "ApprovalForAll",
      "type": "event"
    },
    {
      "anonymous": false,
      "inputs": [
        {
          "indexed": true,
          "internalType": "address",
          "name": "previousOwner",
          "type": "address"
        },
        {
          "indexed": true,
          "internalType": "address",
          "name": "newOwner",
          "type": "address"
        }
      ],
      "name": "OwnershipTransferred",
      "type": "event"
    },
    {
      "anonymous": false,
      "inputs": [
        {
          "indexed": true,
          "internalType": "address",
          "name": "operator",
          "type": "address"
        },
        {
          "indexed": true,
          "internalType": "address",
          "name": "from",
          "type": "address"
        },
        {
          "indexed": true,
          "internalType": "address",
          "name": "to",
          "type": "address"
        },
        {
          "indexed": false,
          "internalType": "uint256[]",
          "name": "ids",
          "type": "uint256[]"
        },
        {
          "indexed": false,
          "internalType": "uint256[]",
          "name": "values",
          "type": "uint256[]"
        }
      ],
      "name": "TransferBatch",
      "type": "event"
    },
    {
      "anonymous": false,
      "inputs": [
        {
          "indexed": true,
          "internalType": "address",
          "name": "operator",
          "type": "address"
        },
        {
          "indexed": true,
          "internalType": "address",
          "name": "from",
          "type": "address"
        },
        {
          "indexed": true,
          "internalType": "address",
          "name": "to",
          "type": "address"
        },
        {
          "indexed": false,
          "internalType": "uint256",
          "name": "id",
          "type": "uint256"
        },
        {
          "indexed": false,
          "internalType": "uint256",
          "name": "value",
          "type": "uint256"
        }
      ],
      "name": "TransferSingle",
      "type": "event"
    },
    {
      "anonymous": false,
      "inputs": [
        {
          "indexed": false,
          "internalType": "string",
          "name": "value",
          "type": "string"
        },
        {
          "indexed": true,
          "internalType": "uint256",
          "name": "id",
          "type": "uint256"
        }
      ],
      "name": "URI",
      "type": "event"
    },
    {
      "inputs": [
        {
          "internalType": "address",
          "name": "account",
          "type": "address"
        },
        {
          "internalType": "uint256",
          "name": "id",
          "type": "uint256"
        }
      ],
      "name": "balanceOf",
      "outputs": [
        {
          "internalType": "uint256",
          "name": "",
          "type": "uint256"
        }
      ],
      "stateMutability": "view",
      "type": "function"
    },
    {
      "inputs": [
        {
          "internalType": "address[]",
          "name": "accounts",
          "type": "address[]"
        },
        {
          "internalType": "uint256[]",
          "name": "ids",
          "type": "uint256[]"
        }
      ],
      "name": "balanceOfBatch",
      "outputs": [
        {
          "internalType": "uint256[]",
          "name": "",
          "type": "uint256[]"
        }
      ],
      "stateMutability": "view",
      "type": "function"
    },
    {
      "inputs": [
        {
          "internalType": "address",
          "name": "account",
          "type": "address"
        },
        {
          "internalType": "uint256",
          "name": "id",
          "type": "uint256"
        },
        {
          "internalType": "uint256",
          "name": "value",
          "type": "uint256"
        }
      ],
      "name": "burn",
      "outputs": [],
      "stateMutability": "nonpayable",
      "type": "function"
    },
    {
      "inputs": [
        {
          "internalType": "address",
          "name": "account",
          "type": "address"
        },
        {
          "internalType": "uint256[]",
          "name": "ids",
          "type": "uint256[]"
        },
        {
          "internalType": "uint256[]",
          "name": "values",
          "type": "uint256[]"
        }
      ],
      "name": "burnBatch",
      "outputs": [],
      "stateMutability": "nonpayable",
      "type": "function"
    },
    {
      "inputs": [
        {
          "internalType": "address",
          "name": "account",
          "type": "address"
        },
        {
          "internalType": "address",
          "name": "operator",
          "type": "address"
        }
      ],
      "name": "isApprovedForAll",
      "outputs": [
        {
          "internalType": "bool",
          "name": "",
          "type": "bool"
        }
      ],
      "stateMutability": "view",
      "type": "function"
    },
    {
      "inputs": [
        {
          "internalType": "address",
          "name": "to",
          "type": "address"
        },
        {
          "internalType": "uint256",
          "name": "id",
          "type": "uint256"
        },
        {
          "internalType": "uint256",
          "name": "amount",
          "type": "uint256"
        },
        {
          "internalType": "string",
          "name": "tokenURI",
          "type": "string"
        },
        {
          "internalType": "bytes",
          "name": "data",
          "type": "bytes"
        }
      ],
      "name": "mint",
      "outputs": [],
      "stateMutability": "nonpayable",
      "type": "function"
    },
    {
      "inputs": [
        {
          "internalType": "address",
          "name": "to",
          "type": "address"
        },
        {
          "internalType": "uint256[]",
          "name": "ids",
          "type": "uint256[]"
        },
        {
          "internalType": "uint256[]",
          "name": "amounts",
          "type": "uint256[]"
        },
        {
          "internalType": "string[]",
          "name": "tokenURIs",
          "type": "string[]"
        },
        {
          "internalType": "bytes",
          "name": "data",
          "type": "bytes"
        }
      ],
      "name": "mintBatch",
      "outputs": [],
      "stateMutability": "nonpayable",
      "type": "function"
    },
    {
      "inputs": [],
      "name": "name",
      "outputs": [
        {
          "internalType": "string",
          "name": "",
          "type": "string"
        }
      ],
      "stateMutability": "view",
      "type": "function"
    },
    {
      "inputs": [],
      "name": "owner",
      "outputs": [
        {
          "internalType": "address",
          "name": "",
          "type": "address"
        }
      ],
      "stateMutability": "view",
      "type": "function"
    },
    {
      "inputs": [],
      "name": "renounceOwnership",
      "outputs": [],
      "stateMutability": "nonpayable",
      "type": "function"
    },
    {
      "inputs": [
        {
          "internalType": "address",
          "name": "from",
          "type": "address"
        },
        {
          "internalType": "address",
          "name": "to",
          "type": "address"
        },
        {
          "internalType": "uint256[]",
          "name": "ids",
          "type": "uint256[]"
        },
        {
          "internalType": "uint256[]",
          "name": "amounts",
          "type": "uint256[]"
        },
        {
          "internalType": "bytes",
          "name": "data",
          "type": "bytes"
        }
      ],
      "name": "safeBatchTransferFrom",
      "outputs": [],
      "stateMutability": "nonpayable",
      "type": "function"
    },
    {
      "inputs": [
        {
          "internalType": "address",
          "name": "from",
          "type": "address"
        },
        {
          "internalType": "address",
          "name": "to",
          "type": "address"
        },
        {
          "internalType": "uint256",
          "name": "id",
          "type": "uint256"
        },
        {
          "internalType": "uint256",
          "name": "amount",
          "type": "uint256"
        },
        {
          "internalType": "bytes",
          "name": "data",
          "type": "bytes"
        }
      ],
      "name": "safeTransferFrom",
      "outputs": [],
      "stateMutability": "nonpayable",
      "type": "function"
    },
    {
      "inputs": [
        {
          "internalType": "address",
          "name": "operator",
          "type": "address"
        },
        {
          "internalType": "bool",
          "name": "approved",
          "type": "bool"
        }
      ],
      "name": "setApprovalForAll",
      "outputs": [],
      "stateMutability": "nonpayable",
      "type": "function"
    },
    {
      "inputs": [
        {
          "internalType": "uint256",
          "name": "tokenId",
          "type": "uint256"
        },
        {
          "internalType": "string",
          "name": "tokenURI",
          "type": "string"
        }
      ],
      "name": "setURI",
      "outputs": [],
      "stateMutability": "nonpayable",
      "type": "function"
    },
    {
      "inputs": [
        {
          "internalType": "bytes4",
          "name": "interfaceId",
          "type": "bytes4"
        }
      ],
      "name": "supportsInterface",
      "outputs": [
        {
          "internalType": "bool",
          "name": "",
          "type": "bool"
        }
      ],
      "stateMutability": "view",
      "type": "function"
    },
    {
      "inputs": [],
      "name": "symbol",
      "outputs": [
        {
          "internalType": "string",
          "name": "",
          "type": "string"
        }
      ],
      "stateMutability": "view",
      "type": "function"
    },
    {
      "inputs": [
        {
          "internalType": "address",
          "name": "newOwner",
          "type": "address"
        }
      ],
      "name": "transferOwnership",
      "outputs": [],
      "stateMutability": "nonpayable",
      "type": "function"
    },
    {
      "inputs": [
        {
          "internalType": "uint256",
          "name": "tokenId",
          "type": "uint256"
        }
      ],
      "name": "uri",
      "outputs": [
        {
          "internalType": "string",
          "name": "",
          "type": "string"
        }
      ],
      "stateMutability": "view",
      "type": "function"
    }
  ],
  "bytecode": "0x608060405234620002bb576200239c803803806200001d81620002c0565b9283398101906020918282820312620002bb5781516001600160401b0392838211620002bb570191601f91808385011215620002bb578351938285116200029157601f19946200007385820187168801620002c0565b92818452878284010111620002bb57869160005b828110620002a7575050906000918301015280519182116200029157620000b0600254620002e6565b83811162000253575b508493838311600114620001ec575092819293600092620001e0575b50508160011b916000199060031b1c1916176002555b600380546001600160a01b0319163390811790915560007f8be0079c531659141344cd1fd0a4f28419497f9722a3daafe3b4186f6b6457e08180a362000133600454620002e6565b818111620001bc575b507f4672616374696f6e616c2043545620546f6b656e73000000000000000000002a6004556005546200016f90620002e6565b9080821162000198575b600a641190d5159560da1b0160055560405161205f90816200033d8239f35b620001b3926005600052600020910160051c81019062000323565b38808062000179565b620001d99060046000528284600020910160051c81019062000323565b386200013c565b015190503880620000d5565b8216936002600052856000209160005b878782106200023c57505083600195961062000222575b505050811b01600255620000eb565b015160001960f88460031b161c1916905538808062000213565b6001849582939585015181550194019201620001fc565b62000280906002600052866000208580860160051c82019289871062000287575b0160051c019062000323565b38620000b9565b9250819262000274565b634e487b7160e01b600052604160045260246000fd5b818101840151858201850152830162000087565b600080fd5b6040519190601f01601f191682016001600160401b038111838210176200029157604052565b90600182811c9216801562000318575b60208310146200030257565b634e487b7160e01b600052602260045260246000fd5b91607f1691620002f6565b8181106200032f575050565b600081556001016200032356fe6040608081526004908136101561001557600080fd5b600091823560e01c908162fdd58e1461184057816301ffc9a7146117d257816306fdde031461171f5781630e89341c146116465781632eb2c2d6146113625781634e1273f4146111cd5781636b20c45414611089578163715018a61461103a578163862440e214610f0d5781638da5cb5b14610ee457816395d89b4114610dff578163a22cb46514610d21578163a4b645eb146109f4578163b9571e8414610539578163e985e9c5146104e7578163f242432a1461028d578163f2fde38b146101d2575063f5298aca146100e857600080fd5b8190346101cf5760603660031901126101cf57610103611870565b6001600160a01b03169060243590600080516020611fea8339815191529060443533851480156101b0575b61013790611be8565b610142851515611ec3565b61014b84611e8e565b5061015581611e8e565b50858251610162816118db565b528386528560205281862085875260205261018c818388205461018782821015611f1b565b611ca5565b8487528660205282872086885260205282872055815193845260208401523392a480f35b508486526001602090815282872033885290528186205460ff1661012e565b50fd5b905034610289576020366003190112610289576101ed611870565b600354916001600160a01b0380841692610208338514611a6e565b16938415610237575050829060008051602061200a8339815191528580a36001600160a01b0319161760035580f35b906020608492519162461bcd60e51b8352820152602660248201527f4f776e61626c653a206e6577206f776e657220697320746865207a65726f206160448201526564647265737360d01b6064820152fd5b8280fd5b919050346102895760a0366003190112610289576102a9611870565b836102b261188b565b916044356064356084356001600160401b0381116104e3576102d790369089016119e4565b926001600160a01b03868116916102ef831515611b8e565b169233841480156104c4575b61030490611be8565b61030d81611e8e565b5061031783611e8e565b50808652602096868852888720858852885261033d848a89205461018782821015611c46565b828852878952898820868952895289882055818752868852888720838852885288872061036b858254611cb2565b905582858a51848152868b820152600080516020611fea8339815191528c3392a43b610395578580f35b889587946103d68a519788968795869463f23a6e6160e01b9c8d8752339087015260248601526044850152606484015260a0608484015260a483019061192f565b03925af1869181610495575b506104645750506001906103f4611dad565b6308c379a014610431575b506104145750505b3880808381808080808580f35b5162461bcd60e51b81529150819061042d908201611e39565b0390fd5b610439611dcb565b8061044457506103ff565b61042d8591855193849362461bcd60e51b8552840152602483019061192f565b6001600160e01b03191603905061047c575050610407565b5162461bcd60e51b81529150819061042d908201611d64565b6104b6919250843d86116104bd575b6104ae818361190c565b810190611d44565b90386103e2565b503d6104a4565b508386526001602090815288872033885290528786205460ff166102fb565b8480fd5b50503461053557806003193601126105355760ff81602093610507611870565b61050f61188b565b6001600160a01b0391821683526001875283832091168252855220549151911615158152f35b5080fd5b905034610289576003199160a0368401126109f057610556611870565b6024946001600160401b039490919086358681116109f05761057b9036908701611986565b946044358781116104e3576105939036908301611986565b96606435938185116109ec57366023860112156109ec5784830135996105b88b61196f565b946105c58951968761190c565b8b86526020968787018360059e8f1b830101913683116109e857848101915b8383106109be57505050506084358481116109ba5761060690369087016119e4565b60018060a01b039360039461061f818754163314611a6e565b8c5189510361096957906106508d9a9997959f98969493928f9083169b6106478d1515611f73565b51905114611cbf565b8a5b8d518110156106b157908e9f9392918e9f908f8f8f908f918f9261069e9361068887610681816106a59b611b64565b5197611b64565b5183528281528383209183525220918254611cb2565b9055611b3f565b909192939f9e50610652565b508e8c8f8f95908c8f968f888d95888c94869b858588600080516020611fca8339815191526106e88f8e9051918291339583611d1c565b0390a43b610847575b5050509450505050505b85518110156108435761070e818b611b64565b516107198288611b64565b51865260068552828620908051908a8211610831578d9061073a84546118a1565b601f928382116107f1575b505087918311600114610789576107799493929189918361077e575b50508160011b91600019908c1b1c1916179055611b3f565b6106fb565b015190508f80610761565b8389528789209190601f1984168a5b8a8282106107db5750509084610779979695949392106107c3575b505050600190811b019055611b3f565b0151600019838d1b60f8161c191690558e80806107b3565b6001859682939686015181550195019301610798565b858b52898b209084808701821c8301938c8810610828575b01901c01905b81811061081d57508f610745565b8a815560010161080f565b93508293610809565b634e487b7160e01b885260418c528588fd5b8480f35b83928a519889978896879563bc197c8160e01b9d8e885233908801528601526044850160a0905260a4850161087b91611a3a565b8285820301606486015261088e91611a3a565b908382030160848401526108a19161192f565b03925af186918161094a575b5061092557505060016108be611dad565b6308c379a0146108f2575b6108dc575b878b848782888188816106f1565b5162461bcd60e51b81528061042d818a01611e39565b6108fa611dcb565b8061090557506108c9565b9050889261042d925194859462461bcd60e51b865285015283019061192f565b6001600160e01b031916146108ce575162461bcd60e51b81528061042d818a01611d64565b610962919250863d88116104bd576104ae818361190c565b908d6108ad565b508a5162461bcd60e51b81528088018a90526025818601527f455243313135353a2069647320616e642075726973206c656e677468206d69736044820152640dac2e8c6d60db1b6064820152608490fd5b8880fd5b82358881116109e4578b916109d983928936918701016119e4565b8152019201916105e4565b8c80fd5b8a80fd5b8580fd5b8380fd5b839150346105355760a036600319011261053557610a10611870565b604435936001600160401b039190602435606435848111610d1d57610a3890369087016119e4565b96608435858111610d1957610a5090369088016119e4565b938660018060a01b0391610a6983600354163314611a6e565b82811696610a78881515611f73565b610a8186611e8e565b50610a8b85611e8e565b50858b5260209788928c84528c828a822091528452888d20610aae888254611cb2565b9055818d8a518a81528987820152600080516020611fea8339815191528c3392a43b610c03575b50505050610aea915033906003541614611a6e565b8552600682528420928551928311610bf05750610b0783546118a1565b601f8111610bad575b5080601f8311600114610b4b5750839482939492610b40575b50508160011b916000199060031b1c191617905580f35b015190508480610b29565b90601f198316958486528286209286905b888210610b9557505083600195969710610b7c575b505050811b01905580f35b015160001960f88460031b161c19169055848080610b71565b80600185968294968601518155019501930190610b5c565b838552818520601f840160051c810191838510610be6575b601f0160051c01905b818110610bdb5750610b10565b858155600101610bce565b9091508190610bc5565b634e487b7160e01b855260419052602484fd5b610c459394958c895180968195829463f23a6e6160e01b9a8b855233908501528460248501528c6044850152606484015260a0608484015260a483019061192f565b03925af1899181610cfa575b50610ccb5750506001610c62611dad565b6308c379a014610c96575b610c7f57610aea905b86858b80610ad5565b825162461bcd60e51b81528061042d818901611e39565b610c9e611dcb565b80610ca95750610c6d565b845162461bcd60e51b815280890187905290819061042d90602483019061192f565b6001600160e01b03191603610ce357610aea90610c76565b825162461bcd60e51b81528061042d818901611d64565b610d12919250873d89116104bd576104ae818361190c565b908b610c51565b8780fd5b8680fd5b91905034610289578060031936011261028957610d3c611870565b90602435918215158093036104e3576001600160a01b031692338414610dab5750338452600160205280842083855260205280842060ff1981541660ff8416179055519081527f17307eab39ab6107e8899845ad3d59bd9653f200f220920489ca2b5937696c3160203392a380f35b6020608492519162461bcd60e51b8352820152602960248201527f455243313135353a2073657474696e6720617070726f76616c20737461747573604482015268103337b91039b2b63360b91b6064820152fd5b50503461053557816003193601126105355780519082600554610e21816118a1565b80855290600190818116908115610ebc5750600114610e63575b505050610e4d82610e5f94038361190c565b5191829160208352602083019061192f565b0390f35b60058352602095507f036b6384b5eca791c62761152d0c79bb0604c104a5fb6f4eb0703f3154bb3db05b828410610ea95750505082610e5f94610e4d9282010194610e3b565b8054868501880152928601928101610e8d565b610e5f9750610e4d9450602092508693915060ff191682840152151560051b82010194610e3b565b50503461053557816003193601126105355760035490516001600160a01b039091168152602090f35b839150346105355782600319360112610535576001600160401b036024358181116109f057610f3f90369084016119e4565b93610f5560018060a01b03600354163314611a6e565b82358452602090600682528420928551928311610bf05750610f7783546118a1565b601f8111610ff7575b5080601f8311600114610faf5750839482939492610b405750508160011b916000199060031b1c191617905580f35b90601f198316958486528286209286905b888210610fdf57505083600195969710610b7c57505050811b01905580f35b80600185968294968601518155019501930190610fc0565b838552818520601f840160051c810191838510611030575b601f0160051c01905b8181106110255750610f80565b858155600101611018565b909150819061100f565b8334611086578060031936011261108657600354816001600160a01b038216611064338214611a6e565b60008051602061200a8339815191528280a36001600160a01b03191660035580f35b80fd5b91905034610289576060366003190112610289576110a5611870565b906001600160401b036024358181116109ec576110c59036908601611986565b936044359182116109ec576110dc91369101611986565b916001600160a01b031633811480156111ae575b6110f990611be8565b611104811515611ec3565b6111118451845114611cbf565b84825161111d816118db565b52845b8585518210156111855750806111396111809287611b64565b516111448287611b64565b518189526111696020918a8352878b20878c528352878b205461018782821015611f1b565b91895288815285892090858a525284882055611b3f565b611120565b808387600080516020611fca8339815191526111a8898951918291339583611d1c565b0390a480f35b508085526001602090815282862033875290528185205460ff166110f0565b90503461028957816003193601126102895780356001600160401b038082116104e357366023830112156104e35781830135906112098261196f565b926112168651948561190c565b82845260209260248486019160051b830101913683116109ba57602401905b82821061133f575050506024359081116109ec576112569036908501611986565b9282518451036112ec575081519461126d8661196f565b9561127a8651978861190c565b808752611289601f199161196f565b0136838801375b82518110156112da576112d5906112c56001600160a01b036112b28387611b64565b51166112be8388611b64565b5190611ab9565b6112cf8289611b64565b52611b3f565b611290565b845182815280610e5f81850189611a3a565b60849185519162461bcd60e51b8352820152602960248201527f455243313135353a206163636f756e747320616e6420696473206c656e677468604482015268040dad2e6dac2e8c6d60bb1b6064820152fd5b81356001600160a01b038116810361135e578152908401908401611235565b8980fd5b905034610289576003199160a0368401126109f05761137f611870565b61138761188b565b936001600160401b0393604435858111610d19576113a89036908301611986565b906064358681116109ba576113c09036908301611986565b956084359081116109ba576113d890369083016119e4565b926113e68351885114611cbf565b6001600160a01b03888116956113fd871515611b8e565b16933385148015611628575b156115ca57895b8a855182101561148e57908961069e8a6114899461143985611432818d611b64565b5195611b64565b51938082526020908282528383208d84528252611460868585205461018782821015611c46565b8184528383528d8585209085528352848420558252818152828220908d83525220918254611cb2565b611410565b5050909493959692919784878951600080516020611fca8339815191523391806114b98a8a83611d1c565b0390a43b6114c5578880f35b8651948593849363bc197c8160e01b98898652338c87015260248601526044850160a0905260a485016114f791611a3a565b8285820301606486015261150a91611a3a565b9083820301608484015261151d9161192f565b0381885a94602095f18591816115aa575b50611594575050600161153f611dad565b6308c379a01461155d575b6104145750505b38808080808080808880f35b611565611dcb565b80611570575061154a565b905061042d91602094505193849362461bcd60e51b8552840152602483019061192f565b6001600160e01b0319160361047c575050611551565b6115c391925060203d81116104bd576104ae818361190c565b903861152e565b865162461bcd60e51b8152602081850152603260248201527f455243313135353a207472616e736665722063616c6c6572206973206e6f74206044820152711bdddb995c881b9bdc88185c1c1c9bdd995960721b6064820152608490fd5b50848a526001602052868a20338b5260205260ff878b205416611409565b9190503461028957602091826003193601126109f05735835260068252808320815193849181815490611678826118a1565b928386526001928884821691826000146116f55750506001146116b7575b8588610e5f896116a8848a038561190c565b5192828493845283019061192f565b87945081939291528383205b8284106116dd57505050820101816116a8610e5f38611696565b8054848a0186015288955087949093019281016116c3565b60ff19168882015294151560051b870190940194508593506116a89250610e5f9150389050611696565b83833461053557816003193601126105355780519180938054611741816118a1565b808652916001918083169081156117a7575060011461176c575b610e5f8686610e4d828b038361190c565b835260208084209096505b8284106117945750505082610e5f94610e4d92820101948661175b565b8054868501880152928601928101611777565b9050610e5f9750610e4d9450602092508693915060ff191682840152151560051b820101948661175b565b90503461028957602036600319011261028957359063ffffffff60e01b82168092036102895760209250636cdb3d1360e11b821491821561182f575b821561181e575b50519015158152f35b6301ffc9a760e01b14915038611815565b6303a24d0760e21b8114925061180e565b505034610535578060031936011261053557602090611869611860611870565b60243590611ab9565b9051908152f35b600435906001600160a01b038216820361188657565b600080fd5b602435906001600160a01b038216820361188657565b90600182811c921680156118d1575b60208310146118bb57565b634e487b7160e01b600052602260045260246000fd5b91607f16916118b0565b602081019081106001600160401b038211176118f657604052565b634e487b7160e01b600052604160045260246000fd5b601f909101601f19168101906001600160401b038211908210176118f657604052565b919082519283825260005b84811061195b575050826000602080949584010152601f8019910116010190565b60208183018101518483018201520161193a565b6001600160401b0381116118f65760051b60200190565b81601f820112156118865780359161199d8361196f565b926119ab604051948561190c565b808452602092838086019260051b820101928311611886578301905b8282106119d5575050505090565b813581529083019083016119c7565b81601f82011215611886578035906001600160401b0382116118f65760405192611a18601f8401601f19166020018561190c565b8284526020838301011161188657816000926020809301838601378301015290565b90815180825260208080930193019160005b828110611a5a575050505090565b835185529381019392810192600101611a4c565b15611a7557565b606460405162461bcd60e51b815260206004820152602060248201527f4f776e61626c653a2063616c6c6572206973206e6f7420746865206f776e65726044820152fd5b6001600160a01b0316908115611ae657600052600060205260406000209060005260205260406000205490565b60405162461bcd60e51b815260206004820152602b60248201527f455243313135353a2062616c616e636520717565727920666f7220746865207a60448201526a65726f206164647265737360a81b6064820152608490fd5b6000198114611b4e5760010190565b634e487b7160e01b600052601160045260246000fd5b8051821015611b785760209160051b010190565b634e487b7160e01b600052603260045260246000fd5b15611b9557565b60405162461bcd60e51b815260206004820152602560248201527f455243313135353a207472616e7366657220746f20746865207a65726f206164604482015264647265737360d81b6064820152608490fd5b15611bef57565b60405162461bcd60e51b815260206004820152602960248201527f455243313135353a2063616c6c6572206973206e6f74206f776e6572206e6f7260448201526808185c1c1c9bdd995960ba1b6064820152608490fd5b15611c4d57565b60405162461bcd60e51b815260206004820152602a60248201527f455243313135353a20696e73756666696369656e742062616c616e636520666f60448201526939103a3930b739b332b960b11b6064820152608490fd5b91908203918211611b4e57565b91908201809211611b4e57565b15611cc657565b60405162461bcd60e51b815260206004820152602860248201527f455243313135353a2069647320616e6420616d6f756e7473206c656e677468206044820152670dad2e6dac2e8c6d60c31b6064820152608490fd5b9091611d33611d4193604084526040840190611a3a565b916020818403910152611a3a565b90565b9081602091031261188657516001600160e01b0319811681036118865790565b60809060208152602860208201527f455243313135353a204552433131353552656365697665722072656a656374656040820152676420746f6b656e7360c01b60608201520190565b60009060033d11611dba57565b905060046000803e60005160e01c90565b600060443d10611d4157604051600319913d83016004833e81516001600160401b03918282113d602484011117611e2857818401948551938411611e30573d85010160208487010111611e285750611d419291016020019061190c565b949350505050565b50949350505050565b60809060208152603460208201527f455243313135353a207472616e7366657220746f206e6f6e20455243313135356040820152732932b1b2b4bb32b91034b6b83632b6b2b73a32b960611b60608201520190565b60408051919082016001600160401b038111838210176118f65760405260018252602082016020368237825115611b78575290565b15611eca57565b60405162461bcd60e51b815260206004820152602360248201527f455243313135353a206275726e2066726f6d20746865207a65726f206164647260448201526265737360e81b6064820152608490fd5b15611f2257565b60405162461bcd60e51b8152602060048201526024808201527f455243313135353a206275726e20616d6f756e7420657863656564732062616c604482015263616e636560e01b6064820152608490fd5b15611f7a57565b60405162461bcd60e51b815260206004820152602160248201527f455243313135353a206d696e7420746f20746865207a65726f206164647265736044820152607360f81b6064820152608490fdfe4a39dc06d4c0dbc64b70af90fd698a233a518aa5d07e595d983b8c0526c8f7fbc3d58168c5ae7397731d063d5bbf3d657854427343f4c083240f7aacaa2d0f628be0079c531659141344cd1fd0a4f28419497f9722a3daafe3b4186f6b6457e0a2646970667358221220c5037edb4635403503877508e187c5a41e767365cafe1c2066c7063858af063964736f6c63430008130033",
  "linkReferences": {},
  "deployedLinkReferences": {}
}