{"contracts/NFTVenture.sol":{"NFTVenture":{"abi":[{"inputs":[],"stateMutability":"nonpayable","type":"constructor"},{"anonymous":false,"inputs":[{"indexed":true,"internalType":"address","name":"owner","type":"address"},{"indexed":true,"internalType":"address","name":"approved","type":"address"},{"indexed":true,"internalType":"uint256","name":"tokenId","type":"uint256"}],"name":"Approval","type":"event"},{"anonymous":false,"inputs":[{"indexed":true,"internalType":"address","name":"owner","type":"address"},{"indexed":true,"internalType":"address","name":"operator","type":"address"},{"indexed":false,"internalType":"bool","name":"approved","type":"bool"}],"name":"ApprovalForAll","type":"event"},{"anonymous":false,"inputs":[{"indexed":true,"internalType":"address","name":"previousOwner","type":"address"},{"indexed":true,"internalType":"address","name":"newOwner","type":"address"}],"name":"OwnershipTransferred","type":"event"},{"anonymous":false,"inputs":[{"indexed":false,"internalType":"address","name":"account","type":"address"}],"name":"Paused","type":"event"},{"anonymous":false,"inputs":[{"indexed":true,"internalType":"address","name":"from","type":"address"},{"indexed":true,"internalType":"address","name":"to","type":"address"},{"indexed":true,"internalType":"uint256","name":"tokenId","type":"uint256"}],"name":"Transfer","type":"event"},{"anonymous":false,"inputs":[{"indexed":false,"internalType":"address","name":"account","type":"address"}],"name":"Unpaused","type":"event"},{"inputs":[{"internalType":"uint256","name":"assetId","type":"uint256"},{"components":[{"internalType":"uint256","name":"assetId","type":"uint256"},{"internalType":"uint256","name":"price","type":"uint256"},{"internalType":"string","name":"author","type":"string"},{"internalType":"string","name":"title","type":"string"},{"internalType":"string","name":"description","type":"string"},{"internalType":"uint256","name":"projectStartDate","type":"uint256"},{"internalType":"uint256","name":"projectEndDate","type":"uint256"},{"components":[{"internalType":"string","name":"title","type":"string"},{"internalType":"string","name":"description","type":"string"},{"internalType":"uint256","name":"tokenAmount","type":"uint256"},{"internalType":"uint256","name":"individualPrice","type":"uint256"},{"internalType":"uint256","name":"availableTokens","type":"uint256"},{"internalType":"uint256","name":"rewardTokenId","type":"uint256"}],"internalType":"struct Reward[]","name":"rewards","type":"tuple[]"},{"internalType":"enum ProjectStatus","name":"status","type":"uint8"},{"internalType":"address","name":"rewardTokenAddress","type":"address"},{"internalType":"string","name":"mainPhoto","type":"string"},{"internalType":"string[]","name":"secondaryPhotos","type":"string[]"},{"internalType":"enum Category","name":"category","type":"uint8"}],"internalType":"struct Asset","name":"asset","type":"tuple"},{"internalType":"address","name":"to","type":"address"}],"name":"_addAsset","outputs":[],"stateMutability":"nonpayable","type":"function"},{"inputs":[{"internalType":"uint256","name":"","type":"uint256"}],"name":"activeAssets","outputs":[{"internalType":"uint256","name":"","type":"uint256"}],"stateMutability":"view","type":"function"},{"inputs":[{"internalType":"uint256","name":"assetId","type":"uint256"},{"internalType":"address","name":"investor","type":"address"},{"internalType":"uint256","name":"amount","type":"uint256"}],"name":"addInvestment","outputs":[],"stateMutability":"nonpayable","type":"function"},{"inputs":[{"internalType":"uint256","name":"assetId","type":"uint256"},{"internalType":"address","name":"investor","type":"address"}],"name":"addInvestor","outputs":[],"stateMutability":"nonpayable","type":"function"},{"inputs":[{"internalType":"uint256","name":"assetId","type":"uint256"},{"internalType":"bool","name":"allowed","type":"bool"}],"name":"allowRefunding","outputs":[],"stateMutability":"nonpayable","type":"function"},{"inputs":[{"internalType":"uint256","name":"assetId","type":"uint256"},{"internalType":"bool","name":"allowed","type":"bool"}],"name":"allowTransfers","outputs":[],"stateMutability":"nonpayable","type":"function"},{"inputs":[{"internalType":"address","name":"to","type":"address"},{"internalType":"uint256","name":"assetId","type":"uint256"}],"name":"approve","outputs":[],"stateMutability":"nonpayable","type":"function"},{"inputs":[{"internalType":"uint256","name":"","type":"uint256"}],"name":"assetApprovals","outputs":[{"internalType":"address","name":"","type":"address"}],"stateMutability":"view","type":"function"},{"inputs":[{"internalType":"uint256","name":"","type":"uint256"}],"name":"assetExists","outputs":[{"internalType":"bool","name":"","type":"bool"}],"stateMutability":"view","type":"function"},{"inputs":[{"internalType":"uint256","name":"","type":"uint256"},{"internalType":"uint256","name":"","type":"uint256"}],"name":"assetInvestors","outputs":[{"internalType":"address","name":"","type":"address"}],"stateMutability":"view","type":"function"},{"inputs":[{"internalType":"uint256","name":"","type":"uint256"}],"name":"assetMap","outputs":[{"internalType":"uint256","name":"assetId","type":"uint256"},{"internalType":"uint256","name":"price","type":"uint256"},{"internalType":"string","name":"author","type":"string"},{"internalType":"string","name":"title","type":"string"},{"internalType":"string","name":"description","type":"string"},{"internalType":"uint256","name":"projectStartDate","type":"uint256"},{"internalType":"uint256","name":"projectEndDate","type":"uint256"},{"internalType":"enum ProjectStatus","name":"status","type":"uint8"},{"internalType":"address","name":"rewardTokenAddress","type":"address"},{"internalType":"string","name":"mainPhoto","type":"string"},{"internalType":"enum Category","name":"category","type":"uint8"}],"stateMutability":"view","type":"function"},{"inputs":[{"internalType":"uint256","name":"","type":"uint256"}],"name":"assetOwner","outputs":[{"internalType":"address","name":"","type":"address"}],"stateMutability":"view","type":"function"},{"inputs":[],"name":"assetsCount","outputs":[{"internalType":"uint256","name":"","type":"uint256"}],"stateMutability":"view","type":"function"},{"inputs":[{"internalType":"address","name":"owner","type":"address"}],"name":"balanceOf","outputs":[{"internalType":"uint256","name":"","type":"uint256"}],"stateMutability":"view","type":"function"},{"inputs":[],"name":"balanceOf","outputs":[{"internalType":"uint256","name":"","type":"uint256"}],"stateMutability":"view","type":"function"},{"inputs":[{"internalType":"uint256","name":"tokenId","type":"uint256"}],"name":"burn","outputs":[],"stateMutability":"nonpayable","type":"function"},{"inputs":[{"internalType":"enum Category","name":"","type":"uint8"},{"internalType":"uint256","name":"","type":"uint256"}],"name":"categoryAssets","outputs":[{"internalType":"uint256","name":"","type":"uint256"}],"stateMutability":"view","type":"function"},{"inputs":[{"internalType":"uint256","name":"assetId","type":"uint256"},{"internalType":"address","name":"approved","type":"address"}],"name":"clearApproval","outputs":[],"stateMutability":"nonpayable","type":"function"},{"inputs":[{"internalType":"uint256","name":"","type":"uint256"}],"name":"completedAssets","outputs":[{"internalType":"uint256","name":"","type":"uint256"}],"stateMutability":"view","type":"function"},{"inputs":[{"internalType":"uint256","name":"assetId","type":"uint256"}],"name":"exists","outputs":[{"internalType":"bool","name":"","type":"bool"}],"stateMutability":"view","type":"function"},{"inputs":[{"internalType":"uint256","name":"","type":"uint256"}],"name":"failedAssets","outputs":[{"internalType":"uint256","name":"","type":"uint256"}],"stateMutability":"view","type":"function"},{"inputs":[{"internalType":"uint256","name":"","type":"uint256"}],"name":"fundedAssets","outputs":[{"internalType":"uint256","name":"","type":"uint256"}],"stateMutability":"view","type":"function"},{"inputs":[],"name":"getActiveAssets","outputs":[{"internalType":"uint256[]","name":"","type":"uint256[]"}],"stateMutability":"view","type":"function"},{"inputs":[{"internalType":"uint256","name":"assetId","type":"uint256"}],"name":"getApproved","outputs":[{"internalType":"address","name":"","type":"address"}],"stateMutability":"view","type":"function"},{"inputs":[{"internalType":"uint256","name":"assetId","type":"uint256"}],"name":"getAsset","outputs":[{"components":[{"internalType":"uint256","name":"assetId","type":"uint256"},{"internalType":"uint256","name":"price","type":"uint256"},{"internalType":"string","name":"author","type":"string"},{"internalType":"string","name":"title","type":"string"},{"internalType":"string","name":"description","type":"string"},{"internalType":"uint256","name":"projectStartDate","type":"uint256"},{"internalType":"uint256","name":"projectEndDate","type":"uint256"},{"components":[{"internalType":"string","name":"title","type":"string"},{"internalType":"string","name":"description","type":"string"},{"internalType":"uint256","name":"tokenAmount","type":"uint256"},{"internalType":"uint256","name":"individualPrice","type":"uint256"},{"internalType":"uint256","name":"availableTokens","type":"uint256"},{"internalType":"uint256","name":"rewardTokenId","type":"uint256"}],"internalType":"struct Reward[]","name":"rewards","type":"tuple[]"},{"internalType":"enum ProjectStatus","name":"status","type":"uint8"},{"internalType":"address","name":"rewardTokenAddress","type":"address"},{"internalType":"string","name":"mainPhoto","type":"string"},{"internalType":"string[]","name":"secondaryPhotos","type":"string[]"},{"internalType":"enum Category","name":"category","type":"uint8"}],"internalType":"struct Asset","name":"","type":"tuple"}],"stateMutability":"view","type":"function"},{"inputs":[{"internalType":"uint256","name":"assetId","type":"uint256"}],"name":"getAssetInvestors","outputs":[{"internalType":"address[]","name":"","type":"address[]"}],"stateMutability":"view","type":"function"},{"inputs":[{"internalType":"enum Category","name":"category","type":"uint8"}],"name":"getAssetsByCategory","outputs":[{"internalType":"uint256[]","name":"","type":"uint256[]"}],"stateMutability":"view","type":"function"},{"inputs":[],"name":"getAssetsCount","outputs":[{"internalType":"uint256","name":"","type":"uint256"}],"stateMutability":"view","type":"function"},{"inputs":[{"internalType":"address","name":"owner","type":"address"}],"name":"getAssetsOfOwner","outputs":[{"internalType":"uint256[]","name":"","type":"uint256[]"}],"stateMutability":"view","type":"function"},{"inputs":[],"name":"getCompletedAssets","outputs":[{"internalType":"uint256[]","name":"","type":"uint256[]"}],"stateMutability":"view","type":"function"},{"inputs":[],"name":"getFailedAssets","outputs":[{"internalType":"uint256[]","name":"","type":"uint256[]"}],"stateMutability":"view","type":"function"},{"inputs":[],"name":"getFundedAssets","outputs":[{"internalType":"uint256[]","name":"","type":"uint256[]"}],"stateMutability":"view","type":"function"},{"inputs":[{"internalType":"uint256","name":"assetId","type":"uint256"},{"internalType":"address","name":"investor","type":"address"}],"name":"getInvestmentAmount","outputs":[{"internalType":"uint256","name":"","type":"uint256"}],"stateMutability":"view","type":"function"},{"inputs":[{"internalType":"address","name":"investor","type":"address"}],"name":"getInvestorAssets","outputs":[{"internalType":"uint256[]","name":"","type":"uint256[]"}],"stateMutability":"view","type":"function"},{"inputs":[{"internalType":"uint256","name":"assetId","type":"uint256"},{"internalType":"address","name":"investor","type":"address"}],"name":"getInvestorTokens","outputs":[{"internalType":"uint256[]","name":"","type":"uint256[]"},{"internalType":"uint256[]","name":"","type":"uint256[]"}],"stateMutability":"view","type":"function"},{"inputs":[{"internalType":"uint256","name":"assetId","type":"uint256"}],"name":"getTotalInvestment","outputs":[{"internalType":"uint256","name":"","type":"uint256"}],"stateMutability":"view","type":"function"},{"inputs":[{"internalType":"uint256","name":"assetId","type":"uint256"}],"name":"getTotalInvestors","outputs":[{"internalType":"uint256","name":"","type":"uint256"}],"stateMutability":"view","type":"function"},{"inputs":[{"internalType":"uint256","name":"assetId","type":"uint256"},{"internalType":"string","name":"title","type":"string"},{"internalType":"string","name":"description","type":"string"},{"internalType":"uint256","name":"tokenAmount","type":"uint256"},{"internalType":"uint256","name":"individualPrice","type":"uint256"},{"internalType":"bytes32","name":"rewardId","type":"bytes32"}],"name":"handleRewardAddedToAsset","outputs":[],"stateMutability":"nonpayable","type":"function"},{"inputs":[],"name":"incrementAssetsCount","outputs":[],"stateMutability":"nonpayable","type":"function"},{"inputs":[{"internalType":"uint256","name":"","type":"uint256"},{"internalType":"address","name":"","type":"address"}],"name":"investmentAmountOf","outputs":[{"internalType":"uint256","name":"","type":"uint256"}],"stateMutability":"view","type":"function"},{"inputs":[{"internalType":"uint256","name":"","type":"uint256"}],"name":"investmentReceived","outputs":[{"internalType":"uint256","name":"","type":"uint256"}],"stateMutability":"view","type":"function"},{"inputs":[{"internalType":"uint256","name":"","type":"uint256"}],"name":"investmentRefunded","outputs":[{"internalType":"uint256","name":"","type":"uint256"}],"stateMutability":"view","type":"function"},{"inputs":[{"internalType":"address","name":"","type":"address"},{"internalType":"uint256","name":"","type":"uint256"}],"name":"investorAssets","outputs":[{"internalType":"uint256","name":"","type":"uint256"}],"stateMutability":"view","type":"function"},{"inputs":[{"internalType":"uint256","name":"","type":"uint256"},{"internalType":"address","name":"","type":"address"},{"internalType":"uint256","name":"","type":"uint256"}],"name":"investorTokens","outputs":[{"internalType":"uint256","name":"","type":"uint256"}],"stateMutability":"view","type":"function"},{"inputs":[{"internalType":"address","name":"owner","type":"address"},{"internalType":"address","name":"operator","type":"address"}],"name":"isApprovedForAll","outputs":[{"internalType":"bool","name":"","type":"bool"}],"stateMutability":"view","type":"function"},{"inputs":[{"internalType":"address","name":"spender","type":"address"},{"internalType":"uint256","name":"assetId","type":"uint256"}],"name":"isApprovedOrOwner","outputs":[{"internalType":"bool","name":"","type":"bool"}],"stateMutability":"view","type":"function"},{"inputs":[{"internalType":"uint256","name":"","type":"uint256"}],"name":"isRefundingAllowed","outputs":[{"internalType":"bool","name":"","type":"bool"}],"stateMutability":"view","type":"function"},{"inputs":[{"internalType":"uint256","name":"","type":"uint256"}],"name":"isTransferAllowed","outputs":[{"internalType":"bool","name":"","type":"bool"}],"stateMutability":"view","type":"function"},{"inputs":[{"internalType":"address","name":"to","type":"address"},{"internalType":"uint256","name":"assetId","type":"uint256"},{"internalType":"string","name":"asseturi","type":"string"}],"name":"mint","outputs":[],"stateMutability":"nonpayable","type":"function"},{"inputs":[],"name":"name","outputs":[{"internalType":"string","name":"","type":"string"}],"stateMutability":"view","type":"function"},{"inputs":[{"internalType":"address","name":"","type":"address"}],"name":"ownedAssetsCount","outputs":[{"internalType":"uint256","name":"","type":"uint256"}],"stateMutability":"view","type":"function"},{"inputs":[],"name":"owner","outputs":[{"internalType":"address","name":"","type":"address"}],"stateMutability":"view","type":"function"},{"inputs":[{"internalType":"uint256","name":"assetId","type":"uint256"}],"name":"ownerOf","outputs":[{"internalType":"address","name":"","type":"address"}],"stateMutability":"view","type":"function"},{"inputs":[{"internalType":"address","name":"","type":"address"},{"internalType":"uint256","name":"","type":"uint256"}],"name":"ownerToAssets","outputs":[{"internalType":"uint256","name":"","type":"uint256"}],"stateMutability":"view","type":"function"},{"inputs":[],"name":"pause","outputs":[],"stateMutability":"nonpayable","type":"function"},{"inputs":[],"name":"paused","outputs":[{"internalType":"bool","name":"","type":"bool"}],"stateMutability":"view","type":"function"},{"inputs":[{"internalType":"uint256","name":"","type":"uint256"},{"internalType":"address","name":"","type":"address"}],"name":"pendingReturns","outputs":[{"internalType":"uint256","name":"","type":"uint256"}],"stateMutability":"view","type":"function"},{"inputs":[],"name":"renounceOwnership","outputs":[],"stateMutability":"nonpayable","type":"function"},{"inputs":[{"internalType":"address","name":"from","type":"address"},{"internalType":"address","name":"to","type":"address"},{"internalType":"uint256","name":"tokenId","type":"uint256"}],"name":"safeTransferFrom","outputs":[],"stateMutability":"nonpayable","type":"function"},{"inputs":[{"internalType":"address","name":"from","type":"address"},{"internalType":"address","name":"to","type":"address"},{"internalType":"uint256","name":"tokenId","type":"uint256"},{"internalType":"bytes","name":"_data","type":"bytes"}],"name":"safeTransferFrom","outputs":[],"stateMutability":"nonpayable","type":"function"},{"inputs":[{"internalType":"address","name":"operator","type":"address"},{"internalType":"bool","name":"approved","type":"bool"}],"name":"setApprovalForAll","outputs":[],"stateMutability":"nonpayable","type":"function"},{"inputs":[{"internalType":"bytes4","name":"interfaceId","type":"bytes4"}],"name":"supportsInterface","outputs":[{"internalType":"bool","name":"","type":"bool"}],"stateMutability":"view","type":"function"},{"inputs":[],"name":"symbol","outputs":[{"internalType":"string","name":"","type":"string"}],"stateMutability":"view","type":"function"},{"inputs":[{"internalType":"uint256","name":"index","type":"uint256"}],"name":"tokenByIndex","outputs":[{"internalType":"uint256","name":"","type":"uint256"}],"stateMutability":"view","type":"function"},{"inputs":[{"internalType":"address","name":"owner","type":"address"},{"internalType":"uint256","name":"index","type":"uint256"}],"name":"tokenOfOwnerByIndex","outputs":[{"internalType":"uint256","name":"","type":"uint256"}],"stateMutability":"view","type":"function"},{"inputs":[{"internalType":"uint256","name":"tokenId","type":"uint256"}],"name":"tokenURI","outputs":[{"internalType":"string","name":"","type":"string"}],"stateMutability":"view","type":"function"},{"inputs":[{"internalType":"uint256","name":"","type":"uint256"}],"name":"totalInvestment","outputs":[{"internalType":"uint256","name":"","type":"uint256"}],"stateMutability":"view","type":"function"},{"inputs":[{"internalType":"uint256","name":"","type":"uint256"}],"name":"totalInvestors","outputs":[{"internalType":"uint256","name":"","type":"uint256"}],"stateMutability":"view","type":"function"},{"inputs":[],"name":"totalSupply","outputs":[{"internalType":"uint256","name":"","type":"uint256"}],"stateMutability":"view","type":"function"},{"inputs":[{"internalType":"address","name":"recipient","type":"address"},{"internalType":"uint256","name":"amount","type":"uint256"}],"name":"transfer","outputs":[{"internalType":"bool","name":"","type":"bool"}],"stateMutability":"nonpayable","type":"function"},{"inputs":[{"internalType":"address","name":"from","type":"address"},{"internalType":"address","name":"to","type":"address"},{"internalType":"uint256","name":"tokenId","type":"uint256"}],"name":"transferFrom","outputs":[],"stateMutability":"nonpayable","type":"function"},{"inputs":[{"internalType":"address","name":"newOwner","type":"address"}],"name":"transferOwnership","outputs":[],"stateMutability":"nonpayable","type":"function"},{"inputs":[],"name":"unpause","outputs":[],"stateMutability":"nonpayable","type":"function"},{"inputs":[{"internalType":"uint256","name":"assetId","type":"uint256"},{"components":[{"internalType":"uint256","name":"assetId","type":"uint256"},{"internalType":"uint256","name":"price","type":"uint256"},{"internalType":"string","name":"author","type":"string"},{"internalType":"string","name":"title","type":"string"},{"internalType":"string","name":"description","type":"string"},{"internalType":"uint256","name":"projectStartDate","type":"uint256"},{"internalType":"uint256","name":"projectEndDate","type":"uint256"},{"components":[{"internalType":"string","name":"title","type":"string"},{"internalType":"string","name":"description","type":"string"},{"internalType":"uint256","name":"tokenAmount","type":"uint256"},{"internalType":"uint256","name":"individualPrice","type":"uint256"},{"internalType":"uint256","name":"availableTokens","type":"uint256"},{"internalType":"uint256","name":"rewardTokenId","type":"uint256"}],"internalType":"struct Reward[]","name":"rewards","type":"tuple[]"},{"internalType":"enum ProjectStatus","name":"status","type":"uint8"},{"internalType":"address","name":"rewardTokenAddress","type":"address"},{"internalType":"string","name":"mainPhoto","type":"string"},{"internalType":"string[]","name":"secondaryPhotos","type":"string[]"},{"internalType":"enum Category","name":"category","type":"uint8"}],"internalType":"struct Asset","name":"asset","type":"tuple"}],"name":"updateAsset","outputs":[],"stateMutability":"nonpayable","type":"function"},{"inputs":[{"internalType":"uint256","name":"assetId","type":"uint256"},{"internalType":"uint256","name":"rewardIndex","type":"uint256"},{"internalType":"uint256","name":"newAvailableTokens","type":"uint256"}],"name":"updateAssetReward","outputs":[],"stateMutability":"nonpayable","type":"function"},{"inputs":[{"internalType":"uint256","name":"assetId","type":"uint256"},{"internalType":"uint256","name":"amount","type":"uint256"}],"name":"updateInvestmentRefunded","outputs":[],"stateMutability":"nonpayable","type":"function"},{"inputs":[{"internalType":"uint256","name":"assetId","type":"uint256"},{"internalType":"address","name":"investor","type":"address"},{"internalType":"uint256","name":"tokenId","type":"uint256"},{"internalType":"uint256","name":"tokenAmount","type":"uint256"}],"name":"updateInvestorTokens","outputs":[],"stateMutability":"nonpayable","type":"function"},{"inputs":[{"internalType":"uint256","name":"assetId","type":"uint256"},{"internalType":"address","name":"investor","type":"address"},{"internalType":"uint256","name":"amount","type":"uint256"}],"name":"updatePendingReturns","outputs":[],"stateMutability":"nonpayable","type":"function"},{"inputs":[{"internalType":"uint256","name":"assetId","type":"uint256"},{"internalType":"address","name":"rewardTokenAddress","type":"address"}],"name":"updateRewardTokenAddress","outputs":[],"stateMutability":"nonpayable","type":"function"}],"devdoc":{"events":{"Approval(address,address,uint256)":{"details":"Emitted when `owner` enables `approved` to manage the `tokenId` token."},"ApprovalForAll(address,address,bool)":{"details":"Emitted when `owner` enables or disables (`approved`) `operator` to manage all of its assets."},"Paused(address)":{"details":"Emitted when the pause is triggered by `account`."},"Transfer(address,address,uint256)":{"details":"Emitted when `tokenId` token is transferred from `from` to `to`."},"Unpaused(address)":{"details":"Emitted when the pause is lifted by `account`."}},"kind":"dev","methods":{"balanceOf(address)":{"details":"See {IERC721-balanceOf}."},"burn(uint256)":{"details":"Burns `tokenId`. See {ERC721-_burn}. Requirements: - The caller must own `tokenId` or be an approved operator."},"isApprovedForAll(address,address)":{"details":"See {IERC721-isApprovedForAll}."},"name()":{"details":"See {IERC721Metadata-name}."},"owner()":{"details":"Returns the address of the current owner."},"paused()":{"details":"Returns true if the contract is paused, and false otherwise."},"renounceOwnership()":{"details":"Leaves the contract without owner. It will not be possible to call `onlyOwner` functions anymore. Can only be called by the current owner. NOTE: Renouncing ownership will leave the contract without an owner, thereby removing any functionality that is only available to the owner."},"safeTransferFrom(address,address,uint256)":{"details":"See {IERC721-safeTransferFrom}."},"safeTransferFrom(address,address,uint256,bytes)":{"details":"See {IERC721-safeTransferFrom}."},"setApprovalForAll(address,bool)":{"details":"See {IERC721-setApprovalForAll}."},"symbol()":{"details":"See {IERC721Metadata-symbol}."},"tokenByIndex(uint256)":{"details":"See {IERC721Enumerable-tokenByIndex}."},"tokenOfOwnerByIndex(address,uint256)":{"details":"See {IERC721Enumerable-tokenOfOwnerByIndex}."},"totalSupply()":{"details":"See {IERC721Enumerable-totalSupply}."},"transferFrom(address,address,uint256)":{"details":"See {IERC721-transferFrom}."},"transferOwnership(address)":{"details":"Transfers ownership of the contract to a new account (`newOwner`). Can only be called by the current owner."}},"version":1},"evm":{"bytecode":{"linkReferences":{},"object":"6080346200035f576001600160401b039060408181018381118382101762000349578152600d82526020916c233930b1ba34b7b730b621aa2b60991b83820152815193828501858110828211176200034957835260048552632321aa2b60e11b84860152815181811162000349576000948554916001948584811c941680156200033e575b838510146200032a578190601f94858111620002d7575b5083908583116001146200027357899262000267575b5050600019600383901b1c191690851b1786555b8651928311620002535783548481811c9116801562000248575b828210146200023457828111620001ec575b50809183116001146200018557508495829394959262000179575b5050600019600383901b1c191690821b1790555b600b80546001600160a81b03191633600881901b610100600160a81b0316919091179091559051917f8be0079c531659141344cd1fd0a4f28419497f9722a3daafe3b4186f6b6457e08180a36144db9081620003658239f35b0151905038806200010c565b90601f198316968487528287209287905b898210620001d4575050838596979810620001ba575b505050811b01905562000120565b015160001960f88460031b161c19169055388080620001ac565b80878596829496860151815501950193019062000196565b8487528187208380860160051c8201928487106200022a575b0160051c019085905b8281106200021e575050620000f1565b8881550185906200020e565b9250819262000205565b634e487b7160e01b87526022600452602487fd5b90607f1690620000df565b634e487b7160e01b86526041600452602486fd5b015190503880620000b1565b898052848a208894509190601f1984168b5b87828210620002c05750508411620002a6575b505050811b018655620000c5565b015160001960f88460031b161c1916905538808062000298565b8385015186558b9790950194938401930162000285565b9091508880528389208580850160051c82019286861062000320575b918991869594930160051c01915b828110620003115750506200009b565b8b815585945089910162000301565b92508192620002f3565b634e487b7160e01b88526022600452602488fd5b93607f169362000084565b634e487b7160e01b600052604160045260246000fd5b600080fdfe6080604052600436101561001257600080fd5b60003560e01c806301bdc460146104ee57806301ffc9a7146104e957806303385770146104e457806306fdde03146104df57806307c90547146104da578063081812fc146104d5578063095ea7b3146104d05780630aac5dfd146103cc5780630fd8aee8146104cb578063129f9008146104c657806314fcde03146104c157806318160ddd146104bc57806323b872dd146104b75780632a0ee644146104b25780632c5bdb1f146104ad5780632f745c59146104a857806332a643701461049e57806333a90c36146104a357806334422a471461049e57806334899521146104995780633adc860e1461046c5780633d3eb314146104945780633f4ba83a1461048f5780633f9aa1541461048a57806342842e0e1461048557806342966c6814610480578063430c20811461047b5780634f558e79146104715780634f6ccce714610476578063518e2bdd146104715780635531ad6a1461046c5780635c975abb146104675780635d0dead2146104625780636352211e1461045d57806368ad1c79146104585780636dd501d71461045357806370a082311461044e578063715018a614610449578063722713f71461044457806377394a731461043f57806379f484241461043a5780638456cb591461043557806384bbffe71461043057806386887e1b1461042b57806387a115e6146104265780638da5cb5b146104215780638ddac1ef1461041c57806395d89b4114610417578063a22cb46514610412578063a2311d5f1461040d578063a9059cbb14610408578063adc649e114610403578063ae7d9553146103fe578063ae908698146103ea578063b5ff2582146103f9578063b6160915146103f4578063b88d4fde146103ef578063bb7e385a146103ea578063bbe30722146103e5578063c0adb910146103e0578063c619c4a2146103db578063c87b56dd146103d6578063cbeaba77146103d1578063cd9df190146103cc578063d166e4ee146103c7578063d3fc9864146103c2578063d86da278146103bd578063daa5fe2d146103b8578063dc289f48146103b3578063e14ca948146103ae578063e985e9c5146103a9578063e9e7854c146103a4578063eac8f5b81461039f578063ebcab6051461039a578063f2fde38b14610395578063f35b25a814610390578063f3ab880e1461038b578063fbdc985a146103865763fd27ff811461038157600080fd5b612e71565b612e40565b612dc8565b612d77565b612ca6565b612b1a565b612a5a565b6127f4565b6127a3565b6126ab565b6124e8565b6121dc565b6121ab565b612088565b612043565b6109e1565b612007565b611fd4565b611f82565b611f56565b611f05565b611de9565b611ea6565b611e75565b611e1b565b611d9f565b611d55565b611d24565b611ca0565b611bda565b611b46565b611b0b565b611ade565b611a4d565b611a0e565b6119bd565b61194d565b61184f565b611815565b611795565b611743565b611718565b6116e7565b611691565b61163e565b611614565b6115f1565b610ff4565b611527565b611558565b6114ab565b6112a2565b61127a565b6111a4565b611079565b61101f565b610fc0565b610f10565b610f6f565b610e5d565b610e3c565b610e08565b610ddd565b610d8a565b610d62565b610ca2565b6109ff565b6108df565b610859565b6107da565b6106dc565b61064f565b6105c7565b61053b565b90815180825260208080930193019160005b828110610513575050505090565b835185529381019392810192600101610505565b9060206105389281815201906104f3565b90565b346105b0576000806003193601126105ad5760405180918260145480845260208094019060148452848420935b858282106105975750505061057f92500383610b00565b6105936040519282849384528301906104f3565b0390f35b8554845260019586019588955093019201610568565b80fd5b600080fd5b6001600160e01b03198116036105b057565b346105b05760203660031901126105b05760206004356105e6816105b5565b63ffffffff60e01b1663780e9d6360e01b811490811561060c575b506040519015158152f35b6380ac58cd60e01b81149150811561063e575b811561062d575b5038610601565b6301ffc9a760e01b14905038610626565b635b5e139f60e01b8114915061061f565b346105b05760203660031901126105b0576004356000526010602052602060018060a01b0360406000205416604051908152f35b60005b8381106106965750506000910152565b8181015183820152602001610686565b906020916106bf81518092818552858086019101610683565b601f01601f1916010190565b9060206105389281815201906106a6565b346105b0576000806003193601126105ad576040518180546106fd81610a59565b8084529060019081811690811561076e5750600114610733575b6105938461072781880382610b00565b604051918291826106cb565b93508180526020938483205b82841061075b5750505081610593936107279282010193610717565b805485850187015292850192810161073f565b61059396506107279450602092508593915060ff191682840152151560051b82010193610717565b6020908160408183019282815285518094520193019160005b8281106107bd575050505090565b83516001600160a01b0316855293810193928101926001016107af565b346105b0576020806003193601126105b057600435600052601a8152604060002090604051908181845491828152019360005281600020916000905b828210610839576105938561082d81890382610b00565b60405191829182610796565b83546001600160a01b031686529485019460019384019390910190610816565b346105b05760203660031901126105b0576020610877600435613bde565b6040516001600160a01b039091168152f35b600435906001600160a01b03821682036105b057565b602435906001600160a01b03821682036105b057565b604435906001600160a01b03821682036105b057565b35906001600160a01b03821682036105b057565b346105b05760403660031901126105b0576108f8610889565b602435906001600160a01b038061090e84613b88565b16908216918183146109a55781330361096d5761095890610939856000526010602052604060002090565b80546001600160a01b0319166001600160a01b03909216919091179055565b600080516020614486833981519152600080a4005b60405162461bcd60e51b815260206004820152601060248201526f2737ba2a3432a0b9b9b2ba27bbb732b960811b6044820152606490fd5b60405162461bcd60e51b815260206004820152601460248201527310dd5c9c995b9d13dddb995c905c1c1c9bdd985b60621b6044820152606490fd5b346105b05760003660031901126105b0576020600c54604051908152f35b346105b0576000806003193601126105ad5760405180918260135480845260208094019060138452848420935b85828210610a435750505061057f92500383610b00565b8554845260019586019588955093019201610a2c565b90600182811c92168015610a89575b6020831014610a7357565b634e487b7160e01b600052602260045260246000fd5b91607f1691610a68565b634e487b7160e01b600052604160045260246000fd5b6101a081019081106001600160401b03821117610ac557604052565b610a93565b60c081019081106001600160401b03821117610ac557604052565b602081019081106001600160401b03821117610ac557604052565b601f909101601f19168101906001600160401b03821190821017610ac557604052565b9060405191826000825492610b3784610a59565b908184526001948581169081600014610ba65750600114610b63575b5050610b6192500383610b00565b565b9093915060005260209081600020936000915b818310610b8e575050610b6193508201013880610b53565b85548884018501529485019487945091830191610b76565b915050610b6194506020925060ff191682840152151560051b8201013880610b53565b634e487b7160e01b600052602160045260246000fd5b60041115610be957565b610bc9565b906004821015610be95752565b60051115610be957565b906005821015610be95752565b9b9a98938c610b619b96610c5a610c6893610c4c610c7d986101409e98610c9a9e98875260208701526101608060408801528601906106a6565b9084820360608601526106a6565b9160808184039101526106a6565b9560a08d015260c08c015260e08b0190610bee565b6001600160a01b03166101008901528782036101208901526106a6565b940190610c05565b346105b05760203660031901126105b057600435600052600d60205260406000208054610593600183015491610cda60028501610b23565b93610ce760038201610b23565b91610cf460048301610b23565b90600583015460068401549060088501549360ff600b610d1660098901610b23565b97015416966040519a8b9a60ff60018060a01b038960081c169816968c610c12565b60609060031901126105b057600435906024356001600160a01b03811681036105b0579060443590565b346105b057610d87610d7336610d38565b9291600052601e60205260406000206117fe565b55005b346105b05760003660031901126105b0576020600854604051908152f35b60609060031901126105b0576001600160a01b039060043582811681036105b0579160243590811681036105b0579060443590565b346105b057610e06610dee36610da8565b91610e01610dfc843361311a565b612fa2565b6132cf565b005b346105b05760203660031901126105b0576004356000526011602052602060018060a01b0360406000205416604051908152f35b346105b05760003660031901126105b057610e58600c54613a91565b600c55005b346105b05760403660031901126105b057610e76610889565b60243590610e8381612f6c565b821015610eb7576001600160a01b031660009081526006602090815260408083209383529281529082902054915191825290f35b60405162461bcd60e51b815260206004820152602b60248201527f455243373231456e756d657261626c653a206f776e657220696e646578206f7560448201526a74206f6620626f756e647360a81b6064820152608490fd5b346105b05760203660031901126105b05760043560005260216020526020604060002054604051908152f35b634e487b7160e01b600052603260045260246000fd5b8054821015610f6a5760005260206000200190600090565b610f3c565b346105b05760203660031901126105b0576004356016548110156105b05760166000527fd833147d7dc355ba459fc788f669e58cfaf9dc25ddcd0702e87d69c7b51242890154604051908152602090f35b346105b05760403660031901126105b057610e06610fdc61089f565b600435600052600d6020526008604060002001612ee8565b346105b05760203660031901126105b057600435600052602080526020604060002054604051908152f35b346105b0576000806003193601126105ad5760405180918260155480845260208094019060158452848420935b858282106110635750505061057f92500383610b00565b855484526001958601958895509301920161104c565b346105b05760003660031901126105b057600b546110a5600882901c6001600160a01b03163314612e9d565b60ff8116156110e15760ff1916600b557f5db9ee0a495bf2e6ff9c91a7834c1ba4fdd244a5e8aa4e537bd38aeae4b073aa6020604051338152a1005b60405162461bcd60e51b815260206004820152601460248201527314185d5cd8589b194e881b9bdd081c185d5cd95960621b6044820152606490fd5b60405190610b6182610aca565b60405190610b6182610aa9565b6001600160401b038111610ac557601f01601f191660200190565b92919261115e82611137565b9161116c6040519384610b00565b8294818452818301116105b0578281602093846000960137010152565b9080601f830112156105b05781602061053893359101611152565b346105b05760c03660031901126105b0576001600160401b036024358181116105b0576111d5903690600401611189565b906044359081116105b0576111ee903690600401611189565b90606435916000926004358452600d60205260076040852001916040519361121585610aca565b84526020840152604083018190526084356060840152608083015260a43560a08301528054600160401b811015610ac55761125591600182018155614368565b611266579061126391613ede565b80f35b634e487b7160e01b83526004839052602483fd5b346105b057610e0661128b36610da8565b906040519261129984610ae5565b6000845261301b565b346105b05760203660031901126105b0576004356112c0813361311a565b1561144d57806112cf81613194565b6112de60ff600b54161561359a565b6001600160a01b038116908161139857906113156000926112fe85613795565b611307856137db565b611310856133ba565b6117e4565b61131f8154613297565b9055611348611338846000526002602052604060002090565b80546001600160a01b0319169055565b6000805160206144668339815191528280a461137661137182600052600a602052604060002090565b613887565b61137c57005b611393610e0691600052600a602052604060002090565b6138a8565b9091506113a481612f6c565b600019810192908311611448576113156000928594611402859187835260076020526040832054818103611408575b50826113e9896000526007602052604060002090565b556113f3846117ca565b90600052602052604060002090565b556112fe565b868452600660205260408420828552602052611441604085205480611430846113f38a6117ca565b556000526007602052604060002090565b55386113d3565b613281565b60405162461bcd60e51b815260206004820152603060248201527f4552433732314275726e61626c653a2063616c6c6572206973206e6f74206f7760448201526f1b995c881b9bdc88185c1c1c9bdd995960821b6064820152608490fd5b346105b05760403660031901126105b05760206114c6610889565b6024359081600052600e83526114e360ff604060002054166130b9565b6001600160a01b0380806114f685613b88565b169216918214928315611511575b5050506040519015158152f35b61151d91929350613bde565b1614388080611504565b346105b05760203660031901126105b057600435600052600e602052602060ff604060002054166040519015158152f35b346105b05760203660031901126105b0576004356008548110156115975760086000526000805160206144468339815191520154604051908152602090f35b60405162461bcd60e51b815260206004820152602c60248201527f455243373231456e756d657261626c653a20676c6f62616c20696e646578206f60448201526b7574206f6620626f756e647360a01b6064820152608490fd5b346105b05760003660031901126105b057602060ff600b54166040519015158152f35b346105b05760403660031901126105b057600435600052601d602052602435604060002055600080f35b346105b05760203660031901126105b0576020610877600435613b88565b6004359060058210156105b057565b359060058210156105b057565b6005811015610be9576000526017602052604060002090565b346105b05760403660031901126105b0576116aa61165c565b602435906005811015610be9576000526017602052604060002080548210156105b0576020916116d991610f52565b90546040519160031b1c8152f35b346105b05760203660031901126105b057600435600052601c602052602060ff604060002054166040519015158152f35b346105b05760203660031901126105b057602061173b611736610889565b612f6c565b604051908152f35b346105b0576000806003193601126105ad57600b5481600882901c6001600160a01b0316611772338214612e9d565b6000805160206144268339815191528280a3610100600160a81b031916600b5580f35b346105b05760003660031901126105b0576117b1331515612f0d565b3360005260126020526020604060002054604051908152f35b6001600160a01b0316600090815260066020526040902090565b6001600160a01b0316600090815260036020526040902090565b9060018060a01b0316600052602052604060002090565b346105b05760203660031901126105b0576001600160a01b03611836610889565b1660005260126020526020604060002054604051908152f35b346105b05761185d36610d38565b91600092818452601860205261187683604086206117fe565b805490828201809211611448575581845260196020526040842061189b8282546132c2565b90556118b1826000526021602052604060002090565b6118bc8282546132c2565b90556118db836118d6846000526018602052604060002090565b6117fe565b54146118e5578280f35b61192c816119278461190d61193b9661190885600052601a602052604060002090565b614384565b6001600160a01b0316600090815260226020526040902090565b613760565b60005260208052604060002090565b6119458154613a91565b905538808280f35b346105b05760003660031901126105b057600b5460019061197c600882901c6001600160a01b03163314612e9d565b61198960ff82161561359a565b60ff191617600b557f62e78cea01bee320cd4e420270b5ea74000d11b0c9f74754ebdbfc544b05a2586020604051338152a1005b346105b05760203660031901126105b0576004356014548110156105b05760146000527fce6d7b5282bd9a3661ae061feed1dbda4e52ab073b1f9285be6e155d9c38d4ec0154604051908152602090f35b346105b05760203660031901126105b0576004356013548110156105b05760136000526000805160206144068339815191520154604051908152602090f35b346105b05760603660031901126105b05760043560243590600091818352600d6020526007604084200154811015611aa257611a96918352600d60205260076040842001614368565b50600460443591015580f35b60405162461bcd60e51b8152602060048201526014602482015273092dcecc2d8d2c840e4caeec2e4c840d2dcc8caf60631b6044820152606490fd5b346105b05760003660031901126105b057600b5460405160089190911c6001600160a01b03168152602090f35b346105b05760403660031901126105b0576020611b3d611b2961089f565b600435600052601e835260406000206117fe565b54604051908152f35b346105b0576000806003193601126105ad57604051816001805490611b6a82610a59565b8085529181811690811561076e5750600114611b90576105938461072781880382610b00565b80945082526020938483205b828410611bb85750505081610593936107279282010193610717565b8054858501870152928501928101611b9c565b6024359081151582036105b057565b346105b05760403660031901126105b057611bf3610889565b611bfb611bcb565b6001600160a01b03821691338314611c5f5781611c28611c2d9233600052600560205260406000206117fe565b612f91565b604051901515815233907f17307eab39ab6107e8899845ad3d59bd9653f200f220920489ca2b5937696c3190602090a3005b60405162461bcd60e51b815260206004820152601960248201527822a9219b99189d1030b8383937bb32903a379031b0b63632b960391b6044820152606490fd5b346105b0576020806003193601126105b057611cba61165c565b6005811015610be95760005260178152604060002090604051908181845491828152019360005281600020916000905b828210611d0d5761059385611d0181890382610b00565b60405191829182610527565b835486529485019460019384019390910190611cea565b346105b05760403660031901126105b057611d4a611d40610889565b60243590336132cf565b602060405160018152f35b346105b05760403660031901126105b057611d6e610889565b6001600160a01b03166000908152600f60205260409020805460243591908210156105b0576020916116d991610f52565b346105b05760403660031901126105b057611db8610889565b6001600160a01b03166000908152602260205260409020805460243591908210156105b0576020916116d991610f52565b346105b05760403660031901126105b0576020611b3d611e0761089f565b6004356000526018835260406000206117fe565b346105b0576000806003193601126105ad5760405180918260165480845260208094019060168452848420935b85828210611e5f5750505061057f92500383610b00565b8554845260019586019588955093019201611e48565b346105b05760203660031901126105b057600435600052601b602052602060ff604060002054166040519015158152f35b346105b05760803660031901126105b057611ebf610889565b611ec761089f565b606435916001600160401b0383116105b057366023840112156105b057611efb610e06933690602481600401359101611152565b916044359161301b565b346105b05760403660031901126105b057600435611263611f2461089f565b91600092818452601a602052611f3d8160408620614384565b6001600160a01b03168352602260205260408320613760565b346105b05760203660031901126105b05760043560005260196020526020604060002054604051908152f35b346105b05760403660031901126105b057602435600435600052601a602052604060002080548210156105b057602091611fbb91610f52565b905460405160039290921b1c6001600160a01b03168152f35b346105b05760203660031901126105b057610593611ff3600435613908565b6040519182916020835260208301906106a6565b346105b05761202c61201836610d38565b9291600052601f60205260406000206117fe565b906000526020526020604060002054604051908152f35b346105b05760803660031901126105b05761205c61089f565b6120756000916004358352601f602052604083206117fe565b6044358252602052606435604082205580f35b346105b05760603660031901126105b0576120a1610889565b6024356044356001600160401b0381116105b0576120c3903690600401611189565b6001600160a01b0383169081156121705761215f9361216a604051926120e884610ae5565b612164600097858980975261210b6121066121028b61320c565b1590565b613c61565b61211589876135d9565b61211e866117e4565b61212881546132a6565b9055612142866109398b6000526002602052604060002090565b8860008051602061446683398151915296818a8a8a8180a461349d565b613095565b85613dbf565b8180a480f35b60405162461bcd60e51b81526020600482015260136024820152725a65726f416464726573734d696e6974696e6760681b6044820152606490fd5b346105b05760403660031901126105b057610e066121c7611bcb565b600435600052601b6020526040600020612f91565b346105b05760403660031901126105b0576121f561089f565b6004356000908152601060205260409020805490916001600160a01b0380831691161461221e57005b6001600160a01b0319169055005b6001600160401b038111610ac55760051b60200190565b81601f820112156105b05780356122598161222c565b9260409161226983519586610b00565b808552602093848087019260051b820101938385116105b057858201925b858410612298575050505050505090565b6001600160401b0384358181116105b05784019160c09283601f19828a0301126105b0576122c461111d565b908a8101358481116105b057898c6122de92840101611189565b8252858101359384116105b0578a946122fc8a878097850101611189565b858401526060918281013588850152608092838201359085015260a0928382013590850152013590820152815201930192612287565b359060048210156105b057565b9080601f830112156105b0578135906123578261222c565b926123656040519485610b00565b828452602092838086019160051b830101928084116105b057848301915b8483106123935750505050505090565b82356001600160401b0381116105b05786916123b484848094890101611189565b815201920191612383565b9190916101a0818403126105b0576123d561112a565b8135815260208083013590820152926001600160401b0360408301358181116105b05782612404918501611189565b604086015260608301358181116105b05782612421918501611189565b606086015260808301358181116105b0578261243e918501611189565b608086015260a083013560a086015260c083013560c086015260e08301358181116105b0578261246f918501612243565b60e0860152610100612482818501612332565b908601526101206124948185016108cb565b90860152610140808401358281116105b057836124b2918601611189565b9086015261016091828401359182116105b0576124d091840161233f565b908401526124e261018080920161166b565b90830152565b346105b05760603660031901126105b0576024356004356001600160401b0382116105b057611927612521610e069336906004016123bf565b61266f836119276125306108b5565b82600052600d6020526126196101806040600020968051885560208101516001890155612564604082015160028a01613cf1565b612575606082015160038a01613cf1565b612586608082015160048a01613cf1565b60a0810151600589015560c081015160068901556125ab60e082015160078a01613ff3565b6125df600889016125ca6101008401516125c481610bdf565b826140c1565b6101208301516001600160a01b031690612ee8565b6125f161014082015160098a01613cf1565b612603610160820151600a8a016140d9565b0195600b87519161261383610bfb565b01614166565b61263181610939856000526011602052604060002090565b6001600160a01b03811660009081526012602052604090206126538154613a91565b90556001600160a01b03166000908152600f6020526040902090565b61269361268684600052600e602052604060002090565b805460ff19166001179055565b61269c8361372a565b516126a681610bfb565b611678565b346105b05760403660031901126105b0576024356001600160401b0381116105b0576126de610e069136906004016123bf565b600435600052600d602052600b6101806040600020928051845560208101516001850155612713604082015160028601613cf1565b612724606082015160038601613cf1565b612735608082015160048601613cf1565b60a0810151600585015560c0810151600685015561275a60e082015160078601613ff3565b612773600885016125ca6101008401516125c481610bdf565b61278561014082015160098601613cf1565b612797610160820151600a86016140d9565b01519161261383610bfb565b346105b05760403660031901126105b057602060ff6127e86127c3610889565b6127cb61089f565b6001600160a01b03909116600090815260058552604090206117fe565b54166040519015158152f35b346105b0576020806003193601126105b0576001600160a01b03612816610889565b1660005260228152604060002090604051908181845491828152019360005281600020916000905b8282106128555761059385611d0181890382610b00565b83548652948501946001938401939091019061283e565b90815180825260208092019182818360051b85019501936000915b8483106128975750505050505090565b909192939495848082846001940386528951906128cf6128bf835160c08085528401906106a6565b84840151838203868501526106a6565b9160408082015190830152606080820151908301526080808201519083015260a0809101519101529801930193019194939290612887565b90815180825260208092019182818360051b82019501936000915b8483106129325750505050505090565b909192939495848061294c83856001950387528a516106a6565b9801930193019194939290612922565b6105389060208152825160208201526020830151604082015260408301516129926101a0918260608501526101c08401906106a6565b612a4f6129c86129b4606088015193601f1994858883030160808901526106a6565b6080880151848783030160a08801526106a6565b60a087015160c086015260c087015160e0860152612a3a6129fa60e089015192610100938689830301858a015261286c565b91880151612a0e6101209182890190610bee565b8801516001600160a01b03166101408781019190915288015191610160928588830301848901526106a6565b90870151610180938683030184870152612907565b940151910190610c05565b346105b05760203660031901126105b057604051612a7781610aa9565b610180600091828152826020820152606080604083015280808301528060808301528360a08301528360c08301528060e08301528361010083015283610120830152806101408301526101608201520152610593612ae9612ae4600435600052600d602052604060002090565b61428d565b6040519182918261295c565b9091612b0c610538936040845260408401906104f3565b9160208184039101526104f3565b346105b05760403660031901126105b057600435612b3661089f565b81600052600d602052604060002091612b4d61112a565b918354835260018401546020840152612b6860028501610b23565b6040840152612b7960038501610b23565b6060840152612b8a60048501610b23565b6080840152612c2560058501549360a09485820152600686015460c0820152610180612c1e600b612bbd60078a0161417e565b9860e08501998a52612bf26008820154612bde60ff82166101008901614220565b60081c6001600160a01b0316610120870152565b612bfe60098201610b23565b610140860152612c10600a820161422c565b610160860152015460ff1690565b9101614281565b83515191612c32836143bf565b93612c3c846143bf565b9560005b858110612c5657604051806105938a8a83612af5565b80612c9084612c69612ca19486516143f1565b51015180612c77848c6143f1565b526113f3886118d689600052601f602052604060002090565b54612c9b828b6143f1565b52613a91565b612c40565b346105b05760203660031901126105b057612cbf610889565b600b5460081c6001600160a01b039081169190612cdd338414612e9d565b81168015612d2357610e0692600080516020614426833981519152600080a3600b8054610100600160a81b03191660089290921b610100600160a81b0316919091179055565b60405162461bcd60e51b815260206004820152602660248201527f4f776e61626c653a206e6577206f776e657220697320746865207a65726f206160448201526564647265737360d01b6064820152608490fd5b346105b05760203660031901126105b0576004356015548110156105b05760156000527f55f448fdea98c4d29eb340757ef0a66cd03dbb9538908a6a81d96026b71ec4750154604051908152602090f35b346105b0576020806003193601126105b0576001600160a01b03612dea610889565b16600052600f8152604060002090604051908181845491828152019360005281600020916000905b828210612e295761059385611d0181890382610b00565b835486529485019460019384019390910190612e12565b346105b05760403660031901126105b057610e06612e5c611bcb565b600435600052601c6020526040600020612f91565b346105b05760203660031901126105b057600435600052601d6020526020604060002054604051908152f35b15612ea457565b606460405162461bcd60e51b815260206004820152602060248201527f4f776e61626c653a2063616c6c6572206973206e6f7420746865206f776e65726044820152fd5b8054610100600160a81b03191660089290921b610100600160a81b0316919091179055565b15612f1457565b60405162461bcd60e51b815260206004820152602a60248201527f4552433732313a2062616c616e636520717565727920666f7220746865207a65604482015269726f206164647265737360b01b6064820152608490fd5b6001600160a01b0316612f80811515612f0d565b600052600360205260406000205490565b9060ff801983541691151516179055565b15612fa957565b60405162461bcd60e51b815260206004820152603160248201527f4552433732313a207472616e736665722063616c6c6572206973206e6f74206f6044820152701ddb995c881b9bdc88185c1c1c9bdd9959607a1b6064820152608490fd5b6040519061301582610ae5565b60008252565b91610b61939161215f93613032610dfc843361311a565b61303d8383836132cf565b61355e565b60809060208152603260208201527f4552433732313a207472616e7366657220746f206e6f6e20455243373231526560408201527131b2b4bb32b91034b6b83632b6b2b73a32b960711b60608201520190565b1561309c57565b60405162461bcd60e51b8152806130b560048201613042565b0390fd5b156130c057565b60405162461bcd60e51b815260206004820152602c60248201527f4552433732313a206f70657261746f7220717565727920666f72206e6f6e657860448201526b34b9ba32b73a103a37b5b2b760a11b6064820152608490fd5b61312b6131268361320c565b6130b9565b6001600160a01b038061313d84613194565b16908083169082821494851561317c575b505050821561315c57505090565b60ff92509061317791600052600560205260406000206117fe565b541690565b6131899192939550613bde565b16149138808061314e565b6000908152600260205260409020546001600160a01b031680156131b55790565b60405162461bcd60e51b815260206004820152602960248201527f4552433732313a206f776e657220717565727920666f72206e6f6e657869737460448201526832b73a103a37b5b2b760b91b6064820152608490fd5b6000908152600260205260409020546001600160a01b0316151590565b1561323057565b60405162461bcd60e51b8152602060048201526024808201527f4552433732313a207472616e7366657220746f20746865207a65726f206164646044820152637265737360e01b6064820152608490fd5b634e487b7160e01b600052601160045260246000fd5b60001981019190821161144857565b906001820180921161144857565b603001908160301161144857565b9190820180921161144857565b906132d983613194565b6001600160a01b0383811692909182168390036133635761331961334e92821694613305861515613229565b613310878483613613565b611310876133ba565b6133238154613297565b905561332e816117e4565b61333881546132a6565b9055610939856000526002602052604060002090565b600080516020614466833981519152600080a4565b60405162461bcd60e51b815260206004820152602960248201527f4552433732313a207472616e73666572206f6620746f6b656e2074686174206960448201526839903737ba1037bbb760b91b6064820152608490fd5b600081815260046020526040812080546001600160a01b03191690556001600160a01b036133e783613194565b166000805160206144868339815191528280a4565b908160209103126105b05751610538816105b5565b610538939260809260018060a01b0316825260006020830152604082015281606082015201906106a6565b6001600160a01b039182168152911660208201526040810191909152608060608201819052610538929101906106a6565b3d15613498573d9061347e82611137565b9161348c6040519384610b00565b82523d6000602084013e565b606090565b909190803b15613556576134cf602091600093604051948580948193630a85bd0160e11b998a84523360048501613411565b03926001600160a01b03165af160009181613526575b50613518576134f261346d565b805190816135135760405162461bcd60e51b8152806130b560048201613042565b602001fd5b6001600160e01b0319161490565b61354891925060203d811161354f575b6135408183610b00565b8101906133fc565b90386134e5565b503d613536565b505050600190565b92909190823b15613591576134cf926020926000604051809681958294630a85bd0160e11b9a8b8552336004860161343c565b50505050600190565b156135a157565b60405162461bcd60e51b815260206004820152601060248201526f14185d5cd8589b194e881c185d5cd95960821b6044820152606490fd5b906135e960ff600b54161561359a565b6135f281613795565b6001600160a01b03821661360a57610b6191506137db565b610b61916136f2565b91909161362560ff600b54161561359a565b6001600160a01b03818116918261365c575061364083613795565b831680613653575050610b6191506137db565b0361360a575050565b818516830361366c575b50613640565b61367581612f6c565b6000198101908111611448576136bc906113f3600093878552600760205260408520548381036136c3575b50846136b6896000526007602052604060002090565b556117ca565b5538613666565b8786526006602052604086208487526020526136eb604087205480611430846113f3876117ca565b55386136a0565b6040906136fe81612f6c565b9260009160018060a01b0316825260066020528282208483526020528083832055815260076020522055565b601354600160401b811015610ac5576001810180601355811015610f6a5760136000526000805160206144068339815191520155565b8054600160401b811015610ac55761377d91600182018155610f52565b819291549060031b91821b91600019901b1916179055565b60085481600052600960205280604060002055600160401b811015610ac5576001810180600855811015610f6a5760086000526000805160206144468339815191520155565b60088054600019929083810190808211611448576000928084526009602052816040852054931015610f6a5784845285826020862001015491831015610f6a57839261383f6138509387865280836020882001556000526009602052604060002090565b556000526009602052604060002090565b558154928315613873578084019380851015610f6a578383526020832001015555565b634e487b7160e01b82526031600452602482fd5b6105389054610a59565b81811061389c575050565b60008155600101613891565b6138b28154610a59565b90816138bc575050565b81601f600093116001146138ce575055565b9080839182526138ed601f60208420940160051c840160018501613891565b5555565b9061390460209282815194859201610683565b0190565b6139118161320c565b156139885761393261392d82600052600a602052604060002090565b610b23565b9061393b613008565b805115613983578251613953575061053891506139e7565b610538915061397561396f9360405194859360208501906138f1565b906138f1565b03601f198101835282610b00565b505090565b60405162461bcd60e51b815260206004820152603160248201527f45524337323155524953746f726167653a2055524920717565727920666f72206044820152703737b732bc34b9ba32b73a103a37b5b2b760791b6064820152608490fd5b6139f08161320c565b15613a34576139fd613008565b805190919015613a2a5761396f91613975613a1a61053893613ab1565b60405194859360208501906138f1565b5050610538613008565b60405162461bcd60e51b815260206004820152602f60248201527f4552433732314d657461646174613a2055524920717565727920666f72206e6f60448201526e3732bc34b9ba32b73a103a37b5b2b760891b6064820152608490fd5b60001981146114485760010190565b908151811015610f6a570160200190565b8015613b5a57806000908282935b613b465750613acd83611137565b92613adb6040519485610b00565b80845281601f19613aeb83611137565b013660208701375b613afd5750505090565b613b0690613297565b90600a90613b31613b21613b1b8484066132b4565b60ff1690565b60f81b6001600160f81b03191690565b841a613b3d8487613aa0565b53049081613af3565b92613b52600a91613a91565b930480613abf565b50604080519081016001600160401b03811182821017610ac55760405260018152600360fc1b602082015290565b6000908152601160205260409020546001600160a01b03168015613ba95790565b60405162461bcd60e51b815260206004820152600d60248201526c4e6f417373657445786973747360981b6044820152606490fd5b613be78161320c565b15613c07576000908152601060205260409020546001600160a01b031690565b60405162461bcd60e51b815260206004820152602c60248201527f4552433732313a20617070726f76656420717565727920666f72206e6f6e657860448201526b34b9ba32b73a103a37b5b2b760a11b6064820152608490fd5b15613c6857565b60405162461bcd60e51b815260206004820152601c60248201527b115490cdcc8c4e881d1bdad95b88185b1c9958591e481b5a5b9d195960221b6044820152606490fd5b9190601f8111613cbb57505050565b610b61926000526020600020906020601f840160051c83019310613ce7575b601f0160051c0190613891565b9091508190613cda565b81519192916001600160401b038111610ac557613d1881613d128454610a59565b84613cac565b602080601f8311600114613d54575081929394600092613d49575b50508160011b916000199060031b1c1916179055565b015190503880613d33565b90601f19831695613d6a85600052602060002090565b926000905b888210613da757505083600195969710613d8e575b505050811b019055565b015160001960f88460031b161c19169055388080613d84565b80600185968294968601518155019501930190613d6f565b919091613dcb8161320c565b15613e82576000526020600a815260406000209083519060018060401b038211610ac557613e0382613dfd8554610a59565b85613cac565b80601f8311600114613e31575081929394600092613d495750508160011b916000199060031b1c1916179055565b90601f19831695613e4785600052602060002090565b926000905b888210613e6a57505083600195969710613d8e57505050811b019055565b80600185968294968601518155019501930190613e4c565b60405162461bcd60e51b815260206004820152602e60248201527f45524337323155524953746f726167653a2055524920736574206f66206e6f6e60448201526d32bc34b9ba32b73a103a37b5b2b760911b6064820152608490fd5b815180519192916001600160401b038111610ac557613f0781613f018654610a59565b86613cac565b6020918290601f8311600114613f7d57928260059593613f4d9360a096600092613f72575b50508160011b916000199060031b1c19161786555b82015160018601613cf1565b6040810151600285015560608101516003850155608081015160048501550151910155565b015190503880613f2c565b90601f19831691613f9387600052602060002090565b9260005b818110613fdc575093613f4d9360a096936001938360059a9810613fc3575b505050811b018655613f41565b015160001960f88460031b161c19169055388080613fb6565b929386600181928786015181550195019301613f97565b815191600160401b8311610ac5578154838355808410614052575b50614023602080920192600052602060002090565b6000925b848410614035575050505050565b600683826140466001945186613ede565b01920193019290614027565b6006908082029082820403611448578482028281048603611448576000908582526020822092830192015b82811061408c5750505061400e565b8061409785926138a8565b6140a3600182016138a8565b8260028201558260038201558260048201558260058201550161407d565b906004811015610be95760ff80198354169116179055565b815191600160401b8311610ac5578154838355808410614137575b50614109602080920192600052602060002090565b6000925b84841061411b575050505050565b6001838261412b83945186613cf1565b0192019301929061410d565b8260005283602060002091820191015b81811061415457506140f4565b806141606001926138a8565b01614147565b906005811015610be95760ff80198354169116179055565b90815461418a8161222c565b9260409361419a85519182610b00565b828152809460208092019260005281600020906000935b8585106141c057505050505050565b60068460019284516141d181610aca565b6141da87610b23565b81526141e7858801610b23565b838201526002870154868201526003870154606082015260048701546080820152600587015460a08201528152019301940193916141b1565b6004821015610be95752565b9081546142388161222c565b926142466040519485610b00565b818452600090815260208082208186015b848410614265575050505050565b600183819261427385610b23565b815201920193019290614257565b6005821015610be95752565b90610b6161435e600b61429e61112a565b9480548652600181015460208701526142b960028201610b23565b60408701526142ca60038201610b23565b60608701526142db60048201610b23565b6080870152600581015460a0870152600681015460c08701526143006007820161417e565b60e0870152614332600882015461431e60ff82166101008a01614220565b60081c6001600160a01b0316610120880152565b61433e60098201610b23565b610140870152614350600a820161422c565b610160870152015460ff1690565b6101808401614281565b8054821015610f6a576000526006602060002091020190600090565b8054600160401b811015610ac5576143a191600182018155610f52565b819291549060031b9160018060a01b03809116831b921b1916179055565b906143c98261222c565b6143d66040519182610b00565b82815280926143e7601f199161222c565b0190602036910137565b8051821015610f6a5760209160051b01019056fe66de8ffda797e3de9c05e8fc57b3bf0ec28a930d40b0d285d93c06501cf6a0908be0079c531659141344cd1fd0a4f28419497f9722a3daafe3b4186f6b6457e0f3f7a9fe364faab93b216da50a3214154f22a0a2b415b23a84c8169e8b636ee3ddf252ad1be2c89b69c2b068fc378daa952ba7f163c4a11628f55a4df523b3ef8c5be1e5ebec7d5bd14f71427d1e84f3dd0314c0f7b2291e5b200ac8c7c3b925a2646970667358221220f737762fbc1faa179f3ab77afb22c46756b5334a07426068acb66d41bee2b86d64736f6c63430008130033","opcodes":"PUSH1 0x80 CALLVALUE PUSH3 0x35F JUMPI PUSH1 0x1 PUSH1 0x1 PUSH1 0x40 SHL SUB SWAP1 PUSH1 0x40 DUP2 DUP2 ADD DUP4 DUP2 GT DUP4 DUP3 LT OR PUSH3 0x349 JUMPI DUP2 MSTORE PUSH1 0xD DUP3 MSTORE PUSH1 0x20 SWAP2 PUSH13 0x233930B1BA34B7B730B621AA2B PUSH1 0x99 SHL DUP4 DUP3 ADD MSTORE DUP2 MLOAD SWAP4 DUP3 DUP6 ADD DUP6 DUP2 LT DUP3 DUP3 GT OR PUSH3 0x349 JUMPI DUP4 MSTORE PUSH1 0x4 DUP6 MSTORE PUSH4 0x2321AA2B PUSH1 0xE1 SHL DUP5 DUP7 ADD MSTORE DUP2 MLOAD DUP2 DUP2 GT PUSH3 0x349 JUMPI PUSH1 0x0 SWAP5 DUP6 SLOAD SWAP2 PUSH1 0x1 SWAP5 DUP6 DUP5 DUP2 SHR SWAP5 AND DUP1 ISZERO PUSH3 0x33E JUMPI JUMPDEST DUP4 DUP6 LT EQ PUSH3 0x32A JUMPI DUP2 SWAP1 PUSH1 0x1F SWAP5 DUP6 DUP2 GT PUSH3 0x2D7 JUMPI JUMPDEST POP DUP4 SWAP1 DUP6 DUP4 GT PUSH1 0x1 EQ PUSH3 0x273 JUMPI DUP10 SWAP3 PUSH3 0x267 JUMPI JUMPDEST POP POP PUSH1 0x0 NOT PUSH1 0x3 DUP4 SWAP1 SHL SHR NOT AND SWAP1 DUP6 SHL OR DUP7 SSTORE JUMPDEST DUP7 MLOAD SWAP3 DUP4 GT PUSH3 0x253 JUMPI DUP4 SLOAD DUP5 DUP2 DUP2 SHR SWAP2 AND DUP1 ISZERO PUSH3 0x248 JUMPI JUMPDEST DUP3 DUP3 LT EQ PUSH3 0x234 JUMPI DUP3 DUP2 GT PUSH3 0x1EC JUMPI JUMPDEST POP DUP1 SWAP2 DUP4 GT PUSH1 0x1 EQ PUSH3 0x185 JUMPI POP DUP5 SWAP6 DUP3 SWAP4 SWAP5 SWAP6 SWAP3 PUSH3 0x179 JUMPI JUMPDEST POP POP PUSH1 0x0 NOT PUSH1 0x3 DUP4 SWAP1 SHL SHR NOT AND SWAP1 DUP3 SHL OR SWAP1 SSTORE JUMPDEST PUSH1 0xB DUP1 SLOAD PUSH1 0x1 PUSH1 0x1 PUSH1 0xA8 SHL SUB NOT AND CALLER PUSH1 0x8 DUP2 SWAP1 SHL PUSH2 0x100 PUSH1 0x1 PUSH1 0xA8 SHL SUB AND SWAP2 SWAP1 SWAP2 OR SWAP1 SWAP2 SSTORE SWAP1 MLOAD SWAP2 PUSH32 0x8BE0079C531659141344CD1FD0A4F28419497F9722A3DAAFE3B4186F6B6457E0 DUP2 DUP1 LOG3 PUSH2 0x44DB SWAP1 DUP2 PUSH3 0x365 DUP3 CODECOPY RETURN JUMPDEST ADD MLOAD SWAP1 POP CODESIZE DUP1 PUSH3 0x10C JUMP JUMPDEST SWAP1 PUSH1 0x1F NOT DUP4 AND SWAP7 DUP5 DUP8 MSTORE DUP3 DUP8 KECCAK256 SWAP3 DUP8 SWAP1 JUMPDEST DUP10 DUP3 LT PUSH3 0x1D4 JUMPI POP POP DUP4 DUP6 SWAP7 SWAP8 SWAP9 LT PUSH3 0x1BA JUMPI JUMPDEST POP POP POP DUP2 SHL ADD SWAP1 SSTORE PUSH3 0x120 JUMP JUMPDEST ADD MLOAD PUSH1 0x0 NOT PUSH1 0xF8 DUP5 PUSH1 0x3 SHL AND SHR NOT AND SWAP1 SSTORE CODESIZE DUP1 DUP1 PUSH3 0x1AC JUMP JUMPDEST DUP1 DUP8 DUP6 SWAP7 DUP3 SWAP5 SWAP7 DUP7 ADD MLOAD DUP2 SSTORE ADD SWAP6 ADD SWAP4 ADD SWAP1 PUSH3 0x196 JUMP JUMPDEST DUP5 DUP8 MSTORE DUP2 DUP8 KECCAK256 DUP4 DUP1 DUP7 ADD PUSH1 0x5 SHR DUP3 ADD SWAP3 DUP5 DUP8 LT PUSH3 0x22A JUMPI JUMPDEST ADD PUSH1 0x5 SHR ADD SWAP1 DUP6 SWAP1 JUMPDEST DUP3 DUP2 LT PUSH3 0x21E JUMPI POP POP PUSH3 0xF1 JUMP JUMPDEST DUP9 DUP2 SSTORE ADD DUP6 SWAP1 PUSH3 0x20E JUMP JUMPDEST SWAP3 POP DUP2 SWAP3 PUSH3 0x205 JUMP JUMPDEST PUSH4 0x4E487B71 PUSH1 0xE0 SHL DUP8 MSTORE PUSH1 0x22 PUSH1 0x4 MSTORE PUSH1 0x24 DUP8 REVERT JUMPDEST SWAP1 PUSH1 0x7F AND SWAP1 PUSH3 0xDF JUMP JUMPDEST PUSH4 0x4E487B71 PUSH1 0xE0 SHL DUP7 MSTORE PUSH1 0x41 PUSH1 0x4 MSTORE PUSH1 0x24 DUP7 REVERT JUMPDEST ADD MLOAD SWAP1 POP CODESIZE DUP1 PUSH3 0xB1 JUMP JUMPDEST DUP10 DUP1 MSTORE DUP5 DUP11 KECCAK256 DUP9 SWAP5 POP SWAP2 SWAP1 PUSH1 0x1F NOT DUP5 AND DUP12 JUMPDEST DUP8 DUP3 DUP3 LT PUSH3 0x2C0 JUMPI POP POP DUP5 GT PUSH3 0x2A6 JUMPI JUMPDEST POP POP POP DUP2 SHL ADD DUP7 SSTORE PUSH3 0xC5 JUMP JUMPDEST ADD MLOAD PUSH1 0x0 NOT PUSH1 0xF8 DUP5 PUSH1 0x3 SHL AND SHR NOT AND SWAP1 SSTORE CODESIZE DUP1 DUP1 PUSH3 0x298 JUMP JUMPDEST DUP4 DUP6 ADD MLOAD DUP7 SSTORE DUP12 SWAP8 SWAP1 SWAP6 ADD SWAP5 SWAP4 DUP5 ADD SWAP4 ADD PUSH3 0x285 JUMP JUMPDEST SWAP1 SWAP2 POP DUP9 DUP1 MSTORE DUP4 DUP10 KECCAK256 DUP6 DUP1 DUP6 ADD PUSH1 0x5 SHR DUP3 ADD SWAP3 DUP7 DUP7 LT PUSH3 0x320 JUMPI JUMPDEST SWAP2 DUP10 SWAP2 DUP7 SWAP6 SWAP5 SWAP4 ADD PUSH1 0x5 SHR ADD SWAP2 JUMPDEST DUP3 DUP2 LT PUSH3 0x311 JUMPI POP POP PUSH3 0x9B JUMP JUMPDEST DUP12 DUP2 SSTORE DUP6 SWAP5 POP DUP10 SWAP2 ADD PUSH3 0x301 JUMP JUMPDEST SWAP3 POP DUP2 SWAP3 PUSH3 0x2F3 JUMP JUMPDEST PUSH4 0x4E487B71 PUSH1 0xE0 SHL DUP9 MSTORE PUSH1 0x22 PUSH1 0x4 MSTORE PUSH1 0x24 DUP9 REVERT JUMPDEST SWAP4 PUSH1 0x7F AND SWAP4 PUSH3 0x84 JUMP JUMPDEST PUSH4 0x4E487B71 PUSH1 0xE0 SHL PUSH1 0x0 MSTORE PUSH1 0x41 PUSH1 0x4 MSTORE PUSH1 0x24 PUSH1 0x0 REVERT JUMPDEST PUSH1 0x0 DUP1 REVERT INVALID PUSH1 0x80 PUSH1 0x40 MSTORE PUSH1 0x4 CALLDATASIZE LT ISZERO PUSH2 0x12 JUMPI PUSH1 0x0 DUP1 REVERT JUMPDEST PUSH1 0x0 CALLDATALOAD PUSH1 0xE0 SHR DUP1 PUSH4 0x1BDC460 EQ PUSH2 0x4EE JUMPI DUP1 PUSH4 0x1FFC9A7 EQ PUSH2 0x4E9 JUMPI DUP1 PUSH4 0x3385770 EQ PUSH2 0x4E4 JUMPI DUP1 PUSH4 0x6FDDE03 EQ PUSH2 0x4DF JUMPI DUP1 PUSH4 0x7C90547 EQ PUSH2 0x4DA JUMPI DUP1 PUSH4 0x81812FC EQ PUSH2 0x4D5 JUMPI DUP1 PUSH4 0x95EA7B3 EQ PUSH2 0x4D0 JUMPI DUP1 PUSH4 0xAAC5DFD EQ PUSH2 0x3CC JUMPI DUP1 PUSH4 0xFD8AEE8 EQ PUSH2 0x4CB JUMPI DUP1 PUSH4 0x129F9008 EQ PUSH2 0x4C6 JUMPI DUP1 PUSH4 0x14FCDE03 EQ PUSH2 0x4C1 JUMPI DUP1 PUSH4 0x18160DDD EQ PUSH2 0x4BC JUMPI DUP1 PUSH4 0x23B872DD EQ PUSH2 0x4B7 JUMPI DUP1 PUSH4 0x2A0EE644 EQ PUSH2 0x4B2 JUMPI DUP1 PUSH4 0x2C5BDB1F EQ PUSH2 0x4AD JUMPI DUP1 PUSH4 0x2F745C59 EQ PUSH2 0x4A8 JUMPI DUP1 PUSH4 0x32A64370 EQ PUSH2 0x49E JUMPI DUP1 PUSH4 0x33A90C36 EQ PUSH2 0x4A3 JUMPI DUP1 PUSH4 0x34422A47 EQ PUSH2 0x49E JUMPI DUP1 PUSH4 0x34899521 EQ PUSH2 0x499 JUMPI DUP1 PUSH4 0x3ADC860E EQ PUSH2 0x46C JUMPI DUP1 PUSH4 0x3D3EB314 EQ PUSH2 0x494 JUMPI DUP1 PUSH4 0x3F4BA83A EQ PUSH2 0x48F JUMPI DUP1 PUSH4 0x3F9AA154 EQ PUSH2 0x48A JUMPI DUP1 PUSH4 0x42842E0E EQ PUSH2 0x485 JUMPI DUP1 PUSH4 0x42966C68 EQ PUSH2 0x480 JUMPI DUP1 PUSH4 0x430C2081 EQ PUSH2 0x47B JUMPI DUP1 PUSH4 0x4F558E79 EQ PUSH2 0x471 JUMPI DUP1 PUSH4 0x4F6CCCE7 EQ PUSH2 0x476 JUMPI DUP1 PUSH4 0x518E2BDD EQ PUSH2 0x471 JUMPI DUP1 PUSH4 0x5531AD6A EQ PUSH2 0x46C JUMPI DUP1 PUSH4 0x5C975ABB EQ PUSH2 0x467 JUMPI DUP1 PUSH4 0x5D0DEAD2 EQ PUSH2 0x462 JUMPI DUP1 PUSH4 0x6352211E EQ PUSH2 0x45D JUMPI DUP1 PUSH4 0x68AD1C79 EQ PUSH2 0x458 JUMPI DUP1 PUSH4 0x6DD501D7 EQ PUSH2 0x453 JUMPI DUP1 PUSH4 0x70A08231 EQ PUSH2 0x44E JUMPI DUP1 PUSH4 0x715018A6 EQ PUSH2 0x449 JUMPI DUP1 PUSH4 0x722713F7 EQ PUSH2 0x444 JUMPI DUP1 PUSH4 0x77394A73 EQ PUSH2 0x43F JUMPI DUP1 PUSH4 0x79F48424 EQ PUSH2 0x43A JUMPI DUP1 PUSH4 0x8456CB59 EQ PUSH2 0x435 JUMPI DUP1 PUSH4 0x84BBFFE7 EQ PUSH2 0x430 JUMPI DUP1 PUSH4 0x86887E1B EQ PUSH2 0x42B JUMPI DUP1 PUSH4 0x87A115E6 EQ PUSH2 0x426 JUMPI DUP1 PUSH4 0x8DA5CB5B EQ PUSH2 0x421 JUMPI DUP1 PUSH4 0x8DDAC1EF EQ PUSH2 0x41C JUMPI DUP1 PUSH4 0x95D89B41 EQ PUSH2 0x417 JUMPI DUP1 PUSH4 0xA22CB465 EQ PUSH2 0x412 JUMPI DUP1 PUSH4 0xA2311D5F EQ PUSH2 0x40D JUMPI DUP1 PUSH4 0xA9059CBB EQ PUSH2 0x408 JUMPI DUP1 PUSH4 0xADC649E1 EQ PUSH2 0x403 JUMPI DUP1 PUSH4 0xAE7D9553 EQ PUSH2 0x3FE JUMPI DUP1 PUSH4 0xAE908698 EQ PUSH2 0x3EA JUMPI DUP1 PUSH4 0xB5FF2582 EQ PUSH2 0x3F9 JUMPI DUP1 PUSH4 0xB6160915 EQ PUSH2 0x3F4 JUMPI DUP1 PUSH4 0xB88D4FDE EQ PUSH2 0x3EF JUMPI DUP1 PUSH4 0xBB7E385A EQ PUSH2 0x3EA JUMPI DUP1 PUSH4 0xBBE30722 EQ PUSH2 0x3E5 JUMPI DUP1 PUSH4 0xC0ADB910 EQ PUSH2 0x3E0 JUMPI DUP1 PUSH4 0xC619C4A2 EQ PUSH2 0x3DB JUMPI DUP1 PUSH4 0xC87B56DD EQ PUSH2 0x3D6 JUMPI DUP1 PUSH4 0xCBEABA77 EQ PUSH2 0x3D1 JUMPI DUP1 PUSH4 0xCD9DF190 EQ PUSH2 0x3CC JUMPI DUP1 PUSH4 0xD166E4EE EQ PUSH2 0x3C7 JUMPI DUP1 PUSH4 0xD3FC9864 EQ PUSH2 0x3C2 JUMPI DUP1 PUSH4 0xD86DA278 EQ PUSH2 0x3BD JUMPI DUP1 PUSH4 0xDAA5FE2D EQ PUSH2 0x3B8 JUMPI DUP1 PUSH4 0xDC289F48 EQ PUSH2 0x3B3 JUMPI DUP1 PUSH4 0xE14CA948 EQ PUSH2 0x3AE JUMPI DUP1 PUSH4 0xE985E9C5 EQ PUSH2 0x3A9 JUMPI DUP1 PUSH4 0xE9E7854C EQ PUSH2 0x3A4 JUMPI DUP1 PUSH4 0xEAC8F5B8 EQ PUSH2 0x39F JUMPI DUP1 PUSH4 0xEBCAB605 EQ PUSH2 0x39A JUMPI DUP1 PUSH4 0xF2FDE38B EQ PUSH2 0x395 JUMPI DUP1 PUSH4 0xF35B25A8 EQ PUSH2 0x390 JUMPI DUP1 PUSH4 0xF3AB880E EQ PUSH2 0x38B JUMPI DUP1 PUSH4 0xFBDC985A EQ PUSH2 0x386 JUMPI PUSH4 0xFD27FF81 EQ PUSH2 0x381 JUMPI PUSH1 0x0 DUP1 REVERT JUMPDEST PUSH2 0x2E71 JUMP JUMPDEST PUSH2 0x2E40 JUMP JUMPDEST PUSH2 0x2DC8 JUMP JUMPDEST PUSH2 0x2D77 JUMP JUMPDEST PUSH2 0x2CA6 JUMP JUMPDEST PUSH2 0x2B1A JUMP JUMPDEST PUSH2 0x2A5A JUMP JUMPDEST PUSH2 0x27F4 JUMP JUMPDEST PUSH2 0x27A3 JUMP JUMPDEST PUSH2 0x26AB JUMP JUMPDEST PUSH2 0x24E8 JUMP JUMPDEST PUSH2 0x21DC JUMP JUMPDEST PUSH2 0x21AB JUMP JUMPDEST PUSH2 0x2088 JUMP JUMPDEST PUSH2 0x2043 JUMP JUMPDEST PUSH2 0x9E1 JUMP JUMPDEST PUSH2 0x2007 JUMP JUMPDEST PUSH2 0x1FD4 JUMP JUMPDEST PUSH2 0x1F82 JUMP JUMPDEST PUSH2 0x1F56 JUMP JUMPDEST PUSH2 0x1F05 JUMP JUMPDEST PUSH2 0x1DE9 JUMP JUMPDEST PUSH2 0x1EA6 JUMP JUMPDEST PUSH2 0x1E75 JUMP JUMPDEST PUSH2 0x1E1B JUMP JUMPDEST PUSH2 0x1D9F JUMP JUMPDEST PUSH2 0x1D55 JUMP JUMPDEST PUSH2 0x1D24 JUMP JUMPDEST PUSH2 0x1CA0 JUMP JUMPDEST PUSH2 0x1BDA JUMP JUMPDEST PUSH2 0x1B46 JUMP JUMPDEST PUSH2 0x1B0B JUMP JUMPDEST PUSH2 0x1ADE JUMP JUMPDEST PUSH2 0x1A4D JUMP JUMPDEST PUSH2 0x1A0E JUMP JUMPDEST PUSH2 0x19BD JUMP JUMPDEST PUSH2 0x194D JUMP JUMPDEST PUSH2 0x184F JUMP JUMPDEST PUSH2 0x1815 JUMP JUMPDEST PUSH2 0x1795 JUMP JUMPDEST PUSH2 0x1743 JUMP JUMPDEST PUSH2 0x1718 JUMP JUMPDEST PUSH2 0x16E7 JUMP JUMPDEST PUSH2 0x1691 JUMP JUMPDEST PUSH2 0x163E JUMP JUMPDEST PUSH2 0x1614 JUMP JUMPDEST PUSH2 0x15F1 JUMP JUMPDEST PUSH2 0xFF4 JUMP JUMPDEST PUSH2 0x1527 JUMP JUMPDEST PUSH2 0x1558 JUMP JUMPDEST PUSH2 0x14AB JUMP JUMPDEST PUSH2 0x12A2 JUMP JUMPDEST PUSH2 0x127A JUMP JUMPDEST PUSH2 0x11A4 JUMP JUMPDEST PUSH2 0x1079 JUMP JUMPDEST PUSH2 0x101F JUMP JUMPDEST PUSH2 0xFC0 JUMP JUMPDEST PUSH2 0xF10 JUMP JUMPDEST PUSH2 0xF6F JUMP JUMPDEST PUSH2 0xE5D JUMP JUMPDEST PUSH2 0xE3C JUMP JUMPDEST PUSH2 0xE08 JUMP JUMPDEST PUSH2 0xDDD JUMP JUMPDEST PUSH2 0xD8A JUMP JUMPDEST PUSH2 0xD62 JUMP JUMPDEST PUSH2 0xCA2 JUMP JUMPDEST PUSH2 0x9FF JUMP JUMPDEST PUSH2 0x8DF JUMP JUMPDEST PUSH2 0x859 JUMP JUMPDEST PUSH2 0x7DA JUMP JUMPDEST PUSH2 0x6DC JUMP JUMPDEST PUSH2 0x64F JUMP JUMPDEST PUSH2 0x5C7 JUMP JUMPDEST PUSH2 0x53B JUMP JUMPDEST SWAP1 DUP2 MLOAD DUP1 DUP3 MSTORE PUSH1 0x20 DUP1 DUP1 SWAP4 ADD SWAP4 ADD SWAP2 PUSH1 0x0 JUMPDEST DUP3 DUP2 LT PUSH2 0x513 JUMPI POP POP POP POP SWAP1 JUMP JUMPDEST DUP4 MLOAD DUP6 MSTORE SWAP4 DUP2 ADD SWAP4 SWAP3 DUP2 ADD SWAP3 PUSH1 0x1 ADD PUSH2 0x505 JUMP JUMPDEST SWAP1 PUSH1 0x20 PUSH2 0x538 SWAP3 DUP2 DUP2 MSTORE ADD SWAP1 PUSH2 0x4F3 JUMP JUMPDEST SWAP1 JUMP JUMPDEST CALLVALUE PUSH2 0x5B0 JUMPI PUSH1 0x0 DUP1 PUSH1 0x3 NOT CALLDATASIZE ADD SLT PUSH2 0x5AD JUMPI PUSH1 0x40 MLOAD DUP1 SWAP2 DUP3 PUSH1 0x14 SLOAD DUP1 DUP5 MSTORE PUSH1 0x20 DUP1 SWAP5 ADD SWAP1 PUSH1 0x14 DUP5 MSTORE DUP5 DUP5 KECCAK256 SWAP4 JUMPDEST DUP6 DUP3 DUP3 LT PUSH2 0x597 JUMPI POP POP POP PUSH2 0x57F SWAP3 POP SUB DUP4 PUSH2 0xB00 JUMP JUMPDEST PUSH2 0x593 PUSH1 0x40 MLOAD SWAP3 DUP3 DUP5 SWAP4 DUP5 MSTORE DUP4 ADD SWAP1 PUSH2 0x4F3 JUMP JUMPDEST SUB SWAP1 RETURN JUMPDEST DUP6 SLOAD DUP5 MSTORE PUSH1 0x1 SWAP6 DUP7 ADD SWAP6 DUP9 SWAP6 POP SWAP4 ADD SWAP3 ADD PUSH2 0x568 JUMP JUMPDEST DUP1 REVERT JUMPDEST PUSH1 0x0 DUP1 REVERT JUMPDEST PUSH1 0x1 PUSH1 0x1 PUSH1 0xE0 SHL SUB NOT DUP2 AND SUB PUSH2 0x5B0 JUMPI JUMP JUMPDEST CALLVALUE PUSH2 0x5B0 JUMPI PUSH1 0x20 CALLDATASIZE PUSH1 0x3 NOT ADD SLT PUSH2 0x5B0 JUMPI PUSH1 0x20 PUSH1 0x4 CALLDATALOAD PUSH2 0x5E6 DUP2 PUSH2 0x5B5 JUMP JUMPDEST PUSH4 0xFFFFFFFF PUSH1 0xE0 SHL AND PUSH4 0x780E9D63 PUSH1 0xE0 SHL DUP2 EQ SWAP1 DUP2 ISZERO PUSH2 0x60C JUMPI JUMPDEST POP PUSH1 0x40 MLOAD SWAP1 ISZERO ISZERO DUP2 MSTORE RETURN JUMPDEST PUSH4 0x80AC58CD PUSH1 0xE0 SHL DUP2 EQ SWAP2 POP DUP2 ISZERO PUSH2 0x63E JUMPI JUMPDEST DUP2 ISZERO PUSH2 0x62D JUMPI JUMPDEST POP CODESIZE PUSH2 0x601 JUMP JUMPDEST PUSH4 0x1FFC9A7 PUSH1 0xE0 SHL EQ SWAP1 POP CODESIZE PUSH2 0x626 JUMP JUMPDEST PUSH4 0x5B5E139F PUSH1 0xE0 SHL DUP2 EQ SWAP2 POP PUSH2 0x61F JUMP JUMPDEST CALLVALUE PUSH2 0x5B0 JUMPI PUSH1 0x20 CALLDATASIZE PUSH1 0x3 NOT ADD SLT PUSH2 0x5B0 JUMPI PUSH1 0x4 CALLDATALOAD PUSH1 0x0 MSTORE PUSH1 0x10 PUSH1 0x20 MSTORE PUSH1 0x20 PUSH1 0x1 DUP1 PUSH1 0xA0 SHL SUB PUSH1 0x40 PUSH1 0x0 KECCAK256 SLOAD AND PUSH1 0x40 MLOAD SWAP1 DUP2 MSTORE RETURN JUMPDEST PUSH1 0x0 JUMPDEST DUP4 DUP2 LT PUSH2 0x696 JUMPI POP POP PUSH1 0x0 SWAP2 ADD MSTORE JUMP JUMPDEST DUP2 DUP2 ADD MLOAD DUP4 DUP3 ADD MSTORE PUSH1 0x20 ADD PUSH2 0x686 JUMP JUMPDEST SWAP1 PUSH1 0x20 SWAP2 PUSH2 0x6BF DUP2 MLOAD DUP1 SWAP3 DUP2 DUP6 MSTORE DUP6 DUP1 DUP7 ADD SWAP2 ADD PUSH2 0x683 JUMP JUMPDEST PUSH1 0x1F ADD PUSH1 0x1F NOT AND ADD ADD SWAP1 JUMP JUMPDEST SWAP1 PUSH1 0x20 PUSH2 0x538 SWAP3 DUP2 DUP2 MSTORE ADD SWAP1 PUSH2 0x6A6 JUMP JUMPDEST CALLVALUE PUSH2 0x5B0 JUMPI PUSH1 0x0 DUP1 PUSH1 0x3 NOT CALLDATASIZE ADD SLT PUSH2 0x5AD JUMPI PUSH1 0x40 MLOAD DUP2 DUP1 SLOAD PUSH2 0x6FD DUP2 PUSH2 0xA59 JUMP JUMPDEST DUP1 DUP5 MSTORE SWAP1 PUSH1 0x1 SWAP1 DUP2 DUP2 AND SWAP1 DUP2 ISZERO PUSH2 0x76E JUMPI POP PUSH1 0x1 EQ PUSH2 0x733 JUMPI JUMPDEST PUSH2 0x593 DUP5 PUSH2 0x727 DUP2 DUP9 SUB DUP3 PUSH2 0xB00 JUMP JUMPDEST PUSH1 0x40 MLOAD SWAP2 DUP3 SWAP2 DUP3 PUSH2 0x6CB JUMP JUMPDEST SWAP4 POP DUP2 DUP1 MSTORE PUSH1 0x20 SWAP4 DUP5 DUP4 KECCAK256 JUMPDEST DUP3 DUP5 LT PUSH2 0x75B JUMPI POP POP POP DUP2 PUSH2 0x593 SWAP4 PUSH2 0x727 SWAP3 DUP3 ADD ADD SWAP4 PUSH2 0x717 JUMP JUMPDEST DUP1 SLOAD DUP6 DUP6 ADD DUP8 ADD MSTORE SWAP3 DUP6 ADD SWAP3 DUP2 ADD PUSH2 0x73F JUMP JUMPDEST PUSH2 0x593 SWAP7 POP PUSH2 0x727 SWAP5 POP PUSH1 0x20 SWAP3 POP DUP6 SWAP4 SWAP2 POP PUSH1 0xFF NOT AND DUP3 DUP5 ADD MSTORE ISZERO ISZERO PUSH1 0x5 SHL DUP3 ADD ADD SWAP4 PUSH2 0x717 JUMP JUMPDEST PUSH1 0x20 SWAP1 DUP2 PUSH1 0x40 DUP2 DUP4 ADD SWAP3 DUP3 DUP2 MSTORE DUP6 MLOAD DUP1 SWAP5 MSTORE ADD SWAP4 ADD SWAP2 PUSH1 0x0 JUMPDEST DUP3 DUP2 LT PUSH2 0x7BD JUMPI POP POP POP POP SWAP1 JUMP JUMPDEST DUP4 MLOAD PUSH1 0x1 PUSH1 0x1 PUSH1 0xA0 SHL SUB AND DUP6 MSTORE SWAP4 DUP2 ADD SWAP4 SWAP3 DUP2 ADD SWAP3 PUSH1 0x1 ADD PUSH2 0x7AF JUMP JUMPDEST CALLVALUE PUSH2 0x5B0 JUMPI PUSH1 0x20 DUP1 PUSH1 0x3 NOT CALLDATASIZE ADD SLT PUSH2 0x5B0 JUMPI PUSH1 0x4 CALLDATALOAD PUSH1 0x0 MSTORE PUSH1 0x1A DUP2 MSTORE PUSH1 0x40 PUSH1 0x0 KECCAK256 SWAP1 PUSH1 0x40 MLOAD SWAP1 DUP2 DUP2 DUP5 SLOAD SWAP2 DUP3 DUP2 MSTORE ADD SWAP4 PUSH1 0x0 MSTORE DUP2 PUSH1 0x0 KECCAK256 SWAP2 PUSH1 0x0 SWAP1 JUMPDEST DUP3 DUP3 LT PUSH2 0x839 JUMPI PUSH2 0x593 DUP6 PUSH2 0x82D DUP2 DUP10 SUB DUP3 PUSH2 0xB00 JUMP JUMPDEST PUSH1 0x40 MLOAD SWAP2 DUP3 SWAP2 DUP3 PUSH2 0x796 JUMP JUMPDEST DUP4 SLOAD PUSH1 0x1 PUSH1 0x1 PUSH1 0xA0 SHL SUB AND DUP7 MSTORE SWAP5 DUP6 ADD SWAP5 PUSH1 0x1 SWAP4 DUP5 ADD SWAP4 SWAP1 SWAP2 ADD SWAP1 PUSH2 0x816 JUMP JUMPDEST CALLVALUE PUSH2 0x5B0 JUMPI PUSH1 0x20 CALLDATASIZE PUSH1 0x3 NOT ADD SLT PUSH2 0x5B0 JUMPI PUSH1 0x20 PUSH2 0x877 PUSH1 0x4 CALLDATALOAD PUSH2 0x3BDE JUMP JUMPDEST PUSH1 0x40 MLOAD PUSH1 0x1 PUSH1 0x1 PUSH1 0xA0 SHL SUB SWAP1 SWAP2 AND DUP2 MSTORE RETURN JUMPDEST PUSH1 0x4 CALLDATALOAD SWAP1 PUSH1 0x1 PUSH1 0x1 PUSH1 0xA0 SHL SUB DUP3 AND DUP3 SUB PUSH2 0x5B0 JUMPI JUMP JUMPDEST PUSH1 0x24 CALLDATALOAD SWAP1 PUSH1 0x1 PUSH1 0x1 PUSH1 0xA0 SHL SUB DUP3 AND DUP3 SUB PUSH2 0x5B0 JUMPI JUMP JUMPDEST PUSH1 0x44 CALLDATALOAD SWAP1 PUSH1 0x1 PUSH1 0x1 PUSH1 0xA0 SHL SUB DUP3 AND DUP3 SUB PUSH2 0x5B0 JUMPI JUMP JUMPDEST CALLDATALOAD SWAP1 PUSH1 0x1 PUSH1 0x1 PUSH1 0xA0 SHL SUB DUP3 AND DUP3 SUB PUSH2 0x5B0 JUMPI JUMP JUMPDEST CALLVALUE PUSH2 0x5B0 JUMPI PUSH1 0x40 CALLDATASIZE PUSH1 0x3 NOT ADD SLT PUSH2 0x5B0 JUMPI PUSH2 0x8F8 PUSH2 0x889 JUMP JUMPDEST PUSH1 0x24 CALLDATALOAD SWAP1 PUSH1 0x1 PUSH1 0x1 PUSH1 0xA0 SHL SUB DUP1 PUSH2 0x90E DUP5 PUSH2 0x3B88 JUMP JUMPDEST AND SWAP1 DUP3 AND SWAP2 DUP2 DUP4 EQ PUSH2 0x9A5 JUMPI DUP2 CALLER SUB PUSH2 0x96D JUMPI PUSH2 0x958 SWAP1 PUSH2 0x939 DUP6 PUSH1 0x0 MSTORE PUSH1 0x10 PUSH1 0x20 MSTORE PUSH1 0x40 PUSH1 0x0 KECCAK256 SWAP1 JUMP JUMPDEST DUP1 SLOAD PUSH1 0x1 PUSH1 0x1 PUSH1 0xA0 SHL SUB NOT AND PUSH1 0x1 PUSH1 0x1 PUSH1 0xA0 SHL SUB SWAP1 SWAP3 AND SWAP2 SWAP1 SWAP2 OR SWAP1 SSTORE JUMP JUMPDEST PUSH1 0x0 DUP1 MLOAD PUSH1 0x20 PUSH2 0x4486 DUP4 CODECOPY DUP2 MLOAD SWAP2 MSTORE PUSH1 0x0 DUP1 LOG4 STOP JUMPDEST PUSH1 0x40 MLOAD PUSH3 0x461BCD PUSH1 0xE5 SHL DUP2 MSTORE PUSH1 0x20 PUSH1 0x4 DUP3 ADD MSTORE PUSH1 0x10 PUSH1 0x24 DUP3 ADD MSTORE PUSH16 0x2737BA2A3432A0B9B9B2BA27BBB732B9 PUSH1 0x81 SHL PUSH1 0x44 DUP3 ADD MSTORE PUSH1 0x64 SWAP1 REVERT JUMPDEST PUSH1 0x40 MLOAD PUSH3 0x461BCD PUSH1 0xE5 SHL DUP2 MSTORE PUSH1 0x20 PUSH1 0x4 DUP3 ADD MSTORE PUSH1 0x14 PUSH1 0x24 DUP3 ADD MSTORE PUSH20 0x10DD5C9C995B9D13DDDB995C905C1C1C9BDD985B PUSH1 0x62 SHL PUSH1 0x44 DUP3 ADD MSTORE PUSH1 0x64 SWAP1 REVERT JUMPDEST CALLVALUE PUSH2 0x5B0 JUMPI PUSH1 0x0 CALLDATASIZE PUSH1 0x3 NOT ADD SLT PUSH2 0x5B0 JUMPI PUSH1 0x20 PUSH1 0xC SLOAD PUSH1 0x40 MLOAD SWAP1 DUP2 MSTORE RETURN JUMPDEST CALLVALUE PUSH2 0x5B0 JUMPI PUSH1 0x0 DUP1 PUSH1 0x3 NOT CALLDATASIZE ADD SLT PUSH2 0x5AD JUMPI PUSH1 0x40 MLOAD DUP1 SWAP2 DUP3 PUSH1 0x13 SLOAD DUP1 DUP5 MSTORE PUSH1 0x20 DUP1 SWAP5 ADD SWAP1 PUSH1 0x13 DUP5 MSTORE DUP5 DUP5 KECCAK256 SWAP4 JUMPDEST DUP6 DUP3 DUP3 LT PUSH2 0xA43 JUMPI POP POP POP PUSH2 0x57F SWAP3 POP SUB DUP4 PUSH2 0xB00 JUMP JUMPDEST DUP6 SLOAD DUP5 MSTORE PUSH1 0x1 SWAP6 DUP7 ADD SWAP6 DUP9 SWAP6 POP SWAP4 ADD SWAP3 ADD PUSH2 0xA2C JUMP JUMPDEST SWAP1 PUSH1 0x1 DUP3 DUP2 SHR SWAP3 AND DUP1 ISZERO PUSH2 0xA89 JUMPI JUMPDEST PUSH1 0x20 DUP4 LT EQ PUSH2 0xA73 JUMPI JUMP JUMPDEST PUSH4 0x4E487B71 PUSH1 0xE0 SHL PUSH1 0x0 MSTORE PUSH1 0x22 PUSH1 0x4 MSTORE PUSH1 0x24 PUSH1 0x0 REVERT JUMPDEST SWAP2 PUSH1 0x7F AND SWAP2 PUSH2 0xA68 JUMP JUMPDEST PUSH4 0x4E487B71 PUSH1 0xE0 SHL PUSH1 0x0 MSTORE PUSH1 0x41 PUSH1 0x4 MSTORE PUSH1 0x24 PUSH1 0x0 REVERT JUMPDEST PUSH2 0x1A0 DUP2 ADD SWAP1 DUP2 LT PUSH1 0x1 PUSH1 0x1 PUSH1 0x40 SHL SUB DUP3 GT OR PUSH2 0xAC5 JUMPI PUSH1 0x40 MSTORE JUMP JUMPDEST PUSH2 0xA93 JUMP JUMPDEST PUSH1 0xC0 DUP2 ADD SWAP1 DUP2 LT PUSH1 0x1 PUSH1 0x1 PUSH1 0x40 SHL SUB DUP3 GT OR PUSH2 0xAC5 JUMPI PUSH1 0x40 MSTORE JUMP JUMPDEST PUSH1 0x20 DUP2 ADD SWAP1 DUP2 LT PUSH1 0x1 PUSH1 0x1 PUSH1 0x40 SHL SUB DUP3 GT OR PUSH2 0xAC5 JUMPI PUSH1 0x40 MSTORE JUMP JUMPDEST PUSH1 0x1F SWAP1 SWAP2 ADD PUSH1 0x1F NOT AND DUP2 ADD SWAP1 PUSH1 0x1 PUSH1 0x1 PUSH1 0x40 SHL SUB DUP3 GT SWAP1 DUP3 LT OR PUSH2 0xAC5 JUMPI PUSH1 0x40 MSTORE JUMP JUMPDEST SWAP1 PUSH1 0x40 MLOAD SWAP2 DUP3 PUSH1 0x0 DUP3 SLOAD SWAP3 PUSH2 0xB37 DUP5 PUSH2 0xA59 JUMP JUMPDEST SWAP1 DUP2 DUP5 MSTORE PUSH1 0x1 SWAP5 DUP6 DUP2 AND SWAP1 DUP2 PUSH1 0x0 EQ PUSH2 0xBA6 JUMPI POP PUSH1 0x1 EQ PUSH2 0xB63 JUMPI JUMPDEST POP POP PUSH2 0xB61 SWAP3 POP SUB DUP4 PUSH2 0xB00 JUMP JUMPDEST JUMP JUMPDEST SWAP1 SWAP4 SWAP2 POP PUSH1 0x0 MSTORE PUSH1 0x20 SWAP1 DUP2 PUSH1 0x0 KECCAK256 SWAP4 PUSH1 0x0 SWAP2 JUMPDEST DUP2 DUP4 LT PUSH2 0xB8E JUMPI POP POP PUSH2 0xB61 SWAP4 POP DUP3 ADD ADD CODESIZE DUP1 PUSH2 0xB53 JUMP JUMPDEST DUP6 SLOAD DUP9 DUP5 ADD DUP6 ADD MSTORE SWAP5 DUP6 ADD SWAP5 DUP8 SWAP5 POP SWAP2 DUP4 ADD SWAP2 PUSH2 0xB76 JUMP JUMPDEST SWAP2 POP POP PUSH2 0xB61 SWAP5 POP PUSH1 0x20 SWAP3 POP PUSH1 0xFF NOT AND DUP3 DUP5 ADD MSTORE ISZERO ISZERO PUSH1 0x5 SHL DUP3 ADD ADD CODESIZE DUP1 PUSH2 0xB53 JUMP JUMPDEST PUSH4 0x4E487B71 PUSH1 0xE0 SHL PUSH1 0x0 MSTORE PUSH1 0x21 PUSH1 0x4 MSTORE PUSH1 0x24 PUSH1 0x0 REVERT JUMPDEST PUSH1 0x4 GT ISZERO PUSH2 0xBE9 JUMPI JUMP JUMPDEST PUSH2 0xBC9 JUMP JUMPDEST SWAP1 PUSH1 0x4 DUP3 LT ISZERO PUSH2 0xBE9 JUMPI MSTORE JUMP JUMPDEST PUSH1 0x5 GT ISZERO PUSH2 0xBE9 JUMPI JUMP JUMPDEST SWAP1 PUSH1 0x5 DUP3 LT ISZERO PUSH2 0xBE9 JUMPI MSTORE JUMP JUMPDEST SWAP12 SWAP11 SWAP9 SWAP4 DUP13 PUSH2 0xB61 SWAP12 SWAP7 PUSH2 0xC5A PUSH2 0xC68 SWAP4 PUSH2 0xC4C PUSH2 0xC7D SWAP9 PUSH2 0x140 SWAP15 SWAP9 PUSH2 0xC9A SWAP15 SWAP9 DUP8 MSTORE PUSH1 0x20 DUP8 ADD MSTORE PUSH2 0x160 DUP1 PUSH1 0x40 DUP9 ADD MSTORE DUP7 ADD SWAP1 PUSH2 0x6A6 JUMP JUMPDEST SWAP1 DUP5 DUP3 SUB PUSH1 0x60 DUP7 ADD MSTORE PUSH2 0x6A6 JUMP JUMPDEST SWAP2 PUSH1 0x80 DUP2 DUP5 SUB SWAP2 ADD MSTORE PUSH2 0x6A6 JUMP JUMPDEST SWAP6 PUSH1 0xA0 DUP14 ADD MSTORE PUSH1 0xC0 DUP13 ADD MSTORE PUSH1 0xE0 DUP12 ADD SWAP1 PUSH2 0xBEE JUMP JUMPDEST PUSH1 0x1 PUSH1 0x1 PUSH1 0xA0 SHL SUB AND PUSH2 0x100 DUP10 ADD MSTORE DUP8 DUP3 SUB PUSH2 0x120 DUP10 ADD MSTORE PUSH2 0x6A6 JUMP JUMPDEST SWAP5 ADD SWAP1 PUSH2 0xC05 JUMP JUMPDEST CALLVALUE PUSH2 0x5B0 JUMPI PUSH1 0x20 CALLDATASIZE PUSH1 0x3 NOT ADD SLT PUSH2 0x5B0 JUMPI PUSH1 0x4 CALLDATALOAD PUSH1 0x0 MSTORE PUSH1 0xD PUSH1 0x20 MSTORE PUSH1 0x40 PUSH1 0x0 KECCAK256 DUP1 SLOAD PUSH2 0x593 PUSH1 0x1 DUP4 ADD SLOAD SWAP2 PUSH2 0xCDA PUSH1 0x2 DUP6 ADD PUSH2 0xB23 JUMP JUMPDEST SWAP4 PUSH2 0xCE7 PUSH1 0x3 DUP3 ADD PUSH2 0xB23 JUMP JUMPDEST SWAP2 PUSH2 0xCF4 PUSH1 0x4 DUP4 ADD PUSH2 0xB23 JUMP JUMPDEST SWAP1 PUSH1 0x5 DUP4 ADD SLOAD PUSH1 0x6 DUP5 ADD SLOAD SWAP1 PUSH1 0x8 DUP6 ADD SLOAD SWAP4 PUSH1 0xFF PUSH1 0xB PUSH2 0xD16 PUSH1 0x9 DUP10 ADD PUSH2 0xB23 JUMP JUMPDEST SWAP8 ADD SLOAD AND SWAP7 PUSH1 0x40 MLOAD SWAP11 DUP12 SWAP11 PUSH1 0xFF PUSH1 0x1 DUP1 PUSH1 0xA0 SHL SUB DUP10 PUSH1 0x8 SHR AND SWAP9 AND SWAP7 DUP13 PUSH2 0xC12 JUMP JUMPDEST PUSH1 0x60 SWAP1 PUSH1 0x3 NOT ADD SLT PUSH2 0x5B0 JUMPI PUSH1 0x4 CALLDATALOAD SWAP1 PUSH1 0x24 CALLDATALOAD PUSH1 0x1 PUSH1 0x1 PUSH1 0xA0 SHL SUB DUP2 AND DUP2 SUB PUSH2 0x5B0 JUMPI SWAP1 PUSH1 0x44 CALLDATALOAD SWAP1 JUMP JUMPDEST CALLVALUE PUSH2 0x5B0 JUMPI PUSH2 0xD87 PUSH2 0xD73 CALLDATASIZE PUSH2 0xD38 JUMP JUMPDEST SWAP3 SWAP2 PUSH1 0x0 MSTORE PUSH1 0x1E PUSH1 0x20 MSTORE PUSH1 0x40 PUSH1 0x0 KECCAK256 PUSH2 0x17FE JUMP JUMPDEST SSTORE STOP JUMPDEST CALLVALUE PUSH2 0x5B0 JUMPI PUSH1 0x0 CALLDATASIZE PUSH1 0x3 NOT ADD SLT PUSH2 0x5B0 JUMPI PUSH1 0x20 PUSH1 0x8 SLOAD PUSH1 0x40 MLOAD SWAP1 DUP2 MSTORE RETURN JUMPDEST PUSH1 0x60 SWAP1 PUSH1 0x3 NOT ADD SLT PUSH2 0x5B0 JUMPI PUSH1 0x1 PUSH1 0x1 PUSH1 0xA0 SHL SUB SWAP1 PUSH1 0x4 CALLDATALOAD DUP3 DUP2 AND DUP2 SUB PUSH2 0x5B0 JUMPI SWAP2 PUSH1 0x24 CALLDATALOAD SWAP1 DUP2 AND DUP2 SUB PUSH2 0x5B0 JUMPI SWAP1 PUSH1 0x44 CALLDATALOAD SWAP1 JUMP JUMPDEST CALLVALUE PUSH2 0x5B0 JUMPI PUSH2 0xE06 PUSH2 0xDEE CALLDATASIZE PUSH2 0xDA8 JUMP JUMPDEST SWAP2 PUSH2 0xE01 PUSH2 0xDFC DUP5 CALLER PUSH2 0x311A JUMP JUMPDEST PUSH2 0x2FA2 JUMP JUMPDEST PUSH2 0x32CF JUMP JUMPDEST STOP JUMPDEST CALLVALUE PUSH2 0x5B0 JUMPI PUSH1 0x20 CALLDATASIZE PUSH1 0x3 NOT ADD SLT PUSH2 0x5B0 JUMPI PUSH1 0x4 CALLDATALOAD PUSH1 0x0 MSTORE PUSH1 0x11 PUSH1 0x20 MSTORE PUSH1 0x20 PUSH1 0x1 DUP1 PUSH1 0xA0 SHL SUB PUSH1 0x40 PUSH1 0x0 KECCAK256 SLOAD AND PUSH1 0x40 MLOAD SWAP1 DUP2 MSTORE RETURN JUMPDEST CALLVALUE PUSH2 0x5B0 JUMPI PUSH1 0x0 CALLDATASIZE PUSH1 0x3 NOT ADD SLT PUSH2 0x5B0 JUMPI PUSH2 0xE58 PUSH1 0xC SLOAD PUSH2 0x3A91 JUMP JUMPDEST PUSH1 0xC SSTORE STOP JUMPDEST CALLVALUE PUSH2 0x5B0 JUMPI PUSH1 0x40 CALLDATASIZE PUSH1 0x3 NOT ADD SLT PUSH2 0x5B0 JUMPI PUSH2 0xE76 PUSH2 0x889 JUMP JUMPDEST PUSH1 0x24 CALLDATALOAD SWAP1 PUSH2 0xE83 DUP2 PUSH2 0x2F6C JUMP JUMPDEST DUP3 LT ISZERO PUSH2 0xEB7 JUMPI PUSH1 0x1 PUSH1 0x1 PUSH1 0xA0 SHL SUB AND PUSH1 0x0 SWAP1 DUP2 MSTORE PUSH1 0x6 PUSH1 0x20 SWAP1 DUP2 MSTORE PUSH1 0x40 DUP1 DUP4 KECCAK256 SWAP4 DUP4 MSTORE SWAP3 DUP2 MSTORE SWAP1 DUP3 SWAP1 KECCAK256 SLOAD SWAP2 MLOAD SWAP2 DUP3 MSTORE SWAP1 RETURN JUMPDEST PUSH1 0x40 MLOAD PUSH3 0x461BCD PUSH1 0xE5 SHL DUP2 MSTORE PUSH1 0x20 PUSH1 0x4 DUP3 ADD MSTORE PUSH1 0x2B PUSH1 0x24 DUP3 ADD MSTORE PUSH32 0x455243373231456E756D657261626C653A206F776E657220696E646578206F75 PUSH1 0x44 DUP3 ADD MSTORE PUSH11 0x74206F6620626F756E6473 PUSH1 0xA8 SHL PUSH1 0x64 DUP3 ADD MSTORE PUSH1 0x84 SWAP1 REVERT JUMPDEST CALLVALUE PUSH2 0x5B0 JUMPI PUSH1 0x20 CALLDATASIZE PUSH1 0x3 NOT ADD SLT PUSH2 0x5B0 JUMPI PUSH1 0x4 CALLDATALOAD PUSH1 0x0 MSTORE PUSH1 0x21 PUSH1 0x20 MSTORE PUSH1 0x20 PUSH1 0x40 PUSH1 0x0 KECCAK256 SLOAD PUSH1 0x40 MLOAD SWAP1 DUP2 MSTORE RETURN JUMPDEST PUSH4 0x4E487B71 PUSH1 0xE0 SHL PUSH1 0x0 MSTORE PUSH1 0x32 PUSH1 0x4 MSTORE PUSH1 0x24 PUSH1 0x0 REVERT JUMPDEST DUP1 SLOAD DUP3 LT ISZERO PUSH2 0xF6A JUMPI PUSH1 0x0 MSTORE PUSH1 0x20 PUSH1 0x0 KECCAK256 ADD SWAP1 PUSH1 0x0 SWAP1 JUMP JUMPDEST PUSH2 0xF3C JUMP JUMPDEST CALLVALUE PUSH2 0x5B0 JUMPI PUSH1 0x20 CALLDATASIZE PUSH1 0x3 NOT ADD SLT PUSH2 0x5B0 JUMPI PUSH1 0x4 CALLDATALOAD PUSH1 0x16 SLOAD DUP2 LT ISZERO PUSH2 0x5B0 JUMPI PUSH1 0x16 PUSH1 0x0 MSTORE PUSH32 0xD833147D7DC355BA459FC788F669E58CFAF9DC25DDCD0702E87D69C7B5124289 ADD SLOAD PUSH1 0x40 MLOAD SWAP1 DUP2 MSTORE PUSH1 0x20 SWAP1 RETURN JUMPDEST CALLVALUE PUSH2 0x5B0 JUMPI PUSH1 0x40 CALLDATASIZE PUSH1 0x3 NOT ADD SLT PUSH2 0x5B0 JUMPI PUSH2 0xE06 PUSH2 0xFDC PUSH2 0x89F JUMP JUMPDEST PUSH1 0x4 CALLDATALOAD PUSH1 0x0 MSTORE PUSH1 0xD PUSH1 0x20 MSTORE PUSH1 0x8 PUSH1 0x40 PUSH1 0x0 KECCAK256 ADD PUSH2 0x2EE8 JUMP JUMPDEST CALLVALUE PUSH2 0x5B0 JUMPI PUSH1 0x20 CALLDATASIZE PUSH1 0x3 NOT ADD SLT PUSH2 0x5B0 JUMPI PUSH1 0x4 CALLDATALOAD PUSH1 0x0 MSTORE PUSH1 0x20 DUP1 MSTORE PUSH1 0x20 PUSH1 0x40 PUSH1 0x0 KECCAK256 SLOAD PUSH1 0x40 MLOAD SWAP1 DUP2 MSTORE RETURN JUMPDEST CALLVALUE PUSH2 0x5B0 JUMPI PUSH1 0x0 DUP1 PUSH1 0x3 NOT CALLDATASIZE ADD SLT PUSH2 0x5AD JUMPI PUSH1 0x40 MLOAD DUP1 SWAP2 DUP3 PUSH1 0x15 SLOAD DUP1 DUP5 MSTORE PUSH1 0x20 DUP1 SWAP5 ADD SWAP1 PUSH1 0x15 DUP5 MSTORE DUP5 DUP5 KECCAK256 SWAP4 JUMPDEST DUP6 DUP3 DUP3 LT PUSH2 0x1063 JUMPI POP POP POP PUSH2 0x57F SWAP3 POP SUB DUP4 PUSH2 0xB00 JUMP JUMPDEST DUP6 SLOAD DUP5 MSTORE PUSH1 0x1 SWAP6 DUP7 ADD SWAP6 DUP9 SWAP6 POP SWAP4 ADD SWAP3 ADD PUSH2 0x104C JUMP JUMPDEST CALLVALUE PUSH2 0x5B0 JUMPI PUSH1 0x0 CALLDATASIZE PUSH1 0x3 NOT ADD SLT PUSH2 0x5B0 JUMPI PUSH1 0xB SLOAD PUSH2 0x10A5 PUSH1 0x8 DUP3 SWAP1 SHR PUSH1 0x1 PUSH1 0x1 PUSH1 0xA0 SHL SUB AND CALLER EQ PUSH2 0x2E9D JUMP JUMPDEST PUSH1 0xFF DUP2 AND ISZERO PUSH2 0x10E1 JUMPI PUSH1 0xFF NOT AND PUSH1 0xB SSTORE PUSH32 0x5DB9EE0A495BF2E6FF9C91A7834C1BA4FDD244A5E8AA4E537BD38AEAE4B073AA PUSH1 0x20 PUSH1 0x40 MLOAD CALLER DUP2 MSTORE LOG1 STOP JUMPDEST PUSH1 0x40 MLOAD PUSH3 0x461BCD PUSH1 0xE5 SHL DUP2 MSTORE PUSH1 0x20 PUSH1 0x4 DUP3 ADD MSTORE PUSH1 0x14 PUSH1 0x24 DUP3 ADD MSTORE PUSH20 0x14185D5CD8589B194E881B9BDD081C185D5CD959 PUSH1 0x62 SHL PUSH1 0x44 DUP3 ADD MSTORE PUSH1 0x64 SWAP1 REVERT JUMPDEST PUSH1 0x40 MLOAD SWAP1 PUSH2 0xB61 DUP3 PUSH2 0xACA JUMP JUMPDEST PUSH1 0x40 MLOAD SWAP1 PUSH2 0xB61 DUP3 PUSH2 0xAA9 JUMP JUMPDEST PUSH1 0x1 PUSH1 0x1 PUSH1 0x40 SHL SUB DUP2 GT PUSH2 0xAC5 JUMPI PUSH1 0x1F ADD PUSH1 0x1F NOT AND PUSH1 0x20 ADD SWAP1 JUMP JUMPDEST SWAP3 SWAP2 SWAP3 PUSH2 0x115E DUP3 PUSH2 0x1137 JUMP JUMPDEST SWAP2 PUSH2 0x116C PUSH1 0x40 MLOAD SWAP4 DUP5 PUSH2 0xB00 JUMP JUMPDEST DUP3 SWAP5 DUP2 DUP5 MSTORE DUP2 DUP4 ADD GT PUSH2 0x5B0 JUMPI DUP3 DUP2 PUSH1 0x20 SWAP4 DUP5 PUSH1 0x0 SWAP7 ADD CALLDATACOPY ADD ADD MSTORE JUMP JUMPDEST SWAP1 DUP1 PUSH1 0x1F DUP4 ADD SLT ISZERO PUSH2 0x5B0 JUMPI DUP2 PUSH1 0x20 PUSH2 0x538 SWAP4 CALLDATALOAD SWAP2 ADD PUSH2 0x1152 JUMP JUMPDEST CALLVALUE PUSH2 0x5B0 JUMPI PUSH1 0xC0 CALLDATASIZE PUSH1 0x3 NOT ADD SLT PUSH2 0x5B0 JUMPI PUSH1 0x1 PUSH1 0x1 PUSH1 0x40 SHL SUB PUSH1 0x24 CALLDATALOAD DUP2 DUP2 GT PUSH2 0x5B0 JUMPI PUSH2 0x11D5 SWAP1 CALLDATASIZE SWAP1 PUSH1 0x4 ADD PUSH2 0x1189 JUMP JUMPDEST SWAP1 PUSH1 0x44 CALLDATALOAD SWAP1 DUP2 GT PUSH2 0x5B0 JUMPI PUSH2 0x11EE SWAP1 CALLDATASIZE SWAP1 PUSH1 0x4 ADD PUSH2 0x1189 JUMP JUMPDEST SWAP1 PUSH1 0x64 CALLDATALOAD SWAP2 PUSH1 0x0 SWAP3 PUSH1 0x4 CALLDATALOAD DUP5 MSTORE PUSH1 0xD PUSH1 0x20 MSTORE PUSH1 0x7 PUSH1 0x40 DUP6 KECCAK256 ADD SWAP2 PUSH1 0x40 MLOAD SWAP4 PUSH2 0x1215 DUP6 PUSH2 0xACA JUMP JUMPDEST DUP5 MSTORE PUSH1 0x20 DUP5 ADD MSTORE PUSH1 0x40 DUP4 ADD DUP2 SWAP1 MSTORE PUSH1 0x84 CALLDATALOAD PUSH1 0x60 DUP5 ADD MSTORE PUSH1 0x80 DUP4 ADD MSTORE PUSH1 0xA4 CALLDATALOAD PUSH1 0xA0 DUP4 ADD MSTORE DUP1 SLOAD PUSH1 0x1 PUSH1 0x40 SHL DUP2 LT ISZERO PUSH2 0xAC5 JUMPI PUSH2 0x1255 SWAP2 PUSH1 0x1 DUP3 ADD DUP2 SSTORE PUSH2 0x4368 JUMP JUMPDEST PUSH2 0x1266 JUMPI SWAP1 PUSH2 0x1263 SWAP2 PUSH2 0x3EDE JUMP JUMPDEST DUP1 RETURN JUMPDEST PUSH4 0x4E487B71 PUSH1 0xE0 SHL DUP4 MSTORE PUSH1 0x4 DUP4 SWAP1 MSTORE PUSH1 0x24 DUP4 REVERT JUMPDEST CALLVALUE PUSH2 0x5B0 JUMPI PUSH2 0xE06 PUSH2 0x128B CALLDATASIZE PUSH2 0xDA8 JUMP JUMPDEST SWAP1 PUSH1 0x40 MLOAD SWAP3 PUSH2 0x1299 DUP5 PUSH2 0xAE5 JUMP JUMPDEST PUSH1 0x0 DUP5 MSTORE PUSH2 0x301B JUMP JUMPDEST CALLVALUE PUSH2 0x5B0 JUMPI PUSH1 0x20 CALLDATASIZE PUSH1 0x3 NOT ADD SLT PUSH2 0x5B0 JUMPI PUSH1 0x4 CALLDATALOAD PUSH2 0x12C0 DUP2 CALLER PUSH2 0x311A JUMP JUMPDEST ISZERO PUSH2 0x144D JUMPI DUP1 PUSH2 0x12CF DUP2 PUSH2 0x3194 JUMP JUMPDEST PUSH2 0x12DE PUSH1 0xFF PUSH1 0xB SLOAD AND ISZERO PUSH2 0x359A JUMP JUMPDEST PUSH1 0x1 PUSH1 0x1 PUSH1 0xA0 SHL SUB DUP2 AND SWAP1 DUP2 PUSH2 0x1398 JUMPI SWAP1 PUSH2 0x1315 PUSH1 0x0 SWAP3 PUSH2 0x12FE DUP6 PUSH2 0x3795 JUMP JUMPDEST PUSH2 0x1307 DUP6 PUSH2 0x37DB JUMP JUMPDEST PUSH2 0x1310 DUP6 PUSH2 0x33BA JUMP JUMPDEST PUSH2 0x17E4 JUMP JUMPDEST PUSH2 0x131F DUP2 SLOAD PUSH2 0x3297 JUMP JUMPDEST SWAP1 SSTORE PUSH2 0x1348 PUSH2 0x1338 DUP5 PUSH1 0x0 MSTORE PUSH1 0x2 PUSH1 0x20 MSTORE PUSH1 0x40 PUSH1 0x0 KECCAK256 SWAP1 JUMP JUMPDEST DUP1 SLOAD PUSH1 0x1 PUSH1 0x1 PUSH1 0xA0 SHL SUB NOT AND SWAP1 SSTORE JUMP JUMPDEST PUSH1 0x0 DUP1 MLOAD PUSH1 0x20 PUSH2 0x4466 DUP4 CODECOPY DUP2 MLOAD SWAP2 MSTORE DUP3 DUP1 LOG4 PUSH2 0x1376 PUSH2 0x1371 DUP3 PUSH1 0x0 MSTORE PUSH1 0xA PUSH1 0x20 MSTORE PUSH1 0x40 PUSH1 0x0 KECCAK256 SWAP1 JUMP JUMPDEST PUSH2 0x3887 JUMP JUMPDEST PUSH2 0x137C JUMPI STOP JUMPDEST PUSH2 0x1393 PUSH2 0xE06 SWAP2 PUSH1 0x0 MSTORE PUSH1 0xA PUSH1 0x20 MSTORE PUSH1 0x40 PUSH1 0x0 KECCAK256 SWAP1 JUMP JUMPDEST PUSH2 0x38A8 JUMP JUMPDEST SWAP1 SWAP2 POP PUSH2 0x13A4 DUP2 PUSH2 0x2F6C JUMP JUMPDEST PUSH1 0x0 NOT DUP2 ADD SWAP3 SWAP1 DUP4 GT PUSH2 0x1448 JUMPI PUSH2 0x1315 PUSH1 0x0 SWAP3 DUP6 SWAP5 PUSH2 0x1402 DUP6 SWAP2 DUP8 DUP4 MSTORE PUSH1 0x7 PUSH1 0x20 MSTORE PUSH1 0x40 DUP4 KECCAK256 SLOAD DUP2 DUP2 SUB PUSH2 0x1408 JUMPI JUMPDEST POP DUP3 PUSH2 0x13E9 DUP10 PUSH1 0x0 MSTORE PUSH1 0x7 PUSH1 0x20 MSTORE PUSH1 0x40 PUSH1 0x0 KECCAK256 SWAP1 JUMP JUMPDEST SSTORE PUSH2 0x13F3 DUP5 PUSH2 0x17CA JUMP JUMPDEST SWAP1 PUSH1 0x0 MSTORE PUSH1 0x20 MSTORE PUSH1 0x40 PUSH1 0x0 KECCAK256 SWAP1 JUMP JUMPDEST SSTORE PUSH2 0x12FE JUMP JUMPDEST DUP7 DUP5 MSTORE PUSH1 0x6 PUSH1 0x20 MSTORE PUSH1 0x40 DUP5 KECCAK256 DUP3 DUP6 MSTORE PUSH1 0x20 MSTORE PUSH2 0x1441 PUSH1 0x40 DUP6 KECCAK256 SLOAD DUP1 PUSH2 0x1430 DUP5 PUSH2 0x13F3 DUP11 PUSH2 0x17CA JUMP JUMPDEST SSTORE PUSH1 0x0 MSTORE PUSH1 0x7 PUSH1 0x20 MSTORE PUSH1 0x40 PUSH1 0x0 KECCAK256 SWAP1 JUMP JUMPDEST SSTORE CODESIZE PUSH2 0x13D3 JUMP JUMPDEST PUSH2 0x3281 JUMP JUMPDEST PUSH1 0x40 MLOAD PUSH3 0x461BCD PUSH1 0xE5 SHL DUP2 MSTORE PUSH1 0x20 PUSH1 0x4 DUP3 ADD MSTORE PUSH1 0x30 PUSH1 0x24 DUP3 ADD MSTORE PUSH32 0x4552433732314275726E61626C653A2063616C6C6572206973206E6F74206F77 PUSH1 0x44 DUP3 ADD MSTORE PUSH16 0x1B995C881B9BDC88185C1C1C9BDD9959 PUSH1 0x82 SHL PUSH1 0x64 DUP3 ADD MSTORE PUSH1 0x84 SWAP1 REVERT JUMPDEST CALLVALUE PUSH2 0x5B0 JUMPI PUSH1 0x40 CALLDATASIZE PUSH1 0x3 NOT ADD SLT PUSH2 0x5B0 JUMPI PUSH1 0x20 PUSH2 0x14C6 PUSH2 0x889 JUMP JUMPDEST PUSH1 0x24 CALLDATALOAD SWAP1 DUP2 PUSH1 0x0 MSTORE PUSH1 0xE DUP4 MSTORE PUSH2 0x14E3 PUSH1 0xFF PUSH1 0x40 PUSH1 0x0 KECCAK256 SLOAD AND PUSH2 0x30B9 JUMP JUMPDEST PUSH1 0x1 PUSH1 0x1 PUSH1 0xA0 SHL SUB DUP1 DUP1 PUSH2 0x14F6 DUP6 PUSH2 0x3B88 JUMP JUMPDEST AND SWAP3 AND SWAP2 DUP3 EQ SWAP3 DUP4 ISZERO PUSH2 0x1511 JUMPI JUMPDEST POP POP POP PUSH1 0x40 MLOAD SWAP1 ISZERO ISZERO DUP2 MSTORE RETURN JUMPDEST PUSH2 0x151D SWAP2 SWAP3 SWAP4 POP PUSH2 0x3BDE JUMP JUMPDEST AND EQ CODESIZE DUP1 DUP1 PUSH2 0x1504 JUMP JUMPDEST CALLVALUE PUSH2 0x5B0 JUMPI PUSH1 0x20 CALLDATASIZE PUSH1 0x3 NOT ADD SLT PUSH2 0x5B0 JUMPI PUSH1 0x4 CALLDATALOAD PUSH1 0x0 MSTORE PUSH1 0xE PUSH1 0x20 MSTORE PUSH1 0x20 PUSH1 0xFF PUSH1 0x40 PUSH1 0x0 KECCAK256 SLOAD AND PUSH1 0x40 MLOAD SWAP1 ISZERO ISZERO DUP2 MSTORE RETURN JUMPDEST CALLVALUE PUSH2 0x5B0 JUMPI PUSH1 0x20 CALLDATASIZE PUSH1 0x3 NOT ADD SLT PUSH2 0x5B0 JUMPI PUSH1 0x4 CALLDATALOAD PUSH1 0x8 SLOAD DUP2 LT ISZERO PUSH2 0x1597 JUMPI PUSH1 0x8 PUSH1 0x0 MSTORE PUSH1 0x0 DUP1 MLOAD PUSH1 0x20 PUSH2 0x4446 DUP4 CODECOPY DUP2 MLOAD SWAP2 MSTORE ADD SLOAD PUSH1 0x40 MLOAD SWAP1 DUP2 MSTORE PUSH1 0x20 SWAP1 RETURN JUMPDEST PUSH1 0x40 MLOAD PUSH3 0x461BCD PUSH1 0xE5 SHL DUP2 MSTORE PUSH1 0x20 PUSH1 0x4 DUP3 ADD MSTORE PUSH1 0x2C PUSH1 0x24 DUP3 ADD MSTORE PUSH32 0x455243373231456E756D657261626C653A20676C6F62616C20696E646578206F PUSH1 0x44 DUP3 ADD MSTORE PUSH12 0x7574206F6620626F756E6473 PUSH1 0xA0 SHL PUSH1 0x64 DUP3 ADD MSTORE PUSH1 0x84 SWAP1 REVERT JUMPDEST CALLVALUE PUSH2 0x5B0 JUMPI PUSH1 0x0 CALLDATASIZE PUSH1 0x3 NOT ADD SLT PUSH2 0x5B0 JUMPI PUSH1 0x20 PUSH1 0xFF PUSH1 0xB SLOAD AND PUSH1 0x40 MLOAD SWAP1 ISZERO ISZERO DUP2 MSTORE RETURN JUMPDEST CALLVALUE PUSH2 0x5B0 JUMPI PUSH1 0x40 CALLDATASIZE PUSH1 0x3 NOT ADD SLT PUSH2 0x5B0 JUMPI PUSH1 0x4 CALLDATALOAD PUSH1 0x0 MSTORE PUSH1 0x1D PUSH1 0x20 MSTORE PUSH1 0x24 CALLDATALOAD PUSH1 0x40 PUSH1 0x0 KECCAK256 SSTORE PUSH1 0x0 DUP1 RETURN JUMPDEST CALLVALUE PUSH2 0x5B0 JUMPI PUSH1 0x20 CALLDATASIZE PUSH1 0x3 NOT ADD SLT PUSH2 0x5B0 JUMPI PUSH1 0x20 PUSH2 0x877 PUSH1 0x4 CALLDATALOAD PUSH2 0x3B88 JUMP JUMPDEST PUSH1 0x4 CALLDATALOAD SWAP1 PUSH1 0x5 DUP3 LT ISZERO PUSH2 0x5B0 JUMPI JUMP JUMPDEST CALLDATALOAD SWAP1 PUSH1 0x5 DUP3 LT ISZERO PUSH2 0x5B0 JUMPI JUMP JUMPDEST PUSH1 0x5 DUP2 LT ISZERO PUSH2 0xBE9 JUMPI PUSH1 0x0 MSTORE PUSH1 0x17 PUSH1 0x20 MSTORE PUSH1 0x40 PUSH1 0x0 KECCAK256 SWAP1 JUMP JUMPDEST CALLVALUE PUSH2 0x5B0 JUMPI PUSH1 0x40 CALLDATASIZE PUSH1 0x3 NOT ADD SLT PUSH2 0x5B0 JUMPI PUSH2 0x16AA PUSH2 0x165C JUMP JUMPDEST PUSH1 0x24 CALLDATALOAD SWAP1 PUSH1 0x5 DUP2 LT ISZERO PUSH2 0xBE9 JUMPI PUSH1 0x0 MSTORE PUSH1 0x17 PUSH1 0x20 MSTORE PUSH1 0x40 PUSH1 0x0 KECCAK256 DUP1 SLOAD DUP3 LT ISZERO PUSH2 0x5B0 JUMPI PUSH1 0x20 SWAP2 PUSH2 0x16D9 SWAP2 PUSH2 0xF52 JUMP JUMPDEST SWAP1 SLOAD PUSH1 0x40 MLOAD SWAP2 PUSH1 0x3 SHL SHR DUP2 MSTORE RETURN JUMPDEST CALLVALUE PUSH2 0x5B0 JUMPI PUSH1 0x20 CALLDATASIZE PUSH1 0x3 NOT ADD SLT PUSH2 0x5B0 JUMPI PUSH1 0x4 CALLDATALOAD PUSH1 0x0 MSTORE PUSH1 0x1C PUSH1 0x20 MSTORE PUSH1 0x20 PUSH1 0xFF PUSH1 0x40 PUSH1 0x0 KECCAK256 SLOAD AND PUSH1 0x40 MLOAD SWAP1 ISZERO ISZERO DUP2 MSTORE RETURN JUMPDEST CALLVALUE PUSH2 0x5B0 JUMPI PUSH1 0x20 CALLDATASIZE PUSH1 0x3 NOT ADD SLT PUSH2 0x5B0 JUMPI PUSH1 0x20 PUSH2 0x173B PUSH2 0x1736 PUSH2 0x889 JUMP JUMPDEST PUSH2 0x2F6C JUMP JUMPDEST PUSH1 0x40 MLOAD SWAP1 DUP2 MSTORE RETURN JUMPDEST CALLVALUE PUSH2 0x5B0 JUMPI PUSH1 0x0 DUP1 PUSH1 0x3 NOT CALLDATASIZE ADD SLT PUSH2 0x5AD JUMPI PUSH1 0xB SLOAD DUP2 PUSH1 0x8 DUP3 SWAP1 SHR PUSH1 0x1 PUSH1 0x1 PUSH1 0xA0 SHL SUB AND PUSH2 0x1772 CALLER DUP3 EQ PUSH2 0x2E9D JUMP JUMPDEST PUSH1 0x0 DUP1 MLOAD PUSH1 0x20 PUSH2 0x4426 DUP4 CODECOPY DUP2 MLOAD SWAP2 MSTORE DUP3 DUP1 LOG3 PUSH2 0x100 PUSH1 0x1 PUSH1 0xA8 SHL SUB NOT AND PUSH1 0xB SSTORE DUP1 RETURN JUMPDEST CALLVALUE PUSH2 0x5B0 JUMPI PUSH1 0x0 CALLDATASIZE PUSH1 0x3 NOT ADD SLT PUSH2 0x5B0 JUMPI PUSH2 0x17B1 CALLER ISZERO ISZERO PUSH2 0x2F0D JUMP JUMPDEST CALLER PUSH1 0x0 MSTORE PUSH1 0x12 PUSH1 0x20 MSTORE PUSH1 0x20 PUSH1 0x40 PUSH1 0x0 KECCAK256 SLOAD PUSH1 0x40 MLOAD SWAP1 DUP2 MSTORE RETURN JUMPDEST PUSH1 0x1 PUSH1 0x1 PUSH1 0xA0 SHL SUB AND PUSH1 0x0 SWAP1 DUP2 MSTORE PUSH1 0x6 PUSH1 0x20 MSTORE PUSH1 0x40 SWAP1 KECCAK256 SWAP1 JUMP JUMPDEST PUSH1 0x1 PUSH1 0x1 PUSH1 0xA0 SHL SUB AND PUSH1 0x0 SWAP1 DUP2 MSTORE PUSH1 0x3 PUSH1 0x20 MSTORE PUSH1 0x40 SWAP1 KECCAK256 SWAP1 JUMP JUMPDEST SWAP1 PUSH1 0x1 DUP1 PUSH1 0xA0 SHL SUB AND PUSH1 0x0 MSTORE PUSH1 0x20 MSTORE PUSH1 0x40 PUSH1 0x0 KECCAK256 SWAP1 JUMP JUMPDEST CALLVALUE PUSH2 0x5B0 JUMPI PUSH1 0x20 CALLDATASIZE PUSH1 0x3 NOT ADD SLT PUSH2 0x5B0 JUMPI PUSH1 0x1 PUSH1 0x1 PUSH1 0xA0 SHL SUB PUSH2 0x1836 PUSH2 0x889 JUMP JUMPDEST AND PUSH1 0x0 MSTORE PUSH1 0x12 PUSH1 0x20 MSTORE PUSH1 0x20 PUSH1 0x40 PUSH1 0x0 KECCAK256 SLOAD PUSH1 0x40 MLOAD SWAP1 DUP2 MSTORE RETURN JUMPDEST CALLVALUE PUSH2 0x5B0 JUMPI PUSH2 0x185D CALLDATASIZE PUSH2 0xD38 JUMP JUMPDEST SWAP2 PUSH1 0x0 SWAP3 DUP2 DUP5 MSTORE PUSH1 0x18 PUSH1 0x20 MSTORE PUSH2 0x1876 DUP4 PUSH1 0x40 DUP7 KECCAK256 PUSH2 0x17FE JUMP JUMPDEST DUP1 SLOAD SWAP1 DUP3 DUP3 ADD DUP1 SWAP3 GT PUSH2 0x1448 JUMPI SSTORE DUP2 DUP5 MSTORE PUSH1 0x19 PUSH1 0x20 MSTORE PUSH1 0x40 DUP5 KECCAK256 PUSH2 0x189B DUP3 DUP3 SLOAD PUSH2 0x32C2 JUMP JUMPDEST SWAP1 SSTORE PUSH2 0x18B1 DUP3 PUSH1 0x0 MSTORE PUSH1 0x21 PUSH1 0x20 MSTORE PUSH1 0x40 PUSH1 0x0 KECCAK256 SWAP1 JUMP JUMPDEST PUSH2 0x18BC DUP3 DUP3 SLOAD PUSH2 0x32C2 JUMP JUMPDEST SWAP1 SSTORE PUSH2 0x18DB DUP4 PUSH2 0x18D6 DUP5 PUSH1 0x0 MSTORE PUSH1 0x18 PUSH1 0x20 MSTORE PUSH1 0x40 PUSH1 0x0 KECCAK256 SWAP1 JUMP JUMPDEST PUSH2 0x17FE JUMP JUMPDEST SLOAD EQ PUSH2 0x18E5 JUMPI DUP3 DUP1 RETURN JUMPDEST PUSH2 0x192C DUP2 PUSH2 0x1927 DUP5 PUSH2 0x190D PUSH2 0x193B SWAP7 PUSH2 0x1908 DUP6 PUSH1 0x0 MSTORE PUSH1 0x1A PUSH1 0x20 MSTORE PUSH1 0x40 PUSH1 0x0 KECCAK256 SWAP1 JUMP JUMPDEST PUSH2 0x4384 JUMP JUMPDEST PUSH1 0x1 PUSH1 0x1 PUSH1 0xA0 SHL SUB AND PUSH1 0x0 SWAP1 DUP2 MSTORE PUSH1 0x22 PUSH1 0x20 MSTORE PUSH1 0x40 SWAP1 KECCAK256 SWAP1 JUMP JUMPDEST PUSH2 0x3760 JUMP JUMPDEST PUSH1 0x0 MSTORE PUSH1 0x20 DUP1 MSTORE PUSH1 0x40 PUSH1 0x0 KECCAK256 SWAP1 JUMP JUMPDEST PUSH2 0x1945 DUP2 SLOAD PUSH2 0x3A91 JUMP JUMPDEST SWAP1 SSTORE CODESIZE DUP1 DUP3 DUP1 RETURN JUMPDEST CALLVALUE PUSH2 0x5B0 JUMPI PUSH1 0x0 CALLDATASIZE PUSH1 0x3 NOT ADD SLT PUSH2 0x5B0 JUMPI PUSH1 0xB SLOAD PUSH1 0x1 SWAP1 PUSH2 0x197C PUSH1 0x8 DUP3 SWAP1 SHR PUSH1 0x1 PUSH1 0x1 PUSH1 0xA0 SHL SUB AND CALLER EQ PUSH2 0x2E9D JUMP JUMPDEST PUSH2 0x1989 PUSH1 0xFF DUP3 AND ISZERO PUSH2 0x359A JUMP JUMPDEST PUSH1 0xFF NOT AND OR PUSH1 0xB SSTORE PUSH32 0x62E78CEA01BEE320CD4E420270B5EA74000D11B0C9F74754EBDBFC544B05A258 PUSH1 0x20 PUSH1 0x40 MLOAD CALLER DUP2 MSTORE LOG1 STOP JUMPDEST CALLVALUE PUSH2 0x5B0 JUMPI PUSH1 0x20 CALLDATASIZE PUSH1 0x3 NOT ADD SLT PUSH2 0x5B0 JUMPI PUSH1 0x4 CALLDATALOAD PUSH1 0x14 SLOAD DUP2 LT ISZERO PUSH2 0x5B0 JUMPI PUSH1 0x14 PUSH1 0x0 MSTORE PUSH32 0xCE6D7B5282BD9A3661AE061FEED1DBDA4E52AB073B1F9285BE6E155D9C38D4EC ADD SLOAD PUSH1 0x40 MLOAD SWAP1 DUP2 MSTORE PUSH1 0x20 SWAP1 RETURN JUMPDEST CALLVALUE PUSH2 0x5B0 JUMPI PUSH1 0x20 CALLDATASIZE PUSH1 0x3 NOT ADD SLT PUSH2 0x5B0 JUMPI PUSH1 0x4 CALLDATALOAD PUSH1 0x13 SLOAD DUP2 LT ISZERO PUSH2 0x5B0 JUMPI PUSH1 0x13 PUSH1 0x0 MSTORE PUSH1 0x0 DUP1 MLOAD PUSH1 0x20 PUSH2 0x4406 DUP4 CODECOPY DUP2 MLOAD SWAP2 MSTORE ADD SLOAD PUSH1 0x40 MLOAD SWAP1 DUP2 MSTORE PUSH1 0x20 SWAP1 RETURN JUMPDEST CALLVALUE PUSH2 0x5B0 JUMPI PUSH1 0x60 CALLDATASIZE PUSH1 0x3 NOT ADD SLT PUSH2 0x5B0 JUMPI PUSH1 0x4 CALLDATALOAD PUSH1 0x24 CALLDATALOAD SWAP1 PUSH1 0x0 SWAP2 DUP2 DUP4 MSTORE PUSH1 0xD PUSH1 0x20 MSTORE PUSH1 0x7 PUSH1 0x40 DUP5 KECCAK256 ADD SLOAD DUP2 LT ISZERO PUSH2 0x1AA2 JUMPI PUSH2 0x1A96 SWAP2 DUP4 MSTORE PUSH1 0xD PUSH1 0x20 MSTORE PUSH1 0x7 PUSH1 0x40 DUP5 KECCAK256 ADD PUSH2 0x4368 JUMP JUMPDEST POP PUSH1 0x4 PUSH1 0x44 CALLDATALOAD SWAP2 ADD SSTORE DUP1 RETURN JUMPDEST PUSH1 0x40 MLOAD PUSH3 0x461BCD PUSH1 0xE5 SHL DUP2 MSTORE PUSH1 0x20 PUSH1 0x4 DUP3 ADD MSTORE PUSH1 0x14 PUSH1 0x24 DUP3 ADD MSTORE PUSH20 0x92DCECC2D8D2C840E4CAEEC2E4C840D2DCC8CAF PUSH1 0x63 SHL PUSH1 0x44 DUP3 ADD MSTORE PUSH1 0x64 SWAP1 REVERT JUMPDEST CALLVALUE PUSH2 0x5B0 JUMPI PUSH1 0x0 CALLDATASIZE PUSH1 0x3 NOT ADD SLT PUSH2 0x5B0 JUMPI PUSH1 0xB SLOAD PUSH1 0x40 MLOAD PUSH1 0x8 SWAP2 SWAP1 SWAP2 SHR PUSH1 0x1 PUSH1 0x1 PUSH1 0xA0 SHL SUB AND DUP2 MSTORE PUSH1 0x20 SWAP1 RETURN JUMPDEST CALLVALUE PUSH2 0x5B0 JUMPI PUSH1 0x40 CALLDATASIZE PUSH1 0x3 NOT ADD SLT PUSH2 0x5B0 JUMPI PUSH1 0x20 PUSH2 0x1B3D PUSH2 0x1B29 PUSH2 0x89F JUMP JUMPDEST PUSH1 0x4 CALLDATALOAD PUSH1 0x0 MSTORE PUSH1 0x1E DUP4 MSTORE PUSH1 0x40 PUSH1 0x0 KECCAK256 PUSH2 0x17FE JUMP JUMPDEST SLOAD PUSH1 0x40 MLOAD SWAP1 DUP2 MSTORE RETURN JUMPDEST CALLVALUE PUSH2 0x5B0 JUMPI PUSH1 0x0 DUP1 PUSH1 0x3 NOT CALLDATASIZE ADD SLT PUSH2 0x5AD JUMPI PUSH1 0x40 MLOAD DUP2 PUSH1 0x1 DUP1 SLOAD SWAP1 PUSH2 0x1B6A DUP3 PUSH2 0xA59 JUMP JUMPDEST DUP1 DUP6 MSTORE SWAP2 DUP2 DUP2 AND SWAP1 DUP2 ISZERO PUSH2 0x76E JUMPI POP PUSH1 0x1 EQ PUSH2 0x1B90 JUMPI PUSH2 0x593 DUP5 PUSH2 0x727 DUP2 DUP9 SUB DUP3 PUSH2 0xB00 JUMP JUMPDEST DUP1 SWAP5 POP DUP3 MSTORE PUSH1 0x20 SWAP4 DUP5 DUP4 KECCAK256 JUMPDEST DUP3 DUP5 LT PUSH2 0x1BB8 JUMPI POP POP POP DUP2 PUSH2 0x593 SWAP4 PUSH2 0x727 SWAP3 DUP3 ADD ADD SWAP4 PUSH2 0x717 JUMP JUMPDEST DUP1 SLOAD DUP6 DUP6 ADD DUP8 ADD MSTORE SWAP3 DUP6 ADD SWAP3 DUP2 ADD PUSH2 0x1B9C JUMP JUMPDEST PUSH1 0x24 CALLDATALOAD SWAP1 DUP2 ISZERO ISZERO DUP3 SUB PUSH2 0x5B0 JUMPI JUMP JUMPDEST CALLVALUE PUSH2 0x5B0 JUMPI PUSH1 0x40 CALLDATASIZE PUSH1 0x3 NOT ADD SLT PUSH2 0x5B0 JUMPI PUSH2 0x1BF3 PUSH2 0x889 JUMP JUMPDEST PUSH2 0x1BFB PUSH2 0x1BCB JUMP JUMPDEST PUSH1 0x1 PUSH1 0x1 PUSH1 0xA0 SHL SUB DUP3 AND SWAP2 CALLER DUP4 EQ PUSH2 0x1C5F JUMPI DUP2 PUSH2 0x1C28 PUSH2 0x1C2D SWAP3 CALLER PUSH1 0x0 MSTORE PUSH1 0x5 PUSH1 0x20 MSTORE PUSH1 0x40 PUSH1 0x0 KECCAK256 PUSH2 0x17FE JUMP JUMPDEST PUSH2 0x2F91 JUMP JUMPDEST PUSH1 0x40 MLOAD SWAP1 ISZERO ISZERO DUP2 MSTORE CALLER SWAP1 PUSH32 0x17307EAB39AB6107E8899845AD3D59BD9653F200F220920489CA2B5937696C31 SWAP1 PUSH1 0x20 SWAP1 LOG3 STOP JUMPDEST PUSH1 0x40 MLOAD PUSH3 0x461BCD PUSH1 0xE5 SHL DUP2 MSTORE PUSH1 0x20 PUSH1 0x4 DUP3 ADD MSTORE PUSH1 0x19 PUSH1 0x24 DUP3 ADD MSTORE PUSH25 0x22A9219B99189D1030B8383937BB32903A379031B0B63632B9 PUSH1 0x39 SHL PUSH1 0x44 DUP3 ADD MSTORE PUSH1 0x64 SWAP1 REVERT JUMPDEST CALLVALUE PUSH2 0x5B0 JUMPI PUSH1 0x20 DUP1 PUSH1 0x3 NOT CALLDATASIZE ADD SLT PUSH2 0x5B0 JUMPI PUSH2 0x1CBA PUSH2 0x165C JUMP JUMPDEST PUSH1 0x5 DUP2 LT ISZERO PUSH2 0xBE9 JUMPI PUSH1 0x0 MSTORE PUSH1 0x17 DUP2 MSTORE PUSH1 0x40 PUSH1 0x0 KECCAK256 SWAP1 PUSH1 0x40 MLOAD SWAP1 DUP2 DUP2 DUP5 SLOAD SWAP2 DUP3 DUP2 MSTORE ADD SWAP4 PUSH1 0x0 MSTORE DUP2 PUSH1 0x0 KECCAK256 SWAP2 PUSH1 0x0 SWAP1 JUMPDEST DUP3 DUP3 LT PUSH2 0x1D0D JUMPI PUSH2 0x593 DUP6 PUSH2 0x1D01 DUP2 DUP10 SUB DUP3 PUSH2 0xB00 JUMP JUMPDEST PUSH1 0x40 MLOAD SWAP2 DUP3 SWAP2 DUP3 PUSH2 0x527 JUMP JUMPDEST DUP4 SLOAD DUP7 MSTORE SWAP5 DUP6 ADD SWAP5 PUSH1 0x1 SWAP4 DUP5 ADD SWAP4 SWAP1 SWAP2 ADD SWAP1 PUSH2 0x1CEA JUMP JUMPDEST CALLVALUE PUSH2 0x5B0 JUMPI PUSH1 0x40 CALLDATASIZE PUSH1 0x3 NOT ADD SLT PUSH2 0x5B0 JUMPI PUSH2 0x1D4A PUSH2 0x1D40 PUSH2 0x889 JUMP JUMPDEST PUSH1 0x24 CALLDATALOAD SWAP1 CALLER PUSH2 0x32CF JUMP JUMPDEST PUSH1 0x20 PUSH1 0x40 MLOAD PUSH1 0x1 DUP2 MSTORE RETURN JUMPDEST CALLVALUE PUSH2 0x5B0 JUMPI PUSH1 0x40 CALLDATASIZE PUSH1 0x3 NOT ADD SLT PUSH2 0x5B0 JUMPI PUSH2 0x1D6E PUSH2 0x889 JUMP JUMPDEST PUSH1 0x1 PUSH1 0x1 PUSH1 0xA0 SHL SUB AND PUSH1 0x0 SWAP1 DUP2 MSTORE PUSH1 0xF PUSH1 0x20 MSTORE PUSH1 0x40 SWAP1 KECCAK256 DUP1 SLOAD PUSH1 0x24 CALLDATALOAD SWAP2 SWAP1 DUP3 LT ISZERO PUSH2 0x5B0 JUMPI PUSH1 0x20 SWAP2 PUSH2 0x16D9 SWAP2 PUSH2 0xF52 JUMP JUMPDEST CALLVALUE PUSH2 0x5B0 JUMPI PUSH1 0x40 CALLDATASIZE PUSH1 0x3 NOT ADD SLT PUSH2 0x5B0 JUMPI PUSH2 0x1DB8 PUSH2 0x889 JUMP JUMPDEST PUSH1 0x1 PUSH1 0x1 PUSH1 0xA0 SHL SUB AND PUSH1 0x0 SWAP1 DUP2 MSTORE PUSH1 0x22 PUSH1 0x20 MSTORE PUSH1 0x40 SWAP1 KECCAK256 DUP1 SLOAD PUSH1 0x24 CALLDATALOAD SWAP2 SWAP1 DUP3 LT ISZERO PUSH2 0x5B0 JUMPI PUSH1 0x20 SWAP2 PUSH2 0x16D9 SWAP2 PUSH2 0xF52 JUMP JUMPDEST CALLVALUE PUSH2 0x5B0 JUMPI PUSH1 0x40 CALLDATASIZE PUSH1 0x3 NOT ADD SLT PUSH2 0x5B0 JUMPI PUSH1 0x20 PUSH2 0x1B3D PUSH2 0x1E07 PUSH2 0x89F JUMP JUMPDEST PUSH1 0x4 CALLDATALOAD PUSH1 0x0 MSTORE PUSH1 0x18 DUP4 MSTORE PUSH1 0x40 PUSH1 0x0 KECCAK256 PUSH2 0x17FE JUMP JUMPDEST CALLVALUE PUSH2 0x5B0 JUMPI PUSH1 0x0 DUP1 PUSH1 0x3 NOT CALLDATASIZE ADD SLT PUSH2 0x5AD JUMPI PUSH1 0x40 MLOAD DUP1 SWAP2 DUP3 PUSH1 0x16 SLOAD DUP1 DUP5 MSTORE PUSH1 0x20 DUP1 SWAP5 ADD SWAP1 PUSH1 0x16 DUP5 MSTORE DUP5 DUP5 KECCAK256 SWAP4 JUMPDEST DUP6 DUP3 DUP3 LT PUSH2 0x1E5F JUMPI POP POP POP PUSH2 0x57F SWAP3 POP SUB DUP4 PUSH2 0xB00 JUMP JUMPDEST DUP6 SLOAD DUP5 MSTORE PUSH1 0x1 SWAP6 DUP7 ADD SWAP6 DUP9 SWAP6 POP SWAP4 ADD SWAP3 ADD PUSH2 0x1E48 JUMP JUMPDEST CALLVALUE PUSH2 0x5B0 JUMPI PUSH1 0x20 CALLDATASIZE PUSH1 0x3 NOT ADD SLT PUSH2 0x5B0 JUMPI PUSH1 0x4 CALLDATALOAD PUSH1 0x0 MSTORE PUSH1 0x1B PUSH1 0x20 MSTORE PUSH1 0x20 PUSH1 0xFF PUSH1 0x40 PUSH1 0x0 KECCAK256 SLOAD AND PUSH1 0x40 MLOAD SWAP1 ISZERO ISZERO DUP2 MSTORE RETURN JUMPDEST CALLVALUE PUSH2 0x5B0 JUMPI PUSH1 0x80 CALLDATASIZE PUSH1 0x3 NOT ADD SLT PUSH2 0x5B0 JUMPI PUSH2 0x1EBF PUSH2 0x889 JUMP JUMPDEST PUSH2 0x1EC7 PUSH2 0x89F JUMP JUMPDEST PUSH1 0x64 CALLDATALOAD SWAP2 PUSH1 0x1 PUSH1 0x1 PUSH1 0x40 SHL SUB DUP4 GT PUSH2 0x5B0 JUMPI CALLDATASIZE PUSH1 0x23 DUP5 ADD SLT ISZERO PUSH2 0x5B0 JUMPI PUSH2 0x1EFB PUSH2 0xE06 SWAP4 CALLDATASIZE SWAP1 PUSH1 0x24 DUP2 PUSH1 0x4 ADD CALLDATALOAD SWAP2 ADD PUSH2 0x1152 JUMP JUMPDEST SWAP2 PUSH1 0x44 CALLDATALOAD SWAP2 PUSH2 0x301B JUMP JUMPDEST CALLVALUE PUSH2 0x5B0 JUMPI PUSH1 0x40 CALLDATASIZE PUSH1 0x3 NOT ADD SLT PUSH2 0x5B0 JUMPI PUSH1 0x4 CALLDATALOAD PUSH2 0x1263 PUSH2 0x1F24 PUSH2 0x89F JUMP JUMPDEST SWAP2 PUSH1 0x0 SWAP3 DUP2 DUP5 MSTORE PUSH1 0x1A PUSH1 0x20 MSTORE PUSH2 0x1F3D DUP2 PUSH1 0x40 DUP7 KECCAK256 PUSH2 0x4384 JUMP JUMPDEST PUSH1 0x1 PUSH1 0x1 PUSH1 0xA0 SHL SUB AND DUP4 MSTORE PUSH1 0x22 PUSH1 0x20 MSTORE PUSH1 0x40 DUP4 KECCAK256 PUSH2 0x3760 JUMP JUMPDEST CALLVALUE PUSH2 0x5B0 JUMPI PUSH1 0x20 CALLDATASIZE PUSH1 0x3 NOT ADD SLT PUSH2 0x5B0 JUMPI PUSH1 0x4 CALLDATALOAD PUSH1 0x0 MSTORE PUSH1 0x19 PUSH1 0x20 MSTORE PUSH1 0x20 PUSH1 0x40 PUSH1 0x0 KECCAK256 SLOAD PUSH1 0x40 MLOAD SWAP1 DUP2 MSTORE RETURN JUMPDEST CALLVALUE PUSH2 0x5B0 JUMPI PUSH1 0x40 CALLDATASIZE PUSH1 0x3 NOT ADD SLT PUSH2 0x5B0 JUMPI PUSH1 0x24 CALLDATALOAD PUSH1 0x4 CALLDATALOAD PUSH1 0x0 MSTORE PUSH1 0x1A PUSH1 0x20 MSTORE PUSH1 0x40 PUSH1 0x0 KECCAK256 DUP1 SLOAD DUP3 LT ISZERO PUSH2 0x5B0 JUMPI PUSH1 0x20 SWAP2 PUSH2 0x1FBB SWAP2 PUSH2 0xF52 JUMP JUMPDEST SWAP1 SLOAD PUSH1 0x40 MLOAD PUSH1 0x3 SWAP3 SWAP1 SWAP3 SHL SHR PUSH1 0x1 PUSH1 0x1 PUSH1 0xA0 SHL SUB AND DUP2 MSTORE RETURN JUMPDEST CALLVALUE PUSH2 0x5B0 JUMPI PUSH1 0x20 CALLDATASIZE PUSH1 0x3 NOT ADD SLT PUSH2 0x5B0 JUMPI PUSH2 0x593 PUSH2 0x1FF3 PUSH1 0x4 CALLDATALOAD PUSH2 0x3908 JUMP JUMPDEST PUSH1 0x40 MLOAD SWAP2 DUP3 SWAP2 PUSH1 0x20 DUP4 MSTORE PUSH1 0x20 DUP4 ADD SWAP1 PUSH2 0x6A6 JUMP JUMPDEST CALLVALUE PUSH2 0x5B0 JUMPI PUSH2 0x202C PUSH2 0x2018 CALLDATASIZE PUSH2 0xD38 JUMP JUMPDEST SWAP3 SWAP2 PUSH1 0x0 MSTORE PUSH1 0x1F PUSH1 0x20 MSTORE PUSH1 0x40 PUSH1 0x0 KECCAK256 PUSH2 0x17FE JUMP JUMPDEST SWAP1 PUSH1 0x0 MSTORE PUSH1 0x20 MSTORE PUSH1 0x20 PUSH1 0x40 PUSH1 0x0 KECCAK256 SLOAD PUSH1 0x40 MLOAD SWAP1 DUP2 MSTORE RETURN JUMPDEST CALLVALUE PUSH2 0x5B0 JUMPI PUSH1 0x80 CALLDATASIZE PUSH1 0x3 NOT ADD SLT PUSH2 0x5B0 JUMPI PUSH2 0x205C PUSH2 0x89F JUMP JUMPDEST PUSH2 0x2075 PUSH1 0x0 SWAP2 PUSH1 0x4 CALLDATALOAD DUP4 MSTORE PUSH1 0x1F PUSH1 0x20 MSTORE PUSH1 0x40 DUP4 KECCAK256 PUSH2 0x17FE JUMP JUMPDEST PUSH1 0x44 CALLDATALOAD DUP3 MSTORE PUSH1 0x20 MSTORE PUSH1 0x64 CALLDATALOAD PUSH1 0x40 DUP3 KECCAK256 SSTORE DUP1 RETURN JUMPDEST CALLVALUE PUSH2 0x5B0 JUMPI PUSH1 0x60 CALLDATASIZE PUSH1 0x3 NOT ADD SLT PUSH2 0x5B0 JUMPI PUSH2 0x20A1 PUSH2 0x889 JUMP JUMPDEST PUSH1 0x24 CALLDATALOAD PUSH1 0x44 CALLDATALOAD PUSH1 0x1 PUSH1 0x1 PUSH1 0x40 SHL SUB DUP2 GT PUSH2 0x5B0 JUMPI PUSH2 0x20C3 SWAP1 CALLDATASIZE SWAP1 PUSH1 0x4 ADD PUSH2 0x1189 JUMP JUMPDEST PUSH1 0x1 PUSH1 0x1 PUSH1 0xA0 SHL SUB DUP4 AND SWAP1 DUP2 ISZERO PUSH2 0x2170 JUMPI PUSH2 0x215F SWAP4 PUSH2 0x216A PUSH1 0x40 MLOAD SWAP3 PUSH2 0x20E8 DUP5 PUSH2 0xAE5 JUMP JUMPDEST PUSH2 0x2164 PUSH1 0x0 SWAP8 DUP6 DUP10 DUP1 SWAP8 MSTORE PUSH2 0x210B PUSH2 0x2106 PUSH2 0x2102 DUP12 PUSH2 0x320C JUMP JUMPDEST ISZERO SWAP1 JUMP JUMPDEST PUSH2 0x3C61 JUMP JUMPDEST PUSH2 0x2115 DUP10 DUP8 PUSH2 0x35D9 JUMP JUMPDEST PUSH2 0x211E DUP7 PUSH2 0x17E4 JUMP JUMPDEST PUSH2 0x2128 DUP2 SLOAD PUSH2 0x32A6 JUMP JUMPDEST SWAP1 SSTORE PUSH2 0x2142 DUP7 PUSH2 0x939 DUP12 PUSH1 0x0 MSTORE PUSH1 0x2 PUSH1 0x20 MSTORE PUSH1 0x40 PUSH1 0x0 KECCAK256 SWAP1 JUMP JUMPDEST DUP9 PUSH1 0x0 DUP1 MLOAD PUSH1 0x20 PUSH2 0x4466 DUP4 CODECOPY DUP2 MLOAD SWAP2 MSTORE SWAP7 DUP2 DUP11 DUP11 DUP11 DUP2 DUP1 LOG4 PUSH2 0x349D JUMP JUMPDEST PUSH2 0x3095 JUMP JUMPDEST DUP6 PUSH2 0x3DBF JUMP JUMPDEST DUP2 DUP1 LOG4 DUP1 RETURN JUMPDEST PUSH1 0x40 MLOAD PUSH3 0x461BCD PUSH1 0xE5 SHL DUP2 MSTORE PUSH1 0x20 PUSH1 0x4 DUP3 ADD MSTORE PUSH1 0x13 PUSH1 0x24 DUP3 ADD MSTORE PUSH19 0x5A65726F416464726573734D696E6974696E67 PUSH1 0x68 SHL PUSH1 0x44 DUP3 ADD MSTORE PUSH1 0x64 SWAP1 REVERT JUMPDEST CALLVALUE PUSH2 0x5B0 JUMPI PUSH1 0x40 CALLDATASIZE PUSH1 0x3 NOT ADD SLT PUSH2 0x5B0 JUMPI PUSH2 0xE06 PUSH2 0x21C7 PUSH2 0x1BCB JUMP JUMPDEST PUSH1 0x4 CALLDATALOAD PUSH1 0x0 MSTORE PUSH1 0x1B PUSH1 0x20 MSTORE PUSH1 0x40 PUSH1 0x0 KECCAK256 PUSH2 0x2F91 JUMP JUMPDEST CALLVALUE PUSH2 0x5B0 JUMPI PUSH1 0x40 CALLDATASIZE PUSH1 0x3 NOT ADD SLT PUSH2 0x5B0 JUMPI PUSH2 0x21F5 PUSH2 0x89F JUMP JUMPDEST PUSH1 0x4 CALLDATALOAD PUSH1 0x0 SWAP1 DUP2 MSTORE PUSH1 0x10 PUSH1 0x20 MSTORE PUSH1 0x40 SWAP1 KECCAK256 DUP1 SLOAD SWAP1 SWAP2 PUSH1 0x1 PUSH1 0x1 PUSH1 0xA0 SHL SUB DUP1 DUP4 AND SWAP2 AND EQ PUSH2 0x221E JUMPI STOP JUMPDEST PUSH1 0x1 PUSH1 0x1 PUSH1 0xA0 SHL SUB NOT AND SWAP1 SSTORE STOP JUMPDEST PUSH1 0x1 PUSH1 0x1 PUSH1 0x40 SHL SUB DUP2 GT PUSH2 0xAC5 JUMPI PUSH1 0x5 SHL PUSH1 0x20 ADD SWAP1 JUMP JUMPDEST DUP2 PUSH1 0x1F DUP3 ADD SLT ISZERO PUSH2 0x5B0 JUMPI DUP1 CALLDATALOAD PUSH2 0x2259 DUP2 PUSH2 0x222C JUMP JUMPDEST SWAP3 PUSH1 0x40 SWAP2 PUSH2 0x2269 DUP4 MLOAD SWAP6 DUP7 PUSH2 0xB00 JUMP JUMPDEST DUP1 DUP6 MSTORE PUSH1 0x20 SWAP4 DUP5 DUP1 DUP8 ADD SWAP3 PUSH1 0x5 SHL DUP3 ADD ADD SWAP4 DUP4 DUP6 GT PUSH2 0x5B0 JUMPI DUP6 DUP3 ADD SWAP3 JUMPDEST DUP6 DUP5 LT PUSH2 0x2298 JUMPI POP POP POP POP POP POP POP SWAP1 JUMP JUMPDEST PUSH1 0x1 PUSH1 0x1 PUSH1 0x40 SHL SUB DUP5 CALLDATALOAD DUP2 DUP2 GT PUSH2 0x5B0 JUMPI DUP5 ADD SWAP2 PUSH1 0xC0 SWAP3 DUP4 PUSH1 0x1F NOT DUP3 DUP11 SUB ADD SLT PUSH2 0x5B0 JUMPI PUSH2 0x22C4 PUSH2 0x111D JUMP JUMPDEST SWAP1 DUP11 DUP2 ADD CALLDATALOAD DUP5 DUP2 GT PUSH2 0x5B0 JUMPI DUP10 DUP13 PUSH2 0x22DE SWAP3 DUP5 ADD ADD PUSH2 0x1189 JUMP JUMPDEST DUP3 MSTORE DUP6 DUP2 ADD CALLDATALOAD SWAP4 DUP5 GT PUSH2 0x5B0 JUMPI DUP11 SWAP5 PUSH2 0x22FC DUP11 DUP8 DUP1 SWAP8 DUP6 ADD ADD PUSH2 0x1189 JUMP JUMPDEST DUP6 DUP5 ADD MSTORE PUSH1 0x60 SWAP2 DUP3 DUP2 ADD CALLDATALOAD DUP9 DUP6 ADD MSTORE PUSH1 0x80 SWAP3 DUP4 DUP3 ADD CALLDATALOAD SWAP1 DUP6 ADD MSTORE PUSH1 0xA0 SWAP3 DUP4 DUP3 ADD CALLDATALOAD SWAP1 DUP6 ADD MSTORE ADD CALLDATALOAD SWAP1 DUP3 ADD MSTORE DUP2 MSTORE ADD SWAP4 ADD SWAP3 PUSH2 0x2287 JUMP JUMPDEST CALLDATALOAD SWAP1 PUSH1 0x4 DUP3 LT ISZERO PUSH2 0x5B0 JUMPI JUMP JUMPDEST SWAP1 DUP1 PUSH1 0x1F DUP4 ADD SLT ISZERO PUSH2 0x5B0 JUMPI DUP2 CALLDATALOAD SWAP1 PUSH2 0x2357 DUP3 PUSH2 0x222C JUMP JUMPDEST SWAP3 PUSH2 0x2365 PUSH1 0x40 MLOAD SWAP5 DUP6 PUSH2 0xB00 JUMP JUMPDEST DUP3 DUP5 MSTORE PUSH1 0x20 SWAP3 DUP4 DUP1 DUP7 ADD SWAP2 PUSH1 0x5 SHL DUP4 ADD ADD SWAP3 DUP1 DUP5 GT PUSH2 0x5B0 JUMPI DUP5 DUP4 ADD SWAP2 JUMPDEST DUP5 DUP4 LT PUSH2 0x2393 JUMPI POP POP POP POP POP POP SWAP1 JUMP JUMPDEST DUP3 CALLDATALOAD PUSH1 0x1 PUSH1 0x1 PUSH1 0x40 SHL SUB DUP2 GT PUSH2 0x5B0 JUMPI DUP7 SWAP2 PUSH2 0x23B4 DUP5 DUP5 DUP1 SWAP5 DUP10 ADD ADD PUSH2 0x1189 JUMP JUMPDEST DUP2 MSTORE ADD SWAP3 ADD SWAP2 PUSH2 0x2383 JUMP JUMPDEST SWAP2 SWAP1 SWAP2 PUSH2 0x1A0 DUP2 DUP5 SUB SLT PUSH2 0x5B0 JUMPI PUSH2 0x23D5 PUSH2 0x112A JUMP JUMPDEST DUP2 CALLDATALOAD DUP2 MSTORE PUSH1 0x20 DUP1 DUP4 ADD CALLDATALOAD SWAP1 DUP3 ADD MSTORE SWAP3 PUSH1 0x1 PUSH1 0x1 PUSH1 0x40 SHL SUB PUSH1 0x40 DUP4 ADD CALLDATALOAD DUP2 DUP2 GT PUSH2 0x5B0 JUMPI DUP3 PUSH2 0x2404 SWAP2 DUP6 ADD PUSH2 0x1189 JUMP JUMPDEST PUSH1 0x40 DUP7 ADD MSTORE PUSH1 0x60 DUP4 ADD CALLDATALOAD DUP2 DUP2 GT PUSH2 0x5B0 JUMPI DUP3 PUSH2 0x2421 SWAP2 DUP6 ADD PUSH2 0x1189 JUMP JUMPDEST PUSH1 0x60 DUP7 ADD MSTORE PUSH1 0x80 DUP4 ADD CALLDATALOAD DUP2 DUP2 GT PUSH2 0x5B0 JUMPI DUP3 PUSH2 0x243E SWAP2 DUP6 ADD PUSH2 0x1189 JUMP JUMPDEST PUSH1 0x80 DUP7 ADD MSTORE PUSH1 0xA0 DUP4 ADD CALLDATALOAD PUSH1 0xA0 DUP7 ADD MSTORE PUSH1 0xC0 DUP4 ADD CALLDATALOAD PUSH1 0xC0 DUP7 ADD MSTORE PUSH1 0xE0 DUP4 ADD CALLDATALOAD DUP2 DUP2 GT PUSH2 0x5B0 JUMPI DUP3 PUSH2 0x246F SWAP2 DUP6 ADD PUSH2 0x2243 JUMP JUMPDEST PUSH1 0xE0 DUP7 ADD MSTORE PUSH2 0x100 PUSH2 0x2482 DUP2 DUP6 ADD PUSH2 0x2332 JUMP JUMPDEST SWAP1 DUP7 ADD MSTORE PUSH2 0x120 PUSH2 0x2494 DUP2 DUP6 ADD PUSH2 0x8CB JUMP JUMPDEST SWAP1 DUP7 ADD MSTORE PUSH2 0x140 DUP1 DUP5 ADD CALLDATALOAD DUP3 DUP2 GT PUSH2 0x5B0 JUMPI DUP4 PUSH2 0x24B2 SWAP2 DUP7 ADD PUSH2 0x1189 JUMP JUMPDEST SWAP1 DUP7 ADD MSTORE PUSH2 0x160 SWAP2 DUP3 DUP5 ADD CALLDATALOAD SWAP2 DUP3 GT PUSH2 0x5B0 JUMPI PUSH2 0x24D0 SWAP2 DUP5 ADD PUSH2 0x233F JUMP JUMPDEST SWAP1 DUP5 ADD MSTORE PUSH2 0x24E2 PUSH2 0x180 DUP1 SWAP3 ADD PUSH2 0x166B JUMP JUMPDEST SWAP1 DUP4 ADD MSTORE JUMP JUMPDEST CALLVALUE PUSH2 0x5B0 JUMPI PUSH1 0x60 CALLDATASIZE PUSH1 0x3 NOT ADD SLT PUSH2 0x5B0 JUMPI PUSH1 0x24 CALLDATALOAD PUSH1 0x4 CALLDATALOAD PUSH1 0x1 PUSH1 0x1 PUSH1 0x40 SHL SUB DUP3 GT PUSH2 0x5B0 JUMPI PUSH2 0x1927 PUSH2 0x2521 PUSH2 0xE06 SWAP4 CALLDATASIZE SWAP1 PUSH1 0x4 ADD PUSH2 0x23BF JUMP JUMPDEST PUSH2 0x266F DUP4 PUSH2 0x1927 PUSH2 0x2530 PUSH2 0x8B5 JUMP JUMPDEST DUP3 PUSH1 0x0 MSTORE PUSH1 0xD PUSH1 0x20 MSTORE PUSH2 0x2619 PUSH2 0x180 PUSH1 0x40 PUSH1 0x0 KECCAK256 SWAP7 DUP1 MLOAD DUP9 SSTORE PUSH1 0x20 DUP2 ADD MLOAD PUSH1 0x1 DUP10 ADD SSTORE PUSH2 0x2564 PUSH1 0x40 DUP3 ADD MLOAD PUSH1 0x2 DUP11 ADD PUSH2 0x3CF1 JUMP JUMPDEST PUSH2 0x2575 PUSH1 0x60 DUP3 ADD MLOAD PUSH1 0x3 DUP11 ADD PUSH2 0x3CF1 JUMP JUMPDEST PUSH2 0x2586 PUSH1 0x80 DUP3 ADD MLOAD PUSH1 0x4 DUP11 ADD PUSH2 0x3CF1 JUMP JUMPDEST PUSH1 0xA0 DUP2 ADD MLOAD PUSH1 0x5 DUP10 ADD SSTORE PUSH1 0xC0 DUP2 ADD MLOAD PUSH1 0x6 DUP10 ADD SSTORE PUSH2 0x25AB PUSH1 0xE0 DUP3 ADD MLOAD PUSH1 0x7 DUP11 ADD PUSH2 0x3FF3 JUMP JUMPDEST PUSH2 0x25DF PUSH1 0x8 DUP10 ADD PUSH2 0x25CA PUSH2 0x100 DUP5 ADD MLOAD PUSH2 0x25C4 DUP2 PUSH2 0xBDF JUMP JUMPDEST DUP3 PUSH2 0x40C1 JUMP JUMPDEST PUSH2 0x120 DUP4 ADD MLOAD PUSH1 0x1 PUSH1 0x1 PUSH1 0xA0 SHL SUB AND SWAP1 PUSH2 0x2EE8 JUMP JUMPDEST PUSH2 0x25F1 PUSH2 0x140 DUP3 ADD MLOAD PUSH1 0x9 DUP11 ADD PUSH2 0x3CF1 JUMP JUMPDEST PUSH2 0x2603 PUSH2 0x160 DUP3 ADD MLOAD PUSH1 0xA DUP11 ADD PUSH2 0x40D9 JUMP JUMPDEST ADD SWAP6 PUSH1 0xB DUP8 MLOAD SWAP2 PUSH2 0x2613 DUP4 PUSH2 0xBFB JUMP JUMPDEST ADD PUSH2 0x4166 JUMP JUMPDEST PUSH2 0x2631 DUP2 PUSH2 0x939 DUP6 PUSH1 0x0 MSTORE PUSH1 0x11 PUSH1 0x20 MSTORE PUSH1 0x40 PUSH1 0x0 KECCAK256 SWAP1 JUMP JUMPDEST PUSH1 0x1 PUSH1 0x1 PUSH1 0xA0 SHL SUB DUP2 AND PUSH1 0x0 SWAP1 DUP2 MSTORE PUSH1 0x12 PUSH1 0x20 MSTORE PUSH1 0x40 SWAP1 KECCAK256 PUSH2 0x2653 DUP2 SLOAD PUSH2 0x3A91 JUMP JUMPDEST SWAP1 SSTORE PUSH1 0x1 PUSH1 0x1 PUSH1 0xA0 SHL SUB AND PUSH1 0x0 SWAP1 DUP2 MSTORE PUSH1 0xF PUSH1 0x20 MSTORE PUSH1 0x40 SWAP1 KECCAK256 SWAP1 JUMP JUMPDEST PUSH2 0x2693 PUSH2 0x2686 DUP5 PUSH1 0x0 MSTORE PUSH1 0xE PUSH1 0x20 MSTORE PUSH1 0x40 PUSH1 0x0 KECCAK256 SWAP1 JUMP JUMPDEST DUP1 SLOAD PUSH1 0xFF NOT AND PUSH1 0x1 OR SWAP1 SSTORE JUMP JUMPDEST PUSH2 0x269C DUP4 PUSH2 0x372A JUMP JUMPDEST MLOAD PUSH2 0x26A6 DUP2 PUSH2 0xBFB JUMP JUMPDEST PUSH2 0x1678 JUMP JUMPDEST CALLVALUE PUSH2 0x5B0 JUMPI PUSH1 0x40 CALLDATASIZE PUSH1 0x3 NOT ADD SLT PUSH2 0x5B0 JUMPI PUSH1 0x24 CALLDATALOAD PUSH1 0x1 PUSH1 0x1 PUSH1 0x40 SHL SUB DUP2 GT PUSH2 0x5B0 JUMPI PUSH2 0x26DE PUSH2 0xE06 SWAP2 CALLDATASIZE SWAP1 PUSH1 0x4 ADD PUSH2 0x23BF JUMP JUMPDEST PUSH1 0x4 CALLDATALOAD PUSH1 0x0 MSTORE PUSH1 0xD PUSH1 0x20 MSTORE PUSH1 0xB PUSH2 0x180 PUSH1 0x40 PUSH1 0x0 KECCAK256 SWAP3 DUP1 MLOAD DUP5 SSTORE PUSH1 0x20 DUP2 ADD MLOAD PUSH1 0x1 DUP6 ADD SSTORE PUSH2 0x2713 PUSH1 0x40 DUP3 ADD MLOAD PUSH1 0x2 DUP7 ADD PUSH2 0x3CF1 JUMP JUMPDEST PUSH2 0x2724 PUSH1 0x60 DUP3 ADD MLOAD PUSH1 0x3 DUP7 ADD PUSH2 0x3CF1 JUMP JUMPDEST PUSH2 0x2735 PUSH1 0x80 DUP3 ADD MLOAD PUSH1 0x4 DUP7 ADD PUSH2 0x3CF1 JUMP JUMPDEST PUSH1 0xA0 DUP2 ADD MLOAD PUSH1 0x5 DUP6 ADD SSTORE PUSH1 0xC0 DUP2 ADD MLOAD PUSH1 0x6 DUP6 ADD SSTORE PUSH2 0x275A PUSH1 0xE0 DUP3 ADD MLOAD PUSH1 0x7 DUP7 ADD PUSH2 0x3FF3 JUMP JUMPDEST PUSH2 0x2773 PUSH1 0x8 DUP6 ADD PUSH2 0x25CA PUSH2 0x100 DUP5 ADD MLOAD PUSH2 0x25C4 DUP2 PUSH2 0xBDF JUMP JUMPDEST PUSH2 0x2785 PUSH2 0x140 DUP3 ADD MLOAD PUSH1 0x9 DUP7 ADD PUSH2 0x3CF1 JUMP JUMPDEST PUSH2 0x2797 PUSH2 0x160 DUP3 ADD MLOAD PUSH1 0xA DUP7 ADD PUSH2 0x40D9 JUMP JUMPDEST ADD MLOAD SWAP2 PUSH2 0x2613 DUP4 PUSH2 0xBFB JUMP JUMPDEST CALLVALUE PUSH2 0x5B0 JUMPI PUSH1 0x40 CALLDATASIZE PUSH1 0x3 NOT ADD SLT PUSH2 0x5B0 JUMPI PUSH1 0x20 PUSH1 0xFF PUSH2 0x27E8 PUSH2 0x27C3 PUSH2 0x889 JUMP JUMPDEST PUSH2 0x27CB PUSH2 0x89F JUMP JUMPDEST PUSH1 0x1 PUSH1 0x1 PUSH1 0xA0 SHL SUB SWAP1 SWAP2 AND PUSH1 0x0 SWAP1 DUP2 MSTORE PUSH1 0x5 DUP6 MSTORE PUSH1 0x40 SWAP1 KECCAK256 PUSH2 0x17FE JUMP JUMPDEST SLOAD AND PUSH1 0x40 MLOAD SWAP1 ISZERO ISZERO DUP2 MSTORE RETURN JUMPDEST CALLVALUE PUSH2 0x5B0 JUMPI PUSH1 0x20 DUP1 PUSH1 0x3 NOT CALLDATASIZE ADD SLT PUSH2 0x5B0 JUMPI PUSH1 0x1 PUSH1 0x1 PUSH1 0xA0 SHL SUB PUSH2 0x2816 PUSH2 0x889 JUMP JUMPDEST AND PUSH1 0x0 MSTORE PUSH1 0x22 DUP2 MSTORE PUSH1 0x40 PUSH1 0x0 KECCAK256 SWAP1 PUSH1 0x40 MLOAD SWAP1 DUP2 DUP2 DUP5 SLOAD SWAP2 DUP3 DUP2 MSTORE ADD SWAP4 PUSH1 0x0 MSTORE DUP2 PUSH1 0x0 KECCAK256 SWAP2 PUSH1 0x0 SWAP1 JUMPDEST DUP3 DUP3 LT PUSH2 0x2855 JUMPI PUSH2 0x593 DUP6 PUSH2 0x1D01 DUP2 DUP10 SUB DUP3 PUSH2 0xB00 JUMP JUMPDEST DUP4 SLOAD DUP7 MSTORE SWAP5 DUP6 ADD SWAP5 PUSH1 0x1 SWAP4 DUP5 ADD SWAP4 SWAP1 SWAP2 ADD SWAP1 PUSH2 0x283E JUMP JUMPDEST SWAP1 DUP2 MLOAD DUP1 DUP3 MSTORE PUSH1 0x20 DUP1 SWAP3 ADD SWAP2 DUP3 DUP2 DUP4 PUSH1 0x5 SHL DUP6 ADD SWAP6 ADD SWAP4 PUSH1 0x0 SWAP2 JUMPDEST DUP5 DUP4 LT PUSH2 0x2897 JUMPI POP POP POP POP POP POP SWAP1 JUMP JUMPDEST SWAP1 SWAP2 SWAP3 SWAP4 SWAP5 SWAP6 DUP5 DUP1 DUP3 DUP5 PUSH1 0x1 SWAP5 SUB DUP7 MSTORE DUP10 MLOAD SWAP1 PUSH2 0x28CF PUSH2 0x28BF DUP4 MLOAD PUSH1 0xC0 DUP1 DUP6 MSTORE DUP5 ADD SWAP1 PUSH2 0x6A6 JUMP JUMPDEST DUP5 DUP5 ADD MLOAD DUP4 DUP3 SUB DUP7 DUP6 ADD MSTORE PUSH2 0x6A6 JUMP JUMPDEST SWAP2 PUSH1 0x40 DUP1 DUP3 ADD MLOAD SWAP1 DUP4 ADD MSTORE PUSH1 0x60 DUP1 DUP3 ADD MLOAD SWAP1 DUP4 ADD MSTORE PUSH1 0x80 DUP1 DUP3 ADD MLOAD SWAP1 DUP4 ADD MSTORE PUSH1 0xA0 DUP1 SWAP2 ADD MLOAD SWAP2 ADD MSTORE SWAP9 ADD SWAP4 ADD SWAP4 ADD SWAP2 SWAP5 SWAP4 SWAP3 SWAP1 PUSH2 0x2887 JUMP JUMPDEST SWAP1 DUP2 MLOAD DUP1 DUP3 MSTORE PUSH1 0x20 DUP1 SWAP3 ADD SWAP2 DUP3 DUP2 DUP4 PUSH1 0x5 SHL DUP3 ADD SWAP6 ADD SWAP4 PUSH1 0x0 SWAP2 JUMPDEST DUP5 DUP4 LT PUSH2 0x2932 JUMPI POP POP POP POP POP POP SWAP1 JUMP JUMPDEST SWAP1 SWAP2 SWAP3 SWAP4 SWAP5 SWAP6 DUP5 DUP1 PUSH2 0x294C DUP4 DUP6 PUSH1 0x1 SWAP6 SUB DUP8 MSTORE DUP11 MLOAD PUSH2 0x6A6 JUMP JUMPDEST SWAP9 ADD SWAP4 ADD SWAP4 ADD SWAP2 SWAP5 SWAP4 SWAP3 SWAP1 PUSH2 0x2922 JUMP JUMPDEST PUSH2 0x538 SWAP1 PUSH1 0x20 DUP2 MSTORE DUP3 MLOAD PUSH1 0x20 DUP3 ADD MSTORE PUSH1 0x20 DUP4 ADD MLOAD PUSH1 0x40 DUP3 ADD MSTORE PUSH1 0x40 DUP4 ADD MLOAD PUSH2 0x2992 PUSH2 0x1A0 SWAP2 DUP3 PUSH1 0x60 DUP6 ADD MSTORE PUSH2 0x1C0 DUP5 ADD SWAP1 PUSH2 0x6A6 JUMP JUMPDEST PUSH2 0x2A4F PUSH2 0x29C8 PUSH2 0x29B4 PUSH1 0x60 DUP9 ADD MLOAD SWAP4 PUSH1 0x1F NOT SWAP5 DUP6 DUP9 DUP4 SUB ADD PUSH1 0x80 DUP10 ADD MSTORE PUSH2 0x6A6 JUMP JUMPDEST PUSH1 0x80 DUP9 ADD MLOAD DUP5 DUP8 DUP4 SUB ADD PUSH1 0xA0 DUP9 ADD MSTORE PUSH2 0x6A6 JUMP JUMPDEST PUSH1 0xA0 DUP8 ADD MLOAD PUSH1 0xC0 DUP7 ADD MSTORE PUSH1 0xC0 DUP8 ADD MLOAD PUSH1 0xE0 DUP7 ADD MSTORE PUSH2 0x2A3A PUSH2 0x29FA PUSH1 0xE0 DUP10 ADD MLOAD SWAP3 PUSH2 0x100 SWAP4 DUP7 DUP10 DUP4 SUB ADD DUP6 DUP11 ADD MSTORE PUSH2 0x286C JUMP JUMPDEST SWAP2 DUP9 ADD MLOAD PUSH2 0x2A0E PUSH2 0x120 SWAP2 DUP3 DUP10 ADD SWAP1 PUSH2 0xBEE JUMP JUMPDEST DUP9 ADD MLOAD PUSH1 0x1 PUSH1 0x1 PUSH1 0xA0 SHL SUB AND PUSH2 0x140 DUP8 DUP2 ADD SWAP2 SWAP1 SWAP2 MSTORE DUP9 ADD MLOAD SWAP2 PUSH2 0x160 SWAP3 DUP6 DUP9 DUP4 SUB ADD DUP5 DUP10 ADD MSTORE PUSH2 0x6A6 JUMP JUMPDEST SWAP1 DUP8 ADD MLOAD PUSH2 0x180 SWAP4 DUP7 DUP4 SUB ADD DUP5 DUP8 ADD MSTORE PUSH2 0x2907 JUMP JUMPDEST SWAP5 ADD MLOAD SWAP2 ADD SWAP1 PUSH2 0xC05 JUMP JUMPDEST CALLVALUE PUSH2 0x5B0 JUMPI PUSH1 0x20 CALLDATASIZE PUSH1 0x3 NOT ADD SLT PUSH2 0x5B0 JUMPI PUSH1 0x40 MLOAD PUSH2 0x2A77 DUP2 PUSH2 0xAA9 JUMP JUMPDEST PUSH2 0x180 PUSH1 0x0 SWAP2 DUP3 DUP2 MSTORE DUP3 PUSH1 0x20 DUP3 ADD MSTORE PUSH1 0x60 DUP1 PUSH1 0x40 DUP4 ADD MSTORE DUP1 DUP1 DUP4 ADD MSTORE DUP1 PUSH1 0x80 DUP4 ADD MSTORE DUP4 PUSH1 0xA0 DUP4 ADD MSTORE DUP4 PUSH1 0xC0 DUP4 ADD MSTORE DUP1 PUSH1 0xE0 DUP4 ADD MSTORE DUP4 PUSH2 0x100 DUP4 ADD MSTORE DUP4 PUSH2 0x120 DUP4 ADD MSTORE DUP1 PUSH2 0x140 DUP4 ADD MSTORE PUSH2 0x160 DUP3 ADD MSTORE ADD MSTORE PUSH2 0x593 PUSH2 0x2AE9 PUSH2 0x2AE4 PUSH1 0x4 CALLDATALOAD PUSH1 0x0 MSTORE PUSH1 0xD PUSH1 0x20 MSTORE PUSH1 0x40 PUSH1 0x0 KECCAK256 SWAP1 JUMP JUMPDEST PUSH2 0x428D JUMP JUMPDEST PUSH1 0x40 MLOAD SWAP2 DUP3 SWAP2 DUP3 PUSH2 0x295C JUMP JUMPDEST SWAP1 SWAP2 PUSH2 0x2B0C PUSH2 0x538 SWAP4 PUSH1 0x40 DUP5 MSTORE PUSH1 0x40 DUP5 ADD SWAP1 PUSH2 0x4F3 JUMP JUMPDEST SWAP2 PUSH1 0x20 DUP2 DUP5 SUB SWAP2 ADD MSTORE PUSH2 0x4F3 JUMP JUMPDEST CALLVALUE PUSH2 0x5B0 JUMPI PUSH1 0x40 CALLDATASIZE PUSH1 0x3 NOT ADD SLT PUSH2 0x5B0 JUMPI PUSH1 0x4 CALLDATALOAD PUSH2 0x2B36 PUSH2 0x89F JUMP JUMPDEST DUP2 PUSH1 0x0 MSTORE PUSH1 0xD PUSH1 0x20 MSTORE PUSH1 0x40 PUSH1 0x0 KECCAK256 SWAP2 PUSH2 0x2B4D PUSH2 0x112A JUMP JUMPDEST SWAP2 DUP4 SLOAD DUP4 MSTORE PUSH1 0x1 DUP5 ADD SLOAD PUSH1 0x20 DUP5 ADD MSTORE PUSH2 0x2B68 PUSH1 0x2 DUP6 ADD PUSH2 0xB23 JUMP JUMPDEST PUSH1 0x40 DUP5 ADD MSTORE PUSH2 0x2B79 PUSH1 0x3 DUP6 ADD PUSH2 0xB23 JUMP JUMPDEST PUSH1 0x60 DUP5 ADD MSTORE PUSH2 0x2B8A PUSH1 0x4 DUP6 ADD PUSH2 0xB23 JUMP JUMPDEST PUSH1 0x80 DUP5 ADD MSTORE PUSH2 0x2C25 PUSH1 0x5 DUP6 ADD SLOAD SWAP4 PUSH1 0xA0 SWAP5 DUP6 DUP3 ADD MSTORE PUSH1 0x6 DUP7 ADD SLOAD PUSH1 0xC0 DUP3 ADD MSTORE PUSH2 0x180 PUSH2 0x2C1E PUSH1 0xB PUSH2 0x2BBD PUSH1 0x7 DUP11 ADD PUSH2 0x417E JUMP JUMPDEST SWAP9 PUSH1 0xE0 DUP6 ADD SWAP10 DUP11 MSTORE PUSH2 0x2BF2 PUSH1 0x8 DUP3 ADD SLOAD PUSH2 0x2BDE PUSH1 0xFF DUP3 AND PUSH2 0x100 DUP10 ADD PUSH2 0x4220 JUMP JUMPDEST PUSH1 0x8 SHR PUSH1 0x1 PUSH1 0x1 PUSH1 0xA0 SHL SUB AND PUSH2 0x120 DUP8 ADD MSTORE JUMP JUMPDEST PUSH2 0x2BFE PUSH1 0x9 DUP3 ADD PUSH2 0xB23 JUMP JUMPDEST PUSH2 0x140 DUP7 ADD MSTORE PUSH2 0x2C10 PUSH1 0xA DUP3 ADD PUSH2 0x422C JUMP JUMPDEST PUSH2 0x160 DUP7 ADD MSTORE ADD SLOAD PUSH1 0xFF AND SWAP1 JUMP JUMPDEST SWAP2 ADD PUSH2 0x4281 JUMP JUMPDEST DUP4 MLOAD MLOAD SWAP2 PUSH2 0x2C32 DUP4 PUSH2 0x43BF JUMP JUMPDEST SWAP4 PUSH2 0x2C3C DUP5 PUSH2 0x43BF JUMP JUMPDEST SWAP6 PUSH1 0x0 JUMPDEST DUP6 DUP2 LT PUSH2 0x2C56 JUMPI PUSH1 0x40 MLOAD DUP1 PUSH2 0x593 DUP11 DUP11 DUP4 PUSH2 0x2AF5 JUMP JUMPDEST DUP1 PUSH2 0x2C90 DUP5 PUSH2 0x2C69 PUSH2 0x2CA1 SWAP5 DUP7 MLOAD PUSH2 0x43F1 JUMP JUMPDEST MLOAD ADD MLOAD DUP1 PUSH2 0x2C77 DUP5 DUP13 PUSH2 0x43F1 JUMP JUMPDEST MSTORE PUSH2 0x13F3 DUP9 PUSH2 0x18D6 DUP10 PUSH1 0x0 MSTORE PUSH1 0x1F PUSH1 0x20 MSTORE PUSH1 0x40 PUSH1 0x0 KECCAK256 SWAP1 JUMP JUMPDEST SLOAD PUSH2 0x2C9B DUP3 DUP12 PUSH2 0x43F1 JUMP JUMPDEST MSTORE PUSH2 0x3A91 JUMP JUMPDEST PUSH2 0x2C40 JUMP JUMPDEST CALLVALUE PUSH2 0x5B0 JUMPI PUSH1 0x20 CALLDATASIZE PUSH1 0x3 NOT ADD SLT PUSH2 0x5B0 JUMPI PUSH2 0x2CBF PUSH2 0x889 JUMP JUMPDEST PUSH1 0xB SLOAD PUSH1 0x8 SHR PUSH1 0x1 PUSH1 0x1 PUSH1 0xA0 SHL SUB SWAP1 DUP2 AND SWAP2 SWAP1 PUSH2 0x2CDD CALLER DUP5 EQ PUSH2 0x2E9D JUMP JUMPDEST DUP2 AND DUP1 ISZERO PUSH2 0x2D23 JUMPI PUSH2 0xE06 SWAP3 PUSH1 0x0 DUP1 MLOAD PUSH1 0x20 PUSH2 0x4426 DUP4 CODECOPY DUP2 MLOAD SWAP2 MSTORE PUSH1 0x0 DUP1 LOG3 PUSH1 0xB DUP1 SLOAD PUSH2 0x100 PUSH1 0x1 PUSH1 0xA8 SHL SUB NOT AND PUSH1 0x8 SWAP3 SWAP1 SWAP3 SHL PUSH2 0x100 PUSH1 0x1 PUSH1 0xA8 SHL SUB AND SWAP2 SWAP1 SWAP2 OR SWAP1 SSTORE JUMP JUMPDEST PUSH1 0x40 MLOAD PUSH3 0x461BCD PUSH1 0xE5 SHL DUP2 MSTORE PUSH1 0x20 PUSH1 0x4 DUP3 ADD MSTORE PUSH1 0x26 PUSH1 0x24 DUP3 ADD MSTORE PUSH32 0x4F776E61626C653A206E6577206F776E657220697320746865207A65726F2061 PUSH1 0x44 DUP3 ADD MSTORE PUSH6 0x646472657373 PUSH1 0xD0 SHL PUSH1 0x64 DUP3 ADD MSTORE PUSH1 0x84 SWAP1 REVERT JUMPDEST CALLVALUE PUSH2 0x5B0 JUMPI PUSH1 0x20 CALLDATASIZE PUSH1 0x3 NOT ADD SLT PUSH2 0x5B0 JUMPI PUSH1 0x4 CALLDATALOAD PUSH1 0x15 SLOAD DUP2 LT ISZERO PUSH2 0x5B0 JUMPI PUSH1 0x15 PUSH1 0x0 MSTORE PUSH32 0x55F448FDEA98C4D29EB340757EF0A66CD03DBB9538908A6A81D96026B71EC475 ADD SLOAD PUSH1 0x40 MLOAD SWAP1 DUP2 MSTORE PUSH1 0x20 SWAP1 RETURN JUMPDEST CALLVALUE PUSH2 0x5B0 JUMPI PUSH1 0x20 DUP1 PUSH1 0x3 NOT CALLDATASIZE ADD SLT PUSH2 0x5B0 JUMPI PUSH1 0x1 PUSH1 0x1 PUSH1 0xA0 SHL SUB PUSH2 0x2DEA PUSH2 0x889 JUMP JUMPDEST AND PUSH1 0x0 MSTORE PUSH1 0xF DUP2 MSTORE PUSH1 0x40 PUSH1 0x0 KECCAK256 SWAP1 PUSH1 0x40 MLOAD SWAP1 DUP2 DUP2 DUP5 SLOAD SWAP2 DUP3 DUP2 MSTORE ADD SWAP4 PUSH1 0x0 MSTORE DUP2 PUSH1 0x0 KECCAK256 SWAP2 PUSH1 0x0 SWAP1 JUMPDEST DUP3 DUP3 LT PUSH2 0x2E29 JUMPI PUSH2 0x593 DUP6 PUSH2 0x1D01 DUP2 DUP10 SUB DUP3 PUSH2 0xB00 JUMP JUMPDEST DUP4 SLOAD DUP7 MSTORE SWAP5 DUP6 ADD SWAP5 PUSH1 0x1 SWAP4 DUP5 ADD SWAP4 SWAP1 SWAP2 ADD SWAP1 PUSH2 0x2E12 JUMP JUMPDEST CALLVALUE PUSH2 0x5B0 JUMPI PUSH1 0x40 CALLDATASIZE PUSH1 0x3 NOT ADD SLT PUSH2 0x5B0 JUMPI PUSH2 0xE06 PUSH2 0x2E5C PUSH2 0x1BCB JUMP JUMPDEST PUSH1 0x4 CALLDATALOAD PUSH1 0x0 MSTORE PUSH1 0x1C PUSH1 0x20 MSTORE PUSH1 0x40 PUSH1 0x0 KECCAK256 PUSH2 0x2F91 JUMP JUMPDEST CALLVALUE PUSH2 0x5B0 JUMPI PUSH1 0x20 CALLDATASIZE PUSH1 0x3 NOT ADD SLT PUSH2 0x5B0 JUMPI PUSH1 0x4 CALLDATALOAD PUSH1 0x0 MSTORE PUSH1 0x1D PUSH1 0x20 MSTORE PUSH1 0x20 PUSH1 0x40 PUSH1 0x0 KECCAK256 SLOAD PUSH1 0x40 MLOAD SWAP1 DUP2 MSTORE RETURN JUMPDEST ISZERO PUSH2 0x2EA4 JUMPI JUMP JUMPDEST PUSH1 0x64 PUSH1 0x40 MLOAD PUSH3 0x461BCD PUSH1 0xE5 SHL DUP2 MSTORE PUSH1 0x20 PUSH1 0x4 DUP3 ADD MSTORE PUSH1 0x20 PUSH1 0x24 DUP3 ADD MSTORE PUSH32 0x4F776E61626C653A2063616C6C6572206973206E6F7420746865206F776E6572 PUSH1 0x44 DUP3 ADD MSTORE REVERT JUMPDEST DUP1 SLOAD PUSH2 0x100 PUSH1 0x1 PUSH1 0xA8 SHL SUB NOT AND PUSH1 0x8 SWAP3 SWAP1 SWAP3 SHL PUSH2 0x100 PUSH1 0x1 PUSH1 0xA8 SHL SUB AND SWAP2 SWAP1 SWAP2 OR SWAP1 SSTORE JUMP JUMPDEST ISZERO PUSH2 0x2F14 JUMPI JUMP JUMPDEST PUSH1 0x40 MLOAD PUSH3 0x461BCD PUSH1 0xE5 SHL DUP2 MSTORE PUSH1 0x20 PUSH1 0x4 DUP3 ADD MSTORE PUSH1 0x2A PUSH1 0x24 DUP3 ADD MSTORE PUSH32 0x4552433732313A2062616C616E636520717565727920666F7220746865207A65 PUSH1 0x44 DUP3 ADD MSTORE PUSH10 0x726F2061646472657373 PUSH1 0xB0 SHL PUSH1 0x64 DUP3 ADD MSTORE PUSH1 0x84 SWAP1 REVERT JUMPDEST PUSH1 0x1 PUSH1 0x1 PUSH1 0xA0 SHL SUB AND PUSH2 0x2F80 DUP2 ISZERO ISZERO PUSH2 0x2F0D JUMP JUMPDEST PUSH1 0x0 MSTORE PUSH1 0x3 PUSH1 0x20 MSTORE PUSH1 0x40 PUSH1 0x0 KECCAK256 SLOAD SWAP1 JUMP JUMPDEST SWAP1 PUSH1 0xFF DUP1 NOT DUP4 SLOAD AND SWAP2 ISZERO ISZERO AND OR SWAP1 SSTORE JUMP JUMPDEST ISZERO PUSH2 0x2FA9 JUMPI JUMP JUMPDEST PUSH1 0x40 MLOAD PUSH3 0x461BCD PUSH1 0xE5 SHL DUP2 MSTORE PUSH1 0x20 PUSH1 0x4 DUP3 ADD MSTORE PUSH1 0x31 PUSH1 0x24 DUP3 ADD MSTORE PUSH32 0x4552433732313A207472616E736665722063616C6C6572206973206E6F74206F PUSH1 0x44 DUP3 ADD MSTORE PUSH17 0x1DDB995C881B9BDC88185C1C1C9BDD9959 PUSH1 0x7A SHL PUSH1 0x64 DUP3 ADD MSTORE PUSH1 0x84 SWAP1 REVERT JUMPDEST PUSH1 0x40 MLOAD SWAP1 PUSH2 0x3015 DUP3 PUSH2 0xAE5 JUMP JUMPDEST PUSH1 0x0 DUP3 MSTORE JUMP JUMPDEST SWAP2 PUSH2 0xB61 SWAP4 SWAP2 PUSH2 0x215F SWAP4 PUSH2 0x3032 PUSH2 0xDFC DUP5 CALLER PUSH2 0x311A JUMP JUMPDEST PUSH2 0x303D DUP4 DUP4 DUP4 PUSH2 0x32CF JUMP JUMPDEST PUSH2 0x355E JUMP JUMPDEST PUSH1 0x80 SWAP1 PUSH1 0x20 DUP2 MSTORE PUSH1 0x32 PUSH1 0x20 DUP3 ADD MSTORE PUSH32 0x4552433732313A207472616E7366657220746F206E6F6E204552433732315265 PUSH1 0x40 DUP3 ADD MSTORE PUSH18 0x31B2B4BB32B91034B6B83632B6B2B73A32B9 PUSH1 0x71 SHL PUSH1 0x60 DUP3 ADD MSTORE ADD SWAP1 JUMP JUMPDEST ISZERO PUSH2 0x309C JUMPI JUMP JUMPDEST PUSH1 0x40 MLOAD PUSH3 0x461BCD PUSH1 0xE5 SHL DUP2 MSTORE DUP1 PUSH2 0x30B5 PUSH1 0x4 DUP3 ADD PUSH2 0x3042 JUMP JUMPDEST SUB SWAP1 REVERT JUMPDEST ISZERO PUSH2 0x30C0 JUMPI JUMP JUMPDEST PUSH1 0x40 MLOAD PUSH3 0x461BCD PUSH1 0xE5 SHL DUP2 MSTORE PUSH1 0x20 PUSH1 0x4 DUP3 ADD MSTORE PUSH1 0x2C PUSH1 0x24 DUP3 ADD MSTORE PUSH32 0x4552433732313A206F70657261746F7220717565727920666F72206E6F6E6578 PUSH1 0x44 DUP3 ADD MSTORE PUSH12 0x34B9BA32B73A103A37B5B2B7 PUSH1 0xA1 SHL PUSH1 0x64 DUP3 ADD MSTORE PUSH1 0x84 SWAP1 REVERT JUMPDEST PUSH2 0x312B PUSH2 0x3126 DUP4 PUSH2 0x320C JUMP JUMPDEST PUSH2 0x30B9 JUMP JUMPDEST PUSH1 0x1 PUSH1 0x1 PUSH1 0xA0 SHL SUB DUP1 PUSH2 0x313D DUP5 PUSH2 0x3194 JUMP JUMPDEST AND SWAP1 DUP1 DUP4 AND SWAP1 DUP3 DUP3 EQ SWAP5 DUP6 ISZERO PUSH2 0x317C JUMPI JUMPDEST POP POP POP DUP3 ISZERO PUSH2 0x315C JUMPI POP POP SWAP1 JUMP JUMPDEST PUSH1 0xFF SWAP3 POP SWAP1 PUSH2 0x3177 SWAP2 PUSH1 0x0 MSTORE PUSH1 0x5 PUSH1 0x20 MSTORE PUSH1 0x40 PUSH1 0x0 KECCAK256 PUSH2 0x17FE JUMP JUMPDEST SLOAD AND SWAP1 JUMP JUMPDEST PUSH2 0x3189 SWAP2 SWAP3 SWAP4 SWAP6 POP PUSH2 0x3BDE JUMP JUMPDEST AND EQ SWAP2 CODESIZE DUP1 DUP1 PUSH2 0x314E JUMP JUMPDEST PUSH1 0x0 SWAP1 DUP2 MSTORE PUSH1 0x2 PUSH1 0x20 MSTORE PUSH1 0x40 SWAP1 KECCAK256 SLOAD PUSH1 0x1 PUSH1 0x1 PUSH1 0xA0 SHL SUB AND DUP1 ISZERO PUSH2 0x31B5 JUMPI SWAP1 JUMP JUMPDEST PUSH1 0x40 MLOAD PUSH3 0x461BCD PUSH1 0xE5 SHL DUP2 MSTORE PUSH1 0x20 PUSH1 0x4 DUP3 ADD MSTORE PUSH1 0x29 PUSH1 0x24 DUP3 ADD MSTORE PUSH32 0x4552433732313A206F776E657220717565727920666F72206E6F6E6578697374 PUSH1 0x44 DUP3 ADD MSTORE PUSH9 0x32B73A103A37B5B2B7 PUSH1 0xB9 SHL PUSH1 0x64 DUP3 ADD MSTORE PUSH1 0x84 SWAP1 REVERT JUMPDEST PUSH1 0x0 SWAP1 DUP2 MSTORE PUSH1 0x2 PUSH1 0x20 MSTORE PUSH1 0x40 SWAP1 KECCAK256 SLOAD PUSH1 0x1 PUSH1 0x1 PUSH1 0xA0 SHL SUB AND ISZERO ISZERO SWAP1 JUMP JUMPDEST ISZERO PUSH2 0x3230 JUMPI JUMP JUMPDEST PUSH1 0x40 MLOAD PUSH3 0x461BCD PUSH1 0xE5 SHL DUP2 MSTORE PUSH1 0x20 PUSH1 0x4 DUP3 ADD MSTORE PUSH1 0x24 DUP1 DUP3 ADD MSTORE PUSH32 0x4552433732313A207472616E7366657220746F20746865207A65726F20616464 PUSH1 0x44 DUP3 ADD MSTORE PUSH4 0x72657373 PUSH1 0xE0 SHL PUSH1 0x64 DUP3 ADD MSTORE PUSH1 0x84 SWAP1 REVERT JUMPDEST PUSH4 0x4E487B71 PUSH1 0xE0 SHL PUSH1 0x0 MSTORE PUSH1 0x11 PUSH1 0x4 MSTORE PUSH1 0x24 PUSH1 0x0 REVERT JUMPDEST PUSH1 0x0 NOT DUP2 ADD SWAP2 SWAP1 DUP3 GT PUSH2 0x1448 JUMPI JUMP JUMPDEST SWAP1 PUSH1 0x1 DUP3 ADD DUP1 SWAP3 GT PUSH2 0x1448 JUMPI JUMP JUMPDEST PUSH1 0x30 ADD SWAP1 DUP2 PUSH1 0x30 GT PUSH2 0x1448 JUMPI JUMP JUMPDEST SWAP2 SWAP1 DUP3 ADD DUP1 SWAP3 GT PUSH2 0x1448 JUMPI JUMP JUMPDEST SWAP1 PUSH2 0x32D9 DUP4 PUSH2 0x3194 JUMP JUMPDEST PUSH1 0x1 PUSH1 0x1 PUSH1 0xA0 SHL SUB DUP4 DUP2 AND SWAP3 SWAP1 SWAP2 DUP3 AND DUP4 SWAP1 SUB PUSH2 0x3363 JUMPI PUSH2 0x3319 PUSH2 0x334E SWAP3 DUP3 AND SWAP5 PUSH2 0x3305 DUP7 ISZERO ISZERO PUSH2 0x3229 JUMP JUMPDEST PUSH2 0x3310 DUP8 DUP5 DUP4 PUSH2 0x3613 JUMP JUMPDEST PUSH2 0x1310 DUP8 PUSH2 0x33BA JUMP JUMPDEST PUSH2 0x3323 DUP2 SLOAD PUSH2 0x3297 JUMP JUMPDEST SWAP1 SSTORE PUSH2 0x332E DUP2 PUSH2 0x17E4 JUMP JUMPDEST PUSH2 0x3338 DUP2 SLOAD PUSH2 0x32A6 JUMP JUMPDEST SWAP1 SSTORE PUSH2 0x939 DUP6 PUSH1 0x0 MSTORE PUSH1 0x2 PUSH1 0x20 MSTORE PUSH1 0x40 PUSH1 0x0 KECCAK256 SWAP1 JUMP JUMPDEST PUSH1 0x0 DUP1 MLOAD PUSH1 0x20 PUSH2 0x4466 DUP4 CODECOPY DUP2 MLOAD SWAP2 MSTORE PUSH1 0x0 DUP1 LOG4 JUMP JUMPDEST PUSH1 0x40 MLOAD PUSH3 0x461BCD PUSH1 0xE5 SHL DUP2 MSTORE PUSH1 0x20 PUSH1 0x4 DUP3 ADD MSTORE PUSH1 0x29 PUSH1 0x24 DUP3 ADD MSTORE PUSH32 0x4552433732313A207472616E73666572206F6620746F6B656E20746861742069 PUSH1 0x44 DUP3 ADD MSTORE PUSH9 0x39903737BA1037BBB7 PUSH1 0xB9 SHL PUSH1 0x64 DUP3 ADD MSTORE PUSH1 0x84 SWAP1 REVERT JUMPDEST PUSH1 0x0 DUP2 DUP2 MSTORE PUSH1 0x4 PUSH1 0x20 MSTORE PUSH1 0x40 DUP2 KECCAK256 DUP1 SLOAD PUSH1 0x1 PUSH1 0x1 PUSH1 0xA0 SHL SUB NOT AND SWAP1 SSTORE PUSH1 0x1 PUSH1 0x1 PUSH1 0xA0 SHL SUB PUSH2 0x33E7 DUP4 PUSH2 0x3194 JUMP JUMPDEST AND PUSH1 0x0 DUP1 MLOAD PUSH1 0x20 PUSH2 0x4486 DUP4 CODECOPY DUP2 MLOAD SWAP2 MSTORE DUP3 DUP1 LOG4 JUMP JUMPDEST SWAP1 DUP2 PUSH1 0x20 SWAP2 SUB SLT PUSH2 0x5B0 JUMPI MLOAD PUSH2 0x538 DUP2 PUSH2 0x5B5 JUMP JUMPDEST PUSH2 0x538 SWAP4 SWAP3 PUSH1 0x80 SWAP3 PUSH1 0x1 DUP1 PUSH1 0xA0 SHL SUB AND DUP3 MSTORE PUSH1 0x0 PUSH1 0x20 DUP4 ADD MSTORE PUSH1 0x40 DUP3 ADD MSTORE DUP2 PUSH1 0x60 DUP3 ADD MSTORE ADD SWAP1 PUSH2 0x6A6 JUMP JUMPDEST PUSH1 0x1 PUSH1 0x1 PUSH1 0xA0 SHL SUB SWAP2 DUP3 AND DUP2 MSTORE SWAP2 AND PUSH1 0x20 DUP3 ADD MSTORE PUSH1 0x40 DUP2 ADD SWAP2 SWAP1 SWAP2 MSTORE PUSH1 0x80 PUSH1 0x60 DUP3 ADD DUP2 SWAP1 MSTORE PUSH2 0x538 SWAP3 SWAP2 ADD SWAP1 PUSH2 0x6A6 JUMP JUMPDEST RETURNDATASIZE ISZERO PUSH2 0x3498 JUMPI RETURNDATASIZE SWAP1 PUSH2 0x347E DUP3 PUSH2 0x1137 JUMP JUMPDEST SWAP2 PUSH2 0x348C PUSH1 0x40 MLOAD SWAP4 DUP5 PUSH2 0xB00 JUMP JUMPDEST DUP3 MSTORE RETURNDATASIZE PUSH1 0x0 PUSH1 0x20 DUP5 ADD RETURNDATACOPY JUMP JUMPDEST PUSH1 0x60 SWAP1 JUMP JUMPDEST SWAP1 SWAP2 SWAP1 DUP1 EXTCODESIZE ISZERO PUSH2 0x3556 JUMPI PUSH2 0x34CF PUSH1 0x20 SWAP2 PUSH1 0x0 SWAP4 PUSH1 0x40 MLOAD SWAP5 DUP6 DUP1 SWAP5 DUP2 SWAP4 PUSH4 0xA85BD01 PUSH1 0xE1 SHL SWAP10 DUP11 DUP5 MSTORE CALLER PUSH1 0x4 DUP6 ADD PUSH2 0x3411 JUMP JUMPDEST SUB SWAP3 PUSH1 0x1 PUSH1 0x1 PUSH1 0xA0 SHL SUB AND GAS CALL PUSH1 0x0 SWAP2 DUP2 PUSH2 0x3526 JUMPI JUMPDEST POP PUSH2 0x3518 JUMPI PUSH2 0x34F2 PUSH2 0x346D JUMP JUMPDEST DUP1 MLOAD SWAP1 DUP2 PUSH2 0x3513 JUMPI PUSH1 0x40 MLOAD PUSH3 0x461BCD PUSH1 0xE5 SHL DUP2 MSTORE DUP1 PUSH2 0x30B5 PUSH1 0x4 DUP3 ADD PUSH2 0x3042 JUMP JUMPDEST PUSH1 0x20 ADD REVERT JUMPDEST PUSH1 0x1 PUSH1 0x1 PUSH1 0xE0 SHL SUB NOT AND EQ SWAP1 JUMP JUMPDEST PUSH2 0x3548 SWAP2 SWAP3 POP PUSH1 0x20 RETURNDATASIZE DUP2 GT PUSH2 0x354F JUMPI JUMPDEST PUSH2 0x3540 DUP2 DUP4 PUSH2 0xB00 JUMP JUMPDEST DUP2 ADD SWAP1 PUSH2 0x33FC JUMP JUMPDEST SWAP1 CODESIZE PUSH2 0x34E5 JUMP JUMPDEST POP RETURNDATASIZE PUSH2 0x3536 JUMP JUMPDEST POP POP POP PUSH1 0x1 SWAP1 JUMP JUMPDEST SWAP3 SWAP1 SWAP2 SWAP1 DUP3 EXTCODESIZE ISZERO PUSH2 0x3591 JUMPI PUSH2 0x34CF SWAP3 PUSH1 0x20 SWAP3 PUSH1 0x0 PUSH1 0x40 MLOAD DUP1 SWAP7 DUP2 SWAP6 DUP3 SWAP5 PUSH4 0xA85BD01 PUSH1 0xE1 SHL SWAP11 DUP12 DUP6 MSTORE CALLER PUSH1 0x4 DUP7 ADD PUSH2 0x343C JUMP JUMPDEST POP POP POP POP PUSH1 0x1 SWAP1 JUMP JUMPDEST ISZERO PUSH2 0x35A1 JUMPI JUMP JUMPDEST PUSH1 0x40 MLOAD PUSH3 0x461BCD PUSH1 0xE5 SHL DUP2 MSTORE PUSH1 0x20 PUSH1 0x4 DUP3 ADD MSTORE PUSH1 0x10 PUSH1 0x24 DUP3 ADD MSTORE PUSH16 0x14185D5CD8589B194E881C185D5CD959 PUSH1 0x82 SHL PUSH1 0x44 DUP3 ADD MSTORE PUSH1 0x64 SWAP1 REVERT JUMPDEST SWAP1 PUSH2 0x35E9 PUSH1 0xFF PUSH1 0xB SLOAD AND ISZERO PUSH2 0x359A JUMP JUMPDEST PUSH2 0x35F2 DUP2 PUSH2 0x3795 JUMP JUMPDEST PUSH1 0x1 PUSH1 0x1 PUSH1 0xA0 SHL SUB DUP3 AND PUSH2 0x360A JUMPI PUSH2 0xB61 SWAP2 POP PUSH2 0x37DB JUMP JUMPDEST PUSH2 0xB61 SWAP2 PUSH2 0x36F2 JUMP JUMPDEST SWAP2 SWAP1 SWAP2 PUSH2 0x3625 PUSH1 0xFF PUSH1 0xB SLOAD AND ISZERO PUSH2 0x359A JUMP JUMPDEST PUSH1 0x1 PUSH1 0x1 PUSH1 0xA0 SHL SUB DUP2 DUP2 AND SWAP2 DUP3 PUSH2 0x365C JUMPI POP PUSH2 0x3640 DUP4 PUSH2 0x3795 JUMP JUMPDEST DUP4 AND DUP1 PUSH2 0x3653 JUMPI POP POP PUSH2 0xB61 SWAP2 POP PUSH2 0x37DB JUMP JUMPDEST SUB PUSH2 0x360A JUMPI POP POP JUMP JUMPDEST DUP2 DUP6 AND DUP4 SUB PUSH2 0x366C JUMPI JUMPDEST POP PUSH2 0x3640 JUMP JUMPDEST PUSH2 0x3675 DUP2 PUSH2 0x2F6C JUMP JUMPDEST PUSH1 0x0 NOT DUP2 ADD SWAP1 DUP2 GT PUSH2 0x1448 JUMPI PUSH2 0x36BC SWAP1 PUSH2 0x13F3 PUSH1 0x0 SWAP4 DUP8 DUP6 MSTORE PUSH1 0x7 PUSH1 0x20 MSTORE PUSH1 0x40 DUP6 KECCAK256 SLOAD DUP4 DUP2 SUB PUSH2 0x36C3 JUMPI JUMPDEST POP DUP5 PUSH2 0x36B6 DUP10 PUSH1 0x0 MSTORE PUSH1 0x7 PUSH1 0x20 MSTORE PUSH1 0x40 PUSH1 0x0 KECCAK256 SWAP1 JUMP JUMPDEST SSTORE PUSH2 0x17CA JUMP JUMPDEST SSTORE CODESIZE PUSH2 0x3666 JUMP JUMPDEST DUP8 DUP7 MSTORE PUSH1 0x6 PUSH1 0x20 MSTORE PUSH1 0x40 DUP7 KECCAK256 DUP5 DUP8 MSTORE PUSH1 0x20 MSTORE PUSH2 0x36EB PUSH1 0x40 DUP8 KECCAK256 SLOAD DUP1 PUSH2 0x1430 DUP5 PUSH2 0x13F3 DUP8 PUSH2 0x17CA JUMP JUMPDEST SSTORE CODESIZE PUSH2 0x36A0 JUMP JUMPDEST PUSH1 0x40 SWAP1 PUSH2 0x36FE DUP2 PUSH2 0x2F6C JUMP JUMPDEST SWAP3 PUSH1 0x0 SWAP2 PUSH1 0x1 DUP1 PUSH1 0xA0 SHL SUB AND DUP3 MSTORE PUSH1 0x6 PUSH1 0x20 MSTORE DUP3 DUP3 KECCAK256 DUP5 DUP4 MSTORE PUSH1 0x20 MSTORE DUP1 DUP4 DUP4 KECCAK256 SSTORE DUP2 MSTORE PUSH1 0x7 PUSH1 0x20 MSTORE KECCAK256 SSTORE JUMP JUMPDEST PUSH1 0x13 SLOAD PUSH1 0x1 PUSH1 0x40 SHL DUP2 LT ISZERO PUSH2 0xAC5 JUMPI PUSH1 0x1 DUP2 ADD DUP1 PUSH1 0x13 SSTORE DUP2 LT ISZERO PUSH2 0xF6A JUMPI PUSH1 0x13 PUSH1 0x0 MSTORE PUSH1 0x0 DUP1 MLOAD PUSH1 0x20 PUSH2 0x4406 DUP4 CODECOPY DUP2 MLOAD SWAP2 MSTORE ADD SSTORE JUMP JUMPDEST DUP1 SLOAD PUSH1 0x1 PUSH1 0x40 SHL DUP2 LT ISZERO PUSH2 0xAC5 JUMPI PUSH2 0x377D SWAP2 PUSH1 0x1 DUP3 ADD DUP2 SSTORE PUSH2 0xF52 JUMP JUMPDEST DUP2 SWAP3 SWAP2 SLOAD SWAP1 PUSH1 0x3 SHL SWAP2 DUP3 SHL SWAP2 PUSH1 0x0 NOT SWAP1 SHL NOT AND OR SWAP1 SSTORE JUMP JUMPDEST PUSH1 0x8 SLOAD DUP2 PUSH1 0x0 MSTORE PUSH1 0x9 PUSH1 0x20 MSTORE DUP1 PUSH1 0x40 PUSH1 0x0 KECCAK256 SSTORE PUSH1 0x1 PUSH1 0x40 SHL DUP2 LT ISZERO PUSH2 0xAC5 JUMPI PUSH1 0x1 DUP2 ADD DUP1 PUSH1 0x8 SSTORE DUP2 LT ISZERO PUSH2 0xF6A JUMPI PUSH1 0x8 PUSH1 0x0 MSTORE PUSH1 0x0 DUP1 MLOAD PUSH1 0x20 PUSH2 0x4446 DUP4 CODECOPY DUP2 MLOAD SWAP2 MSTORE ADD SSTORE JUMP JUMPDEST PUSH1 0x8 DUP1 SLOAD PUSH1 0x0 NOT SWAP3 SWAP1 DUP4 DUP2 ADD SWAP1 DUP1 DUP3 GT PUSH2 0x1448 JUMPI PUSH1 0x0 SWAP3 DUP1 DUP5 MSTORE PUSH1 0x9 PUSH1 0x20 MSTORE DUP2 PUSH1 0x40 DUP6 KECCAK256 SLOAD SWAP4 LT ISZERO PUSH2 0xF6A JUMPI DUP5 DUP5 MSTORE DUP6 DUP3 PUSH1 0x20 DUP7 KECCAK256 ADD ADD SLOAD SWAP2 DUP4 LT ISZERO PUSH2 0xF6A JUMPI DUP4 SWAP3 PUSH2 0x383F PUSH2 0x3850 SWAP4 DUP8 DUP7 MSTORE DUP1 DUP4 PUSH1 0x20 DUP9 KECCAK256 ADD SSTORE PUSH1 0x0 MSTORE PUSH1 0x9 PUSH1 0x20 MSTORE PUSH1 0x40 PUSH1 0x0 KECCAK256 SWAP1 JUMP JUMPDEST SSTORE PUSH1 0x0 MSTORE PUSH1 0x9 PUSH1 0x20 MSTORE PUSH1 0x40 PUSH1 0x0 KECCAK256 SWAP1 JUMP JUMPDEST SSTORE DUP2 SLOAD SWAP3 DUP4 ISZERO PUSH2 0x3873 JUMPI DUP1 DUP5 ADD SWAP4 DUP1 DUP6 LT ISZERO PUSH2 0xF6A JUMPI DUP4 DUP4 MSTORE PUSH1 0x20 DUP4 KECCAK256 ADD ADD SSTORE SSTORE JUMP JUMPDEST PUSH4 0x4E487B71 PUSH1 0xE0 SHL DUP3 MSTORE PUSH1 0x31 PUSH1 0x4 MSTORE PUSH1 0x24 DUP3 REVERT JUMPDEST PUSH2 0x538 SWAP1 SLOAD PUSH2 0xA59 JUMP JUMPDEST DUP2 DUP2 LT PUSH2 0x389C JUMPI POP POP JUMP JUMPDEST PUSH1 0x0 DUP2 SSTORE PUSH1 0x1 ADD PUSH2 0x3891 JUMP JUMPDEST PUSH2 0x38B2 DUP2 SLOAD PUSH2 0xA59 JUMP JUMPDEST SWAP1 DUP2 PUSH2 0x38BC JUMPI POP POP JUMP JUMPDEST DUP2 PUSH1 0x1F PUSH1 0x0 SWAP4 GT PUSH1 0x1 EQ PUSH2 0x38CE JUMPI POP SSTORE JUMP JUMPDEST SWAP1 DUP1 DUP4 SWAP2 DUP3 MSTORE PUSH2 0x38ED PUSH1 0x1F PUSH1 0x20 DUP5 KECCAK256 SWAP5 ADD PUSH1 0x5 SHR DUP5 ADD PUSH1 0x1 DUP6 ADD PUSH2 0x3891 JUMP JUMPDEST SSTORE SSTORE JUMP JUMPDEST SWAP1 PUSH2 0x3904 PUSH1 0x20 SWAP3 DUP3 DUP2 MLOAD SWAP5 DUP6 SWAP3 ADD PUSH2 0x683 JUMP JUMPDEST ADD SWAP1 JUMP JUMPDEST PUSH2 0x3911 DUP2 PUSH2 0x320C JUMP JUMPDEST ISZERO PUSH2 0x3988 JUMPI PUSH2 0x3932 PUSH2 0x392D DUP3 PUSH1 0x0 MSTORE PUSH1 0xA PUSH1 0x20 MSTORE PUSH1 0x40 PUSH1 0x0 KECCAK256 SWAP1 JUMP JUMPDEST PUSH2 0xB23 JUMP JUMPDEST SWAP1 PUSH2 0x393B PUSH2 0x3008 JUMP JUMPDEST DUP1 MLOAD ISZERO PUSH2 0x3983 JUMPI DUP3 MLOAD PUSH2 0x3953 JUMPI POP PUSH2 0x538 SWAP2 POP PUSH2 0x39E7 JUMP JUMPDEST PUSH2 0x538 SWAP2 POP PUSH2 0x3975 PUSH2 0x396F SWAP4 PUSH1 0x40 MLOAD SWAP5 DUP6 SWAP4 PUSH1 0x20 DUP6 ADD SWAP1 PUSH2 0x38F1 JUMP JUMPDEST SWAP1 PUSH2 0x38F1 JUMP JUMPDEST SUB PUSH1 0x1F NOT DUP2 ADD DUP4 MSTORE DUP3 PUSH2 0xB00 JUMP JUMPDEST POP POP SWAP1 JUMP JUMPDEST PUSH1 0x40 MLOAD PUSH3 0x461BCD PUSH1 0xE5 SHL DUP2 MSTORE PUSH1 0x20 PUSH1 0x4 DUP3 ADD MSTORE PUSH1 0x31 PUSH1 0x24 DUP3 ADD MSTORE PUSH32 0x45524337323155524953746F726167653A2055524920717565727920666F7220 PUSH1 0x44 DUP3 ADD MSTORE PUSH17 0x3737B732BC34B9BA32B73A103A37B5B2B7 PUSH1 0x79 SHL PUSH1 0x64 DUP3 ADD MSTORE PUSH1 0x84 SWAP1 REVERT JUMPDEST PUSH2 0x39F0 DUP2 PUSH2 0x320C JUMP JUMPDEST ISZERO PUSH2 0x3A34 JUMPI PUSH2 0x39FD PUSH2 0x3008 JUMP JUMPDEST DUP1 MLOAD SWAP1 SWAP2 SWAP1 ISZERO PUSH2 0x3A2A JUMPI PUSH2 0x396F SWAP2 PUSH2 0x3975 PUSH2 0x3A1A PUSH2 0x538 SWAP4 PUSH2 0x3AB1 JUMP JUMPDEST PUSH1 0x40 MLOAD SWAP5 DUP6 SWAP4 PUSH1 0x20 DUP6 ADD SWAP1 PUSH2 0x38F1 JUMP JUMPDEST POP POP PUSH2 0x538 PUSH2 0x3008 JUMP JUMPDEST PUSH1 0x40 MLOAD PUSH3 0x461BCD PUSH1 0xE5 SHL DUP2 MSTORE PUSH1 0x20 PUSH1 0x4 DUP3 ADD MSTORE PUSH1 0x2F PUSH1 0x24 DUP3 ADD MSTORE PUSH32 0x4552433732314D657461646174613A2055524920717565727920666F72206E6F PUSH1 0x44 DUP3 ADD MSTORE PUSH15 0x3732BC34B9BA32B73A103A37B5B2B7 PUSH1 0x89 SHL PUSH1 0x64 DUP3 ADD MSTORE PUSH1 0x84 SWAP1 REVERT JUMPDEST PUSH1 0x0 NOT DUP2 EQ PUSH2 0x1448 JUMPI PUSH1 0x1 ADD SWAP1 JUMP JUMPDEST SWAP1 DUP2 MLOAD DUP2 LT ISZERO PUSH2 0xF6A JUMPI ADD PUSH1 0x20 ADD SWAP1 JUMP JUMPDEST DUP1 ISZERO PUSH2 0x3B5A JUMPI DUP1 PUSH1 0x0 SWAP1 DUP3 DUP3 SWAP4 JUMPDEST PUSH2 0x3B46 JUMPI POP PUSH2 0x3ACD DUP4 PUSH2 0x1137 JUMP JUMPDEST SWAP3 PUSH2 0x3ADB PUSH1 0x40 MLOAD SWAP5 DUP6 PUSH2 0xB00 JUMP JUMPDEST DUP1 DUP5 MSTORE DUP2 PUSH1 0x1F NOT PUSH2 0x3AEB DUP4 PUSH2 0x1137 JUMP JUMPDEST ADD CALLDATASIZE PUSH1 0x20 DUP8 ADD CALLDATACOPY JUMPDEST PUSH2 0x3AFD JUMPI POP POP POP SWAP1 JUMP JUMPDEST PUSH2 0x3B06 SWAP1 PUSH2 0x3297 JUMP JUMPDEST SWAP1 PUSH1 0xA SWAP1 PUSH2 0x3B31 PUSH2 0x3B21 PUSH2 0x3B1B DUP5 DUP5 MOD PUSH2 0x32B4 JUMP JUMPDEST PUSH1 0xFF AND SWAP1 JUMP JUMPDEST PUSH1 0xF8 SHL PUSH1 0x1 PUSH1 0x1 PUSH1 0xF8 SHL SUB NOT AND SWAP1 JUMP JUMPDEST DUP5 BYTE PUSH2 0x3B3D DUP5 DUP8 PUSH2 0x3AA0 JUMP JUMPDEST MSTORE8 DIV SWAP1 DUP2 PUSH2 0x3AF3 JUMP JUMPDEST SWAP3 PUSH2 0x3B52 PUSH1 0xA SWAP2 PUSH2 0x3A91 JUMP JUMPDEST SWAP4 DIV DUP1 PUSH2 0x3ABF JUMP JUMPDEST POP PUSH1 0x40 DUP1 MLOAD SWAP1 DUP2 ADD PUSH1 0x1 PUSH1 0x1 PUSH1 0x40 SHL SUB DUP2 GT DUP3 DUP3 LT OR PUSH2 0xAC5 JUMPI PUSH1 0x40 MSTORE PUSH1 0x1 DUP2 MSTORE PUSH1 0x3 PUSH1 0xFC SHL PUSH1 0x20 DUP3 ADD MSTORE SWAP1 JUMP JUMPDEST PUSH1 0x0 SWAP1 DUP2 MSTORE PUSH1 0x11 PUSH1 0x20 MSTORE PUSH1 0x40 SWAP1 KECCAK256 SLOAD PUSH1 0x1 PUSH1 0x1 PUSH1 0xA0 SHL SUB AND DUP1 ISZERO PUSH2 0x3BA9 JUMPI SWAP1 JUMP JUMPDEST PUSH1 0x40 MLOAD PUSH3 0x461BCD PUSH1 0xE5 SHL DUP2 MSTORE PUSH1 0x20 PUSH1 0x4 DUP3 ADD MSTORE PUSH1 0xD PUSH1 0x24 DUP3 ADD MSTORE PUSH13 0x4E6F4173736574457869737473 PUSH1 0x98 SHL PUSH1 0x44 DUP3 ADD MSTORE PUSH1 0x64 SWAP1 REVERT JUMPDEST PUSH2 0x3BE7 DUP2 PUSH2 0x320C JUMP JUMPDEST ISZERO PUSH2 0x3C07 JUMPI PUSH1 0x0 SWAP1 DUP2 MSTORE PUSH1 0x10 PUSH1 0x20 MSTORE PUSH1 0x40 SWAP1 KECCAK256 SLOAD PUSH1 0x1 PUSH1 0x1 PUSH1 0xA0 SHL SUB AND SWAP1 JUMP JUMPDEST PUSH1 0x40 MLOAD PUSH3 0x461BCD PUSH1 0xE5 SHL DUP2 MSTORE PUSH1 0x20 PUSH1 0x4 DUP3 ADD MSTORE PUSH1 0x2C PUSH1 0x24 DUP3 ADD MSTORE PUSH32 0x4552433732313A20617070726F76656420717565727920666F72206E6F6E6578 PUSH1 0x44 DUP3 ADD MSTORE PUSH12 0x34B9BA32B73A103A37B5B2B7 PUSH1 0xA1 SHL PUSH1 0x64 DUP3 ADD MSTORE PUSH1 0x84 SWAP1 REVERT JUMPDEST ISZERO PUSH2 0x3C68 JUMPI JUMP JUMPDEST PUSH1 0x40 MLOAD PUSH3 0x461BCD PUSH1 0xE5 SHL DUP2 MSTORE PUSH1 0x20 PUSH1 0x4 DUP3 ADD MSTORE PUSH1 0x1C PUSH1 0x24 DUP3 ADD MSTORE PUSH28 0x115490CDCC8C4E881D1BDAD95B88185B1C9958591E481B5A5B9D1959 PUSH1 0x22 SHL PUSH1 0x44 DUP3 ADD MSTORE PUSH1 0x64 SWAP1 REVERT JUMPDEST SWAP2 SWAP1 PUSH1 0x1F DUP2 GT PUSH2 0x3CBB JUMPI POP POP POP JUMP JUMPDEST PUSH2 0xB61 SWAP3 PUSH1 0x0 MSTORE PUSH1 0x20 PUSH1 0x0 KECCAK256 SWAP1 PUSH1 0x20 PUSH1 0x1F DUP5 ADD PUSH1 0x5 SHR DUP4 ADD SWAP4 LT PUSH2 0x3CE7 JUMPI JUMPDEST PUSH1 0x1F ADD PUSH1 0x5 SHR ADD SWAP1 PUSH2 0x3891 JUMP JUMPDEST SWAP1 SWAP2 POP DUP2 SWAP1 PUSH2 0x3CDA JUMP JUMPDEST DUP2 MLOAD SWAP2 SWAP3 SWAP2 PUSH1 0x1 PUSH1 0x1 PUSH1 0x40 SHL SUB DUP2 GT PUSH2 0xAC5 JUMPI PUSH2 0x3D18 DUP2 PUSH2 0x3D12 DUP5 SLOAD PUSH2 0xA59 JUMP JUMPDEST DUP5 PUSH2 0x3CAC JUMP JUMPDEST PUSH1 0x20 DUP1 PUSH1 0x1F DUP4 GT PUSH1 0x1 EQ PUSH2 0x3D54 JUMPI POP DUP2 SWAP3 SWAP4 SWAP5 PUSH1 0x0 SWAP3 PUSH2 0x3D49 JUMPI JUMPDEST POP POP DUP2 PUSH1 0x1 SHL SWAP2 PUSH1 0x0 NOT SWAP1 PUSH1 0x3 SHL SHR NOT AND OR SWAP1 SSTORE JUMP JUMPDEST ADD MLOAD SWAP1 POP CODESIZE DUP1 PUSH2 0x3D33 JUMP JUMPDEST SWAP1 PUSH1 0x1F NOT DUP4 AND SWAP6 PUSH2 0x3D6A DUP6 PUSH1 0x0 MSTORE PUSH1 0x20 PUSH1 0x0 KECCAK256 SWAP1 JUMP JUMPDEST SWAP3 PUSH1 0x0 SWAP1 JUMPDEST DUP9 DUP3 LT PUSH2 0x3DA7 JUMPI POP POP DUP4 PUSH1 0x1 SWAP6 SWAP7 SWAP8 LT PUSH2 0x3D8E JUMPI JUMPDEST POP POP POP DUP2 SHL ADD SWAP1 SSTORE JUMP JUMPDEST ADD MLOAD PUSH1 0x0 NOT PUSH1 0xF8 DUP5 PUSH1 0x3 SHL AND SHR NOT AND SWAP1 SSTORE CODESIZE DUP1 DUP1 PUSH2 0x3D84 JUMP JUMPDEST DUP1 PUSH1 0x1 DUP6 SWAP7 DUP3 SWAP5 SWAP7 DUP7 ADD MLOAD DUP2 SSTORE ADD SWAP6 ADD SWAP4 ADD SWAP1 PUSH2 0x3D6F JUMP JUMPDEST SWAP2 SWAP1 SWAP2 PUSH2 0x3DCB DUP2 PUSH2 0x320C JUMP JUMPDEST ISZERO PUSH2 0x3E82 JUMPI PUSH1 0x0 MSTORE PUSH1 0x20 PUSH1 0xA DUP2 MSTORE PUSH1 0x40 PUSH1 0x0 KECCAK256 SWAP1 DUP4 MLOAD SWAP1 PUSH1 0x1 DUP1 PUSH1 0x40 SHL SUB DUP3 GT PUSH2 0xAC5 JUMPI PUSH2 0x3E03 DUP3 PUSH2 0x3DFD DUP6 SLOAD PUSH2 0xA59 JUMP JUMPDEST DUP6 PUSH2 0x3CAC JUMP JUMPDEST DUP1 PUSH1 0x1F DUP4 GT PUSH1 0x1 EQ PUSH2 0x3E31 JUMPI POP DUP2 SWAP3 SWAP4 SWAP5 PUSH1 0x0 SWAP3 PUSH2 0x3D49 JUMPI POP POP DUP2 PUSH1 0x1 SHL SWAP2 PUSH1 0x0 NOT SWAP1 PUSH1 0x3 SHL SHR NOT AND OR SWAP1 SSTORE JUMP JUMPDEST SWAP1 PUSH1 0x1F NOT DUP4 AND SWAP6 PUSH2 0x3E47 DUP6 PUSH1 0x0 MSTORE PUSH1 0x20 PUSH1 0x0 KECCAK256 SWAP1 JUMP JUMPDEST SWAP3 PUSH1 0x0 SWAP1 JUMPDEST DUP9 DUP3 LT PUSH2 0x3E6A JUMPI POP POP DUP4 PUSH1 0x1 SWAP6 SWAP7 SWAP8 LT PUSH2 0x3D8E JUMPI POP POP POP DUP2 SHL ADD SWAP1 SSTORE JUMP JUMPDEST DUP1 PUSH1 0x1 DUP6 SWAP7 DUP3 SWAP5 SWAP7 DUP7 ADD MLOAD DUP2 SSTORE ADD SWAP6 ADD SWAP4 ADD SWAP1 PUSH2 0x3E4C JUMP JUMPDEST PUSH1 0x40 MLOAD PUSH3 0x461BCD PUSH1 0xE5 SHL DUP2 MSTORE PUSH1 0x20 PUSH1 0x4 DUP3 ADD MSTORE PUSH1 0x2E PUSH1 0x24 DUP3 ADD MSTORE PUSH32 0x45524337323155524953746F726167653A2055524920736574206F66206E6F6E PUSH1 0x44 DUP3 ADD MSTORE PUSH14 0x32BC34B9BA32B73A103A37B5B2B7 PUSH1 0x91 SHL PUSH1 0x64 DUP3 ADD MSTORE PUSH1 0x84 SWAP1 REVERT JUMPDEST DUP2 MLOAD DUP1 MLOAD SWAP2 SWAP3 SWAP2 PUSH1 0x1 PUSH1 0x1 PUSH1 0x40 SHL SUB DUP2 GT PUSH2 0xAC5 JUMPI PUSH2 0x3F07 DUP2 PUSH2 0x3F01 DUP7 SLOAD PUSH2 0xA59 JUMP JUMPDEST DUP7 PUSH2 0x3CAC JUMP JUMPDEST PUSH1 0x20 SWAP2 DUP3 SWAP1 PUSH1 0x1F DUP4 GT PUSH1 0x1 EQ PUSH2 0x3F7D JUMPI SWAP3 DUP3 PUSH1 0x5 SWAP6 SWAP4 PUSH2 0x3F4D SWAP4 PUSH1 0xA0 SWAP7 PUSH1 0x0 SWAP3 PUSH2 0x3F72 JUMPI JUMPDEST POP POP DUP2 PUSH1 0x1 SHL SWAP2 PUSH1 0x0 NOT SWAP1 PUSH1 0x3 SHL SHR NOT AND OR DUP7 SSTORE JUMPDEST DUP3 ADD MLOAD PUSH1 0x1 DUP7 ADD PUSH2 0x3CF1 JUMP JUMPDEST PUSH1 0x40 DUP2 ADD MLOAD PUSH1 0x2 DUP6 ADD SSTORE PUSH1 0x60 DUP2 ADD MLOAD PUSH1 0x3 DUP6 ADD SSTORE PUSH1 0x80 DUP2 ADD MLOAD PUSH1 0x4 DUP6 ADD SSTORE ADD MLOAD SWAP2 ADD SSTORE JUMP JUMPDEST ADD MLOAD SWAP1 POP CODESIZE DUP1 PUSH2 0x3F2C JUMP JUMPDEST SWAP1 PUSH1 0x1F NOT DUP4 AND SWAP2 PUSH2 0x3F93 DUP8 PUSH1 0x0 MSTORE PUSH1 0x20 PUSH1 0x0 KECCAK256 SWAP1 JUMP JUMPDEST SWAP3 PUSH1 0x0 JUMPDEST DUP2 DUP2 LT PUSH2 0x3FDC JUMPI POP SWAP4 PUSH2 0x3F4D SWAP4 PUSH1 0xA0 SWAP7 SWAP4 PUSH1 0x1 SWAP4 DUP4 PUSH1 0x5 SWAP11 SWAP9 LT PUSH2 0x3FC3 JUMPI JUMPDEST POP POP POP DUP2 SHL ADD DUP7 SSTORE PUSH2 0x3F41 JUMP JUMPDEST ADD MLOAD PUSH1 0x0 NOT PUSH1 0xF8 DUP5 PUSH1 0x3 SHL AND SHR NOT AND SWAP1 SSTORE CODESIZE DUP1 DUP1 PUSH2 0x3FB6 JUMP JUMPDEST SWAP3 SWAP4 DUP7 PUSH1 0x1 DUP2 SWAP3 DUP8 DUP7 ADD MLOAD DUP2 SSTORE ADD SWAP6 ADD SWAP4 ADD PUSH2 0x3F97 JUMP JUMPDEST DUP2 MLOAD SWAP2 PUSH1 0x1 PUSH1 0x40 SHL DUP4 GT PUSH2 0xAC5 JUMPI DUP2 SLOAD DUP4 DUP4 SSTORE DUP1 DUP5 LT PUSH2 0x4052 JUMPI JUMPDEST POP PUSH2 0x4023 PUSH1 0x20 DUP1 SWAP3 ADD SWAP3 PUSH1 0x0 MSTORE PUSH1 0x20 PUSH1 0x0 KECCAK256 SWAP1 JUMP JUMPDEST PUSH1 0x0 SWAP3 JUMPDEST DUP5 DUP5 LT PUSH2 0x4035 JUMPI POP POP POP POP POP JUMP JUMPDEST PUSH1 0x6 DUP4 DUP3 PUSH2 0x4046 PUSH1 0x1 SWAP5 MLOAD DUP7 PUSH2 0x3EDE JUMP JUMPDEST ADD SWAP3 ADD SWAP4 ADD SWAP3 SWAP1 PUSH2 0x4027 JUMP JUMPDEST PUSH1 0x6 SWAP1 DUP1 DUP3 MUL SWAP1 DUP3 DUP3 DIV SUB PUSH2 0x1448 JUMPI DUP5 DUP3 MUL DUP3 DUP2 DIV DUP7 SUB PUSH2 0x1448 JUMPI PUSH1 0x0 SWAP1 DUP6 DUP3 MSTORE PUSH1 0x20 DUP3 KECCAK256 SWAP3 DUP4 ADD SWAP3 ADD JUMPDEST DUP3 DUP2 LT PUSH2 0x408C JUMPI POP POP POP PUSH2 0x400E JUMP JUMPDEST DUP1 PUSH2 0x4097 DUP6 SWAP3 PUSH2 0x38A8 JUMP JUMPDEST PUSH2 0x40A3 PUSH1 0x1 DUP3 ADD PUSH2 0x38A8 JUMP JUMPDEST DUP3 PUSH1 0x2 DUP3 ADD SSTORE DUP3 PUSH1 0x3 DUP3 ADD SSTORE DUP3 PUSH1 0x4 DUP3 ADD SSTORE DUP3 PUSH1 0x5 DUP3 ADD SSTORE ADD PUSH2 0x407D JUMP JUMPDEST SWAP1 PUSH1 0x4 DUP2 LT ISZERO PUSH2 0xBE9 JUMPI PUSH1 0xFF DUP1 NOT DUP4 SLOAD AND SWAP2 AND OR SWAP1 SSTORE JUMP JUMPDEST DUP2 MLOAD SWAP2 PUSH1 0x1 PUSH1 0x40 SHL DUP4 GT PUSH2 0xAC5 JUMPI DUP2 SLOAD DUP4 DUP4 SSTORE DUP1 DUP5 LT PUSH2 0x4137 JUMPI JUMPDEST POP PUSH2 0x4109 PUSH1 0x20 DUP1 SWAP3 ADD SWAP3 PUSH1 0x0 MSTORE PUSH1 0x20 PUSH1 0x0 KECCAK256 SWAP1 JUMP JUMPDEST PUSH1 0x0 SWAP3 JUMPDEST DUP5 DUP5 LT PUSH2 0x411B JUMPI POP POP POP POP POP JUMP JUMPDEST PUSH1 0x1 DUP4 DUP3 PUSH2 0x412B DUP4 SWAP5 MLOAD DUP7 PUSH2 0x3CF1 JUMP JUMPDEST ADD SWAP3 ADD SWAP4 ADD SWAP3 SWAP1 PUSH2 0x410D JUMP JUMPDEST DUP3 PUSH1 0x0 MSTORE DUP4 PUSH1 0x20 PUSH1 0x0 KECCAK256 SWAP2 DUP3 ADD SWAP2 ADD JUMPDEST DUP2 DUP2 LT PUSH2 0x4154 JUMPI POP PUSH2 0x40F4 JUMP JUMPDEST DUP1 PUSH2 0x4160 PUSH1 0x1 SWAP3 PUSH2 0x38A8 JUMP JUMPDEST ADD PUSH2 0x4147 JUMP JUMPDEST SWAP1 PUSH1 0x5 DUP2 LT ISZERO PUSH2 0xBE9 JUMPI PUSH1 0xFF DUP1 NOT DUP4 SLOAD AND SWAP2 AND OR SWAP1 SSTORE JUMP JUMPDEST SWAP1 DUP2 SLOAD PUSH2 0x418A DUP2 PUSH2 0x222C JUMP JUMPDEST SWAP3 PUSH1 0x40 SWAP4 PUSH2 0x419A DUP6 MLOAD SWAP2 DUP3 PUSH2 0xB00 JUMP JUMPDEST DUP3 DUP2 MSTORE DUP1 SWAP5 PUSH1 0x20 DUP1 SWAP3 ADD SWAP3 PUSH1 0x0 MSTORE DUP2 PUSH1 0x0 KECCAK256 SWAP1 PUSH1 0x0 SWAP4 JUMPDEST DUP6 DUP6 LT PUSH2 0x41C0 JUMPI POP POP POP POP POP POP JUMP JUMPDEST PUSH1 0x6 DUP5 PUSH1 0x1 SWAP3 DUP5 MLOAD PUSH2 0x41D1 DUP2 PUSH2 0xACA JUMP JUMPDEST PUSH2 0x41DA DUP8 PUSH2 0xB23 JUMP JUMPDEST DUP2 MSTORE PUSH2 0x41E7 DUP6 DUP9 ADD PUSH2 0xB23 JUMP JUMPDEST DUP4 DUP3 ADD MSTORE PUSH1 0x2 DUP8 ADD SLOAD DUP7 DUP3 ADD MSTORE PUSH1 0x3 DUP8 ADD SLOAD PUSH1 0x60 DUP3 ADD MSTORE PUSH1 0x4 DUP8 ADD SLOAD PUSH1 0x80 DUP3 ADD MSTORE PUSH1 0x5 DUP8 ADD SLOAD PUSH1 0xA0 DUP3 ADD MSTORE DUP2 MSTORE ADD SWAP4 ADD SWAP5 ADD SWAP4 SWAP2 PUSH2 0x41B1 JUMP JUMPDEST PUSH1 0x4 DUP3 LT ISZERO PUSH2 0xBE9 JUMPI MSTORE JUMP JUMPDEST SWAP1 DUP2 SLOAD PUSH2 0x4238 DUP2 PUSH2 0x222C JUMP JUMPDEST SWAP3 PUSH2 0x4246 PUSH1 0x40 MLOAD SWAP5 DUP6 PUSH2 0xB00 JUMP JUMPDEST DUP2 DUP5 MSTORE PUSH1 0x0 SWAP1 DUP2 MSTORE PUSH1 0x20 DUP1 DUP3 KECCAK256 DUP2 DUP7 ADD JUMPDEST DUP5 DUP5 LT PUSH2 0x4265 JUMPI POP POP POP POP POP JUMP JUMPDEST PUSH1 0x1 DUP4 DUP2 SWAP3 PUSH2 0x4273 DUP6 PUSH2 0xB23 JUMP JUMPDEST DUP2 MSTORE ADD SWAP3 ADD SWAP4 ADD SWAP3 SWAP1 PUSH2 0x4257 JUMP JUMPDEST PUSH1 0x5 DUP3 LT ISZERO PUSH2 0xBE9 JUMPI MSTORE JUMP JUMPDEST SWAP1 PUSH2 0xB61 PUSH2 0x435E PUSH1 0xB PUSH2 0x429E PUSH2 0x112A JUMP JUMPDEST SWAP5 DUP1 SLOAD DUP7 MSTORE PUSH1 0x1 DUP2 ADD SLOAD PUSH1 0x20 DUP8 ADD MSTORE PUSH2 0x42B9 PUSH1 0x2 DUP3 ADD PUSH2 0xB23 JUMP JUMPDEST PUSH1 0x40 DUP8 ADD MSTORE PUSH2 0x42CA PUSH1 0x3 DUP3 ADD PUSH2 0xB23 JUMP JUMPDEST PUSH1 0x60 DUP8 ADD MSTORE PUSH2 0x42DB PUSH1 0x4 DUP3 ADD PUSH2 0xB23 JUMP JUMPDEST PUSH1 0x80 DUP8 ADD MSTORE PUSH1 0x5 DUP2 ADD SLOAD PUSH1 0xA0 DUP8 ADD MSTORE PUSH1 0x6 DUP2 ADD SLOAD PUSH1 0xC0 DUP8 ADD MSTORE PUSH2 0x4300 PUSH1 0x7 DUP3 ADD PUSH2 0x417E JUMP JUMPDEST PUSH1 0xE0 DUP8 ADD MSTORE PUSH2 0x4332 PUSH1 0x8 DUP3 ADD SLOAD PUSH2 0x431E PUSH1 0xFF DUP3 AND PUSH2 0x100 DUP11 ADD PUSH2 0x4220 JUMP JUMPDEST PUSH1 0x8 SHR PUSH1 0x1 PUSH1 0x1 PUSH1 0xA0 SHL SUB AND PUSH2 0x120 DUP9 ADD MSTORE JUMP JUMPDEST PUSH2 0x433E PUSH1 0x9 DUP3 ADD PUSH2 0xB23 JUMP JUMPDEST PUSH2 0x140 DUP8 ADD MSTORE PUSH2 0x4350 PUSH1 0xA DUP3 ADD PUSH2 0x422C JUMP JUMPDEST PUSH2 0x160 DUP8 ADD MSTORE ADD SLOAD PUSH1 0xFF AND SWAP1 JUMP JUMPDEST PUSH2 0x180 DUP5 ADD PUSH2 0x4281 JUMP JUMPDEST DUP1 SLOAD DUP3 LT ISZERO PUSH2 0xF6A JUMPI PUSH1 0x0 MSTORE PUSH1 0x6 PUSH1 0x20 PUSH1 0x0 KECCAK256 SWAP2 MUL ADD SWAP1 PUSH1 0x0 SWAP1 JUMP JUMPDEST DUP1 SLOAD PUSH1 0x1 PUSH1 0x40 SHL DUP2 LT ISZERO PUSH2 0xAC5 JUMPI PUSH2 0x43A1 SWAP2 PUSH1 0x1 DUP3 ADD DUP2 SSTORE PUSH2 0xF52 JUMP JUMPDEST DUP2 SWAP3 SWAP2 SLOAD SWAP1 PUSH1 0x3 SHL SWAP2 PUSH1 0x1 DUP1 PUSH1 0xA0 SHL SUB DUP1 SWAP2 AND DUP4 SHL SWAP3 SHL NOT AND OR SWAP1 SSTORE JUMP JUMPDEST SWAP1 PUSH2 0x43C9 DUP3 PUSH2 0x222C JUMP JUMPDEST PUSH2 0x43D6 PUSH1 0x40 MLOAD SWAP2 DUP3 PUSH2 0xB00 JUMP JUMPDEST DUP3 DUP2 MSTORE DUP1 SWAP3 PUSH2 0x43E7 PUSH1 0x1F NOT SWAP2 PUSH2 0x222C JUMP JUMPDEST ADD SWAP1 PUSH1 0x20 CALLDATASIZE SWAP2 ADD CALLDATACOPY JUMP JUMPDEST DUP1 MLOAD DUP3 LT ISZERO PUSH2 0xF6A JUMPI PUSH1 0x20 SWAP2 PUSH1 0x5 SHL ADD ADD SWAP1 JUMP INVALID PUSH7 0xDE8FFDA797E3DE SWAP13 SDIV 0xE8 0xFC JUMPI 0xB3 0xBF 0xE 0xC2 DUP11 SWAP4 0xD BLOCKHASH 0xB0 0xD2 DUP6 0xD9 EXTCODECOPY MOD POP SHR 0xF6 LOG0 SWAP1 DUP12 0xE0 SMOD SWAP13 MSTORE8 AND MSIZE EQ SGT PREVRANDAO 0xCD 0x1F 0xD0 LOG4 CALLCODE DUP5 NOT 0x49 PUSH32 0x9722A3DAAFE3B4186F6B6457E0F3F7A9FE364FAAB93B216DA50A3214154F22A0 LOG2 0xB4 ISZERO 0xB2 GASPRICE DUP5 0xC8 AND SWAP15 DUP12 PUSH4 0x6EE3DDF2 MSTORE 0xAD SHL 0xE2 0xC8 SWAP12 PUSH10 0xC2B068FC378DAA952BA7 CALL PUSH4 0xC4A11628 CREATE2 GAS 0x4D CREATE2 0x23 0xB3 0xEF DUP13 JUMPDEST 0xE1 0xE5 0xEB 0xEC PUSH30 0x5BD14F71427D1E84F3DD0314C0F7B2291E5B200AC8C7C3B925A264697066 PUSH20 0x58221220F737762FBC1FAA179F3AB77AFB22C467 JUMP 0xB5 CALLER 0x4A SMOD TIMESTAMP PUSH1 0x68 0xAC 0xB6 PUSH14 0x41BEE2B86D64736F6C6343000813 STOP CALLER "},"gasEstimates":{"creation":{"codeDepositCost":"3525400","executionCost":"infinite","totalCost":"infinite"},"external":{"_addAsset(uint256,(uint256,uint256,string,string,string,uint256,uint256,(string,string,uint256,uint256,uint256,uint256)[],uint8,address,string,string[],uint8),address)":"infinite","activeAssets(uint256)":"infinite","addInvestment(uint256,address,uint256)":"infinite","addInvestor(uint256,address)":"infinite","allowRefunding(uint256,bool)":"26219","allowTransfers(uint256,bool)":"25977","approve(address,uint256)":"28937","assetApprovals(uint256)":"2390","assetExists(uint256)":"2978","assetInvestors(uint256,uint256)":"8030","assetMap(uint256)":"infinite","assetOwner(uint256)":"2632","assetsCount()":"3648","balanceOf()":"3208","balanceOf(address)":"3281","burn(uint256)":"infinite","categoryAssets(uint8,uint256)":"7514","clearApproval(uint256,address)":"26037","completedAssets(uint256)":"4782","exists(uint256)":"2934","failedAssets(uint256)":"6058","fundedAssets(uint256)":"5332","getActiveAssets()":"infinite","getApproved(uint256)":"4749","getAsset(uint256)":"infinite","getAssetInvestors(uint256)":"infinite","getAssetsByCategory(uint8)":"infinite","getAssetsCount()":"2416","getAssetsOfOwner(address)":"infinite","getCompletedAssets()":"infinite","getFailedAssets()":"infinite","getFundedAssets()":"infinite","getInvestmentAmount(uint256,address)":"3763","getInvestorAssets(address)":"infinite","getInvestorTokens(uint256,address)":"infinite","getTotalInvestment(uint256)":"2724","getTotalInvestors(uint256)":"2768","handleRewardAddedToAsset(uint256,string,string,uint256,uint256,bytes32)":"infinite","incrementAssetsCount()":"24707","investmentAmountOf(uint256,address)":"3675","investmentReceived(uint256)":"3626","investmentRefunded(uint256)":"4041","investorAssets(address,uint256)":"7927","investorTokens(uint256,address,uint256)":"3957","isApprovedForAll(address,address)":"4158","isApprovedOrOwner(address,uint256)":"9825","isRefundingAllowed(uint256)":"3110","isTransferAllowed(uint256)":"3550","mint(address,uint256,string)":"infinite","name()":"infinite","ownedAssetsCount(address)":"3271","owner()":"3285","ownerOf(uint256)":"3185","ownerToAssets(address,uint256)":"7905","pause()":"26420","paused()":"2956","pendingReturns(uint256,address)":"3521","renounceOwnership()":"26805","safeTransferFrom(address,address,uint256)":"infinite","safeTransferFrom(address,address,uint256,bytes)":"infinite","setApprovalForAll(address,bool)":"27609","supportsInterface(bytes4)":"451","symbol()":"infinite","tokenByIndex(uint256)":"infinite","tokenOfOwnerByIndex(address,uint256)":"5118","tokenURI(uint256)":"infinite","totalInvestment(uint256)":"2680","totalInvestors(uint256)":"2988","totalSupply()":"2504","transfer(address,uint256)":"infinite","transferFrom(address,address,uint256)":"infinite","transferOwnership(address)":"29880","unpause()":"25966","updateAsset(uint256,(uint256,uint256,string,string,string,uint256,uint256,(string,string,uint256,uint256,uint256,uint256)[],uint8,address,string,string[],uint8))":"infinite","updateAssetReward(uint256,uint256,uint256)":"27730","updateInvestmentRefunded(uint256,uint256)":"23020","updateInvestorTokens(uint256,address,uint256,uint256)":"23974","updatePendingReturns(uint256,address,uint256)":"22726","updateRewardTokenAddress(uint256,address)":"24997"},"internal":{"_baseURI()":"infinite","_beforeTokenTransfer(address,address,uint256)":"infinite","_burn(uint256)":"infinite"}},"methodIdentifiers":{"_addAsset(uint256,(uint256,uint256,string,string,string,uint256,uint256,(string,string,uint256,uint256,uint256,uint256)[],uint8,address,string,string[],uint8),address)":"dc289f48","activeAssets(uint256)":"86887e1b","addInvestment(uint256,address,uint256)":"79f48424","addInvestor(uint256,address)":"bbe30722","allowRefunding(uint256,bool)":"fbdc985a","allowTransfers(uint256,bool)":"d86da278","approve(address,uint256)":"095ea7b3","assetApprovals(uint256)":"03385770","assetExists(uint256)":"518e2bdd","assetInvestors(uint256,uint256)":"c619c4a2","assetMap(uint256)":"129f9008","assetOwner(uint256)":"2a0ee644","assetsCount()":"cd9df190","balanceOf()":"722713f7","balanceOf(address)":"70a08231","burn(uint256)":"42966c68","categoryAssets(uint8,uint256)":"68ad1c79","clearApproval(uint256,address)":"daa5fe2d","completedAssets(uint256)":"33a90c36","exists(uint256)":"4f558e79","failedAssets(uint256)":"f35b25a8","fundedAssets(uint256)":"84bbffe7","getActiveAssets()":"0fd8aee8","getApproved(uint256)":"081812fc","getAsset(uint256)":"eac8f5b8","getAssetInvestors(uint256)":"07c90547","getAssetsByCategory(uint8)":"a2311d5f","getAssetsCount()":"0aac5dfd","getAssetsOfOwner(address)":"f3ab880e","getCompletedAssets()":"b5ff2582","getFailedAssets()":"3d3eb314","getFundedAssets()":"01bdc460","getInvestmentAmount(uint256,address)":"bb7e385a","getInvestorAssets(address)":"e9e7854c","getInvestorTokens(uint256,address)":"ebcab605","getTotalInvestment(uint256)":"34422a47","getTotalInvestors(uint256)":"3adc860e","handleRewardAddedToAsset(uint256,string,string,uint256,uint256,bytes32)":"3f9aa154","incrementAssetsCount()":"2c5bdb1f","investmentAmountOf(uint256,address)":"ae908698","investmentReceived(uint256)":"c0adb910","investmentRefunded(uint256)":"fd27ff81","investorAssets(address,uint256)":"ae7d9553","investorTokens(uint256,address,uint256)":"cbeaba77","isApprovedForAll(address,address)":"e985e9c5","isApprovedOrOwner(address,uint256)":"430c2081","isRefundingAllowed(uint256)":"6dd501d7","isTransferAllowed(uint256)":"b6160915","mint(address,uint256,string)":"d3fc9864","name()":"06fdde03","ownedAssetsCount(address)":"77394a73","owner()":"8da5cb5b","ownerOf(uint256)":"6352211e","ownerToAssets(address,uint256)":"adc649e1","pause()":"8456cb59","paused()":"5c975abb","pendingReturns(uint256,address)":"8ddac1ef","renounceOwnership()":"715018a6","safeTransferFrom(address,address,uint256)":"42842e0e","safeTransferFrom(address,address,uint256,bytes)":"b88d4fde","setApprovalForAll(address,bool)":"a22cb465","supportsInterface(bytes4)":"01ffc9a7","symbol()":"95d89b41","tokenByIndex(uint256)":"4f6ccce7","tokenOfOwnerByIndex(address,uint256)":"2f745c59","tokenURI(uint256)":"c87b56dd","totalInvestment(uint256)":"32a64370","totalInvestors(uint256)":"5531ad6a","totalSupply()":"18160ddd","transfer(address,uint256)":"a9059cbb","transferFrom(address,address,uint256)":"23b872dd","transferOwnership(address)":"f2fde38b","unpause()":"3f4ba83a","updateAsset(uint256,(uint256,uint256,string,string,string,uint256,uint256,(string,string,uint256,uint256,uint256,uint256)[],uint8,address,string,string[],uint8))":"e14ca948","updateAssetReward(uint256,uint256,uint256)":"87a115e6","updateInvestmentRefunded(uint256,uint256)":"5d0dead2","updateInvestorTokens(uint256,address,uint256,uint256)":"d166e4ee","updatePendingReturns(uint256,address,uint256)":"14fcde03","updateRewardTokenAddress(uint256,address)":"34899521"}},"storageLayout":{"storage":[{"astId":2233,"contract":"contracts/NFTVenture.sol:NFTVenture","label":"_name","offset":0,"slot":"0","type":"t_string_storage"},{"astId":2235,"contract":"contracts/NFTVenture.sol:NFTVenture","label":"_symbol","offset":0,"slot":"1","type":"t_string_storage"},{"astId":2239,"contract":"contracts/NFTVenture.sol:NFTVenture","label":"_owners","offset":0,"slot":"2","type":"t_mapping(t_uint256,t_address)"},{"astId":2243,"contract":"contracts/NFTVenture.sol:NFTVenture","label":"_balances","offset":0,"slot":"3","type":"t_mapping(t_address,t_uint256)"},{"astId":2247,"contract":"contracts/NFTVenture.sol:NFTVenture","label":"_tokenApprovals","offset":0,"slot":"4","type":"t_mapping(t_uint256,t_address)"},{"astId":2253,"contract":"contracts/NFTVenture.sol:NFTVenture","label":"_operatorApprovals","offset":0,"slot":"5","type":"t_mapping(t_address,t_mapping(t_address,t_bool))"},{"astId":3206,"contract":"contracts/NFTVenture.sol:NFTVenture","label":"_ownedTokens","offset":0,"slot":"6","type":"t_mapping(t_address,t_mapping(t_uint256,t_uint256))"},{"astId":3210,"contract":"contracts/NFTVenture.sol:NFTVenture","label":"_ownedTokensIndex","offset":0,"slot":"7","type":"t_mapping(t_uint256,t_uint256)"},{"astId":3213,"contract":"contracts/NFTVenture.sol:NFTVenture","label":"_allTokens","offset":0,"slot":"8","type":"t_array(t_uint256)dyn_storage"},{"astId":3217,"contract":"contracts/NFTVenture.sol:NFTVenture","label":"_allTokensIndex","offset":0,"slot":"9","type":"t_mapping(t_uint256,t_uint256)"},{"astId":3542,"contract":"contracts/NFTVenture.sol:NFTVenture","label":"_tokenURIs","offset":0,"slot":"10","type":"t_mapping(t_uint256,t_string_storage)"},{"astId":127,"contract":"contracts/NFTVenture.sol:NFTVenture","label":"_paused","offset":0,"slot":"11","type":"t_bool"},{"astId":7,"contract":"contracts/NFTVenture.sol:NFTVenture","label":"_owner","offset":1,"slot":"11","type":"t_address"},{"astId":6124,"contract":"contracts/NFTVenture.sol:NFTVenture","label":"assetsCount","offset":0,"slot":"12","type":"t_uint256"},{"astId":6129,"contract":"contracts/NFTVenture.sol:NFTVenture","label":"assetMap","offset":0,"slot":"13","type":"t_mapping(t_uint256,t_struct(Asset)4654_storage)"},{"astId":6133,"contract":"contracts/NFTVenture.sol:NFTVenture","label":"assetExists","offset":0,"slot":"14","type":"t_mapping(t_uint256,t_bool)"},{"astId":6138,"contract":"contracts/NFTVenture.sol:NFTVenture","label":"ownerToAssets","offset":0,"slot":"15","type":"t_mapping(t_address,t_array(t_uint256)dyn_storage)"},{"astId":6142,"contract":"contracts/NFTVenture.sol:NFTVenture","label":"assetApprovals","offset":0,"slot":"16","type":"t_mapping(t_uint256,t_address)"},{"astId":6146,"contract":"contracts/NFTVenture.sol:NFTVenture","label":"assetOwner","offset":0,"slot":"17","type":"t_mapping(t_uint256,t_address)"},{"astId":6150,"contract":"contracts/NFTVenture.sol:NFTVenture","label":"ownedAssetsCount","offset":0,"slot":"18","type":"t_mapping(t_address,t_uint256)"},{"astId":6153,"contract":"contracts/NFTVenture.sol:NFTVenture","label":"activeAssets","offset":0,"slot":"19","type":"t_array(t_uint256)dyn_storage"},{"astId":6156,"contract":"contracts/NFTVenture.sol:NFTVenture","label":"fundedAssets","offset":0,"slot":"20","type":"t_array(t_uint256)dyn_storage"},{"astId":6159,"contract":"contracts/NFTVenture.sol:NFTVenture","label":"failedAssets","offset":0,"slot":"21","type":"t_array(t_uint256)dyn_storage"},{"astId":6162,"contract":"contracts/NFTVenture.sol:NFTVenture","label":"completedAssets","offset":0,"slot":"22","type":"t_array(t_uint256)dyn_storage"},{"astId":6168,"contract":"contracts/NFTVenture.sol:NFTVenture","label":"categoryAssets","offset":0,"slot":"23","type":"t_mapping(t_enum(Category)4598,t_array(t_uint256)dyn_storage)"},{"astId":6174,"contract":"contracts/NFTVenture.sol:NFTVenture","label":"investmentAmountOf","offset":0,"slot":"24","type":"t_mapping(t_uint256,t_mapping(t_address,t_uint256))"},{"astId":6178,"contract":"contracts/NFTVenture.sol:NFTVenture","label":"investmentReceived","offset":0,"slot":"25","type":"t_mapping(t_uint256,t_uint256)"},{"astId":6183,"contract":"contracts/NFTVenture.sol:NFTVenture","label":"assetInvestors","offset":0,"slot":"26","type":"t_mapping(t_uint256,t_array(t_address)dyn_storage)"},{"astId":6187,"contract":"contracts/NFTVenture.sol:NFTVenture","label":"isTransferAllowed","offset":0,"slot":"27","type":"t_mapping(t_uint256,t_bool)"},{"astId":6191,"contract":"contracts/NFTVenture.sol:NFTVenture","label":"isRefundingAllowed","offset":0,"slot":"28","type":"t_mapping(t_uint256,t_bool)"},{"astId":6195,"contract":"contracts/NFTVenture.sol:NFTVenture","label":"investmentRefunded","offset":0,"slot":"29","type":"t_mapping(t_uint256,t_uint256)"},{"astId":6201,"contract":"contracts/NFTVenture.sol:NFTVenture","label":"pendingReturns","offset":0,"slot":"30","type":"t_mapping(t_uint256,t_mapping(t_address,t_uint256))"},{"astId":6209,"contract":"contracts/NFTVenture.sol:NFTVenture","label":"investorTokens","offset":0,"slot":"31","type":"t_mapping(t_uint256,t_mapping(t_address,t_mapping(t_uint256,t_uint256)))"},{"astId":6213,"contract":"contracts/NFTVenture.sol:NFTVenture","label":"totalInvestors","offset":0,"slot":"32","type":"t_mapping(t_uint256,t_uint256)"},{"astId":6217,"contract":"contracts/NFTVenture.sol:NFTVenture","label":"totalInvestment","offset":0,"slot":"33","type":"t_mapping(t_uint256,t_uint256)"},{"astId":6222,"contract":"contracts/NFTVenture.sol:NFTVenture","label":"investorAssets","offset":0,"slot":"34","type":"t_mapping(t_address,t_array(t_uint256)dyn_storage)"}],"types":{"t_address":{"encoding":"inplace","label":"address","numberOfBytes":"20"},"t_array(t_address)dyn_storage":{"base":"t_address","encoding":"dynamic_array","label":"address[]","numberOfBytes":"32"},"t_array(t_string_storage)dyn_storage":{"base":"t_string_storage","encoding":"dynamic_array","label":"string[]","numberOfBytes":"32"},"t_array(t_struct(Reward)4611_storage)dyn_storage":{"base":"t_struct(Reward)4611_storage","encoding":"dynamic_array","label":"struct Reward[]","numberOfBytes":"32"},"t_array(t_uint256)dyn_storage":{"base":"t_uint256","encoding":"dynamic_array","label":"uint256[]","numberOfBytes":"32"},"t_bool":{"encoding":"inplace","label":"bool","numberOfBytes":"1"},"t_enum(Category)4598":{"encoding":"inplace","label":"enum Category","numberOfBytes":"1"},"t_enum(ProjectStatus)4592":{"encoding":"inplace","label":"enum ProjectStatus","numberOfBytes":"1"},"t_mapping(t_address,t_array(t_uint256)dyn_storage)":{"encoding":"mapping","key":"t_address","label":"mapping(address => uint256[])","numberOfBytes":"32","value":"t_array(t_uint256)dyn_storage"},"t_mapping(t_address,t_bool)":{"encoding":"mapping","key":"t_address","label":"mapping(address => bool)","numberOfBytes":"32","value":"t_bool"},"t_mapping(t_address,t_mapping(t_address,t_bool))":{"encoding":"mapping","key":"t_address","label":"mapping(address => mapping(address => bool))","numberOfBytes":"32","value":"t_mapping(t_address,t_bool)"},"t_mapping(t_address,t_mapping(t_uint256,t_uint256))":{"encoding":"mapping","key":"t_address","label":"mapping(address => mapping(uint256 => uint256))","numberOfBytes":"32","value":"t_mapping(t_uint256,t_uint256)"},"t_mapping(t_address,t_uint256)":{"encoding":"mapping","key":"t_address","label":"mapping(address => uint256)","numberOfBytes":"32","value":"t_uint256"},"t_mapping(t_enum(Category)4598,t_array(t_uint256)dyn_storage)":{"encoding":"mapping","key":"t_enum(Category)4598","label":"mapping(enum Category => uint256[])","numberOfBytes":"32","value":"t_array(t_uint256)dyn_storage"},"t_mapping(t_uint256,t_address)":{"encoding":"mapping","key":"t_uint256","label":"mapping(uint256 => address)","numberOfBytes":"32","value":"t_address"},"t_mapping(t_uint256,t_array(t_address)dyn_storage)":{"encoding":"mapping","key":"t_uint256","label":"mapping(uint256 => address[])","numberOfBytes":"32","value":"t_array(t_address)dyn_storage"},"t_mapping(t_uint256,t_bool)":{"encoding":"mapping","key":"t_uint256","label":"mapping(uint256 => bool)","numberOfBytes":"32","value":"t_bool"},"t_mapping(t_uint256,t_mapping(t_address,t_mapping(t_uint256,t_uint256)))":{"encoding":"mapping","key":"t_uint256","label":"mapping(uint256 => mapping(address => mapping(uint256 => uint256)))","numberOfBytes":"32","value":"t_mapping(t_address,t_mapping(t_uint256,t_uint256))"},"t_mapping(t_uint256,t_mapping(t_address,t_uint256))":{"encoding":"mapping","key":"t_uint256","label":"mapping(uint256 => mapping(address => uint256))","numberOfBytes":"32","value":"t_mapping(t_address,t_uint256)"},"t_mapping(t_uint256,t_string_storage)":{"encoding":"mapping","key":"t_uint256","label":"mapping(uint256 => string)","numberOfBytes":"32","value":"t_string_storage"},"t_mapping(t_uint256,t_struct(Asset)4654_storage)":{"encoding":"mapping","key":"t_uint256","label":"mapping(uint256 => struct Asset)","numberOfBytes":"32","value":"t_struct(Asset)4654_storage"},"t_mapping(t_uint256,t_uint256)":{"encoding":"mapping","key":"t_uint256","label":"mapping(uint256 => uint256)","numberOfBytes":"32","value":"t_uint256"},"t_string_storage":{"encoding":"bytes","label":"string","numberOfBytes":"32"},"t_struct(Asset)4654_storage":{"encoding":"inplace","label":"struct Asset","members":[{"astId":4624,"contract":"contracts/NFTVenture.sol:NFTVenture","label":"assetId","offset":0,"slot":"0","type":"t_uint256"},{"astId":4626,"contract":"contracts/NFTVenture.sol:NFTVenture","label":"price","offset":0,"slot":"1","type":"t_uint256"},{"astId":4628,"contract":"contracts/NFTVenture.sol:NFTVenture","label":"author","offset":0,"slot":"2","type":"t_string_storage"},{"astId":4630,"contract":"contracts/NFTVenture.sol:NFTVenture","label":"title","offset":0,"slot":"3","type":"t_string_storage"},{"astId":4632,"contract":"contracts/NFTVenture.sol:NFTVenture","label":"description","offset":0,"slot":"4","type":"t_string_storage"},{"astId":4634,"contract":"contracts/NFTVenture.sol:NFTVenture","label":"projectStartDate","offset":0,"slot":"5","type":"t_uint256"},{"astId":4636,"contract":"contracts/NFTVenture.sol:NFTVenture","label":"projectEndDate","offset":0,"slot":"6","type":"t_uint256"},{"astId":4640,"contract":"contracts/NFTVenture.sol:NFTVenture","label":"rewards","offset":0,"slot":"7","type":"t_array(t_struct(Reward)4611_storage)dyn_storage"},{"astId":4643,"contract":"contracts/NFTVenture.sol:NFTVenture","label":"status","offset":0,"slot":"8","type":"t_enum(ProjectStatus)4592"},{"astId":4645,"contract":"contracts/NFTVenture.sol:NFTVenture","label":"rewardTokenAddress","offset":1,"slot":"8","type":"t_address"},{"astId":4647,"contract":"contracts/NFTVenture.sol:NFTVenture","label":"mainPhoto","offset":0,"slot":"9","type":"t_string_storage"},{"astId":4650,"contract":"contracts/NFTVenture.sol:NFTVenture","label":"secondaryPhotos","offset":0,"slot":"10","type":"t_array(t_string_storage)dyn_storage"},{"astId":4653,"contract":"contracts/NFTVenture.sol:NFTVenture","label":"category","offset":0,"slot":"11","type":"t_enum(Category)4598"}],"numberOfBytes":"384"},"t_struct(Reward)4611_storage":{"encoding":"inplace","label":"struct Reward","members":[{"astId":4600,"contract":"contracts/NFTVenture.sol:NFTVenture","label":"title","offset":0,"slot":"0","type":"t_string_storage"},{"astId":4602,"contract":"contracts/NFTVenture.sol:NFTVenture","label":"description","offset":0,"slot":"1","type":"t_string_storage"},{"astId":4604,"contract":"contracts/NFTVenture.sol:NFTVenture","label":"tokenAmount","offset":0,"slot":"2","type":"t_uint256"},{"astId":4606,"contract":"contracts/NFTVenture.sol:NFTVenture","label":"individualPrice","offset":0,"slot":"3","type":"t_uint256"},{"astId":4608,"contract":"contracts/NFTVenture.sol:NFTVenture","label":"availableTokens","offset":0,"slot":"4","type":"t_uint256"},{"astId":4610,"contract":"contracts/NFTVenture.sol:NFTVenture","label":"rewardTokenId","offset":0,"slot":"5","type":"t_uint256"}],"numberOfBytes":"192"},"t_uint256":{"encoding":"inplace","label":"uint256","numberOfBytes":"32"}}},"userdoc":{"kind":"user","methods":{},"version":1}}}}