{"contracts/ReclamarFrac.sol":{"reclamarFrac":{"abi":[{"inputs":[{"internalType":"address","name":"_nftAddress","type":"address"},{"internalType":"uint256","name":"_tokenID","type":"uint256"}],"stateMutability":"nonpayable","type":"constructor"},{"anonymous":false,"inputs":[{"indexed":false,"internalType":"enum reclamarFrac.ClaimState","name":"claimState","type":"uint8"}],"name":"ClaimStateDetails","type":"event"},{"anonymous":false,"inputs":[{"indexed":false,"internalType":"address","name":"reclamante","type":"address"},{"indexed":false,"internalType":"uint256","name":"cantidad","type":"uint256"}],"name":"Claimed","type":"event"},{"anonymous":false,"inputs":[{"indexed":false,"internalType":"uint256","name":"funds","type":"uint256"}],"name":"FundsDetails","type":"event"},{"anonymous":false,"inputs":[{"indexed":false,"internalType":"uint256","name":"supply","type":"uint256"}],"name":"SupplyDetails","type":"event"},{"anonymous":false,"inputs":[{"indexed":false,"internalType":"address","name":"tokenAddress","type":"address"}],"name":"TokenAddressDetails","type":"event"},{"anonymous":false,"inputs":[],"name":"funded","type":"event"},{"inputs":[{"internalType":"address","name":"_token","type":"address"},{"internalType":"uint256","name":"tokenAmount","type":"uint256"}],"name":"claim","outputs":[],"stateMutability":"nonpayable","type":"function"},{"inputs":[],"name":"claimState","outputs":[{"internalType":"enum reclamarFrac.ClaimState","name":"","type":"uint8"}],"stateMutability":"view","type":"function"},{"inputs":[{"internalType":"address","name":"_token","type":"address"}],"name":"fund","outputs":[],"stateMutability":"payable","type":"function"},{"inputs":[],"name":"funds","outputs":[{"internalType":"uint256","name":"","type":"uint256"}],"stateMutability":"view","type":"function"},{"inputs":[],"name":"getClaimState","outputs":[{"internalType":"enum reclamarFrac.ClaimState","name":"","type":"uint8"}],"stateMutability":"view","type":"function"},{"inputs":[],"name":"nftAddress","outputs":[{"internalType":"address","name":"","type":"address"}],"stateMutability":"view","type":"function"},{"inputs":[],"name":"ownerAddress","outputs":[{"internalType":"address payable","name":"","type":"address"}],"stateMutability":"view","type":"function"},{"inputs":[],"name":"supply","outputs":[{"internalType":"uint256","name":"","type":"uint256"}],"stateMutability":"view","type":"function"},{"inputs":[],"name":"tokenAddress","outputs":[{"internalType":"address","name":"","type":"address"}],"stateMutability":"view","type":"function"}],"devdoc":{"kind":"dev","methods":{},"version":1},"evm":{"bytecode":{"linkReferences":{},"object":"608080604052346100b5576040816107d9803803809161001f8285610104565b8339810103126100b55760206100348261013d565b9101516040516331a9108f60e11b815260048101919091526001600160a01b0391821691602082602481865afa9182156100f8576000926100ba575b50339116036100b557600180546001600160a01b0319908116909217905560008054909116331790556002805460ff60a01b1916905560405161068790816101528239f35b600080fd5b90916020823d82116100f0575b816100d460209383610104565b810103126100ed57506100e69061013d565b9038610070565b80fd5b3d91506100c7565b6040513d6000823e3d90fd5b601f909101601f19168101906001600160401b0382119082101761012757604052565b634e487b7160e01b600052604160045260246000fd5b51906001600160a01b03821682036100b55756fe608060408181526004918236101561001657600080fd5b600092833560e01c918263047fc9aa146105835750816323024408146103b15781634b43c6f9146103325781635bf8633a146103885781638f84aa09146103605781639a725809146103325781639d76ea5814610309578163aad3ec96146100a9575063c89f2ce41461008857600080fd5b346100a557816003193601126100a5576020906003549051908152f35b5080fd5b9050346103055781600319360112610305576100c361059e565b6002546001600160a01b03918216919060249081359083168403610301578454670de0b6b3a7640000908181029181830414901517156102ef576003548083029083820414831517156102dd5781156102cb57049283471061027d57908792918380868015610273575b8280929181923390f115610269576002541690813b1561026557839161016891895195868094819363079cc67960e41b8352338d8401610616565b03925af1801561025b5761021e575b50509060008051602061063283398151915261019b60209386519182913383610616565b0390a183516318160ddd60e01b815292839182905afa918215610215575082916101df575b50156101c95780f35b6002805460ff60a01b1916600160a11b17905580f35b90506020813d821161020d575b816101f9602093836105dd565b810103126102085751386101c0565b600080fd5b3d91506101ec565b513d84823e3d90fd5b9195916001600160401b03821161024a575084529360008051602061063283398151915261019b610177565b634e487b7160e01b83526041855282fd5b86513d89823e3d90fd5b8380fd5b87513d85823e3d90fd5b6108fc915061012d565b865162461bcd60e51b81526020818801526023818501527f466f6e646f7320696e737566696369656e74657320656e20656c20636f6e747260448201526261746f60e81b6064820152608490fd5b634e487b7160e01b8952601287528389fd5b634e487b7160e01b8952601187528389fd5b634e487b7160e01b8852601186528288fd5b8680fd5b8280fd5b5050346100a557816003193601126100a55760025490516001600160a01b039091168152602090f35b5050346100a557816003193601126100a55761035c9060ff60025460a01c169051918291826105b4565b0390f35b5050346100a557816003193601126100a557905490516001600160a01b039091168152602090f35b5050346100a557816003193601126100a55760015490516001600160a01b039091168152602090f35b916020915036600319018213610265576103c961059e565b916002549260ff8460a01c1660038110156105705761056c5785546001600160a01b0391908216330361030157346003556001600160a81b0319909416938116938417600160a01b17600281905583516318160ddd60e01b815295909483908790839082905afa958615610562578796610529575b50827f825c94adc2d07d7054df3df363833d04745e4d5bbfbf6349d7d3aa0ba212731f8160ff9796947fb8fbc896aaf3402bc9e3197c5ef680f129d53be930035e2c0f7ac85244df0c1a6104ff977fd1928025d134c8c80a2236b6a0ae96292bcaf0717ea1ab4957e636787fe8bf3596670de0b6b3a76400007f09a3780ffd48bc4df9d4816a4c9a74f5e52518e90e2173034df5b0b140085ecc9d048091558851908152a185519088168152a18251348152a15192839260a01c16826105b4565b0390a17ff3a504f28a34fdf555994a3bdfd3dc29f822e8684a9ef01001afb738cc3cdd0a8180a180f35b9295509392908583813d811161055b575b61054481836105dd565b81010312610301579151949293909291908261043e565b503d61053a565b84513d89823e3d90fd5b8580fd5b634e487b7160e01b875260218652602487fd5b84913461030557826003193601126103055760209250548152f35b600435906001600160a01b038216820361020857565b9190602083019260038210156105c75752565b634e487b7160e01b600052602160045260246000fd5b601f909101601f19168101906001600160401b0382119082101761060057604052565b634e487b7160e01b600052604160045260246000fd5b6001600160a01b03909116815260208101919091526040019056fed8138f8a3f377c5259ca548e70e4c2de94f129f5a11036a15b69513cba2b426aa2646970667358221220b55e1d3f2ec3dec2b8e7f69d447d3793c2e2d0b1d4265f36338f73a85702160e64736f6c63430008130033","opcodes":"PUSH1 0x80 DUP1 PUSH1 0x40 MSTORE CALLVALUE PUSH2 0xB5 JUMPI PUSH1 0x40 DUP2 PUSH2 0x7D9 DUP1 CODESIZE SUB DUP1 SWAP2 PUSH2 0x1F DUP3 DUP6 PUSH2 0x104 JUMP JUMPDEST DUP4 CODECOPY DUP2 ADD SUB SLT PUSH2 0xB5 JUMPI PUSH1 0x20 PUSH2 0x34 DUP3 PUSH2 0x13D JUMP JUMPDEST SWAP2 ADD MLOAD PUSH1 0x40 MLOAD PUSH4 0x31A9108F PUSH1 0xE1 SHL DUP2 MSTORE PUSH1 0x4 DUP2 ADD SWAP2 SWAP1 SWAP2 MSTORE PUSH1 0x1 PUSH1 0x1 PUSH1 0xA0 SHL SUB SWAP2 DUP3 AND SWAP2 PUSH1 0x20 DUP3 PUSH1 0x24 DUP2 DUP7 GAS STATICCALL SWAP2 DUP3 ISZERO PUSH2 0xF8 JUMPI PUSH1 0x0 SWAP3 PUSH2 0xBA JUMPI JUMPDEST POP CALLER SWAP2 AND SUB PUSH2 0xB5 JUMPI PUSH1 0x1 DUP1 SLOAD PUSH1 0x1 PUSH1 0x1 PUSH1 0xA0 SHL SUB NOT SWAP1 DUP2 AND SWAP1 SWAP3 OR SWAP1 SSTORE PUSH1 0x0 DUP1 SLOAD SWAP1 SWAP2 AND CALLER OR SWAP1 SSTORE PUSH1 0x2 DUP1 SLOAD PUSH1 0xFF PUSH1 0xA0 SHL NOT AND SWAP1 SSTORE PUSH1 0x40 MLOAD PUSH2 0x687 SWAP1 DUP2 PUSH2 0x152 DUP3 CODECOPY RETURN JUMPDEST PUSH1 0x0 DUP1 REVERT JUMPDEST SWAP1 SWAP2 PUSH1 0x20 DUP3 RETURNDATASIZE DUP3 GT PUSH2 0xF0 JUMPI JUMPDEST DUP2 PUSH2 0xD4 PUSH1 0x20 SWAP4 DUP4 PUSH2 0x104 JUMP JUMPDEST DUP2 ADD SUB SLT PUSH2 0xED JUMPI POP PUSH2 0xE6 SWAP1 PUSH2 0x13D JUMP JUMPDEST SWAP1 CODESIZE PUSH2 0x70 JUMP JUMPDEST DUP1 REVERT JUMPDEST RETURNDATASIZE SWAP2 POP PUSH2 0xC7 JUMP JUMPDEST PUSH1 0x40 MLOAD RETURNDATASIZE PUSH1 0x0 DUP3 RETURNDATACOPY RETURNDATASIZE SWAP1 REVERT JUMPDEST PUSH1 0x1F SWAP1 SWAP2 ADD PUSH1 0x1F NOT AND DUP2 ADD SWAP1 PUSH1 0x1 PUSH1 0x1 PUSH1 0x40 SHL SUB DUP3 GT SWAP1 DUP3 LT OR PUSH2 0x127 JUMPI PUSH1 0x40 MSTORE JUMP JUMPDEST PUSH4 0x4E487B71 PUSH1 0xE0 SHL PUSH1 0x0 MSTORE PUSH1 0x41 PUSH1 0x4 MSTORE PUSH1 0x24 PUSH1 0x0 REVERT JUMPDEST MLOAD SWAP1 PUSH1 0x1 PUSH1 0x1 PUSH1 0xA0 SHL SUB DUP3 AND DUP3 SUB PUSH2 0xB5 JUMPI JUMP INVALID PUSH1 0x80 PUSH1 0x40 DUP2 DUP2 MSTORE PUSH1 0x4 SWAP2 DUP3 CALLDATASIZE LT ISZERO PUSH2 0x16 JUMPI PUSH1 0x0 DUP1 REVERT JUMPDEST PUSH1 0x0 SWAP3 DUP4 CALLDATALOAD PUSH1 0xE0 SHR SWAP2 DUP3 PUSH4 0x47FC9AA EQ PUSH2 0x583 JUMPI POP DUP2 PUSH4 0x23024408 EQ PUSH2 0x3B1 JUMPI DUP2 PUSH4 0x4B43C6F9 EQ PUSH2 0x332 JUMPI DUP2 PUSH4 0x5BF8633A EQ PUSH2 0x388 JUMPI DUP2 PUSH4 0x8F84AA09 EQ PUSH2 0x360 JUMPI DUP2 PUSH4 0x9A725809 EQ PUSH2 0x332 JUMPI DUP2 PUSH4 0x9D76EA58 EQ PUSH2 0x309 JUMPI DUP2 PUSH4 0xAAD3EC96 EQ PUSH2 0xA9 JUMPI POP PUSH4 0xC89F2CE4 EQ PUSH2 0x88 JUMPI PUSH1 0x0 DUP1 REVERT JUMPDEST CALLVALUE PUSH2 0xA5 JUMPI DUP2 PUSH1 0x3 NOT CALLDATASIZE ADD SLT PUSH2 0xA5 JUMPI PUSH1 0x20 SWAP1 PUSH1 0x3 SLOAD SWAP1 MLOAD SWAP1 DUP2 MSTORE RETURN JUMPDEST POP DUP1 REVERT JUMPDEST SWAP1 POP CALLVALUE PUSH2 0x305 JUMPI DUP2 PUSH1 0x3 NOT CALLDATASIZE ADD SLT PUSH2 0x305 JUMPI PUSH2 0xC3 PUSH2 0x59E JUMP JUMPDEST PUSH1 0x2 SLOAD PUSH1 0x1 PUSH1 0x1 PUSH1 0xA0 SHL SUB SWAP2 DUP3 AND SWAP2 SWAP1 PUSH1 0x24 SWAP1 DUP2 CALLDATALOAD SWAP1 DUP4 AND DUP5 SUB PUSH2 0x301 JUMPI DUP5 SLOAD PUSH8 0xDE0B6B3A7640000 SWAP1 DUP2 DUP2 MUL SWAP2 DUP2 DUP4 DIV EQ SWAP1 ISZERO OR ISZERO PUSH2 0x2EF JUMPI PUSH1 0x3 SLOAD DUP1 DUP4 MUL SWAP1 DUP4 DUP3 DIV EQ DUP4 ISZERO OR ISZERO PUSH2 0x2DD JUMPI DUP2 ISZERO PUSH2 0x2CB JUMPI DIV SWAP3 DUP4 SELFBALANCE LT PUSH2 0x27D JUMPI SWAP1 DUP8 SWAP3 SWAP2 DUP4 DUP1 DUP7 DUP1 ISZERO PUSH2 0x273 JUMPI JUMPDEST DUP3 DUP1 SWAP3 SWAP2 DUP2 SWAP3 CALLER SWAP1 CALL ISZERO PUSH2 0x269 JUMPI PUSH1 0x2 SLOAD AND SWAP1 DUP2 EXTCODESIZE ISZERO PUSH2 0x265 JUMPI DUP4 SWAP2 PUSH2 0x168 SWAP2 DUP10 MLOAD SWAP6 DUP7 DUP1 SWAP5 DUP2 SWAP4 PUSH4 0x79CC679 PUSH1 0xE4 SHL DUP4 MSTORE CALLER DUP14 DUP5 ADD PUSH2 0x616 JUMP JUMPDEST SUB SWAP3 GAS CALL DUP1 ISZERO PUSH2 0x25B JUMPI PUSH2 0x21E JUMPI JUMPDEST POP POP SWAP1 PUSH1 0x0 DUP1 MLOAD PUSH1 0x20 PUSH2 0x632 DUP4 CODECOPY DUP2 MLOAD SWAP2 MSTORE PUSH2 0x19B PUSH1 0x20 SWAP4 DUP7 MLOAD SWAP2 DUP3 SWAP2 CALLER DUP4 PUSH2 0x616 JUMP JUMPDEST SUB SWAP1 LOG1 DUP4 MLOAD PUSH4 0x18160DDD PUSH1 0xE0 SHL DUP2 MSTORE SWAP3 DUP4 SWAP2 DUP3 SWAP1 GAS STATICCALL SWAP2 DUP3 ISZERO PUSH2 0x215 JUMPI POP DUP3 SWAP2 PUSH2 0x1DF JUMPI JUMPDEST POP ISZERO PUSH2 0x1C9 JUMPI DUP1 RETURN JUMPDEST PUSH1 0x2 DUP1 SLOAD PUSH1 0xFF PUSH1 0xA0 SHL NOT AND PUSH1 0x1 PUSH1 0xA1 SHL OR SWAP1 SSTORE DUP1 RETURN JUMPDEST SWAP1 POP PUSH1 0x20 DUP2 RETURNDATASIZE DUP3 GT PUSH2 0x20D JUMPI JUMPDEST DUP2 PUSH2 0x1F9 PUSH1 0x20 SWAP4 DUP4 PUSH2 0x5DD JUMP JUMPDEST DUP2 ADD SUB SLT PUSH2 0x208 JUMPI MLOAD CODESIZE PUSH2 0x1C0 JUMP JUMPDEST PUSH1 0x0 DUP1 REVERT JUMPDEST RETURNDATASIZE SWAP2 POP PUSH2 0x1EC JUMP JUMPDEST MLOAD RETURNDATASIZE DUP5 DUP3 RETURNDATACOPY RETURNDATASIZE SWAP1 REVERT JUMPDEST SWAP2 SWAP6 SWAP2 PUSH1 0x1 PUSH1 0x1 PUSH1 0x40 SHL SUB DUP3 GT PUSH2 0x24A JUMPI POP DUP5 MSTORE SWAP4 PUSH1 0x0 DUP1 MLOAD PUSH1 0x20 PUSH2 0x632 DUP4 CODECOPY DUP2 MLOAD SWAP2 MSTORE PUSH2 0x19B PUSH2 0x177 JUMP JUMPDEST PUSH4 0x4E487B71 PUSH1 0xE0 SHL DUP4 MSTORE PUSH1 0x41 DUP6 MSTORE DUP3 REVERT JUMPDEST DUP7 MLOAD RETURNDATASIZE DUP10 DUP3 RETURNDATACOPY RETURNDATASIZE SWAP1 REVERT JUMPDEST DUP4 DUP1 REVERT JUMPDEST DUP8 MLOAD RETURNDATASIZE DUP6 DUP3 RETURNDATACOPY RETURNDATASIZE SWAP1 REVERT JUMPDEST PUSH2 0x8FC SWAP2 POP PUSH2 0x12D JUMP JUMPDEST DUP7 MLOAD PUSH3 0x461BCD PUSH1 0xE5 SHL DUP2 MSTORE PUSH1 0x20 DUP2 DUP9 ADD MSTORE PUSH1 0x23 DUP2 DUP6 ADD MSTORE PUSH32 0x466F6E646F7320696E737566696369656E74657320656E20656C20636F6E7472 PUSH1 0x44 DUP3 ADD MSTORE PUSH3 0x61746F PUSH1 0xE8 SHL PUSH1 0x64 DUP3 ADD MSTORE PUSH1 0x84 SWAP1 REVERT JUMPDEST PUSH4 0x4E487B71 PUSH1 0xE0 SHL DUP10 MSTORE PUSH1 0x12 DUP8 MSTORE DUP4 DUP10 REVERT JUMPDEST PUSH4 0x4E487B71 PUSH1 0xE0 SHL DUP10 MSTORE PUSH1 0x11 DUP8 MSTORE DUP4 DUP10 REVERT JUMPDEST PUSH4 0x4E487B71 PUSH1 0xE0 SHL DUP9 MSTORE PUSH1 0x11 DUP7 MSTORE DUP3 DUP9 REVERT JUMPDEST DUP7 DUP1 REVERT JUMPDEST DUP3 DUP1 REVERT JUMPDEST POP POP CALLVALUE PUSH2 0xA5 JUMPI DUP2 PUSH1 0x3 NOT CALLDATASIZE ADD SLT PUSH2 0xA5 JUMPI PUSH1 0x2 SLOAD SWAP1 MLOAD PUSH1 0x1 PUSH1 0x1 PUSH1 0xA0 SHL SUB SWAP1 SWAP2 AND DUP2 MSTORE PUSH1 0x20 SWAP1 RETURN JUMPDEST POP POP CALLVALUE PUSH2 0xA5 JUMPI DUP2 PUSH1 0x3 NOT CALLDATASIZE ADD SLT PUSH2 0xA5 JUMPI PUSH2 0x35C SWAP1 PUSH1 0xFF PUSH1 0x2 SLOAD PUSH1 0xA0 SHR AND SWAP1 MLOAD SWAP2 DUP3 SWAP2 DUP3 PUSH2 0x5B4 JUMP JUMPDEST SUB SWAP1 RETURN JUMPDEST POP POP CALLVALUE PUSH2 0xA5 JUMPI DUP2 PUSH1 0x3 NOT CALLDATASIZE ADD SLT PUSH2 0xA5 JUMPI SWAP1 SLOAD SWAP1 MLOAD PUSH1 0x1 PUSH1 0x1 PUSH1 0xA0 SHL SUB SWAP1 SWAP2 AND DUP2 MSTORE PUSH1 0x20 SWAP1 RETURN JUMPDEST POP POP CALLVALUE PUSH2 0xA5 JUMPI DUP2 PUSH1 0x3 NOT CALLDATASIZE ADD SLT PUSH2 0xA5 JUMPI PUSH1 0x1 SLOAD SWAP1 MLOAD PUSH1 0x1 PUSH1 0x1 PUSH1 0xA0 SHL SUB SWAP1 SWAP2 AND DUP2 MSTORE PUSH1 0x20 SWAP1 RETURN JUMPDEST SWAP2 PUSH1 0x20 SWAP2 POP CALLDATASIZE PUSH1 0x3 NOT ADD DUP3 SGT PUSH2 0x265 JUMPI PUSH2 0x3C9 PUSH2 0x59E JUMP JUMPDEST SWAP2 PUSH1 0x2 SLOAD SWAP3 PUSH1 0xFF DUP5 PUSH1 0xA0 SHR AND PUSH1 0x3 DUP2 LT ISZERO PUSH2 0x570 JUMPI PUSH2 0x56C JUMPI DUP6 SLOAD PUSH1 0x1 PUSH1 0x1 PUSH1 0xA0 SHL SUB SWAP2 SWAP1 DUP3 AND CALLER SUB PUSH2 0x301 JUMPI CALLVALUE PUSH1 0x3 SSTORE PUSH1 0x1 PUSH1 0x1 PUSH1 0xA8 SHL SUB NOT SWAP1 SWAP5 AND SWAP4 DUP2 AND SWAP4 DUP5 OR PUSH1 0x1 PUSH1 0xA0 SHL OR PUSH1 0x2 DUP2 SWAP1 SSTORE DUP4 MLOAD PUSH4 0x18160DDD PUSH1 0xE0 SHL DUP2 MSTORE SWAP6 SWAP1 SWAP5 DUP4 SWAP1 DUP8 SWAP1 DUP4 SWAP1 DUP3 SWAP1 GAS STATICCALL SWAP6 DUP7 ISZERO PUSH2 0x562 JUMPI DUP8 SWAP7 PUSH2 0x529 JUMPI JUMPDEST POP DUP3 PUSH32 0x825C94ADC2D07D7054DF3DF363833D04745E4D5BBFBF6349D7D3AA0BA212731F DUP2 PUSH1 0xFF SWAP8 SWAP7 SWAP5 PUSH32 0xB8FBC896AAF3402BC9E3197C5EF680F129D53BE930035E2C0F7AC85244DF0C1A PUSH2 0x4FF SWAP8 PUSH32 0xD1928025D134C8C80A2236B6A0AE96292BCAF0717EA1AB4957E636787FE8BF35 SWAP7 PUSH8 0xDE0B6B3A7640000 PUSH32 0x9A3780FFD48BC4DF9D4816A4C9A74F5E52518E90E2173034DF5B0B140085ECC SWAP14 DIV DUP1 SWAP2 SSTORE DUP9 MLOAD SWAP1 DUP2 MSTORE LOG1 DUP6 MLOAD SWAP1 DUP9 AND DUP2 MSTORE LOG1 DUP3 MLOAD CALLVALUE DUP2 MSTORE LOG1 MLOAD SWAP3 DUP4 SWAP3 PUSH1 0xA0 SHR AND DUP3 PUSH2 0x5B4 JUMP JUMPDEST SUB SWAP1 LOG1 PUSH32 0xF3A504F28A34FDF555994A3BDFD3DC29F822E8684A9EF01001AFB738CC3CDD0A DUP2 DUP1 LOG1 DUP1 RETURN JUMPDEST SWAP3 SWAP6 POP SWAP4 SWAP3 SWAP1 DUP6 DUP4 DUP2 RETURNDATASIZE DUP2 GT PUSH2 0x55B JUMPI JUMPDEST PUSH2 0x544 DUP2 DUP4 PUSH2 0x5DD JUMP JUMPDEST DUP2 ADD SUB SLT PUSH2 0x301 JUMPI SWAP2 MLOAD SWAP5 SWAP3 SWAP4 SWAP1 SWAP3 SWAP2 SWAP1 DUP3 PUSH2 0x43E JUMP JUMPDEST POP RETURNDATASIZE PUSH2 0x53A JUMP JUMPDEST DUP5 MLOAD RETURNDATASIZE DUP10 DUP3 RETURNDATACOPY RETURNDATASIZE SWAP1 REVERT JUMPDEST DUP6 DUP1 REVERT JUMPDEST PUSH4 0x4E487B71 PUSH1 0xE0 SHL DUP8 MSTORE PUSH1 0x21 DUP7 MSTORE PUSH1 0x24 DUP8 REVERT JUMPDEST DUP5 SWAP2 CALLVALUE PUSH2 0x305 JUMPI DUP3 PUSH1 0x3 NOT CALLDATASIZE ADD SLT PUSH2 0x305 JUMPI PUSH1 0x20 SWAP3 POP SLOAD DUP2 MSTORE RETURN JUMPDEST PUSH1 0x4 CALLDATALOAD SWAP1 PUSH1 0x1 PUSH1 0x1 PUSH1 0xA0 SHL SUB DUP3 AND DUP3 SUB PUSH2 0x208 JUMPI JUMP JUMPDEST SWAP2 SWAP1 PUSH1 0x20 DUP4 ADD SWAP3 PUSH1 0x3 DUP3 LT ISZERO PUSH2 0x5C7 JUMPI MSTORE JUMP JUMPDEST PUSH4 0x4E487B71 PUSH1 0xE0 SHL PUSH1 0x0 MSTORE PUSH1 0x21 PUSH1 0x4 MSTORE PUSH1 0x24 PUSH1 0x0 REVERT JUMPDEST PUSH1 0x1F SWAP1 SWAP2 ADD PUSH1 0x1F NOT AND DUP2 ADD SWAP1 PUSH1 0x1 PUSH1 0x1 PUSH1 0x40 SHL SUB DUP3 GT SWAP1 DUP3 LT OR PUSH2 0x600 JUMPI PUSH1 0x40 MSTORE JUMP JUMPDEST PUSH4 0x4E487B71 PUSH1 0xE0 SHL PUSH1 0x0 MSTORE PUSH1 0x41 PUSH1 0x4 MSTORE PUSH1 0x24 PUSH1 0x0 REVERT JUMPDEST PUSH1 0x1 PUSH1 0x1 PUSH1 0xA0 SHL SUB SWAP1 SWAP2 AND DUP2 MSTORE PUSH1 0x20 DUP2 ADD SWAP2 SWAP1 SWAP2 MSTORE PUSH1 0x40 ADD SWAP1 JUMP INVALID 0xD8 SGT DUP16 DUP11 EXTCODEHASH CALLDATACOPY PUSH29 0x5259CA548E70E4C2DE94F129F5A11036A15B69513CBA2B426AA2646970 PUSH7 0x7358221220B55E SAR EXTCODEHASH 0x2E 0xC3 0xDE 0xC2 0xB8 0xE7 0xF6 SWAP14 PREVRANDAO PUSH30 0x3793C2E2D0B1D4265F36338F73A85702160E64736F6C6343000813003300 "},"gasEstimates":{"creation":{"codeDepositCost":"334200","executionCost":"infinite","totalCost":"infinite"},"external":{"claim(address,uint256)":"infinite","claimState()":"2485","fund(address)":"infinite","funds()":"2451","getClaimState()":"2419","nftAddress()":"2367","ownerAddress()":"2389","supply()":"2270","tokenAddress()":"2433"}},"methodIdentifiers":{"claim(address,uint256)":"aad3ec96","claimState()":"9a725809","fund(address)":"23024408","funds()":"c89f2ce4","getClaimState()":"4b43c6f9","nftAddress()":"5bf8633a","ownerAddress()":"8f84aa09","supply()":"047fc9aa","tokenAddress()":"9d76ea58"}},"storageLayout":{"storage":[{"astId":7166,"contract":"contracts/ReclamarFrac.sol:reclamarFrac","label":"ownerAddress","offset":0,"slot":"0","type":"t_address_payable"},{"astId":7168,"contract":"contracts/ReclamarFrac.sol:reclamarFrac","label":"nftAddress","offset":0,"slot":"1","type":"t_address"},{"astId":7170,"contract":"contracts/ReclamarFrac.sol:reclamarFrac","label":"tokenAddress","offset":0,"slot":"2","type":"t_address"},{"astId":7177,"contract":"contracts/ReclamarFrac.sol:reclamarFrac","label":"claimState","offset":20,"slot":"2","type":"t_enum(ClaimState)7174"},{"astId":7179,"contract":"contracts/ReclamarFrac.sol:reclamarFrac","label":"funds","offset":0,"slot":"3","type":"t_uint256"},{"astId":7181,"contract":"contracts/ReclamarFrac.sol:reclamarFrac","label":"supply","offset":0,"slot":"4","type":"t_uint256"}],"types":{"t_address":{"encoding":"inplace","label":"address","numberOfBytes":"20"},"t_address_payable":{"encoding":"inplace","label":"address payable","numberOfBytes":"20"},"t_enum(ClaimState)7174":{"encoding":"inplace","label":"enum reclamarFrac.ClaimState","numberOfBytes":"1"},"t_uint256":{"encoding":"inplace","label":"uint256","numberOfBytes":"32"}}},"userdoc":{"kind":"user","methods":{},"version":1}}}}