{"contracts/Assets.sol":{"Assets":{"abi":[{"inputs":[{"internalType":"address","name":"nftAddress","type":"address"}],"stateMutability":"nonpayable","type":"constructor"},{"anonymous":false,"inputs":[{"indexed":true,"internalType":"uint256","name":"assetId","type":"uint256"},{"indexed":true,"internalType":"address","name":"owner","type":"address"},{"indexed":false,"internalType":"string","name":"tokenURI","type":"string"}],"name":"AssetCreated","type":"event"},{"anonymous":false,"inputs":[{"indexed":true,"internalType":"address","name":"investor","type":"address"},{"indexed":true,"internalType":"uint256","name":"assetId","type":"uint256"},{"indexed":true,"internalType":"uint256","name":"tokenId","type":"uint256"},{"indexed":false,"internalType":"uint256","name":"tokenAmount","type":"uint256"},{"indexed":false,"internalType":"uint256","name":"value","type":"uint256"}],"name":"LogInvestment","type":"event"},{"inputs":[{"internalType":"uint256","name":"price","type":"uint256"},{"internalType":"string","name":"author","type":"string"},{"internalType":"string","name":"title","type":"string"},{"internalType":"string","name":"description","type":"string"},{"internalType":"uint256","name":"projectEndDate","type":"uint256"},{"internalType":"address","name":"to","type":"address"},{"internalType":"string","name":"tokenURI","type":"string"},{"internalType":"string","name":"mainPhoto","type":"string"},{"internalType":"string[]","name":"secondaryPhotos","type":"string[]"},{"internalType":"enum Category","name":"category","type":"uint8"}],"name":"addAsset","outputs":[],"stateMutability":"nonpayable","type":"function"},{"inputs":[{"internalType":"enum ProjectStatus","name":"status","type":"uint8"}],"name":"getAllAssets","outputs":[{"components":[{"internalType":"uint256","name":"assetId","type":"uint256"},{"internalType":"uint256","name":"price","type":"uint256"},{"internalType":"string","name":"author","type":"string"},{"internalType":"string","name":"title","type":"string"},{"internalType":"string","name":"description","type":"string"},{"internalType":"uint256","name":"projectStartDate","type":"uint256"},{"internalType":"uint256","name":"projectEndDate","type":"uint256"},{"components":[{"internalType":"string","name":"title","type":"string"},{"internalType":"string","name":"description","type":"string"},{"internalType":"uint256","name":"tokenAmount","type":"uint256"},{"internalType":"uint256","name":"individualPrice","type":"uint256"},{"internalType":"uint256","name":"availableTokens","type":"uint256"},{"internalType":"uint256","name":"rewardTokenId","type":"uint256"}],"internalType":"struct Reward[]","name":"rewards","type":"tuple[]"},{"internalType":"enum ProjectStatus","name":"status","type":"uint8"},{"internalType":"address","name":"rewardTokenAddress","type":"address"},{"internalType":"string","name":"mainPhoto","type":"string"},{"internalType":"string[]","name":"secondaryPhotos","type":"string[]"},{"internalType":"enum Category","name":"category","type":"uint8"}],"internalType":"struct Asset[]","name":"","type":"tuple[]"},{"internalType":"uint256[]","name":"","type":"uint256[]"},{"internalType":"uint256[]","name":"","type":"uint256[]"}],"stateMutability":"view","type":"function"},{"inputs":[{"internalType":"enum ProjectStatus","name":"status","type":"uint8"},{"internalType":"enum Category","name":"category","type":"uint8"}],"name":"getAllAssetsByCategory","outputs":[{"components":[{"internalType":"uint256","name":"assetId","type":"uint256"},{"internalType":"uint256","name":"price","type":"uint256"},{"internalType":"string","name":"author","type":"string"},{"internalType":"string","name":"title","type":"string"},{"internalType":"string","name":"description","type":"string"},{"internalType":"uint256","name":"projectStartDate","type":"uint256"},{"internalType":"uint256","name":"projectEndDate","type":"uint256"},{"components":[{"internalType":"string","name":"title","type":"string"},{"internalType":"string","name":"description","type":"string"},{"internalType":"uint256","name":"tokenAmount","type":"uint256"},{"internalType":"uint256","name":"individualPrice","type":"uint256"},{"internalType":"uint256","name":"availableTokens","type":"uint256"},{"internalType":"uint256","name":"rewardTokenId","type":"uint256"}],"internalType":"struct Reward[]","name":"rewards","type":"tuple[]"},{"internalType":"enum ProjectStatus","name":"status","type":"uint8"},{"internalType":"address","name":"rewardTokenAddress","type":"address"},{"internalType":"string","name":"mainPhoto","type":"string"},{"internalType":"string[]","name":"secondaryPhotos","type":"string[]"},{"internalType":"enum Category","name":"category","type":"uint8"}],"internalType":"struct Asset[]","name":"","type":"tuple[]"}],"stateMutability":"view","type":"function"},{"inputs":[{"internalType":"uint256","name":"assetId","type":"uint256"}],"name":"getAssetById","outputs":[{"components":[{"internalType":"uint256","name":"assetId","type":"uint256"},{"internalType":"uint256","name":"price","type":"uint256"},{"internalType":"string","name":"author","type":"string"},{"internalType":"string","name":"title","type":"string"},{"internalType":"string","name":"description","type":"string"},{"internalType":"uint256","name":"projectStartDate","type":"uint256"},{"internalType":"uint256","name":"projectEndDate","type":"uint256"},{"components":[{"internalType":"string","name":"title","type":"string"},{"internalType":"string","name":"description","type":"string"},{"internalType":"uint256","name":"tokenAmount","type":"uint256"},{"internalType":"uint256","name":"individualPrice","type":"uint256"},{"internalType":"uint256","name":"availableTokens","type":"uint256"},{"internalType":"uint256","name":"rewardTokenId","type":"uint256"}],"internalType":"struct Reward[]","name":"rewards","type":"tuple[]"},{"internalType":"enum ProjectStatus","name":"status","type":"uint8"},{"internalType":"address","name":"rewardTokenAddress","type":"address"},{"internalType":"string","name":"mainPhoto","type":"string"},{"internalType":"string[]","name":"secondaryPhotos","type":"string[]"},{"internalType":"enum Category","name":"category","type":"uint8"}],"internalType":"struct Asset","name":"","type":"tuple"}],"stateMutability":"view","type":"function"},{"inputs":[{"internalType":"address","name":"owner","type":"address"}],"name":"getAssetsOfOwner","outputs":[{"components":[{"internalType":"uint256","name":"assetId","type":"uint256"},{"internalType":"uint256","name":"price","type":"uint256"},{"internalType":"string","name":"author","type":"string"},{"internalType":"string","name":"title","type":"string"},{"internalType":"string","name":"description","type":"string"},{"internalType":"uint256","name":"projectStartDate","type":"uint256"},{"internalType":"uint256","name":"projectEndDate","type":"uint256"},{"components":[{"internalType":"string","name":"title","type":"string"},{"internalType":"string","name":"description","type":"string"},{"internalType":"uint256","name":"tokenAmount","type":"uint256"},{"internalType":"uint256","name":"individualPrice","type":"uint256"},{"internalType":"uint256","name":"availableTokens","type":"uint256"},{"internalType":"uint256","name":"rewardTokenId","type":"uint256"}],"internalType":"struct Reward[]","name":"rewards","type":"tuple[]"},{"internalType":"enum ProjectStatus","name":"status","type":"uint8"},{"internalType":"address","name":"rewardTokenAddress","type":"address"},{"internalType":"string","name":"mainPhoto","type":"string"},{"internalType":"string[]","name":"secondaryPhotos","type":"string[]"},{"internalType":"enum Category","name":"category","type":"uint8"}],"internalType":"struct Asset[]","name":"","type":"tuple[]"}],"stateMutability":"view","type":"function"},{"inputs":[],"name":"supervisor","outputs":[{"internalType":"address","name":"","type":"address"}],"stateMutability":"view","type":"function"},{"inputs":[{"internalType":"uint256","name":"assetId","type":"uint256"},{"internalType":"string","name":"mainPhoto","type":"string"},{"internalType":"string[]","name":"secondaryPhotos","type":"string[]"},{"internalType":"string","name":"description","type":"string"}],"name":"updateAsset","outputs":[],"stateMutability":"nonpayable","type":"function"}],"devdoc":{"kind":"dev","methods":{},"version":1},"evm":{"bytecode":{"linkReferences":{},"object":"60803461007c57601f6119a238819003918201601f19168301916001600160401b038311848410176100815780849260209460405283398101031261007c57516001600160a01b0381169081900361007c5760018060a01b0319908160005416176000553390600154161760015560405161190a90816100988239f35b600080fd5b634e487b7160e01b600052604160045260246000fdfe608080604052600436101561001357600080fd5b600090813560e01c9081633803112314610c94575080634663a28c146109855780635563633d146106f257806356e4b68b146106c957806386275c5a14610248578063b3e444a7146101b35763f3ab880e1461006e57600080fd5b346101b05760203660031901126101b0576004356001600160a01b0381811692918390036101ab57815416604051926379d5c40760e11b8452600484015260249082848381845afa9384156101a057839461017c575b508351916100d1836114fe565b94845b8481106100f557604051602080825281906100f19082018a61120a565b0390f35b6100ff81836115a5565b5160405190631d591eb760e31b8252600482015286818581885afa908115610171579061014a9291889161014f575b50610139828a6115a5565b5261014481896115a5565b50611580565b6100d4565b61016b91503d808a833e61016381836112df565b810190611611565b3861012e565b6040513d89823e3d90fd5b6101999194503d8085833e61019181836112df565b810190611424565b92386100c4565b6040513d85823e3d90fd5b600080fd5b80fd5b50346101b05760203660031901126101b0576101cd61149d565b508054604051631d591eb760e31b81526004803590820152908290829060249082906001600160a01b03165afa90811561023d57826100f19392610222575b5050604051918291602083526020830190611034565b61023692503d8091833e61016381836112df565b388061020c565b6040513d84823e3d90fd5b50346101b0576101403660031901126101b0576001600160401b0360243581811161055e5761027b90369060040161131d565b6044358281116105425761029390369060040161131d565b906064358381116106c5576102ac90369060040161131d565b9260a435916001600160a01b03831683036101ab5760c4358281116106c1576102d990369060040161131d565b9460e4358381116106bd576102f290369060040161131d565b92610104359081116106bd5761030c90369060040161137b565b60056101243510156106bd576001546001600160a01b03163303610669576004351561062d5742608435106105d7576001600160a01b03851615610599578754604051630aac5dfd60e01b81529689956001600160a01b039092169390602089600481885afa988915610171578799610562575b506040519561038e876112c3565b89875260043560208801526040870152606086015260808501524260a085015260843560c0850152606060e0850152846101008501528461012085015261014084015261016083015261012435610180830152803b1561055e5761041a8392918392604051948580948193631b8513e960e31b83528b6004840152606060248401526064830190611034565b6001600160a01b038a16604483015203925af1801561023d5761054a575b5080546001600160a01b0316803b15610546576040516334ff261960e21b81526001600160a01b03841660048201526024810185905260606044820152908290829081838161048a606482018c610fec565b03925af1801561023d5761052e575b505060405160208082526001600160a01b03909216937f49b4e4c6879cdc85b51d8c3b572252aaa7842edb863810854acb6d2ed420d9629282916104df91830190610fec565b0390a3805481906001600160a01b0316803b1561052b57818091600460405180948193632c5bdb1f60e01b83525af1801561023d5761051b5750f35b6105249061129a565b6101b05780f35b50fd5b6105379061129a565b610542578338610499565b8380fd5b5080fd5b6105539061129a565b610542578338610438565b8280fd5b965097506020863d602011610591575b8161057f602093836112df565b810103126101ab578995519738610380565b3d9150610572565b60405162461bcd60e51b8152602060048201526016602482015275416464726573732063616e6e6f74206265207a65726f60501b6044820152606490fd5b60405162461bcd60e51b815260206004820152602860248201527f50726f6a65637420656e6420646174652073686f756c6420626520696e207468604482015267652066757475726560c01b6064820152608490fd5b60405162461bcd60e51b815260206004820152601460248201527350726963652063616e6e6f74206265207a65726f60601b6044820152606490fd5b60405162461bcd60e51b815260206004820152602660248201527f4f6e6c792073757065727669736f722063616e2063616c6c20746869732066756044820152653731ba34b7b760d11b6064820152608490fd5b8780fd5b8680fd5b8480fd5b50346101b057806003193601126101b0576001546040516001600160a01b039091168152602090f35b50346101b05760803660031901126101b0576024906001600160401b0360043583358281116105425761072990369060040161131d565b916044358181116106c55761074290369060040161137b565b906064359081116106c55761075b90369060040161131d565b8454604051634f558e7960e01b8152600481018590526001600160a01b03909116929060209081818a81885afa908115610923578891610968575b501561092e5760405163430c208160e01b81523360048201528881018690528181604481885afa9081156109235788916108f6575b50156108bb575085939291879160405196631d591eb760e31b885285600489015286888581885afa97881561017157879861089f575b50805115610893575b610140880152805115610887575b61016087015280511561087c575b6080860152813b15610542578360409361085e855197889687958694631c29952960e31b865260048601528401526044830190611034565b03925af1801561023d57610870575080f35b6108799061129a565b80f35b506080850151610826565b50610160860151610818565b5061014087015161080a565b6108b49198503d8089833e61016381836112df565b9689610801565b6064906015896040519262461bcd60e51b84526004840152820152742737ba1030b8383937bb32b21037b91037bbb732b960591b6044820152fd5b6109169150823d841161091c575b61090e81836112df565b8101906118bc565b386107cb565b503d610904565b6040513d8a823e3d90fd5b6064906014896040519262461bcd60e51b8452600484015282015273105cdcd95d08191bd95cc81b9bdd08195e1a5cdd60621b6044820152fd5b61097f9150823d841161091c5761090e81836112df565b38610796565b50346101b05760403660031901126101b057600435600481101561054657602480359160058310156105425780610b9c575082546040516301fb15dd60e31b8152908490829060049082906001600160a01b03165afa908115610b91578491610b77575b50925b805460405163a2311d5f60e01b81526001600160a01b0390911693610a15906004830190611011565b81818481875afa90811561023d578291610b5d575b50610a35815161154e565b928290835b8751811015610a675780610a51610a62928a6115a5565b51610a5c82896115a5565b52611580565b610a3a565b5090919294610a7684516114fe565b9186945b8051861015610b4757875b8751811015610b3c57610a9887836115a5565b51610aa3828a6115a5565b5114610ab757610ab290611580565b610a85565b509493610ac485876115a5565b5160405190631d591eb760e31b8252600482015288818481875afa918215610b3157610b1192610b0b928b91610b17575b50610b0082886115a5565b5261014481876115a5565b94611580565b94610a7a565b610b2b91503d808d833e61016381836112df565b8b610af5565b6040513d8b823e3d90fd5b5094610b1190611580565b604051602080825281906100f19082018761120a565b610b7191503d8084833e61019181836112df565b38610a2a565b610b8b91503d8086833e61019181836112df565b386109e9565b6040513d86823e3d90fd5b60018103610bf757508254604051620dee2360e51b8152908490829060049082906001600160a01b03165afa908115610b91578491610bdd575b50926109ec565b610bf191503d8086833e61019181836112df565b38610bd6565b60028103610c3857508254604051630f4facc560e21b8152908490829060049082906001600160a01b03165afa908115610b91578491610bdd5750926109ec565b600303610c77578254604051635aff92c160e11b8152908490829060049082906001600160a01b03165afa908115610b91578491610bdd5750926109ec565b60405162461bcd60e51b815280610c90600482016113fb565b0390fd5b82346101b0576020918260031936011261054657600435600481101561055e5780610ed557505080546040516301fb15dd60e31b8152908290829060049082906001600160a01b03165afa90811561023d578291610ebb575b50905b815191610cfc836114fe565b92610d068161154e565b91610d108261154e565b845490946001600160a01b0390911691815b848110610d6557610d4a886100f189610d578d8b60405196879660608852606088019061120a565b9186830390870152611266565b908382036040850152611266565b610d6f81836115a5565b519060405191631d591eb760e31b8352600483015260249184818481895afa908115610e96578591610ea1575b50610da7828b6115a5565b52610db2818a6115a5565b50610dbd81846115a5565b51604051906334422a4760e01b825260048201528a818481895afa908115610e96578591610e69575b50610df182896115a5565b5289610dfd82856115a5565b51604051938491631d6e430760e11b8352600483015281885afa8015610b91578490610e38575b610e339250610a5c828a6115a5565b610d22565b50908981813d8311610e62575b610e4f81836112df565b810103126105425790610e339151610e24565b503d610e45565b90508a81813d8311610e8f575b610e8081836112df565b810103126106c557518b610de6565b503d610e76565b6040513d87823e3d90fd5b610eb591503d8087833e61016381836112df565b8b610d9c565b610ecf91503d8084833e61019181836112df565b83610ced565b60018103610f315750508054604051620dee2360e51b8152908290829060049082906001600160a01b03165afa90811561023d578291610f17575b5090610cf0565b610f2b91503d8084833e61019181836112df565b83610f10565b60028103610f735750508054604051630f4facc560e21b8152908290829060049082906001600160a01b03165afa90811561023d578291610f17575090610cf0565b600303610fb357508054604051635aff92c160e11b8152908290829060049082906001600160a01b03165afa90811561023d578291610f17575090610cf0565b62461bcd60e51b815280610c90600482016113fb565b60005b838110610fdc5750506000910152565b8181015183820152602001610fcc565b9060209161100581518092818552858086019101610fc9565b601f01601f1916010190565b90600582101561101e5752565b634e487b7160e01b600052602160045260246000fd5b9190825181526020908184015182820152604061105e818601516101a08084860152840190610fec565b6110746060918288015185820384870152610fec565b9161108b6080938489015186820386880152610fec565b60a093848901518587015260c092838a01518488015260e08a01519587840360e0890152865194858552898501938a808860051b8801019901976000965b8c8989106111975750505050505050505050506101009081860151600481101561101e5761111b9284015261012060018060a01b03818801511690840152610140808701519084830390850152610fec565b936101609283820151938387039084015283518087528187019180808360051b8a01019601926000905b83821061116a5750505050506111679293945061018080910151910190611011565b90565b909192939683806111886001938d601f199082030186528b51610fec565b99019201920190939291611145565b80600192939495969798999a9b9c601f19858203018b528d519089806111d76111c785518d86528d860190610fec565b8686015185820388870152610fec565b938d8082015190850152898101518a8501528a8101518b85015201519101529c01980198019698979594939291906110c9565b908082519081815260208091019281808460051b8301019501936000915b8483106112385750505050505090565b9091929394958480611256600193601f198682030187528a51611034565b9801930193019194939290611228565b90815180825260208080930193019160005b828110611286575050505090565b835185529381019392810192600101611278565b6001600160401b0381116112ad57604052565b634e487b7160e01b600052604160045260246000fd5b6101a081019081106001600160401b038211176112ad57604052565b601f909101601f19168101906001600160401b038211908210176112ad57604052565b6001600160401b0381116112ad57601f01601f191660200190565b81601f820112156101ab5780359061133482611302565b9261134260405194856112df565b828452602083830101116101ab57816000926020809301838601378301015290565b6001600160401b0381116112ad5760051b60200190565b9080601f830112156101ab5781359061139382611364565b926113a160405194856112df565b828452602092838086019160051b830101928084116101ab57848301915b8483106113cf5750505050505090565b82356001600160401b0381116101ab5786916113f08484809489010161131d565b8152019201916113bf565b60609060208152600e60208201526d496e76616c69642073746174757360901b60408201520190565b60209081818403126101ab578051906001600160401b0382116101ab57019180601f840112156101ab57825161145981611364565b9361146760405195866112df565b818552838086019260051b8201019283116101ab578301905b82821061148e575050505090565b81518152908301908301611480565b604051906114aa826112c3565b81610180600091828152826020820152606080604083015280808301528060808301528360a08301528360c08301528060e08301528361010083015283610120830152806101408301526101608201520152565b9061150882611364565b61151560405191826112df565b8281528092611526601f1991611364565b019060005b82811061153757505050565b60209061154261149d565b8282850101520161152b565b9061155882611364565b61156560405191826112df565b8281528092611576601f1991611364565b0190602036910137565b600019811461158f5760010190565b634e487b7160e01b600052601160045260246000fd5b80518210156115b95760209160051b010190565b634e487b7160e01b600052603260045260246000fd5b81601f820112156101ab5780516115e581611302565b926115f360405194856112df565b818452602082840101116101ab576111679160208085019101610fc9565b602080828403126101ab5781516001600160401b03928382116101ab5701916101a0838503126101ab5760409182519461164a866112c3565b845186528185015182870152838501518381116101ab578161166d9187016115cf565b848701526060808601518481116101ab578261168a9188016115cf565b818801526080808701518581116101ab57836116a79189016115cf565b8189015260a09081880151828a015260c09182890151838b015260e08901518781116101ab5789019285601f850112156101ab578351926116e784611364565b956116f48b5197886112df565b848752888088019560051b870101958887116101ab57898101955b87871061180d57505050505050505060e0870152610100808601519060048210156101ab5787015261012085810151906001600160a01b03821682036101ab57870152610140808601518481116101ab578261176c9188016115cf565b9087015261016092838601518181116101ab5786019082601f830112156101ab578151906117a561179c83611364565b975197886112df565b818752848088019260051b840101938085116101ab57858401925b8584106117e85750505050505050830152610180809101519060058210156101ab5782015290565b83518381116101ab578791611802848480948a01016115cf565b8152019301926117c0565b86518c81116101ab57820185601f19828d0301126101ab578d5186810192908e8411818510176118a757928f52818d0151928e84116101ab578f8f948f8f90611858928701016115cf565b82528301519384116101ab578f838f95918f61187a90888d95819901016115cf565b86850152888201519084015288810151888401528a8101518984015201518982015281520196019561170f565b60246000634e487b7160e01b81526041600452fd5b908160209103126101ab575180151581036101ab579056fea2646970667358221220c7ef6d38c6a1fc5f2261734b79d582d2f9ddb4de8debdc97f69db8d31cbc94da64736f6c63430008130033","opcodes":"PUSH1 0x80 CALLVALUE PUSH2 0x7C JUMPI PUSH1 0x1F PUSH2 0x19A2 CODESIZE DUP2 SWAP1 SUB SWAP2 DUP3 ADD PUSH1 0x1F NOT AND DUP4 ADD SWAP2 PUSH1 0x1 PUSH1 0x1 PUSH1 0x40 SHL SUB DUP4 GT DUP5 DUP5 LT OR PUSH2 0x81 JUMPI DUP1 DUP5 SWAP3 PUSH1 0x20 SWAP5 PUSH1 0x40 MSTORE DUP4 CODECOPY DUP2 ADD SUB SLT PUSH2 0x7C JUMPI MLOAD PUSH1 0x1 PUSH1 0x1 PUSH1 0xA0 SHL SUB DUP2 AND SWAP1 DUP2 SWAP1 SUB PUSH2 0x7C JUMPI PUSH1 0x1 DUP1 PUSH1 0xA0 SHL SUB NOT SWAP1 DUP2 PUSH1 0x0 SLOAD AND OR PUSH1 0x0 SSTORE CALLER SWAP1 PUSH1 0x1 SLOAD AND OR PUSH1 0x1 SSTORE PUSH1 0x40 MLOAD PUSH2 0x190A SWAP1 DUP2 PUSH2 0x98 DUP3 CODECOPY RETURN JUMPDEST PUSH1 0x0 DUP1 REVERT JUMPDEST PUSH4 0x4E487B71 PUSH1 0xE0 SHL PUSH1 0x0 MSTORE PUSH1 0x41 PUSH1 0x4 MSTORE PUSH1 0x24 PUSH1 0x0 REVERT INVALID PUSH1 0x80 DUP1 PUSH1 0x40 MSTORE PUSH1 0x4 CALLDATASIZE LT ISZERO PUSH2 0x13 JUMPI PUSH1 0x0 DUP1 REVERT JUMPDEST PUSH1 0x0 SWAP1 DUP2 CALLDATALOAD PUSH1 0xE0 SHR SWAP1 DUP2 PUSH4 0x38031123 EQ PUSH2 0xC94 JUMPI POP DUP1 PUSH4 0x4663A28C EQ PUSH2 0x985 JUMPI DUP1 PUSH4 0x5563633D EQ PUSH2 0x6F2 JUMPI DUP1 PUSH4 0x56E4B68B EQ PUSH2 0x6C9 JUMPI DUP1 PUSH4 0x86275C5A EQ PUSH2 0x248 JUMPI DUP1 PUSH4 0xB3E444A7 EQ PUSH2 0x1B3 JUMPI PUSH4 0xF3AB880E EQ PUSH2 0x6E JUMPI PUSH1 0x0 DUP1 REVERT JUMPDEST CALLVALUE PUSH2 0x1B0 JUMPI PUSH1 0x20 CALLDATASIZE PUSH1 0x3 NOT ADD SLT PUSH2 0x1B0 JUMPI PUSH1 0x4 CALLDATALOAD PUSH1 0x1 PUSH1 0x1 PUSH1 0xA0 SHL SUB DUP2 DUP2 AND SWAP3 SWAP2 DUP4 SWAP1 SUB PUSH2 0x1AB JUMPI DUP2 SLOAD AND PUSH1 0x40 MLOAD SWAP3 PUSH4 0x79D5C407 PUSH1 0xE1 SHL DUP5 MSTORE PUSH1 0x4 DUP5 ADD MSTORE PUSH1 0x24 SWAP1 DUP3 DUP5 DUP4 DUP2 DUP5 GAS STATICCALL SWAP4 DUP5 ISZERO PUSH2 0x1A0 JUMPI DUP4 SWAP5 PUSH2 0x17C JUMPI JUMPDEST POP DUP4 MLOAD SWAP2 PUSH2 0xD1 DUP4 PUSH2 0x14FE JUMP JUMPDEST SWAP5 DUP5 JUMPDEST DUP5 DUP2 LT PUSH2 0xF5 JUMPI PUSH1 0x40 MLOAD PUSH1 0x20 DUP1 DUP3 MSTORE DUP2 SWAP1 PUSH2 0xF1 SWAP1 DUP3 ADD DUP11 PUSH2 0x120A JUMP JUMPDEST SUB SWAP1 RETURN JUMPDEST PUSH2 0xFF DUP2 DUP4 PUSH2 0x15A5 JUMP JUMPDEST MLOAD PUSH1 0x40 MLOAD SWAP1 PUSH4 0x1D591EB7 PUSH1 0xE3 SHL DUP3 MSTORE PUSH1 0x4 DUP3 ADD MSTORE DUP7 DUP2 DUP6 DUP2 DUP9 GAS STATICCALL SWAP1 DUP2 ISZERO PUSH2 0x171 JUMPI SWAP1 PUSH2 0x14A SWAP3 SWAP2 DUP9 SWAP2 PUSH2 0x14F JUMPI JUMPDEST POP PUSH2 0x139 DUP3 DUP11 PUSH2 0x15A5 JUMP JUMPDEST MSTORE PUSH2 0x144 DUP2 DUP10 PUSH2 0x15A5 JUMP JUMPDEST POP PUSH2 0x1580 JUMP JUMPDEST PUSH2 0xD4 JUMP JUMPDEST PUSH2 0x16B SWAP2 POP RETURNDATASIZE DUP1 DUP11 DUP4 RETURNDATACOPY PUSH2 0x163 DUP2 DUP4 PUSH2 0x12DF JUMP JUMPDEST DUP2 ADD SWAP1 PUSH2 0x1611 JUMP JUMPDEST CODESIZE PUSH2 0x12E JUMP JUMPDEST PUSH1 0x40 MLOAD RETURNDATASIZE DUP10 DUP3 RETURNDATACOPY RETURNDATASIZE SWAP1 REVERT JUMPDEST PUSH2 0x199 SWAP2 SWAP5 POP RETURNDATASIZE DUP1 DUP6 DUP4 RETURNDATACOPY PUSH2 0x191 DUP2 DUP4 PUSH2 0x12DF JUMP JUMPDEST DUP2 ADD SWAP1 PUSH2 0x1424 JUMP JUMPDEST SWAP3 CODESIZE PUSH2 0xC4 JUMP JUMPDEST PUSH1 0x40 MLOAD RETURNDATASIZE DUP6 DUP3 RETURNDATACOPY RETURNDATASIZE SWAP1 REVERT JUMPDEST PUSH1 0x0 DUP1 REVERT JUMPDEST DUP1 REVERT JUMPDEST POP CALLVALUE PUSH2 0x1B0 JUMPI PUSH1 0x20 CALLDATASIZE PUSH1 0x3 NOT ADD SLT PUSH2 0x1B0 JUMPI PUSH2 0x1CD PUSH2 0x149D JUMP JUMPDEST POP DUP1 SLOAD PUSH1 0x40 MLOAD PUSH4 0x1D591EB7 PUSH1 0xE3 SHL DUP2 MSTORE PUSH1 0x4 DUP1 CALLDATALOAD SWAP1 DUP3 ADD MSTORE SWAP1 DUP3 SWAP1 DUP3 SWAP1 PUSH1 0x24 SWAP1 DUP3 SWAP1 PUSH1 0x1 PUSH1 0x1 PUSH1 0xA0 SHL SUB AND GAS STATICCALL SWAP1 DUP2 ISZERO PUSH2 0x23D JUMPI DUP3 PUSH2 0xF1 SWAP4 SWAP3 PUSH2 0x222 JUMPI JUMPDEST POP POP PUSH1 0x40 MLOAD SWAP2 DUP3 SWAP2 PUSH1 0x20 DUP4 MSTORE PUSH1 0x20 DUP4 ADD SWAP1 PUSH2 0x1034 JUMP JUMPDEST PUSH2 0x236 SWAP3 POP RETURNDATASIZE DUP1 SWAP2 DUP4 RETURNDATACOPY PUSH2 0x163 DUP2 DUP4 PUSH2 0x12DF JUMP JUMPDEST CODESIZE DUP1 PUSH2 0x20C JUMP JUMPDEST PUSH1 0x40 MLOAD RETURNDATASIZE DUP5 DUP3 RETURNDATACOPY RETURNDATASIZE SWAP1 REVERT JUMPDEST POP CALLVALUE PUSH2 0x1B0 JUMPI PUSH2 0x140 CALLDATASIZE PUSH1 0x3 NOT ADD SLT PUSH2 0x1B0 JUMPI PUSH1 0x1 PUSH1 0x1 PUSH1 0x40 SHL SUB PUSH1 0x24 CALLDATALOAD DUP2 DUP2 GT PUSH2 0x55E JUMPI PUSH2 0x27B SWAP1 CALLDATASIZE SWAP1 PUSH1 0x4 ADD PUSH2 0x131D JUMP JUMPDEST PUSH1 0x44 CALLDATALOAD DUP3 DUP2 GT PUSH2 0x542 JUMPI PUSH2 0x293 SWAP1 CALLDATASIZE SWAP1 PUSH1 0x4 ADD PUSH2 0x131D JUMP JUMPDEST SWAP1 PUSH1 0x64 CALLDATALOAD DUP4 DUP2 GT PUSH2 0x6C5 JUMPI PUSH2 0x2AC SWAP1 CALLDATASIZE SWAP1 PUSH1 0x4 ADD PUSH2 0x131D JUMP JUMPDEST SWAP3 PUSH1 0xA4 CALLDATALOAD SWAP2 PUSH1 0x1 PUSH1 0x1 PUSH1 0xA0 SHL SUB DUP4 AND DUP4 SUB PUSH2 0x1AB JUMPI PUSH1 0xC4 CALLDATALOAD DUP3 DUP2 GT PUSH2 0x6C1 JUMPI PUSH2 0x2D9 SWAP1 CALLDATASIZE SWAP1 PUSH1 0x4 ADD PUSH2 0x131D JUMP JUMPDEST SWAP5 PUSH1 0xE4 CALLDATALOAD DUP4 DUP2 GT PUSH2 0x6BD JUMPI PUSH2 0x2F2 SWAP1 CALLDATASIZE SWAP1 PUSH1 0x4 ADD PUSH2 0x131D JUMP JUMPDEST SWAP3 PUSH2 0x104 CALLDATALOAD SWAP1 DUP2 GT PUSH2 0x6BD JUMPI PUSH2 0x30C SWAP1 CALLDATASIZE SWAP1 PUSH1 0x4 ADD PUSH2 0x137B JUMP JUMPDEST PUSH1 0x5 PUSH2 0x124 CALLDATALOAD LT ISZERO PUSH2 0x6BD JUMPI PUSH1 0x1 SLOAD PUSH1 0x1 PUSH1 0x1 PUSH1 0xA0 SHL SUB AND CALLER SUB PUSH2 0x669 JUMPI PUSH1 0x4 CALLDATALOAD ISZERO PUSH2 0x62D JUMPI TIMESTAMP PUSH1 0x84 CALLDATALOAD LT PUSH2 0x5D7 JUMPI PUSH1 0x1 PUSH1 0x1 PUSH1 0xA0 SHL SUB DUP6 AND ISZERO PUSH2 0x599 JUMPI DUP8 SLOAD PUSH1 0x40 MLOAD PUSH4 0xAAC5DFD PUSH1 0xE0 SHL DUP2 MSTORE SWAP7 DUP10 SWAP6 PUSH1 0x1 PUSH1 0x1 PUSH1 0xA0 SHL SUB SWAP1 SWAP3 AND SWAP4 SWAP1 PUSH1 0x20 DUP10 PUSH1 0x4 DUP2 DUP9 GAS STATICCALL SWAP9 DUP10 ISZERO PUSH2 0x171 JUMPI DUP8 SWAP10 PUSH2 0x562 JUMPI JUMPDEST POP PUSH1 0x40 MLOAD SWAP6 PUSH2 0x38E DUP8 PUSH2 0x12C3 JUMP JUMPDEST DUP10 DUP8 MSTORE PUSH1 0x4 CALLDATALOAD PUSH1 0x20 DUP9 ADD MSTORE PUSH1 0x40 DUP8 ADD MSTORE PUSH1 0x60 DUP7 ADD MSTORE PUSH1 0x80 DUP6 ADD MSTORE TIMESTAMP PUSH1 0xA0 DUP6 ADD MSTORE PUSH1 0x84 CALLDATALOAD PUSH1 0xC0 DUP6 ADD MSTORE PUSH1 0x60 PUSH1 0xE0 DUP6 ADD MSTORE DUP5 PUSH2 0x100 DUP6 ADD MSTORE DUP5 PUSH2 0x120 DUP6 ADD MSTORE PUSH2 0x140 DUP5 ADD MSTORE PUSH2 0x160 DUP4 ADD MSTORE PUSH2 0x124 CALLDATALOAD PUSH2 0x180 DUP4 ADD MSTORE DUP1 EXTCODESIZE ISZERO PUSH2 0x55E JUMPI PUSH2 0x41A DUP4 SWAP3 SWAP2 DUP4 SWAP3 PUSH1 0x40 MLOAD SWAP5 DUP6 DUP1 SWAP5 DUP2 SWAP4 PUSH4 0x1B8513E9 PUSH1 0xE3 SHL DUP4 MSTORE DUP12 PUSH1 0x4 DUP5 ADD MSTORE PUSH1 0x60 PUSH1 0x24 DUP5 ADD MSTORE PUSH1 0x64 DUP4 ADD SWAP1 PUSH2 0x1034 JUMP JUMPDEST PUSH1 0x1 PUSH1 0x1 PUSH1 0xA0 SHL SUB DUP11 AND PUSH1 0x44 DUP4 ADD MSTORE SUB SWAP3 GAS CALL DUP1 ISZERO PUSH2 0x23D JUMPI PUSH2 0x54A JUMPI JUMPDEST POP DUP1 SLOAD PUSH1 0x1 PUSH1 0x1 PUSH1 0xA0 SHL SUB AND DUP1 EXTCODESIZE ISZERO PUSH2 0x546 JUMPI PUSH1 0x40 MLOAD PUSH4 0x34FF2619 PUSH1 0xE2 SHL DUP2 MSTORE PUSH1 0x1 PUSH1 0x1 PUSH1 0xA0 SHL SUB DUP5 AND PUSH1 0x4 DUP3 ADD MSTORE PUSH1 0x24 DUP2 ADD DUP6 SWAP1 MSTORE PUSH1 0x60 PUSH1 0x44 DUP3 ADD MSTORE SWAP1 DUP3 SWAP1 DUP3 SWAP1 DUP2 DUP4 DUP2 PUSH2 0x48A PUSH1 0x64 DUP3 ADD DUP13 PUSH2 0xFEC JUMP JUMPDEST SUB SWAP3 GAS CALL DUP1 ISZERO PUSH2 0x23D JUMPI PUSH2 0x52E JUMPI JUMPDEST POP POP PUSH1 0x40 MLOAD PUSH1 0x20 DUP1 DUP3 MSTORE PUSH1 0x1 PUSH1 0x1 PUSH1 0xA0 SHL SUB SWAP1 SWAP3 AND SWAP4 PUSH32 0x49B4E4C6879CDC85B51D8C3B572252AAA7842EDB863810854ACB6D2ED420D962 SWAP3 DUP3 SWAP2 PUSH2 0x4DF SWAP2 DUP4 ADD SWAP1 PUSH2 0xFEC JUMP JUMPDEST SUB SWAP1 LOG3 DUP1 SLOAD DUP2 SWAP1 PUSH1 0x1 PUSH1 0x1 PUSH1 0xA0 SHL SUB AND DUP1 EXTCODESIZE ISZERO PUSH2 0x52B JUMPI DUP2 DUP1 SWAP2 PUSH1 0x4 PUSH1 0x40 MLOAD DUP1 SWAP5 DUP2 SWAP4 PUSH4 0x2C5BDB1F PUSH1 0xE0 SHL DUP4 MSTORE GAS CALL DUP1 ISZERO PUSH2 0x23D JUMPI PUSH2 0x51B JUMPI POP RETURN JUMPDEST PUSH2 0x524 SWAP1 PUSH2 0x129A JUMP JUMPDEST PUSH2 0x1B0 JUMPI DUP1 RETURN JUMPDEST POP REVERT JUMPDEST PUSH2 0x537 SWAP1 PUSH2 0x129A JUMP JUMPDEST PUSH2 0x542 JUMPI DUP4 CODESIZE PUSH2 0x499 JUMP JUMPDEST DUP4 DUP1 REVERT JUMPDEST POP DUP1 REVERT JUMPDEST PUSH2 0x553 SWAP1 PUSH2 0x129A JUMP JUMPDEST PUSH2 0x542 JUMPI DUP4 CODESIZE PUSH2 0x438 JUMP JUMPDEST DUP3 DUP1 REVERT JUMPDEST SWAP7 POP SWAP8 POP PUSH1 0x20 DUP7 RETURNDATASIZE PUSH1 0x20 GT PUSH2 0x591 JUMPI JUMPDEST DUP2 PUSH2 0x57F PUSH1 0x20 SWAP4 DUP4 PUSH2 0x12DF JUMP JUMPDEST DUP2 ADD SUB SLT PUSH2 0x1AB JUMPI DUP10 SWAP6 MLOAD SWAP8 CODESIZE PUSH2 0x380 JUMP JUMPDEST RETURNDATASIZE SWAP2 POP PUSH2 0x572 JUMP JUMPDEST PUSH1 0x40 MLOAD PUSH3 0x461BCD PUSH1 0xE5 SHL DUP2 MSTORE PUSH1 0x20 PUSH1 0x4 DUP3 ADD MSTORE PUSH1 0x16 PUSH1 0x24 DUP3 ADD MSTORE PUSH22 0x416464726573732063616E6E6F74206265207A65726F PUSH1 0x50 SHL PUSH1 0x44 DUP3 ADD MSTORE PUSH1 0x64 SWAP1 REVERT JUMPDEST PUSH1 0x40 MLOAD PUSH3 0x461BCD PUSH1 0xE5 SHL DUP2 MSTORE PUSH1 0x20 PUSH1 0x4 DUP3 ADD MSTORE PUSH1 0x28 PUSH1 0x24 DUP3 ADD MSTORE PUSH32 0x50726F6A65637420656E6420646174652073686F756C6420626520696E207468 PUSH1 0x44 DUP3 ADD MSTORE PUSH8 0x6520667574757265 PUSH1 0xC0 SHL PUSH1 0x64 DUP3 ADD MSTORE PUSH1 0x84 SWAP1 REVERT JUMPDEST PUSH1 0x40 MLOAD PUSH3 0x461BCD PUSH1 0xE5 SHL DUP2 MSTORE PUSH1 0x20 PUSH1 0x4 DUP3 ADD MSTORE PUSH1 0x14 PUSH1 0x24 DUP3 ADD MSTORE PUSH20 0x50726963652063616E6E6F74206265207A65726F PUSH1 0x60 SHL PUSH1 0x44 DUP3 ADD MSTORE PUSH1 0x64 SWAP1 REVERT JUMPDEST PUSH1 0x40 MLOAD PUSH3 0x461BCD PUSH1 0xE5 SHL DUP2 MSTORE PUSH1 0x20 PUSH1 0x4 DUP3 ADD MSTORE PUSH1 0x26 PUSH1 0x24 DUP3 ADD MSTORE PUSH32 0x4F6E6C792073757065727669736F722063616E2063616C6C2074686973206675 PUSH1 0x44 DUP3 ADD MSTORE PUSH6 0x3731BA34B7B7 PUSH1 0xD1 SHL PUSH1 0x64 DUP3 ADD MSTORE PUSH1 0x84 SWAP1 REVERT JUMPDEST DUP8 DUP1 REVERT JUMPDEST DUP7 DUP1 REVERT JUMPDEST DUP5 DUP1 REVERT JUMPDEST POP CALLVALUE PUSH2 0x1B0 JUMPI DUP1 PUSH1 0x3 NOT CALLDATASIZE ADD SLT PUSH2 0x1B0 JUMPI PUSH1 0x1 SLOAD PUSH1 0x40 MLOAD PUSH1 0x1 PUSH1 0x1 PUSH1 0xA0 SHL SUB SWAP1 SWAP2 AND DUP2 MSTORE PUSH1 0x20 SWAP1 RETURN JUMPDEST POP CALLVALUE PUSH2 0x1B0 JUMPI PUSH1 0x80 CALLDATASIZE PUSH1 0x3 NOT ADD SLT PUSH2 0x1B0 JUMPI PUSH1 0x24 SWAP1 PUSH1 0x1 PUSH1 0x1 PUSH1 0x40 SHL SUB PUSH1 0x4 CALLDATALOAD DUP4 CALLDATALOAD DUP3 DUP2 GT PUSH2 0x542 JUMPI PUSH2 0x729 SWAP1 CALLDATASIZE SWAP1 PUSH1 0x4 ADD PUSH2 0x131D JUMP JUMPDEST SWAP2 PUSH1 0x44 CALLDATALOAD DUP2 DUP2 GT PUSH2 0x6C5 JUMPI PUSH2 0x742 SWAP1 CALLDATASIZE SWAP1 PUSH1 0x4 ADD PUSH2 0x137B JUMP JUMPDEST SWAP1 PUSH1 0x64 CALLDATALOAD SWAP1 DUP2 GT PUSH2 0x6C5 JUMPI PUSH2 0x75B SWAP1 CALLDATASIZE SWAP1 PUSH1 0x4 ADD PUSH2 0x131D JUMP JUMPDEST DUP5 SLOAD PUSH1 0x40 MLOAD PUSH4 0x4F558E79 PUSH1 0xE0 SHL DUP2 MSTORE PUSH1 0x4 DUP2 ADD DUP6 SWAP1 MSTORE PUSH1 0x1 PUSH1 0x1 PUSH1 0xA0 SHL SUB SWAP1 SWAP2 AND SWAP3 SWAP1 PUSH1 0x20 SWAP1 DUP2 DUP2 DUP11 DUP2 DUP9 GAS STATICCALL SWAP1 DUP2 ISZERO PUSH2 0x923 JUMPI DUP9 SWAP2 PUSH2 0x968 JUMPI JUMPDEST POP ISZERO PUSH2 0x92E JUMPI PUSH1 0x40 MLOAD PUSH4 0x430C2081 PUSH1 0xE0 SHL DUP2 MSTORE CALLER PUSH1 0x4 DUP3 ADD MSTORE DUP9 DUP2 ADD DUP7 SWAP1 MSTORE DUP2 DUP2 PUSH1 0x44 DUP2 DUP9 GAS STATICCALL SWAP1 DUP2 ISZERO PUSH2 0x923 JUMPI DUP9 SWAP2 PUSH2 0x8F6 JUMPI JUMPDEST POP ISZERO PUSH2 0x8BB JUMPI POP DUP6 SWAP4 SWAP3 SWAP2 DUP8 SWAP2 PUSH1 0x40 MLOAD SWAP7 PUSH4 0x1D591EB7 PUSH1 0xE3 SHL DUP9 MSTORE DUP6 PUSH1 0x4 DUP10 ADD MSTORE DUP7 DUP9 DUP6 DUP2 DUP9 GAS STATICCALL SWAP8 DUP9 ISZERO PUSH2 0x171 JUMPI DUP8 SWAP9 PUSH2 0x89F JUMPI JUMPDEST POP DUP1 MLOAD ISZERO PUSH2 0x893 JUMPI JUMPDEST PUSH2 0x140 DUP9 ADD MSTORE DUP1 MLOAD ISZERO PUSH2 0x887 JUMPI JUMPDEST PUSH2 0x160 DUP8 ADD MSTORE DUP1 MLOAD ISZERO PUSH2 0x87C JUMPI JUMPDEST PUSH1 0x80 DUP7 ADD MSTORE DUP2 EXTCODESIZE ISZERO PUSH2 0x542 JUMPI DUP4 PUSH1 0x40 SWAP4 PUSH2 0x85E DUP6 MLOAD SWAP8 DUP9 SWAP7 DUP8 SWAP6 DUP7 SWAP5 PUSH4 0x1C299529 PUSH1 0xE3 SHL DUP7 MSTORE PUSH1 0x4 DUP7 ADD MSTORE DUP5 ADD MSTORE PUSH1 0x44 DUP4 ADD SWAP1 PUSH2 0x1034 JUMP JUMPDEST SUB SWAP3 GAS CALL DUP1 ISZERO PUSH2 0x23D JUMPI PUSH2 0x870 JUMPI POP DUP1 RETURN JUMPDEST PUSH2 0x879 SWAP1 PUSH2 0x129A JUMP JUMPDEST DUP1 RETURN JUMPDEST POP PUSH1 0x80 DUP6 ADD MLOAD PUSH2 0x826 JUMP JUMPDEST POP PUSH2 0x160 DUP7 ADD MLOAD PUSH2 0x818 JUMP JUMPDEST POP PUSH2 0x140 DUP8 ADD MLOAD PUSH2 0x80A JUMP JUMPDEST PUSH2 0x8B4 SWAP2 SWAP9 POP RETURNDATASIZE DUP1 DUP10 DUP4 RETURNDATACOPY PUSH2 0x163 DUP2 DUP4 PUSH2 0x12DF JUMP JUMPDEST SWAP7 DUP10 PUSH2 0x801 JUMP JUMPDEST PUSH1 0x64 SWAP1 PUSH1 0x15 DUP10 PUSH1 0x40 MLOAD SWAP3 PUSH3 0x461BCD PUSH1 0xE5 SHL DUP5 MSTORE PUSH1 0x4 DUP5 ADD MSTORE DUP3 ADD MSTORE PUSH21 0x2737BA1030B8383937BB32B21037B91037BBB732B9 PUSH1 0x59 SHL PUSH1 0x44 DUP3 ADD MSTORE REVERT JUMPDEST PUSH2 0x916 SWAP2 POP DUP3 RETURNDATASIZE DUP5 GT PUSH2 0x91C JUMPI JUMPDEST PUSH2 0x90E DUP2 DUP4 PUSH2 0x12DF JUMP JUMPDEST DUP2 ADD SWAP1 PUSH2 0x18BC JUMP JUMPDEST CODESIZE PUSH2 0x7CB JUMP JUMPDEST POP RETURNDATASIZE PUSH2 0x904 JUMP JUMPDEST PUSH1 0x40 MLOAD RETURNDATASIZE DUP11 DUP3 RETURNDATACOPY RETURNDATASIZE SWAP1 REVERT JUMPDEST PUSH1 0x64 SWAP1 PUSH1 0x14 DUP10 PUSH1 0x40 MLOAD SWAP3 PUSH3 0x461BCD PUSH1 0xE5 SHL DUP5 MSTORE PUSH1 0x4 DUP5 ADD MSTORE DUP3 ADD MSTORE PUSH20 0x105CDCD95D08191BD95CC81B9BDD08195E1A5CDD PUSH1 0x62 SHL PUSH1 0x44 DUP3 ADD MSTORE REVERT JUMPDEST PUSH2 0x97F SWAP2 POP DUP3 RETURNDATASIZE DUP5 GT PUSH2 0x91C JUMPI PUSH2 0x90E DUP2 DUP4 PUSH2 0x12DF JUMP JUMPDEST CODESIZE PUSH2 0x796 JUMP JUMPDEST POP CALLVALUE PUSH2 0x1B0 JUMPI PUSH1 0x40 CALLDATASIZE PUSH1 0x3 NOT ADD SLT PUSH2 0x1B0 JUMPI PUSH1 0x4 CALLDATALOAD PUSH1 0x4 DUP2 LT ISZERO PUSH2 0x546 JUMPI PUSH1 0x24 DUP1 CALLDATALOAD SWAP2 PUSH1 0x5 DUP4 LT ISZERO PUSH2 0x542 JUMPI DUP1 PUSH2 0xB9C JUMPI POP DUP3 SLOAD PUSH1 0x40 MLOAD PUSH4 0x1FB15DD PUSH1 0xE3 SHL DUP2 MSTORE SWAP1 DUP5 SWAP1 DUP3 SWAP1 PUSH1 0x4 SWAP1 DUP3 SWAP1 PUSH1 0x1 PUSH1 0x1 PUSH1 0xA0 SHL SUB AND GAS STATICCALL SWAP1 DUP2 ISZERO PUSH2 0xB91 JUMPI DUP5 SWAP2 PUSH2 0xB77 JUMPI JUMPDEST POP SWAP3 JUMPDEST DUP1 SLOAD PUSH1 0x40 MLOAD PUSH4 0xA2311D5F PUSH1 0xE0 SHL DUP2 MSTORE PUSH1 0x1 PUSH1 0x1 PUSH1 0xA0 SHL SUB SWAP1 SWAP2 AND SWAP4 PUSH2 0xA15 SWAP1 PUSH1 0x4 DUP4 ADD SWAP1 PUSH2 0x1011 JUMP JUMPDEST DUP2 DUP2 DUP5 DUP2 DUP8 GAS STATICCALL SWAP1 DUP2 ISZERO PUSH2 0x23D JUMPI DUP3 SWAP2 PUSH2 0xB5D JUMPI JUMPDEST POP PUSH2 0xA35 DUP2 MLOAD PUSH2 0x154E JUMP JUMPDEST SWAP3 DUP3 SWAP1 DUP4 JUMPDEST DUP8 MLOAD DUP2 LT ISZERO PUSH2 0xA67 JUMPI DUP1 PUSH2 0xA51 PUSH2 0xA62 SWAP3 DUP11 PUSH2 0x15A5 JUMP JUMPDEST MLOAD PUSH2 0xA5C DUP3 DUP10 PUSH2 0x15A5 JUMP JUMPDEST MSTORE PUSH2 0x1580 JUMP JUMPDEST PUSH2 0xA3A JUMP JUMPDEST POP SWAP1 SWAP2 SWAP3 SWAP5 PUSH2 0xA76 DUP5 MLOAD PUSH2 0x14FE JUMP JUMPDEST SWAP2 DUP7 SWAP5 JUMPDEST DUP1 MLOAD DUP7 LT ISZERO PUSH2 0xB47 JUMPI DUP8 JUMPDEST DUP8 MLOAD DUP2 LT ISZERO PUSH2 0xB3C JUMPI PUSH2 0xA98 DUP8 DUP4 PUSH2 0x15A5 JUMP JUMPDEST MLOAD PUSH2 0xAA3 DUP3 DUP11 PUSH2 0x15A5 JUMP JUMPDEST MLOAD EQ PUSH2 0xAB7 JUMPI PUSH2 0xAB2 SWAP1 PUSH2 0x1580 JUMP JUMPDEST PUSH2 0xA85 JUMP JUMPDEST POP SWAP5 SWAP4 PUSH2 0xAC4 DUP6 DUP8 PUSH2 0x15A5 JUMP JUMPDEST MLOAD PUSH1 0x40 MLOAD SWAP1 PUSH4 0x1D591EB7 PUSH1 0xE3 SHL DUP3 MSTORE PUSH1 0x4 DUP3 ADD MSTORE DUP9 DUP2 DUP5 DUP2 DUP8 GAS STATICCALL SWAP2 DUP3 ISZERO PUSH2 0xB31 JUMPI PUSH2 0xB11 SWAP3 PUSH2 0xB0B SWAP3 DUP12 SWAP2 PUSH2 0xB17 JUMPI JUMPDEST POP PUSH2 0xB00 DUP3 DUP9 PUSH2 0x15A5 JUMP JUMPDEST MSTORE PUSH2 0x144 DUP2 DUP8 PUSH2 0x15A5 JUMP JUMPDEST SWAP5 PUSH2 0x1580 JUMP JUMPDEST SWAP5 PUSH2 0xA7A JUMP JUMPDEST PUSH2 0xB2B SWAP2 POP RETURNDATASIZE DUP1 DUP14 DUP4 RETURNDATACOPY PUSH2 0x163 DUP2 DUP4 PUSH2 0x12DF JUMP JUMPDEST DUP12 PUSH2 0xAF5 JUMP JUMPDEST PUSH1 0x40 MLOAD RETURNDATASIZE DUP12 DUP3 RETURNDATACOPY RETURNDATASIZE SWAP1 REVERT JUMPDEST POP SWAP5 PUSH2 0xB11 SWAP1 PUSH2 0x1580 JUMP JUMPDEST PUSH1 0x40 MLOAD PUSH1 0x20 DUP1 DUP3 MSTORE DUP2 SWAP1 PUSH2 0xF1 SWAP1 DUP3 ADD DUP8 PUSH2 0x120A JUMP JUMPDEST PUSH2 0xB71 SWAP2 POP RETURNDATASIZE DUP1 DUP5 DUP4 RETURNDATACOPY PUSH2 0x191 DUP2 DUP4 PUSH2 0x12DF JUMP JUMPDEST CODESIZE PUSH2 0xA2A JUMP JUMPDEST PUSH2 0xB8B SWAP2 POP RETURNDATASIZE DUP1 DUP7 DUP4 RETURNDATACOPY PUSH2 0x191 DUP2 DUP4 PUSH2 0x12DF JUMP JUMPDEST CODESIZE PUSH2 0x9E9 JUMP JUMPDEST PUSH1 0x40 MLOAD RETURNDATASIZE DUP7 DUP3 RETURNDATACOPY RETURNDATASIZE SWAP1 REVERT JUMPDEST PUSH1 0x1 DUP2 SUB PUSH2 0xBF7 JUMPI POP DUP3 SLOAD PUSH1 0x40 MLOAD PUSH3 0xDEE23 PUSH1 0xE5 SHL DUP2 MSTORE SWAP1 DUP5 SWAP1 DUP3 SWAP1 PUSH1 0x4 SWAP1 DUP3 SWAP1 PUSH1 0x1 PUSH1 0x1 PUSH1 0xA0 SHL SUB AND GAS STATICCALL SWAP1 DUP2 ISZERO PUSH2 0xB91 JUMPI DUP5 SWAP2 PUSH2 0xBDD JUMPI JUMPDEST POP SWAP3 PUSH2 0x9EC JUMP JUMPDEST PUSH2 0xBF1 SWAP2 POP RETURNDATASIZE DUP1 DUP7 DUP4 RETURNDATACOPY PUSH2 0x191 DUP2 DUP4 PUSH2 0x12DF JUMP JUMPDEST CODESIZE PUSH2 0xBD6 JUMP JUMPDEST PUSH1 0x2 DUP2 SUB PUSH2 0xC38 JUMPI POP DUP3 SLOAD PUSH1 0x40 MLOAD PUSH4 0xF4FACC5 PUSH1 0xE2 SHL DUP2 MSTORE SWAP1 DUP5 SWAP1 DUP3 SWAP1 PUSH1 0x4 SWAP1 DUP3 SWAP1 PUSH1 0x1 PUSH1 0x1 PUSH1 0xA0 SHL SUB AND GAS STATICCALL SWAP1 DUP2 ISZERO PUSH2 0xB91 JUMPI DUP5 SWAP2 PUSH2 0xBDD JUMPI POP SWAP3 PUSH2 0x9EC JUMP JUMPDEST PUSH1 0x3 SUB PUSH2 0xC77 JUMPI DUP3 SLOAD PUSH1 0x40 MLOAD PUSH4 0x5AFF92C1 PUSH1 0xE1 SHL DUP2 MSTORE SWAP1 DUP5 SWAP1 DUP3 SWAP1 PUSH1 0x4 SWAP1 DUP3 SWAP1 PUSH1 0x1 PUSH1 0x1 PUSH1 0xA0 SHL SUB AND GAS STATICCALL SWAP1 DUP2 ISZERO PUSH2 0xB91 JUMPI DUP5 SWAP2 PUSH2 0xBDD JUMPI POP SWAP3 PUSH2 0x9EC JUMP JUMPDEST PUSH1 0x40 MLOAD PUSH3 0x461BCD PUSH1 0xE5 SHL DUP2 MSTORE DUP1 PUSH2 0xC90 PUSH1 0x4 DUP3 ADD PUSH2 0x13FB JUMP JUMPDEST SUB SWAP1 REVERT JUMPDEST DUP3 CALLVALUE PUSH2 0x1B0 JUMPI PUSH1 0x20 SWAP2 DUP3 PUSH1 0x3 NOT CALLDATASIZE ADD SLT PUSH2 0x546 JUMPI PUSH1 0x4 CALLDATALOAD PUSH1 0x4 DUP2 LT ISZERO PUSH2 0x55E JUMPI DUP1 PUSH2 0xED5 JUMPI POP POP DUP1 SLOAD PUSH1 0x40 MLOAD PUSH4 0x1FB15DD PUSH1 0xE3 SHL DUP2 MSTORE SWAP1 DUP3 SWAP1 DUP3 SWAP1 PUSH1 0x4 SWAP1 DUP3 SWAP1 PUSH1 0x1 PUSH1 0x1 PUSH1 0xA0 SHL SUB AND GAS STATICCALL SWAP1 DUP2 ISZERO PUSH2 0x23D JUMPI DUP3 SWAP2 PUSH2 0xEBB JUMPI JUMPDEST POP SWAP1 JUMPDEST DUP2 MLOAD SWAP2 PUSH2 0xCFC DUP4 PUSH2 0x14FE JUMP JUMPDEST SWAP3 PUSH2 0xD06 DUP2 PUSH2 0x154E JUMP JUMPDEST SWAP2 PUSH2 0xD10 DUP3 PUSH2 0x154E JUMP JUMPDEST DUP5 SLOAD SWAP1 SWAP5 PUSH1 0x1 PUSH1 0x1 PUSH1 0xA0 SHL SUB SWAP1 SWAP2 AND SWAP2 DUP2 JUMPDEST DUP5 DUP2 LT PUSH2 0xD65 JUMPI PUSH2 0xD4A DUP9 PUSH2 0xF1 DUP10 PUSH2 0xD57 DUP14 DUP12 PUSH1 0x40 MLOAD SWAP7 DUP8 SWAP7 PUSH1 0x60 DUP9 MSTORE PUSH1 0x60 DUP9 ADD SWAP1 PUSH2 0x120A JUMP JUMPDEST SWAP2 DUP7 DUP4 SUB SWAP1 DUP8 ADD MSTORE PUSH2 0x1266 JUMP JUMPDEST SWAP1 DUP4 DUP3 SUB PUSH1 0x40 DUP6 ADD MSTORE PUSH2 0x1266 JUMP JUMPDEST PUSH2 0xD6F DUP2 DUP4 PUSH2 0x15A5 JUMP JUMPDEST MLOAD SWAP1 PUSH1 0x40 MLOAD SWAP2 PUSH4 0x1D591EB7 PUSH1 0xE3 SHL DUP4 MSTORE PUSH1 0x4 DUP4 ADD MSTORE PUSH1 0x24 SWAP2 DUP5 DUP2 DUP5 DUP2 DUP10 GAS STATICCALL SWAP1 DUP2 ISZERO PUSH2 0xE96 JUMPI DUP6 SWAP2 PUSH2 0xEA1 JUMPI JUMPDEST POP PUSH2 0xDA7 DUP3 DUP12 PUSH2 0x15A5 JUMP JUMPDEST MSTORE PUSH2 0xDB2 DUP2 DUP11 PUSH2 0x15A5 JUMP JUMPDEST POP PUSH2 0xDBD DUP2 DUP5 PUSH2 0x15A5 JUMP JUMPDEST MLOAD PUSH1 0x40 MLOAD SWAP1 PUSH4 0x34422A47 PUSH1 0xE0 SHL DUP3 MSTORE PUSH1 0x4 DUP3 ADD MSTORE DUP11 DUP2 DUP5 DUP2 DUP10 GAS STATICCALL SWAP1 DUP2 ISZERO PUSH2 0xE96 JUMPI DUP6 SWAP2 PUSH2 0xE69 JUMPI JUMPDEST POP PUSH2 0xDF1 DUP3 DUP10 PUSH2 0x15A5 JUMP JUMPDEST MSTORE DUP10 PUSH2 0xDFD DUP3 DUP6 PUSH2 0x15A5 JUMP JUMPDEST MLOAD PUSH1 0x40 MLOAD SWAP4 DUP5 SWAP2 PUSH4 0x1D6E4307 PUSH1 0xE1 SHL DUP4 MSTORE PUSH1 0x4 DUP4 ADD MSTORE DUP2 DUP9 GAS STATICCALL DUP1 ISZERO PUSH2 0xB91 JUMPI DUP5 SWAP1 PUSH2 0xE38 JUMPI JUMPDEST PUSH2 0xE33 SWAP3 POP PUSH2 0xA5C DUP3 DUP11 PUSH2 0x15A5 JUMP JUMPDEST PUSH2 0xD22 JUMP JUMPDEST POP SWAP1 DUP10 DUP2 DUP2 RETURNDATASIZE DUP4 GT PUSH2 0xE62 JUMPI JUMPDEST PUSH2 0xE4F DUP2 DUP4 PUSH2 0x12DF JUMP JUMPDEST DUP2 ADD SUB SLT PUSH2 0x542 JUMPI SWAP1 PUSH2 0xE33 SWAP2 MLOAD PUSH2 0xE24 JUMP JUMPDEST POP RETURNDATASIZE PUSH2 0xE45 JUMP JUMPDEST SWAP1 POP DUP11 DUP2 DUP2 RETURNDATASIZE DUP4 GT PUSH2 0xE8F JUMPI JUMPDEST PUSH2 0xE80 DUP2 DUP4 PUSH2 0x12DF JUMP JUMPDEST DUP2 ADD SUB SLT PUSH2 0x6C5 JUMPI MLOAD DUP12 PUSH2 0xDE6 JUMP JUMPDEST POP RETURNDATASIZE PUSH2 0xE76 JUMP JUMPDEST PUSH1 0x40 MLOAD RETURNDATASIZE DUP8 DUP3 RETURNDATACOPY RETURNDATASIZE SWAP1 REVERT JUMPDEST PUSH2 0xEB5 SWAP2 POP RETURNDATASIZE DUP1 DUP8 DUP4 RETURNDATACOPY PUSH2 0x163 DUP2 DUP4 PUSH2 0x12DF JUMP JUMPDEST DUP12 PUSH2 0xD9C JUMP JUMPDEST PUSH2 0xECF SWAP2 POP RETURNDATASIZE DUP1 DUP5 DUP4 RETURNDATACOPY PUSH2 0x191 DUP2 DUP4 PUSH2 0x12DF JUMP JUMPDEST DUP4 PUSH2 0xCED JUMP JUMPDEST PUSH1 0x1 DUP2 SUB PUSH2 0xF31 JUMPI POP POP DUP1 SLOAD PUSH1 0x40 MLOAD PUSH3 0xDEE23 PUSH1 0xE5 SHL DUP2 MSTORE SWAP1 DUP3 SWAP1 DUP3 SWAP1 PUSH1 0x4 SWAP1 DUP3 SWAP1 PUSH1 0x1 PUSH1 0x1 PUSH1 0xA0 SHL SUB AND GAS STATICCALL SWAP1 DUP2 ISZERO PUSH2 0x23D JUMPI DUP3 SWAP2 PUSH2 0xF17 JUMPI JUMPDEST POP SWAP1 PUSH2 0xCF0 JUMP JUMPDEST PUSH2 0xF2B SWAP2 POP RETURNDATASIZE DUP1 DUP5 DUP4 RETURNDATACOPY PUSH2 0x191 DUP2 DUP4 PUSH2 0x12DF JUMP JUMPDEST DUP4 PUSH2 0xF10 JUMP JUMPDEST PUSH1 0x2 DUP2 SUB PUSH2 0xF73 JUMPI POP POP DUP1 SLOAD PUSH1 0x40 MLOAD PUSH4 0xF4FACC5 PUSH1 0xE2 SHL DUP2 MSTORE SWAP1 DUP3 SWAP1 DUP3 SWAP1 PUSH1 0x4 SWAP1 DUP3 SWAP1 PUSH1 0x1 PUSH1 0x1 PUSH1 0xA0 SHL SUB AND GAS STATICCALL SWAP1 DUP2 ISZERO PUSH2 0x23D JUMPI DUP3 SWAP2 PUSH2 0xF17 JUMPI POP SWAP1 PUSH2 0xCF0 JUMP JUMPDEST PUSH1 0x3 SUB PUSH2 0xFB3 JUMPI POP DUP1 SLOAD PUSH1 0x40 MLOAD PUSH4 0x5AFF92C1 PUSH1 0xE1 SHL DUP2 MSTORE SWAP1 DUP3 SWAP1 DUP3 SWAP1 PUSH1 0x4 SWAP1 DUP3 SWAP1 PUSH1 0x1 PUSH1 0x1 PUSH1 0xA0 SHL SUB AND GAS STATICCALL SWAP1 DUP2 ISZERO PUSH2 0x23D JUMPI DUP3 SWAP2 PUSH2 0xF17 JUMPI POP SWAP1 PUSH2 0xCF0 JUMP JUMPDEST PUSH3 0x461BCD PUSH1 0xE5 SHL DUP2 MSTORE DUP1 PUSH2 0xC90 PUSH1 0x4 DUP3 ADD PUSH2 0x13FB JUMP JUMPDEST PUSH1 0x0 JUMPDEST DUP4 DUP2 LT PUSH2 0xFDC JUMPI POP POP PUSH1 0x0 SWAP2 ADD MSTORE JUMP JUMPDEST DUP2 DUP2 ADD MLOAD DUP4 DUP3 ADD MSTORE PUSH1 0x20 ADD PUSH2 0xFCC JUMP JUMPDEST SWAP1 PUSH1 0x20 SWAP2 PUSH2 0x1005 DUP2 MLOAD DUP1 SWAP3 DUP2 DUP6 MSTORE DUP6 DUP1 DUP7 ADD SWAP2 ADD PUSH2 0xFC9 JUMP JUMPDEST PUSH1 0x1F ADD PUSH1 0x1F NOT AND ADD ADD SWAP1 JUMP JUMPDEST SWAP1 PUSH1 0x5 DUP3 LT ISZERO PUSH2 0x101E JUMPI MSTORE JUMP JUMPDEST PUSH4 0x4E487B71 PUSH1 0xE0 SHL PUSH1 0x0 MSTORE PUSH1 0x21 PUSH1 0x4 MSTORE PUSH1 0x24 PUSH1 0x0 REVERT JUMPDEST SWAP2 SWAP1 DUP3 MLOAD DUP2 MSTORE PUSH1 0x20 SWAP1 DUP2 DUP5 ADD MLOAD DUP3 DUP3 ADD MSTORE PUSH1 0x40 PUSH2 0x105E DUP2 DUP7 ADD MLOAD PUSH2 0x1A0 DUP1 DUP5 DUP7 ADD MSTORE DUP5 ADD SWAP1 PUSH2 0xFEC JUMP JUMPDEST PUSH2 0x1074 PUSH1 0x60 SWAP2 DUP3 DUP9 ADD MLOAD DUP6 DUP3 SUB DUP5 DUP8 ADD MSTORE PUSH2 0xFEC JUMP JUMPDEST SWAP2 PUSH2 0x108B PUSH1 0x80 SWAP4 DUP5 DUP10 ADD MLOAD DUP7 DUP3 SUB DUP7 DUP9 ADD MSTORE PUSH2 0xFEC JUMP JUMPDEST PUSH1 0xA0 SWAP4 DUP5 DUP10 ADD MLOAD DUP6 DUP8 ADD MSTORE PUSH1 0xC0 SWAP3 DUP4 DUP11 ADD MLOAD DUP5 DUP9 ADD MSTORE PUSH1 0xE0 DUP11 ADD MLOAD SWAP6 DUP8 DUP5 SUB PUSH1 0xE0 DUP10 ADD MSTORE DUP7 MLOAD SWAP5 DUP6 DUP6 MSTORE DUP10 DUP6 ADD SWAP4 DUP11 DUP1 DUP9 PUSH1 0x5 SHL DUP9 ADD ADD SWAP10 ADD SWAP8 PUSH1 0x0 SWAP7 JUMPDEST DUP13 DUP10 DUP10 LT PUSH2 0x1197 JUMPI POP POP POP POP POP POP POP POP POP POP POP PUSH2 0x100 SWAP1 DUP2 DUP7 ADD MLOAD PUSH1 0x4 DUP2 LT ISZERO PUSH2 0x101E JUMPI PUSH2 0x111B SWAP3 DUP5 ADD MSTORE PUSH2 0x120 PUSH1 0x1 DUP1 PUSH1 0xA0 SHL SUB DUP2 DUP9 ADD MLOAD AND SWAP1 DUP5 ADD MSTORE PUSH2 0x140 DUP1 DUP8 ADD MLOAD SWAP1 DUP5 DUP4 SUB SWAP1 DUP6 ADD MSTORE PUSH2 0xFEC JUMP JUMPDEST SWAP4 PUSH2 0x160 SWAP3 DUP4 DUP3 ADD MLOAD SWAP4 DUP4 DUP8 SUB SWAP1 DUP5 ADD MSTORE DUP4 MLOAD DUP1 DUP8 MSTORE DUP2 DUP8 ADD SWAP2 DUP1 DUP1 DUP4 PUSH1 0x5 SHL DUP11 ADD ADD SWAP7 ADD SWAP3 PUSH1 0x0 SWAP1 JUMPDEST DUP4 DUP3 LT PUSH2 0x116A JUMPI POP POP POP POP POP PUSH2 0x1167 SWAP3 SWAP4 SWAP5 POP PUSH2 0x180 DUP1 SWAP2 ADD MLOAD SWAP2 ADD SWAP1 PUSH2 0x1011 JUMP JUMPDEST SWAP1 JUMP JUMPDEST SWAP1 SWAP2 SWAP3 SWAP4 SWAP7 DUP4 DUP1 PUSH2 0x1188 PUSH1 0x1 SWAP4 DUP14 PUSH1 0x1F NOT SWAP1 DUP3 SUB ADD DUP7 MSTORE DUP12 MLOAD PUSH2 0xFEC JUMP JUMPDEST SWAP10 ADD SWAP3 ADD SWAP3 ADD SWAP1 SWAP4 SWAP3 SWAP2 PUSH2 0x1145 JUMP JUMPDEST DUP1 PUSH1 0x1 SWAP3 SWAP4 SWAP5 SWAP6 SWAP7 SWAP8 SWAP9 SWAP10 SWAP11 SWAP12 SWAP13 PUSH1 0x1F NOT DUP6 DUP3 SUB ADD DUP12 MSTORE DUP14 MLOAD SWAP1 DUP10 DUP1 PUSH2 0x11D7 PUSH2 0x11C7 DUP6 MLOAD DUP14 DUP7 MSTORE DUP14 DUP7 ADD SWAP1 PUSH2 0xFEC JUMP JUMPDEST DUP7 DUP7 ADD MLOAD DUP6 DUP3 SUB DUP9 DUP8 ADD MSTORE PUSH2 0xFEC JUMP JUMPDEST SWAP4 DUP14 DUP1 DUP3 ADD MLOAD SWAP1 DUP6 ADD MSTORE DUP10 DUP2 ADD MLOAD DUP11 DUP6 ADD MSTORE DUP11 DUP2 ADD MLOAD DUP12 DUP6 ADD MSTORE ADD MLOAD SWAP2 ADD MSTORE SWAP13 ADD SWAP9 ADD SWAP9 ADD SWAP7 SWAP9 SWAP8 SWAP6 SWAP5 SWAP4 SWAP3 SWAP2 SWAP1 PUSH2 0x10C9 JUMP JUMPDEST SWAP1 DUP1 DUP3 MLOAD SWAP1 DUP2 DUP2 MSTORE PUSH1 0x20 DUP1 SWAP2 ADD SWAP3 DUP2 DUP1 DUP5 PUSH1 0x5 SHL DUP4 ADD ADD SWAP6 ADD SWAP4 PUSH1 0x0 SWAP2 JUMPDEST DUP5 DUP4 LT PUSH2 0x1238 JUMPI POP POP POP POP POP POP SWAP1 JUMP JUMPDEST SWAP1 SWAP2 SWAP3 SWAP4 SWAP5 SWAP6 DUP5 DUP1 PUSH2 0x1256 PUSH1 0x1 SWAP4 PUSH1 0x1F NOT DUP7 DUP3 SUB ADD DUP8 MSTORE DUP11 MLOAD PUSH2 0x1034 JUMP JUMPDEST SWAP9 ADD SWAP4 ADD SWAP4 ADD SWAP2 SWAP5 SWAP4 SWAP3 SWAP1 PUSH2 0x1228 JUMP JUMPDEST SWAP1 DUP2 MLOAD DUP1 DUP3 MSTORE PUSH1 0x20 DUP1 DUP1 SWAP4 ADD SWAP4 ADD SWAP2 PUSH1 0x0 JUMPDEST DUP3 DUP2 LT PUSH2 0x1286 JUMPI POP POP POP POP SWAP1 JUMP JUMPDEST DUP4 MLOAD DUP6 MSTORE SWAP4 DUP2 ADD SWAP4 SWAP3 DUP2 ADD SWAP3 PUSH1 0x1 ADD PUSH2 0x1278 JUMP JUMPDEST PUSH1 0x1 PUSH1 0x1 PUSH1 0x40 SHL SUB DUP2 GT PUSH2 0x12AD JUMPI PUSH1 0x40 MSTORE JUMP JUMPDEST PUSH4 0x4E487B71 PUSH1 0xE0 SHL PUSH1 0x0 MSTORE PUSH1 0x41 PUSH1 0x4 MSTORE PUSH1 0x24 PUSH1 0x0 REVERT JUMPDEST PUSH2 0x1A0 DUP2 ADD SWAP1 DUP2 LT PUSH1 0x1 PUSH1 0x1 PUSH1 0x40 SHL SUB DUP3 GT OR PUSH2 0x12AD JUMPI PUSH1 0x40 MSTORE JUMP JUMPDEST PUSH1 0x1F SWAP1 SWAP2 ADD PUSH1 0x1F NOT AND DUP2 ADD SWAP1 PUSH1 0x1 PUSH1 0x1 PUSH1 0x40 SHL SUB DUP3 GT SWAP1 DUP3 LT OR PUSH2 0x12AD JUMPI PUSH1 0x40 MSTORE JUMP JUMPDEST PUSH1 0x1 PUSH1 0x1 PUSH1 0x40 SHL SUB DUP2 GT PUSH2 0x12AD JUMPI PUSH1 0x1F ADD PUSH1 0x1F NOT AND PUSH1 0x20 ADD SWAP1 JUMP JUMPDEST DUP2 PUSH1 0x1F DUP3 ADD SLT ISZERO PUSH2 0x1AB JUMPI DUP1 CALLDATALOAD SWAP1 PUSH2 0x1334 DUP3 PUSH2 0x1302 JUMP JUMPDEST SWAP3 PUSH2 0x1342 PUSH1 0x40 MLOAD SWAP5 DUP6 PUSH2 0x12DF JUMP JUMPDEST DUP3 DUP5 MSTORE PUSH1 0x20 DUP4 DUP4 ADD ADD GT PUSH2 0x1AB JUMPI DUP2 PUSH1 0x0 SWAP3 PUSH1 0x20 DUP1 SWAP4 ADD DUP4 DUP7 ADD CALLDATACOPY DUP4 ADD ADD MSTORE SWAP1 JUMP JUMPDEST PUSH1 0x1 PUSH1 0x1 PUSH1 0x40 SHL SUB DUP2 GT PUSH2 0x12AD JUMPI PUSH1 0x5 SHL PUSH1 0x20 ADD SWAP1 JUMP JUMPDEST SWAP1 DUP1 PUSH1 0x1F DUP4 ADD SLT ISZERO PUSH2 0x1AB JUMPI DUP2 CALLDATALOAD SWAP1 PUSH2 0x1393 DUP3 PUSH2 0x1364 JUMP JUMPDEST SWAP3 PUSH2 0x13A1 PUSH1 0x40 MLOAD SWAP5 DUP6 PUSH2 0x12DF JUMP JUMPDEST DUP3 DUP5 MSTORE PUSH1 0x20 SWAP3 DUP4 DUP1 DUP7 ADD SWAP2 PUSH1 0x5 SHL DUP4 ADD ADD SWAP3 DUP1 DUP5 GT PUSH2 0x1AB JUMPI DUP5 DUP4 ADD SWAP2 JUMPDEST DUP5 DUP4 LT PUSH2 0x13CF JUMPI POP POP POP POP POP POP SWAP1 JUMP JUMPDEST DUP3 CALLDATALOAD PUSH1 0x1 PUSH1 0x1 PUSH1 0x40 SHL SUB DUP2 GT PUSH2 0x1AB JUMPI DUP7 SWAP2 PUSH2 0x13F0 DUP5 DUP5 DUP1 SWAP5 DUP10 ADD ADD PUSH2 0x131D JUMP JUMPDEST DUP2 MSTORE ADD SWAP3 ADD SWAP2 PUSH2 0x13BF JUMP JUMPDEST PUSH1 0x60 SWAP1 PUSH1 0x20 DUP2 MSTORE PUSH1 0xE PUSH1 0x20 DUP3 ADD MSTORE PUSH14 0x496E76616C696420737461747573 PUSH1 0x90 SHL PUSH1 0x40 DUP3 ADD MSTORE ADD SWAP1 JUMP JUMPDEST PUSH1 0x20 SWAP1 DUP2 DUP2 DUP5 SUB SLT PUSH2 0x1AB JUMPI DUP1 MLOAD SWAP1 PUSH1 0x1 PUSH1 0x1 PUSH1 0x40 SHL SUB DUP3 GT PUSH2 0x1AB JUMPI ADD SWAP2 DUP1 PUSH1 0x1F DUP5 ADD SLT ISZERO PUSH2 0x1AB JUMPI DUP3 MLOAD PUSH2 0x1459 DUP2 PUSH2 0x1364 JUMP JUMPDEST SWAP4 PUSH2 0x1467 PUSH1 0x40 MLOAD SWAP6 DUP7 PUSH2 0x12DF JUMP JUMPDEST DUP2 DUP6 MSTORE DUP4 DUP1 DUP7 ADD SWAP3 PUSH1 0x5 SHL DUP3 ADD ADD SWAP3 DUP4 GT PUSH2 0x1AB JUMPI DUP4 ADD SWAP1 JUMPDEST DUP3 DUP3 LT PUSH2 0x148E JUMPI POP POP POP POP SWAP1 JUMP JUMPDEST DUP2 MLOAD DUP2 MSTORE SWAP1 DUP4 ADD SWAP1 DUP4 ADD PUSH2 0x1480 JUMP JUMPDEST PUSH1 0x40 MLOAD SWAP1 PUSH2 0x14AA DUP3 PUSH2 0x12C3 JUMP JUMPDEST DUP2 PUSH2 0x180 PUSH1 0x0 SWAP2 DUP3 DUP2 MSTORE DUP3 PUSH1 0x20 DUP3 ADD MSTORE PUSH1 0x60 DUP1 PUSH1 0x40 DUP4 ADD MSTORE DUP1 DUP1 DUP4 ADD MSTORE DUP1 PUSH1 0x80 DUP4 ADD MSTORE DUP4 PUSH1 0xA0 DUP4 ADD MSTORE DUP4 PUSH1 0xC0 DUP4 ADD MSTORE DUP1 PUSH1 0xE0 DUP4 ADD MSTORE DUP4 PUSH2 0x100 DUP4 ADD MSTORE DUP4 PUSH2 0x120 DUP4 ADD MSTORE DUP1 PUSH2 0x140 DUP4 ADD MSTORE PUSH2 0x160 DUP3 ADD MSTORE ADD MSTORE JUMP JUMPDEST SWAP1 PUSH2 0x1508 DUP3 PUSH2 0x1364 JUMP JUMPDEST PUSH2 0x1515 PUSH1 0x40 MLOAD SWAP2 DUP3 PUSH2 0x12DF JUMP JUMPDEST DUP3 DUP2 MSTORE DUP1 SWAP3 PUSH2 0x1526 PUSH1 0x1F NOT SWAP2 PUSH2 0x1364 JUMP JUMPDEST ADD SWAP1 PUSH1 0x0 JUMPDEST DUP3 DUP2 LT PUSH2 0x1537 JUMPI POP POP POP JUMP JUMPDEST PUSH1 0x20 SWAP1 PUSH2 0x1542 PUSH2 0x149D JUMP JUMPDEST DUP3 DUP3 DUP6 ADD ADD MSTORE ADD PUSH2 0x152B JUMP JUMPDEST SWAP1 PUSH2 0x1558 DUP3 PUSH2 0x1364 JUMP JUMPDEST PUSH2 0x1565 PUSH1 0x40 MLOAD SWAP2 DUP3 PUSH2 0x12DF JUMP JUMPDEST DUP3 DUP2 MSTORE DUP1 SWAP3 PUSH2 0x1576 PUSH1 0x1F NOT SWAP2 PUSH2 0x1364 JUMP JUMPDEST ADD SWAP1 PUSH1 0x20 CALLDATASIZE SWAP2 ADD CALLDATACOPY JUMP JUMPDEST PUSH1 0x0 NOT DUP2 EQ PUSH2 0x158F JUMPI PUSH1 0x1 ADD SWAP1 JUMP JUMPDEST PUSH4 0x4E487B71 PUSH1 0xE0 SHL PUSH1 0x0 MSTORE PUSH1 0x11 PUSH1 0x4 MSTORE PUSH1 0x24 PUSH1 0x0 REVERT JUMPDEST DUP1 MLOAD DUP3 LT ISZERO PUSH2 0x15B9 JUMPI PUSH1 0x20 SWAP2 PUSH1 0x5 SHL ADD ADD SWAP1 JUMP JUMPDEST PUSH4 0x4E487B71 PUSH1 0xE0 SHL PUSH1 0x0 MSTORE PUSH1 0x32 PUSH1 0x4 MSTORE PUSH1 0x24 PUSH1 0x0 REVERT JUMPDEST DUP2 PUSH1 0x1F DUP3 ADD SLT ISZERO PUSH2 0x1AB JUMPI DUP1 MLOAD PUSH2 0x15E5 DUP2 PUSH2 0x1302 JUMP JUMPDEST SWAP3 PUSH2 0x15F3 PUSH1 0x40 MLOAD SWAP5 DUP6 PUSH2 0x12DF JUMP JUMPDEST DUP2 DUP5 MSTORE PUSH1 0x20 DUP3 DUP5 ADD ADD GT PUSH2 0x1AB JUMPI PUSH2 0x1167 SWAP2 PUSH1 0x20 DUP1 DUP6 ADD SWAP2 ADD PUSH2 0xFC9 JUMP JUMPDEST PUSH1 0x20 DUP1 DUP3 DUP5 SUB SLT PUSH2 0x1AB JUMPI DUP2 MLOAD PUSH1 0x1 PUSH1 0x1 PUSH1 0x40 SHL SUB SWAP3 DUP4 DUP3 GT PUSH2 0x1AB JUMPI ADD SWAP2 PUSH2 0x1A0 DUP4 DUP6 SUB SLT PUSH2 0x1AB JUMPI PUSH1 0x40 SWAP2 DUP3 MLOAD SWAP5 PUSH2 0x164A DUP7 PUSH2 0x12C3 JUMP JUMPDEST DUP5 MLOAD DUP7 MSTORE DUP2 DUP6 ADD MLOAD DUP3 DUP8 ADD MSTORE DUP4 DUP6 ADD MLOAD DUP4 DUP2 GT PUSH2 0x1AB JUMPI DUP2 PUSH2 0x166D SWAP2 DUP8 ADD PUSH2 0x15CF JUMP JUMPDEST DUP5 DUP8 ADD MSTORE PUSH1 0x60 DUP1 DUP7 ADD MLOAD DUP5 DUP2 GT PUSH2 0x1AB JUMPI DUP3 PUSH2 0x168A SWAP2 DUP9 ADD PUSH2 0x15CF JUMP JUMPDEST DUP2 DUP9 ADD MSTORE PUSH1 0x80 DUP1 DUP8 ADD MLOAD DUP6 DUP2 GT PUSH2 0x1AB JUMPI DUP4 PUSH2 0x16A7 SWAP2 DUP10 ADD PUSH2 0x15CF JUMP JUMPDEST DUP2 DUP10 ADD MSTORE PUSH1 0xA0 SWAP1 DUP2 DUP9 ADD MLOAD DUP3 DUP11 ADD MSTORE PUSH1 0xC0 SWAP2 DUP3 DUP10 ADD MLOAD DUP4 DUP12 ADD MSTORE PUSH1 0xE0 DUP10 ADD MLOAD DUP8 DUP2 GT PUSH2 0x1AB JUMPI DUP10 ADD SWAP3 DUP6 PUSH1 0x1F DUP6 ADD SLT ISZERO PUSH2 0x1AB JUMPI DUP4 MLOAD SWAP3 PUSH2 0x16E7 DUP5 PUSH2 0x1364 JUMP JUMPDEST SWAP6 PUSH2 0x16F4 DUP12 MLOAD SWAP8 DUP9 PUSH2 0x12DF JUMP JUMPDEST DUP5 DUP8 MSTORE DUP9 DUP1 DUP9 ADD SWAP6 PUSH1 0x5 SHL DUP8 ADD ADD SWAP6 DUP9 DUP8 GT PUSH2 0x1AB JUMPI DUP10 DUP2 ADD SWAP6 JUMPDEST DUP8 DUP8 LT PUSH2 0x180D JUMPI POP POP POP POP POP POP POP POP PUSH1 0xE0 DUP8 ADD MSTORE PUSH2 0x100 DUP1 DUP7 ADD MLOAD SWAP1 PUSH1 0x4 DUP3 LT ISZERO PUSH2 0x1AB JUMPI DUP8 ADD MSTORE PUSH2 0x120 DUP6 DUP2 ADD MLOAD SWAP1 PUSH1 0x1 PUSH1 0x1 PUSH1 0xA0 SHL SUB DUP3 AND DUP3 SUB PUSH2 0x1AB JUMPI DUP8 ADD MSTORE PUSH2 0x140 DUP1 DUP7 ADD MLOAD DUP5 DUP2 GT PUSH2 0x1AB JUMPI DUP3 PUSH2 0x176C SWAP2 DUP9 ADD PUSH2 0x15CF JUMP JUMPDEST SWAP1 DUP8 ADD MSTORE PUSH2 0x160 SWAP3 DUP4 DUP7 ADD MLOAD DUP2 DUP2 GT PUSH2 0x1AB JUMPI DUP7 ADD SWAP1 DUP3 PUSH1 0x1F DUP4 ADD SLT ISZERO PUSH2 0x1AB JUMPI DUP2 MLOAD SWAP1 PUSH2 0x17A5 PUSH2 0x179C DUP4 PUSH2 0x1364 JUMP JUMPDEST SWAP8 MLOAD SWAP8 DUP9 PUSH2 0x12DF JUMP JUMPDEST DUP2 DUP8 MSTORE DUP5 DUP1 DUP9 ADD SWAP3 PUSH1 0x5 SHL DUP5 ADD ADD SWAP4 DUP1 DUP6 GT PUSH2 0x1AB JUMPI DUP6 DUP5 ADD SWAP3 JUMPDEST DUP6 DUP5 LT PUSH2 0x17E8 JUMPI POP POP POP POP POP POP POP DUP4 ADD MSTORE PUSH2 0x180 DUP1 SWAP2 ADD MLOAD SWAP1 PUSH1 0x5 DUP3 LT ISZERO PUSH2 0x1AB JUMPI DUP3 ADD MSTORE SWAP1 JUMP JUMPDEST DUP4 MLOAD DUP4 DUP2 GT PUSH2 0x1AB JUMPI DUP8 SWAP2 PUSH2 0x1802 DUP5 DUP5 DUP1 SWAP5 DUP11 ADD ADD PUSH2 0x15CF JUMP JUMPDEST DUP2 MSTORE ADD SWAP4 ADD SWAP3 PUSH2 0x17C0 JUMP JUMPDEST DUP7 MLOAD DUP13 DUP2 GT PUSH2 0x1AB JUMPI DUP3 ADD DUP6 PUSH1 0x1F NOT DUP3 DUP14 SUB ADD SLT PUSH2 0x1AB JUMPI DUP14 MLOAD DUP7 DUP2 ADD SWAP3 SWAP1 DUP15 DUP5 GT DUP2 DUP6 LT OR PUSH2 0x18A7 JUMPI SWAP3 DUP16 MSTORE DUP2 DUP14 ADD MLOAD SWAP3 DUP15 DUP5 GT PUSH2 0x1AB JUMPI DUP16 DUP16 SWAP5 DUP16 DUP16 SWAP1 PUSH2 0x1858 SWAP3 DUP8 ADD ADD PUSH2 0x15CF JUMP JUMPDEST DUP3 MSTORE DUP4 ADD MLOAD SWAP4 DUP5 GT PUSH2 0x1AB JUMPI DUP16 DUP4 DUP16 SWAP6 SWAP2 DUP16 PUSH2 0x187A SWAP1 DUP9 DUP14 SWAP6 DUP2 SWAP10 ADD ADD PUSH2 0x15CF JUMP JUMPDEST DUP7 DUP6 ADD MSTORE DUP9 DUP3 ADD MLOAD SWAP1 DUP5 ADD MSTORE DUP9 DUP2 ADD MLOAD DUP9 DUP5 ADD MSTORE DUP11 DUP2 ADD MLOAD DUP10 DUP5 ADD MSTORE ADD MLOAD DUP10 DUP3 ADD MSTORE DUP2 MSTORE ADD SWAP7 ADD SWAP6 PUSH2 0x170F JUMP JUMPDEST PUSH1 0x24 PUSH1 0x0 PUSH4 0x4E487B71 PUSH1 0xE0 SHL DUP2 MSTORE PUSH1 0x41 PUSH1 0x4 MSTORE REVERT JUMPDEST SWAP1 DUP2 PUSH1 0x20 SWAP2 SUB SLT PUSH2 0x1AB JUMPI MLOAD DUP1 ISZERO ISZERO DUP2 SUB PUSH2 0x1AB JUMPI SWAP1 JUMP INVALID LOG2 PUSH5 0x6970667358 0x22 SLT KECCAK256 0xC7 0xEF PUSH14 0x38C6A1FC5F2261734B79D582D2F9 0xDD 0xB4 0xDE DUP14 0xEB 0xDC SWAP8 0xF6 SWAP14 0xB8 0xD3 SHR 0xBC SWAP5 0xDA PUSH5 0x736F6C6343 STOP ADDMOD SGT STOP CALLER "},"gasEstimates":{"creation":{"codeDepositCost":"1282000","executionCost":"infinite","totalCost":"infinite"},"external":{"addAsset(uint256,string,string,string,uint256,address,string,string,string[],uint8)":"infinite","getAllAssets(uint8)":"infinite","getAllAssetsByCategory(uint8,uint8)":"infinite","getAssetById(uint256)":"infinite","getAssetsOfOwner(address)":"infinite","supervisor()":"2356","updateAsset(uint256,string,string[],string)":"infinite"}},"methodIdentifiers":{"addAsset(uint256,string,string,string,uint256,address,string,string,string[],uint8)":"86275c5a","getAllAssets(uint8)":"38031123","getAllAssetsByCategory(uint8,uint8)":"4663a28c","getAssetById(uint256)":"b3e444a7","getAssetsOfOwner(address)":"f3ab880e","supervisor()":"56e4b68b","updateAsset(uint256,string,string[],string)":"5563633d"}},"storageLayout":{"storage":[{"astId":4661,"contract":"contracts/Assets.sol:Assets","label":"nftContract","offset":0,"slot":"0","type":"t_contract(NFTVenture)7155"},{"astId":4663,"contract":"contracts/Assets.sol:Assets","label":"supervisor","offset":0,"slot":"1","type":"t_address"}],"types":{"t_address":{"encoding":"inplace","label":"address","numberOfBytes":"20"},"t_contract(NFTVenture)7155":{"encoding":"inplace","label":"contract NFTVenture","numberOfBytes":"20"}}},"userdoc":{"kind":"user","methods":{},"version":1}}}}