{"contracts/FCTVToken.sol":{"FCTVToken":{"abi":[{"inputs":[{"internalType":"string","name":"baseURI","type":"string"}],"stateMutability":"nonpayable","type":"constructor"},{"anonymous":false,"inputs":[{"indexed":true,"internalType":"address","name":"account","type":"address"},{"indexed":true,"internalType":"address","name":"operator","type":"address"},{"indexed":false,"internalType":"bool","name":"approved","type":"bool"}],"name":"ApprovalForAll","type":"event"},{"anonymous":false,"inputs":[{"indexed":true,"internalType":"address","name":"previousOwner","type":"address"},{"indexed":true,"internalType":"address","name":"newOwner","type":"address"}],"name":"OwnershipTransferred","type":"event"},{"anonymous":false,"inputs":[{"indexed":true,"internalType":"address","name":"operator","type":"address"},{"indexed":true,"internalType":"address","name":"from","type":"address"},{"indexed":true,"internalType":"address","name":"to","type":"address"},{"indexed":false,"internalType":"uint256[]","name":"ids","type":"uint256[]"},{"indexed":false,"internalType":"uint256[]","name":"values","type":"uint256[]"}],"name":"TransferBatch","type":"event"},{"anonymous":false,"inputs":[{"indexed":true,"internalType":"address","name":"operator","type":"address"},{"indexed":true,"internalType":"address","name":"from","type":"address"},{"indexed":true,"internalType":"address","name":"to","type":"address"},{"indexed":false,"internalType":"uint256","name":"id","type":"uint256"},{"indexed":false,"internalType":"uint256","name":"value","type":"uint256"}],"name":"TransferSingle","type":"event"},{"anonymous":false,"inputs":[{"indexed":false,"internalType":"string","name":"value","type":"string"},{"indexed":true,"internalType":"uint256","name":"id","type":"uint256"}],"name":"URI","type":"event"},{"inputs":[{"internalType":"address","name":"account","type":"address"},{"internalType":"uint256","name":"id","type":"uint256"}],"name":"balanceOf","outputs":[{"internalType":"uint256","name":"","type":"uint256"}],"stateMutability":"view","type":"function"},{"inputs":[{"internalType":"address[]","name":"accounts","type":"address[]"},{"internalType":"uint256[]","name":"ids","type":"uint256[]"}],"name":"balanceOfBatch","outputs":[{"internalType":"uint256[]","name":"","type":"uint256[]"}],"stateMutability":"view","type":"function"},{"inputs":[{"internalType":"address","name":"account","type":"address"},{"internalType":"uint256","name":"id","type":"uint256"},{"internalType":"uint256","name":"value","type":"uint256"}],"name":"burn","outputs":[],"stateMutability":"nonpayable","type":"function"},{"inputs":[{"internalType":"address","name":"account","type":"address"},{"internalType":"uint256[]","name":"ids","type":"uint256[]"},{"internalType":"uint256[]","name":"values","type":"uint256[]"}],"name":"burnBatch","outputs":[],"stateMutability":"nonpayable","type":"function"},{"inputs":[{"internalType":"address","name":"account","type":"address"},{"internalType":"address","name":"operator","type":"address"}],"name":"isApprovedForAll","outputs":[{"internalType":"bool","name":"","type":"bool"}],"stateMutability":"view","type":"function"},{"inputs":[{"internalType":"address","name":"to","type":"address"},{"internalType":"uint256","name":"id","type":"uint256"},{"internalType":"uint256","name":"amount","type":"uint256"},{"internalType":"string","name":"tokenURI","type":"string"},{"internalType":"bytes","name":"data","type":"bytes"}],"name":"mint","outputs":[],"stateMutability":"nonpayable","type":"function"},{"inputs":[{"internalType":"address","name":"to","type":"address"},{"internalType":"uint256[]","name":"ids","type":"uint256[]"},{"internalType":"uint256[]","name":"amounts","type":"uint256[]"},{"internalType":"string[]","name":"tokenURIs","type":"string[]"},{"internalType":"bytes","name":"data","type":"bytes"}],"name":"mintBatch","outputs":[],"stateMutability":"nonpayable","type":"function"},{"inputs":[],"name":"name","outputs":[{"internalType":"string","name":"","type":"string"}],"stateMutability":"view","type":"function"},{"inputs":[],"name":"owner","outputs":[{"internalType":"address","name":"","type":"address"}],"stateMutability":"view","type":"function"},{"inputs":[],"name":"renounceOwnership","outputs":[],"stateMutability":"nonpayable","type":"function"},{"inputs":[{"internalType":"address","name":"from","type":"address"},{"internalType":"address","name":"to","type":"address"},{"internalType":"uint256[]","name":"ids","type":"uint256[]"},{"internalType":"uint256[]","name":"amounts","type":"uint256[]"},{"internalType":"bytes","name":"data","type":"bytes"}],"name":"safeBatchTransferFrom","outputs":[],"stateMutability":"nonpayable","type":"function"},{"inputs":[{"internalType":"address","name":"from","type":"address"},{"internalType":"address","name":"to","type":"address"},{"internalType":"uint256","name":"id","type":"uint256"},{"internalType":"uint256","name":"amount","type":"uint256"},{"internalType":"bytes","name":"data","type":"bytes"}],"name":"safeTransferFrom","outputs":[],"stateMutability":"nonpayable","type":"function"},{"inputs":[{"internalType":"address","name":"operator","type":"address"},{"internalType":"bool","name":"approved","type":"bool"}],"name":"setApprovalForAll","outputs":[],"stateMutability":"nonpayable","type":"function"},{"inputs":[{"internalType":"uint256","name":"tokenId","type":"uint256"},{"internalType":"string","name":"tokenURI","type":"string"}],"name":"setURI","outputs":[],"stateMutability":"nonpayable","type":"function"},{"inputs":[{"internalType":"bytes4","name":"interfaceId","type":"bytes4"}],"name":"supportsInterface","outputs":[{"internalType":"bool","name":"","type":"bool"}],"stateMutability":"view","type":"function"},{"inputs":[],"name":"symbol","outputs":[{"internalType":"string","name":"","type":"string"}],"stateMutability":"view","type":"function"},{"inputs":[{"internalType":"address","name":"newOwner","type":"address"}],"name":"transferOwnership","outputs":[],"stateMutability":"nonpayable","type":"function"},{"inputs":[{"internalType":"uint256","name":"tokenId","type":"uint256"}],"name":"uri","outputs":[{"internalType":"string","name":"","type":"string"}],"stateMutability":"view","type":"function"}],"devdoc":{"events":{"ApprovalForAll(address,address,bool)":{"details":"Emitted when `account` grants or revokes permission to `operator` to transfer their tokens, according to `approved`."},"TransferBatch(address,address,address,uint256[],uint256[])":{"details":"Equivalent to multiple {TransferSingle} events, where `operator`, `from` and `to` are the same for all transfers."},"TransferSingle(address,address,address,uint256,uint256)":{"details":"Emitted when `value` tokens of token type `id` are transferred from `from` to `to` by `operator`."},"URI(string,uint256)":{"details":"Emitted when the URI for token type `id` changes to `value`, if it is a non-programmatic URI. If an {URI} event was emitted for `id`, the standard https://eips.ethereum.org/EIPS/eip-1155#metadata-extensions[guarantees] that `value` will equal the value returned by {IERC1155MetadataURI-uri}."}},"kind":"dev","methods":{"balanceOf(address,uint256)":{"details":"See {IERC1155-balanceOf}. Requirements: - `account` cannot be the zero address."},"balanceOfBatch(address[],uint256[])":{"details":"See {IERC1155-balanceOfBatch}. Requirements: - `accounts` and `ids` must have the same length."},"isApprovedForAll(address,address)":{"details":"See {IERC1155-isApprovedForAll}."},"owner()":{"details":"Returns the address of the current owner."},"renounceOwnership()":{"details":"Leaves the contract without owner. It will not be possible to call `onlyOwner` functions anymore. Can only be called by the current owner. NOTE: Renouncing ownership will leave the contract without an owner, thereby removing any functionality that is only available to the owner."},"safeBatchTransferFrom(address,address,uint256[],uint256[],bytes)":{"details":"See {IERC1155-safeBatchTransferFrom}."},"safeTransferFrom(address,address,uint256,uint256,bytes)":{"details":"See {IERC1155-safeTransferFrom}."},"setApprovalForAll(address,bool)":{"details":"See {IERC1155-setApprovalForAll}."},"supportsInterface(bytes4)":{"details":"See {IERC165-supportsInterface}."},"transferOwnership(address)":{"details":"Transfers ownership of the contract to a new account (`newOwner`). Can only be called by the current owner."}},"version":1},"evm":{"bytecode":{"linkReferences":{},"object":"608060405234620002bb576200239c803803806200001d81620002c0565b9283398101906020918282820312620002bb5781516001600160401b0392838211620002bb570191601f91808385011215620002bb578351938285116200029157601f19946200007385820187168801620002c0565b92818452878284010111620002bb57869160005b828110620002a7575050906000918301015280519182116200029157620000b0600254620002e6565b83811162000253575b508493838311600114620001ec575092819293600092620001e0575b50508160011b916000199060031b1c1916176002555b600380546001600160a01b0319163390811790915560007f8be0079c531659141344cd1fd0a4f28419497f9722a3daafe3b4186f6b6457e08180a362000133600454620002e6565b818111620001bc575b507f4672616374696f6e616c2043545620546f6b656e73000000000000000000002a6004556005546200016f90620002e6565b9080821162000198575b600a641190d5159560da1b0160055560405161205f90816200033d8239f35b620001b3926005600052600020910160051c81019062000323565b38808062000179565b620001d99060046000528284600020910160051c81019062000323565b386200013c565b015190503880620000d5565b8216936002600052856000209160005b878782106200023c57505083600195961062000222575b505050811b01600255620000eb565b015160001960f88460031b161c1916905538808062000213565b6001849582939585015181550194019201620001fc565b62000280906002600052866000208580860160051c82019289871062000287575b0160051c019062000323565b38620000b9565b9250819262000274565b634e487b7160e01b600052604160045260246000fd5b818101840151858201850152830162000087565b600080fd5b6040519190601f01601f191682016001600160401b038111838210176200029157604052565b90600182811c9216801562000318575b60208310146200030257565b634e487b7160e01b600052602260045260246000fd5b91607f1691620002f6565b8181106200032f575050565b600081556001016200032356fe6040608081526004908136101561001557600080fd5b600091823560e01c908162fdd58e1461184057816301ffc9a7146117d257816306fdde031461171f5781630e89341c146116465781632eb2c2d6146113625781634e1273f4146111cd5781636b20c45414611089578163715018a61461103a578163862440e214610f0d5781638da5cb5b14610ee457816395d89b4114610dff578163a22cb46514610d21578163a4b645eb146109f4578163b9571e8414610539578163e985e9c5146104e7578163f242432a1461028d578163f2fde38b146101d2575063f5298aca146100e857600080fd5b8190346101cf5760603660031901126101cf57610103611870565b6001600160a01b03169060243590600080516020611fea8339815191529060443533851480156101b0575b61013790611be8565b610142851515611ec3565b61014b84611e8e565b5061015581611e8e565b50858251610162816118db565b528386528560205281862085875260205261018c818388205461018782821015611f1b565b611ca5565b8487528660205282872086885260205282872055815193845260208401523392a480f35b508486526001602090815282872033885290528186205460ff1661012e565b50fd5b905034610289576020366003190112610289576101ed611870565b600354916001600160a01b0380841692610208338514611a6e565b16938415610237575050829060008051602061200a8339815191528580a36001600160a01b0319161760035580f35b906020608492519162461bcd60e51b8352820152602660248201527f4f776e61626c653a206e6577206f776e657220697320746865207a65726f206160448201526564647265737360d01b6064820152fd5b8280fd5b919050346102895760a0366003190112610289576102a9611870565b836102b261188b565b916044356064356084356001600160401b0381116104e3576102d790369089016119e4565b926001600160a01b03868116916102ef831515611b8e565b169233841480156104c4575b61030490611be8565b61030d81611e8e565b5061031783611e8e565b50808652602096868852888720858852885261033d848a89205461018782821015611c46565b828852878952898820868952895289882055818752868852888720838852885288872061036b858254611cb2565b905582858a51848152868b820152600080516020611fea8339815191528c3392a43b610395578580f35b889587946103d68a519788968795869463f23a6e6160e01b9c8d8752339087015260248601526044850152606484015260a0608484015260a483019061192f565b03925af1869181610495575b506104645750506001906103f4611dad565b6308c379a014610431575b506104145750505b3880808381808080808580f35b5162461bcd60e51b81529150819061042d908201611e39565b0390fd5b610439611dcb565b8061044457506103ff565b61042d8591855193849362461bcd60e51b8552840152602483019061192f565b6001600160e01b03191603905061047c575050610407565b5162461bcd60e51b81529150819061042d908201611d64565b6104b6919250843d86116104bd575b6104ae818361190c565b810190611d44565b90386103e2565b503d6104a4565b508386526001602090815288872033885290528786205460ff166102fb565b8480fd5b50503461053557806003193601126105355760ff81602093610507611870565b61050f61188b565b6001600160a01b0391821683526001875283832091168252855220549151911615158152f35b5080fd5b905034610289576003199160a0368401126109f057610556611870565b6024946001600160401b039490919086358681116109f05761057b9036908701611986565b946044358781116104e3576105939036908301611986565b96606435938185116109ec57366023860112156109ec5784830135996105b88b61196f565b946105c58951968761190c565b8b86526020968787018360059e8f1b830101913683116109e857848101915b8383106109be57505050506084358481116109ba5761060690369087016119e4565b60018060a01b039360039461061f818754163314611a6e565b8c5189510361096957906106508d9a9997959f98969493928f9083169b6106478d1515611f73565b51905114611cbf565b8a5b8d518110156106b157908e9f9392918e9f908f8f8f908f918f9261069e9361068887610681816106a59b611b64565b5197611b64565b5183528281528383209183525220918254611cb2565b9055611b3f565b909192939f9e50610652565b508e8c8f8f95908c8f968f888d95888c94869b858588600080516020611fca8339815191526106e88f8e9051918291339583611d1c565b0390a43b610847575b5050509450505050505b85518110156108435761070e818b611b64565b516107198288611b64565b51865260068552828620908051908a8211610831578d9061073a84546118a1565b601f928382116107f1575b505087918311600114610789576107799493929189918361077e575b50508160011b91600019908c1b1c1916179055611b3f565b6106fb565b015190508f80610761565b8389528789209190601f1984168a5b8a8282106107db5750509084610779979695949392106107c3575b505050600190811b019055611b3f565b0151600019838d1b60f8161c191690558e80806107b3565b6001859682939686015181550195019301610798565b858b52898b209084808701821c8301938c8810610828575b01901c01905b81811061081d57508f610745565b8a815560010161080f565b93508293610809565b634e487b7160e01b885260418c528588fd5b8480f35b83928a519889978896879563bc197c8160e01b9d8e885233908801528601526044850160a0905260a4850161087b91611a3a565b8285820301606486015261088e91611a3a565b908382030160848401526108a19161192f565b03925af186918161094a575b5061092557505060016108be611dad565b6308c379a0146108f2575b6108dc575b878b848782888188816106f1565b5162461bcd60e51b81528061042d818a01611e39565b6108fa611dcb565b8061090557506108c9565b9050889261042d925194859462461bcd60e51b865285015283019061192f565b6001600160e01b031916146108ce575162461bcd60e51b81528061042d818a01611d64565b610962919250863d88116104bd576104ae818361190c565b908d6108ad565b508a5162461bcd60e51b81528088018a90526025818601527f455243313135353a2069647320616e642075726973206c656e677468206d69736044820152640dac2e8c6d60db1b6064820152608490fd5b8880fd5b82358881116109e4578b916109d983928936918701016119e4565b8152019201916105e4565b8c80fd5b8a80fd5b8580fd5b8380fd5b839150346105355760a036600319011261053557610a10611870565b604435936001600160401b039190602435606435848111610d1d57610a3890369087016119e4565b96608435858111610d1957610a5090369088016119e4565b938660018060a01b0391610a6983600354163314611a6e565b82811696610a78881515611f73565b610a8186611e8e565b50610a8b85611e8e565b50858b5260209788928c84528c828a822091528452888d20610aae888254611cb2565b9055818d8a518a81528987820152600080516020611fea8339815191528c3392a43b610c03575b50505050610aea915033906003541614611a6e565b8552600682528420928551928311610bf05750610b0783546118a1565b601f8111610bad575b5080601f8311600114610b4b5750839482939492610b40575b50508160011b916000199060031b1c191617905580f35b015190508480610b29565b90601f198316958486528286209286905b888210610b9557505083600195969710610b7c575b505050811b01905580f35b015160001960f88460031b161c19169055848080610b71565b80600185968294968601518155019501930190610b5c565b838552818520601f840160051c810191838510610be6575b601f0160051c01905b818110610bdb5750610b10565b858155600101610bce565b9091508190610bc5565b634e487b7160e01b855260419052602484fd5b610c459394958c895180968195829463f23a6e6160e01b9a8b855233908501528460248501528c6044850152606484015260a0608484015260a483019061192f565b03925af1899181610cfa575b50610ccb5750506001610c62611dad565b6308c379a014610c96575b610c7f57610aea905b86858b80610ad5565b825162461bcd60e51b81528061042d818901611e39565b610c9e611dcb565b80610ca95750610c6d565b845162461bcd60e51b815280890187905290819061042d90602483019061192f565b6001600160e01b03191603610ce357610aea90610c76565b825162461bcd60e51b81528061042d818901611d64565b610d12919250873d89116104bd576104ae818361190c565b908b610c51565b8780fd5b8680fd5b91905034610289578060031936011261028957610d3c611870565b90602435918215158093036104e3576001600160a01b031692338414610dab5750338452600160205280842083855260205280842060ff1981541660ff8416179055519081527f17307eab39ab6107e8899845ad3d59bd9653f200f220920489ca2b5937696c3160203392a380f35b6020608492519162461bcd60e51b8352820152602960248201527f455243313135353a2073657474696e6720617070726f76616c20737461747573604482015268103337b91039b2b63360b91b6064820152fd5b50503461053557816003193601126105355780519082600554610e21816118a1565b80855290600190818116908115610ebc5750600114610e63575b505050610e4d82610e5f94038361190c565b5191829160208352602083019061192f565b0390f35b60058352602095507f036b6384b5eca791c62761152d0c79bb0604c104a5fb6f4eb0703f3154bb3db05b828410610ea95750505082610e5f94610e4d9282010194610e3b565b8054868501880152928601928101610e8d565b610e5f9750610e4d9450602092508693915060ff191682840152151560051b82010194610e3b565b50503461053557816003193601126105355760035490516001600160a01b039091168152602090f35b839150346105355782600319360112610535576001600160401b036024358181116109f057610f3f90369084016119e4565b93610f5560018060a01b03600354163314611a6e565b82358452602090600682528420928551928311610bf05750610f7783546118a1565b601f8111610ff7575b5080601f8311600114610faf5750839482939492610b405750508160011b916000199060031b1c191617905580f35b90601f198316958486528286209286905b888210610fdf57505083600195969710610b7c57505050811b01905580f35b80600185968294968601518155019501930190610fc0565b838552818520601f840160051c810191838510611030575b601f0160051c01905b8181106110255750610f80565b858155600101611018565b909150819061100f565b8334611086578060031936011261108657600354816001600160a01b038216611064338214611a6e565b60008051602061200a8339815191528280a36001600160a01b03191660035580f35b80fd5b91905034610289576060366003190112610289576110a5611870565b906001600160401b036024358181116109ec576110c59036908601611986565b936044359182116109ec576110dc91369101611986565b916001600160a01b031633811480156111ae575b6110f990611be8565b611104811515611ec3565b6111118451845114611cbf565b84825161111d816118db565b52845b8585518210156111855750806111396111809287611b64565b516111448287611b64565b518189526111696020918a8352878b20878c528352878b205461018782821015611f1b565b91895288815285892090858a525284882055611b3f565b611120565b808387600080516020611fca8339815191526111a8898951918291339583611d1c565b0390a480f35b508085526001602090815282862033875290528185205460ff166110f0565b90503461028957816003193601126102895780356001600160401b038082116104e357366023830112156104e35781830135906112098261196f565b926112168651948561190c565b82845260209260248486019160051b830101913683116109ba57602401905b82821061133f575050506024359081116109ec576112569036908501611986565b9282518451036112ec575081519461126d8661196f565b9561127a8651978861190c565b808752611289601f199161196f565b0136838801375b82518110156112da576112d5906112c56001600160a01b036112b28387611b64565b51166112be8388611b64565b5190611ab9565b6112cf8289611b64565b52611b3f565b611290565b845182815280610e5f81850189611a3a565b60849185519162461bcd60e51b8352820152602960248201527f455243313135353a206163636f756e747320616e6420696473206c656e677468604482015268040dad2e6dac2e8c6d60bb1b6064820152fd5b81356001600160a01b038116810361135e578152908401908401611235565b8980fd5b905034610289576003199160a0368401126109f05761137f611870565b61138761188b565b936001600160401b0393604435858111610d19576113a89036908301611986565b906064358681116109ba576113c09036908301611986565b956084359081116109ba576113d890369083016119e4565b926113e68351885114611cbf565b6001600160a01b03888116956113fd871515611b8e565b16933385148015611628575b156115ca57895b8a855182101561148e57908961069e8a6114899461143985611432818d611b64565b5195611b64565b51938082526020908282528383208d84528252611460868585205461018782821015611c46565b8184528383528d8585209085528352848420558252818152828220908d83525220918254611cb2565b611410565b5050909493959692919784878951600080516020611fca8339815191523391806114b98a8a83611d1c565b0390a43b6114c5578880f35b8651948593849363bc197c8160e01b98898652338c87015260248601526044850160a0905260a485016114f791611a3a565b8285820301606486015261150a91611a3a565b9083820301608484015261151d9161192f565b0381885a94602095f18591816115aa575b50611594575050600161153f611dad565b6308c379a01461155d575b6104145750505b38808080808080808880f35b611565611dcb565b80611570575061154a565b905061042d91602094505193849362461bcd60e51b8552840152602483019061192f565b6001600160e01b0319160361047c575050611551565b6115c391925060203d81116104bd576104ae818361190c565b903861152e565b865162461bcd60e51b8152602081850152603260248201527f455243313135353a207472616e736665722063616c6c6572206973206e6f74206044820152711bdddb995c881b9bdc88185c1c1c9bdd995960721b6064820152608490fd5b50848a526001602052868a20338b5260205260ff878b205416611409565b9190503461028957602091826003193601126109f05735835260068252808320815193849181815490611678826118a1565b928386526001928884821691826000146116f55750506001146116b7575b8588610e5f896116a8848a038561190c565b5192828493845283019061192f565b87945081939291528383205b8284106116dd57505050820101816116a8610e5f38611696565b8054848a0186015288955087949093019281016116c3565b60ff19168882015294151560051b870190940194508593506116a89250610e5f9150389050611696565b83833461053557816003193601126105355780519180938054611741816118a1565b808652916001918083169081156117a7575060011461176c575b610e5f8686610e4d828b038361190c565b835260208084209096505b8284106117945750505082610e5f94610e4d92820101948661175b565b8054868501880152928601928101611777565b9050610e5f9750610e4d9450602092508693915060ff191682840152151560051b820101948661175b565b90503461028957602036600319011261028957359063ffffffff60e01b82168092036102895760209250636cdb3d1360e11b821491821561182f575b821561181e575b50519015158152f35b6301ffc9a760e01b14915038611815565b6303a24d0760e21b8114925061180e565b505034610535578060031936011261053557602090611869611860611870565b60243590611ab9565b9051908152f35b600435906001600160a01b038216820361188657565b600080fd5b602435906001600160a01b038216820361188657565b90600182811c921680156118d1575b60208310146118bb57565b634e487b7160e01b600052602260045260246000fd5b91607f16916118b0565b602081019081106001600160401b038211176118f657604052565b634e487b7160e01b600052604160045260246000fd5b601f909101601f19168101906001600160401b038211908210176118f657604052565b919082519283825260005b84811061195b575050826000602080949584010152601f8019910116010190565b60208183018101518483018201520161193a565b6001600160401b0381116118f65760051b60200190565b81601f820112156118865780359161199d8361196f565b926119ab604051948561190c565b808452602092838086019260051b820101928311611886578301905b8282106119d5575050505090565b813581529083019083016119c7565b81601f82011215611886578035906001600160401b0382116118f65760405192611a18601f8401601f19166020018561190c565b8284526020838301011161188657816000926020809301838601378301015290565b90815180825260208080930193019160005b828110611a5a575050505090565b835185529381019392810192600101611a4c565b15611a7557565b606460405162461bcd60e51b815260206004820152602060248201527f4f776e61626c653a2063616c6c6572206973206e6f7420746865206f776e65726044820152fd5b6001600160a01b0316908115611ae657600052600060205260406000209060005260205260406000205490565b60405162461bcd60e51b815260206004820152602b60248201527f455243313135353a2062616c616e636520717565727920666f7220746865207a60448201526a65726f206164647265737360a81b6064820152608490fd5b6000198114611b4e5760010190565b634e487b7160e01b600052601160045260246000fd5b8051821015611b785760209160051b010190565b634e487b7160e01b600052603260045260246000fd5b15611b9557565b60405162461bcd60e51b815260206004820152602560248201527f455243313135353a207472616e7366657220746f20746865207a65726f206164604482015264647265737360d81b6064820152608490fd5b15611bef57565b60405162461bcd60e51b815260206004820152602960248201527f455243313135353a2063616c6c6572206973206e6f74206f776e6572206e6f7260448201526808185c1c1c9bdd995960ba1b6064820152608490fd5b15611c4d57565b60405162461bcd60e51b815260206004820152602a60248201527f455243313135353a20696e73756666696369656e742062616c616e636520666f60448201526939103a3930b739b332b960b11b6064820152608490fd5b91908203918211611b4e57565b91908201809211611b4e57565b15611cc657565b60405162461bcd60e51b815260206004820152602860248201527f455243313135353a2069647320616e6420616d6f756e7473206c656e677468206044820152670dad2e6dac2e8c6d60c31b6064820152608490fd5b9091611d33611d4193604084526040840190611a3a565b916020818403910152611a3a565b90565b9081602091031261188657516001600160e01b0319811681036118865790565b60809060208152602860208201527f455243313135353a204552433131353552656365697665722072656a656374656040820152676420746f6b656e7360c01b60608201520190565b60009060033d11611dba57565b905060046000803e60005160e01c90565b600060443d10611d4157604051600319913d83016004833e81516001600160401b03918282113d602484011117611e2857818401948551938411611e30573d85010160208487010111611e285750611d419291016020019061190c565b949350505050565b50949350505050565b60809060208152603460208201527f455243313135353a207472616e7366657220746f206e6f6e20455243313135356040820152732932b1b2b4bb32b91034b6b83632b6b2b73a32b960611b60608201520190565b60408051919082016001600160401b038111838210176118f65760405260018252602082016020368237825115611b78575290565b15611eca57565b60405162461bcd60e51b815260206004820152602360248201527f455243313135353a206275726e2066726f6d20746865207a65726f206164647260448201526265737360e81b6064820152608490fd5b15611f2257565b60405162461bcd60e51b8152602060048201526024808201527f455243313135353a206275726e20616d6f756e7420657863656564732062616c604482015263616e636560e01b6064820152608490fd5b15611f7a57565b60405162461bcd60e51b815260206004820152602160248201527f455243313135353a206d696e7420746f20746865207a65726f206164647265736044820152607360f81b6064820152608490fdfe4a39dc06d4c0dbc64b70af90fd698a233a518aa5d07e595d983b8c0526c8f7fbc3d58168c5ae7397731d063d5bbf3d657854427343f4c083240f7aacaa2d0f628be0079c531659141344cd1fd0a4f28419497f9722a3daafe3b4186f6b6457e0a2646970667358221220c5037edb4635403503877508e187c5a41e767365cafe1c2066c7063858af063964736f6c63430008130033","opcodes":"PUSH1 0x80 PUSH1 0x40 MSTORE CALLVALUE PUSH3 0x2BB JUMPI PUSH3 0x239C DUP1 CODESIZE SUB DUP1 PUSH3 0x1D DUP2 PUSH3 0x2C0 JUMP JUMPDEST SWAP3 DUP4 CODECOPY DUP2 ADD SWAP1 PUSH1 0x20 SWAP2 DUP3 DUP3 DUP3 SUB SLT PUSH3 0x2BB JUMPI DUP2 MLOAD PUSH1 0x1 PUSH1 0x1 PUSH1 0x40 SHL SUB SWAP3 DUP4 DUP3 GT PUSH3 0x2BB JUMPI ADD SWAP2 PUSH1 0x1F SWAP2 DUP1 DUP4 DUP6 ADD SLT ISZERO PUSH3 0x2BB JUMPI DUP4 MLOAD SWAP4 DUP3 DUP6 GT PUSH3 0x291 JUMPI PUSH1 0x1F NOT SWAP5 PUSH3 0x73 DUP6 DUP3 ADD DUP8 AND DUP9 ADD PUSH3 0x2C0 JUMP JUMPDEST SWAP3 DUP2 DUP5 MSTORE DUP8 DUP3 DUP5 ADD ADD GT PUSH3 0x2BB JUMPI DUP7 SWAP2 PUSH1 0x0 JUMPDEST DUP3 DUP2 LT PUSH3 0x2A7 JUMPI POP POP SWAP1 PUSH1 0x0 SWAP2 DUP4 ADD ADD MSTORE DUP1 MLOAD SWAP2 DUP3 GT PUSH3 0x291 JUMPI PUSH3 0xB0 PUSH1 0x2 SLOAD PUSH3 0x2E6 JUMP JUMPDEST DUP4 DUP2 GT PUSH3 0x253 JUMPI JUMPDEST POP DUP5 SWAP4 DUP4 DUP4 GT PUSH1 0x1 EQ PUSH3 0x1EC JUMPI POP SWAP3 DUP2 SWAP3 SWAP4 PUSH1 0x0 SWAP3 PUSH3 0x1E0 JUMPI JUMPDEST POP POP DUP2 PUSH1 0x1 SHL SWAP2 PUSH1 0x0 NOT SWAP1 PUSH1 0x3 SHL SHR NOT AND OR PUSH1 0x2 SSTORE JUMPDEST PUSH1 0x3 DUP1 SLOAD PUSH1 0x1 PUSH1 0x1 PUSH1 0xA0 SHL SUB NOT AND CALLER SWAP1 DUP2 OR SWAP1 SWAP2 SSTORE PUSH1 0x0 PUSH32 0x8BE0079C531659141344CD1FD0A4F28419497F9722A3DAAFE3B4186F6B6457E0 DUP2 DUP1 LOG3 PUSH3 0x133 PUSH1 0x4 SLOAD PUSH3 0x2E6 JUMP JUMPDEST DUP2 DUP2 GT PUSH3 0x1BC JUMPI JUMPDEST POP PUSH32 0x4672616374696F6E616C2043545620546F6B656E73000000000000000000002A PUSH1 0x4 SSTORE PUSH1 0x5 SLOAD PUSH3 0x16F SWAP1 PUSH3 0x2E6 JUMP JUMPDEST SWAP1 DUP1 DUP3 GT PUSH3 0x198 JUMPI JUMPDEST PUSH1 0xA PUSH5 0x1190D51595 PUSH1 0xDA SHL ADD PUSH1 0x5 SSTORE PUSH1 0x40 MLOAD PUSH2 0x205F SWAP1 DUP2 PUSH3 0x33D DUP3 CODECOPY RETURN JUMPDEST PUSH3 0x1B3 SWAP3 PUSH1 0x5 PUSH1 0x0 MSTORE PUSH1 0x0 KECCAK256 SWAP2 ADD PUSH1 0x5 SHR DUP2 ADD SWAP1 PUSH3 0x323 JUMP JUMPDEST CODESIZE DUP1 DUP1 PUSH3 0x179 JUMP JUMPDEST PUSH3 0x1D9 SWAP1 PUSH1 0x4 PUSH1 0x0 MSTORE DUP3 DUP5 PUSH1 0x0 KECCAK256 SWAP2 ADD PUSH1 0x5 SHR DUP2 ADD SWAP1 PUSH3 0x323 JUMP JUMPDEST CODESIZE PUSH3 0x13C JUMP JUMPDEST ADD MLOAD SWAP1 POP CODESIZE DUP1 PUSH3 0xD5 JUMP JUMPDEST DUP3 AND SWAP4 PUSH1 0x2 PUSH1 0x0 MSTORE DUP6 PUSH1 0x0 KECCAK256 SWAP2 PUSH1 0x0 JUMPDEST DUP8 DUP8 DUP3 LT PUSH3 0x23C JUMPI POP POP DUP4 PUSH1 0x1 SWAP6 SWAP7 LT PUSH3 0x222 JUMPI JUMPDEST POP POP POP DUP2 SHL ADD PUSH1 0x2 SSTORE PUSH3 0xEB JUMP JUMPDEST ADD MLOAD PUSH1 0x0 NOT PUSH1 0xF8 DUP5 PUSH1 0x3 SHL AND SHR NOT AND SWAP1 SSTORE CODESIZE DUP1 DUP1 PUSH3 0x213 JUMP JUMPDEST PUSH1 0x1 DUP5 SWAP6 DUP3 SWAP4 SWAP6 DUP6 ADD MLOAD DUP2 SSTORE ADD SWAP5 ADD SWAP3 ADD PUSH3 0x1FC JUMP JUMPDEST PUSH3 0x280 SWAP1 PUSH1 0x2 PUSH1 0x0 MSTORE DUP7 PUSH1 0x0 KECCAK256 DUP6 DUP1 DUP7 ADD PUSH1 0x5 SHR DUP3 ADD SWAP3 DUP10 DUP8 LT PUSH3 0x287 JUMPI JUMPDEST ADD PUSH1 0x5 SHR ADD SWAP1 PUSH3 0x323 JUMP JUMPDEST CODESIZE PUSH3 0xB9 JUMP JUMPDEST SWAP3 POP DUP2 SWAP3 PUSH3 0x274 JUMP JUMPDEST PUSH4 0x4E487B71 PUSH1 0xE0 SHL PUSH1 0x0 MSTORE PUSH1 0x41 PUSH1 0x4 MSTORE PUSH1 0x24 PUSH1 0x0 REVERT JUMPDEST DUP2 DUP2 ADD DUP5 ADD MLOAD DUP6 DUP3 ADD DUP6 ADD MSTORE DUP4 ADD PUSH3 0x87 JUMP JUMPDEST PUSH1 0x0 DUP1 REVERT JUMPDEST PUSH1 0x40 MLOAD SWAP2 SWAP1 PUSH1 0x1F ADD PUSH1 0x1F NOT AND DUP3 ADD PUSH1 0x1 PUSH1 0x1 PUSH1 0x40 SHL SUB DUP2 GT DUP4 DUP3 LT OR PUSH3 0x291 JUMPI PUSH1 0x40 MSTORE JUMP JUMPDEST SWAP1 PUSH1 0x1 DUP3 DUP2 SHR SWAP3 AND DUP1 ISZERO PUSH3 0x318 JUMPI JUMPDEST PUSH1 0x20 DUP4 LT EQ PUSH3 0x302 JUMPI JUMP JUMPDEST PUSH4 0x4E487B71 PUSH1 0xE0 SHL PUSH1 0x0 MSTORE PUSH1 0x22 PUSH1 0x4 MSTORE PUSH1 0x24 PUSH1 0x0 REVERT JUMPDEST SWAP2 PUSH1 0x7F AND SWAP2 PUSH3 0x2F6 JUMP JUMPDEST DUP2 DUP2 LT PUSH3 0x32F JUMPI POP POP JUMP JUMPDEST PUSH1 0x0 DUP2 SSTORE PUSH1 0x1 ADD PUSH3 0x323 JUMP INVALID PUSH1 0x40 PUSH1 0x80 DUP2 MSTORE PUSH1 0x4 SWAP1 DUP2 CALLDATASIZE LT ISZERO PUSH2 0x15 JUMPI PUSH1 0x0 DUP1 REVERT JUMPDEST PUSH1 0x0 SWAP2 DUP3 CALLDATALOAD PUSH1 0xE0 SHR SWAP1 DUP2 PUSH3 0xFDD58E EQ PUSH2 0x1840 JUMPI DUP2 PUSH4 0x1FFC9A7 EQ PUSH2 0x17D2 JUMPI DUP2 PUSH4 0x6FDDE03 EQ PUSH2 0x171F JUMPI DUP2 PUSH4 0xE89341C EQ PUSH2 0x1646 JUMPI DUP2 PUSH4 0x2EB2C2D6 EQ PUSH2 0x1362 JUMPI DUP2 PUSH4 0x4E1273F4 EQ PUSH2 0x11CD JUMPI DUP2 PUSH4 0x6B20C454 EQ PUSH2 0x1089 JUMPI DUP2 PUSH4 0x715018A6 EQ PUSH2 0x103A JUMPI DUP2 PUSH4 0x862440E2 EQ PUSH2 0xF0D JUMPI DUP2 PUSH4 0x8DA5CB5B EQ PUSH2 0xEE4 JUMPI DUP2 PUSH4 0x95D89B41 EQ PUSH2 0xDFF JUMPI DUP2 PUSH4 0xA22CB465 EQ PUSH2 0xD21 JUMPI DUP2 PUSH4 0xA4B645EB EQ PUSH2 0x9F4 JUMPI DUP2 PUSH4 0xB9571E84 EQ PUSH2 0x539 JUMPI DUP2 PUSH4 0xE985E9C5 EQ PUSH2 0x4E7 JUMPI DUP2 PUSH4 0xF242432A EQ PUSH2 0x28D JUMPI DUP2 PUSH4 0xF2FDE38B EQ PUSH2 0x1D2 JUMPI POP PUSH4 0xF5298ACA EQ PUSH2 0xE8 JUMPI PUSH1 0x0 DUP1 REVERT JUMPDEST DUP2 SWAP1 CALLVALUE PUSH2 0x1CF JUMPI PUSH1 0x60 CALLDATASIZE PUSH1 0x3 NOT ADD SLT PUSH2 0x1CF JUMPI PUSH2 0x103 PUSH2 0x1870 JUMP JUMPDEST PUSH1 0x1 PUSH1 0x1 PUSH1 0xA0 SHL SUB AND SWAP1 PUSH1 0x24 CALLDATALOAD SWAP1 PUSH1 0x0 DUP1 MLOAD PUSH1 0x20 PUSH2 0x1FEA DUP4 CODECOPY DUP2 MLOAD SWAP2 MSTORE SWAP1 PUSH1 0x44 CALLDATALOAD CALLER DUP6 EQ DUP1 ISZERO PUSH2 0x1B0 JUMPI JUMPDEST PUSH2 0x137 SWAP1 PUSH2 0x1BE8 JUMP JUMPDEST PUSH2 0x142 DUP6 ISZERO ISZERO PUSH2 0x1EC3 JUMP JUMPDEST PUSH2 0x14B DUP5 PUSH2 0x1E8E JUMP JUMPDEST POP PUSH2 0x155 DUP2 PUSH2 0x1E8E JUMP JUMPDEST POP DUP6 DUP3 MLOAD PUSH2 0x162 DUP2 PUSH2 0x18DB JUMP JUMPDEST MSTORE DUP4 DUP7 MSTORE DUP6 PUSH1 0x20 MSTORE DUP2 DUP7 KECCAK256 DUP6 DUP8 MSTORE PUSH1 0x20 MSTORE PUSH2 0x18C DUP2 DUP4 DUP9 KECCAK256 SLOAD PUSH2 0x187 DUP3 DUP3 LT ISZERO PUSH2 0x1F1B JUMP JUMPDEST PUSH2 0x1CA5 JUMP JUMPDEST DUP5 DUP8 MSTORE DUP7 PUSH1 0x20 MSTORE DUP3 DUP8 KECCAK256 DUP7 DUP9 MSTORE PUSH1 0x20 MSTORE DUP3 DUP8 KECCAK256 SSTORE DUP2 MLOAD SWAP4 DUP5 MSTORE PUSH1 0x20 DUP5 ADD MSTORE CALLER SWAP3 LOG4 DUP1 RETURN JUMPDEST POP DUP5 DUP7 MSTORE PUSH1 0x1 PUSH1 0x20 SWAP1 DUP2 MSTORE DUP3 DUP8 KECCAK256 CALLER DUP9 MSTORE SWAP1 MSTORE DUP2 DUP7 KECCAK256 SLOAD PUSH1 0xFF AND PUSH2 0x12E JUMP JUMPDEST POP REVERT JUMPDEST SWAP1 POP CALLVALUE PUSH2 0x289 JUMPI PUSH1 0x20 CALLDATASIZE PUSH1 0x3 NOT ADD SLT PUSH2 0x289 JUMPI PUSH2 0x1ED PUSH2 0x1870 JUMP JUMPDEST PUSH1 0x3 SLOAD SWAP2 PUSH1 0x1 PUSH1 0x1 PUSH1 0xA0 SHL SUB DUP1 DUP5 AND SWAP3 PUSH2 0x208 CALLER DUP6 EQ PUSH2 0x1A6E JUMP JUMPDEST AND SWAP4 DUP5 ISZERO PUSH2 0x237 JUMPI POP POP DUP3 SWAP1 PUSH1 0x0 DUP1 MLOAD PUSH1 0x20 PUSH2 0x200A DUP4 CODECOPY DUP2 MLOAD SWAP2 MSTORE DUP6 DUP1 LOG3 PUSH1 0x1 PUSH1 0x1 PUSH1 0xA0 SHL SUB NOT AND OR PUSH1 0x3 SSTORE DUP1 RETURN JUMPDEST SWAP1 PUSH1 0x20 PUSH1 0x84 SWAP3 MLOAD SWAP2 PUSH3 0x461BCD PUSH1 0xE5 SHL DUP4 MSTORE DUP3 ADD MSTORE PUSH1 0x26 PUSH1 0x24 DUP3 ADD MSTORE PUSH32 0x4F776E61626C653A206E6577206F776E657220697320746865207A65726F2061 PUSH1 0x44 DUP3 ADD MSTORE PUSH6 0x646472657373 PUSH1 0xD0 SHL PUSH1 0x64 DUP3 ADD MSTORE REVERT JUMPDEST DUP3 DUP1 REVERT JUMPDEST SWAP2 SWAP1 POP CALLVALUE PUSH2 0x289 JUMPI PUSH1 0xA0 CALLDATASIZE PUSH1 0x3 NOT ADD SLT PUSH2 0x289 JUMPI PUSH2 0x2A9 PUSH2 0x1870 JUMP JUMPDEST DUP4 PUSH2 0x2B2 PUSH2 0x188B JUMP JUMPDEST SWAP2 PUSH1 0x44 CALLDATALOAD PUSH1 0x64 CALLDATALOAD PUSH1 0x84 CALLDATALOAD PUSH1 0x1 PUSH1 0x1 PUSH1 0x40 SHL SUB DUP2 GT PUSH2 0x4E3 JUMPI PUSH2 0x2D7 SWAP1 CALLDATASIZE SWAP1 DUP10 ADD PUSH2 0x19E4 JUMP JUMPDEST SWAP3 PUSH1 0x1 PUSH1 0x1 PUSH1 0xA0 SHL SUB DUP7 DUP2 AND SWAP2 PUSH2 0x2EF DUP4 ISZERO ISZERO PUSH2 0x1B8E JUMP JUMPDEST AND SWAP3 CALLER DUP5 EQ DUP1 ISZERO PUSH2 0x4C4 JUMPI JUMPDEST PUSH2 0x304 SWAP1 PUSH2 0x1BE8 JUMP JUMPDEST PUSH2 0x30D DUP2 PUSH2 0x1E8E JUMP JUMPDEST POP PUSH2 0x317 DUP4 PUSH2 0x1E8E JUMP JUMPDEST POP DUP1 DUP7 MSTORE PUSH1 0x20 SWAP7 DUP7 DUP9 MSTORE DUP9 DUP8 KECCAK256 DUP6 DUP9 MSTORE DUP9 MSTORE PUSH2 0x33D DUP5 DUP11 DUP10 KECCAK256 SLOAD PUSH2 0x187 DUP3 DUP3 LT ISZERO PUSH2 0x1C46 JUMP JUMPDEST DUP3 DUP9 MSTORE DUP8 DUP10 MSTORE DUP10 DUP9 KECCAK256 DUP7 DUP10 MSTORE DUP10 MSTORE DUP10 DUP9 KECCAK256 SSTORE DUP2 DUP8 MSTORE DUP7 DUP9 MSTORE DUP9 DUP8 KECCAK256 DUP4 DUP9 MSTORE DUP9 MSTORE DUP9 DUP8 KECCAK256 PUSH2 0x36B DUP6 DUP3 SLOAD PUSH2 0x1CB2 JUMP JUMPDEST SWAP1 SSTORE DUP3 DUP6 DUP11 MLOAD DUP5 DUP2 MSTORE DUP7 DUP12 DUP3 ADD MSTORE PUSH1 0x0 DUP1 MLOAD PUSH1 0x20 PUSH2 0x1FEA DUP4 CODECOPY DUP2 MLOAD SWAP2 MSTORE DUP13 CALLER SWAP3 LOG4 EXTCODESIZE PUSH2 0x395 JUMPI DUP6 DUP1 RETURN JUMPDEST DUP9 SWAP6 DUP8 SWAP5 PUSH2 0x3D6 DUP11 MLOAD SWAP8 DUP9 SWAP7 DUP8 SWAP6 DUP7 SWAP5 PUSH4 0xF23A6E61 PUSH1 0xE0 SHL SWAP13 DUP14 DUP8 MSTORE CALLER SWAP1 DUP8 ADD MSTORE PUSH1 0x24 DUP7 ADD MSTORE PUSH1 0x44 DUP6 ADD MSTORE PUSH1 0x64 DUP5 ADD MSTORE PUSH1 0xA0 PUSH1 0x84 DUP5 ADD MSTORE PUSH1 0xA4 DUP4 ADD SWAP1 PUSH2 0x192F JUMP JUMPDEST SUB SWAP3 GAS CALL DUP7 SWAP2 DUP2 PUSH2 0x495 JUMPI JUMPDEST POP PUSH2 0x464 JUMPI POP POP PUSH1 0x1 SWAP1 PUSH2 0x3F4 PUSH2 0x1DAD JUMP JUMPDEST PUSH4 0x8C379A0 EQ PUSH2 0x431 JUMPI JUMPDEST POP PUSH2 0x414 JUMPI POP POP JUMPDEST CODESIZE DUP1 DUP1 DUP4 DUP2 DUP1 DUP1 DUP1 DUP1 DUP6 DUP1 RETURN JUMPDEST MLOAD PUSH3 0x461BCD PUSH1 0xE5 SHL DUP2 MSTORE SWAP2 POP DUP2 SWAP1 PUSH2 0x42D SWAP1 DUP3 ADD PUSH2 0x1E39 JUMP JUMPDEST SUB SWAP1 REVERT JUMPDEST PUSH2 0x439 PUSH2 0x1DCB JUMP JUMPDEST DUP1 PUSH2 0x444 JUMPI POP PUSH2 0x3FF JUMP JUMPDEST PUSH2 0x42D DUP6 SWAP2 DUP6 MLOAD SWAP4 DUP5 SWAP4 PUSH3 0x461BCD PUSH1 0xE5 SHL DUP6 MSTORE DUP5 ADD MSTORE PUSH1 0x24 DUP4 ADD SWAP1 PUSH2 0x192F JUMP JUMPDEST PUSH1 0x1 PUSH1 0x1 PUSH1 0xE0 SHL SUB NOT AND SUB SWAP1 POP PUSH2 0x47C JUMPI POP POP PUSH2 0x407 JUMP JUMPDEST MLOAD PUSH3 0x461BCD PUSH1 0xE5 SHL DUP2 MSTORE SWAP2 POP DUP2 SWAP1 PUSH2 0x42D SWAP1 DUP3 ADD PUSH2 0x1D64 JUMP JUMPDEST PUSH2 0x4B6 SWAP2 SWAP3 POP DUP5 RETURNDATASIZE DUP7 GT PUSH2 0x4BD JUMPI JUMPDEST PUSH2 0x4AE DUP2 DUP4 PUSH2 0x190C JUMP JUMPDEST DUP2 ADD SWAP1 PUSH2 0x1D44 JUMP JUMPDEST SWAP1 CODESIZE PUSH2 0x3E2 JUMP JUMPDEST POP RETURNDATASIZE PUSH2 0x4A4 JUMP JUMPDEST POP DUP4 DUP7 MSTORE PUSH1 0x1 PUSH1 0x20 SWAP1 DUP2 MSTORE DUP9 DUP8 KECCAK256 CALLER DUP9 MSTORE SWAP1 MSTORE DUP8 DUP7 KECCAK256 SLOAD PUSH1 0xFF AND PUSH2 0x2FB JUMP JUMPDEST DUP5 DUP1 REVERT JUMPDEST POP POP CALLVALUE PUSH2 0x535 JUMPI DUP1 PUSH1 0x3 NOT CALLDATASIZE ADD SLT PUSH2 0x535 JUMPI PUSH1 0xFF DUP2 PUSH1 0x20 SWAP4 PUSH2 0x507 PUSH2 0x1870 JUMP JUMPDEST PUSH2 0x50F PUSH2 0x188B JUMP JUMPDEST PUSH1 0x1 PUSH1 0x1 PUSH1 0xA0 SHL SUB SWAP2 DUP3 AND DUP4 MSTORE PUSH1 0x1 DUP8 MSTORE DUP4 DUP4 KECCAK256 SWAP2 AND DUP3 MSTORE DUP6 MSTORE KECCAK256 SLOAD SWAP2 MLOAD SWAP2 AND ISZERO ISZERO DUP2 MSTORE RETURN JUMPDEST POP DUP1 REVERT JUMPDEST SWAP1 POP CALLVALUE PUSH2 0x289 JUMPI PUSH1 0x3 NOT SWAP2 PUSH1 0xA0 CALLDATASIZE DUP5 ADD SLT PUSH2 0x9F0 JUMPI PUSH2 0x556 PUSH2 0x1870 JUMP JUMPDEST PUSH1 0x24 SWAP5 PUSH1 0x1 PUSH1 0x1 PUSH1 0x40 SHL SUB SWAP5 SWAP1 SWAP2 SWAP1 DUP7 CALLDATALOAD DUP7 DUP2 GT PUSH2 0x9F0 JUMPI PUSH2 0x57B SWAP1 CALLDATASIZE SWAP1 DUP8 ADD PUSH2 0x1986 JUMP JUMPDEST SWAP5 PUSH1 0x44 CALLDATALOAD DUP8 DUP2 GT PUSH2 0x4E3 JUMPI PUSH2 0x593 SWAP1 CALLDATASIZE SWAP1 DUP4 ADD PUSH2 0x1986 JUMP JUMPDEST SWAP7 PUSH1 0x64 CALLDATALOAD SWAP4 DUP2 DUP6 GT PUSH2 0x9EC JUMPI CALLDATASIZE PUSH1 0x23 DUP7 ADD SLT ISZERO PUSH2 0x9EC JUMPI DUP5 DUP4 ADD CALLDATALOAD SWAP10 PUSH2 0x5B8 DUP12 PUSH2 0x196F JUMP JUMPDEST SWAP5 PUSH2 0x5C5 DUP10 MLOAD SWAP7 DUP8 PUSH2 0x190C JUMP JUMPDEST DUP12 DUP7 MSTORE PUSH1 0x20 SWAP7 DUP8 DUP8 ADD DUP4 PUSH1 0x5 SWAP15 DUP16 SHL DUP4 ADD ADD SWAP2 CALLDATASIZE DUP4 GT PUSH2 0x9E8 JUMPI DUP5 DUP2 ADD SWAP2 JUMPDEST DUP4 DUP4 LT PUSH2 0x9BE JUMPI POP POP POP POP PUSH1 0x84 CALLDATALOAD DUP5 DUP2 GT PUSH2 0x9BA JUMPI PUSH2 0x606 SWAP1 CALLDATASIZE SWAP1 DUP8 ADD PUSH2 0x19E4 JUMP JUMPDEST PUSH1 0x1 DUP1 PUSH1 0xA0 SHL SUB SWAP4 PUSH1 0x3 SWAP5 PUSH2 0x61F DUP2 DUP8 SLOAD AND CALLER EQ PUSH2 0x1A6E JUMP JUMPDEST DUP13 MLOAD DUP10 MLOAD SUB PUSH2 0x969 JUMPI SWAP1 PUSH2 0x650 DUP14 SWAP11 SWAP10 SWAP8 SWAP6 SWAP16 SWAP9 SWAP7 SWAP5 SWAP4 SWAP3 DUP16 SWAP1 DUP4 AND SWAP12 PUSH2 0x647 DUP14 ISZERO ISZERO PUSH2 0x1F73 JUMP JUMPDEST MLOAD SWAP1 MLOAD EQ PUSH2 0x1CBF JUMP JUMPDEST DUP11 JUMPDEST DUP14 MLOAD DUP2 LT ISZERO PUSH2 0x6B1 JUMPI SWAP1 DUP15 SWAP16 SWAP4 SWAP3 SWAP2 DUP15 SWAP16 SWAP1 DUP16 DUP16 DUP16 SWAP1 DUP16 SWAP2 DUP16 SWAP3 PUSH2 0x69E SWAP4 PUSH2 0x688 DUP8 PUSH2 0x681 DUP2 PUSH2 0x6A5 SWAP12 PUSH2 0x1B64 JUMP JUMPDEST MLOAD SWAP8 PUSH2 0x1B64 JUMP JUMPDEST MLOAD DUP4 MSTORE DUP3 DUP2 MSTORE DUP4 DUP4 KECCAK256 SWAP2 DUP4 MSTORE MSTORE KECCAK256 SWAP2 DUP3 SLOAD PUSH2 0x1CB2 JUMP JUMPDEST SWAP1 SSTORE PUSH2 0x1B3F JUMP JUMPDEST SWAP1 SWAP2 SWAP3 SWAP4 SWAP16 SWAP15 POP PUSH2 0x652 JUMP JUMPDEST POP DUP15 DUP13 DUP16 DUP16 SWAP6 SWAP1 DUP13 DUP16 SWAP7 DUP16 DUP9 DUP14 SWAP6 DUP9 DUP13 SWAP5 DUP7 SWAP12 DUP6 DUP6 DUP9 PUSH1 0x0 DUP1 MLOAD PUSH1 0x20 PUSH2 0x1FCA DUP4 CODECOPY DUP2 MLOAD SWAP2 MSTORE PUSH2 0x6E8 DUP16 DUP15 SWAP1 MLOAD SWAP2 DUP3 SWAP2 CALLER SWAP6 DUP4 PUSH2 0x1D1C JUMP JUMPDEST SUB SWAP1 LOG4 EXTCODESIZE PUSH2 0x847 JUMPI JUMPDEST POP POP POP SWAP5 POP POP POP POP POP JUMPDEST DUP6 MLOAD DUP2 LT ISZERO PUSH2 0x843 JUMPI PUSH2 0x70E DUP2 DUP12 PUSH2 0x1B64 JUMP JUMPDEST MLOAD PUSH2 0x719 DUP3 DUP9 PUSH2 0x1B64 JUMP JUMPDEST MLOAD DUP7 MSTORE PUSH1 0x6 DUP6 MSTORE DUP3 DUP7 KECCAK256 SWAP1 DUP1 MLOAD SWAP1 DUP11 DUP3 GT PUSH2 0x831 JUMPI DUP14 SWAP1 PUSH2 0x73A DUP5 SLOAD PUSH2 0x18A1 JUMP JUMPDEST PUSH1 0x1F SWAP3 DUP4 DUP3 GT PUSH2 0x7F1 JUMPI JUMPDEST POP POP DUP8 SWAP2 DUP4 GT PUSH1 0x1 EQ PUSH2 0x789 JUMPI PUSH2 0x779 SWAP5 SWAP4 SWAP3 SWAP2 DUP10 SWAP2 DUP4 PUSH2 0x77E JUMPI JUMPDEST POP POP DUP2 PUSH1 0x1 SHL SWAP2 PUSH1 0x0 NOT SWAP1 DUP13 SHL SHR NOT AND OR SWAP1 SSTORE PUSH2 0x1B3F JUMP JUMPDEST PUSH2 0x6FB JUMP JUMPDEST ADD MLOAD SWAP1 POP DUP16 DUP1 PUSH2 0x761 JUMP JUMPDEST DUP4 DUP10 MSTORE DUP8 DUP10 KECCAK256 SWAP2 SWAP1 PUSH1 0x1F NOT DUP5 AND DUP11 JUMPDEST DUP11 DUP3 DUP3 LT PUSH2 0x7DB JUMPI POP POP SWAP1 DUP5 PUSH2 0x779 SWAP8 SWAP7 SWAP6 SWAP5 SWAP4 SWAP3 LT PUSH2 0x7C3 JUMPI JUMPDEST POP POP POP PUSH1 0x1 SWAP1 DUP2 SHL ADD SWAP1 SSTORE PUSH2 0x1B3F JUMP JUMPDEST ADD MLOAD PUSH1 0x0 NOT DUP4 DUP14 SHL PUSH1 0xF8 AND SHR NOT AND SWAP1 SSTORE DUP15 DUP1 DUP1 PUSH2 0x7B3 JUMP JUMPDEST PUSH1 0x1 DUP6 SWAP7 DUP3 SWAP4 SWAP7 DUP7 ADD MLOAD DUP2 SSTORE ADD SWAP6 ADD SWAP4 ADD PUSH2 0x798 JUMP JUMPDEST DUP6 DUP12 MSTORE DUP10 DUP12 KECCAK256 SWAP1 DUP5 DUP1 DUP8 ADD DUP3 SHR DUP4 ADD SWAP4 DUP13 DUP9 LT PUSH2 0x828 JUMPI JUMPDEST ADD SWAP1 SHR ADD SWAP1 JUMPDEST DUP2 DUP2 LT PUSH2 0x81D JUMPI POP DUP16 PUSH2 0x745 JUMP JUMPDEST DUP11 DUP2 SSTORE PUSH1 0x1 ADD PUSH2 0x80F JUMP JUMPDEST SWAP4 POP DUP3 SWAP4 PUSH2 0x809 JUMP JUMPDEST PUSH4 0x4E487B71 PUSH1 0xE0 SHL DUP9 MSTORE PUSH1 0x41 DUP13 MSTORE DUP6 DUP9 REVERT JUMPDEST DUP5 DUP1 RETURN JUMPDEST DUP4 SWAP3 DUP11 MLOAD SWAP9 DUP10 SWAP8 DUP9 SWAP7 DUP8 SWAP6 PUSH4 0xBC197C81 PUSH1 0xE0 SHL SWAP14 DUP15 DUP9 MSTORE CALLER SWAP1 DUP9 ADD MSTORE DUP7 ADD MSTORE PUSH1 0x44 DUP6 ADD PUSH1 0xA0 SWAP1 MSTORE PUSH1 0xA4 DUP6 ADD PUSH2 0x87B SWAP2 PUSH2 0x1A3A JUMP JUMPDEST DUP3 DUP6 DUP3 SUB ADD PUSH1 0x64 DUP7 ADD MSTORE PUSH2 0x88E SWAP2 PUSH2 0x1A3A JUMP JUMPDEST SWAP1 DUP4 DUP3 SUB ADD PUSH1 0x84 DUP5 ADD MSTORE PUSH2 0x8A1 SWAP2 PUSH2 0x192F JUMP JUMPDEST SUB SWAP3 GAS CALL DUP7 SWAP2 DUP2 PUSH2 0x94A JUMPI JUMPDEST POP PUSH2 0x925 JUMPI POP POP PUSH1 0x1 PUSH2 0x8BE PUSH2 0x1DAD JUMP JUMPDEST PUSH4 0x8C379A0 EQ PUSH2 0x8F2 JUMPI JUMPDEST PUSH2 0x8DC JUMPI JUMPDEST DUP8 DUP12 DUP5 DUP8 DUP3 DUP9 DUP2 DUP9 DUP2 PUSH2 0x6F1 JUMP JUMPDEST MLOAD PUSH3 0x461BCD PUSH1 0xE5 SHL DUP2 MSTORE DUP1 PUSH2 0x42D DUP2 DUP11 ADD PUSH2 0x1E39 JUMP JUMPDEST PUSH2 0x8FA PUSH2 0x1DCB JUMP JUMPDEST DUP1 PUSH2 0x905 JUMPI POP PUSH2 0x8C9 JUMP JUMPDEST SWAP1 POP DUP9 SWAP3 PUSH2 0x42D SWAP3 MLOAD SWAP5 DUP6 SWAP5 PUSH3 0x461BCD PUSH1 0xE5 SHL DUP7 MSTORE DUP6 ADD MSTORE DUP4 ADD SWAP1 PUSH2 0x192F JUMP JUMPDEST PUSH1 0x1 PUSH1 0x1 PUSH1 0xE0 SHL SUB NOT AND EQ PUSH2 0x8CE JUMPI MLOAD PUSH3 0x461BCD PUSH1 0xE5 SHL DUP2 MSTORE DUP1 PUSH2 0x42D DUP2 DUP11 ADD PUSH2 0x1D64 JUMP JUMPDEST PUSH2 0x962 SWAP2 SWAP3 POP DUP7 RETURNDATASIZE DUP9 GT PUSH2 0x4BD JUMPI PUSH2 0x4AE DUP2 DUP4 PUSH2 0x190C JUMP JUMPDEST SWAP1 DUP14 PUSH2 0x8AD JUMP JUMPDEST POP DUP11 MLOAD PUSH3 0x461BCD PUSH1 0xE5 SHL DUP2 MSTORE DUP1 DUP9 ADD DUP11 SWAP1 MSTORE PUSH1 0x25 DUP2 DUP7 ADD MSTORE PUSH32 0x455243313135353A2069647320616E642075726973206C656E677468206D6973 PUSH1 0x44 DUP3 ADD MSTORE PUSH5 0xDAC2E8C6D PUSH1 0xDB SHL PUSH1 0x64 DUP3 ADD MSTORE PUSH1 0x84 SWAP1 REVERT JUMPDEST DUP9 DUP1 REVERT JUMPDEST DUP3 CALLDATALOAD DUP9 DUP2 GT PUSH2 0x9E4 JUMPI DUP12 SWAP2 PUSH2 0x9D9 DUP4 SWAP3 DUP10 CALLDATASIZE SWAP2 DUP8 ADD ADD PUSH2 0x19E4 JUMP JUMPDEST DUP2 MSTORE ADD SWAP3 ADD SWAP2 PUSH2 0x5E4 JUMP JUMPDEST DUP13 DUP1 REVERT JUMPDEST DUP11 DUP1 REVERT JUMPDEST DUP6 DUP1 REVERT JUMPDEST DUP4 DUP1 REVERT JUMPDEST DUP4 SWAP2 POP CALLVALUE PUSH2 0x535 JUMPI PUSH1 0xA0 CALLDATASIZE PUSH1 0x3 NOT ADD SLT PUSH2 0x535 JUMPI PUSH2 0xA10 PUSH2 0x1870 JUMP JUMPDEST PUSH1 0x44 CALLDATALOAD SWAP4 PUSH1 0x1 PUSH1 0x1 PUSH1 0x40 SHL SUB SWAP2 SWAP1 PUSH1 0x24 CALLDATALOAD PUSH1 0x64 CALLDATALOAD DUP5 DUP2 GT PUSH2 0xD1D JUMPI PUSH2 0xA38 SWAP1 CALLDATASIZE SWAP1 DUP8 ADD PUSH2 0x19E4 JUMP JUMPDEST SWAP7 PUSH1 0x84 CALLDATALOAD DUP6 DUP2 GT PUSH2 0xD19 JUMPI PUSH2 0xA50 SWAP1 CALLDATASIZE SWAP1 DUP9 ADD PUSH2 0x19E4 JUMP JUMPDEST SWAP4 DUP7 PUSH1 0x1 DUP1 PUSH1 0xA0 SHL SUB SWAP2 PUSH2 0xA69 DUP4 PUSH1 0x3 SLOAD AND CALLER EQ PUSH2 0x1A6E JUMP JUMPDEST DUP3 DUP2 AND SWAP7 PUSH2 0xA78 DUP9 ISZERO ISZERO PUSH2 0x1F73 JUMP JUMPDEST PUSH2 0xA81 DUP7 PUSH2 0x1E8E JUMP JUMPDEST POP PUSH2 0xA8B DUP6 PUSH2 0x1E8E JUMP JUMPDEST POP DUP6 DUP12 MSTORE PUSH1 0x20 SWAP8 DUP9 SWAP3 DUP13 DUP5 MSTORE DUP13 DUP3 DUP11 DUP3 KECCAK256 SWAP2 MSTORE DUP5 MSTORE DUP9 DUP14 KECCAK256 PUSH2 0xAAE DUP9 DUP3 SLOAD PUSH2 0x1CB2 JUMP JUMPDEST SWAP1 SSTORE DUP2 DUP14 DUP11 MLOAD DUP11 DUP2 MSTORE DUP10 DUP8 DUP3 ADD MSTORE PUSH1 0x0 DUP1 MLOAD PUSH1 0x20 PUSH2 0x1FEA DUP4 CODECOPY DUP2 MLOAD SWAP2 MSTORE DUP13 CALLER SWAP3 LOG4 EXTCODESIZE PUSH2 0xC03 JUMPI JUMPDEST POP POP POP POP PUSH2 0xAEA SWAP2 POP CALLER SWAP1 PUSH1 0x3 SLOAD AND EQ PUSH2 0x1A6E JUMP JUMPDEST DUP6 MSTORE PUSH1 0x6 DUP3 MSTORE DUP5 KECCAK256 SWAP3 DUP6 MLOAD SWAP3 DUP4 GT PUSH2 0xBF0 JUMPI POP PUSH2 0xB07 DUP4 SLOAD PUSH2 0x18A1 JUMP JUMPDEST PUSH1 0x1F DUP2 GT PUSH2 0xBAD JUMPI JUMPDEST POP DUP1 PUSH1 0x1F DUP4 GT PUSH1 0x1 EQ PUSH2 0xB4B JUMPI POP DUP4 SWAP5 DUP3 SWAP4 SWAP5 SWAP3 PUSH2 0xB40 JUMPI JUMPDEST POP POP DUP2 PUSH1 0x1 SHL SWAP2 PUSH1 0x0 NOT SWAP1 PUSH1 0x3 SHL SHR NOT AND OR SWAP1 SSTORE DUP1 RETURN JUMPDEST ADD MLOAD SWAP1 POP DUP5 DUP1 PUSH2 0xB29 JUMP JUMPDEST SWAP1 PUSH1 0x1F NOT DUP4 AND SWAP6 DUP5 DUP7 MSTORE DUP3 DUP7 KECCAK256 SWAP3 DUP7 SWAP1 JUMPDEST DUP9 DUP3 LT PUSH2 0xB95 JUMPI POP POP DUP4 PUSH1 0x1 SWAP6 SWAP7 SWAP8 LT PUSH2 0xB7C JUMPI JUMPDEST POP POP POP DUP2 SHL ADD SWAP1 SSTORE DUP1 RETURN JUMPDEST ADD MLOAD PUSH1 0x0 NOT PUSH1 0xF8 DUP5 PUSH1 0x3 SHL AND SHR NOT AND SWAP1 SSTORE DUP5 DUP1 DUP1 PUSH2 0xB71 JUMP JUMPDEST DUP1 PUSH1 0x1 DUP6 SWAP7 DUP3 SWAP5 SWAP7 DUP7 ADD MLOAD DUP2 SSTORE ADD SWAP6 ADD SWAP4 ADD SWAP1 PUSH2 0xB5C JUMP JUMPDEST DUP4 DUP6 MSTORE DUP2 DUP6 KECCAK256 PUSH1 0x1F DUP5 ADD PUSH1 0x5 SHR DUP2 ADD SWAP2 DUP4 DUP6 LT PUSH2 0xBE6 JUMPI JUMPDEST PUSH1 0x1F ADD PUSH1 0x5 SHR ADD SWAP1 JUMPDEST DUP2 DUP2 LT PUSH2 0xBDB JUMPI POP PUSH2 0xB10 JUMP JUMPDEST DUP6 DUP2 SSTORE PUSH1 0x1 ADD PUSH2 0xBCE JUMP JUMPDEST SWAP1 SWAP2 POP DUP2 SWAP1 PUSH2 0xBC5 JUMP JUMPDEST PUSH4 0x4E487B71 PUSH1 0xE0 SHL DUP6 MSTORE PUSH1 0x41 SWAP1 MSTORE PUSH1 0x24 DUP5 REVERT JUMPDEST PUSH2 0xC45 SWAP4 SWAP5 SWAP6 DUP13 DUP10 MLOAD DUP1 SWAP7 DUP2 SWAP6 DUP3 SWAP5 PUSH4 0xF23A6E61 PUSH1 0xE0 SHL SWAP11 DUP12 DUP6 MSTORE CALLER SWAP1 DUP6 ADD MSTORE DUP5 PUSH1 0x24 DUP6 ADD MSTORE DUP13 PUSH1 0x44 DUP6 ADD MSTORE PUSH1 0x64 DUP5 ADD MSTORE PUSH1 0xA0 PUSH1 0x84 DUP5 ADD MSTORE PUSH1 0xA4 DUP4 ADD SWAP1 PUSH2 0x192F JUMP JUMPDEST SUB SWAP3 GAS CALL DUP10 SWAP2 DUP2 PUSH2 0xCFA JUMPI JUMPDEST POP PUSH2 0xCCB JUMPI POP POP PUSH1 0x1 PUSH2 0xC62 PUSH2 0x1DAD JUMP JUMPDEST PUSH4 0x8C379A0 EQ PUSH2 0xC96 JUMPI JUMPDEST PUSH2 0xC7F JUMPI PUSH2 0xAEA SWAP1 JUMPDEST DUP7 DUP6 DUP12 DUP1 PUSH2 0xAD5 JUMP JUMPDEST DUP3 MLOAD PUSH3 0x461BCD PUSH1 0xE5 SHL DUP2 MSTORE DUP1 PUSH2 0x42D DUP2 DUP10 ADD PUSH2 0x1E39 JUMP JUMPDEST PUSH2 0xC9E PUSH2 0x1DCB JUMP JUMPDEST DUP1 PUSH2 0xCA9 JUMPI POP PUSH2 0xC6D JUMP JUMPDEST DUP5 MLOAD PUSH3 0x461BCD PUSH1 0xE5 SHL DUP2 MSTORE DUP1 DUP10 ADD DUP8 SWAP1 MSTORE SWAP1 DUP2 SWAP1 PUSH2 0x42D SWAP1 PUSH1 0x24 DUP4 ADD SWAP1 PUSH2 0x192F JUMP JUMPDEST PUSH1 0x1 PUSH1 0x1 PUSH1 0xE0 SHL SUB NOT AND SUB PUSH2 0xCE3 JUMPI PUSH2 0xAEA SWAP1 PUSH2 0xC76 JUMP JUMPDEST DUP3 MLOAD PUSH3 0x461BCD PUSH1 0xE5 SHL DUP2 MSTORE DUP1 PUSH2 0x42D DUP2 DUP10 ADD PUSH2 0x1D64 JUMP JUMPDEST PUSH2 0xD12 SWAP2 SWAP3 POP DUP8 RETURNDATASIZE DUP10 GT PUSH2 0x4BD JUMPI PUSH2 0x4AE DUP2 DUP4 PUSH2 0x190C JUMP JUMPDEST SWAP1 DUP12 PUSH2 0xC51 JUMP JUMPDEST DUP8 DUP1 REVERT JUMPDEST DUP7 DUP1 REVERT JUMPDEST SWAP2 SWAP1 POP CALLVALUE PUSH2 0x289 JUMPI DUP1 PUSH1 0x3 NOT CALLDATASIZE ADD SLT PUSH2 0x289 JUMPI PUSH2 0xD3C PUSH2 0x1870 JUMP JUMPDEST SWAP1 PUSH1 0x24 CALLDATALOAD SWAP2 DUP3 ISZERO ISZERO DUP1 SWAP4 SUB PUSH2 0x4E3 JUMPI PUSH1 0x1 PUSH1 0x1 PUSH1 0xA0 SHL SUB AND SWAP3 CALLER DUP5 EQ PUSH2 0xDAB JUMPI POP CALLER DUP5 MSTORE PUSH1 0x1 PUSH1 0x20 MSTORE DUP1 DUP5 KECCAK256 DUP4 DUP6 MSTORE PUSH1 0x20 MSTORE DUP1 DUP5 KECCAK256 PUSH1 0xFF NOT DUP2 SLOAD AND PUSH1 0xFF DUP5 AND OR SWAP1 SSTORE MLOAD SWAP1 DUP2 MSTORE PUSH32 0x17307EAB39AB6107E8899845AD3D59BD9653F200F220920489CA2B5937696C31 PUSH1 0x20 CALLER SWAP3 LOG3 DUP1 RETURN JUMPDEST PUSH1 0x20 PUSH1 0x84 SWAP3 MLOAD SWAP2 PUSH3 0x461BCD PUSH1 0xE5 SHL DUP4 MSTORE DUP3 ADD MSTORE PUSH1 0x29 PUSH1 0x24 DUP3 ADD MSTORE PUSH32 0x455243313135353A2073657474696E6720617070726F76616C20737461747573 PUSH1 0x44 DUP3 ADD MSTORE PUSH9 0x103337B91039B2B633 PUSH1 0xB9 SHL PUSH1 0x64 DUP3 ADD MSTORE REVERT JUMPDEST POP POP CALLVALUE PUSH2 0x535 JUMPI DUP2 PUSH1 0x3 NOT CALLDATASIZE ADD SLT PUSH2 0x535 JUMPI DUP1 MLOAD SWAP1 DUP3 PUSH1 0x5 SLOAD PUSH2 0xE21 DUP2 PUSH2 0x18A1 JUMP JUMPDEST DUP1 DUP6 MSTORE SWAP1 PUSH1 0x1 SWAP1 DUP2 DUP2 AND SWAP1 DUP2 ISZERO PUSH2 0xEBC JUMPI POP PUSH1 0x1 EQ PUSH2 0xE63 JUMPI JUMPDEST POP POP POP PUSH2 0xE4D DUP3 PUSH2 0xE5F SWAP5 SUB DUP4 PUSH2 0x190C JUMP JUMPDEST MLOAD SWAP2 DUP3 SWAP2 PUSH1 0x20 DUP4 MSTORE PUSH1 0x20 DUP4 ADD SWAP1 PUSH2 0x192F JUMP JUMPDEST SUB SWAP1 RETURN JUMPDEST PUSH1 0x5 DUP4 MSTORE PUSH1 0x20 SWAP6 POP PUSH32 0x36B6384B5ECA791C62761152D0C79BB0604C104A5FB6F4EB0703F3154BB3DB0 JUMPDEST DUP3 DUP5 LT PUSH2 0xEA9 JUMPI POP POP POP DUP3 PUSH2 0xE5F SWAP5 PUSH2 0xE4D SWAP3 DUP3 ADD ADD SWAP5 PUSH2 0xE3B JUMP JUMPDEST DUP1 SLOAD DUP7 DUP6 ADD DUP9 ADD MSTORE SWAP3 DUP7 ADD SWAP3 DUP2 ADD PUSH2 0xE8D JUMP JUMPDEST PUSH2 0xE5F SWAP8 POP PUSH2 0xE4D SWAP5 POP PUSH1 0x20 SWAP3 POP DUP7 SWAP4 SWAP2 POP PUSH1 0xFF NOT AND DUP3 DUP5 ADD MSTORE ISZERO ISZERO PUSH1 0x5 SHL DUP3 ADD ADD SWAP5 PUSH2 0xE3B JUMP JUMPDEST POP POP CALLVALUE PUSH2 0x535 JUMPI DUP2 PUSH1 0x3 NOT CALLDATASIZE ADD SLT PUSH2 0x535 JUMPI PUSH1 0x3 SLOAD SWAP1 MLOAD PUSH1 0x1 PUSH1 0x1 PUSH1 0xA0 SHL SUB SWAP1 SWAP2 AND DUP2 MSTORE PUSH1 0x20 SWAP1 RETURN JUMPDEST DUP4 SWAP2 POP CALLVALUE PUSH2 0x535 JUMPI DUP3 PUSH1 0x3 NOT CALLDATASIZE ADD SLT PUSH2 0x535 JUMPI PUSH1 0x1 PUSH1 0x1 PUSH1 0x40 SHL SUB PUSH1 0x24 CALLDATALOAD DUP2 DUP2 GT PUSH2 0x9F0 JUMPI PUSH2 0xF3F SWAP1 CALLDATASIZE SWAP1 DUP5 ADD PUSH2 0x19E4 JUMP JUMPDEST SWAP4 PUSH2 0xF55 PUSH1 0x1 DUP1 PUSH1 0xA0 SHL SUB PUSH1 0x3 SLOAD AND CALLER EQ PUSH2 0x1A6E JUMP JUMPDEST DUP3 CALLDATALOAD DUP5 MSTORE PUSH1 0x20 SWAP1 PUSH1 0x6 DUP3 MSTORE DUP5 KECCAK256 SWAP3 DUP6 MLOAD SWAP3 DUP4 GT PUSH2 0xBF0 JUMPI POP PUSH2 0xF77 DUP4 SLOAD PUSH2 0x18A1 JUMP JUMPDEST PUSH1 0x1F DUP2 GT PUSH2 0xFF7 JUMPI JUMPDEST POP DUP1 PUSH1 0x1F DUP4 GT PUSH1 0x1 EQ PUSH2 0xFAF JUMPI POP DUP4 SWAP5 DUP3 SWAP4 SWAP5 SWAP3 PUSH2 0xB40 JUMPI POP POP DUP2 PUSH1 0x1 SHL SWAP2 PUSH1 0x0 NOT SWAP1 PUSH1 0x3 SHL SHR NOT AND OR SWAP1 SSTORE DUP1 RETURN JUMPDEST SWAP1 PUSH1 0x1F NOT DUP4 AND SWAP6 DUP5 DUP7 MSTORE DUP3 DUP7 KECCAK256 SWAP3 DUP7 SWAP1 JUMPDEST DUP9 DUP3 LT PUSH2 0xFDF JUMPI POP POP DUP4 PUSH1 0x1 SWAP6 SWAP7 SWAP8 LT PUSH2 0xB7C JUMPI POP POP POP DUP2 SHL ADD SWAP1 SSTORE DUP1 RETURN JUMPDEST DUP1 PUSH1 0x1 DUP6 SWAP7 DUP3 SWAP5 SWAP7 DUP7 ADD MLOAD DUP2 SSTORE ADD SWAP6 ADD SWAP4 ADD SWAP1 PUSH2 0xFC0 JUMP JUMPDEST DUP4 DUP6 MSTORE DUP2 DUP6 KECCAK256 PUSH1 0x1F DUP5 ADD PUSH1 0x5 SHR DUP2 ADD SWAP2 DUP4 DUP6 LT PUSH2 0x1030 JUMPI JUMPDEST PUSH1 0x1F ADD PUSH1 0x5 SHR ADD SWAP1 JUMPDEST DUP2 DUP2 LT PUSH2 0x1025 JUMPI POP PUSH2 0xF80 JUMP JUMPDEST DUP6 DUP2 SSTORE PUSH1 0x1 ADD PUSH2 0x1018 JUMP JUMPDEST SWAP1 SWAP2 POP DUP2 SWAP1 PUSH2 0x100F JUMP JUMPDEST DUP4 CALLVALUE PUSH2 0x1086 JUMPI DUP1 PUSH1 0x3 NOT CALLDATASIZE ADD SLT PUSH2 0x1086 JUMPI PUSH1 0x3 SLOAD DUP2 PUSH1 0x1 PUSH1 0x1 PUSH1 0xA0 SHL SUB DUP3 AND PUSH2 0x1064 CALLER DUP3 EQ PUSH2 0x1A6E JUMP JUMPDEST PUSH1 0x0 DUP1 MLOAD PUSH1 0x20 PUSH2 0x200A DUP4 CODECOPY DUP2 MLOAD SWAP2 MSTORE DUP3 DUP1 LOG3 PUSH1 0x1 PUSH1 0x1 PUSH1 0xA0 SHL SUB NOT AND PUSH1 0x3 SSTORE DUP1 RETURN JUMPDEST DUP1 REVERT JUMPDEST SWAP2 SWAP1 POP CALLVALUE PUSH2 0x289 JUMPI PUSH1 0x60 CALLDATASIZE PUSH1 0x3 NOT ADD SLT PUSH2 0x289 JUMPI PUSH2 0x10A5 PUSH2 0x1870 JUMP JUMPDEST SWAP1 PUSH1 0x1 PUSH1 0x1 PUSH1 0x40 SHL SUB PUSH1 0x24 CALLDATALOAD DUP2 DUP2 GT PUSH2 0x9EC JUMPI PUSH2 0x10C5 SWAP1 CALLDATASIZE SWAP1 DUP7 ADD PUSH2 0x1986 JUMP JUMPDEST SWAP4 PUSH1 0x44 CALLDATALOAD SWAP2 DUP3 GT PUSH2 0x9EC JUMPI PUSH2 0x10DC SWAP2 CALLDATASIZE SWAP2 ADD PUSH2 0x1986 JUMP JUMPDEST SWAP2 PUSH1 0x1 PUSH1 0x1 PUSH1 0xA0 SHL SUB AND CALLER DUP2 EQ DUP1 ISZERO PUSH2 0x11AE JUMPI JUMPDEST PUSH2 0x10F9 SWAP1 PUSH2 0x1BE8 JUMP JUMPDEST PUSH2 0x1104 DUP2 ISZERO ISZERO PUSH2 0x1EC3 JUMP JUMPDEST PUSH2 0x1111 DUP5 MLOAD DUP5 MLOAD EQ PUSH2 0x1CBF JUMP JUMPDEST DUP5 DUP3 MLOAD PUSH2 0x111D DUP2 PUSH2 0x18DB JUMP JUMPDEST MSTORE DUP5 JUMPDEST DUP6 DUP6 MLOAD DUP3 LT ISZERO PUSH2 0x1185 JUMPI POP DUP1 PUSH2 0x1139 PUSH2 0x1180 SWAP3 DUP8 PUSH2 0x1B64 JUMP JUMPDEST MLOAD PUSH2 0x1144 DUP3 DUP8 PUSH2 0x1B64 JUMP JUMPDEST MLOAD DUP2 DUP10 MSTORE PUSH2 0x1169 PUSH1 0x20 SWAP2 DUP11 DUP4 MSTORE DUP8 DUP12 KECCAK256 DUP8 DUP13 MSTORE DUP4 MSTORE DUP8 DUP12 KECCAK256 SLOAD PUSH2 0x187 DUP3 DUP3 LT ISZERO PUSH2 0x1F1B JUMP JUMPDEST SWAP2 DUP10 MSTORE DUP9 DUP2 MSTORE DUP6 DUP10 KECCAK256 SWAP1 DUP6 DUP11 MSTORE MSTORE DUP5 DUP9 KECCAK256 SSTORE PUSH2 0x1B3F JUMP JUMPDEST PUSH2 0x1120 JUMP JUMPDEST DUP1 DUP4 DUP8 PUSH1 0x0 DUP1 MLOAD PUSH1 0x20 PUSH2 0x1FCA DUP4 CODECOPY DUP2 MLOAD SWAP2 MSTORE PUSH2 0x11A8 DUP10 DUP10 MLOAD SWAP2 DUP3 SWAP2 CALLER SWAP6 DUP4 PUSH2 0x1D1C JUMP JUMPDEST SUB SWAP1 LOG4 DUP1 RETURN JUMPDEST POP DUP1 DUP6 MSTORE PUSH1 0x1 PUSH1 0x20 SWAP1 DUP2 MSTORE DUP3 DUP7 KECCAK256 CALLER DUP8 MSTORE SWAP1 MSTORE DUP2 DUP6 KECCAK256 SLOAD PUSH1 0xFF AND PUSH2 0x10F0 JUMP JUMPDEST SWAP1 POP CALLVALUE PUSH2 0x289 JUMPI DUP2 PUSH1 0x3 NOT CALLDATASIZE ADD SLT PUSH2 0x289 JUMPI DUP1 CALLDATALOAD PUSH1 0x1 PUSH1 0x1 PUSH1 0x40 SHL SUB DUP1 DUP3 GT PUSH2 0x4E3 JUMPI CALLDATASIZE PUSH1 0x23 DUP4 ADD SLT ISZERO PUSH2 0x4E3 JUMPI DUP2 DUP4 ADD CALLDATALOAD SWAP1 PUSH2 0x1209 DUP3 PUSH2 0x196F JUMP JUMPDEST SWAP3 PUSH2 0x1216 DUP7 MLOAD SWAP5 DUP6 PUSH2 0x190C JUMP JUMPDEST DUP3 DUP5 MSTORE PUSH1 0x20 SWAP3 PUSH1 0x24 DUP5 DUP7 ADD SWAP2 PUSH1 0x5 SHL DUP4 ADD ADD SWAP2 CALLDATASIZE DUP4 GT PUSH2 0x9BA JUMPI PUSH1 0x24 ADD SWAP1 JUMPDEST DUP3 DUP3 LT PUSH2 0x133F JUMPI POP POP POP PUSH1 0x24 CALLDATALOAD SWAP1 DUP2 GT PUSH2 0x9EC JUMPI PUSH2 0x1256 SWAP1 CALLDATASIZE SWAP1 DUP6 ADD PUSH2 0x1986 JUMP JUMPDEST SWAP3 DUP3 MLOAD DUP5 MLOAD SUB PUSH2 0x12EC JUMPI POP DUP2 MLOAD SWAP5 PUSH2 0x126D DUP7 PUSH2 0x196F JUMP JUMPDEST SWAP6 PUSH2 0x127A DUP7 MLOAD SWAP8 DUP9 PUSH2 0x190C JUMP JUMPDEST DUP1 DUP8 MSTORE PUSH2 0x1289 PUSH1 0x1F NOT SWAP2 PUSH2 0x196F JUMP JUMPDEST ADD CALLDATASIZE DUP4 DUP9 ADD CALLDATACOPY JUMPDEST DUP3 MLOAD DUP2 LT ISZERO PUSH2 0x12DA JUMPI PUSH2 0x12D5 SWAP1 PUSH2 0x12C5 PUSH1 0x1 PUSH1 0x1 PUSH1 0xA0 SHL SUB PUSH2 0x12B2 DUP4 DUP8 PUSH2 0x1B64 JUMP JUMPDEST MLOAD AND PUSH2 0x12BE DUP4 DUP9 PUSH2 0x1B64 JUMP JUMPDEST MLOAD SWAP1 PUSH2 0x1AB9 JUMP JUMPDEST PUSH2 0x12CF DUP3 DUP10 PUSH2 0x1B64 JUMP JUMPDEST MSTORE PUSH2 0x1B3F JUMP JUMPDEST PUSH2 0x1290 JUMP JUMPDEST DUP5 MLOAD DUP3 DUP2 MSTORE DUP1 PUSH2 0xE5F DUP2 DUP6 ADD DUP10 PUSH2 0x1A3A JUMP JUMPDEST PUSH1 0x84 SWAP2 DUP6 MLOAD SWAP2 PUSH3 0x461BCD PUSH1 0xE5 SHL DUP4 MSTORE DUP3 ADD MSTORE PUSH1 0x29 PUSH1 0x24 DUP3 ADD MSTORE PUSH32 0x455243313135353A206163636F756E747320616E6420696473206C656E677468 PUSH1 0x44 DUP3 ADD MSTORE PUSH9 0x40DAD2E6DAC2E8C6D PUSH1 0xBB SHL PUSH1 0x64 DUP3 ADD MSTORE REVERT JUMPDEST DUP2 CALLDATALOAD PUSH1 0x1 PUSH1 0x1 PUSH1 0xA0 SHL SUB DUP2 AND DUP2 SUB PUSH2 0x135E JUMPI DUP2 MSTORE SWAP1 DUP5 ADD SWAP1 DUP5 ADD PUSH2 0x1235 JUMP JUMPDEST DUP10 DUP1 REVERT JUMPDEST SWAP1 POP CALLVALUE PUSH2 0x289 JUMPI PUSH1 0x3 NOT SWAP2 PUSH1 0xA0 CALLDATASIZE DUP5 ADD SLT PUSH2 0x9F0 JUMPI PUSH2 0x137F PUSH2 0x1870 JUMP JUMPDEST PUSH2 0x1387 PUSH2 0x188B JUMP JUMPDEST SWAP4 PUSH1 0x1 PUSH1 0x1 PUSH1 0x40 SHL SUB SWAP4 PUSH1 0x44 CALLDATALOAD DUP6 DUP2 GT PUSH2 0xD19 JUMPI PUSH2 0x13A8 SWAP1 CALLDATASIZE SWAP1 DUP4 ADD PUSH2 0x1986 JUMP JUMPDEST SWAP1 PUSH1 0x64 CALLDATALOAD DUP7 DUP2 GT PUSH2 0x9BA JUMPI PUSH2 0x13C0 SWAP1 CALLDATASIZE SWAP1 DUP4 ADD PUSH2 0x1986 JUMP JUMPDEST SWAP6 PUSH1 0x84 CALLDATALOAD SWAP1 DUP2 GT PUSH2 0x9BA JUMPI PUSH2 0x13D8 SWAP1 CALLDATASIZE SWAP1 DUP4 ADD PUSH2 0x19E4 JUMP JUMPDEST SWAP3 PUSH2 0x13E6 DUP4 MLOAD DUP9 MLOAD EQ PUSH2 0x1CBF JUMP JUMPDEST PUSH1 0x1 PUSH1 0x1 PUSH1 0xA0 SHL SUB DUP9 DUP2 AND SWAP6 PUSH2 0x13FD DUP8 ISZERO ISZERO PUSH2 0x1B8E JUMP JUMPDEST AND SWAP4 CALLER DUP6 EQ DUP1 ISZERO PUSH2 0x1628 JUMPI JUMPDEST ISZERO PUSH2 0x15CA JUMPI DUP10 JUMPDEST DUP11 DUP6 MLOAD DUP3 LT ISZERO PUSH2 0x148E JUMPI SWAP1 DUP10 PUSH2 0x69E DUP11 PUSH2 0x1489 SWAP5 PUSH2 0x1439 DUP6 PUSH2 0x1432 DUP2 DUP14 PUSH2 0x1B64 JUMP JUMPDEST MLOAD SWAP6 PUSH2 0x1B64 JUMP JUMPDEST MLOAD SWAP4 DUP1 DUP3 MSTORE PUSH1 0x20 SWAP1 DUP3 DUP3 MSTORE DUP4 DUP4 KECCAK256 DUP14 DUP5 MSTORE DUP3 MSTORE PUSH2 0x1460 DUP7 DUP6 DUP6 KECCAK256 SLOAD PUSH2 0x187 DUP3 DUP3 LT ISZERO PUSH2 0x1C46 JUMP JUMPDEST DUP2 DUP5 MSTORE DUP4 DUP4 MSTORE DUP14 DUP6 DUP6 KECCAK256 SWAP1 DUP6 MSTORE DUP4 MSTORE DUP5 DUP5 KECCAK256 SSTORE DUP3 MSTORE DUP2 DUP2 MSTORE DUP3 DUP3 KECCAK256 SWAP1 DUP14 DUP4 MSTORE MSTORE KECCAK256 SWAP2 DUP3 SLOAD PUSH2 0x1CB2 JUMP JUMPDEST PUSH2 0x1410 JUMP JUMPDEST POP POP SWAP1 SWAP5 SWAP4 SWAP6 SWAP7 SWAP3 SWAP2 SWAP8 DUP5 DUP8 DUP10 MLOAD PUSH1 0x0 DUP1 MLOAD PUSH1 0x20 PUSH2 0x1FCA DUP4 CODECOPY DUP2 MLOAD SWAP2 MSTORE CALLER SWAP2 DUP1 PUSH2 0x14B9 DUP11 DUP11 DUP4 PUSH2 0x1D1C JUMP JUMPDEST SUB SWAP1 LOG4 EXTCODESIZE PUSH2 0x14C5 JUMPI DUP9 DUP1 RETURN JUMPDEST DUP7 MLOAD SWAP5 DUP6 SWAP4 DUP5 SWAP4 PUSH4 0xBC197C81 PUSH1 0xE0 SHL SWAP9 DUP10 DUP7 MSTORE CALLER DUP13 DUP8 ADD MSTORE PUSH1 0x24 DUP7 ADD MSTORE PUSH1 0x44 DUP6 ADD PUSH1 0xA0 SWAP1 MSTORE PUSH1 0xA4 DUP6 ADD PUSH2 0x14F7 SWAP2 PUSH2 0x1A3A JUMP JUMPDEST DUP3 DUP6 DUP3 SUB ADD PUSH1 0x64 DUP7 ADD MSTORE PUSH2 0x150A SWAP2 PUSH2 0x1A3A JUMP JUMPDEST SWAP1 DUP4 DUP3 SUB ADD PUSH1 0x84 DUP5 ADD MSTORE PUSH2 0x151D SWAP2 PUSH2 0x192F JUMP JUMPDEST SUB DUP2 DUP9 GAS SWAP5 PUSH1 0x20 SWAP6 CALL DUP6 SWAP2 DUP2 PUSH2 0x15AA JUMPI JUMPDEST POP PUSH2 0x1594 JUMPI POP POP PUSH1 0x1 PUSH2 0x153F PUSH2 0x1DAD JUMP JUMPDEST PUSH4 0x8C379A0 EQ PUSH2 0x155D JUMPI JUMPDEST PUSH2 0x414 JUMPI POP POP JUMPDEST CODESIZE DUP1 DUP1 DUP1 DUP1 DUP1 DUP1 DUP1 DUP9 DUP1 RETURN JUMPDEST PUSH2 0x1565 PUSH2 0x1DCB JUMP JUMPDEST DUP1 PUSH2 0x1570 JUMPI POP PUSH2 0x154A JUMP JUMPDEST SWAP1 POP PUSH2 0x42D SWAP2 PUSH1 0x20 SWAP5 POP MLOAD SWAP4 DUP5 SWAP4 PUSH3 0x461BCD PUSH1 0xE5 SHL DUP6 MSTORE DUP5 ADD MSTORE PUSH1 0x24 DUP4 ADD SWAP1 PUSH2 0x192F JUMP JUMPDEST PUSH1 0x1 PUSH1 0x1 PUSH1 0xE0 SHL SUB NOT AND SUB PUSH2 0x47C JUMPI POP POP PUSH2 0x1551 JUMP JUMPDEST PUSH2 0x15C3 SWAP2 SWAP3 POP PUSH1 0x20 RETURNDATASIZE DUP2 GT PUSH2 0x4BD JUMPI PUSH2 0x4AE DUP2 DUP4 PUSH2 0x190C JUMP JUMPDEST SWAP1 CODESIZE PUSH2 0x152E JUMP JUMPDEST DUP7 MLOAD PUSH3 0x461BCD PUSH1 0xE5 SHL DUP2 MSTORE PUSH1 0x20 DUP2 DUP6 ADD MSTORE PUSH1 0x32 PUSH1 0x24 DUP3 ADD MSTORE PUSH32 0x455243313135353A207472616E736665722063616C6C6572206973206E6F7420 PUSH1 0x44 DUP3 ADD MSTORE PUSH18 0x1BDDDB995C881B9BDC88185C1C1C9BDD9959 PUSH1 0x72 SHL PUSH1 0x64 DUP3 ADD MSTORE PUSH1 0x84 SWAP1 REVERT JUMPDEST POP DUP5 DUP11 MSTORE PUSH1 0x1 PUSH1 0x20 MSTORE DUP7 DUP11 KECCAK256 CALLER DUP12 MSTORE PUSH1 0x20 MSTORE PUSH1 0xFF DUP8 DUP12 KECCAK256 SLOAD AND PUSH2 0x1409 JUMP JUMPDEST SWAP2 SWAP1 POP CALLVALUE PUSH2 0x289 JUMPI PUSH1 0x20 SWAP2 DUP3 PUSH1 0x3 NOT CALLDATASIZE ADD SLT PUSH2 0x9F0 JUMPI CALLDATALOAD DUP4 MSTORE PUSH1 0x6 DUP3 MSTORE DUP1 DUP4 KECCAK256 DUP2 MLOAD SWAP4 DUP5 SWAP2 DUP2 DUP2 SLOAD SWAP1 PUSH2 0x1678 DUP3 PUSH2 0x18A1 JUMP JUMPDEST SWAP3 DUP4 DUP7 MSTORE PUSH1 0x1 SWAP3 DUP9 DUP5 DUP3 AND SWAP2 DUP3 PUSH1 0x0 EQ PUSH2 0x16F5 JUMPI POP POP PUSH1 0x1 EQ PUSH2 0x16B7 JUMPI JUMPDEST DUP6 DUP9 PUSH2 0xE5F DUP10 PUSH2 0x16A8 DUP5 DUP11 SUB DUP6 PUSH2 0x190C JUMP JUMPDEST MLOAD SWAP3 DUP3 DUP5 SWAP4 DUP5 MSTORE DUP4 ADD SWAP1 PUSH2 0x192F JUMP JUMPDEST DUP8 SWAP5 POP DUP2 SWAP4 SWAP3 SWAP2 MSTORE DUP4 DUP4 KECCAK256 JUMPDEST DUP3 DUP5 LT PUSH2 0x16DD JUMPI POP POP POP DUP3 ADD ADD DUP2 PUSH2 0x16A8 PUSH2 0xE5F CODESIZE PUSH2 0x1696 JUMP JUMPDEST DUP1 SLOAD DUP5 DUP11 ADD DUP7 ADD MSTORE DUP9 SWAP6 POP DUP8 SWAP5 SWAP1 SWAP4 ADD SWAP3 DUP2 ADD PUSH2 0x16C3 JUMP JUMPDEST PUSH1 0xFF NOT AND DUP9 DUP3 ADD MSTORE SWAP5 ISZERO ISZERO PUSH1 0x5 SHL DUP8 ADD SWAP1 SWAP5 ADD SWAP5 POP DUP6 SWAP4 POP PUSH2 0x16A8 SWAP3 POP PUSH2 0xE5F SWAP2 POP CODESIZE SWAP1 POP PUSH2 0x1696 JUMP JUMPDEST DUP4 DUP4 CALLVALUE PUSH2 0x535 JUMPI DUP2 PUSH1 0x3 NOT CALLDATASIZE ADD SLT PUSH2 0x535 JUMPI DUP1 MLOAD SWAP2 DUP1 SWAP4 DUP1 SLOAD PUSH2 0x1741 DUP2 PUSH2 0x18A1 JUMP JUMPDEST DUP1 DUP7 MSTORE SWAP2 PUSH1 0x1 SWAP2 DUP1 DUP4 AND SWAP1 DUP2 ISZERO PUSH2 0x17A7 JUMPI POP PUSH1 0x1 EQ PUSH2 0x176C JUMPI JUMPDEST PUSH2 0xE5F DUP7 DUP7 PUSH2 0xE4D DUP3 DUP12 SUB DUP4 PUSH2 0x190C JUMP JUMPDEST DUP4 MSTORE PUSH1 0x20 DUP1 DUP5 KECCAK256 SWAP1 SWAP7 POP JUMPDEST DUP3 DUP5 LT PUSH2 0x1794 JUMPI POP POP POP DUP3 PUSH2 0xE5F SWAP5 PUSH2 0xE4D SWAP3 DUP3 ADD ADD SWAP5 DUP7 PUSH2 0x175B JUMP JUMPDEST DUP1 SLOAD DUP7 DUP6 ADD DUP9 ADD MSTORE SWAP3 DUP7 ADD SWAP3 DUP2 ADD PUSH2 0x1777 JUMP JUMPDEST SWAP1 POP PUSH2 0xE5F SWAP8 POP PUSH2 0xE4D SWAP5 POP PUSH1 0x20 SWAP3 POP DUP7 SWAP4 SWAP2 POP PUSH1 0xFF NOT AND DUP3 DUP5 ADD MSTORE ISZERO ISZERO PUSH1 0x5 SHL DUP3 ADD ADD SWAP5 DUP7 PUSH2 0x175B JUMP JUMPDEST SWAP1 POP CALLVALUE PUSH2 0x289 JUMPI PUSH1 0x20 CALLDATASIZE PUSH1 0x3 NOT ADD SLT PUSH2 0x289 JUMPI CALLDATALOAD SWAP1 PUSH4 0xFFFFFFFF PUSH1 0xE0 SHL DUP3 AND DUP1 SWAP3 SUB PUSH2 0x289 JUMPI PUSH1 0x20 SWAP3 POP PUSH4 0x6CDB3D13 PUSH1 0xE1 SHL DUP3 EQ SWAP2 DUP3 ISZERO PUSH2 0x182F JUMPI JUMPDEST DUP3 ISZERO PUSH2 0x181E JUMPI JUMPDEST POP MLOAD SWAP1 ISZERO ISZERO DUP2 MSTORE RETURN JUMPDEST PUSH4 0x1FFC9A7 PUSH1 0xE0 SHL EQ SWAP2 POP CODESIZE PUSH2 0x1815 JUMP JUMPDEST PUSH4 0x3A24D07 PUSH1 0xE2 SHL DUP2 EQ SWAP3 POP PUSH2 0x180E JUMP JUMPDEST POP POP CALLVALUE PUSH2 0x535 JUMPI DUP1 PUSH1 0x3 NOT CALLDATASIZE ADD SLT PUSH2 0x535 JUMPI PUSH1 0x20 SWAP1 PUSH2 0x1869 PUSH2 0x1860 PUSH2 0x1870 JUMP JUMPDEST PUSH1 0x24 CALLDATALOAD SWAP1 PUSH2 0x1AB9 JUMP JUMPDEST SWAP1 MLOAD SWAP1 DUP2 MSTORE RETURN JUMPDEST PUSH1 0x4 CALLDATALOAD SWAP1 PUSH1 0x1 PUSH1 0x1 PUSH1 0xA0 SHL SUB DUP3 AND DUP3 SUB PUSH2 0x1886 JUMPI JUMP JUMPDEST PUSH1 0x0 DUP1 REVERT JUMPDEST PUSH1 0x24 CALLDATALOAD SWAP1 PUSH1 0x1 PUSH1 0x1 PUSH1 0xA0 SHL SUB DUP3 AND DUP3 SUB PUSH2 0x1886 JUMPI JUMP JUMPDEST SWAP1 PUSH1 0x1 DUP3 DUP2 SHR SWAP3 AND DUP1 ISZERO PUSH2 0x18D1 JUMPI JUMPDEST PUSH1 0x20 DUP4 LT EQ PUSH2 0x18BB JUMPI JUMP JUMPDEST PUSH4 0x4E487B71 PUSH1 0xE0 SHL PUSH1 0x0 MSTORE PUSH1 0x22 PUSH1 0x4 MSTORE PUSH1 0x24 PUSH1 0x0 REVERT JUMPDEST SWAP2 PUSH1 0x7F AND SWAP2 PUSH2 0x18B0 JUMP JUMPDEST PUSH1 0x20 DUP2 ADD SWAP1 DUP2 LT PUSH1 0x1 PUSH1 0x1 PUSH1 0x40 SHL SUB DUP3 GT OR PUSH2 0x18F6 JUMPI PUSH1 0x40 MSTORE JUMP JUMPDEST PUSH4 0x4E487B71 PUSH1 0xE0 SHL PUSH1 0x0 MSTORE PUSH1 0x41 PUSH1 0x4 MSTORE PUSH1 0x24 PUSH1 0x0 REVERT JUMPDEST PUSH1 0x1F SWAP1 SWAP2 ADD PUSH1 0x1F NOT AND DUP2 ADD SWAP1 PUSH1 0x1 PUSH1 0x1 PUSH1 0x40 SHL SUB DUP3 GT SWAP1 DUP3 LT OR PUSH2 0x18F6 JUMPI PUSH1 0x40 MSTORE JUMP JUMPDEST SWAP2 SWAP1 DUP3 MLOAD SWAP3 DUP4 DUP3 MSTORE PUSH1 0x0 JUMPDEST DUP5 DUP2 LT PUSH2 0x195B JUMPI POP POP DUP3 PUSH1 0x0 PUSH1 0x20 DUP1 SWAP5 SWAP6 DUP5 ADD ADD MSTORE PUSH1 0x1F DUP1 NOT SWAP2 ADD AND ADD ADD SWAP1 JUMP JUMPDEST PUSH1 0x20 DUP2 DUP4 ADD DUP2 ADD MLOAD DUP5 DUP4 ADD DUP3 ADD MSTORE ADD PUSH2 0x193A JUMP JUMPDEST PUSH1 0x1 PUSH1 0x1 PUSH1 0x40 SHL SUB DUP2 GT PUSH2 0x18F6 JUMPI PUSH1 0x5 SHL PUSH1 0x20 ADD SWAP1 JUMP JUMPDEST DUP2 PUSH1 0x1F DUP3 ADD SLT ISZERO PUSH2 0x1886 JUMPI DUP1 CALLDATALOAD SWAP2 PUSH2 0x199D DUP4 PUSH2 0x196F JUMP JUMPDEST SWAP3 PUSH2 0x19AB PUSH1 0x40 MLOAD SWAP5 DUP6 PUSH2 0x190C JUMP JUMPDEST DUP1 DUP5 MSTORE PUSH1 0x20 SWAP3 DUP4 DUP1 DUP7 ADD SWAP3 PUSH1 0x5 SHL DUP3 ADD ADD SWAP3 DUP4 GT PUSH2 0x1886 JUMPI DUP4 ADD SWAP1 JUMPDEST DUP3 DUP3 LT PUSH2 0x19D5 JUMPI POP POP POP POP SWAP1 JUMP JUMPDEST DUP2 CALLDATALOAD DUP2 MSTORE SWAP1 DUP4 ADD SWAP1 DUP4 ADD PUSH2 0x19C7 JUMP JUMPDEST DUP2 PUSH1 0x1F DUP3 ADD SLT ISZERO PUSH2 0x1886 JUMPI DUP1 CALLDATALOAD SWAP1 PUSH1 0x1 PUSH1 0x1 PUSH1 0x40 SHL SUB DUP3 GT PUSH2 0x18F6 JUMPI PUSH1 0x40 MLOAD SWAP3 PUSH2 0x1A18 PUSH1 0x1F DUP5 ADD PUSH1 0x1F NOT AND PUSH1 0x20 ADD DUP6 PUSH2 0x190C JUMP JUMPDEST DUP3 DUP5 MSTORE PUSH1 0x20 DUP4 DUP4 ADD ADD GT PUSH2 0x1886 JUMPI DUP2 PUSH1 0x0 SWAP3 PUSH1 0x20 DUP1 SWAP4 ADD DUP4 DUP7 ADD CALLDATACOPY DUP4 ADD ADD MSTORE SWAP1 JUMP JUMPDEST SWAP1 DUP2 MLOAD DUP1 DUP3 MSTORE PUSH1 0x20 DUP1 DUP1 SWAP4 ADD SWAP4 ADD SWAP2 PUSH1 0x0 JUMPDEST DUP3 DUP2 LT PUSH2 0x1A5A JUMPI POP POP POP POP SWAP1 JUMP JUMPDEST DUP4 MLOAD DUP6 MSTORE SWAP4 DUP2 ADD SWAP4 SWAP3 DUP2 ADD SWAP3 PUSH1 0x1 ADD PUSH2 0x1A4C JUMP JUMPDEST ISZERO PUSH2 0x1A75 JUMPI JUMP JUMPDEST PUSH1 0x64 PUSH1 0x40 MLOAD PUSH3 0x461BCD PUSH1 0xE5 SHL DUP2 MSTORE PUSH1 0x20 PUSH1 0x4 DUP3 ADD MSTORE PUSH1 0x20 PUSH1 0x24 DUP3 ADD MSTORE PUSH32 0x4F776E61626C653A2063616C6C6572206973206E6F7420746865206F776E6572 PUSH1 0x44 DUP3 ADD MSTORE REVERT JUMPDEST PUSH1 0x1 PUSH1 0x1 PUSH1 0xA0 SHL SUB AND SWAP1 DUP2 ISZERO PUSH2 0x1AE6 JUMPI PUSH1 0x0 MSTORE PUSH1 0x0 PUSH1 0x20 MSTORE PUSH1 0x40 PUSH1 0x0 KECCAK256 SWAP1 PUSH1 0x0 MSTORE PUSH1 0x20 MSTORE PUSH1 0x40 PUSH1 0x0 KECCAK256 SLOAD SWAP1 JUMP JUMPDEST PUSH1 0x40 MLOAD PUSH3 0x461BCD PUSH1 0xE5 SHL DUP2 MSTORE PUSH1 0x20 PUSH1 0x4 DUP3 ADD MSTORE PUSH1 0x2B PUSH1 0x24 DUP3 ADD MSTORE PUSH32 0x455243313135353A2062616C616E636520717565727920666F7220746865207A PUSH1 0x44 DUP3 ADD MSTORE PUSH11 0x65726F2061646472657373 PUSH1 0xA8 SHL PUSH1 0x64 DUP3 ADD MSTORE PUSH1 0x84 SWAP1 REVERT JUMPDEST PUSH1 0x0 NOT DUP2 EQ PUSH2 0x1B4E JUMPI PUSH1 0x1 ADD SWAP1 JUMP JUMPDEST PUSH4 0x4E487B71 PUSH1 0xE0 SHL PUSH1 0x0 MSTORE PUSH1 0x11 PUSH1 0x4 MSTORE PUSH1 0x24 PUSH1 0x0 REVERT JUMPDEST DUP1 MLOAD DUP3 LT ISZERO PUSH2 0x1B78 JUMPI PUSH1 0x20 SWAP2 PUSH1 0x5 SHL ADD ADD SWAP1 JUMP JUMPDEST PUSH4 0x4E487B71 PUSH1 0xE0 SHL PUSH1 0x0 MSTORE PUSH1 0x32 PUSH1 0x4 MSTORE PUSH1 0x24 PUSH1 0x0 REVERT JUMPDEST ISZERO PUSH2 0x1B95 JUMPI JUMP JUMPDEST PUSH1 0x40 MLOAD PUSH3 0x461BCD PUSH1 0xE5 SHL DUP2 MSTORE PUSH1 0x20 PUSH1 0x4 DUP3 ADD MSTORE PUSH1 0x25 PUSH1 0x24 DUP3 ADD MSTORE PUSH32 0x455243313135353A207472616E7366657220746F20746865207A65726F206164 PUSH1 0x44 DUP3 ADD MSTORE PUSH5 0x6472657373 PUSH1 0xD8 SHL PUSH1 0x64 DUP3 ADD MSTORE PUSH1 0x84 SWAP1 REVERT JUMPDEST ISZERO PUSH2 0x1BEF JUMPI JUMP JUMPDEST PUSH1 0x40 MLOAD PUSH3 0x461BCD PUSH1 0xE5 SHL DUP2 MSTORE PUSH1 0x20 PUSH1 0x4 DUP3 ADD MSTORE PUSH1 0x29 PUSH1 0x24 DUP3 ADD MSTORE PUSH32 0x455243313135353A2063616C6C6572206973206E6F74206F776E6572206E6F72 PUSH1 0x44 DUP3 ADD MSTORE PUSH9 0x8185C1C1C9BDD9959 PUSH1 0xBA SHL PUSH1 0x64 DUP3 ADD MSTORE PUSH1 0x84 SWAP1 REVERT JUMPDEST ISZERO PUSH2 0x1C4D JUMPI JUMP JUMPDEST PUSH1 0x40 MLOAD PUSH3 0x461BCD PUSH1 0xE5 SHL DUP2 MSTORE PUSH1 0x20 PUSH1 0x4 DUP3 ADD MSTORE PUSH1 0x2A PUSH1 0x24 DUP3 ADD MSTORE PUSH32 0x455243313135353A20696E73756666696369656E742062616C616E636520666F PUSH1 0x44 DUP3 ADD MSTORE PUSH10 0x39103A3930B739B332B9 PUSH1 0xB1 SHL PUSH1 0x64 DUP3 ADD MSTORE PUSH1 0x84 SWAP1 REVERT JUMPDEST SWAP2 SWAP1 DUP3 SUB SWAP2 DUP3 GT PUSH2 0x1B4E JUMPI JUMP JUMPDEST SWAP2 SWAP1 DUP3 ADD DUP1 SWAP3 GT PUSH2 0x1B4E JUMPI JUMP JUMPDEST ISZERO PUSH2 0x1CC6 JUMPI JUMP JUMPDEST PUSH1 0x40 MLOAD PUSH3 0x461BCD PUSH1 0xE5 SHL DUP2 MSTORE PUSH1 0x20 PUSH1 0x4 DUP3 ADD MSTORE PUSH1 0x28 PUSH1 0x24 DUP3 ADD MSTORE PUSH32 0x455243313135353A2069647320616E6420616D6F756E7473206C656E67746820 PUSH1 0x44 DUP3 ADD MSTORE PUSH8 0xDAD2E6DAC2E8C6D PUSH1 0xC3 SHL PUSH1 0x64 DUP3 ADD MSTORE PUSH1 0x84 SWAP1 REVERT JUMPDEST SWAP1 SWAP2 PUSH2 0x1D33 PUSH2 0x1D41 SWAP4 PUSH1 0x40 DUP5 MSTORE PUSH1 0x40 DUP5 ADD SWAP1 PUSH2 0x1A3A JUMP JUMPDEST SWAP2 PUSH1 0x20 DUP2 DUP5 SUB SWAP2 ADD MSTORE PUSH2 0x1A3A JUMP JUMPDEST SWAP1 JUMP JUMPDEST SWAP1 DUP2 PUSH1 0x20 SWAP2 SUB SLT PUSH2 0x1886 JUMPI MLOAD PUSH1 0x1 PUSH1 0x1 PUSH1 0xE0 SHL SUB NOT DUP2 AND DUP2 SUB PUSH2 0x1886 JUMPI SWAP1 JUMP JUMPDEST PUSH1 0x80 SWAP1 PUSH1 0x20 DUP2 MSTORE PUSH1 0x28 PUSH1 0x20 DUP3 ADD MSTORE PUSH32 0x455243313135353A204552433131353552656365697665722072656A65637465 PUSH1 0x40 DUP3 ADD MSTORE PUSH8 0x6420746F6B656E73 PUSH1 0xC0 SHL PUSH1 0x60 DUP3 ADD MSTORE ADD SWAP1 JUMP JUMPDEST PUSH1 0x0 SWAP1 PUSH1 0x3 RETURNDATASIZE GT PUSH2 0x1DBA JUMPI JUMP JUMPDEST SWAP1 POP PUSH1 0x4 PUSH1 0x0 DUP1 RETURNDATACOPY PUSH1 0x0 MLOAD PUSH1 0xE0 SHR SWAP1 JUMP JUMPDEST PUSH1 0x0 PUSH1 0x44 RETURNDATASIZE LT PUSH2 0x1D41 JUMPI PUSH1 0x40 MLOAD PUSH1 0x3 NOT SWAP2 RETURNDATASIZE DUP4 ADD PUSH1 0x4 DUP4 RETURNDATACOPY DUP2 MLOAD PUSH1 0x1 PUSH1 0x1 PUSH1 0x40 SHL SUB SWAP2 DUP3 DUP3 GT RETURNDATASIZE PUSH1 0x24 DUP5 ADD GT OR PUSH2 0x1E28 JUMPI DUP2 DUP5 ADD SWAP5 DUP6 MLOAD SWAP4 DUP5 GT PUSH2 0x1E30 JUMPI RETURNDATASIZE DUP6 ADD ADD PUSH1 0x20 DUP5 DUP8 ADD ADD GT PUSH2 0x1E28 JUMPI POP PUSH2 0x1D41 SWAP3 SWAP2 ADD PUSH1 0x20 ADD SWAP1 PUSH2 0x190C JUMP JUMPDEST SWAP5 SWAP4 POP POP POP POP JUMP JUMPDEST POP SWAP5 SWAP4 POP POP POP POP JUMP JUMPDEST PUSH1 0x80 SWAP1 PUSH1 0x20 DUP2 MSTORE PUSH1 0x34 PUSH1 0x20 DUP3 ADD MSTORE PUSH32 0x455243313135353A207472616E7366657220746F206E6F6E2045524331313535 PUSH1 0x40 DUP3 ADD MSTORE PUSH20 0x2932B1B2B4BB32B91034B6B83632B6B2B73A32B9 PUSH1 0x61 SHL PUSH1 0x60 DUP3 ADD MSTORE ADD SWAP1 JUMP JUMPDEST PUSH1 0x40 DUP1 MLOAD SWAP2 SWAP1 DUP3 ADD PUSH1 0x1 PUSH1 0x1 PUSH1 0x40 SHL SUB DUP2 GT DUP4 DUP3 LT OR PUSH2 0x18F6 JUMPI PUSH1 0x40 MSTORE PUSH1 0x1 DUP3 MSTORE PUSH1 0x20 DUP3 ADD PUSH1 0x20 CALLDATASIZE DUP3 CALLDATACOPY DUP3 MLOAD ISZERO PUSH2 0x1B78 JUMPI MSTORE SWAP1 JUMP JUMPDEST ISZERO PUSH2 0x1ECA JUMPI JUMP JUMPDEST PUSH1 0x40 MLOAD PUSH3 0x461BCD PUSH1 0xE5 SHL DUP2 MSTORE PUSH1 0x20 PUSH1 0x4 DUP3 ADD MSTORE PUSH1 0x23 PUSH1 0x24 DUP3 ADD MSTORE PUSH32 0x455243313135353A206275726E2066726F6D20746865207A65726F2061646472 PUSH1 0x44 DUP3 ADD MSTORE PUSH3 0x657373 PUSH1 0xE8 SHL PUSH1 0x64 DUP3 ADD MSTORE PUSH1 0x84 SWAP1 REVERT JUMPDEST ISZERO PUSH2 0x1F22 JUMPI JUMP JUMPDEST PUSH1 0x40 MLOAD PUSH3 0x461BCD PUSH1 0xE5 SHL DUP2 MSTORE PUSH1 0x20 PUSH1 0x4 DUP3 ADD MSTORE PUSH1 0x24 DUP1 DUP3 ADD MSTORE PUSH32 0x455243313135353A206275726E20616D6F756E7420657863656564732062616C PUSH1 0x44 DUP3 ADD MSTORE PUSH4 0x616E6365 PUSH1 0xE0 SHL PUSH1 0x64 DUP3 ADD MSTORE PUSH1 0x84 SWAP1 REVERT JUMPDEST ISZERO PUSH2 0x1F7A JUMPI JUMP JUMPDEST PUSH1 0x40 MLOAD PUSH3 0x461BCD PUSH1 0xE5 SHL DUP2 MSTORE PUSH1 0x20 PUSH1 0x4 DUP3 ADD MSTORE PUSH1 0x21 PUSH1 0x24 DUP3 ADD MSTORE PUSH32 0x455243313135353A206D696E7420746F20746865207A65726F20616464726573 PUSH1 0x44 DUP3 ADD MSTORE PUSH1 0x73 PUSH1 0xF8 SHL PUSH1 0x64 DUP3 ADD MSTORE PUSH1 0x84 SWAP1 REVERT INVALID 0x4A CODECOPY 0xDC MOD 0xD4 0xC0 0xDB 0xC6 0x4B PUSH17 0xAF90FD698A233A518AA5D07E595D983B8C SDIV 0x26 0xC8 0xF7 0xFB 0xC3 0xD5 DUP2 PUSH9 0xC5AE7397731D063D5B 0xBF RETURNDATASIZE PUSH6 0x7854427343F4 0xC0 DUP4 0x24 0xF PUSH27 0xACAA2D0F628BE0079C531659141344CD1FD0A4F28419497F9722A3 0xDA 0xAF 0xE3 0xB4 XOR PUSH16 0x6B6457E0A2646970667358221220C503 PUSH31 0xDB4635403503877508E187C5A41E767365CAFE1C2066C7063858AF06396473 PUSH16 0x6C634300081300330000000000000000 "},"gasEstimates":{"creation":{"codeDepositCost":"1657400","executionCost":"infinite","totalCost":"infinite"},"external":{"balanceOf(address,uint256)":"2547","balanceOfBatch(address[],uint256[])":"infinite","burn(address,uint256,uint256)":"infinite","burnBatch(address,uint256[],uint256[])":"infinite","isApprovedForAll(address,address)":"2888","mint(address,uint256,uint256,string,bytes)":"infinite","mintBatch(address,uint256[],uint256[],string[],bytes)":"infinite","name()":"infinite","owner()":"2494","renounceOwnership()":"26142","safeBatchTransferFrom(address,address,uint256[],uint256[],bytes)":"infinite","safeTransferFrom(address,address,uint256,uint256,bytes)":"infinite","setApprovalForAll(address,bool)":"26694","setURI(uint256,string)":"infinite","supportsInterface(bytes4)":"366","symbol()":"infinite","transferOwnership(address)":"26459","uri(uint256)":"infinite"}},"methodIdentifiers":{"balanceOf(address,uint256)":"00fdd58e","balanceOfBatch(address[],uint256[])":"4e1273f4","burn(address,uint256,uint256)":"f5298aca","burnBatch(address,uint256[],uint256[])":"6b20c454","isApprovedForAll(address,address)":"e985e9c5","mint(address,uint256,uint256,string,bytes)":"a4b645eb","mintBatch(address,uint256[],uint256[],string[],bytes)":"b9571e84","name()":"06fdde03","owner()":"8da5cb5b","renounceOwnership()":"715018a6","safeBatchTransferFrom(address,address,uint256[],uint256[],bytes)":"2eb2c2d6","safeTransferFrom(address,address,uint256,uint256,bytes)":"f242432a","setApprovalForAll(address,bool)":"a22cb465","setURI(uint256,string)":"862440e2","supportsInterface(bytes4)":"01ffc9a7","symbol()":"95d89b41","transferOwnership(address)":"f2fde38b","uri(uint256)":"0e89341c"}},"storageLayout":{"storage":[{"astId":227,"contract":"contracts/FCTVToken.sol:FCTVToken","label":"_balances","offset":0,"slot":"0","type":"t_mapping(t_uint256,t_mapping(t_address,t_uint256))"},{"astId":233,"contract":"contracts/FCTVToken.sol:FCTVToken","label":"_operatorApprovals","offset":0,"slot":"1","type":"t_mapping(t_address,t_mapping(t_address,t_bool))"},{"astId":235,"contract":"contracts/FCTVToken.sol:FCTVToken","label":"_uri","offset":0,"slot":"2","type":"t_string_storage"},{"astId":7,"contract":"contracts/FCTVToken.sol:FCTVToken","label":"_owner","offset":0,"slot":"3","type":"t_address"},{"astId":5359,"contract":"contracts/FCTVToken.sol:FCTVToken","label":"name","offset":0,"slot":"4","type":"t_string_storage"},{"astId":5361,"contract":"contracts/FCTVToken.sol:FCTVToken","label":"symbol","offset":0,"slot":"5","type":"t_string_storage"},{"astId":5365,"contract":"contracts/FCTVToken.sol:FCTVToken","label":"_tokenURIs","offset":0,"slot":"6","type":"t_mapping(t_uint256,t_string_storage)"}],"types":{"t_address":{"encoding":"inplace","label":"address","numberOfBytes":"20"},"t_bool":{"encoding":"inplace","label":"bool","numberOfBytes":"1"},"t_mapping(t_address,t_bool)":{"encoding":"mapping","key":"t_address","label":"mapping(address => bool)","numberOfBytes":"32","value":"t_bool"},"t_mapping(t_address,t_mapping(t_address,t_bool))":{"encoding":"mapping","key":"t_address","label":"mapping(address => mapping(address => bool))","numberOfBytes":"32","value":"t_mapping(t_address,t_bool)"},"t_mapping(t_address,t_uint256)":{"encoding":"mapping","key":"t_address","label":"mapping(address => uint256)","numberOfBytes":"32","value":"t_uint256"},"t_mapping(t_uint256,t_mapping(t_address,t_uint256))":{"encoding":"mapping","key":"t_uint256","label":"mapping(uint256 => mapping(address => uint256))","numberOfBytes":"32","value":"t_mapping(t_address,t_uint256)"},"t_mapping(t_uint256,t_string_storage)":{"encoding":"mapping","key":"t_uint256","label":"mapping(uint256 => string)","numberOfBytes":"32","value":"t_string_storage"},"t_string_storage":{"encoding":"bytes","label":"string","numberOfBytes":"32"},"t_uint256":{"encoding":"inplace","label":"uint256","numberOfBytes":"32"}}},"userdoc":{"kind":"user","methods":{},"version":1}}}}