{"contracts/Investments.sol":{"Investments":{"abi":[{"inputs":[{"internalType":"address","name":"nftAddress","type":"address"},{"internalType":"address","name":"reward_tokens","type":"address"}],"stateMutability":"nonpayable","type":"constructor"},{"anonymous":false,"inputs":[{"indexed":true,"internalType":"address","name":"investor","type":"address"},{"indexed":true,"internalType":"uint256","name":"assetId","type":"uint256"},{"indexed":true,"internalType":"uint256","name":"tokenId","type":"uint256"},{"indexed":false,"internalType":"uint256","name":"tokenAmount","type":"uint256"},{"indexed":false,"internalType":"uint256","name":"value","type":"uint256"}],"name":"LogInvestment","type":"event"},{"inputs":[],"name":"Reward_tokens","outputs":[{"internalType":"address","name":"","type":"address"}],"stateMutability":"view","type":"function"},{"inputs":[{"internalType":"uint256","name":"assetId","type":"uint256"}],"name":"getInvestmentDetails","outputs":[{"internalType":"uint256","name":"totalInvested","type":"uint256"},{"internalType":"uint256","name":"remainingFunding","type":"uint256"}],"stateMutability":"view","type":"function"},{"inputs":[{"internalType":"uint256","name":"assetId","type":"uint256"}],"name":"getInvestmentHistory","outputs":[{"internalType":"address[]","name":"investors","type":"address[]"},{"internalType":"uint256[]","name":"amounts","type":"uint256[]"},{"internalType":"uint256[][]","name":"tokenIds","type":"uint256[][]"},{"internalType":"uint256[][]","name":"tokenAmounts","type":"uint256[][]"}],"stateMutability":"view","type":"function"},{"inputs":[{"internalType":"address","name":"investor","type":"address"}],"name":"getInvestmentsByAddress","outputs":[{"internalType":"uint256[]","name":"assetIds","type":"uint256[]"},{"internalType":"uint256[]","name":"amounts","type":"uint256[]"},{"internalType":"uint256[][]","name":"tokenIds","type":"uint256[][]"},{"internalType":"uint256[][]","name":"tokenAmounts","type":"uint256[][]"}],"stateMutability":"view","type":"function"},{"inputs":[{"internalType":"uint256","name":"assetId","type":"uint256"},{"internalType":"address","name":"investor","type":"address"}],"name":"getInvestmentsByAddressInAsset","outputs":[{"internalType":"uint256","name":"amount","type":"uint256"},{"internalType":"uint256[]","name":"tokenIds","type":"uint256[]"},{"internalType":"uint256[]","name":"tokenAmounts","type":"uint256[]"}],"stateMutability":"view","type":"function"},{"inputs":[{"internalType":"uint256","name":"assetId","type":"uint256"},{"internalType":"uint256","name":"rewardTokenId","type":"uint256"},{"internalType":"uint256","name":"tokenAmount","type":"uint256"}],"name":"investAsset","outputs":[],"stateMutability":"payable","type":"function"},{"inputs":[],"name":"supervisor","outputs":[{"internalType":"address","name":"","type":"address"}],"stateMutability":"view","type":"function"}],"devdoc":{"kind":"dev","methods":{},"version":1},"evm":{"bytecode":{"linkReferences":{},"object":"60803461009857601f61155a38819003918201601f19168301916001600160401b0383118484101761009d57808492604094855283398101031261009857610052602061004b836100b3565b92016100b3565b600080546001600160a01b03199081166001600160a01b039485161790915560028054821633179055600180549091169190921617905560405161149290816100c88239f35b600080fd5b634e487b7160e01b600052604160045260246000fd5b51906001600160a01b03821682036100985756fe608080604052600436101561001357600080fd5b60009060e08235811c91826309b3da2b14610da75750816316bd19d414610b555781631e011b3e1461092d57816356e4b68b14610904578163af33062314610783578163bc4040d2146101f1575063ce7f35b41461007057600080fd5b346101ee57602090816003193601126101ee576004359160018060a01b0382541691604051634f558e7960e01b81528460048201528281602481875afa9081156101b657906100c69183916101c1575b50610edb565b604051631d591eb760e31b815260048101859052938185602481875afa9485156101b6578295610190575b508290602460405180968193630c0adb9160e41b835260048301525afa92831561018357819361014c575b5082826040950151818111600014610144576101389250611295565b905b8351928352820152f35b50509061013a565b9180935082813d831161017c575b6101648183610ea0565b810103126101775790519190604061011c565b600080fd5b503d61015a565b50604051903d90823e3d90fd5b839195506101af903d8085833e6101a78183610ea0565b810190610fb9565b94906100f1565b6040513d84823e3d90fd5b6101e19150843d86116101e7575b6101d98183610ea0565b810190610ec3565b386100c0565b503d6101cf565b80fd5b9050606036600319011261077f576044351561072e578154604051634f558e7960e01b815260048035908201526001600160a01b0390911690602081602481855afa801561070a576102499185916107155750610edb565b604051631d591eb760e31b81526004803590820152918383602481855afa92831561070a5784936106ee575b5061010083015160048110156106da576106965760405161029581610e5c565b60608152606060208201528460408201528460608201528460808201528460a08201529084908590865b8187018051805183101561068a5760a06102dc846024359361126b565b510151146102f357506102ee90611246565b6102bf565b92509495505061030792508391505161126b565b5160015b156106395760808101906044358251106105f6576060015160443581029080820460443514901517156105e25734036105a657839161034d6044358351611295565b809252833b156105a2576064908360405195869485936343d08af360e11b85526004356004860152602485015260448401525af180156101b657610593575b50805481906001600160a01b0316803b156104f957818091606460405180948193631e7d210960e21b835260043560048401523360248401523460448401525af180156101b65761057f575b509060018060a01b038154166040516307c9054760e01b815260043560048201528281602481855afa908115610574578391610552575b50825b815181101561054957336001600160a01b0361042e838561126b565b5116146104435761043e90611246565b610412565b505081925060015b156104fc575b5080546001600160a01b0316803b156104f9578180916084604051809481936368b3727760e11b83526004356004840152336024840152602435604484015260443560648401525af180156101b6576104e5575b50604051604435815234602082015260243590600435907ff85c915ce9c62984825f2ff42dc2ac372422bebf345a567590885dc78681325d60403392a480f35b6104ee90610e8d565b6101ee5780386104a5565b50fd5b803b156104f957816040518092635df1839160e11b82528183816105263360043560048401611323565b03925af180156101b657156104515761053e90610e8d565b6101ee578038610451565b5050819261044b565b61056e91503d8085833e6105668183610ea0565b8101906112a2565b3861040f565b6040513d85823e3d90fd5b61058890610e8d565b6101ee5780386103d8565b61059c90610e8d565b3861038c565b8280fd5b60405162461bcd60e51b8152602060048201526014602482015273125b98dbdc9c9958dd081d985b1d59481cd95b9d60621b6044820152606490fd5b634e487b7160e01b85526011600452602485fd5b60405162461bcd60e51b815260206004820152601b60248201527a4e6f7420656e6f75676820617661696c61626c6520746f6b656e7360281b6044820152606490fd5b60405162461bcd60e51b8152602060048201526024808201527f52657761726420646f6573206e6f7420657869737420666f72207468697320616044820152631cdcd95d60e21b6064820152608490fd5b5050505092935061030b565b606460405162461bcd60e51b815260206004820152602060248201527f50726f6a656374206973206e6f7420696e2053746172746564207374617475736044820152fd5b634e487b7160e01b85526021600452602485fd5b6107039193503d8086833e6101a78183610ea0565b9138610275565b6040513d86823e3d90fd5b6101e1915060203d6020116101e7576101d98183610ea0565b60405162461bcd60e51b815260206004820152602360248201527f546f6b656e20616d6f756e74206d75737420626520677265617465722074686160448201526206e20360ec1b6064820152608490fd5b5080fd5b82346101ee5760403660031901126101ee5760243590600435906001600160a01b03808416840361077f578154169260405193634f558e7960e01b85528360048601526020948581602481855afa90811561070a57906107e99185916108e75750610edb565b604051635dbf1c2d60e11b815293858580610808868560048401611323565b0381855afa94851561070a5784956108b2575b5060405163ebcab60560e01b81529392839285929091839182916108429160048401611323565b03915afa9182156101835790610886929181809361088a575b505061087890606060405196879687528601526060850190610dcc565b908382036040850152610dcc565b0390f35b61087893506108ab92503d8091833e6108a38183610ea0565b810190611416565b918661085b565b9094508581813d83116108e0575b6108ca8183610ea0565b810103126108dc57519361084261081b565b8380fd5b503d6108c0565b6108fe9150873d89116101e7576101d98183610ea0565b876100c0565b82346101ee57806003193601126101ee576002546040516001600160a01b039091168152602090f35b82346101ee57602090816003193601126101ee576004356001600160a01b03818116918290036105a25782541660405191633a79e15360e21b835260048301528282602481845afa918215610574578392610b10575b508151936109908561133c565b9361099a8661133c565b956109a48161136e565b936109ae8261136e565b95835b838110610a07576109de896108868a6109f98b8f8c6109eb9160405198899860808a5260808a0190610dcc565b9188830390890152610dcc565b908582036040870152610e00565b908382036060850152610e00565b610a11818361126b565b51604051635dbf1c2d60e11b8152878180610a326004358660048401611323565b0381885afa908115610ad4578791610adf575b50610a50838d61126b565b5260405163ebcab60560e01b8152868180610a716004358660048401611323565b0381885afa8015610ad45790610ab393929188918991610ab8575b50610a97848d61126b565b52610aa2838b61126b565b52610aad828c61126b565b52611246565b6109b1565b9050610ace91503d808a833e6108a38183610ea0565b8e610a8c565b6040513d89823e3d90fd5b90508781813d8311610b09575b610af68183610ea0565b81010312610b0557518c610a45565b8680fd5b503d610aec565b9091503d8084833e610b228183610ea0565b81019084818303126108dc578051906001600160401b038211610b5157610b4a9291016113b8565b9084610983565b8480fd5b82346101ee5760203660031901126101ee578054604051634f558e7960e01b815260048035908201526001600160a01b039291831690602081602481855afa9081156105745790610bac918491610d885750610edb565b6040516307c9054760e01b815260048035908201528281602481855afa908115610574578391610d6e575b50805190610be48261133c565b610bed8361136e565b92610bf78161136e565b94865b828110610c5a575050506040519460808601608087528351809152602060a088019401915b818110610c42578780610886896109f98a6109eb8b8b8782036020890152610dcc565b82518916855260209485019490920191600101610c1f565b88610c65828761126b565b5116604051635dbf1c2d60e11b815260208180610c888560043560048401611323565b0381875afa908115610d6357908a918291610d28575b5091610ccc92610cae858961126b565b526040518093819263ebcab60560e01b835260043560048401611323565b0381865afa8015610d1d5790610cfc92918a918b91610d01575b50610cf1838b61126b565b52610aad828961126b565b610bfa565b9050610d1791503d808c833e6108a38183610ea0565b8c610ce6565b6040513d8b823e3d90fd5b9150506020813d602011610d5b575b81610d4460209383610ea0565b81010312610d5757518990610ccc610c9e565b8980fd5b3d9150610d37565b6040513d8c823e3d90fd5b610d8291503d8085833e6105668183610ea0565b84610bd7565b610da1915060203d6020116101e7576101d98183610ea0565b856100c0565b83903461077f578160031936011261077f576001546001600160a01b03168152602090f35b90815180825260208080930193019160005b828110610dec575050505090565b835185529381019392810192600101610dde565b908082519081815260208091019281808460051b8301019501936000915b848310610e2e5750505050505090565b9091929394958480610e4c600193601f198682030187528a51610dcc565b9801930193019194939290610e1e565b60c081019081106001600160401b03821117610e7757604052565b634e487b7160e01b600052604160045260246000fd5b6001600160401b038111610e7757604052565b601f909101601f19168101906001600160401b03821190821017610e7757604052565b90816020910312610177575180151581036101775790565b15610ee257565b60405162461bcd60e51b8152602060048201526014602482015273105cdcd95d08191bd95cc81b9bdd08195e1a5cdd60621b6044820152606490fd5b919080601f84011215610177578251906001600160401b038211610e775760405191602091610f56601f8301601f1916840185610ea0565b8184528282870101116101775760005b818110610f7b57508260009394955001015290565b8581018301518482018401528201610f66565b6001600160401b038111610e775760051b60200190565b51906001600160a01b038216820361017757565b60209182828203126101775781516001600160401b03928382116101775701916101a093848484031261017757604092835195860186811084821117610e7757845284518652818501518287015283850151838111610177578161101e918701610f1e565b84870152606080860151848111610177578261103b918801610f1e565b818801526080808701518581116101775783611058918901610f1e565b8189015260a09081880151828a015260c09182890151838b015260e08901518781116101775789019285601f850112156101775783519261109884610f8e565b956110a58b519788610ea0565b848752888088019560051b8701019588871161017757898101955b8787106111b557505050505050505060e087015261010080860151906004821015610177578701526101206110f6818701610fa5565b90870152610140808601518481116101775782611114918801610f1e565b9087015261016092838601518181116101775786019082601f830112156101775781519061114d61114483610f8e565b97519788610ea0565b818752848088019260051b8401019380851161017757858401925b8584106111905750505050505050830152610180809101519060058210156101775782015290565b83518381116101775787916111aa848480948a0101610f1e565b815201930192611168565b86518c811161017757820185601f19828d030112610177578c918e516111da81610e5c565b8d830151938411610177578f8f948f8f906111f792870101610f1e565b8252830151938411610177578f838f95918f61121990888d9581990101610f1e565b86850152888201519084015288810151888401528a810151898401520151898201528152019601956110c0565b60001981146112555760010190565b634e487b7160e01b600052601160045260246000fd5b805182101561127f5760209160051b010190565b634e487b7160e01b600052603260045260246000fd5b9190820391821161125557565b6020908181840312610177578051906001600160401b03821161017757019180601f840112156101775782516112d781610f8e565b936112e56040519586610ea0565b818552838086019260051b820101928311610177578301905b82821061130c575050505090565b83809161131884610fa5565b8152019101906112fe565b9081526001600160a01b03909116602082015260400190565b9061134682610f8e565b6113536040519182610ea0565b8281528092611364601f1991610f8e565b0190602036910137565b9061137882610f8e565b6113856040519182610ea0565b8281528092611396601f1991610f8e565b019060005b8281106113a757505050565b80606060208093850101520161139b565b81601f82011215610177578051916113cf83610f8e565b926113dd6040519485610ea0565b808452602092838086019260051b820101928311610177578301905b828210611407575050505090565b815181529083019083016113f9565b9190916040818403126101775780516001600160401b03939084811161017757816114429184016113b8565b9360208301519081116101775761145992016113b8565b9056fea264697066735822122086a1d8be9730b5e466827830571e6ea7f455a35dcaf2df1becf79207756bb90364736f6c63430008130033","opcodes":"PUSH1 0x80 CALLVALUE PUSH2 0x98 JUMPI PUSH1 0x1F PUSH2 0x155A CODESIZE DUP2 SWAP1 SUB SWAP2 DUP3 ADD PUSH1 0x1F NOT AND DUP4 ADD SWAP2 PUSH1 0x1 PUSH1 0x1 PUSH1 0x40 SHL SUB DUP4 GT DUP5 DUP5 LT OR PUSH2 0x9D JUMPI DUP1 DUP5 SWAP3 PUSH1 0x40 SWAP5 DUP6 MSTORE DUP4 CODECOPY DUP2 ADD SUB SLT PUSH2 0x98 JUMPI PUSH2 0x52 PUSH1 0x20 PUSH2 0x4B DUP4 PUSH2 0xB3 JUMP JUMPDEST SWAP3 ADD PUSH2 0xB3 JUMP JUMPDEST PUSH1 0x0 DUP1 SLOAD PUSH1 0x1 PUSH1 0x1 PUSH1 0xA0 SHL SUB NOT SWAP1 DUP2 AND PUSH1 0x1 PUSH1 0x1 PUSH1 0xA0 SHL SUB SWAP5 DUP6 AND OR SWAP1 SWAP2 SSTORE PUSH1 0x2 DUP1 SLOAD DUP3 AND CALLER OR SWAP1 SSTORE PUSH1 0x1 DUP1 SLOAD SWAP1 SWAP2 AND SWAP2 SWAP1 SWAP3 AND OR SWAP1 SSTORE PUSH1 0x40 MLOAD PUSH2 0x1492 SWAP1 DUP2 PUSH2 0xC8 DUP3 CODECOPY RETURN JUMPDEST PUSH1 0x0 DUP1 REVERT JUMPDEST PUSH4 0x4E487B71 PUSH1 0xE0 SHL PUSH1 0x0 MSTORE PUSH1 0x41 PUSH1 0x4 MSTORE PUSH1 0x24 PUSH1 0x0 REVERT JUMPDEST MLOAD SWAP1 PUSH1 0x1 PUSH1 0x1 PUSH1 0xA0 SHL SUB DUP3 AND DUP3 SUB PUSH2 0x98 JUMPI JUMP INVALID PUSH1 0x80 DUP1 PUSH1 0x40 MSTORE PUSH1 0x4 CALLDATASIZE LT ISZERO PUSH2 0x13 JUMPI PUSH1 0x0 DUP1 REVERT JUMPDEST PUSH1 0x0 SWAP1 PUSH1 0xE0 DUP3 CALLDATALOAD DUP2 SHR SWAP2 DUP3 PUSH4 0x9B3DA2B EQ PUSH2 0xDA7 JUMPI POP DUP2 PUSH4 0x16BD19D4 EQ PUSH2 0xB55 JUMPI DUP2 PUSH4 0x1E011B3E EQ PUSH2 0x92D JUMPI DUP2 PUSH4 0x56E4B68B EQ PUSH2 0x904 JUMPI DUP2 PUSH4 0xAF330623 EQ PUSH2 0x783 JUMPI DUP2 PUSH4 0xBC4040D2 EQ PUSH2 0x1F1 JUMPI POP PUSH4 0xCE7F35B4 EQ PUSH2 0x70 JUMPI PUSH1 0x0 DUP1 REVERT JUMPDEST CALLVALUE PUSH2 0x1EE JUMPI PUSH1 0x20 SWAP1 DUP2 PUSH1 0x3 NOT CALLDATASIZE ADD SLT PUSH2 0x1EE JUMPI PUSH1 0x4 CALLDATALOAD SWAP2 PUSH1 0x1 DUP1 PUSH1 0xA0 SHL SUB DUP3 SLOAD AND SWAP2 PUSH1 0x40 MLOAD PUSH4 0x4F558E79 PUSH1 0xE0 SHL DUP2 MSTORE DUP5 PUSH1 0x4 DUP3 ADD MSTORE DUP3 DUP2 PUSH1 0x24 DUP2 DUP8 GAS STATICCALL SWAP1 DUP2 ISZERO PUSH2 0x1B6 JUMPI SWAP1 PUSH2 0xC6 SWAP2 DUP4 SWAP2 PUSH2 0x1C1 JUMPI JUMPDEST POP PUSH2 0xEDB JUMP JUMPDEST PUSH1 0x40 MLOAD PUSH4 0x1D591EB7 PUSH1 0xE3 SHL DUP2 MSTORE PUSH1 0x4 DUP2 ADD DUP6 SWAP1 MSTORE SWAP4 DUP2 DUP6 PUSH1 0x24 DUP2 DUP8 GAS STATICCALL SWAP5 DUP6 ISZERO PUSH2 0x1B6 JUMPI DUP3 SWAP6 PUSH2 0x190 JUMPI JUMPDEST POP DUP3 SWAP1 PUSH1 0x24 PUSH1 0x40 MLOAD DUP1 SWAP7 DUP2 SWAP4 PUSH4 0xC0ADB91 PUSH1 0xE4 SHL DUP4 MSTORE PUSH1 0x4 DUP4 ADD MSTORE GAS STATICCALL SWAP3 DUP4 ISZERO PUSH2 0x183 JUMPI DUP2 SWAP4 PUSH2 0x14C JUMPI JUMPDEST POP DUP3 DUP3 PUSH1 0x40 SWAP6 ADD MLOAD DUP2 DUP2 GT PUSH1 0x0 EQ PUSH2 0x144 JUMPI PUSH2 0x138 SWAP3 POP PUSH2 0x1295 JUMP JUMPDEST SWAP1 JUMPDEST DUP4 MLOAD SWAP3 DUP4 MSTORE DUP3 ADD MSTORE RETURN JUMPDEST POP POP SWAP1 PUSH2 0x13A JUMP JUMPDEST SWAP2 DUP1 SWAP4 POP DUP3 DUP2 RETURNDATASIZE DUP4 GT PUSH2 0x17C JUMPI JUMPDEST PUSH2 0x164 DUP2 DUP4 PUSH2 0xEA0 JUMP JUMPDEST DUP2 ADD SUB SLT PUSH2 0x177 JUMPI SWAP1 MLOAD SWAP2 SWAP1 PUSH1 0x40 PUSH2 0x11C JUMP JUMPDEST PUSH1 0x0 DUP1 REVERT JUMPDEST POP RETURNDATASIZE PUSH2 0x15A JUMP JUMPDEST POP PUSH1 0x40 MLOAD SWAP1 RETURNDATASIZE SWAP1 DUP3 RETURNDATACOPY RETURNDATASIZE SWAP1 REVERT JUMPDEST DUP4 SWAP2 SWAP6 POP PUSH2 0x1AF SWAP1 RETURNDATASIZE DUP1 DUP6 DUP4 RETURNDATACOPY PUSH2 0x1A7 DUP2 DUP4 PUSH2 0xEA0 JUMP JUMPDEST DUP2 ADD SWAP1 PUSH2 0xFB9 JUMP JUMPDEST SWAP5 SWAP1 PUSH2 0xF1 JUMP JUMPDEST PUSH1 0x40 MLOAD RETURNDATASIZE DUP5 DUP3 RETURNDATACOPY RETURNDATASIZE SWAP1 REVERT JUMPDEST PUSH2 0x1E1 SWAP2 POP DUP5 RETURNDATASIZE DUP7 GT PUSH2 0x1E7 JUMPI JUMPDEST PUSH2 0x1D9 DUP2 DUP4 PUSH2 0xEA0 JUMP JUMPDEST DUP2 ADD SWAP1 PUSH2 0xEC3 JUMP JUMPDEST CODESIZE PUSH2 0xC0 JUMP JUMPDEST POP RETURNDATASIZE PUSH2 0x1CF JUMP JUMPDEST DUP1 REVERT JUMPDEST SWAP1 POP PUSH1 0x60 CALLDATASIZE PUSH1 0x3 NOT ADD SLT PUSH2 0x77F JUMPI PUSH1 0x44 CALLDATALOAD ISZERO PUSH2 0x72E JUMPI DUP2 SLOAD PUSH1 0x40 MLOAD PUSH4 0x4F558E79 PUSH1 0xE0 SHL DUP2 MSTORE PUSH1 0x4 DUP1 CALLDATALOAD SWAP1 DUP3 ADD MSTORE PUSH1 0x1 PUSH1 0x1 PUSH1 0xA0 SHL SUB SWAP1 SWAP2 AND SWAP1 PUSH1 0x20 DUP2 PUSH1 0x24 DUP2 DUP6 GAS STATICCALL DUP1 ISZERO PUSH2 0x70A JUMPI PUSH2 0x249 SWAP2 DUP6 SWAP2 PUSH2 0x715 JUMPI POP PUSH2 0xEDB JUMP JUMPDEST PUSH1 0x40 MLOAD PUSH4 0x1D591EB7 PUSH1 0xE3 SHL DUP2 MSTORE PUSH1 0x4 DUP1 CALLDATALOAD SWAP1 DUP3 ADD MSTORE SWAP2 DUP4 DUP4 PUSH1 0x24 DUP2 DUP6 GAS STATICCALL SWAP3 DUP4 ISZERO PUSH2 0x70A JUMPI DUP5 SWAP4 PUSH2 0x6EE JUMPI JUMPDEST POP PUSH2 0x100 DUP4 ADD MLOAD PUSH1 0x4 DUP2 LT ISZERO PUSH2 0x6DA JUMPI PUSH2 0x696 JUMPI PUSH1 0x40 MLOAD PUSH2 0x295 DUP2 PUSH2 0xE5C JUMP JUMPDEST PUSH1 0x60 DUP2 MSTORE PUSH1 0x60 PUSH1 0x20 DUP3 ADD MSTORE DUP5 PUSH1 0x40 DUP3 ADD MSTORE DUP5 PUSH1 0x60 DUP3 ADD MSTORE DUP5 PUSH1 0x80 DUP3 ADD MSTORE DUP5 PUSH1 0xA0 DUP3 ADD MSTORE SWAP1 DUP5 SWAP1 DUP6 SWAP1 DUP7 JUMPDEST DUP2 DUP8 ADD DUP1 MLOAD DUP1 MLOAD DUP4 LT ISZERO PUSH2 0x68A JUMPI PUSH1 0xA0 PUSH2 0x2DC DUP5 PUSH1 0x24 CALLDATALOAD SWAP4 PUSH2 0x126B JUMP JUMPDEST MLOAD ADD MLOAD EQ PUSH2 0x2F3 JUMPI POP PUSH2 0x2EE SWAP1 PUSH2 0x1246 JUMP JUMPDEST PUSH2 0x2BF JUMP JUMPDEST SWAP3 POP SWAP5 SWAP6 POP POP PUSH2 0x307 SWAP3 POP DUP4 SWAP2 POP MLOAD PUSH2 0x126B JUMP JUMPDEST MLOAD PUSH1 0x1 JUMPDEST ISZERO PUSH2 0x639 JUMPI PUSH1 0x80 DUP2 ADD SWAP1 PUSH1 0x44 CALLDATALOAD DUP3 MLOAD LT PUSH2 0x5F6 JUMPI PUSH1 0x60 ADD MLOAD PUSH1 0x44 CALLDATALOAD DUP2 MUL SWAP1 DUP1 DUP3 DIV PUSH1 0x44 CALLDATALOAD EQ SWAP1 ISZERO OR ISZERO PUSH2 0x5E2 JUMPI CALLVALUE SUB PUSH2 0x5A6 JUMPI DUP4 SWAP2 PUSH2 0x34D PUSH1 0x44 CALLDATALOAD DUP4 MLOAD PUSH2 0x1295 JUMP JUMPDEST DUP1 SWAP3 MSTORE DUP4 EXTCODESIZE ISZERO PUSH2 0x5A2 JUMPI PUSH1 0x64 SWAP1 DUP4 PUSH1 0x40 MLOAD SWAP6 DUP7 SWAP5 DUP6 SWAP4 PUSH4 0x43D08AF3 PUSH1 0xE1 SHL DUP6 MSTORE PUSH1 0x4 CALLDATALOAD PUSH1 0x4 DUP7 ADD MSTORE PUSH1 0x24 DUP6 ADD MSTORE PUSH1 0x44 DUP5 ADD MSTORE GAS CALL DUP1 ISZERO PUSH2 0x1B6 JUMPI PUSH2 0x593 JUMPI JUMPDEST POP DUP1 SLOAD DUP2 SWAP1 PUSH1 0x1 PUSH1 0x1 PUSH1 0xA0 SHL SUB AND DUP1 EXTCODESIZE ISZERO PUSH2 0x4F9 JUMPI DUP2 DUP1 SWAP2 PUSH1 0x64 PUSH1 0x40 MLOAD DUP1 SWAP5 DUP2 SWAP4 PUSH4 0x1E7D2109 PUSH1 0xE2 SHL DUP4 MSTORE PUSH1 0x4 CALLDATALOAD PUSH1 0x4 DUP5 ADD MSTORE CALLER PUSH1 0x24 DUP5 ADD MSTORE CALLVALUE PUSH1 0x44 DUP5 ADD MSTORE GAS CALL DUP1 ISZERO PUSH2 0x1B6 JUMPI PUSH2 0x57F JUMPI JUMPDEST POP SWAP1 PUSH1 0x1 DUP1 PUSH1 0xA0 SHL SUB DUP2 SLOAD AND PUSH1 0x40 MLOAD PUSH4 0x7C90547 PUSH1 0xE0 SHL DUP2 MSTORE PUSH1 0x4 CALLDATALOAD PUSH1 0x4 DUP3 ADD MSTORE DUP3 DUP2 PUSH1 0x24 DUP2 DUP6 GAS STATICCALL SWAP1 DUP2 ISZERO PUSH2 0x574 JUMPI DUP4 SWAP2 PUSH2 0x552 JUMPI JUMPDEST POP DUP3 JUMPDEST DUP2 MLOAD DUP2 LT ISZERO PUSH2 0x549 JUMPI CALLER PUSH1 0x1 PUSH1 0x1 PUSH1 0xA0 SHL SUB PUSH2 0x42E DUP4 DUP6 PUSH2 0x126B JUMP JUMPDEST MLOAD AND EQ PUSH2 0x443 JUMPI PUSH2 0x43E SWAP1 PUSH2 0x1246 JUMP JUMPDEST PUSH2 0x412 JUMP JUMPDEST POP POP DUP2 SWAP3 POP PUSH1 0x1 JUMPDEST ISZERO PUSH2 0x4FC JUMPI JUMPDEST POP DUP1 SLOAD PUSH1 0x1 PUSH1 0x1 PUSH1 0xA0 SHL SUB AND DUP1 EXTCODESIZE ISZERO PUSH2 0x4F9 JUMPI DUP2 DUP1 SWAP2 PUSH1 0x84 PUSH1 0x40 MLOAD DUP1 SWAP5 DUP2 SWAP4 PUSH4 0x68B37277 PUSH1 0xE1 SHL DUP4 MSTORE PUSH1 0x4 CALLDATALOAD PUSH1 0x4 DUP5 ADD MSTORE CALLER PUSH1 0x24 DUP5 ADD MSTORE PUSH1 0x24 CALLDATALOAD PUSH1 0x44 DUP5 ADD MSTORE PUSH1 0x44 CALLDATALOAD PUSH1 0x64 DUP5 ADD MSTORE GAS CALL DUP1 ISZERO PUSH2 0x1B6 JUMPI PUSH2 0x4E5 JUMPI JUMPDEST POP PUSH1 0x40 MLOAD PUSH1 0x44 CALLDATALOAD DUP2 MSTORE CALLVALUE PUSH1 0x20 DUP3 ADD MSTORE PUSH1 0x24 CALLDATALOAD SWAP1 PUSH1 0x4 CALLDATALOAD SWAP1 PUSH32 0xF85C915CE9C62984825F2FF42DC2AC372422BEBF345A567590885DC78681325D PUSH1 0x40 CALLER SWAP3 LOG4 DUP1 RETURN JUMPDEST PUSH2 0x4EE SWAP1 PUSH2 0xE8D JUMP JUMPDEST PUSH2 0x1EE JUMPI DUP1 CODESIZE PUSH2 0x4A5 JUMP JUMPDEST POP REVERT JUMPDEST DUP1 EXTCODESIZE ISZERO PUSH2 0x4F9 JUMPI DUP2 PUSH1 0x40 MLOAD DUP1 SWAP3 PUSH4 0x5DF18391 PUSH1 0xE1 SHL DUP3 MSTORE DUP2 DUP4 DUP2 PUSH2 0x526 CALLER PUSH1 0x4 CALLDATALOAD PUSH1 0x4 DUP5 ADD PUSH2 0x1323 JUMP JUMPDEST SUB SWAP3 GAS CALL DUP1 ISZERO PUSH2 0x1B6 JUMPI ISZERO PUSH2 0x451 JUMPI PUSH2 0x53E SWAP1 PUSH2 0xE8D JUMP JUMPDEST PUSH2 0x1EE JUMPI DUP1 CODESIZE PUSH2 0x451 JUMP JUMPDEST POP POP DUP2 SWAP3 PUSH2 0x44B JUMP JUMPDEST PUSH2 0x56E SWAP2 POP RETURNDATASIZE DUP1 DUP6 DUP4 RETURNDATACOPY PUSH2 0x566 DUP2 DUP4 PUSH2 0xEA0 JUMP JUMPDEST DUP2 ADD SWAP1 PUSH2 0x12A2 JUMP JUMPDEST CODESIZE PUSH2 0x40F JUMP JUMPDEST PUSH1 0x40 MLOAD RETURNDATASIZE DUP6 DUP3 RETURNDATACOPY RETURNDATASIZE SWAP1 REVERT JUMPDEST PUSH2 0x588 SWAP1 PUSH2 0xE8D JUMP JUMPDEST PUSH2 0x1EE JUMPI DUP1 CODESIZE PUSH2 0x3D8 JUMP JUMPDEST PUSH2 0x59C SWAP1 PUSH2 0xE8D JUMP JUMPDEST CODESIZE PUSH2 0x38C JUMP JUMPDEST DUP3 DUP1 REVERT JUMPDEST PUSH1 0x40 MLOAD PUSH3 0x461BCD PUSH1 0xE5 SHL DUP2 MSTORE PUSH1 0x20 PUSH1 0x4 DUP3 ADD MSTORE PUSH1 0x14 PUSH1 0x24 DUP3 ADD MSTORE PUSH20 0x125B98DBDC9C9958DD081D985B1D59481CD95B9D PUSH1 0x62 SHL PUSH1 0x44 DUP3 ADD MSTORE PUSH1 0x64 SWAP1 REVERT JUMPDEST PUSH4 0x4E487B71 PUSH1 0xE0 SHL DUP6 MSTORE PUSH1 0x11 PUSH1 0x4 MSTORE PUSH1 0x24 DUP6 REVERT JUMPDEST PUSH1 0x40 MLOAD PUSH3 0x461BCD PUSH1 0xE5 SHL DUP2 MSTORE PUSH1 0x20 PUSH1 0x4 DUP3 ADD MSTORE PUSH1 0x1B PUSH1 0x24 DUP3 ADD MSTORE PUSH27 0x4E6F7420656E6F75676820617661696C61626C6520746F6B656E73 PUSH1 0x28 SHL PUSH1 0x44 DUP3 ADD MSTORE PUSH1 0x64 SWAP1 REVERT JUMPDEST PUSH1 0x40 MLOAD PUSH3 0x461BCD PUSH1 0xE5 SHL DUP2 MSTORE PUSH1 0x20 PUSH1 0x4 DUP3 ADD MSTORE PUSH1 0x24 DUP1 DUP3 ADD MSTORE PUSH32 0x52657761726420646F6573206E6F7420657869737420666F7220746869732061 PUSH1 0x44 DUP3 ADD MSTORE PUSH4 0x1CDCD95D PUSH1 0xE2 SHL PUSH1 0x64 DUP3 ADD MSTORE PUSH1 0x84 SWAP1 REVERT JUMPDEST POP POP POP POP SWAP3 SWAP4 POP PUSH2 0x30B JUMP JUMPDEST PUSH1 0x64 PUSH1 0x40 MLOAD PUSH3 0x461BCD PUSH1 0xE5 SHL DUP2 MSTORE PUSH1 0x20 PUSH1 0x4 DUP3 ADD MSTORE PUSH1 0x20 PUSH1 0x24 DUP3 ADD MSTORE PUSH32 0x50726F6A656374206973206E6F7420696E205374617274656420737461747573 PUSH1 0x44 DUP3 ADD MSTORE REVERT JUMPDEST PUSH4 0x4E487B71 PUSH1 0xE0 SHL DUP6 MSTORE PUSH1 0x21 PUSH1 0x4 MSTORE PUSH1 0x24 DUP6 REVERT JUMPDEST PUSH2 0x703 SWAP2 SWAP4 POP RETURNDATASIZE DUP1 DUP7 DUP4 RETURNDATACOPY PUSH2 0x1A7 DUP2 DUP4 PUSH2 0xEA0 JUMP JUMPDEST SWAP2 CODESIZE PUSH2 0x275 JUMP JUMPDEST PUSH1 0x40 MLOAD RETURNDATASIZE DUP7 DUP3 RETURNDATACOPY RETURNDATASIZE SWAP1 REVERT JUMPDEST PUSH2 0x1E1 SWAP2 POP PUSH1 0x20 RETURNDATASIZE PUSH1 0x20 GT PUSH2 0x1E7 JUMPI PUSH2 0x1D9 DUP2 DUP4 PUSH2 0xEA0 JUMP JUMPDEST PUSH1 0x40 MLOAD PUSH3 0x461BCD PUSH1 0xE5 SHL DUP2 MSTORE PUSH1 0x20 PUSH1 0x4 DUP3 ADD MSTORE PUSH1 0x23 PUSH1 0x24 DUP3 ADD MSTORE PUSH32 0x546F6B656E20616D6F756E74206D757374206265206772656174657220746861 PUSH1 0x44 DUP3 ADD MSTORE PUSH3 0x6E203 PUSH1 0xEC SHL PUSH1 0x64 DUP3 ADD MSTORE PUSH1 0x84 SWAP1 REVERT JUMPDEST POP DUP1 REVERT JUMPDEST DUP3 CALLVALUE PUSH2 0x1EE JUMPI PUSH1 0x40 CALLDATASIZE PUSH1 0x3 NOT ADD SLT PUSH2 0x1EE JUMPI PUSH1 0x24 CALLDATALOAD SWAP1 PUSH1 0x4 CALLDATALOAD SWAP1 PUSH1 0x1 PUSH1 0x1 PUSH1 0xA0 SHL SUB DUP1 DUP5 AND DUP5 SUB PUSH2 0x77F JUMPI DUP2 SLOAD AND SWAP3 PUSH1 0x40 MLOAD SWAP4 PUSH4 0x4F558E79 PUSH1 0xE0 SHL DUP6 MSTORE DUP4 PUSH1 0x4 DUP7 ADD MSTORE PUSH1 0x20 SWAP5 DUP6 DUP2 PUSH1 0x24 DUP2 DUP6 GAS STATICCALL SWAP1 DUP2 ISZERO PUSH2 0x70A JUMPI SWAP1 PUSH2 0x7E9 SWAP2 DUP6 SWAP2 PUSH2 0x8E7 JUMPI POP PUSH2 0xEDB JUMP JUMPDEST PUSH1 0x40 MLOAD PUSH4 0x5DBF1C2D PUSH1 0xE1 SHL DUP2 MSTORE SWAP4 DUP6 DUP6 DUP1 PUSH2 0x808 DUP7 DUP6 PUSH1 0x4 DUP5 ADD PUSH2 0x1323 JUMP JUMPDEST SUB DUP2 DUP6 GAS STATICCALL SWAP5 DUP6 ISZERO PUSH2 0x70A JUMPI DUP5 SWAP6 PUSH2 0x8B2 JUMPI JUMPDEST POP PUSH1 0x40 MLOAD PUSH4 0xEBCAB605 PUSH1 0xE0 SHL DUP2 MSTORE SWAP4 SWAP3 DUP4 SWAP3 DUP6 SWAP3 SWAP1 SWAP2 DUP4 SWAP2 DUP3 SWAP2 PUSH2 0x842 SWAP2 PUSH1 0x4 DUP5 ADD PUSH2 0x1323 JUMP JUMPDEST SUB SWAP2 GAS STATICCALL SWAP2 DUP3 ISZERO PUSH2 0x183 JUMPI SWAP1 PUSH2 0x886 SWAP3 SWAP2 DUP2 DUP1 SWAP4 PUSH2 0x88A JUMPI JUMPDEST POP POP PUSH2 0x878 SWAP1 PUSH1 0x60 PUSH1 0x40 MLOAD SWAP7 DUP8 SWAP7 DUP8 MSTORE DUP7 ADD MSTORE PUSH1 0x60 DUP6 ADD SWAP1 PUSH2 0xDCC JUMP JUMPDEST SWAP1 DUP4 DUP3 SUB PUSH1 0x40 DUP6 ADD MSTORE PUSH2 0xDCC JUMP JUMPDEST SUB SWAP1 RETURN JUMPDEST PUSH2 0x878 SWAP4 POP PUSH2 0x8AB SWAP3 POP RETURNDATASIZE DUP1 SWAP2 DUP4 RETURNDATACOPY PUSH2 0x8A3 DUP2 DUP4 PUSH2 0xEA0 JUMP JUMPDEST DUP2 ADD SWAP1 PUSH2 0x1416 JUMP JUMPDEST SWAP2 DUP7 PUSH2 0x85B JUMP JUMPDEST SWAP1 SWAP5 POP DUP6 DUP2 DUP2 RETURNDATASIZE DUP4 GT PUSH2 0x8E0 JUMPI JUMPDEST PUSH2 0x8CA DUP2 DUP4 PUSH2 0xEA0 JUMP JUMPDEST DUP2 ADD SUB SLT PUSH2 0x8DC JUMPI MLOAD SWAP4 PUSH2 0x842 PUSH2 0x81B JUMP JUMPDEST DUP4 DUP1 REVERT JUMPDEST POP RETURNDATASIZE PUSH2 0x8C0 JUMP JUMPDEST PUSH2 0x8FE SWAP2 POP DUP8 RETURNDATASIZE DUP10 GT PUSH2 0x1E7 JUMPI PUSH2 0x1D9 DUP2 DUP4 PUSH2 0xEA0 JUMP JUMPDEST DUP8 PUSH2 0xC0 JUMP JUMPDEST DUP3 CALLVALUE PUSH2 0x1EE JUMPI DUP1 PUSH1 0x3 NOT CALLDATASIZE ADD SLT PUSH2 0x1EE JUMPI PUSH1 0x2 SLOAD PUSH1 0x40 MLOAD PUSH1 0x1 PUSH1 0x1 PUSH1 0xA0 SHL SUB SWAP1 SWAP2 AND DUP2 MSTORE PUSH1 0x20 SWAP1 RETURN JUMPDEST DUP3 CALLVALUE PUSH2 0x1EE JUMPI PUSH1 0x20 SWAP1 DUP2 PUSH1 0x3 NOT CALLDATASIZE ADD SLT PUSH2 0x1EE JUMPI PUSH1 0x4 CALLDATALOAD PUSH1 0x1 PUSH1 0x1 PUSH1 0xA0 SHL SUB DUP2 DUP2 AND SWAP2 DUP3 SWAP1 SUB PUSH2 0x5A2 JUMPI DUP3 SLOAD AND PUSH1 0x40 MLOAD SWAP2 PUSH4 0x3A79E153 PUSH1 0xE2 SHL DUP4 MSTORE PUSH1 0x4 DUP4 ADD MSTORE DUP3 DUP3 PUSH1 0x24 DUP2 DUP5 GAS STATICCALL SWAP2 DUP3 ISZERO PUSH2 0x574 JUMPI DUP4 SWAP3 PUSH2 0xB10 JUMPI JUMPDEST POP DUP2 MLOAD SWAP4 PUSH2 0x990 DUP6 PUSH2 0x133C JUMP JUMPDEST SWAP4 PUSH2 0x99A DUP7 PUSH2 0x133C JUMP JUMPDEST SWAP6 PUSH2 0x9A4 DUP2 PUSH2 0x136E JUMP JUMPDEST SWAP4 PUSH2 0x9AE DUP3 PUSH2 0x136E JUMP JUMPDEST SWAP6 DUP4 JUMPDEST DUP4 DUP2 LT PUSH2 0xA07 JUMPI PUSH2 0x9DE DUP10 PUSH2 0x886 DUP11 PUSH2 0x9F9 DUP12 DUP16 DUP13 PUSH2 0x9EB SWAP2 PUSH1 0x40 MLOAD SWAP9 DUP10 SWAP9 PUSH1 0x80 DUP11 MSTORE PUSH1 0x80 DUP11 ADD SWAP1 PUSH2 0xDCC JUMP JUMPDEST SWAP2 DUP9 DUP4 SUB SWAP1 DUP10 ADD MSTORE PUSH2 0xDCC JUMP JUMPDEST SWAP1 DUP6 DUP3 SUB PUSH1 0x40 DUP8 ADD MSTORE PUSH2 0xE00 JUMP JUMPDEST SWAP1 DUP4 DUP3 SUB PUSH1 0x60 DUP6 ADD MSTORE PUSH2 0xE00 JUMP JUMPDEST PUSH2 0xA11 DUP2 DUP4 PUSH2 0x126B JUMP JUMPDEST MLOAD PUSH1 0x40 MLOAD PUSH4 0x5DBF1C2D PUSH1 0xE1 SHL DUP2 MSTORE DUP8 DUP2 DUP1 PUSH2 0xA32 PUSH1 0x4 CALLDATALOAD DUP7 PUSH1 0x4 DUP5 ADD PUSH2 0x1323 JUMP JUMPDEST SUB DUP2 DUP9 GAS STATICCALL SWAP1 DUP2 ISZERO PUSH2 0xAD4 JUMPI DUP8 SWAP2 PUSH2 0xADF JUMPI JUMPDEST POP PUSH2 0xA50 DUP4 DUP14 PUSH2 0x126B JUMP JUMPDEST MSTORE PUSH1 0x40 MLOAD PUSH4 0xEBCAB605 PUSH1 0xE0 SHL DUP2 MSTORE DUP7 DUP2 DUP1 PUSH2 0xA71 PUSH1 0x4 CALLDATALOAD DUP7 PUSH1 0x4 DUP5 ADD PUSH2 0x1323 JUMP JUMPDEST SUB DUP2 DUP9 GAS STATICCALL DUP1 ISZERO PUSH2 0xAD4 JUMPI SWAP1 PUSH2 0xAB3 SWAP4 SWAP3 SWAP2 DUP9 SWAP2 DUP10 SWAP2 PUSH2 0xAB8 JUMPI JUMPDEST POP PUSH2 0xA97 DUP5 DUP14 PUSH2 0x126B JUMP JUMPDEST MSTORE PUSH2 0xAA2 DUP4 DUP12 PUSH2 0x126B JUMP JUMPDEST MSTORE PUSH2 0xAAD DUP3 DUP13 PUSH2 0x126B JUMP JUMPDEST MSTORE PUSH2 0x1246 JUMP JUMPDEST PUSH2 0x9B1 JUMP JUMPDEST SWAP1 POP PUSH2 0xACE SWAP2 POP RETURNDATASIZE DUP1 DUP11 DUP4 RETURNDATACOPY PUSH2 0x8A3 DUP2 DUP4 PUSH2 0xEA0 JUMP JUMPDEST DUP15 PUSH2 0xA8C JUMP JUMPDEST PUSH1 0x40 MLOAD RETURNDATASIZE DUP10 DUP3 RETURNDATACOPY RETURNDATASIZE SWAP1 REVERT JUMPDEST SWAP1 POP DUP8 DUP2 DUP2 RETURNDATASIZE DUP4 GT PUSH2 0xB09 JUMPI JUMPDEST PUSH2 0xAF6 DUP2 DUP4 PUSH2 0xEA0 JUMP JUMPDEST DUP2 ADD SUB SLT PUSH2 0xB05 JUMPI MLOAD DUP13 PUSH2 0xA45 JUMP JUMPDEST DUP7 DUP1 REVERT JUMPDEST POP RETURNDATASIZE PUSH2 0xAEC JUMP JUMPDEST SWAP1 SWAP2 POP RETURNDATASIZE DUP1 DUP5 DUP4 RETURNDATACOPY PUSH2 0xB22 DUP2 DUP4 PUSH2 0xEA0 JUMP JUMPDEST DUP2 ADD SWAP1 DUP5 DUP2 DUP4 SUB SLT PUSH2 0x8DC JUMPI DUP1 MLOAD SWAP1 PUSH1 0x1 PUSH1 0x1 PUSH1 0x40 SHL SUB DUP3 GT PUSH2 0xB51 JUMPI PUSH2 0xB4A SWAP3 SWAP2 ADD PUSH2 0x13B8 JUMP JUMPDEST SWAP1 DUP5 PUSH2 0x983 JUMP JUMPDEST DUP5 DUP1 REVERT JUMPDEST DUP3 CALLVALUE PUSH2 0x1EE JUMPI PUSH1 0x20 CALLDATASIZE PUSH1 0x3 NOT ADD SLT PUSH2 0x1EE JUMPI DUP1 SLOAD PUSH1 0x40 MLOAD PUSH4 0x4F558E79 PUSH1 0xE0 SHL DUP2 MSTORE PUSH1 0x4 DUP1 CALLDATALOAD SWAP1 DUP3 ADD MSTORE PUSH1 0x1 PUSH1 0x1 PUSH1 0xA0 SHL SUB SWAP3 SWAP2 DUP4 AND SWAP1 PUSH1 0x20 DUP2 PUSH1 0x24 DUP2 DUP6 GAS STATICCALL SWAP1 DUP2 ISZERO PUSH2 0x574 JUMPI SWAP1 PUSH2 0xBAC SWAP2 DUP5 SWAP2 PUSH2 0xD88 JUMPI POP PUSH2 0xEDB JUMP JUMPDEST PUSH1 0x40 MLOAD PUSH4 0x7C90547 PUSH1 0xE0 SHL DUP2 MSTORE PUSH1 0x4 DUP1 CALLDATALOAD SWAP1 DUP3 ADD MSTORE DUP3 DUP2 PUSH1 0x24 DUP2 DUP6 GAS STATICCALL SWAP1 DUP2 ISZERO PUSH2 0x574 JUMPI DUP4 SWAP2 PUSH2 0xD6E JUMPI JUMPDEST POP DUP1 MLOAD SWAP1 PUSH2 0xBE4 DUP3 PUSH2 0x133C JUMP JUMPDEST PUSH2 0xBED DUP4 PUSH2 0x136E JUMP JUMPDEST SWAP3 PUSH2 0xBF7 DUP2 PUSH2 0x136E JUMP JUMPDEST SWAP5 DUP7 JUMPDEST DUP3 DUP2 LT PUSH2 0xC5A JUMPI POP POP POP PUSH1 0x40 MLOAD SWAP5 PUSH1 0x80 DUP7 ADD PUSH1 0x80 DUP8 MSTORE DUP4 MLOAD DUP1 SWAP2 MSTORE PUSH1 0x20 PUSH1 0xA0 DUP9 ADD SWAP5 ADD SWAP2 JUMPDEST DUP2 DUP2 LT PUSH2 0xC42 JUMPI DUP8 DUP1 PUSH2 0x886 DUP10 PUSH2 0x9F9 DUP11 PUSH2 0x9EB DUP12 DUP12 DUP8 DUP3 SUB PUSH1 0x20 DUP10 ADD MSTORE PUSH2 0xDCC JUMP JUMPDEST DUP3 MLOAD DUP10 AND DUP6 MSTORE PUSH1 0x20 SWAP5 DUP6 ADD SWAP5 SWAP1 SWAP3 ADD SWAP2 PUSH1 0x1 ADD PUSH2 0xC1F JUMP JUMPDEST DUP9 PUSH2 0xC65 DUP3 DUP8 PUSH2 0x126B JUMP JUMPDEST MLOAD AND PUSH1 0x40 MLOAD PUSH4 0x5DBF1C2D PUSH1 0xE1 SHL DUP2 MSTORE PUSH1 0x20 DUP2 DUP1 PUSH2 0xC88 DUP6 PUSH1 0x4 CALLDATALOAD PUSH1 0x4 DUP5 ADD PUSH2 0x1323 JUMP JUMPDEST SUB DUP2 DUP8 GAS STATICCALL SWAP1 DUP2 ISZERO PUSH2 0xD63 JUMPI SWAP1 DUP11 SWAP2 DUP3 SWAP2 PUSH2 0xD28 JUMPI JUMPDEST POP SWAP2 PUSH2 0xCCC SWAP3 PUSH2 0xCAE DUP6 DUP10 PUSH2 0x126B JUMP JUMPDEST MSTORE PUSH1 0x40 MLOAD DUP1 SWAP4 DUP2 SWAP3 PUSH4 0xEBCAB605 PUSH1 0xE0 SHL DUP4 MSTORE PUSH1 0x4 CALLDATALOAD PUSH1 0x4 DUP5 ADD PUSH2 0x1323 JUMP JUMPDEST SUB DUP2 DUP7 GAS STATICCALL DUP1 ISZERO PUSH2 0xD1D JUMPI SWAP1 PUSH2 0xCFC SWAP3 SWAP2 DUP11 SWAP2 DUP12 SWAP2 PUSH2 0xD01 JUMPI JUMPDEST POP PUSH2 0xCF1 DUP4 DUP12 PUSH2 0x126B JUMP JUMPDEST MSTORE PUSH2 0xAAD DUP3 DUP10 PUSH2 0x126B JUMP JUMPDEST PUSH2 0xBFA JUMP JUMPDEST SWAP1 POP PUSH2 0xD17 SWAP2 POP RETURNDATASIZE DUP1 DUP13 DUP4 RETURNDATACOPY PUSH2 0x8A3 DUP2 DUP4 PUSH2 0xEA0 JUMP JUMPDEST DUP13 PUSH2 0xCE6 JUMP JUMPDEST PUSH1 0x40 MLOAD RETURNDATASIZE DUP12 DUP3 RETURNDATACOPY RETURNDATASIZE SWAP1 REVERT JUMPDEST SWAP2 POP POP PUSH1 0x20 DUP2 RETURNDATASIZE PUSH1 0x20 GT PUSH2 0xD5B JUMPI JUMPDEST DUP2 PUSH2 0xD44 PUSH1 0x20 SWAP4 DUP4 PUSH2 0xEA0 JUMP JUMPDEST DUP2 ADD SUB SLT PUSH2 0xD57 JUMPI MLOAD DUP10 SWAP1 PUSH2 0xCCC PUSH2 0xC9E JUMP JUMPDEST DUP10 DUP1 REVERT JUMPDEST RETURNDATASIZE SWAP2 POP PUSH2 0xD37 JUMP JUMPDEST PUSH1 0x40 MLOAD RETURNDATASIZE DUP13 DUP3 RETURNDATACOPY RETURNDATASIZE SWAP1 REVERT JUMPDEST PUSH2 0xD82 SWAP2 POP RETURNDATASIZE DUP1 DUP6 DUP4 RETURNDATACOPY PUSH2 0x566 DUP2 DUP4 PUSH2 0xEA0 JUMP JUMPDEST DUP5 PUSH2 0xBD7 JUMP JUMPDEST PUSH2 0xDA1 SWAP2 POP PUSH1 0x20 RETURNDATASIZE PUSH1 0x20 GT PUSH2 0x1E7 JUMPI PUSH2 0x1D9 DUP2 DUP4 PUSH2 0xEA0 JUMP JUMPDEST DUP6 PUSH2 0xC0 JUMP JUMPDEST DUP4 SWAP1 CALLVALUE PUSH2 0x77F JUMPI DUP2 PUSH1 0x3 NOT CALLDATASIZE ADD SLT PUSH2 0x77F JUMPI PUSH1 0x1 SLOAD PUSH1 0x1 PUSH1 0x1 PUSH1 0xA0 SHL SUB AND DUP2 MSTORE PUSH1 0x20 SWAP1 RETURN JUMPDEST SWAP1 DUP2 MLOAD DUP1 DUP3 MSTORE PUSH1 0x20 DUP1 DUP1 SWAP4 ADD SWAP4 ADD SWAP2 PUSH1 0x0 JUMPDEST DUP3 DUP2 LT PUSH2 0xDEC JUMPI POP POP POP POP SWAP1 JUMP JUMPDEST DUP4 MLOAD DUP6 MSTORE SWAP4 DUP2 ADD SWAP4 SWAP3 DUP2 ADD SWAP3 PUSH1 0x1 ADD PUSH2 0xDDE JUMP JUMPDEST SWAP1 DUP1 DUP3 MLOAD SWAP1 DUP2 DUP2 MSTORE PUSH1 0x20 DUP1 SWAP2 ADD SWAP3 DUP2 DUP1 DUP5 PUSH1 0x5 SHL DUP4 ADD ADD SWAP6 ADD SWAP4 PUSH1 0x0 SWAP2 JUMPDEST DUP5 DUP4 LT PUSH2 0xE2E JUMPI POP POP POP POP POP POP SWAP1 JUMP JUMPDEST SWAP1 SWAP2 SWAP3 SWAP4 SWAP5 SWAP6 DUP5 DUP1 PUSH2 0xE4C PUSH1 0x1 SWAP4 PUSH1 0x1F NOT DUP7 DUP3 SUB ADD DUP8 MSTORE DUP11 MLOAD PUSH2 0xDCC JUMP JUMPDEST SWAP9 ADD SWAP4 ADD SWAP4 ADD SWAP2 SWAP5 SWAP4 SWAP3 SWAP1 PUSH2 0xE1E JUMP JUMPDEST PUSH1 0xC0 DUP2 ADD SWAP1 DUP2 LT PUSH1 0x1 PUSH1 0x1 PUSH1 0x40 SHL SUB DUP3 GT OR PUSH2 0xE77 JUMPI PUSH1 0x40 MSTORE JUMP JUMPDEST PUSH4 0x4E487B71 PUSH1 0xE0 SHL PUSH1 0x0 MSTORE PUSH1 0x41 PUSH1 0x4 MSTORE PUSH1 0x24 PUSH1 0x0 REVERT JUMPDEST PUSH1 0x1 PUSH1 0x1 PUSH1 0x40 SHL SUB DUP2 GT PUSH2 0xE77 JUMPI PUSH1 0x40 MSTORE JUMP JUMPDEST PUSH1 0x1F SWAP1 SWAP2 ADD PUSH1 0x1F NOT AND DUP2 ADD SWAP1 PUSH1 0x1 PUSH1 0x1 PUSH1 0x40 SHL SUB DUP3 GT SWAP1 DUP3 LT OR PUSH2 0xE77 JUMPI PUSH1 0x40 MSTORE JUMP JUMPDEST SWAP1 DUP2 PUSH1 0x20 SWAP2 SUB SLT PUSH2 0x177 JUMPI MLOAD DUP1 ISZERO ISZERO DUP2 SUB PUSH2 0x177 JUMPI SWAP1 JUMP JUMPDEST ISZERO PUSH2 0xEE2 JUMPI JUMP JUMPDEST PUSH1 0x40 MLOAD PUSH3 0x461BCD PUSH1 0xE5 SHL DUP2 MSTORE PUSH1 0x20 PUSH1 0x4 DUP3 ADD MSTORE PUSH1 0x14 PUSH1 0x24 DUP3 ADD MSTORE PUSH20 0x105CDCD95D08191BD95CC81B9BDD08195E1A5CDD PUSH1 0x62 SHL PUSH1 0x44 DUP3 ADD MSTORE PUSH1 0x64 SWAP1 REVERT JUMPDEST SWAP2 SWAP1 DUP1 PUSH1 0x1F DUP5 ADD SLT ISZERO PUSH2 0x177 JUMPI DUP3 MLOAD SWAP1 PUSH1 0x1 PUSH1 0x1 PUSH1 0x40 SHL SUB DUP3 GT PUSH2 0xE77 JUMPI PUSH1 0x40 MLOAD SWAP2 PUSH1 0x20 SWAP2 PUSH2 0xF56 PUSH1 0x1F DUP4 ADD PUSH1 0x1F NOT AND DUP5 ADD DUP6 PUSH2 0xEA0 JUMP JUMPDEST DUP2 DUP5 MSTORE DUP3 DUP3 DUP8 ADD ADD GT PUSH2 0x177 JUMPI PUSH1 0x0 JUMPDEST DUP2 DUP2 LT PUSH2 0xF7B JUMPI POP DUP3 PUSH1 0x0 SWAP4 SWAP5 SWAP6 POP ADD ADD MSTORE SWAP1 JUMP JUMPDEST DUP6 DUP2 ADD DUP4 ADD MLOAD DUP5 DUP3 ADD DUP5 ADD MSTORE DUP3 ADD PUSH2 0xF66 JUMP JUMPDEST PUSH1 0x1 PUSH1 0x1 PUSH1 0x40 SHL SUB DUP2 GT PUSH2 0xE77 JUMPI PUSH1 0x5 SHL PUSH1 0x20 ADD SWAP1 JUMP JUMPDEST MLOAD SWAP1 PUSH1 0x1 PUSH1 0x1 PUSH1 0xA0 SHL SUB DUP3 AND DUP3 SUB PUSH2 0x177 JUMPI JUMP JUMPDEST PUSH1 0x20 SWAP2 DUP3 DUP3 DUP3 SUB SLT PUSH2 0x177 JUMPI DUP2 MLOAD PUSH1 0x1 PUSH1 0x1 PUSH1 0x40 SHL SUB SWAP3 DUP4 DUP3 GT PUSH2 0x177 JUMPI ADD SWAP2 PUSH2 0x1A0 SWAP4 DUP5 DUP5 DUP5 SUB SLT PUSH2 0x177 JUMPI PUSH1 0x40 SWAP3 DUP4 MLOAD SWAP6 DUP7 ADD DUP7 DUP2 LT DUP5 DUP3 GT OR PUSH2 0xE77 JUMPI DUP5 MSTORE DUP5 MLOAD DUP7 MSTORE DUP2 DUP6 ADD MLOAD DUP3 DUP8 ADD MSTORE DUP4 DUP6 ADD MLOAD DUP4 DUP2 GT PUSH2 0x177 JUMPI DUP2 PUSH2 0x101E SWAP2 DUP8 ADD PUSH2 0xF1E JUMP JUMPDEST DUP5 DUP8 ADD MSTORE PUSH1 0x60 DUP1 DUP7 ADD MLOAD DUP5 DUP2 GT PUSH2 0x177 JUMPI DUP3 PUSH2 0x103B SWAP2 DUP9 ADD PUSH2 0xF1E JUMP JUMPDEST DUP2 DUP9 ADD MSTORE PUSH1 0x80 DUP1 DUP8 ADD MLOAD DUP6 DUP2 GT PUSH2 0x177 JUMPI DUP4 PUSH2 0x1058 SWAP2 DUP10 ADD PUSH2 0xF1E JUMP JUMPDEST DUP2 DUP10 ADD MSTORE PUSH1 0xA0 SWAP1 DUP2 DUP9 ADD MLOAD DUP3 DUP11 ADD MSTORE PUSH1 0xC0 SWAP2 DUP3 DUP10 ADD MLOAD DUP4 DUP12 ADD MSTORE PUSH1 0xE0 DUP10 ADD MLOAD DUP8 DUP2 GT PUSH2 0x177 JUMPI DUP10 ADD SWAP3 DUP6 PUSH1 0x1F DUP6 ADD SLT ISZERO PUSH2 0x177 JUMPI DUP4 MLOAD SWAP3 PUSH2 0x1098 DUP5 PUSH2 0xF8E JUMP JUMPDEST SWAP6 PUSH2 0x10A5 DUP12 MLOAD SWAP8 DUP9 PUSH2 0xEA0 JUMP JUMPDEST DUP5 DUP8 MSTORE DUP9 DUP1 DUP9 ADD SWAP6 PUSH1 0x5 SHL DUP8 ADD ADD SWAP6 DUP9 DUP8 GT PUSH2 0x177 JUMPI DUP10 DUP2 ADD SWAP6 JUMPDEST DUP8 DUP8 LT PUSH2 0x11B5 JUMPI POP POP POP POP POP POP POP POP PUSH1 0xE0 DUP8 ADD MSTORE PUSH2 0x100 DUP1 DUP7 ADD MLOAD SWAP1 PUSH1 0x4 DUP3 LT ISZERO PUSH2 0x177 JUMPI DUP8 ADD MSTORE PUSH2 0x120 PUSH2 0x10F6 DUP2 DUP8 ADD PUSH2 0xFA5 JUMP JUMPDEST SWAP1 DUP8 ADD MSTORE PUSH2 0x140 DUP1 DUP7 ADD MLOAD DUP5 DUP2 GT PUSH2 0x177 JUMPI DUP3 PUSH2 0x1114 SWAP2 DUP9 ADD PUSH2 0xF1E JUMP JUMPDEST SWAP1 DUP8 ADD MSTORE PUSH2 0x160 SWAP3 DUP4 DUP7 ADD MLOAD DUP2 DUP2 GT PUSH2 0x177 JUMPI DUP7 ADD SWAP1 DUP3 PUSH1 0x1F DUP4 ADD SLT ISZERO PUSH2 0x177 JUMPI DUP2 MLOAD SWAP1 PUSH2 0x114D PUSH2 0x1144 DUP4 PUSH2 0xF8E JUMP JUMPDEST SWAP8 MLOAD SWAP8 DUP9 PUSH2 0xEA0 JUMP JUMPDEST DUP2 DUP8 MSTORE DUP5 DUP1 DUP9 ADD SWAP3 PUSH1 0x5 SHL DUP5 ADD ADD SWAP4 DUP1 DUP6 GT PUSH2 0x177 JUMPI DUP6 DUP5 ADD SWAP3 JUMPDEST DUP6 DUP5 LT PUSH2 0x1190 JUMPI POP POP POP POP POP POP POP DUP4 ADD MSTORE PUSH2 0x180 DUP1 SWAP2 ADD MLOAD SWAP1 PUSH1 0x5 DUP3 LT ISZERO PUSH2 0x177 JUMPI DUP3 ADD MSTORE SWAP1 JUMP JUMPDEST DUP4 MLOAD DUP4 DUP2 GT PUSH2 0x177 JUMPI DUP8 SWAP2 PUSH2 0x11AA DUP5 DUP5 DUP1 SWAP5 DUP11 ADD ADD PUSH2 0xF1E JUMP JUMPDEST DUP2 MSTORE ADD SWAP4 ADD SWAP3 PUSH2 0x1168 JUMP JUMPDEST DUP7 MLOAD DUP13 DUP2 GT PUSH2 0x177 JUMPI DUP3 ADD DUP6 PUSH1 0x1F NOT DUP3 DUP14 SUB ADD SLT PUSH2 0x177 JUMPI DUP13 SWAP2 DUP15 MLOAD PUSH2 0x11DA DUP2 PUSH2 0xE5C JUMP JUMPDEST DUP14 DUP4 ADD MLOAD SWAP4 DUP5 GT PUSH2 0x177 JUMPI DUP16 DUP16 SWAP5 DUP16 DUP16 SWAP1 PUSH2 0x11F7 SWAP3 DUP8 ADD ADD PUSH2 0xF1E JUMP JUMPDEST DUP3 MSTORE DUP4 ADD MLOAD SWAP4 DUP5 GT PUSH2 0x177 JUMPI DUP16 DUP4 DUP16 SWAP6 SWAP2 DUP16 PUSH2 0x1219 SWAP1 DUP9 DUP14 SWAP6 DUP2 SWAP10 ADD ADD PUSH2 0xF1E JUMP JUMPDEST DUP7 DUP6 ADD MSTORE DUP9 DUP3 ADD MLOAD SWAP1 DUP5 ADD MSTORE DUP9 DUP2 ADD MLOAD DUP9 DUP5 ADD MSTORE DUP11 DUP2 ADD MLOAD DUP10 DUP5 ADD MSTORE ADD MLOAD DUP10 DUP3 ADD MSTORE DUP2 MSTORE ADD SWAP7 ADD SWAP6 PUSH2 0x10C0 JUMP JUMPDEST PUSH1 0x0 NOT DUP2 EQ PUSH2 0x1255 JUMPI PUSH1 0x1 ADD SWAP1 JUMP JUMPDEST PUSH4 0x4E487B71 PUSH1 0xE0 SHL PUSH1 0x0 MSTORE PUSH1 0x11 PUSH1 0x4 MSTORE PUSH1 0x24 PUSH1 0x0 REVERT JUMPDEST DUP1 MLOAD DUP3 LT ISZERO PUSH2 0x127F JUMPI PUSH1 0x20 SWAP2 PUSH1 0x5 SHL ADD ADD SWAP1 JUMP JUMPDEST PUSH4 0x4E487B71 PUSH1 0xE0 SHL PUSH1 0x0 MSTORE PUSH1 0x32 PUSH1 0x4 MSTORE PUSH1 0x24 PUSH1 0x0 REVERT JUMPDEST SWAP2 SWAP1 DUP3 SUB SWAP2 DUP3 GT PUSH2 0x1255 JUMPI JUMP JUMPDEST PUSH1 0x20 SWAP1 DUP2 DUP2 DUP5 SUB SLT PUSH2 0x177 JUMPI DUP1 MLOAD SWAP1 PUSH1 0x1 PUSH1 0x1 PUSH1 0x40 SHL SUB DUP3 GT PUSH2 0x177 JUMPI ADD SWAP2 DUP1 PUSH1 0x1F DUP5 ADD SLT ISZERO PUSH2 0x177 JUMPI DUP3 MLOAD PUSH2 0x12D7 DUP2 PUSH2 0xF8E JUMP JUMPDEST SWAP4 PUSH2 0x12E5 PUSH1 0x40 MLOAD SWAP6 DUP7 PUSH2 0xEA0 JUMP JUMPDEST DUP2 DUP6 MSTORE DUP4 DUP1 DUP7 ADD SWAP3 PUSH1 0x5 SHL DUP3 ADD ADD SWAP3 DUP4 GT PUSH2 0x177 JUMPI DUP4 ADD SWAP1 JUMPDEST DUP3 DUP3 LT PUSH2 0x130C JUMPI POP POP POP POP SWAP1 JUMP JUMPDEST DUP4 DUP1 SWAP2 PUSH2 0x1318 DUP5 PUSH2 0xFA5 JUMP JUMPDEST DUP2 MSTORE ADD SWAP2 ADD SWAP1 PUSH2 0x12FE JUMP JUMPDEST SWAP1 DUP2 MSTORE PUSH1 0x1 PUSH1 0x1 PUSH1 0xA0 SHL SUB SWAP1 SWAP2 AND PUSH1 0x20 DUP3 ADD MSTORE PUSH1 0x40 ADD SWAP1 JUMP JUMPDEST SWAP1 PUSH2 0x1346 DUP3 PUSH2 0xF8E JUMP JUMPDEST PUSH2 0x1353 PUSH1 0x40 MLOAD SWAP2 DUP3 PUSH2 0xEA0 JUMP JUMPDEST DUP3 DUP2 MSTORE DUP1 SWAP3 PUSH2 0x1364 PUSH1 0x1F NOT SWAP2 PUSH2 0xF8E JUMP JUMPDEST ADD SWAP1 PUSH1 0x20 CALLDATASIZE SWAP2 ADD CALLDATACOPY JUMP JUMPDEST SWAP1 PUSH2 0x1378 DUP3 PUSH2 0xF8E JUMP JUMPDEST PUSH2 0x1385 PUSH1 0x40 MLOAD SWAP2 DUP3 PUSH2 0xEA0 JUMP JUMPDEST DUP3 DUP2 MSTORE DUP1 SWAP3 PUSH2 0x1396 PUSH1 0x1F NOT SWAP2 PUSH2 0xF8E JUMP JUMPDEST ADD SWAP1 PUSH1 0x0 JUMPDEST DUP3 DUP2 LT PUSH2 0x13A7 JUMPI POP POP POP JUMP JUMPDEST DUP1 PUSH1 0x60 PUSH1 0x20 DUP1 SWAP4 DUP6 ADD ADD MSTORE ADD PUSH2 0x139B JUMP JUMPDEST DUP2 PUSH1 0x1F DUP3 ADD SLT ISZERO PUSH2 0x177 JUMPI DUP1 MLOAD SWAP2 PUSH2 0x13CF DUP4 PUSH2 0xF8E JUMP JUMPDEST SWAP3 PUSH2 0x13DD PUSH1 0x40 MLOAD SWAP5 DUP6 PUSH2 0xEA0 JUMP JUMPDEST DUP1 DUP5 MSTORE PUSH1 0x20 SWAP3 DUP4 DUP1 DUP7 ADD SWAP3 PUSH1 0x5 SHL DUP3 ADD ADD SWAP3 DUP4 GT PUSH2 0x177 JUMPI DUP4 ADD SWAP1 JUMPDEST DUP3 DUP3 LT PUSH2 0x1407 JUMPI POP POP POP POP SWAP1 JUMP JUMPDEST DUP2 MLOAD DUP2 MSTORE SWAP1 DUP4 ADD SWAP1 DUP4 ADD PUSH2 0x13F9 JUMP JUMPDEST SWAP2 SWAP1 SWAP2 PUSH1 0x40 DUP2 DUP5 SUB SLT PUSH2 0x177 JUMPI DUP1 MLOAD PUSH1 0x1 PUSH1 0x1 PUSH1 0x40 SHL SUB SWAP4 SWAP1 DUP5 DUP2 GT PUSH2 0x177 JUMPI DUP2 PUSH2 0x1442 SWAP2 DUP5 ADD PUSH2 0x13B8 JUMP JUMPDEST SWAP4 PUSH1 0x20 DUP4 ADD MLOAD SWAP1 DUP2 GT PUSH2 0x177 JUMPI PUSH2 0x1459 SWAP3 ADD PUSH2 0x13B8 JUMP JUMPDEST SWAP1 JUMP INVALID LOG2 PUSH5 0x6970667358 0x22 SLT KECCAK256 DUP7 LOG1 0xD8 0xBE SWAP8 ADDRESS 0xB5 0xE4 PUSH7 0x827830571E6EA7 DELEGATECALL SSTORE LOG3 0x5D 0xCA CALLCODE 0xDF SHL 0xEC 0xF7 SWAP3 SMOD PUSH22 0x6BB90364736F6C634300081300330000000000000000 "},"gasEstimates":{"creation":{"codeDepositCost":"1053200","executionCost":"infinite","totalCost":"infinite"},"external":{"Reward_tokens()":"2283","getInvestmentDetails(uint256)":"infinite","getInvestmentHistory(uint256)":"infinite","getInvestmentsByAddress(address)":"infinite","getInvestmentsByAddressInAsset(uint256,address)":"infinite","investAsset(uint256,uint256,uint256)":"infinite","supervisor()":"2360"}},"methodIdentifiers":{"Reward_tokens()":"09b3da2b","getInvestmentDetails(uint256)":"ce7f35b4","getInvestmentHistory(uint256)":"16bd19d4","getInvestmentsByAddress(address)":"1e011b3e","getInvestmentsByAddressInAsset(uint256,address)":"af330623","investAsset(uint256,uint256,uint256)":"bc4040d2","supervisor()":"56e4b68b"}},"storageLayout":{"storage":[{"astId":5505,"contract":"contracts/Investments.sol:Investments","label":"nftContract","offset":0,"slot":"0","type":"t_contract(NFTVenture)7155"},{"astId":5507,"contract":"contracts/Investments.sol:Investments","label":"Reward_tokens","offset":0,"slot":"1","type":"t_address"},{"astId":5509,"contract":"contracts/Investments.sol:Investments","label":"supervisor","offset":0,"slot":"2","type":"t_address"}],"types":{"t_address":{"encoding":"inplace","label":"address","numberOfBytes":"20"},"t_contract(NFTVenture)7155":{"encoding":"inplace","label":"contract NFTVenture","numberOfBytes":"20"}}},"userdoc":{"kind":"user","methods":{},"version":1}}}}