{"contracts/Assets.sol":{"Assets":{"abi":[{"inputs":[{"internalType":"address","name":"nftAddress","type":"address"}],"stateMutability":"nonpayable","type":"constructor"},{"anonymous":false,"inputs":[{"indexed":true,"internalType":"uint256","name":"assetId","type":"uint256"},{"indexed":true,"internalType":"address","name":"owner","type":"address"},{"indexed":false,"internalType":"string","name":"tokenURI","type":"string"}],"name":"AssetCreated","type":"event"},{"anonymous":false,"inputs":[{"indexed":true,"internalType":"address","name":"investor","type":"address"},{"indexed":true,"internalType":"uint256","name":"assetId","type":"uint256"},{"indexed":true,"internalType":"uint256","name":"tokenId","type":"uint256"},{"indexed":false,"internalType":"uint256","name":"tokenAmount","type":"uint256"},{"indexed":false,"internalType":"uint256","name":"value","type":"uint256"}],"name":"LogInvestment","type":"event"},{"inputs":[{"internalType":"uint256","name":"price","type":"uint256"},{"internalType":"string","name":"author","type":"string"},{"internalType":"string","name":"title","type":"string"},{"internalType":"string","name":"description","type":"string"},{"internalType":"uint256","name":"projectEndDate","type":"uint256"},{"internalType":"address","name":"to","type":"address"},{"internalType":"string","name":"tokenURI","type":"string"},{"internalType":"string","name":"mainPhoto","type":"string"},{"internalType":"string[]","name":"secondaryPhotos","type":"string[]"},{"internalType":"enum Category","name":"category","type":"uint8"}],"name":"addAsset","outputs":[],"stateMutability":"nonpayable","type":"function"},{"inputs":[{"internalType":"enum ProjectStatus","name":"status","type":"uint8"}],"name":"getAllAssets","outputs":[{"components":[{"internalType":"uint256","name":"assetId","type":"uint256"},{"internalType":"uint256","name":"price","type":"uint256"},{"internalType":"string","name":"author","type":"string"},{"internalType":"string","name":"title","type":"string"},{"internalType":"string","name":"description","type":"string"},{"internalType":"uint256","name":"projectStartDate","type":"uint256"},{"internalType":"uint256","name":"projectEndDate","type":"uint256"},{"components":[{"internalType":"string","name":"title","type":"string"},{"internalType":"string","name":"description","type":"string"},{"internalType":"uint256","name":"tokenAmount","type":"uint256"},{"internalType":"uint256","name":"individualPrice","type":"uint256"},{"internalType":"uint256","name":"availableTokens","type":"uint256"},{"internalType":"uint256","name":"rewardTokenId","type":"uint256"}],"internalType":"struct Reward[]","name":"rewards","type":"tuple[]"},{"internalType":"enum ProjectStatus","name":"status","type":"uint8"},{"internalType":"address","name":"rewardTokenAddress","type":"address"},{"internalType":"string","name":"mainPhoto","type":"string"},{"internalType":"string[]","name":"secondaryPhotos","type":"string[]"},{"internalType":"enum Category","name":"category","type":"uint8"}],"internalType":"struct Asset[]","name":"","type":"tuple[]"}],"stateMutability":"view","type":"function"},{"inputs":[{"internalType":"enum ProjectStatus","name":"status","type":"uint8"},{"internalType":"enum Category","name":"category","type":"uint8"}],"name":"getAllAssetsByCategory","outputs":[{"components":[{"internalType":"uint256","name":"assetId","type":"uint256"},{"internalType":"uint256","name":"price","type":"uint256"},{"internalType":"string","name":"author","type":"string"},{"internalType":"string","name":"title","type":"string"},{"internalType":"string","name":"description","type":"string"},{"internalType":"uint256","name":"projectStartDate","type":"uint256"},{"internalType":"uint256","name":"projectEndDate","type":"uint256"},{"components":[{"internalType":"string","name":"title","type":"string"},{"internalType":"string","name":"description","type":"string"},{"internalType":"uint256","name":"tokenAmount","type":"uint256"},{"internalType":"uint256","name":"individualPrice","type":"uint256"},{"internalType":"uint256","name":"availableTokens","type":"uint256"},{"internalType":"uint256","name":"rewardTokenId","type":"uint256"}],"internalType":"struct Reward[]","name":"rewards","type":"tuple[]"},{"internalType":"enum ProjectStatus","name":"status","type":"uint8"},{"internalType":"address","name":"rewardTokenAddress","type":"address"},{"internalType":"string","name":"mainPhoto","type":"string"},{"internalType":"string[]","name":"secondaryPhotos","type":"string[]"},{"internalType":"enum Category","name":"category","type":"uint8"}],"internalType":"struct Asset[]","name":"","type":"tuple[]"}],"stateMutability":"view","type":"function"},{"inputs":[{"internalType":"uint256","name":"assetId","type":"uint256"}],"name":"getAssetById","outputs":[{"components":[{"internalType":"uint256","name":"assetId","type":"uint256"},{"internalType":"uint256","name":"price","type":"uint256"},{"internalType":"string","name":"author","type":"string"},{"internalType":"string","name":"title","type":"string"},{"internalType":"string","name":"description","type":"string"},{"internalType":"uint256","name":"projectStartDate","type":"uint256"},{"internalType":"uint256","name":"projectEndDate","type":"uint256"},{"components":[{"internalType":"string","name":"title","type":"string"},{"internalType":"string","name":"description","type":"string"},{"internalType":"uint256","name":"tokenAmount","type":"uint256"},{"internalType":"uint256","name":"individualPrice","type":"uint256"},{"internalType":"uint256","name":"availableTokens","type":"uint256"},{"internalType":"uint256","name":"rewardTokenId","type":"uint256"}],"internalType":"struct Reward[]","name":"rewards","type":"tuple[]"},{"internalType":"enum ProjectStatus","name":"status","type":"uint8"},{"internalType":"address","name":"rewardTokenAddress","type":"address"},{"internalType":"string","name":"mainPhoto","type":"string"},{"internalType":"string[]","name":"secondaryPhotos","type":"string[]"},{"internalType":"enum Category","name":"category","type":"uint8"}],"internalType":"struct Asset","name":"","type":"tuple"}],"stateMutability":"view","type":"function"},{"inputs":[{"internalType":"address","name":"owner","type":"address"}],"name":"getAssetsOfOwner","outputs":[{"components":[{"internalType":"uint256","name":"assetId","type":"uint256"},{"internalType":"uint256","name":"price","type":"uint256"},{"internalType":"string","name":"author","type":"string"},{"internalType":"string","name":"title","type":"string"},{"internalType":"string","name":"description","type":"string"},{"internalType":"uint256","name":"projectStartDate","type":"uint256"},{"internalType":"uint256","name":"projectEndDate","type":"uint256"},{"components":[{"internalType":"string","name":"title","type":"string"},{"internalType":"string","name":"description","type":"string"},{"internalType":"uint256","name":"tokenAmount","type":"uint256"},{"internalType":"uint256","name":"individualPrice","type":"uint256"},{"internalType":"uint256","name":"availableTokens","type":"uint256"},{"internalType":"uint256","name":"rewardTokenId","type":"uint256"}],"internalType":"struct Reward[]","name":"rewards","type":"tuple[]"},{"internalType":"enum ProjectStatus","name":"status","type":"uint8"},{"internalType":"address","name":"rewardTokenAddress","type":"address"},{"internalType":"string","name":"mainPhoto","type":"string"},{"internalType":"string[]","name":"secondaryPhotos","type":"string[]"},{"internalType":"enum Category","name":"category","type":"uint8"}],"internalType":"struct Asset[]","name":"","type":"tuple[]"}],"stateMutability":"view","type":"function"},{"inputs":[],"name":"supervisor","outputs":[{"internalType":"address","name":"","type":"address"}],"stateMutability":"view","type":"function"},{"inputs":[{"internalType":"uint256","name":"assetId","type":"uint256"},{"internalType":"string","name":"mainPhoto","type":"string"},{"internalType":"string[]","name":"secondaryPhotos","type":"string[]"},{"internalType":"string","name":"description","type":"string"}],"name":"updateAsset","outputs":[],"stateMutability":"nonpayable","type":"function"}],"devdoc":{"kind":"dev","methods":{},"version":1},"evm":{"bytecode":{"linkReferences":{},"object":"60803461007c57601f61183438819003918201601f19168301916001600160401b038311848410176100815780849260209460405283398101031261007c57516001600160a01b0381169081900361007c5760018060a01b0319908160005416176000553390600154161760015560405161179c90816100988239f35b600080fd5b634e487b7160e01b600052604160045260246000fdfe608080604052600436101561001357600080fd5b600090813560e01c9081633803112314610ca6575080634663a28c1461097a5780635563633d146106e757806356e4b68b146106be57806386275c5a14610240578063b3e444a7146101ab5763f3ab880e1461006e57600080fd5b346101a85760203660031901126101a8576004356001600160a01b0381811692918390036101a357815416604051926379d5c40760e11b8452600484015260249082848381845afa938415610198578394610174575b508351916100d1836113c2565b94845b8481106100ed57604051806100e989826110fc565b0390f35b6100f78183611437565b5160405190631d591eb760e31b8252600482015286818581885afa908115610169579061014292918891610147575b50610131828a611437565b5261013c8189611437565b50611412565b6100d4565b61016391503d808a833e61015b81836111a3565b8101906114a3565b38610126565b6040513d89823e3d90fd5b6101919194503d8085833e61018981836111a3565b8101906112e8565b92386100c4565b6040513d85823e3d90fd5b600080fd5b80fd5b50346101a85760203660031901126101a8576101c5611361565b508054604051631d591eb760e31b81526004803590820152908290829060249082906001600160a01b03165afa90811561023557826100e9939261021a575b5050604051918291602083526020830190610f26565b61022e92503d8091833e61015b81836111a3565b3880610204565b6040513d84823e3d90fd5b50346101a8576101403660031901126101a8576001600160401b03602435818111610556576102739036906004016111e1565b60443582811161053a5761028b9036906004016111e1565b906064358381116106ba576102a49036906004016111e1565b9260a435916001600160a01b03831683036101a35760c435828111610586576102d19036906004016111e1565b9460e4358381116106b6576102ea9036906004016111e1565b92610104359081116106b65761030490369060040161123f565b60056101243510156106b6576001546001600160a01b0316330361066257600435156106265742608435106105d0576001600160a01b03851615610592578754604051630aac5dfd60e01b81529689956001600160a01b039092169390602089600481885afa98891561016957879961055a575b506040519561038687611187565b89875260043560208801526040870152606086015260808501524260a085015260843560c0850152606060e0850152846101008501528461012085015261014084015261016083015261012435610180830152803b15610556576104128392918392604051948580948193631b8513e960e31b83528b6004840152606060248401526064830190610f26565b6001600160a01b038a16604483015203925af1801561023557610542575b5080546001600160a01b0316803b1561053e576040516334ff261960e21b81526001600160a01b038416600482015260248101859052606060448201529082908290818381610482606482018c610ede565b03925af1801561023557610526575b505060405160208082526001600160a01b03909216937f49b4e4c6879cdc85b51d8c3b572252aaa7842edb863810854acb6d2ed420d9629282916104d791830190610ede565b0390a3805481906001600160a01b0316803b1561052357818091600460405180948193632c5bdb1f60e01b83525af18015610235576105135750f35b61051c9061115e565b6101a85780f35b50fd5b61052f9061115e565b61053a578338610491565b8380fd5b5080fd5b61054b9061115e565b61053a578338610430565b8280fd5b9098506020813d60201161058a575b81610576602093836111a3565b8101031261058657519738610378565b8680fd5b3d9150610569565b60405162461bcd60e51b8152602060048201526016602482015275416464726573732063616e6e6f74206265207a65726f60501b6044820152606490fd5b60405162461bcd60e51b815260206004820152602860248201527f50726f6a65637420656e6420646174652073686f756c6420626520696e207468604482015267652066757475726560c01b6064820152608490fd5b60405162461bcd60e51b815260206004820152601460248201527350726963652063616e6e6f74206265207a65726f60601b6044820152606490fd5b60405162461bcd60e51b815260206004820152602660248201527f4f6e6c792073757065727669736f722063616e2063616c6c20746869732066756044820152653731ba34b7b760d11b6064820152608490fd5b8780fd5b8480fd5b50346101a857806003193601126101a8576001546040516001600160a01b039091168152602090f35b50346101a85760803660031901126101a8576024906001600160401b03600435833582811161053a5761071e9036906004016111e1565b916044358181116106ba5761073790369060040161123f565b906064359081116106ba576107509036906004016111e1565b8454604051634f558e7960e01b8152600481018590526001600160a01b03909116929060209081818a81885afa90811561091857889161095d575b50156109235760405163430c208160e01b81523360048201528881018690528181604481885afa9081156109185788916108eb575b50156108b0575085939291879160405196631d591eb760e31b885285600489015286888581885afa978815610169578798610894575b50805115610888575b61014088015280511561087c575b610160870152805115610871575b6080860152813b1561053a5783604093610853855197889687958694631c29952960e31b865260048601528401526044830190610f26565b03925af1801561023557610865575080f35b61086e9061115e565b80f35b50608085015161081b565b5061016086015161080d565b506101408701516107ff565b6108a99198503d8089833e61015b81836111a3565b96896107f6565b6064906015896040519262461bcd60e51b84526004840152820152742737ba1030b8383937bb32b21037b91037bbb732b960591b6044820152fd5b61090b9150823d8411610911575b61090381836111a3565b81019061174e565b386107c0565b503d6108f9565b6040513d8a823e3d90fd5b6064906014896040519262461bcd60e51b8452600484015282015273105cdcd95d08191bd95cc81b9bdd08195e1a5cdd60621b6044820152fd5b6109749150823d84116109115761090381836111a3565b3861078b565b50346101a85760403660031901126101a857600435600481101561053e576024803591600583101561053a5780610bae575082546040516301fb15dd60e31b8152908490829060049082906001600160a01b03165afa908115610ba3578491610b89575b50925b805460405163a2311d5f60e01b81526001600160a01b0390911693610a0a906004830190610f03565b81818481875afa908115610235578291610b6f575b50805192610a2c84611228565b93610a3a60405195866111a3565b808552610a49601f1991611228565b013660208601378290835b8751811015610a815780610a6b610a7c928a611437565b51610a768289611437565b52611412565b610a54565b5090919294610a9084516113c2565b9186945b8051861015610b6157875b8751811015610b5657610ab28783611437565b51610abd828a611437565b5114610ad157610acc90611412565b610a9f565b509493610ade8587611437565b5160405190631d591eb760e31b8252600482015288818481875afa918215610b4b57610b2b92610b25928b91610b31575b50610b1a8288611437565b5261013c8187611437565b94611412565b94610a94565b610b4591503d808d833e61015b81836111a3565b8b610b0f565b6040513d8b823e3d90fd5b5094610b2b90611412565b604051806100e986826110fc565b610b8391503d8084833e61018981836111a3565b38610a1f565b610b9d91503d8086833e61018981836111a3565b386109de565b6040513d86823e3d90fd5b60018103610c0957508254604051620dee2360e51b8152908490829060049082906001600160a01b03165afa908115610ba3578491610bef575b50926109e1565b610c0391503d8086833e61018981836111a3565b38610be8565b60028103610c4a57508254604051630f4facc560e21b8152908490829060049082906001600160a01b03165afa908115610ba3578491610bef5750926109e1565b600303610c89578254604051635aff92c160e11b8152908490829060049082906001600160a01b03165afa908115610ba3578491610bef5750926109e1565b60405162461bcd60e51b815280610ca2600482016112bf565b0390fd5b90503461053e57602036600319011261053e5760043560048110156105565780610dc757505080546040516301fb15dd60e31b8152908290829060049082906001600160a01b03165afa908115610235578291610dad575b50905b8151610d0c816113c2565b825490936001600160a01b0390911690835b838110610d3357604051806100e988826110fc565b610d3d8183611437565b5160405190631d591eb760e31b825260048201528581602481875afa908115610da25790610d8392918791610d88575b50610d788289611437565b5261013c8188611437565b610d1e565b610d9c91503d8089833e61015b81836111a3565b38610d6d565b6040513d88823e3d90fd5b610dc191503d8084833e61018981836111a3565b38610cfe565b60018103610e235750508054604051620dee2360e51b8152908290829060049082906001600160a01b03165afa908115610235578291610e09575b5090610d01565b610e1d91503d8084833e61018981836111a3565b38610e02565b60028103610e655750508054604051630f4facc560e21b8152908290829060049082906001600160a01b03165afa908115610235578291610e09575090610d01565b600303610ea557508054604051635aff92c160e11b8152908290829060049082906001600160a01b03165afa908115610235578291610e09575090610d01565b62461bcd60e51b815280610ca2600482016112bf565b60005b838110610ece5750506000910152565b8181015183820152602001610ebe565b90602091610ef781518092818552858086019101610ebb565b601f01601f1916010190565b906005821015610f105752565b634e487b7160e01b600052602160045260246000fd5b91908251815260209081840151828201526040610f50818601516101a08084860152840190610ede565b610f666060918288015185820384870152610ede565b91610f7d6080938489015186820386880152610ede565b60a093848901518587015260c092838a01518488015260e08a01519587840360e0890152865194858552898501938a808860051b8801019901976000965b8c89891061108957505050505050505050505061010090818601516004811015610f105761100d9284015261012060018060a01b03818801511690840152610140808701519084830390850152610ede565b936101609283820151938387039084015283518087528187019180808360051b8a01019601926000905b83821061105c5750505050506110599293945061018080910151910190610f03565b90565b9091929396838061107a6001938d601f199082030186528b51610ede565b99019201920190939291611037565b80600192939495969798999a9b9c601f19858203018b528d519089806110c96110b985518d86528d860190610ede565b8686015185820388870152610ede565b938d8082015190850152898101518a8501528a8101518b85015201519101529c0198019801969897959493929190610fbb565b602080820190808352835180925260408301928160408460051b8301019501936000915b8483106111305750505050505090565b909192939495848061114e600193603f198682030187528a51610f26565b9801930193019194939290611120565b6001600160401b03811161117157604052565b634e487b7160e01b600052604160045260246000fd5b6101a081019081106001600160401b0382111761117157604052565b601f909101601f19168101906001600160401b0382119082101761117157604052565b6001600160401b03811161117157601f01601f191660200190565b81601f820112156101a3578035906111f8826111c6565b9261120660405194856111a3565b828452602083830101116101a357816000926020809301838601378301015290565b6001600160401b0381116111715760051b60200190565b9080601f830112156101a35781359061125782611228565b9261126560405194856111a3565b828452602092838086019160051b830101928084116101a357848301915b8483106112935750505050505090565b82356001600160401b0381116101a35786916112b4848480948901016111e1565b815201920191611283565b60609060208152600e60208201526d496e76616c69642073746174757360901b60408201520190565b60209081818403126101a3578051906001600160401b0382116101a357019180601f840112156101a357825161131d81611228565b9361132b60405195866111a3565b818552838086019260051b8201019283116101a3578301905b828210611352575050505090565b81518152908301908301611344565b6040519061136e82611187565b81610180600091828152826020820152606080604083015280808301528060808301528360a08301528360c08301528060e08301528361010083015283610120830152806101408301526101608201520152565b906113cc82611228565b6113d960405191826111a3565b82815280926113ea601f1991611228565b019060005b8281106113fb57505050565b602090611406611361565b828285010152016113ef565b60001981146114215760010190565b634e487b7160e01b600052601160045260246000fd5b805182101561144b5760209160051b010190565b634e487b7160e01b600052603260045260246000fd5b81601f820112156101a3578051611477816111c6565b9261148560405194856111a3565b818452602082840101116101a3576110599160208085019101610ebb565b602080828403126101a35781516001600160401b03928382116101a35701916101a0838503126101a3576040918251946114dc86611187565b845186528185015182870152838501518381116101a357816114ff918701611461565b848701526060808601518481116101a3578261151c918801611461565b818801526080808701518581116101a35783611539918901611461565b8189015260a09081880151828a015260c09182890151838b015260e08901518781116101a35789019285601f850112156101a35783519261157984611228565b956115868b5197886111a3565b848752888088019560051b870101958887116101a357898101955b87871061169f57505050505050505060e0870152610100808601519060048210156101a35787015261012085810151906001600160a01b03821682036101a357870152610140808601518481116101a357826115fe918801611461565b9087015261016092838601518181116101a35786019082601f830112156101a35781519061163761162e83611228565b975197886111a3565b818752848088019260051b840101938085116101a357858401925b85841061167a5750505050505050830152610180809101519060058210156101a35782015290565b83518381116101a3578791611694848480948a0101611461565b815201930192611652565b86518c81116101a357820185601f19828d0301126101a3578d5186810192908e84118185101761173957928f52818d0151928e84116101a3578f8f948f8f906116ea92870101611461565b82528301519384116101a3578f838f95918f61170c90888d9581990101611461565b86850152888201519084015288810151888401528a810151898401520151898201528152019601956115a1565b60246000634e487b7160e01b81526041600452fd5b908160209103126101a3575180151581036101a3579056fea26469706673582212203483fb1e171a03db292543765ec4d2134a4b89bfefb91fd57742336ac5088e3064736f6c63430008130033","opcodes":"PUSH1 0x80 CALLVALUE PUSH2 0x7C JUMPI PUSH1 0x1F PUSH2 0x1834 CODESIZE DUP2 SWAP1 SUB SWAP2 DUP3 ADD PUSH1 0x1F NOT AND DUP4 ADD SWAP2 PUSH1 0x1 PUSH1 0x1 PUSH1 0x40 SHL SUB DUP4 GT DUP5 DUP5 LT OR PUSH2 0x81 JUMPI DUP1 DUP5 SWAP3 PUSH1 0x20 SWAP5 PUSH1 0x40 MSTORE DUP4 CODECOPY DUP2 ADD SUB SLT PUSH2 0x7C JUMPI MLOAD PUSH1 0x1 PUSH1 0x1 PUSH1 0xA0 SHL SUB DUP2 AND SWAP1 DUP2 SWAP1 SUB PUSH2 0x7C JUMPI PUSH1 0x1 DUP1 PUSH1 0xA0 SHL SUB NOT SWAP1 DUP2 PUSH1 0x0 SLOAD AND OR PUSH1 0x0 SSTORE CALLER SWAP1 PUSH1 0x1 SLOAD AND OR PUSH1 0x1 SSTORE PUSH1 0x40 MLOAD PUSH2 0x179C SWAP1 DUP2 PUSH2 0x98 DUP3 CODECOPY RETURN JUMPDEST PUSH1 0x0 DUP1 REVERT JUMPDEST PUSH4 0x4E487B71 PUSH1 0xE0 SHL PUSH1 0x0 MSTORE PUSH1 0x41 PUSH1 0x4 MSTORE PUSH1 0x24 PUSH1 0x0 REVERT INVALID PUSH1 0x80 DUP1 PUSH1 0x40 MSTORE PUSH1 0x4 CALLDATASIZE LT ISZERO PUSH2 0x13 JUMPI PUSH1 0x0 DUP1 REVERT JUMPDEST PUSH1 0x0 SWAP1 DUP2 CALLDATALOAD PUSH1 0xE0 SHR SWAP1 DUP2 PUSH4 0x38031123 EQ PUSH2 0xCA6 JUMPI POP DUP1 PUSH4 0x4663A28C EQ PUSH2 0x97A JUMPI DUP1 PUSH4 0x5563633D EQ PUSH2 0x6E7 JUMPI DUP1 PUSH4 0x56E4B68B EQ PUSH2 0x6BE JUMPI DUP1 PUSH4 0x86275C5A EQ PUSH2 0x240 JUMPI DUP1 PUSH4 0xB3E444A7 EQ PUSH2 0x1AB JUMPI PUSH4 0xF3AB880E EQ PUSH2 0x6E JUMPI PUSH1 0x0 DUP1 REVERT JUMPDEST CALLVALUE PUSH2 0x1A8 JUMPI PUSH1 0x20 CALLDATASIZE PUSH1 0x3 NOT ADD SLT PUSH2 0x1A8 JUMPI PUSH1 0x4 CALLDATALOAD PUSH1 0x1 PUSH1 0x1 PUSH1 0xA0 SHL SUB DUP2 DUP2 AND SWAP3 SWAP2 DUP4 SWAP1 SUB PUSH2 0x1A3 JUMPI DUP2 SLOAD AND PUSH1 0x40 MLOAD SWAP3 PUSH4 0x79D5C407 PUSH1 0xE1 SHL DUP5 MSTORE PUSH1 0x4 DUP5 ADD MSTORE PUSH1 0x24 SWAP1 DUP3 DUP5 DUP4 DUP2 DUP5 GAS STATICCALL SWAP4 DUP5 ISZERO PUSH2 0x198 JUMPI DUP4 SWAP5 PUSH2 0x174 JUMPI JUMPDEST POP DUP4 MLOAD SWAP2 PUSH2 0xD1 DUP4 PUSH2 0x13C2 JUMP JUMPDEST SWAP5 DUP5 JUMPDEST DUP5 DUP2 LT PUSH2 0xED JUMPI PUSH1 0x40 MLOAD DUP1 PUSH2 0xE9 DUP10 DUP3 PUSH2 0x10FC JUMP JUMPDEST SUB SWAP1 RETURN JUMPDEST PUSH2 0xF7 DUP2 DUP4 PUSH2 0x1437 JUMP JUMPDEST MLOAD PUSH1 0x40 MLOAD SWAP1 PUSH4 0x1D591EB7 PUSH1 0xE3 SHL DUP3 MSTORE PUSH1 0x4 DUP3 ADD MSTORE DUP7 DUP2 DUP6 DUP2 DUP9 GAS STATICCALL SWAP1 DUP2 ISZERO PUSH2 0x169 JUMPI SWAP1 PUSH2 0x142 SWAP3 SWAP2 DUP9 SWAP2 PUSH2 0x147 JUMPI JUMPDEST POP PUSH2 0x131 DUP3 DUP11 PUSH2 0x1437 JUMP JUMPDEST MSTORE PUSH2 0x13C DUP2 DUP10 PUSH2 0x1437 JUMP JUMPDEST POP PUSH2 0x1412 JUMP JUMPDEST PUSH2 0xD4 JUMP JUMPDEST PUSH2 0x163 SWAP2 POP RETURNDATASIZE DUP1 DUP11 DUP4 RETURNDATACOPY PUSH2 0x15B DUP2 DUP4 PUSH2 0x11A3 JUMP JUMPDEST DUP2 ADD SWAP1 PUSH2 0x14A3 JUMP JUMPDEST CODESIZE PUSH2 0x126 JUMP JUMPDEST PUSH1 0x40 MLOAD RETURNDATASIZE DUP10 DUP3 RETURNDATACOPY RETURNDATASIZE SWAP1 REVERT JUMPDEST PUSH2 0x191 SWAP2 SWAP5 POP RETURNDATASIZE DUP1 DUP6 DUP4 RETURNDATACOPY PUSH2 0x189 DUP2 DUP4 PUSH2 0x11A3 JUMP JUMPDEST DUP2 ADD SWAP1 PUSH2 0x12E8 JUMP JUMPDEST SWAP3 CODESIZE PUSH2 0xC4 JUMP JUMPDEST PUSH1 0x40 MLOAD RETURNDATASIZE DUP6 DUP3 RETURNDATACOPY RETURNDATASIZE SWAP1 REVERT JUMPDEST PUSH1 0x0 DUP1 REVERT JUMPDEST DUP1 REVERT JUMPDEST POP CALLVALUE PUSH2 0x1A8 JUMPI PUSH1 0x20 CALLDATASIZE PUSH1 0x3 NOT ADD SLT PUSH2 0x1A8 JUMPI PUSH2 0x1C5 PUSH2 0x1361 JUMP JUMPDEST POP DUP1 SLOAD PUSH1 0x40 MLOAD PUSH4 0x1D591EB7 PUSH1 0xE3 SHL DUP2 MSTORE PUSH1 0x4 DUP1 CALLDATALOAD SWAP1 DUP3 ADD MSTORE SWAP1 DUP3 SWAP1 DUP3 SWAP1 PUSH1 0x24 SWAP1 DUP3 SWAP1 PUSH1 0x1 PUSH1 0x1 PUSH1 0xA0 SHL SUB AND GAS STATICCALL SWAP1 DUP2 ISZERO PUSH2 0x235 JUMPI DUP3 PUSH2 0xE9 SWAP4 SWAP3 PUSH2 0x21A JUMPI JUMPDEST POP POP PUSH1 0x40 MLOAD SWAP2 DUP3 SWAP2 PUSH1 0x20 DUP4 MSTORE PUSH1 0x20 DUP4 ADD SWAP1 PUSH2 0xF26 JUMP JUMPDEST PUSH2 0x22E SWAP3 POP RETURNDATASIZE DUP1 SWAP2 DUP4 RETURNDATACOPY PUSH2 0x15B DUP2 DUP4 PUSH2 0x11A3 JUMP JUMPDEST CODESIZE DUP1 PUSH2 0x204 JUMP JUMPDEST PUSH1 0x40 MLOAD RETURNDATASIZE DUP5 DUP3 RETURNDATACOPY RETURNDATASIZE SWAP1 REVERT JUMPDEST POP CALLVALUE PUSH2 0x1A8 JUMPI PUSH2 0x140 CALLDATASIZE PUSH1 0x3 NOT ADD SLT PUSH2 0x1A8 JUMPI PUSH1 0x1 PUSH1 0x1 PUSH1 0x40 SHL SUB PUSH1 0x24 CALLDATALOAD DUP2 DUP2 GT PUSH2 0x556 JUMPI PUSH2 0x273 SWAP1 CALLDATASIZE SWAP1 PUSH1 0x4 ADD PUSH2 0x11E1 JUMP JUMPDEST PUSH1 0x44 CALLDATALOAD DUP3 DUP2 GT PUSH2 0x53A JUMPI PUSH2 0x28B SWAP1 CALLDATASIZE SWAP1 PUSH1 0x4 ADD PUSH2 0x11E1 JUMP JUMPDEST SWAP1 PUSH1 0x64 CALLDATALOAD DUP4 DUP2 GT PUSH2 0x6BA JUMPI PUSH2 0x2A4 SWAP1 CALLDATASIZE SWAP1 PUSH1 0x4 ADD PUSH2 0x11E1 JUMP JUMPDEST SWAP3 PUSH1 0xA4 CALLDATALOAD SWAP2 PUSH1 0x1 PUSH1 0x1 PUSH1 0xA0 SHL SUB DUP4 AND DUP4 SUB PUSH2 0x1A3 JUMPI PUSH1 0xC4 CALLDATALOAD DUP3 DUP2 GT PUSH2 0x586 JUMPI PUSH2 0x2D1 SWAP1 CALLDATASIZE SWAP1 PUSH1 0x4 ADD PUSH2 0x11E1 JUMP JUMPDEST SWAP5 PUSH1 0xE4 CALLDATALOAD DUP4 DUP2 GT PUSH2 0x6B6 JUMPI PUSH2 0x2EA SWAP1 CALLDATASIZE SWAP1 PUSH1 0x4 ADD PUSH2 0x11E1 JUMP JUMPDEST SWAP3 PUSH2 0x104 CALLDATALOAD SWAP1 DUP2 GT PUSH2 0x6B6 JUMPI PUSH2 0x304 SWAP1 CALLDATASIZE SWAP1 PUSH1 0x4 ADD PUSH2 0x123F JUMP JUMPDEST PUSH1 0x5 PUSH2 0x124 CALLDATALOAD LT ISZERO PUSH2 0x6B6 JUMPI PUSH1 0x1 SLOAD PUSH1 0x1 PUSH1 0x1 PUSH1 0xA0 SHL SUB AND CALLER SUB PUSH2 0x662 JUMPI PUSH1 0x4 CALLDATALOAD ISZERO PUSH2 0x626 JUMPI TIMESTAMP PUSH1 0x84 CALLDATALOAD LT PUSH2 0x5D0 JUMPI PUSH1 0x1 PUSH1 0x1 PUSH1 0xA0 SHL SUB DUP6 AND ISZERO PUSH2 0x592 JUMPI DUP8 SLOAD PUSH1 0x40 MLOAD PUSH4 0xAAC5DFD PUSH1 0xE0 SHL DUP2 MSTORE SWAP7 DUP10 SWAP6 PUSH1 0x1 PUSH1 0x1 PUSH1 0xA0 SHL SUB SWAP1 SWAP3 AND SWAP4 SWAP1 PUSH1 0x20 DUP10 PUSH1 0x4 DUP2 DUP9 GAS STATICCALL SWAP9 DUP10 ISZERO PUSH2 0x169 JUMPI DUP8 SWAP10 PUSH2 0x55A JUMPI JUMPDEST POP PUSH1 0x40 MLOAD SWAP6 PUSH2 0x386 DUP8 PUSH2 0x1187 JUMP JUMPDEST DUP10 DUP8 MSTORE PUSH1 0x4 CALLDATALOAD PUSH1 0x20 DUP9 ADD MSTORE PUSH1 0x40 DUP8 ADD MSTORE PUSH1 0x60 DUP7 ADD MSTORE PUSH1 0x80 DUP6 ADD MSTORE TIMESTAMP PUSH1 0xA0 DUP6 ADD MSTORE PUSH1 0x84 CALLDATALOAD PUSH1 0xC0 DUP6 ADD MSTORE PUSH1 0x60 PUSH1 0xE0 DUP6 ADD MSTORE DUP5 PUSH2 0x100 DUP6 ADD MSTORE DUP5 PUSH2 0x120 DUP6 ADD MSTORE PUSH2 0x140 DUP5 ADD MSTORE PUSH2 0x160 DUP4 ADD MSTORE PUSH2 0x124 CALLDATALOAD PUSH2 0x180 DUP4 ADD MSTORE DUP1 EXTCODESIZE ISZERO PUSH2 0x556 JUMPI PUSH2 0x412 DUP4 SWAP3 SWAP2 DUP4 SWAP3 PUSH1 0x40 MLOAD SWAP5 DUP6 DUP1 SWAP5 DUP2 SWAP4 PUSH4 0x1B8513E9 PUSH1 0xE3 SHL DUP4 MSTORE DUP12 PUSH1 0x4 DUP5 ADD MSTORE PUSH1 0x60 PUSH1 0x24 DUP5 ADD MSTORE PUSH1 0x64 DUP4 ADD SWAP1 PUSH2 0xF26 JUMP JUMPDEST PUSH1 0x1 PUSH1 0x1 PUSH1 0xA0 SHL SUB DUP11 AND PUSH1 0x44 DUP4 ADD MSTORE SUB SWAP3 GAS CALL DUP1 ISZERO PUSH2 0x235 JUMPI PUSH2 0x542 JUMPI JUMPDEST POP DUP1 SLOAD PUSH1 0x1 PUSH1 0x1 PUSH1 0xA0 SHL SUB AND DUP1 EXTCODESIZE ISZERO PUSH2 0x53E JUMPI PUSH1 0x40 MLOAD PUSH4 0x34FF2619 PUSH1 0xE2 SHL DUP2 MSTORE PUSH1 0x1 PUSH1 0x1 PUSH1 0xA0 SHL SUB DUP5 AND PUSH1 0x4 DUP3 ADD MSTORE PUSH1 0x24 DUP2 ADD DUP6 SWAP1 MSTORE PUSH1 0x60 PUSH1 0x44 DUP3 ADD MSTORE SWAP1 DUP3 SWAP1 DUP3 SWAP1 DUP2 DUP4 DUP2 PUSH2 0x482 PUSH1 0x64 DUP3 ADD DUP13 PUSH2 0xEDE JUMP JUMPDEST SUB SWAP3 GAS CALL DUP1 ISZERO PUSH2 0x235 JUMPI PUSH2 0x526 JUMPI JUMPDEST POP POP PUSH1 0x40 MLOAD PUSH1 0x20 DUP1 DUP3 MSTORE PUSH1 0x1 PUSH1 0x1 PUSH1 0xA0 SHL SUB SWAP1 SWAP3 AND SWAP4 PUSH32 0x49B4E4C6879CDC85B51D8C3B572252AAA7842EDB863810854ACB6D2ED420D962 SWAP3 DUP3 SWAP2 PUSH2 0x4D7 SWAP2 DUP4 ADD SWAP1 PUSH2 0xEDE JUMP JUMPDEST SUB SWAP1 LOG3 DUP1 SLOAD DUP2 SWAP1 PUSH1 0x1 PUSH1 0x1 PUSH1 0xA0 SHL SUB AND DUP1 EXTCODESIZE ISZERO PUSH2 0x523 JUMPI DUP2 DUP1 SWAP2 PUSH1 0x4 PUSH1 0x40 MLOAD DUP1 SWAP5 DUP2 SWAP4 PUSH4 0x2C5BDB1F PUSH1 0xE0 SHL DUP4 MSTORE GAS CALL DUP1 ISZERO PUSH2 0x235 JUMPI PUSH2 0x513 JUMPI POP RETURN JUMPDEST PUSH2 0x51C SWAP1 PUSH2 0x115E JUMP JUMPDEST PUSH2 0x1A8 JUMPI DUP1 RETURN JUMPDEST POP REVERT JUMPDEST PUSH2 0x52F SWAP1 PUSH2 0x115E JUMP JUMPDEST PUSH2 0x53A JUMPI DUP4 CODESIZE PUSH2 0x491 JUMP JUMPDEST DUP4 DUP1 REVERT JUMPDEST POP DUP1 REVERT JUMPDEST PUSH2 0x54B SWAP1 PUSH2 0x115E JUMP JUMPDEST PUSH2 0x53A JUMPI DUP4 CODESIZE PUSH2 0x430 JUMP JUMPDEST DUP3 DUP1 REVERT JUMPDEST SWAP1 SWAP9 POP PUSH1 0x20 DUP2 RETURNDATASIZE PUSH1 0x20 GT PUSH2 0x58A JUMPI JUMPDEST DUP2 PUSH2 0x576 PUSH1 0x20 SWAP4 DUP4 PUSH2 0x11A3 JUMP JUMPDEST DUP2 ADD SUB SLT PUSH2 0x586 JUMPI MLOAD SWAP8 CODESIZE PUSH2 0x378 JUMP JUMPDEST DUP7 DUP1 REVERT JUMPDEST RETURNDATASIZE SWAP2 POP PUSH2 0x569 JUMP JUMPDEST PUSH1 0x40 MLOAD PUSH3 0x461BCD PUSH1 0xE5 SHL DUP2 MSTORE PUSH1 0x20 PUSH1 0x4 DUP3 ADD MSTORE PUSH1 0x16 PUSH1 0x24 DUP3 ADD MSTORE PUSH22 0x416464726573732063616E6E6F74206265207A65726F PUSH1 0x50 SHL PUSH1 0x44 DUP3 ADD MSTORE PUSH1 0x64 SWAP1 REVERT JUMPDEST PUSH1 0x40 MLOAD PUSH3 0x461BCD PUSH1 0xE5 SHL DUP2 MSTORE PUSH1 0x20 PUSH1 0x4 DUP3 ADD MSTORE PUSH1 0x28 PUSH1 0x24 DUP3 ADD MSTORE PUSH32 0x50726F6A65637420656E6420646174652073686F756C6420626520696E207468 PUSH1 0x44 DUP3 ADD MSTORE PUSH8 0x6520667574757265 PUSH1 0xC0 SHL PUSH1 0x64 DUP3 ADD MSTORE PUSH1 0x84 SWAP1 REVERT JUMPDEST PUSH1 0x40 MLOAD PUSH3 0x461BCD PUSH1 0xE5 SHL DUP2 MSTORE PUSH1 0x20 PUSH1 0x4 DUP3 ADD MSTORE PUSH1 0x14 PUSH1 0x24 DUP3 ADD MSTORE PUSH20 0x50726963652063616E6E6F74206265207A65726F PUSH1 0x60 SHL PUSH1 0x44 DUP3 ADD MSTORE PUSH1 0x64 SWAP1 REVERT JUMPDEST PUSH1 0x40 MLOAD PUSH3 0x461BCD PUSH1 0xE5 SHL DUP2 MSTORE PUSH1 0x20 PUSH1 0x4 DUP3 ADD MSTORE PUSH1 0x26 PUSH1 0x24 DUP3 ADD MSTORE PUSH32 0x4F6E6C792073757065727669736F722063616E2063616C6C2074686973206675 PUSH1 0x44 DUP3 ADD MSTORE PUSH6 0x3731BA34B7B7 PUSH1 0xD1 SHL PUSH1 0x64 DUP3 ADD MSTORE PUSH1 0x84 SWAP1 REVERT JUMPDEST DUP8 DUP1 REVERT JUMPDEST DUP5 DUP1 REVERT JUMPDEST POP CALLVALUE PUSH2 0x1A8 JUMPI DUP1 PUSH1 0x3 NOT CALLDATASIZE ADD SLT PUSH2 0x1A8 JUMPI PUSH1 0x1 SLOAD PUSH1 0x40 MLOAD PUSH1 0x1 PUSH1 0x1 PUSH1 0xA0 SHL SUB SWAP1 SWAP2 AND DUP2 MSTORE PUSH1 0x20 SWAP1 RETURN JUMPDEST POP CALLVALUE PUSH2 0x1A8 JUMPI PUSH1 0x80 CALLDATASIZE PUSH1 0x3 NOT ADD SLT PUSH2 0x1A8 JUMPI PUSH1 0x24 SWAP1 PUSH1 0x1 PUSH1 0x1 PUSH1 0x40 SHL SUB PUSH1 0x4 CALLDATALOAD DUP4 CALLDATALOAD DUP3 DUP2 GT PUSH2 0x53A JUMPI PUSH2 0x71E SWAP1 CALLDATASIZE SWAP1 PUSH1 0x4 ADD PUSH2 0x11E1 JUMP JUMPDEST SWAP2 PUSH1 0x44 CALLDATALOAD DUP2 DUP2 GT PUSH2 0x6BA JUMPI PUSH2 0x737 SWAP1 CALLDATASIZE SWAP1 PUSH1 0x4 ADD PUSH2 0x123F JUMP JUMPDEST SWAP1 PUSH1 0x64 CALLDATALOAD SWAP1 DUP2 GT PUSH2 0x6BA JUMPI PUSH2 0x750 SWAP1 CALLDATASIZE SWAP1 PUSH1 0x4 ADD PUSH2 0x11E1 JUMP JUMPDEST DUP5 SLOAD PUSH1 0x40 MLOAD PUSH4 0x4F558E79 PUSH1 0xE0 SHL DUP2 MSTORE PUSH1 0x4 DUP2 ADD DUP6 SWAP1 MSTORE PUSH1 0x1 PUSH1 0x1 PUSH1 0xA0 SHL SUB SWAP1 SWAP2 AND SWAP3 SWAP1 PUSH1 0x20 SWAP1 DUP2 DUP2 DUP11 DUP2 DUP9 GAS STATICCALL SWAP1 DUP2 ISZERO PUSH2 0x918 JUMPI DUP9 SWAP2 PUSH2 0x95D JUMPI JUMPDEST POP ISZERO PUSH2 0x923 JUMPI PUSH1 0x40 MLOAD PUSH4 0x430C2081 PUSH1 0xE0 SHL DUP2 MSTORE CALLER PUSH1 0x4 DUP3 ADD MSTORE DUP9 DUP2 ADD DUP7 SWAP1 MSTORE DUP2 DUP2 PUSH1 0x44 DUP2 DUP9 GAS STATICCALL SWAP1 DUP2 ISZERO PUSH2 0x918 JUMPI DUP9 SWAP2 PUSH2 0x8EB JUMPI JUMPDEST POP ISZERO PUSH2 0x8B0 JUMPI POP DUP6 SWAP4 SWAP3 SWAP2 DUP8 SWAP2 PUSH1 0x40 MLOAD SWAP7 PUSH4 0x1D591EB7 PUSH1 0xE3 SHL DUP9 MSTORE DUP6 PUSH1 0x4 DUP10 ADD MSTORE DUP7 DUP9 DUP6 DUP2 DUP9 GAS STATICCALL SWAP8 DUP9 ISZERO PUSH2 0x169 JUMPI DUP8 SWAP9 PUSH2 0x894 JUMPI JUMPDEST POP DUP1 MLOAD ISZERO PUSH2 0x888 JUMPI JUMPDEST PUSH2 0x140 DUP9 ADD MSTORE DUP1 MLOAD ISZERO PUSH2 0x87C JUMPI JUMPDEST PUSH2 0x160 DUP8 ADD MSTORE DUP1 MLOAD ISZERO PUSH2 0x871 JUMPI JUMPDEST PUSH1 0x80 DUP7 ADD MSTORE DUP2 EXTCODESIZE ISZERO PUSH2 0x53A JUMPI DUP4 PUSH1 0x40 SWAP4 PUSH2 0x853 DUP6 MLOAD SWAP8 DUP9 SWAP7 DUP8 SWAP6 DUP7 SWAP5 PUSH4 0x1C299529 PUSH1 0xE3 SHL DUP7 MSTORE PUSH1 0x4 DUP7 ADD MSTORE DUP5 ADD MSTORE PUSH1 0x44 DUP4 ADD SWAP1 PUSH2 0xF26 JUMP JUMPDEST SUB SWAP3 GAS CALL DUP1 ISZERO PUSH2 0x235 JUMPI PUSH2 0x865 JUMPI POP DUP1 RETURN JUMPDEST PUSH2 0x86E SWAP1 PUSH2 0x115E JUMP JUMPDEST DUP1 RETURN JUMPDEST POP PUSH1 0x80 DUP6 ADD MLOAD PUSH2 0x81B JUMP JUMPDEST POP PUSH2 0x160 DUP7 ADD MLOAD PUSH2 0x80D JUMP JUMPDEST POP PUSH2 0x140 DUP8 ADD MLOAD PUSH2 0x7FF JUMP JUMPDEST PUSH2 0x8A9 SWAP2 SWAP9 POP RETURNDATASIZE DUP1 DUP10 DUP4 RETURNDATACOPY PUSH2 0x15B DUP2 DUP4 PUSH2 0x11A3 JUMP JUMPDEST SWAP7 DUP10 PUSH2 0x7F6 JUMP JUMPDEST PUSH1 0x64 SWAP1 PUSH1 0x15 DUP10 PUSH1 0x40 MLOAD SWAP3 PUSH3 0x461BCD PUSH1 0xE5 SHL DUP5 MSTORE PUSH1 0x4 DUP5 ADD MSTORE DUP3 ADD MSTORE PUSH21 0x2737BA1030B8383937BB32B21037B91037BBB732B9 PUSH1 0x59 SHL PUSH1 0x44 DUP3 ADD MSTORE REVERT JUMPDEST PUSH2 0x90B SWAP2 POP DUP3 RETURNDATASIZE DUP5 GT PUSH2 0x911 JUMPI JUMPDEST PUSH2 0x903 DUP2 DUP4 PUSH2 0x11A3 JUMP JUMPDEST DUP2 ADD SWAP1 PUSH2 0x174E JUMP JUMPDEST CODESIZE PUSH2 0x7C0 JUMP JUMPDEST POP RETURNDATASIZE PUSH2 0x8F9 JUMP JUMPDEST PUSH1 0x40 MLOAD RETURNDATASIZE DUP11 DUP3 RETURNDATACOPY RETURNDATASIZE SWAP1 REVERT JUMPDEST PUSH1 0x64 SWAP1 PUSH1 0x14 DUP10 PUSH1 0x40 MLOAD SWAP3 PUSH3 0x461BCD PUSH1 0xE5 SHL DUP5 MSTORE PUSH1 0x4 DUP5 ADD MSTORE DUP3 ADD MSTORE PUSH20 0x105CDCD95D08191BD95CC81B9BDD08195E1A5CDD PUSH1 0x62 SHL PUSH1 0x44 DUP3 ADD MSTORE REVERT JUMPDEST PUSH2 0x974 SWAP2 POP DUP3 RETURNDATASIZE DUP5 GT PUSH2 0x911 JUMPI PUSH2 0x903 DUP2 DUP4 PUSH2 0x11A3 JUMP JUMPDEST CODESIZE PUSH2 0x78B JUMP JUMPDEST POP CALLVALUE PUSH2 0x1A8 JUMPI PUSH1 0x40 CALLDATASIZE PUSH1 0x3 NOT ADD SLT PUSH2 0x1A8 JUMPI PUSH1 0x4 CALLDATALOAD PUSH1 0x4 DUP2 LT ISZERO PUSH2 0x53E JUMPI PUSH1 0x24 DUP1 CALLDATALOAD SWAP2 PUSH1 0x5 DUP4 LT ISZERO PUSH2 0x53A JUMPI DUP1 PUSH2 0xBAE JUMPI POP DUP3 SLOAD PUSH1 0x40 MLOAD PUSH4 0x1FB15DD PUSH1 0xE3 SHL DUP2 MSTORE SWAP1 DUP5 SWAP1 DUP3 SWAP1 PUSH1 0x4 SWAP1 DUP3 SWAP1 PUSH1 0x1 PUSH1 0x1 PUSH1 0xA0 SHL SUB AND GAS STATICCALL SWAP1 DUP2 ISZERO PUSH2 0xBA3 JUMPI DUP5 SWAP2 PUSH2 0xB89 JUMPI JUMPDEST POP SWAP3 JUMPDEST DUP1 SLOAD PUSH1 0x40 MLOAD PUSH4 0xA2311D5F PUSH1 0xE0 SHL DUP2 MSTORE PUSH1 0x1 PUSH1 0x1 PUSH1 0xA0 SHL SUB SWAP1 SWAP2 AND SWAP4 PUSH2 0xA0A SWAP1 PUSH1 0x4 DUP4 ADD SWAP1 PUSH2 0xF03 JUMP JUMPDEST DUP2 DUP2 DUP5 DUP2 DUP8 GAS STATICCALL SWAP1 DUP2 ISZERO PUSH2 0x235 JUMPI DUP3 SWAP2 PUSH2 0xB6F JUMPI JUMPDEST POP DUP1 MLOAD SWAP3 PUSH2 0xA2C DUP5 PUSH2 0x1228 JUMP JUMPDEST SWAP4 PUSH2 0xA3A PUSH1 0x40 MLOAD SWAP6 DUP7 PUSH2 0x11A3 JUMP JUMPDEST DUP1 DUP6 MSTORE PUSH2 0xA49 PUSH1 0x1F NOT SWAP2 PUSH2 0x1228 JUMP JUMPDEST ADD CALLDATASIZE PUSH1 0x20 DUP7 ADD CALLDATACOPY DUP3 SWAP1 DUP4 JUMPDEST DUP8 MLOAD DUP2 LT ISZERO PUSH2 0xA81 JUMPI DUP1 PUSH2 0xA6B PUSH2 0xA7C SWAP3 DUP11 PUSH2 0x1437 JUMP JUMPDEST MLOAD PUSH2 0xA76 DUP3 DUP10 PUSH2 0x1437 JUMP JUMPDEST MSTORE PUSH2 0x1412 JUMP JUMPDEST PUSH2 0xA54 JUMP JUMPDEST POP SWAP1 SWAP2 SWAP3 SWAP5 PUSH2 0xA90 DUP5 MLOAD PUSH2 0x13C2 JUMP JUMPDEST SWAP2 DUP7 SWAP5 JUMPDEST DUP1 MLOAD DUP7 LT ISZERO PUSH2 0xB61 JUMPI DUP8 JUMPDEST DUP8 MLOAD DUP2 LT ISZERO PUSH2 0xB56 JUMPI PUSH2 0xAB2 DUP8 DUP4 PUSH2 0x1437 JUMP JUMPDEST MLOAD PUSH2 0xABD DUP3 DUP11 PUSH2 0x1437 JUMP JUMPDEST MLOAD EQ PUSH2 0xAD1 JUMPI PUSH2 0xACC SWAP1 PUSH2 0x1412 JUMP JUMPDEST PUSH2 0xA9F JUMP JUMPDEST POP SWAP5 SWAP4 PUSH2 0xADE DUP6 DUP8 PUSH2 0x1437 JUMP JUMPDEST MLOAD PUSH1 0x40 MLOAD SWAP1 PUSH4 0x1D591EB7 PUSH1 0xE3 SHL DUP3 MSTORE PUSH1 0x4 DUP3 ADD MSTORE DUP9 DUP2 DUP5 DUP2 DUP8 GAS STATICCALL SWAP2 DUP3 ISZERO PUSH2 0xB4B JUMPI PUSH2 0xB2B SWAP3 PUSH2 0xB25 SWAP3 DUP12 SWAP2 PUSH2 0xB31 JUMPI JUMPDEST POP PUSH2 0xB1A DUP3 DUP9 PUSH2 0x1437 JUMP JUMPDEST MSTORE PUSH2 0x13C DUP2 DUP8 PUSH2 0x1437 JUMP JUMPDEST SWAP5 PUSH2 0x1412 JUMP JUMPDEST SWAP5 PUSH2 0xA94 JUMP JUMPDEST PUSH2 0xB45 SWAP2 POP RETURNDATASIZE DUP1 DUP14 DUP4 RETURNDATACOPY PUSH2 0x15B DUP2 DUP4 PUSH2 0x11A3 JUMP JUMPDEST DUP12 PUSH2 0xB0F JUMP JUMPDEST PUSH1 0x40 MLOAD RETURNDATASIZE DUP12 DUP3 RETURNDATACOPY RETURNDATASIZE SWAP1 REVERT JUMPDEST POP SWAP5 PUSH2 0xB2B SWAP1 PUSH2 0x1412 JUMP JUMPDEST PUSH1 0x40 MLOAD DUP1 PUSH2 0xE9 DUP7 DUP3 PUSH2 0x10FC JUMP JUMPDEST PUSH2 0xB83 SWAP2 POP RETURNDATASIZE DUP1 DUP5 DUP4 RETURNDATACOPY PUSH2 0x189 DUP2 DUP4 PUSH2 0x11A3 JUMP JUMPDEST CODESIZE PUSH2 0xA1F JUMP JUMPDEST PUSH2 0xB9D SWAP2 POP RETURNDATASIZE DUP1 DUP7 DUP4 RETURNDATACOPY PUSH2 0x189 DUP2 DUP4 PUSH2 0x11A3 JUMP JUMPDEST CODESIZE PUSH2 0x9DE JUMP JUMPDEST PUSH1 0x40 MLOAD RETURNDATASIZE DUP7 DUP3 RETURNDATACOPY RETURNDATASIZE SWAP1 REVERT JUMPDEST PUSH1 0x1 DUP2 SUB PUSH2 0xC09 JUMPI POP DUP3 SLOAD PUSH1 0x40 MLOAD PUSH3 0xDEE23 PUSH1 0xE5 SHL DUP2 MSTORE SWAP1 DUP5 SWAP1 DUP3 SWAP1 PUSH1 0x4 SWAP1 DUP3 SWAP1 PUSH1 0x1 PUSH1 0x1 PUSH1 0xA0 SHL SUB AND GAS STATICCALL SWAP1 DUP2 ISZERO PUSH2 0xBA3 JUMPI DUP5 SWAP2 PUSH2 0xBEF JUMPI JUMPDEST POP SWAP3 PUSH2 0x9E1 JUMP JUMPDEST PUSH2 0xC03 SWAP2 POP RETURNDATASIZE DUP1 DUP7 DUP4 RETURNDATACOPY PUSH2 0x189 DUP2 DUP4 PUSH2 0x11A3 JUMP JUMPDEST CODESIZE PUSH2 0xBE8 JUMP JUMPDEST PUSH1 0x2 DUP2 SUB PUSH2 0xC4A JUMPI POP DUP3 SLOAD PUSH1 0x40 MLOAD PUSH4 0xF4FACC5 PUSH1 0xE2 SHL DUP2 MSTORE SWAP1 DUP5 SWAP1 DUP3 SWAP1 PUSH1 0x4 SWAP1 DUP3 SWAP1 PUSH1 0x1 PUSH1 0x1 PUSH1 0xA0 SHL SUB AND GAS STATICCALL SWAP1 DUP2 ISZERO PUSH2 0xBA3 JUMPI DUP5 SWAP2 PUSH2 0xBEF JUMPI POP SWAP3 PUSH2 0x9E1 JUMP JUMPDEST PUSH1 0x3 SUB PUSH2 0xC89 JUMPI DUP3 SLOAD PUSH1 0x40 MLOAD PUSH4 0x5AFF92C1 PUSH1 0xE1 SHL DUP2 MSTORE SWAP1 DUP5 SWAP1 DUP3 SWAP1 PUSH1 0x4 SWAP1 DUP3 SWAP1 PUSH1 0x1 PUSH1 0x1 PUSH1 0xA0 SHL SUB AND GAS STATICCALL SWAP1 DUP2 ISZERO PUSH2 0xBA3 JUMPI DUP5 SWAP2 PUSH2 0xBEF JUMPI POP SWAP3 PUSH2 0x9E1 JUMP JUMPDEST PUSH1 0x40 MLOAD PUSH3 0x461BCD PUSH1 0xE5 SHL DUP2 MSTORE DUP1 PUSH2 0xCA2 PUSH1 0x4 DUP3 ADD PUSH2 0x12BF JUMP JUMPDEST SUB SWAP1 REVERT JUMPDEST SWAP1 POP CALLVALUE PUSH2 0x53E JUMPI PUSH1 0x20 CALLDATASIZE PUSH1 0x3 NOT ADD SLT PUSH2 0x53E JUMPI PUSH1 0x4 CALLDATALOAD PUSH1 0x4 DUP2 LT ISZERO PUSH2 0x556 JUMPI DUP1 PUSH2 0xDC7 JUMPI POP POP DUP1 SLOAD PUSH1 0x40 MLOAD PUSH4 0x1FB15DD PUSH1 0xE3 SHL DUP2 MSTORE SWAP1 DUP3 SWAP1 DUP3 SWAP1 PUSH1 0x4 SWAP1 DUP3 SWAP1 PUSH1 0x1 PUSH1 0x1 PUSH1 0xA0 SHL SUB AND GAS STATICCALL SWAP1 DUP2 ISZERO PUSH2 0x235 JUMPI DUP3 SWAP2 PUSH2 0xDAD JUMPI JUMPDEST POP SWAP1 JUMPDEST DUP2 MLOAD PUSH2 0xD0C DUP2 PUSH2 0x13C2 JUMP JUMPDEST DUP3 SLOAD SWAP1 SWAP4 PUSH1 0x1 PUSH1 0x1 PUSH1 0xA0 SHL SUB SWAP1 SWAP2 AND SWAP1 DUP4 JUMPDEST DUP4 DUP2 LT PUSH2 0xD33 JUMPI PUSH1 0x40 MLOAD DUP1 PUSH2 0xE9 DUP9 DUP3 PUSH2 0x10FC JUMP JUMPDEST PUSH2 0xD3D DUP2 DUP4 PUSH2 0x1437 JUMP JUMPDEST MLOAD PUSH1 0x40 MLOAD SWAP1 PUSH4 0x1D591EB7 PUSH1 0xE3 SHL DUP3 MSTORE PUSH1 0x4 DUP3 ADD MSTORE DUP6 DUP2 PUSH1 0x24 DUP2 DUP8 GAS STATICCALL SWAP1 DUP2 ISZERO PUSH2 0xDA2 JUMPI SWAP1 PUSH2 0xD83 SWAP3 SWAP2 DUP8 SWAP2 PUSH2 0xD88 JUMPI JUMPDEST POP PUSH2 0xD78 DUP3 DUP10 PUSH2 0x1437 JUMP JUMPDEST MSTORE PUSH2 0x13C DUP2 DUP9 PUSH2 0x1437 JUMP JUMPDEST PUSH2 0xD1E JUMP JUMPDEST PUSH2 0xD9C SWAP2 POP RETURNDATASIZE DUP1 DUP10 DUP4 RETURNDATACOPY PUSH2 0x15B DUP2 DUP4 PUSH2 0x11A3 JUMP JUMPDEST CODESIZE PUSH2 0xD6D JUMP JUMPDEST PUSH1 0x40 MLOAD RETURNDATASIZE DUP9 DUP3 RETURNDATACOPY RETURNDATASIZE SWAP1 REVERT JUMPDEST PUSH2 0xDC1 SWAP2 POP RETURNDATASIZE DUP1 DUP5 DUP4 RETURNDATACOPY PUSH2 0x189 DUP2 DUP4 PUSH2 0x11A3 JUMP JUMPDEST CODESIZE PUSH2 0xCFE JUMP JUMPDEST PUSH1 0x1 DUP2 SUB PUSH2 0xE23 JUMPI POP POP DUP1 SLOAD PUSH1 0x40 MLOAD PUSH3 0xDEE23 PUSH1 0xE5 SHL DUP2 MSTORE SWAP1 DUP3 SWAP1 DUP3 SWAP1 PUSH1 0x4 SWAP1 DUP3 SWAP1 PUSH1 0x1 PUSH1 0x1 PUSH1 0xA0 SHL SUB AND GAS STATICCALL SWAP1 DUP2 ISZERO PUSH2 0x235 JUMPI DUP3 SWAP2 PUSH2 0xE09 JUMPI JUMPDEST POP SWAP1 PUSH2 0xD01 JUMP JUMPDEST PUSH2 0xE1D SWAP2 POP RETURNDATASIZE DUP1 DUP5 DUP4 RETURNDATACOPY PUSH2 0x189 DUP2 DUP4 PUSH2 0x11A3 JUMP JUMPDEST CODESIZE PUSH2 0xE02 JUMP JUMPDEST PUSH1 0x2 DUP2 SUB PUSH2 0xE65 JUMPI POP POP DUP1 SLOAD PUSH1 0x40 MLOAD PUSH4 0xF4FACC5 PUSH1 0xE2 SHL DUP2 MSTORE SWAP1 DUP3 SWAP1 DUP3 SWAP1 PUSH1 0x4 SWAP1 DUP3 SWAP1 PUSH1 0x1 PUSH1 0x1 PUSH1 0xA0 SHL SUB AND GAS STATICCALL SWAP1 DUP2 ISZERO PUSH2 0x235 JUMPI DUP3 SWAP2 PUSH2 0xE09 JUMPI POP SWAP1 PUSH2 0xD01 JUMP JUMPDEST PUSH1 0x3 SUB PUSH2 0xEA5 JUMPI POP DUP1 SLOAD PUSH1 0x40 MLOAD PUSH4 0x5AFF92C1 PUSH1 0xE1 SHL DUP2 MSTORE SWAP1 DUP3 SWAP1 DUP3 SWAP1 PUSH1 0x4 SWAP1 DUP3 SWAP1 PUSH1 0x1 PUSH1 0x1 PUSH1 0xA0 SHL SUB AND GAS STATICCALL SWAP1 DUP2 ISZERO PUSH2 0x235 JUMPI DUP3 SWAP2 PUSH2 0xE09 JUMPI POP SWAP1 PUSH2 0xD01 JUMP JUMPDEST PUSH3 0x461BCD PUSH1 0xE5 SHL DUP2 MSTORE DUP1 PUSH2 0xCA2 PUSH1 0x4 DUP3 ADD PUSH2 0x12BF JUMP JUMPDEST PUSH1 0x0 JUMPDEST DUP4 DUP2 LT PUSH2 0xECE JUMPI POP POP PUSH1 0x0 SWAP2 ADD MSTORE JUMP JUMPDEST DUP2 DUP2 ADD MLOAD DUP4 DUP3 ADD MSTORE PUSH1 0x20 ADD PUSH2 0xEBE JUMP JUMPDEST SWAP1 PUSH1 0x20 SWAP2 PUSH2 0xEF7 DUP2 MLOAD DUP1 SWAP3 DUP2 DUP6 MSTORE DUP6 DUP1 DUP7 ADD SWAP2 ADD PUSH2 0xEBB JUMP JUMPDEST PUSH1 0x1F ADD PUSH1 0x1F NOT AND ADD ADD SWAP1 JUMP JUMPDEST SWAP1 PUSH1 0x5 DUP3 LT ISZERO PUSH2 0xF10 JUMPI MSTORE JUMP JUMPDEST PUSH4 0x4E487B71 PUSH1 0xE0 SHL PUSH1 0x0 MSTORE PUSH1 0x21 PUSH1 0x4 MSTORE PUSH1 0x24 PUSH1 0x0 REVERT JUMPDEST SWAP2 SWAP1 DUP3 MLOAD DUP2 MSTORE PUSH1 0x20 SWAP1 DUP2 DUP5 ADD MLOAD DUP3 DUP3 ADD MSTORE PUSH1 0x40 PUSH2 0xF50 DUP2 DUP7 ADD MLOAD PUSH2 0x1A0 DUP1 DUP5 DUP7 ADD MSTORE DUP5 ADD SWAP1 PUSH2 0xEDE JUMP JUMPDEST PUSH2 0xF66 PUSH1 0x60 SWAP2 DUP3 DUP9 ADD MLOAD DUP6 DUP3 SUB DUP5 DUP8 ADD MSTORE PUSH2 0xEDE JUMP JUMPDEST SWAP2 PUSH2 0xF7D PUSH1 0x80 SWAP4 DUP5 DUP10 ADD MLOAD DUP7 DUP3 SUB DUP7 DUP9 ADD MSTORE PUSH2 0xEDE JUMP JUMPDEST PUSH1 0xA0 SWAP4 DUP5 DUP10 ADD MLOAD DUP6 DUP8 ADD MSTORE PUSH1 0xC0 SWAP3 DUP4 DUP11 ADD MLOAD DUP5 DUP9 ADD MSTORE PUSH1 0xE0 DUP11 ADD MLOAD SWAP6 DUP8 DUP5 SUB PUSH1 0xE0 DUP10 ADD MSTORE DUP7 MLOAD SWAP5 DUP6 DUP6 MSTORE DUP10 DUP6 ADD SWAP4 DUP11 DUP1 DUP9 PUSH1 0x5 SHL DUP9 ADD ADD SWAP10 ADD SWAP8 PUSH1 0x0 SWAP7 JUMPDEST DUP13 DUP10 DUP10 LT PUSH2 0x1089 JUMPI POP POP POP POP POP POP POP POP POP POP POP PUSH2 0x100 SWAP1 DUP2 DUP7 ADD MLOAD PUSH1 0x4 DUP2 LT ISZERO PUSH2 0xF10 JUMPI PUSH2 0x100D SWAP3 DUP5 ADD MSTORE PUSH2 0x120 PUSH1 0x1 DUP1 PUSH1 0xA0 SHL SUB DUP2 DUP9 ADD MLOAD AND SWAP1 DUP5 ADD MSTORE PUSH2 0x140 DUP1 DUP8 ADD MLOAD SWAP1 DUP5 DUP4 SUB SWAP1 DUP6 ADD MSTORE PUSH2 0xEDE JUMP JUMPDEST SWAP4 PUSH2 0x160 SWAP3 DUP4 DUP3 ADD MLOAD SWAP4 DUP4 DUP8 SUB SWAP1 DUP5 ADD MSTORE DUP4 MLOAD DUP1 DUP8 MSTORE DUP2 DUP8 ADD SWAP2 DUP1 DUP1 DUP4 PUSH1 0x5 SHL DUP11 ADD ADD SWAP7 ADD SWAP3 PUSH1 0x0 SWAP1 JUMPDEST DUP4 DUP3 LT PUSH2 0x105C JUMPI POP POP POP POP POP PUSH2 0x1059 SWAP3 SWAP4 SWAP5 POP PUSH2 0x180 DUP1 SWAP2 ADD MLOAD SWAP2 ADD SWAP1 PUSH2 0xF03 JUMP JUMPDEST SWAP1 JUMP JUMPDEST SWAP1 SWAP2 SWAP3 SWAP4 SWAP7 DUP4 DUP1 PUSH2 0x107A PUSH1 0x1 SWAP4 DUP14 PUSH1 0x1F NOT SWAP1 DUP3 SUB ADD DUP7 MSTORE DUP12 MLOAD PUSH2 0xEDE JUMP JUMPDEST SWAP10 ADD SWAP3 ADD SWAP3 ADD SWAP1 SWAP4 SWAP3 SWAP2 PUSH2 0x1037 JUMP JUMPDEST DUP1 PUSH1 0x1 SWAP3 SWAP4 SWAP5 SWAP6 SWAP7 SWAP8 SWAP9 SWAP10 SWAP11 SWAP12 SWAP13 PUSH1 0x1F NOT DUP6 DUP3 SUB ADD DUP12 MSTORE DUP14 MLOAD SWAP1 DUP10 DUP1 PUSH2 0x10C9 PUSH2 0x10B9 DUP6 MLOAD DUP14 DUP7 MSTORE DUP14 DUP7 ADD SWAP1 PUSH2 0xEDE JUMP JUMPDEST DUP7 DUP7 ADD MLOAD DUP6 DUP3 SUB DUP9 DUP8 ADD MSTORE PUSH2 0xEDE JUMP JUMPDEST SWAP4 DUP14 DUP1 DUP3 ADD MLOAD SWAP1 DUP6 ADD MSTORE DUP10 DUP2 ADD MLOAD DUP11 DUP6 ADD MSTORE DUP11 DUP2 ADD MLOAD DUP12 DUP6 ADD MSTORE ADD MLOAD SWAP2 ADD MSTORE SWAP13 ADD SWAP9 ADD SWAP9 ADD SWAP7 SWAP9 SWAP8 SWAP6 SWAP5 SWAP4 SWAP3 SWAP2 SWAP1 PUSH2 0xFBB JUMP JUMPDEST PUSH1 0x20 DUP1 DUP3 ADD SWAP1 DUP1 DUP4 MSTORE DUP4 MLOAD DUP1 SWAP3 MSTORE PUSH1 0x40 DUP4 ADD SWAP3 DUP2 PUSH1 0x40 DUP5 PUSH1 0x5 SHL DUP4 ADD ADD SWAP6 ADD SWAP4 PUSH1 0x0 SWAP2 JUMPDEST DUP5 DUP4 LT PUSH2 0x1130 JUMPI POP POP POP POP POP POP SWAP1 JUMP JUMPDEST SWAP1 SWAP2 SWAP3 SWAP4 SWAP5 SWAP6 DUP5 DUP1 PUSH2 0x114E PUSH1 0x1 SWAP4 PUSH1 0x3F NOT DUP7 DUP3 SUB ADD DUP8 MSTORE DUP11 MLOAD PUSH2 0xF26 JUMP JUMPDEST SWAP9 ADD SWAP4 ADD SWAP4 ADD SWAP2 SWAP5 SWAP4 SWAP3 SWAP1 PUSH2 0x1120 JUMP JUMPDEST PUSH1 0x1 PUSH1 0x1 PUSH1 0x40 SHL SUB DUP2 GT PUSH2 0x1171 JUMPI PUSH1 0x40 MSTORE JUMP JUMPDEST PUSH4 0x4E487B71 PUSH1 0xE0 SHL PUSH1 0x0 MSTORE PUSH1 0x41 PUSH1 0x4 MSTORE PUSH1 0x24 PUSH1 0x0 REVERT JUMPDEST PUSH2 0x1A0 DUP2 ADD SWAP1 DUP2 LT PUSH1 0x1 PUSH1 0x1 PUSH1 0x40 SHL SUB DUP3 GT OR PUSH2 0x1171 JUMPI PUSH1 0x40 MSTORE JUMP JUMPDEST PUSH1 0x1F SWAP1 SWAP2 ADD PUSH1 0x1F NOT AND DUP2 ADD SWAP1 PUSH1 0x1 PUSH1 0x1 PUSH1 0x40 SHL SUB DUP3 GT SWAP1 DUP3 LT OR PUSH2 0x1171 JUMPI PUSH1 0x40 MSTORE JUMP JUMPDEST PUSH1 0x1 PUSH1 0x1 PUSH1 0x40 SHL SUB DUP2 GT PUSH2 0x1171 JUMPI PUSH1 0x1F ADD PUSH1 0x1F NOT AND PUSH1 0x20 ADD SWAP1 JUMP JUMPDEST DUP2 PUSH1 0x1F DUP3 ADD SLT ISZERO PUSH2 0x1A3 JUMPI DUP1 CALLDATALOAD SWAP1 PUSH2 0x11F8 DUP3 PUSH2 0x11C6 JUMP JUMPDEST SWAP3 PUSH2 0x1206 PUSH1 0x40 MLOAD SWAP5 DUP6 PUSH2 0x11A3 JUMP JUMPDEST DUP3 DUP5 MSTORE PUSH1 0x20 DUP4 DUP4 ADD ADD GT PUSH2 0x1A3 JUMPI DUP2 PUSH1 0x0 SWAP3 PUSH1 0x20 DUP1 SWAP4 ADD DUP4 DUP7 ADD CALLDATACOPY DUP4 ADD ADD MSTORE SWAP1 JUMP JUMPDEST PUSH1 0x1 PUSH1 0x1 PUSH1 0x40 SHL SUB DUP2 GT PUSH2 0x1171 JUMPI PUSH1 0x5 SHL PUSH1 0x20 ADD SWAP1 JUMP JUMPDEST SWAP1 DUP1 PUSH1 0x1F DUP4 ADD SLT ISZERO PUSH2 0x1A3 JUMPI DUP2 CALLDATALOAD SWAP1 PUSH2 0x1257 DUP3 PUSH2 0x1228 JUMP JUMPDEST SWAP3 PUSH2 0x1265 PUSH1 0x40 MLOAD SWAP5 DUP6 PUSH2 0x11A3 JUMP JUMPDEST DUP3 DUP5 MSTORE PUSH1 0x20 SWAP3 DUP4 DUP1 DUP7 ADD SWAP2 PUSH1 0x5 SHL DUP4 ADD ADD SWAP3 DUP1 DUP5 GT PUSH2 0x1A3 JUMPI DUP5 DUP4 ADD SWAP2 JUMPDEST DUP5 DUP4 LT PUSH2 0x1293 JUMPI POP POP POP POP POP POP SWAP1 JUMP JUMPDEST DUP3 CALLDATALOAD PUSH1 0x1 PUSH1 0x1 PUSH1 0x40 SHL SUB DUP2 GT PUSH2 0x1A3 JUMPI DUP7 SWAP2 PUSH2 0x12B4 DUP5 DUP5 DUP1 SWAP5 DUP10 ADD ADD PUSH2 0x11E1 JUMP JUMPDEST DUP2 MSTORE ADD SWAP3 ADD SWAP2 PUSH2 0x1283 JUMP JUMPDEST PUSH1 0x60 SWAP1 PUSH1 0x20 DUP2 MSTORE PUSH1 0xE PUSH1 0x20 DUP3 ADD MSTORE PUSH14 0x496E76616C696420737461747573 PUSH1 0x90 SHL PUSH1 0x40 DUP3 ADD MSTORE ADD SWAP1 JUMP JUMPDEST PUSH1 0x20 SWAP1 DUP2 DUP2 DUP5 SUB SLT PUSH2 0x1A3 JUMPI DUP1 MLOAD SWAP1 PUSH1 0x1 PUSH1 0x1 PUSH1 0x40 SHL SUB DUP3 GT PUSH2 0x1A3 JUMPI ADD SWAP2 DUP1 PUSH1 0x1F DUP5 ADD SLT ISZERO PUSH2 0x1A3 JUMPI DUP3 MLOAD PUSH2 0x131D DUP2 PUSH2 0x1228 JUMP JUMPDEST SWAP4 PUSH2 0x132B PUSH1 0x40 MLOAD SWAP6 DUP7 PUSH2 0x11A3 JUMP JUMPDEST DUP2 DUP6 MSTORE DUP4 DUP1 DUP7 ADD SWAP3 PUSH1 0x5 SHL DUP3 ADD ADD SWAP3 DUP4 GT PUSH2 0x1A3 JUMPI DUP4 ADD SWAP1 JUMPDEST DUP3 DUP3 LT PUSH2 0x1352 JUMPI POP POP POP POP SWAP1 JUMP JUMPDEST DUP2 MLOAD DUP2 MSTORE SWAP1 DUP4 ADD SWAP1 DUP4 ADD PUSH2 0x1344 JUMP JUMPDEST PUSH1 0x40 MLOAD SWAP1 PUSH2 0x136E DUP3 PUSH2 0x1187 JUMP JUMPDEST DUP2 PUSH2 0x180 PUSH1 0x0 SWAP2 DUP3 DUP2 MSTORE DUP3 PUSH1 0x20 DUP3 ADD MSTORE PUSH1 0x60 DUP1 PUSH1 0x40 DUP4 ADD MSTORE DUP1 DUP1 DUP4 ADD MSTORE DUP1 PUSH1 0x80 DUP4 ADD MSTORE DUP4 PUSH1 0xA0 DUP4 ADD MSTORE DUP4 PUSH1 0xC0 DUP4 ADD MSTORE DUP1 PUSH1 0xE0 DUP4 ADD MSTORE DUP4 PUSH2 0x100 DUP4 ADD MSTORE DUP4 PUSH2 0x120 DUP4 ADD MSTORE DUP1 PUSH2 0x140 DUP4 ADD MSTORE PUSH2 0x160 DUP3 ADD MSTORE ADD MSTORE JUMP JUMPDEST SWAP1 PUSH2 0x13CC DUP3 PUSH2 0x1228 JUMP JUMPDEST PUSH2 0x13D9 PUSH1 0x40 MLOAD SWAP2 DUP3 PUSH2 0x11A3 JUMP JUMPDEST DUP3 DUP2 MSTORE DUP1 SWAP3 PUSH2 0x13EA PUSH1 0x1F NOT SWAP2 PUSH2 0x1228 JUMP JUMPDEST ADD SWAP1 PUSH1 0x0 JUMPDEST DUP3 DUP2 LT PUSH2 0x13FB JUMPI POP POP POP JUMP JUMPDEST PUSH1 0x20 SWAP1 PUSH2 0x1406 PUSH2 0x1361 JUMP JUMPDEST DUP3 DUP3 DUP6 ADD ADD MSTORE ADD PUSH2 0x13EF JUMP JUMPDEST PUSH1 0x0 NOT DUP2 EQ PUSH2 0x1421 JUMPI PUSH1 0x1 ADD SWAP1 JUMP JUMPDEST PUSH4 0x4E487B71 PUSH1 0xE0 SHL PUSH1 0x0 MSTORE PUSH1 0x11 PUSH1 0x4 MSTORE PUSH1 0x24 PUSH1 0x0 REVERT JUMPDEST DUP1 MLOAD DUP3 LT ISZERO PUSH2 0x144B JUMPI PUSH1 0x20 SWAP2 PUSH1 0x5 SHL ADD ADD SWAP1 JUMP JUMPDEST PUSH4 0x4E487B71 PUSH1 0xE0 SHL PUSH1 0x0 MSTORE PUSH1 0x32 PUSH1 0x4 MSTORE PUSH1 0x24 PUSH1 0x0 REVERT JUMPDEST DUP2 PUSH1 0x1F DUP3 ADD SLT ISZERO PUSH2 0x1A3 JUMPI DUP1 MLOAD PUSH2 0x1477 DUP2 PUSH2 0x11C6 JUMP JUMPDEST SWAP3 PUSH2 0x1485 PUSH1 0x40 MLOAD SWAP5 DUP6 PUSH2 0x11A3 JUMP JUMPDEST DUP2 DUP5 MSTORE PUSH1 0x20 DUP3 DUP5 ADD ADD GT PUSH2 0x1A3 JUMPI PUSH2 0x1059 SWAP2 PUSH1 0x20 DUP1 DUP6 ADD SWAP2 ADD PUSH2 0xEBB JUMP JUMPDEST PUSH1 0x20 DUP1 DUP3 DUP5 SUB SLT PUSH2 0x1A3 JUMPI DUP2 MLOAD PUSH1 0x1 PUSH1 0x1 PUSH1 0x40 SHL SUB SWAP3 DUP4 DUP3 GT PUSH2 0x1A3 JUMPI ADD SWAP2 PUSH2 0x1A0 DUP4 DUP6 SUB SLT PUSH2 0x1A3 JUMPI PUSH1 0x40 SWAP2 DUP3 MLOAD SWAP5 PUSH2 0x14DC DUP7 PUSH2 0x1187 JUMP JUMPDEST DUP5 MLOAD DUP7 MSTORE DUP2 DUP6 ADD MLOAD DUP3 DUP8 ADD MSTORE DUP4 DUP6 ADD MLOAD DUP4 DUP2 GT PUSH2 0x1A3 JUMPI DUP2 PUSH2 0x14FF SWAP2 DUP8 ADD PUSH2 0x1461 JUMP JUMPDEST DUP5 DUP8 ADD MSTORE PUSH1 0x60 DUP1 DUP7 ADD MLOAD DUP5 DUP2 GT PUSH2 0x1A3 JUMPI DUP3 PUSH2 0x151C SWAP2 DUP9 ADD PUSH2 0x1461 JUMP JUMPDEST DUP2 DUP9 ADD MSTORE PUSH1 0x80 DUP1 DUP8 ADD MLOAD DUP6 DUP2 GT PUSH2 0x1A3 JUMPI DUP4 PUSH2 0x1539 SWAP2 DUP10 ADD PUSH2 0x1461 JUMP JUMPDEST DUP2 DUP10 ADD MSTORE PUSH1 0xA0 SWAP1 DUP2 DUP9 ADD MLOAD DUP3 DUP11 ADD MSTORE PUSH1 0xC0 SWAP2 DUP3 DUP10 ADD MLOAD DUP4 DUP12 ADD MSTORE PUSH1 0xE0 DUP10 ADD MLOAD DUP8 DUP2 GT PUSH2 0x1A3 JUMPI DUP10 ADD SWAP3 DUP6 PUSH1 0x1F DUP6 ADD SLT ISZERO PUSH2 0x1A3 JUMPI DUP4 MLOAD SWAP3 PUSH2 0x1579 DUP5 PUSH2 0x1228 JUMP JUMPDEST SWAP6 PUSH2 0x1586 DUP12 MLOAD SWAP8 DUP9 PUSH2 0x11A3 JUMP JUMPDEST DUP5 DUP8 MSTORE DUP9 DUP1 DUP9 ADD SWAP6 PUSH1 0x5 SHL DUP8 ADD ADD SWAP6 DUP9 DUP8 GT PUSH2 0x1A3 JUMPI DUP10 DUP2 ADD SWAP6 JUMPDEST DUP8 DUP8 LT PUSH2 0x169F JUMPI POP POP POP POP POP POP POP POP PUSH1 0xE0 DUP8 ADD MSTORE PUSH2 0x100 DUP1 DUP7 ADD MLOAD SWAP1 PUSH1 0x4 DUP3 LT ISZERO PUSH2 0x1A3 JUMPI DUP8 ADD MSTORE PUSH2 0x120 DUP6 DUP2 ADD MLOAD SWAP1 PUSH1 0x1 PUSH1 0x1 PUSH1 0xA0 SHL SUB DUP3 AND DUP3 SUB PUSH2 0x1A3 JUMPI DUP8 ADD MSTORE PUSH2 0x140 DUP1 DUP7 ADD MLOAD DUP5 DUP2 GT PUSH2 0x1A3 JUMPI DUP3 PUSH2 0x15FE SWAP2 DUP9 ADD PUSH2 0x1461 JUMP JUMPDEST SWAP1 DUP8 ADD MSTORE PUSH2 0x160 SWAP3 DUP4 DUP7 ADD MLOAD DUP2 DUP2 GT PUSH2 0x1A3 JUMPI DUP7 ADD SWAP1 DUP3 PUSH1 0x1F DUP4 ADD SLT ISZERO PUSH2 0x1A3 JUMPI DUP2 MLOAD SWAP1 PUSH2 0x1637 PUSH2 0x162E DUP4 PUSH2 0x1228 JUMP JUMPDEST SWAP8 MLOAD SWAP8 DUP9 PUSH2 0x11A3 JUMP JUMPDEST DUP2 DUP8 MSTORE DUP5 DUP1 DUP9 ADD SWAP3 PUSH1 0x5 SHL DUP5 ADD ADD SWAP4 DUP1 DUP6 GT PUSH2 0x1A3 JUMPI DUP6 DUP5 ADD SWAP3 JUMPDEST DUP6 DUP5 LT PUSH2 0x167A JUMPI POP POP POP POP POP POP POP DUP4 ADD MSTORE PUSH2 0x180 DUP1 SWAP2 ADD MLOAD SWAP1 PUSH1 0x5 DUP3 LT ISZERO PUSH2 0x1A3 JUMPI DUP3 ADD MSTORE SWAP1 JUMP JUMPDEST DUP4 MLOAD DUP4 DUP2 GT PUSH2 0x1A3 JUMPI DUP8 SWAP2 PUSH2 0x1694 DUP5 DUP5 DUP1 SWAP5 DUP11 ADD ADD PUSH2 0x1461 JUMP JUMPDEST DUP2 MSTORE ADD SWAP4 ADD SWAP3 PUSH2 0x1652 JUMP JUMPDEST DUP7 MLOAD DUP13 DUP2 GT PUSH2 0x1A3 JUMPI DUP3 ADD DUP6 PUSH1 0x1F NOT DUP3 DUP14 SUB ADD SLT PUSH2 0x1A3 JUMPI DUP14 MLOAD DUP7 DUP2 ADD SWAP3 SWAP1 DUP15 DUP5 GT DUP2 DUP6 LT OR PUSH2 0x1739 JUMPI SWAP3 DUP16 MSTORE DUP2 DUP14 ADD MLOAD SWAP3 DUP15 DUP5 GT PUSH2 0x1A3 JUMPI DUP16 DUP16 SWAP5 DUP16 DUP16 SWAP1 PUSH2 0x16EA SWAP3 DUP8 ADD ADD PUSH2 0x1461 JUMP JUMPDEST DUP3 MSTORE DUP4 ADD MLOAD SWAP4 DUP5 GT PUSH2 0x1A3 JUMPI DUP16 DUP4 DUP16 SWAP6 SWAP2 DUP16 PUSH2 0x170C SWAP1 DUP9 DUP14 SWAP6 DUP2 SWAP10 ADD ADD PUSH2 0x1461 JUMP JUMPDEST DUP7 DUP6 ADD MSTORE DUP9 DUP3 ADD MLOAD SWAP1 DUP5 ADD MSTORE DUP9 DUP2 ADD MLOAD DUP9 DUP5 ADD MSTORE DUP11 DUP2 ADD MLOAD DUP10 DUP5 ADD MSTORE ADD MLOAD DUP10 DUP3 ADD MSTORE DUP2 MSTORE ADD SWAP7 ADD SWAP6 PUSH2 0x15A1 JUMP JUMPDEST PUSH1 0x24 PUSH1 0x0 PUSH4 0x4E487B71 PUSH1 0xE0 SHL DUP2 MSTORE PUSH1 0x41 PUSH1 0x4 MSTORE REVERT JUMPDEST SWAP1 DUP2 PUSH1 0x20 SWAP2 SUB SLT PUSH2 0x1A3 JUMPI MLOAD DUP1 ISZERO ISZERO DUP2 SUB PUSH2 0x1A3 JUMPI SWAP1 JUMP INVALID LOG2 PUSH5 0x6970667358 0x22 SLT KECCAK256 CALLVALUE DUP4 0xFB 0x1E OR BYTE SUB 0xDB 0x29 0x25 NUMBER PUSH23 0x5EC4D2134A4B89BFEFB91FD57742336AC5088E3064736F PUSH13 0x63430008130033000000000000 "},"gasEstimates":{"creation":{"codeDepositCost":"1208800","executionCost":"infinite","totalCost":"infinite"},"external":{"addAsset(uint256,string,string,string,uint256,address,string,string,string[],uint8)":"infinite","getAllAssets(uint8)":"infinite","getAllAssetsByCategory(uint8,uint8)":"infinite","getAssetById(uint256)":"infinite","getAssetsOfOwner(address)":"infinite","supervisor()":"2356","updateAsset(uint256,string,string[],string)":"infinite"}},"methodIdentifiers":{"addAsset(uint256,string,string,string,uint256,address,string,string,string[],uint8)":"86275c5a","getAllAssets(uint8)":"38031123","getAllAssetsByCategory(uint8,uint8)":"4663a28c","getAssetById(uint256)":"b3e444a7","getAssetsOfOwner(address)":"f3ab880e","supervisor()":"56e4b68b","updateAsset(uint256,string,string[],string)":"5563633d"}},"storageLayout":{"storage":[{"astId":4661,"contract":"contracts/Assets.sol:Assets","label":"nftContract","offset":0,"slot":"0","type":"t_contract(NFTVenture)7037"},{"astId":4663,"contract":"contracts/Assets.sol:Assets","label":"supervisor","offset":0,"slot":"1","type":"t_address"}],"types":{"t_address":{"encoding":"inplace","label":"address","numberOfBytes":"20"},"t_contract(NFTVenture)7037":{"encoding":"inplace","label":"contract NFTVenture","numberOfBytes":"20"}}},"userdoc":{"kind":"user","methods":{},"version":1}}}}