{"contracts/FCTVToken.sol":{"FCTVToken":{"abi":[{"inputs":[{"internalType":"string","name":"baseURI","type":"string"}],"stateMutability":"nonpayable","type":"constructor"},{"anonymous":false,"inputs":[{"indexed":true,"internalType":"address","name":"account","type":"address"},{"indexed":true,"internalType":"address","name":"operator","type":"address"},{"indexed":false,"internalType":"bool","name":"approved","type":"bool"}],"name":"ApprovalForAll","type":"event"},{"anonymous":false,"inputs":[{"indexed":true,"internalType":"address","name":"previousOwner","type":"address"},{"indexed":true,"internalType":"address","name":"newOwner","type":"address"}],"name":"OwnershipTransferred","type":"event"},{"anonymous":false,"inputs":[{"indexed":true,"internalType":"address","name":"operator","type":"address"},{"indexed":true,"internalType":"address","name":"from","type":"address"},{"indexed":true,"internalType":"address","name":"to","type":"address"},{"indexed":false,"internalType":"uint256[]","name":"ids","type":"uint256[]"},{"indexed":false,"internalType":"uint256[]","name":"values","type":"uint256[]"}],"name":"TransferBatch","type":"event"},{"anonymous":false,"inputs":[{"indexed":true,"internalType":"address","name":"operator","type":"address"},{"indexed":true,"internalType":"address","name":"from","type":"address"},{"indexed":true,"internalType":"address","name":"to","type":"address"},{"indexed":false,"internalType":"uint256","name":"id","type":"uint256"},{"indexed":false,"internalType":"uint256","name":"value","type":"uint256"}],"name":"TransferSingle","type":"event"},{"anonymous":false,"inputs":[{"indexed":false,"internalType":"string","name":"value","type":"string"},{"indexed":true,"internalType":"uint256","name":"id","type":"uint256"}],"name":"URI","type":"event"},{"inputs":[{"internalType":"address","name":"account","type":"address"},{"internalType":"uint256","name":"id","type":"uint256"}],"name":"balanceOf","outputs":[{"internalType":"uint256","name":"","type":"uint256"}],"stateMutability":"view","type":"function"},{"inputs":[{"internalType":"address[]","name":"accounts","type":"address[]"},{"internalType":"uint256[]","name":"ids","type":"uint256[]"}],"name":"balanceOfBatch","outputs":[{"internalType":"uint256[]","name":"","type":"uint256[]"}],"stateMutability":"view","type":"function"},{"inputs":[{"internalType":"address","name":"account","type":"address"},{"internalType":"uint256","name":"id","type":"uint256"},{"internalType":"uint256","name":"value","type":"uint256"}],"name":"burn","outputs":[],"stateMutability":"nonpayable","type":"function"},{"inputs":[{"internalType":"address","name":"account","type":"address"},{"internalType":"uint256[]","name":"ids","type":"uint256[]"},{"internalType":"uint256[]","name":"values","type":"uint256[]"}],"name":"burnBatch","outputs":[],"stateMutability":"nonpayable","type":"function"},{"inputs":[{"internalType":"address","name":"account","type":"address"},{"internalType":"address","name":"operator","type":"address"}],"name":"isApprovedForAll","outputs":[{"internalType":"bool","name":"","type":"bool"}],"stateMutability":"view","type":"function"},{"inputs":[{"internalType":"address","name":"to","type":"address"},{"internalType":"uint256","name":"id","type":"uint256"},{"internalType":"uint256","name":"amount","type":"uint256"},{"internalType":"string","name":"tokenURI","type":"string"},{"internalType":"bytes","name":"data","type":"bytes"}],"name":"mint","outputs":[],"stateMutability":"nonpayable","type":"function"},{"inputs":[{"internalType":"address","name":"to","type":"address"},{"internalType":"uint256[]","name":"ids","type":"uint256[]"},{"internalType":"uint256[]","name":"amounts","type":"uint256[]"},{"internalType":"string[]","name":"tokenURIs","type":"string[]"},{"internalType":"bytes","name":"data","type":"bytes"}],"name":"mintBatch","outputs":[],"stateMutability":"nonpayable","type":"function"},{"inputs":[],"name":"name","outputs":[{"internalType":"string","name":"","type":"string"}],"stateMutability":"view","type":"function"},{"inputs":[],"name":"owner","outputs":[{"internalType":"address","name":"","type":"address"}],"stateMutability":"view","type":"function"},{"inputs":[],"name":"renounceOwnership","outputs":[],"stateMutability":"nonpayable","type":"function"},{"inputs":[{"internalType":"address","name":"from","type":"address"},{"internalType":"address","name":"to","type":"address"},{"internalType":"uint256[]","name":"ids","type":"uint256[]"},{"internalType":"uint256[]","name":"amounts","type":"uint256[]"},{"internalType":"bytes","name":"data","type":"bytes"}],"name":"safeBatchTransferFrom","outputs":[],"stateMutability":"nonpayable","type":"function"},{"inputs":[{"internalType":"address","name":"from","type":"address"},{"internalType":"address","name":"to","type":"address"},{"internalType":"uint256","name":"id","type":"uint256"},{"internalType":"uint256","name":"amount","type":"uint256"},{"internalType":"bytes","name":"data","type":"bytes"}],"name":"safeTransferFrom","outputs":[],"stateMutability":"nonpayable","type":"function"},{"inputs":[{"internalType":"address","name":"operator","type":"address"},{"internalType":"bool","name":"approved","type":"bool"}],"name":"setApprovalForAll","outputs":[],"stateMutability":"nonpayable","type":"function"},{"inputs":[{"internalType":"uint256","name":"tokenId","type":"uint256"},{"internalType":"string","name":"tokenURI","type":"string"}],"name":"setURI","outputs":[],"stateMutability":"nonpayable","type":"function"},{"inputs":[{"internalType":"bytes4","name":"interfaceId","type":"bytes4"}],"name":"supportsInterface","outputs":[{"internalType":"bool","name":"","type":"bool"}],"stateMutability":"view","type":"function"},{"inputs":[],"name":"symbol","outputs":[{"internalType":"string","name":"","type":"string"}],"stateMutability":"view","type":"function"},{"inputs":[{"internalType":"address","name":"newOwner","type":"address"}],"name":"transferOwnership","outputs":[],"stateMutability":"nonpayable","type":"function"},{"inputs":[{"internalType":"uint256","name":"tokenId","type":"uint256"}],"name":"uri","outputs":[{"internalType":"string","name":"","type":"string"}],"stateMutability":"view","type":"function"}],"devdoc":{"events":{"ApprovalForAll(address,address,bool)":{"details":"Emitted when `account` grants or revokes permission to `operator` to transfer their tokens, according to `approved`."},"TransferBatch(address,address,address,uint256[],uint256[])":{"details":"Equivalent to multiple {TransferSingle} events, where `operator`, `from` and `to` are the same for all transfers."},"TransferSingle(address,address,address,uint256,uint256)":{"details":"Emitted when `value` tokens of token type `id` are transferred from `from` to `to` by `operator`."},"URI(string,uint256)":{"details":"Emitted when the URI for token type `id` changes to `value`, if it is a non-programmatic URI. If an {URI} event was emitted for `id`, the standard https://eips.ethereum.org/EIPS/eip-1155#metadata-extensions[guarantees] that `value` will equal the value returned by {IERC1155MetadataURI-uri}."}},"kind":"dev","methods":{"balanceOf(address,uint256)":{"details":"See {IERC1155-balanceOf}. Requirements: - `account` cannot be the zero address."},"balanceOfBatch(address[],uint256[])":{"details":"See {IERC1155-balanceOfBatch}. Requirements: - `accounts` and `ids` must have the same length."},"isApprovedForAll(address,address)":{"details":"See {IERC1155-isApprovedForAll}."},"owner()":{"details":"Returns the address of the current owner."},"renounceOwnership()":{"details":"Leaves the contract without owner. It will not be possible to call `onlyOwner` functions anymore. Can only be called by the current owner. NOTE: Renouncing ownership will leave the contract without an owner, thereby removing any functionality that is only available to the owner."},"safeBatchTransferFrom(address,address,uint256[],uint256[],bytes)":{"details":"See {IERC1155-safeBatchTransferFrom}."},"safeTransferFrom(address,address,uint256,uint256,bytes)":{"details":"See {IERC1155-safeTransferFrom}."},"setApprovalForAll(address,bool)":{"details":"See {IERC1155-setApprovalForAll}."},"supportsInterface(bytes4)":{"details":"See {IERC165-supportsInterface}."},"transferOwnership(address)":{"details":"Transfers ownership of the contract to a new account (`newOwner`). Can only be called by the current owner."}},"version":1},"evm":{"bytecode":{"linkReferences":{},"object":"608060405234620002bb576200237c803803806200001d81620002c0565b9283398101906020918282820312620002bb5781516001600160401b0392838211620002bb570191601f91808385011215620002bb578351938285116200029157601f19946200007385820187168801620002c0565b92818452878284010111620002bb57869160005b828110620002a7575050906000918301015280519182116200029157620000b0600254620002e6565b83811162000253575b508493838311600114620001ec575092819293600092620001e0575b50508160011b916000199060031b1c1916176002555b600380546001600160a01b0319163390811790915560007f8be0079c531659141344cd1fd0a4f28419497f9722a3daafe3b4186f6b6457e08180a362000133600454620002e6565b818111620001bc575b507f4672616374696f6e616c2043545620546f6b656e73000000000000000000002a6004556005546200016f90620002e6565b9080821162000198575b600a641190d5159560da1b0160055560405161203f90816200033d8239f35b620001b3926005600052600020910160051c81019062000323565b38808062000179565b620001d99060046000528284600020910160051c81019062000323565b386200013c565b015190503880620000d5565b8216936002600052856000209160005b878782106200023c57505083600195961062000222575b505050811b01600255620000eb565b015160001960f88460031b161c1916905538808062000213565b6001849582939585015181550194019201620001fc565b62000280906002600052866000208580860160051c82019289871062000287575b0160051c019062000323565b38620000b9565b9250819262000274565b634e487b7160e01b600052604160045260246000fd5b818101840151858201850152830162000087565b600080fd5b6040519190601f01601f191682016001600160401b038111838210176200029157604052565b90600182811c9216801562000318575b60208310146200030257565b634e487b7160e01b600052602260045260246000fd5b91607f1691620002f6565b8181106200032f575050565b600081556001016200032356fe6040608081526004908136101561001557600080fd5b600091823560e01c908162fdd58e1461182057816301ffc9a7146117b257816306fdde03146116ff5781630e89341c146116265781632eb2c2d6146113425781634e1273f4146111ad5781636b20c45414611069578163715018a61461101a578163862440e214610eed5781638da5cb5b14610ec457816395d89b4114610ddf578163a22cb46514610d01578163a4b645eb146109f4578163b9571e8414610539578163e985e9c5146104e7578163f242432a1461028d578163f2fde38b146101d2575063f5298aca146100e857600080fd5b8190346101cf5760603660031901126101cf57610103611850565b6001600160a01b03169060243590600080516020611fca8339815191529060443533851480156101b0575b61013790611bc8565b610142851515611ea3565b61014b84611e6e565b5061015581611e6e565b50858251610162816118bb565b528386528560205281862085875260205261018c818388205461018782821015611efb565b611c85565b8487528660205282872086885260205282872055815193845260208401523392a480f35b508486526001602090815282872033885290528186205460ff1661012e565b50fd5b905034610289576020366003190112610289576101ed611850565b600354916001600160a01b0380841692610208338514611a4e565b169384156102375750508290600080516020611fea8339815191528580a36001600160a01b0319161760035580f35b906020608492519162461bcd60e51b8352820152602660248201527f4f776e61626c653a206e6577206f776e657220697320746865207a65726f206160448201526564647265737360d01b6064820152fd5b8280fd5b919050346102895760a0366003190112610289576102a9611850565b836102b261186b565b916044356064356084356001600160401b0381116104e3576102d790369089016119c4565b926001600160a01b03868116916102ef831515611b6e565b169233841480156104c4575b61030490611bc8565b61030d81611e6e565b5061031783611e6e565b50808652602096868852888720858852885261033d848a89205461018782821015611c26565b828852878952898820868952895289882055818752868852888720838852885288872061036b858254611c92565b905582858a51848152868b820152600080516020611fca8339815191528c3392a43b610395578580f35b889587946103d68a519788968795869463f23a6e6160e01b9c8d8752339087015260248601526044850152606484015260a0608484015260a483019061190f565b03925af1869181610495575b506104645750506001906103f4611d8d565b6308c379a014610431575b506104145750505b3880808381808080808580f35b5162461bcd60e51b81529150819061042d908201611e19565b0390fd5b610439611dab565b8061044457506103ff565b61042d8591855193849362461bcd60e51b8552840152602483019061190f565b6001600160e01b03191603905061047c575050610407565b5162461bcd60e51b81529150819061042d908201611d44565b6104b6919250843d86116104bd575b6104ae81836118ec565b810190611d24565b90386103e2565b503d6104a4565b508386526001602090815288872033885290528786205460ff166102fb565b8480fd5b50503461053557806003193601126105355760ff81602093610507611850565b61050f61186b565b6001600160a01b0391821683526001875283832091168252855220549151911615158152f35b5080fd5b905034610289576003199160a0368401126109f057610556611850565b6024946001600160401b039490919086358681116109f05761057b9036908701611966565b946044358781116104e3576105939036908301611966565b96606435938185116109ec57366023860112156109ec5784830135996105b88b61194f565b946105c5895196876118ec565b8b86526020968787018360059e8f1b830101913683116109e857848101915b8383106109be57505050506084358481116109ba5761060690369087016119c4565b60018060a01b039360039461061f818754163314611a4e565b8c5189510361096957906106508d9a9997959f98969493928f9083169b6106478d1515611f53565b51905114611c9f565b8a5b8d518110156106b157908e9f9392918e9f908f8f8f908f918f9261069e9361068887610681816106a59b611b44565b5197611b44565b5183528281528383209183525220918254611c92565b9055611b1f565b909192939f9e50610652565b508e8c8f8f95908c8f968f888d95888c94869b858588600080516020611faa8339815191526106e88f8e9051918291339583611cfc565b0390a43b610847575b5050509450505050505b85518110156108435761070e818b611b44565b516107198288611b44565b51865260068552828620908051908a8211610831578d9061073a8454611881565b601f928382116107f1575b505087918311600114610789576107799493929189918361077e575b50508160011b91600019908c1b1c1916179055611b1f565b6106fb565b015190508f80610761565b8389528789209190601f1984168a5b8a8282106107db5750509084610779979695949392106107c3575b505050600190811b019055611b1f565b0151600019838d1b60f8161c191690558e80806107b3565b6001859682939686015181550195019301610798565b858b52898b209084808701821c8301938c8810610828575b01901c01905b81811061081d57508f610745565b8a815560010161080f565b93508293610809565b634e487b7160e01b885260418c528588fd5b8480f35b83928a519889978896879563bc197c8160e01b9d8e885233908801528601526044850160a0905260a4850161087b91611a1a565b8285820301606486015261088e91611a1a565b908382030160848401526108a19161190f565b03925af186918161094a575b5061092557505060016108be611d8d565b6308c379a0146108f2575b6108dc575b878b848782888188816106f1565b5162461bcd60e51b81528061042d818a01611e19565b6108fa611dab565b8061090557506108c9565b9050889261042d925194859462461bcd60e51b865285015283019061190f565b6001600160e01b031916146108ce575162461bcd60e51b81528061042d818a01611d44565b610962919250863d88116104bd576104ae81836118ec565b908d6108ad565b508a5162461bcd60e51b81528088018a90526025818601527f455243313135353a2069647320616e642075726973206c656e677468206d69736044820152640dac2e8c6d60db1b6064820152608490fd5b8880fd5b82358881116109e4578b916109d983928936918701016119c4565b8152019201916105e4565b8c80fd5b8a80fd5b8580fd5b8380fd5b839150346105355760a036600319011261053557610a10611850565b604435936001600160401b039190602435606435848111610cfd57610a3890369087016119c4565b96608435858111610cf95790610a528792369084016119c4565b9460018060a01b03610a6981600354163314611a4e565b811695610a77871515611f53565b610a8085611e6e565b50610a8a83611e6e565b50848a5260209687928b8452878c20828d528452878c20610aac868254611c92565b9055818c89518981528787820152600080516020611fca8339815191528b3392a43b610bf1575b50505050508552600682528420928551928311610bde5750610af58354611881565b601f8111610b9b575b5080601f8311600114610b395750839482939492610b2e575b50508160011b916000199060031b1c191617905580f35b015190508480610b17565b90601f198316958486528286209286905b888210610b8357505083600195969710610b6a575b505050811b01905580f35b015160001960f88460031b161c19169055848080610b5f565b80600185968294968601518155019501930190610b4a565b838552818520601f840160051c810191838510610bd4575b601f0160051c01905b818110610bc95750610afe565b858155600101610bbc565b9091508190610bb3565b634e487b7160e01b855260419052602484fd5b610c31938b885180968195829463f23a6e6160e01b9a8b855233908501528460248501528b6044850152606484015260a0608484015260a483019061190f565b03925af1889181610cda575b50610cb45750506001610c4e611d8d565b6308c379a014610c7f575b610c68575b8488848180610ad3565b815162461bcd60e51b81528061042d818801611e19565b610c87611dab565b80610c925750610c59565b835162461bcd60e51b815280880186905290819061042d90602483019061190f565b6001600160e01b03191614610c5e57815162461bcd60e51b81528061042d818801611d44565b610cf2919250863d88116104bd576104ae81836118ec565b908a610c3d565b8780fd5b8680fd5b91905034610289578060031936011261028957610d1c611850565b90602435918215158093036104e3576001600160a01b031692338414610d8b5750338452600160205280842083855260205280842060ff1981541660ff8416179055519081527f17307eab39ab6107e8899845ad3d59bd9653f200f220920489ca2b5937696c3160203392a380f35b6020608492519162461bcd60e51b8352820152602960248201527f455243313135353a2073657474696e6720617070726f76616c20737461747573604482015268103337b91039b2b63360b91b6064820152fd5b50503461053557816003193601126105355780519082600554610e0181611881565b80855290600190818116908115610e9c5750600114610e43575b505050610e2d82610e3f9403836118ec565b5191829160208352602083019061190f565b0390f35b60058352602095507f036b6384b5eca791c62761152d0c79bb0604c104a5fb6f4eb0703f3154bb3db05b828410610e895750505082610e3f94610e2d9282010194610e1b565b8054868501880152928601928101610e6d565b610e3f9750610e2d9450602092508693915060ff191682840152151560051b82010194610e1b565b50503461053557816003193601126105355760035490516001600160a01b039091168152602090f35b839150346105355782600319360112610535576001600160401b036024358181116109f057610f1f90369084016119c4565b93610f3560018060a01b03600354163314611a4e565b82358452602090600682528420928551928311610bde5750610f578354611881565b601f8111610fd7575b5080601f8311600114610f8f5750839482939492610b2e5750508160011b916000199060031b1c191617905580f35b90601f198316958486528286209286905b888210610fbf57505083600195969710610b6a57505050811b01905580f35b80600185968294968601518155019501930190610fa0565b838552818520601f840160051c810191838510611010575b601f0160051c01905b8181106110055750610f60565b858155600101610ff8565b9091508190610fef565b8334611066578060031936011261106657600354816001600160a01b038216611044338214611a4e565b600080516020611fea8339815191528280a36001600160a01b03191660035580f35b80fd5b9190503461028957606036600319011261028957611085611850565b906001600160401b036024358181116109ec576110a59036908601611966565b936044359182116109ec576110bc91369101611966565b916001600160a01b0316338114801561118e575b6110d990611bc8565b6110e4811515611ea3565b6110f18451845114611c9f565b8482516110fd816118bb565b52845b8585518210156111655750806111196111609287611b44565b516111248287611b44565b518189526111496020918a8352878b20878c528352878b205461018782821015611efb565b91895288815285892090858a525284882055611b1f565b611100565b808387600080516020611faa833981519152611188898951918291339583611cfc565b0390a480f35b508085526001602090815282862033875290528185205460ff166110d0565b90503461028957816003193601126102895780356001600160401b038082116104e357366023830112156104e35781830135906111e98261194f565b926111f6865194856118ec565b82845260209260248486019160051b830101913683116109ba57602401905b82821061131f575050506024359081116109ec576112369036908501611966565b9282518451036112cc575081519461124d8661194f565b9561125a865197886118ec565b808752611269601f199161194f565b0136838801375b82518110156112ba576112b5906112a56001600160a01b036112928387611b44565b511661129e8388611b44565b5190611a99565b6112af8289611b44565b52611b1f565b611270565b845182815280610e3f81850189611a1a565b60849185519162461bcd60e51b8352820152602960248201527f455243313135353a206163636f756e747320616e6420696473206c656e677468604482015268040dad2e6dac2e8c6d60bb1b6064820152fd5b81356001600160a01b038116810361133e578152908401908401611215565b8980fd5b905034610289576003199160a0368401126109f05761135f611850565b61136761186b565b936001600160401b0393604435858111610cf9576113889036908301611966565b906064358681116109ba576113a09036908301611966565b956084359081116109ba576113b890369083016119c4565b926113c68351885114611c9f565b6001600160a01b03888116956113dd871515611b6e565b16933385148015611608575b156115aa57895b8a855182101561146e57908961069e8a6114699461141985611412818d611b44565b5195611b44565b51938082526020908282528383208d84528252611440868585205461018782821015611c26565b8184528383528d8585209085528352848420558252818152828220908d83525220918254611c92565b6113f0565b5050909493959692919784878951600080516020611faa8339815191523391806114998a8a83611cfc565b0390a43b6114a5578880f35b8651948593849363bc197c8160e01b98898652338c87015260248601526044850160a0905260a485016114d791611a1a565b828582030160648601526114ea91611a1a565b908382030160848401526114fd9161190f565b0381885a94602095f185918161158a575b50611574575050600161151f611d8d565b6308c379a01461153d575b6104145750505b38808080808080808880f35b611545611dab565b80611550575061152a565b905061042d91602094505193849362461bcd60e51b8552840152602483019061190f565b6001600160e01b0319160361047c575050611531565b6115a391925060203d81116104bd576104ae81836118ec565b903861150e565b865162461bcd60e51b8152602081850152603260248201527f455243313135353a207472616e736665722063616c6c6572206973206e6f74206044820152711bdddb995c881b9bdc88185c1c1c9bdd995960721b6064820152608490fd5b50848a526001602052868a20338b5260205260ff878b2054166113e9565b9190503461028957602091826003193601126109f0573583526006825280832081519384918181549061165882611881565b928386526001928884821691826000146116d5575050600114611697575b8588610e3f89611688848a03856118ec565b5192828493845283019061190f565b87945081939291528383205b8284106116bd5750505082010181611688610e3f38611676565b8054848a0186015288955087949093019281016116a3565b60ff19168882015294151560051b870190940194508593506116889250610e3f9150389050611676565b8383346105355781600319360112610535578051918093805461172181611881565b80865291600191808316908115611787575060011461174c575b610e3f8686610e2d828b03836118ec565b835260208084209096505b8284106117745750505082610e3f94610e2d92820101948661173b565b8054868501880152928601928101611757565b9050610e3f9750610e2d9450602092508693915060ff191682840152151560051b820101948661173b565b90503461028957602036600319011261028957359063ffffffff60e01b82168092036102895760209250636cdb3d1360e11b821491821561180f575b82156117fe575b50519015158152f35b6301ffc9a760e01b149150386117f5565b6303a24d0760e21b811492506117ee565b505034610535578060031936011261053557602090611849611840611850565b60243590611a99565b9051908152f35b600435906001600160a01b038216820361186657565b600080fd5b602435906001600160a01b038216820361186657565b90600182811c921680156118b1575b602083101461189b57565b634e487b7160e01b600052602260045260246000fd5b91607f1691611890565b602081019081106001600160401b038211176118d657604052565b634e487b7160e01b600052604160045260246000fd5b601f909101601f19168101906001600160401b038211908210176118d657604052565b919082519283825260005b84811061193b575050826000602080949584010152601f8019910116010190565b60208183018101518483018201520161191a565b6001600160401b0381116118d65760051b60200190565b81601f820112156118665780359161197d8361194f565b9261198b60405194856118ec565b808452602092838086019260051b820101928311611866578301905b8282106119b5575050505090565b813581529083019083016119a7565b81601f82011215611866578035906001600160401b0382116118d657604051926119f8601f8401601f1916602001856118ec565b8284526020838301011161186657816000926020809301838601378301015290565b90815180825260208080930193019160005b828110611a3a575050505090565b835185529381019392810192600101611a2c565b15611a5557565b606460405162461bcd60e51b815260206004820152602060248201527f4f776e61626c653a2063616c6c6572206973206e6f7420746865206f776e65726044820152fd5b6001600160a01b0316908115611ac657600052600060205260406000209060005260205260406000205490565b60405162461bcd60e51b815260206004820152602b60248201527f455243313135353a2062616c616e636520717565727920666f7220746865207a60448201526a65726f206164647265737360a81b6064820152608490fd5b6000198114611b2e5760010190565b634e487b7160e01b600052601160045260246000fd5b8051821015611b585760209160051b010190565b634e487b7160e01b600052603260045260246000fd5b15611b7557565b60405162461bcd60e51b815260206004820152602560248201527f455243313135353a207472616e7366657220746f20746865207a65726f206164604482015264647265737360d81b6064820152608490fd5b15611bcf57565b60405162461bcd60e51b815260206004820152602960248201527f455243313135353a2063616c6c6572206973206e6f74206f776e6572206e6f7260448201526808185c1c1c9bdd995960ba1b6064820152608490fd5b15611c2d57565b60405162461bcd60e51b815260206004820152602a60248201527f455243313135353a20696e73756666696369656e742062616c616e636520666f60448201526939103a3930b739b332b960b11b6064820152608490fd5b91908203918211611b2e57565b91908201809211611b2e57565b15611ca657565b60405162461bcd60e51b815260206004820152602860248201527f455243313135353a2069647320616e6420616d6f756e7473206c656e677468206044820152670dad2e6dac2e8c6d60c31b6064820152608490fd5b9091611d13611d2193604084526040840190611a1a565b916020818403910152611a1a565b90565b9081602091031261186657516001600160e01b0319811681036118665790565b60809060208152602860208201527f455243313135353a204552433131353552656365697665722072656a656374656040820152676420746f6b656e7360c01b60608201520190565b60009060033d11611d9a57565b905060046000803e60005160e01c90565b600060443d10611d2157604051600319913d83016004833e81516001600160401b03918282113d602484011117611e0857818401948551938411611e10573d85010160208487010111611e085750611d21929101602001906118ec565b949350505050565b50949350505050565b60809060208152603460208201527f455243313135353a207472616e7366657220746f206e6f6e20455243313135356040820152732932b1b2b4bb32b91034b6b83632b6b2b73a32b960611b60608201520190565b60408051919082016001600160401b038111838210176118d65760405260018252602082016020368237825115611b58575290565b15611eaa57565b60405162461bcd60e51b815260206004820152602360248201527f455243313135353a206275726e2066726f6d20746865207a65726f206164647260448201526265737360e81b6064820152608490fd5b15611f0257565b60405162461bcd60e51b8152602060048201526024808201527f455243313135353a206275726e20616d6f756e7420657863656564732062616c604482015263616e636560e01b6064820152608490fd5b15611f5a57565b60405162461bcd60e51b815260206004820152602160248201527f455243313135353a206d696e7420746f20746865207a65726f206164647265736044820152607360f81b6064820152608490fdfe4a39dc06d4c0dbc64b70af90fd698a233a518aa5d07e595d983b8c0526c8f7fbc3d58168c5ae7397731d063d5bbf3d657854427343f4c083240f7aacaa2d0f628be0079c531659141344cd1fd0a4f28419497f9722a3daafe3b4186f6b6457e0a2646970667358221220661f93ef58911c552407a294425731cd6da151104af99e286490ae3ea5beb00a64736f6c63430008130033","opcodes":"PUSH1 0x80 PUSH1 0x40 MSTORE CALLVALUE PUSH3 0x2BB JUMPI PUSH3 0x237C DUP1 CODESIZE SUB DUP1 PUSH3 0x1D DUP2 PUSH3 0x2C0 JUMP JUMPDEST SWAP3 DUP4 CODECOPY DUP2 ADD SWAP1 PUSH1 0x20 SWAP2 DUP3 DUP3 DUP3 SUB SLT PUSH3 0x2BB JUMPI DUP2 MLOAD PUSH1 0x1 PUSH1 0x1 PUSH1 0x40 SHL SUB SWAP3 DUP4 DUP3 GT PUSH3 0x2BB JUMPI ADD SWAP2 PUSH1 0x1F SWAP2 DUP1 DUP4 DUP6 ADD SLT ISZERO PUSH3 0x2BB JUMPI DUP4 MLOAD SWAP4 DUP3 DUP6 GT PUSH3 0x291 JUMPI PUSH1 0x1F NOT SWAP5 PUSH3 0x73 DUP6 DUP3 ADD DUP8 AND DUP9 ADD PUSH3 0x2C0 JUMP JUMPDEST SWAP3 DUP2 DUP5 MSTORE DUP8 DUP3 DUP5 ADD ADD GT PUSH3 0x2BB JUMPI DUP7 SWAP2 PUSH1 0x0 JUMPDEST DUP3 DUP2 LT PUSH3 0x2A7 JUMPI POP POP SWAP1 PUSH1 0x0 SWAP2 DUP4 ADD ADD MSTORE DUP1 MLOAD SWAP2 DUP3 GT PUSH3 0x291 JUMPI PUSH3 0xB0 PUSH1 0x2 SLOAD PUSH3 0x2E6 JUMP JUMPDEST DUP4 DUP2 GT PUSH3 0x253 JUMPI JUMPDEST POP DUP5 SWAP4 DUP4 DUP4 GT PUSH1 0x1 EQ PUSH3 0x1EC JUMPI POP SWAP3 DUP2 SWAP3 SWAP4 PUSH1 0x0 SWAP3 PUSH3 0x1E0 JUMPI JUMPDEST POP POP DUP2 PUSH1 0x1 SHL SWAP2 PUSH1 0x0 NOT SWAP1 PUSH1 0x3 SHL SHR NOT AND OR PUSH1 0x2 SSTORE JUMPDEST PUSH1 0x3 DUP1 SLOAD PUSH1 0x1 PUSH1 0x1 PUSH1 0xA0 SHL SUB NOT AND CALLER SWAP1 DUP2 OR SWAP1 SWAP2 SSTORE PUSH1 0x0 PUSH32 0x8BE0079C531659141344CD1FD0A4F28419497F9722A3DAAFE3B4186F6B6457E0 DUP2 DUP1 LOG3 PUSH3 0x133 PUSH1 0x4 SLOAD PUSH3 0x2E6 JUMP JUMPDEST DUP2 DUP2 GT PUSH3 0x1BC JUMPI JUMPDEST POP PUSH32 0x4672616374696F6E616C2043545620546F6B656E73000000000000000000002A PUSH1 0x4 SSTORE PUSH1 0x5 SLOAD PUSH3 0x16F SWAP1 PUSH3 0x2E6 JUMP JUMPDEST SWAP1 DUP1 DUP3 GT PUSH3 0x198 JUMPI JUMPDEST PUSH1 0xA PUSH5 0x1190D51595 PUSH1 0xDA SHL ADD PUSH1 0x5 SSTORE PUSH1 0x40 MLOAD PUSH2 0x203F SWAP1 DUP2 PUSH3 0x33D DUP3 CODECOPY RETURN JUMPDEST PUSH3 0x1B3 SWAP3 PUSH1 0x5 PUSH1 0x0 MSTORE PUSH1 0x0 KECCAK256 SWAP2 ADD PUSH1 0x5 SHR DUP2 ADD SWAP1 PUSH3 0x323 JUMP JUMPDEST CODESIZE DUP1 DUP1 PUSH3 0x179 JUMP JUMPDEST PUSH3 0x1D9 SWAP1 PUSH1 0x4 PUSH1 0x0 MSTORE DUP3 DUP5 PUSH1 0x0 KECCAK256 SWAP2 ADD PUSH1 0x5 SHR DUP2 ADD SWAP1 PUSH3 0x323 JUMP JUMPDEST CODESIZE PUSH3 0x13C JUMP JUMPDEST ADD MLOAD SWAP1 POP CODESIZE DUP1 PUSH3 0xD5 JUMP JUMPDEST DUP3 AND SWAP4 PUSH1 0x2 PUSH1 0x0 MSTORE DUP6 PUSH1 0x0 KECCAK256 SWAP2 PUSH1 0x0 JUMPDEST DUP8 DUP8 DUP3 LT PUSH3 0x23C JUMPI POP POP DUP4 PUSH1 0x1 SWAP6 SWAP7 LT PUSH3 0x222 JUMPI JUMPDEST POP POP POP DUP2 SHL ADD PUSH1 0x2 SSTORE PUSH3 0xEB JUMP JUMPDEST ADD MLOAD PUSH1 0x0 NOT PUSH1 0xF8 DUP5 PUSH1 0x3 SHL AND SHR NOT AND SWAP1 SSTORE CODESIZE DUP1 DUP1 PUSH3 0x213 JUMP JUMPDEST PUSH1 0x1 DUP5 SWAP6 DUP3 SWAP4 SWAP6 DUP6 ADD MLOAD DUP2 SSTORE ADD SWAP5 ADD SWAP3 ADD PUSH3 0x1FC JUMP JUMPDEST PUSH3 0x280 SWAP1 PUSH1 0x2 PUSH1 0x0 MSTORE DUP7 PUSH1 0x0 KECCAK256 DUP6 DUP1 DUP7 ADD PUSH1 0x5 SHR DUP3 ADD SWAP3 DUP10 DUP8 LT PUSH3 0x287 JUMPI JUMPDEST ADD PUSH1 0x5 SHR ADD SWAP1 PUSH3 0x323 JUMP JUMPDEST CODESIZE PUSH3 0xB9 JUMP JUMPDEST SWAP3 POP DUP2 SWAP3 PUSH3 0x274 JUMP JUMPDEST PUSH4 0x4E487B71 PUSH1 0xE0 SHL PUSH1 0x0 MSTORE PUSH1 0x41 PUSH1 0x4 MSTORE PUSH1 0x24 PUSH1 0x0 REVERT JUMPDEST DUP2 DUP2 ADD DUP5 ADD MLOAD DUP6 DUP3 ADD DUP6 ADD MSTORE DUP4 ADD PUSH3 0x87 JUMP JUMPDEST PUSH1 0x0 DUP1 REVERT JUMPDEST PUSH1 0x40 MLOAD SWAP2 SWAP1 PUSH1 0x1F ADD PUSH1 0x1F NOT AND DUP3 ADD PUSH1 0x1 PUSH1 0x1 PUSH1 0x40 SHL SUB DUP2 GT DUP4 DUP3 LT OR PUSH3 0x291 JUMPI PUSH1 0x40 MSTORE JUMP JUMPDEST SWAP1 PUSH1 0x1 DUP3 DUP2 SHR SWAP3 AND DUP1 ISZERO PUSH3 0x318 JUMPI JUMPDEST PUSH1 0x20 DUP4 LT EQ PUSH3 0x302 JUMPI JUMP JUMPDEST PUSH4 0x4E487B71 PUSH1 0xE0 SHL PUSH1 0x0 MSTORE PUSH1 0x22 PUSH1 0x4 MSTORE PUSH1 0x24 PUSH1 0x0 REVERT JUMPDEST SWAP2 PUSH1 0x7F AND SWAP2 PUSH3 0x2F6 JUMP JUMPDEST DUP2 DUP2 LT PUSH3 0x32F JUMPI POP POP JUMP JUMPDEST PUSH1 0x0 DUP2 SSTORE PUSH1 0x1 ADD PUSH3 0x323 JUMP INVALID PUSH1 0x40 PUSH1 0x80 DUP2 MSTORE PUSH1 0x4 SWAP1 DUP2 CALLDATASIZE LT ISZERO PUSH2 0x15 JUMPI PUSH1 0x0 DUP1 REVERT JUMPDEST PUSH1 0x0 SWAP2 DUP3 CALLDATALOAD PUSH1 0xE0 SHR SWAP1 DUP2 PUSH3 0xFDD58E EQ PUSH2 0x1820 JUMPI DUP2 PUSH4 0x1FFC9A7 EQ PUSH2 0x17B2 JUMPI DUP2 PUSH4 0x6FDDE03 EQ PUSH2 0x16FF JUMPI DUP2 PUSH4 0xE89341C EQ PUSH2 0x1626 JUMPI DUP2 PUSH4 0x2EB2C2D6 EQ PUSH2 0x1342 JUMPI DUP2 PUSH4 0x4E1273F4 EQ PUSH2 0x11AD JUMPI DUP2 PUSH4 0x6B20C454 EQ PUSH2 0x1069 JUMPI DUP2 PUSH4 0x715018A6 EQ PUSH2 0x101A JUMPI DUP2 PUSH4 0x862440E2 EQ PUSH2 0xEED JUMPI DUP2 PUSH4 0x8DA5CB5B EQ PUSH2 0xEC4 JUMPI DUP2 PUSH4 0x95D89B41 EQ PUSH2 0xDDF JUMPI DUP2 PUSH4 0xA22CB465 EQ PUSH2 0xD01 JUMPI DUP2 PUSH4 0xA4B645EB EQ PUSH2 0x9F4 JUMPI DUP2 PUSH4 0xB9571E84 EQ PUSH2 0x539 JUMPI DUP2 PUSH4 0xE985E9C5 EQ PUSH2 0x4E7 JUMPI DUP2 PUSH4 0xF242432A EQ PUSH2 0x28D JUMPI DUP2 PUSH4 0xF2FDE38B EQ PUSH2 0x1D2 JUMPI POP PUSH4 0xF5298ACA EQ PUSH2 0xE8 JUMPI PUSH1 0x0 DUP1 REVERT JUMPDEST DUP2 SWAP1 CALLVALUE PUSH2 0x1CF JUMPI PUSH1 0x60 CALLDATASIZE PUSH1 0x3 NOT ADD SLT PUSH2 0x1CF JUMPI PUSH2 0x103 PUSH2 0x1850 JUMP JUMPDEST PUSH1 0x1 PUSH1 0x1 PUSH1 0xA0 SHL SUB AND SWAP1 PUSH1 0x24 CALLDATALOAD SWAP1 PUSH1 0x0 DUP1 MLOAD PUSH1 0x20 PUSH2 0x1FCA DUP4 CODECOPY DUP2 MLOAD SWAP2 MSTORE SWAP1 PUSH1 0x44 CALLDATALOAD CALLER DUP6 EQ DUP1 ISZERO PUSH2 0x1B0 JUMPI JUMPDEST PUSH2 0x137 SWAP1 PUSH2 0x1BC8 JUMP JUMPDEST PUSH2 0x142 DUP6 ISZERO ISZERO PUSH2 0x1EA3 JUMP JUMPDEST PUSH2 0x14B DUP5 PUSH2 0x1E6E JUMP JUMPDEST POP PUSH2 0x155 DUP2 PUSH2 0x1E6E JUMP JUMPDEST POP DUP6 DUP3 MLOAD PUSH2 0x162 DUP2 PUSH2 0x18BB JUMP JUMPDEST MSTORE DUP4 DUP7 MSTORE DUP6 PUSH1 0x20 MSTORE DUP2 DUP7 KECCAK256 DUP6 DUP8 MSTORE PUSH1 0x20 MSTORE PUSH2 0x18C DUP2 DUP4 DUP9 KECCAK256 SLOAD PUSH2 0x187 DUP3 DUP3 LT ISZERO PUSH2 0x1EFB JUMP JUMPDEST PUSH2 0x1C85 JUMP JUMPDEST DUP5 DUP8 MSTORE DUP7 PUSH1 0x20 MSTORE DUP3 DUP8 KECCAK256 DUP7 DUP9 MSTORE PUSH1 0x20 MSTORE DUP3 DUP8 KECCAK256 SSTORE DUP2 MLOAD SWAP4 DUP5 MSTORE PUSH1 0x20 DUP5 ADD MSTORE CALLER SWAP3 LOG4 DUP1 RETURN JUMPDEST POP DUP5 DUP7 MSTORE PUSH1 0x1 PUSH1 0x20 SWAP1 DUP2 MSTORE DUP3 DUP8 KECCAK256 CALLER DUP9 MSTORE SWAP1 MSTORE DUP2 DUP7 KECCAK256 SLOAD PUSH1 0xFF AND PUSH2 0x12E JUMP JUMPDEST POP REVERT JUMPDEST SWAP1 POP CALLVALUE PUSH2 0x289 JUMPI PUSH1 0x20 CALLDATASIZE PUSH1 0x3 NOT ADD SLT PUSH2 0x289 JUMPI PUSH2 0x1ED PUSH2 0x1850 JUMP JUMPDEST PUSH1 0x3 SLOAD SWAP2 PUSH1 0x1 PUSH1 0x1 PUSH1 0xA0 SHL SUB DUP1 DUP5 AND SWAP3 PUSH2 0x208 CALLER DUP6 EQ PUSH2 0x1A4E JUMP JUMPDEST AND SWAP4 DUP5 ISZERO PUSH2 0x237 JUMPI POP POP DUP3 SWAP1 PUSH1 0x0 DUP1 MLOAD PUSH1 0x20 PUSH2 0x1FEA DUP4 CODECOPY DUP2 MLOAD SWAP2 MSTORE DUP6 DUP1 LOG3 PUSH1 0x1 PUSH1 0x1 PUSH1 0xA0 SHL SUB NOT AND OR PUSH1 0x3 SSTORE DUP1 RETURN JUMPDEST SWAP1 PUSH1 0x20 PUSH1 0x84 SWAP3 MLOAD SWAP2 PUSH3 0x461BCD PUSH1 0xE5 SHL DUP4 MSTORE DUP3 ADD MSTORE PUSH1 0x26 PUSH1 0x24 DUP3 ADD MSTORE PUSH32 0x4F776E61626C653A206E6577206F776E657220697320746865207A65726F2061 PUSH1 0x44 DUP3 ADD MSTORE PUSH6 0x646472657373 PUSH1 0xD0 SHL PUSH1 0x64 DUP3 ADD MSTORE REVERT JUMPDEST DUP3 DUP1 REVERT JUMPDEST SWAP2 SWAP1 POP CALLVALUE PUSH2 0x289 JUMPI PUSH1 0xA0 CALLDATASIZE PUSH1 0x3 NOT ADD SLT PUSH2 0x289 JUMPI PUSH2 0x2A9 PUSH2 0x1850 JUMP JUMPDEST DUP4 PUSH2 0x2B2 PUSH2 0x186B JUMP JUMPDEST SWAP2 PUSH1 0x44 CALLDATALOAD PUSH1 0x64 CALLDATALOAD PUSH1 0x84 CALLDATALOAD PUSH1 0x1 PUSH1 0x1 PUSH1 0x40 SHL SUB DUP2 GT PUSH2 0x4E3 JUMPI PUSH2 0x2D7 SWAP1 CALLDATASIZE SWAP1 DUP10 ADD PUSH2 0x19C4 JUMP JUMPDEST SWAP3 PUSH1 0x1 PUSH1 0x1 PUSH1 0xA0 SHL SUB DUP7 DUP2 AND SWAP2 PUSH2 0x2EF DUP4 ISZERO ISZERO PUSH2 0x1B6E JUMP JUMPDEST AND SWAP3 CALLER DUP5 EQ DUP1 ISZERO PUSH2 0x4C4 JUMPI JUMPDEST PUSH2 0x304 SWAP1 PUSH2 0x1BC8 JUMP JUMPDEST PUSH2 0x30D DUP2 PUSH2 0x1E6E JUMP JUMPDEST POP PUSH2 0x317 DUP4 PUSH2 0x1E6E JUMP JUMPDEST POP DUP1 DUP7 MSTORE PUSH1 0x20 SWAP7 DUP7 DUP9 MSTORE DUP9 DUP8 KECCAK256 DUP6 DUP9 MSTORE DUP9 MSTORE PUSH2 0x33D DUP5 DUP11 DUP10 KECCAK256 SLOAD PUSH2 0x187 DUP3 DUP3 LT ISZERO PUSH2 0x1C26 JUMP JUMPDEST DUP3 DUP9 MSTORE DUP8 DUP10 MSTORE DUP10 DUP9 KECCAK256 DUP7 DUP10 MSTORE DUP10 MSTORE DUP10 DUP9 KECCAK256 SSTORE DUP2 DUP8 MSTORE DUP7 DUP9 MSTORE DUP9 DUP8 KECCAK256 DUP4 DUP9 MSTORE DUP9 MSTORE DUP9 DUP8 KECCAK256 PUSH2 0x36B DUP6 DUP3 SLOAD PUSH2 0x1C92 JUMP JUMPDEST SWAP1 SSTORE DUP3 DUP6 DUP11 MLOAD DUP5 DUP2 MSTORE DUP7 DUP12 DUP3 ADD MSTORE PUSH1 0x0 DUP1 MLOAD PUSH1 0x20 PUSH2 0x1FCA DUP4 CODECOPY DUP2 MLOAD SWAP2 MSTORE DUP13 CALLER SWAP3 LOG4 EXTCODESIZE PUSH2 0x395 JUMPI DUP6 DUP1 RETURN JUMPDEST DUP9 SWAP6 DUP8 SWAP5 PUSH2 0x3D6 DUP11 MLOAD SWAP8 DUP9 SWAP7 DUP8 SWAP6 DUP7 SWAP5 PUSH4 0xF23A6E61 PUSH1 0xE0 SHL SWAP13 DUP14 DUP8 MSTORE CALLER SWAP1 DUP8 ADD MSTORE PUSH1 0x24 DUP7 ADD MSTORE PUSH1 0x44 DUP6 ADD MSTORE PUSH1 0x64 DUP5 ADD MSTORE PUSH1 0xA0 PUSH1 0x84 DUP5 ADD MSTORE PUSH1 0xA4 DUP4 ADD SWAP1 PUSH2 0x190F JUMP JUMPDEST SUB SWAP3 GAS CALL DUP7 SWAP2 DUP2 PUSH2 0x495 JUMPI JUMPDEST POP PUSH2 0x464 JUMPI POP POP PUSH1 0x1 SWAP1 PUSH2 0x3F4 PUSH2 0x1D8D JUMP JUMPDEST PUSH4 0x8C379A0 EQ PUSH2 0x431 JUMPI JUMPDEST POP PUSH2 0x414 JUMPI POP POP JUMPDEST CODESIZE DUP1 DUP1 DUP4 DUP2 DUP1 DUP1 DUP1 DUP1 DUP6 DUP1 RETURN JUMPDEST MLOAD PUSH3 0x461BCD PUSH1 0xE5 SHL DUP2 MSTORE SWAP2 POP DUP2 SWAP1 PUSH2 0x42D SWAP1 DUP3 ADD PUSH2 0x1E19 JUMP JUMPDEST SUB SWAP1 REVERT JUMPDEST PUSH2 0x439 PUSH2 0x1DAB JUMP JUMPDEST DUP1 PUSH2 0x444 JUMPI POP PUSH2 0x3FF JUMP JUMPDEST PUSH2 0x42D DUP6 SWAP2 DUP6 MLOAD SWAP4 DUP5 SWAP4 PUSH3 0x461BCD PUSH1 0xE5 SHL DUP6 MSTORE DUP5 ADD MSTORE PUSH1 0x24 DUP4 ADD SWAP1 PUSH2 0x190F JUMP JUMPDEST PUSH1 0x1 PUSH1 0x1 PUSH1 0xE0 SHL SUB NOT AND SUB SWAP1 POP PUSH2 0x47C JUMPI POP POP PUSH2 0x407 JUMP JUMPDEST MLOAD PUSH3 0x461BCD PUSH1 0xE5 SHL DUP2 MSTORE SWAP2 POP DUP2 SWAP1 PUSH2 0x42D SWAP1 DUP3 ADD PUSH2 0x1D44 JUMP JUMPDEST PUSH2 0x4B6 SWAP2 SWAP3 POP DUP5 RETURNDATASIZE DUP7 GT PUSH2 0x4BD JUMPI JUMPDEST PUSH2 0x4AE DUP2 DUP4 PUSH2 0x18EC JUMP JUMPDEST DUP2 ADD SWAP1 PUSH2 0x1D24 JUMP JUMPDEST SWAP1 CODESIZE PUSH2 0x3E2 JUMP JUMPDEST POP RETURNDATASIZE PUSH2 0x4A4 JUMP JUMPDEST POP DUP4 DUP7 MSTORE PUSH1 0x1 PUSH1 0x20 SWAP1 DUP2 MSTORE DUP9 DUP8 KECCAK256 CALLER DUP9 MSTORE SWAP1 MSTORE DUP8 DUP7 KECCAK256 SLOAD PUSH1 0xFF AND PUSH2 0x2FB JUMP JUMPDEST DUP5 DUP1 REVERT JUMPDEST POP POP CALLVALUE PUSH2 0x535 JUMPI DUP1 PUSH1 0x3 NOT CALLDATASIZE ADD SLT PUSH2 0x535 JUMPI PUSH1 0xFF DUP2 PUSH1 0x20 SWAP4 PUSH2 0x507 PUSH2 0x1850 JUMP JUMPDEST PUSH2 0x50F PUSH2 0x186B JUMP JUMPDEST PUSH1 0x1 PUSH1 0x1 PUSH1 0xA0 SHL SUB SWAP2 DUP3 AND DUP4 MSTORE PUSH1 0x1 DUP8 MSTORE DUP4 DUP4 KECCAK256 SWAP2 AND DUP3 MSTORE DUP6 MSTORE KECCAK256 SLOAD SWAP2 MLOAD SWAP2 AND ISZERO ISZERO DUP2 MSTORE RETURN JUMPDEST POP DUP1 REVERT JUMPDEST SWAP1 POP CALLVALUE PUSH2 0x289 JUMPI PUSH1 0x3 NOT SWAP2 PUSH1 0xA0 CALLDATASIZE DUP5 ADD SLT PUSH2 0x9F0 JUMPI PUSH2 0x556 PUSH2 0x1850 JUMP JUMPDEST PUSH1 0x24 SWAP5 PUSH1 0x1 PUSH1 0x1 PUSH1 0x40 SHL SUB SWAP5 SWAP1 SWAP2 SWAP1 DUP7 CALLDATALOAD DUP7 DUP2 GT PUSH2 0x9F0 JUMPI PUSH2 0x57B SWAP1 CALLDATASIZE SWAP1 DUP8 ADD PUSH2 0x1966 JUMP JUMPDEST SWAP5 PUSH1 0x44 CALLDATALOAD DUP8 DUP2 GT PUSH2 0x4E3 JUMPI PUSH2 0x593 SWAP1 CALLDATASIZE SWAP1 DUP4 ADD PUSH2 0x1966 JUMP JUMPDEST SWAP7 PUSH1 0x64 CALLDATALOAD SWAP4 DUP2 DUP6 GT PUSH2 0x9EC JUMPI CALLDATASIZE PUSH1 0x23 DUP7 ADD SLT ISZERO PUSH2 0x9EC JUMPI DUP5 DUP4 ADD CALLDATALOAD SWAP10 PUSH2 0x5B8 DUP12 PUSH2 0x194F JUMP JUMPDEST SWAP5 PUSH2 0x5C5 DUP10 MLOAD SWAP7 DUP8 PUSH2 0x18EC JUMP JUMPDEST DUP12 DUP7 MSTORE PUSH1 0x20 SWAP7 DUP8 DUP8 ADD DUP4 PUSH1 0x5 SWAP15 DUP16 SHL DUP4 ADD ADD SWAP2 CALLDATASIZE DUP4 GT PUSH2 0x9E8 JUMPI DUP5 DUP2 ADD SWAP2 JUMPDEST DUP4 DUP4 LT PUSH2 0x9BE JUMPI POP POP POP POP PUSH1 0x84 CALLDATALOAD DUP5 DUP2 GT PUSH2 0x9BA JUMPI PUSH2 0x606 SWAP1 CALLDATASIZE SWAP1 DUP8 ADD PUSH2 0x19C4 JUMP JUMPDEST PUSH1 0x1 DUP1 PUSH1 0xA0 SHL SUB SWAP4 PUSH1 0x3 SWAP5 PUSH2 0x61F DUP2 DUP8 SLOAD AND CALLER EQ PUSH2 0x1A4E JUMP JUMPDEST DUP13 MLOAD DUP10 MLOAD SUB PUSH2 0x969 JUMPI SWAP1 PUSH2 0x650 DUP14 SWAP11 SWAP10 SWAP8 SWAP6 SWAP16 SWAP9 SWAP7 SWAP5 SWAP4 SWAP3 DUP16 SWAP1 DUP4 AND SWAP12 PUSH2 0x647 DUP14 ISZERO ISZERO PUSH2 0x1F53 JUMP JUMPDEST MLOAD SWAP1 MLOAD EQ PUSH2 0x1C9F JUMP JUMPDEST DUP11 JUMPDEST DUP14 MLOAD DUP2 LT ISZERO PUSH2 0x6B1 JUMPI SWAP1 DUP15 SWAP16 SWAP4 SWAP3 SWAP2 DUP15 SWAP16 SWAP1 DUP16 DUP16 DUP16 SWAP1 DUP16 SWAP2 DUP16 SWAP3 PUSH2 0x69E SWAP4 PUSH2 0x688 DUP8 PUSH2 0x681 DUP2 PUSH2 0x6A5 SWAP12 PUSH2 0x1B44 JUMP JUMPDEST MLOAD SWAP8 PUSH2 0x1B44 JUMP JUMPDEST MLOAD DUP4 MSTORE DUP3 DUP2 MSTORE DUP4 DUP4 KECCAK256 SWAP2 DUP4 MSTORE MSTORE KECCAK256 SWAP2 DUP3 SLOAD PUSH2 0x1C92 JUMP JUMPDEST SWAP1 SSTORE PUSH2 0x1B1F JUMP JUMPDEST SWAP1 SWAP2 SWAP3 SWAP4 SWAP16 SWAP15 POP PUSH2 0x652 JUMP JUMPDEST POP DUP15 DUP13 DUP16 DUP16 SWAP6 SWAP1 DUP13 DUP16 SWAP7 DUP16 DUP9 DUP14 SWAP6 DUP9 DUP13 SWAP5 DUP7 SWAP12 DUP6 DUP6 DUP9 PUSH1 0x0 DUP1 MLOAD PUSH1 0x20 PUSH2 0x1FAA DUP4 CODECOPY DUP2 MLOAD SWAP2 MSTORE PUSH2 0x6E8 DUP16 DUP15 SWAP1 MLOAD SWAP2 DUP3 SWAP2 CALLER SWAP6 DUP4 PUSH2 0x1CFC JUMP JUMPDEST SUB SWAP1 LOG4 EXTCODESIZE PUSH2 0x847 JUMPI JUMPDEST POP POP POP SWAP5 POP POP POP POP POP JUMPDEST DUP6 MLOAD DUP2 LT ISZERO PUSH2 0x843 JUMPI PUSH2 0x70E DUP2 DUP12 PUSH2 0x1B44 JUMP JUMPDEST MLOAD PUSH2 0x719 DUP3 DUP9 PUSH2 0x1B44 JUMP JUMPDEST MLOAD DUP7 MSTORE PUSH1 0x6 DUP6 MSTORE DUP3 DUP7 KECCAK256 SWAP1 DUP1 MLOAD SWAP1 DUP11 DUP3 GT PUSH2 0x831 JUMPI DUP14 SWAP1 PUSH2 0x73A DUP5 SLOAD PUSH2 0x1881 JUMP JUMPDEST PUSH1 0x1F SWAP3 DUP4 DUP3 GT PUSH2 0x7F1 JUMPI JUMPDEST POP POP DUP8 SWAP2 DUP4 GT PUSH1 0x1 EQ PUSH2 0x789 JUMPI PUSH2 0x779 SWAP5 SWAP4 SWAP3 SWAP2 DUP10 SWAP2 DUP4 PUSH2 0x77E JUMPI JUMPDEST POP POP DUP2 PUSH1 0x1 SHL SWAP2 PUSH1 0x0 NOT SWAP1 DUP13 SHL SHR NOT AND OR SWAP1 SSTORE PUSH2 0x1B1F JUMP JUMPDEST PUSH2 0x6FB JUMP JUMPDEST ADD MLOAD SWAP1 POP DUP16 DUP1 PUSH2 0x761 JUMP JUMPDEST DUP4 DUP10 MSTORE DUP8 DUP10 KECCAK256 SWAP2 SWAP1 PUSH1 0x1F NOT DUP5 AND DUP11 JUMPDEST DUP11 DUP3 DUP3 LT PUSH2 0x7DB JUMPI POP POP SWAP1 DUP5 PUSH2 0x779 SWAP8 SWAP7 SWAP6 SWAP5 SWAP4 SWAP3 LT PUSH2 0x7C3 JUMPI JUMPDEST POP POP POP PUSH1 0x1 SWAP1 DUP2 SHL ADD SWAP1 SSTORE PUSH2 0x1B1F JUMP JUMPDEST ADD MLOAD PUSH1 0x0 NOT DUP4 DUP14 SHL PUSH1 0xF8 AND SHR NOT AND SWAP1 SSTORE DUP15 DUP1 DUP1 PUSH2 0x7B3 JUMP JUMPDEST PUSH1 0x1 DUP6 SWAP7 DUP3 SWAP4 SWAP7 DUP7 ADD MLOAD DUP2 SSTORE ADD SWAP6 ADD SWAP4 ADD PUSH2 0x798 JUMP JUMPDEST DUP6 DUP12 MSTORE DUP10 DUP12 KECCAK256 SWAP1 DUP5 DUP1 DUP8 ADD DUP3 SHR DUP4 ADD SWAP4 DUP13 DUP9 LT PUSH2 0x828 JUMPI JUMPDEST ADD SWAP1 SHR ADD SWAP1 JUMPDEST DUP2 DUP2 LT PUSH2 0x81D JUMPI POP DUP16 PUSH2 0x745 JUMP JUMPDEST DUP11 DUP2 SSTORE PUSH1 0x1 ADD PUSH2 0x80F JUMP JUMPDEST SWAP4 POP DUP3 SWAP4 PUSH2 0x809 JUMP JUMPDEST PUSH4 0x4E487B71 PUSH1 0xE0 SHL DUP9 MSTORE PUSH1 0x41 DUP13 MSTORE DUP6 DUP9 REVERT JUMPDEST DUP5 DUP1 RETURN JUMPDEST DUP4 SWAP3 DUP11 MLOAD SWAP9 DUP10 SWAP8 DUP9 SWAP7 DUP8 SWAP6 PUSH4 0xBC197C81 PUSH1 0xE0 SHL SWAP14 DUP15 DUP9 MSTORE CALLER SWAP1 DUP9 ADD MSTORE DUP7 ADD MSTORE PUSH1 0x44 DUP6 ADD PUSH1 0xA0 SWAP1 MSTORE PUSH1 0xA4 DUP6 ADD PUSH2 0x87B SWAP2 PUSH2 0x1A1A JUMP JUMPDEST DUP3 DUP6 DUP3 SUB ADD PUSH1 0x64 DUP7 ADD MSTORE PUSH2 0x88E SWAP2 PUSH2 0x1A1A JUMP JUMPDEST SWAP1 DUP4 DUP3 SUB ADD PUSH1 0x84 DUP5 ADD MSTORE PUSH2 0x8A1 SWAP2 PUSH2 0x190F JUMP JUMPDEST SUB SWAP3 GAS CALL DUP7 SWAP2 DUP2 PUSH2 0x94A JUMPI JUMPDEST POP PUSH2 0x925 JUMPI POP POP PUSH1 0x1 PUSH2 0x8BE PUSH2 0x1D8D JUMP JUMPDEST PUSH4 0x8C379A0 EQ PUSH2 0x8F2 JUMPI JUMPDEST PUSH2 0x8DC JUMPI JUMPDEST DUP8 DUP12 DUP5 DUP8 DUP3 DUP9 DUP2 DUP9 DUP2 PUSH2 0x6F1 JUMP JUMPDEST MLOAD PUSH3 0x461BCD PUSH1 0xE5 SHL DUP2 MSTORE DUP1 PUSH2 0x42D DUP2 DUP11 ADD PUSH2 0x1E19 JUMP JUMPDEST PUSH2 0x8FA PUSH2 0x1DAB JUMP JUMPDEST DUP1 PUSH2 0x905 JUMPI POP PUSH2 0x8C9 JUMP JUMPDEST SWAP1 POP DUP9 SWAP3 PUSH2 0x42D SWAP3 MLOAD SWAP5 DUP6 SWAP5 PUSH3 0x461BCD PUSH1 0xE5 SHL DUP7 MSTORE DUP6 ADD MSTORE DUP4 ADD SWAP1 PUSH2 0x190F JUMP JUMPDEST PUSH1 0x1 PUSH1 0x1 PUSH1 0xE0 SHL SUB NOT AND EQ PUSH2 0x8CE JUMPI MLOAD PUSH3 0x461BCD PUSH1 0xE5 SHL DUP2 MSTORE DUP1 PUSH2 0x42D DUP2 DUP11 ADD PUSH2 0x1D44 JUMP JUMPDEST PUSH2 0x962 SWAP2 SWAP3 POP DUP7 RETURNDATASIZE DUP9 GT PUSH2 0x4BD JUMPI PUSH2 0x4AE DUP2 DUP4 PUSH2 0x18EC JUMP JUMPDEST SWAP1 DUP14 PUSH2 0x8AD JUMP JUMPDEST POP DUP11 MLOAD PUSH3 0x461BCD PUSH1 0xE5 SHL DUP2 MSTORE DUP1 DUP9 ADD DUP11 SWAP1 MSTORE PUSH1 0x25 DUP2 DUP7 ADD MSTORE PUSH32 0x455243313135353A2069647320616E642075726973206C656E677468206D6973 PUSH1 0x44 DUP3 ADD MSTORE PUSH5 0xDAC2E8C6D PUSH1 0xDB SHL PUSH1 0x64 DUP3 ADD MSTORE PUSH1 0x84 SWAP1 REVERT JUMPDEST DUP9 DUP1 REVERT JUMPDEST DUP3 CALLDATALOAD DUP9 DUP2 GT PUSH2 0x9E4 JUMPI DUP12 SWAP2 PUSH2 0x9D9 DUP4 SWAP3 DUP10 CALLDATASIZE SWAP2 DUP8 ADD ADD PUSH2 0x19C4 JUMP JUMPDEST DUP2 MSTORE ADD SWAP3 ADD SWAP2 PUSH2 0x5E4 JUMP JUMPDEST DUP13 DUP1 REVERT JUMPDEST DUP11 DUP1 REVERT JUMPDEST DUP6 DUP1 REVERT JUMPDEST DUP4 DUP1 REVERT JUMPDEST DUP4 SWAP2 POP CALLVALUE PUSH2 0x535 JUMPI PUSH1 0xA0 CALLDATASIZE PUSH1 0x3 NOT ADD SLT PUSH2 0x535 JUMPI PUSH2 0xA10 PUSH2 0x1850 JUMP JUMPDEST PUSH1 0x44 CALLDATALOAD SWAP4 PUSH1 0x1 PUSH1 0x1 PUSH1 0x40 SHL SUB SWAP2 SWAP1 PUSH1 0x24 CALLDATALOAD PUSH1 0x64 CALLDATALOAD DUP5 DUP2 GT PUSH2 0xCFD JUMPI PUSH2 0xA38 SWAP1 CALLDATASIZE SWAP1 DUP8 ADD PUSH2 0x19C4 JUMP JUMPDEST SWAP7 PUSH1 0x84 CALLDATALOAD DUP6 DUP2 GT PUSH2 0xCF9 JUMPI SWAP1 PUSH2 0xA52 DUP8 SWAP3 CALLDATASIZE SWAP1 DUP5 ADD PUSH2 0x19C4 JUMP JUMPDEST SWAP5 PUSH1 0x1 DUP1 PUSH1 0xA0 SHL SUB PUSH2 0xA69 DUP2 PUSH1 0x3 SLOAD AND CALLER EQ PUSH2 0x1A4E JUMP JUMPDEST DUP2 AND SWAP6 PUSH2 0xA77 DUP8 ISZERO ISZERO PUSH2 0x1F53 JUMP JUMPDEST PUSH2 0xA80 DUP6 PUSH2 0x1E6E JUMP JUMPDEST POP PUSH2 0xA8A DUP4 PUSH2 0x1E6E JUMP JUMPDEST POP DUP5 DUP11 MSTORE PUSH1 0x20 SWAP7 DUP8 SWAP3 DUP12 DUP5 MSTORE DUP8 DUP13 KECCAK256 DUP3 DUP14 MSTORE DUP5 MSTORE DUP8 DUP13 KECCAK256 PUSH2 0xAAC DUP7 DUP3 SLOAD PUSH2 0x1C92 JUMP JUMPDEST SWAP1 SSTORE DUP2 DUP13 DUP10 MLOAD DUP10 DUP2 MSTORE DUP8 DUP8 DUP3 ADD MSTORE PUSH1 0x0 DUP1 MLOAD PUSH1 0x20 PUSH2 0x1FCA DUP4 CODECOPY DUP2 MLOAD SWAP2 MSTORE DUP12 CALLER SWAP3 LOG4 EXTCODESIZE PUSH2 0xBF1 JUMPI JUMPDEST POP POP POP POP POP DUP6 MSTORE PUSH1 0x6 DUP3 MSTORE DUP5 KECCAK256 SWAP3 DUP6 MLOAD SWAP3 DUP4 GT PUSH2 0xBDE JUMPI POP PUSH2 0xAF5 DUP4 SLOAD PUSH2 0x1881 JUMP JUMPDEST PUSH1 0x1F DUP2 GT PUSH2 0xB9B JUMPI JUMPDEST POP DUP1 PUSH1 0x1F DUP4 GT PUSH1 0x1 EQ PUSH2 0xB39 JUMPI POP DUP4 SWAP5 DUP3 SWAP4 SWAP5 SWAP3 PUSH2 0xB2E JUMPI JUMPDEST POP POP DUP2 PUSH1 0x1 SHL SWAP2 PUSH1 0x0 NOT SWAP1 PUSH1 0x3 SHL SHR NOT AND OR SWAP1 SSTORE DUP1 RETURN JUMPDEST ADD MLOAD SWAP1 POP DUP5 DUP1 PUSH2 0xB17 JUMP JUMPDEST SWAP1 PUSH1 0x1F NOT DUP4 AND SWAP6 DUP5 DUP7 MSTORE DUP3 DUP7 KECCAK256 SWAP3 DUP7 SWAP1 JUMPDEST DUP9 DUP3 LT PUSH2 0xB83 JUMPI POP POP DUP4 PUSH1 0x1 SWAP6 SWAP7 SWAP8 LT PUSH2 0xB6A JUMPI JUMPDEST POP POP POP DUP2 SHL ADD SWAP1 SSTORE DUP1 RETURN JUMPDEST ADD MLOAD PUSH1 0x0 NOT PUSH1 0xF8 DUP5 PUSH1 0x3 SHL AND SHR NOT AND SWAP1 SSTORE DUP5 DUP1 DUP1 PUSH2 0xB5F JUMP JUMPDEST DUP1 PUSH1 0x1 DUP6 SWAP7 DUP3 SWAP5 SWAP7 DUP7 ADD MLOAD DUP2 SSTORE ADD SWAP6 ADD SWAP4 ADD SWAP1 PUSH2 0xB4A JUMP JUMPDEST DUP4 DUP6 MSTORE DUP2 DUP6 KECCAK256 PUSH1 0x1F DUP5 ADD PUSH1 0x5 SHR DUP2 ADD SWAP2 DUP4 DUP6 LT PUSH2 0xBD4 JUMPI JUMPDEST PUSH1 0x1F ADD PUSH1 0x5 SHR ADD SWAP1 JUMPDEST DUP2 DUP2 LT PUSH2 0xBC9 JUMPI POP PUSH2 0xAFE JUMP JUMPDEST DUP6 DUP2 SSTORE PUSH1 0x1 ADD PUSH2 0xBBC JUMP JUMPDEST SWAP1 SWAP2 POP DUP2 SWAP1 PUSH2 0xBB3 JUMP JUMPDEST PUSH4 0x4E487B71 PUSH1 0xE0 SHL DUP6 MSTORE PUSH1 0x41 SWAP1 MSTORE PUSH1 0x24 DUP5 REVERT JUMPDEST PUSH2 0xC31 SWAP4 DUP12 DUP9 MLOAD DUP1 SWAP7 DUP2 SWAP6 DUP3 SWAP5 PUSH4 0xF23A6E61 PUSH1 0xE0 SHL SWAP11 DUP12 DUP6 MSTORE CALLER SWAP1 DUP6 ADD MSTORE DUP5 PUSH1 0x24 DUP6 ADD MSTORE DUP12 PUSH1 0x44 DUP6 ADD MSTORE PUSH1 0x64 DUP5 ADD MSTORE PUSH1 0xA0 PUSH1 0x84 DUP5 ADD MSTORE PUSH1 0xA4 DUP4 ADD SWAP1 PUSH2 0x190F JUMP JUMPDEST SUB SWAP3 GAS CALL DUP9 SWAP2 DUP2 PUSH2 0xCDA JUMPI JUMPDEST POP PUSH2 0xCB4 JUMPI POP POP PUSH1 0x1 PUSH2 0xC4E PUSH2 0x1D8D JUMP JUMPDEST PUSH4 0x8C379A0 EQ PUSH2 0xC7F JUMPI JUMPDEST PUSH2 0xC68 JUMPI JUMPDEST DUP5 DUP9 DUP5 DUP2 DUP1 PUSH2 0xAD3 JUMP JUMPDEST DUP2 MLOAD PUSH3 0x461BCD PUSH1 0xE5 SHL DUP2 MSTORE DUP1 PUSH2 0x42D DUP2 DUP9 ADD PUSH2 0x1E19 JUMP JUMPDEST PUSH2 0xC87 PUSH2 0x1DAB JUMP JUMPDEST DUP1 PUSH2 0xC92 JUMPI POP PUSH2 0xC59 JUMP JUMPDEST DUP4 MLOAD PUSH3 0x461BCD PUSH1 0xE5 SHL DUP2 MSTORE DUP1 DUP9 ADD DUP7 SWAP1 MSTORE SWAP1 DUP2 SWAP1 PUSH2 0x42D SWAP1 PUSH1 0x24 DUP4 ADD SWAP1 PUSH2 0x190F JUMP JUMPDEST PUSH1 0x1 PUSH1 0x1 PUSH1 0xE0 SHL SUB NOT AND EQ PUSH2 0xC5E JUMPI DUP2 MLOAD PUSH3 0x461BCD PUSH1 0xE5 SHL DUP2 MSTORE DUP1 PUSH2 0x42D DUP2 DUP9 ADD PUSH2 0x1D44 JUMP JUMPDEST PUSH2 0xCF2 SWAP2 SWAP3 POP DUP7 RETURNDATASIZE DUP9 GT PUSH2 0x4BD JUMPI PUSH2 0x4AE DUP2 DUP4 PUSH2 0x18EC JUMP JUMPDEST SWAP1 DUP11 PUSH2 0xC3D JUMP JUMPDEST DUP8 DUP1 REVERT JUMPDEST DUP7 DUP1 REVERT JUMPDEST SWAP2 SWAP1 POP CALLVALUE PUSH2 0x289 JUMPI DUP1 PUSH1 0x3 NOT CALLDATASIZE ADD SLT PUSH2 0x289 JUMPI PUSH2 0xD1C PUSH2 0x1850 JUMP JUMPDEST SWAP1 PUSH1 0x24 CALLDATALOAD SWAP2 DUP3 ISZERO ISZERO DUP1 SWAP4 SUB PUSH2 0x4E3 JUMPI PUSH1 0x1 PUSH1 0x1 PUSH1 0xA0 SHL SUB AND SWAP3 CALLER DUP5 EQ PUSH2 0xD8B JUMPI POP CALLER DUP5 MSTORE PUSH1 0x1 PUSH1 0x20 MSTORE DUP1 DUP5 KECCAK256 DUP4 DUP6 MSTORE PUSH1 0x20 MSTORE DUP1 DUP5 KECCAK256 PUSH1 0xFF NOT DUP2 SLOAD AND PUSH1 0xFF DUP5 AND OR SWAP1 SSTORE MLOAD SWAP1 DUP2 MSTORE PUSH32 0x17307EAB39AB6107E8899845AD3D59BD9653F200F220920489CA2B5937696C31 PUSH1 0x20 CALLER SWAP3 LOG3 DUP1 RETURN JUMPDEST PUSH1 0x20 PUSH1 0x84 SWAP3 MLOAD SWAP2 PUSH3 0x461BCD PUSH1 0xE5 SHL DUP4 MSTORE DUP3 ADD MSTORE PUSH1 0x29 PUSH1 0x24 DUP3 ADD MSTORE PUSH32 0x455243313135353A2073657474696E6720617070726F76616C20737461747573 PUSH1 0x44 DUP3 ADD MSTORE PUSH9 0x103337B91039B2B633 PUSH1 0xB9 SHL PUSH1 0x64 DUP3 ADD MSTORE REVERT JUMPDEST POP POP CALLVALUE PUSH2 0x535 JUMPI DUP2 PUSH1 0x3 NOT CALLDATASIZE ADD SLT PUSH2 0x535 JUMPI DUP1 MLOAD SWAP1 DUP3 PUSH1 0x5 SLOAD PUSH2 0xE01 DUP2 PUSH2 0x1881 JUMP JUMPDEST DUP1 DUP6 MSTORE SWAP1 PUSH1 0x1 SWAP1 DUP2 DUP2 AND SWAP1 DUP2 ISZERO PUSH2 0xE9C JUMPI POP PUSH1 0x1 EQ PUSH2 0xE43 JUMPI JUMPDEST POP POP POP PUSH2 0xE2D DUP3 PUSH2 0xE3F SWAP5 SUB DUP4 PUSH2 0x18EC JUMP JUMPDEST MLOAD SWAP2 DUP3 SWAP2 PUSH1 0x20 DUP4 MSTORE PUSH1 0x20 DUP4 ADD SWAP1 PUSH2 0x190F JUMP JUMPDEST SUB SWAP1 RETURN JUMPDEST PUSH1 0x5 DUP4 MSTORE PUSH1 0x20 SWAP6 POP PUSH32 0x36B6384B5ECA791C62761152D0C79BB0604C104A5FB6F4EB0703F3154BB3DB0 JUMPDEST DUP3 DUP5 LT PUSH2 0xE89 JUMPI POP POP POP DUP3 PUSH2 0xE3F SWAP5 PUSH2 0xE2D SWAP3 DUP3 ADD ADD SWAP5 PUSH2 0xE1B JUMP JUMPDEST DUP1 SLOAD DUP7 DUP6 ADD DUP9 ADD MSTORE SWAP3 DUP7 ADD SWAP3 DUP2 ADD PUSH2 0xE6D JUMP JUMPDEST PUSH2 0xE3F SWAP8 POP PUSH2 0xE2D SWAP5 POP PUSH1 0x20 SWAP3 POP DUP7 SWAP4 SWAP2 POP PUSH1 0xFF NOT AND DUP3 DUP5 ADD MSTORE ISZERO ISZERO PUSH1 0x5 SHL DUP3 ADD ADD SWAP5 PUSH2 0xE1B JUMP JUMPDEST POP POP CALLVALUE PUSH2 0x535 JUMPI DUP2 PUSH1 0x3 NOT CALLDATASIZE ADD SLT PUSH2 0x535 JUMPI PUSH1 0x3 SLOAD SWAP1 MLOAD PUSH1 0x1 PUSH1 0x1 PUSH1 0xA0 SHL SUB SWAP1 SWAP2 AND DUP2 MSTORE PUSH1 0x20 SWAP1 RETURN JUMPDEST DUP4 SWAP2 POP CALLVALUE PUSH2 0x535 JUMPI DUP3 PUSH1 0x3 NOT CALLDATASIZE ADD SLT PUSH2 0x535 JUMPI PUSH1 0x1 PUSH1 0x1 PUSH1 0x40 SHL SUB PUSH1 0x24 CALLDATALOAD DUP2 DUP2 GT PUSH2 0x9F0 JUMPI PUSH2 0xF1F SWAP1 CALLDATASIZE SWAP1 DUP5 ADD PUSH2 0x19C4 JUMP JUMPDEST SWAP4 PUSH2 0xF35 PUSH1 0x1 DUP1 PUSH1 0xA0 SHL SUB PUSH1 0x3 SLOAD AND CALLER EQ PUSH2 0x1A4E JUMP JUMPDEST DUP3 CALLDATALOAD DUP5 MSTORE PUSH1 0x20 SWAP1 PUSH1 0x6 DUP3 MSTORE DUP5 KECCAK256 SWAP3 DUP6 MLOAD SWAP3 DUP4 GT PUSH2 0xBDE JUMPI POP PUSH2 0xF57 DUP4 SLOAD PUSH2 0x1881 JUMP JUMPDEST PUSH1 0x1F DUP2 GT PUSH2 0xFD7 JUMPI JUMPDEST POP DUP1 PUSH1 0x1F DUP4 GT PUSH1 0x1 EQ PUSH2 0xF8F JUMPI POP DUP4 SWAP5 DUP3 SWAP4 SWAP5 SWAP3 PUSH2 0xB2E JUMPI POP POP DUP2 PUSH1 0x1 SHL SWAP2 PUSH1 0x0 NOT SWAP1 PUSH1 0x3 SHL SHR NOT AND OR SWAP1 SSTORE DUP1 RETURN JUMPDEST SWAP1 PUSH1 0x1F NOT DUP4 AND SWAP6 DUP5 DUP7 MSTORE DUP3 DUP7 KECCAK256 SWAP3 DUP7 SWAP1 JUMPDEST DUP9 DUP3 LT PUSH2 0xFBF JUMPI POP POP DUP4 PUSH1 0x1 SWAP6 SWAP7 SWAP8 LT PUSH2 0xB6A JUMPI POP POP POP DUP2 SHL ADD SWAP1 SSTORE DUP1 RETURN JUMPDEST DUP1 PUSH1 0x1 DUP6 SWAP7 DUP3 SWAP5 SWAP7 DUP7 ADD MLOAD DUP2 SSTORE ADD SWAP6 ADD SWAP4 ADD SWAP1 PUSH2 0xFA0 JUMP JUMPDEST DUP4 DUP6 MSTORE DUP2 DUP6 KECCAK256 PUSH1 0x1F DUP5 ADD PUSH1 0x5 SHR DUP2 ADD SWAP2 DUP4 DUP6 LT PUSH2 0x1010 JUMPI JUMPDEST PUSH1 0x1F ADD PUSH1 0x5 SHR ADD SWAP1 JUMPDEST DUP2 DUP2 LT PUSH2 0x1005 JUMPI POP PUSH2 0xF60 JUMP JUMPDEST DUP6 DUP2 SSTORE PUSH1 0x1 ADD PUSH2 0xFF8 JUMP JUMPDEST SWAP1 SWAP2 POP DUP2 SWAP1 PUSH2 0xFEF JUMP JUMPDEST DUP4 CALLVALUE PUSH2 0x1066 JUMPI DUP1 PUSH1 0x3 NOT CALLDATASIZE ADD SLT PUSH2 0x1066 JUMPI PUSH1 0x3 SLOAD DUP2 PUSH1 0x1 PUSH1 0x1 PUSH1 0xA0 SHL SUB DUP3 AND PUSH2 0x1044 CALLER DUP3 EQ PUSH2 0x1A4E JUMP JUMPDEST PUSH1 0x0 DUP1 MLOAD PUSH1 0x20 PUSH2 0x1FEA DUP4 CODECOPY DUP2 MLOAD SWAP2 MSTORE DUP3 DUP1 LOG3 PUSH1 0x1 PUSH1 0x1 PUSH1 0xA0 SHL SUB NOT AND PUSH1 0x3 SSTORE DUP1 RETURN JUMPDEST DUP1 REVERT JUMPDEST SWAP2 SWAP1 POP CALLVALUE PUSH2 0x289 JUMPI PUSH1 0x60 CALLDATASIZE PUSH1 0x3 NOT ADD SLT PUSH2 0x289 JUMPI PUSH2 0x1085 PUSH2 0x1850 JUMP JUMPDEST SWAP1 PUSH1 0x1 PUSH1 0x1 PUSH1 0x40 SHL SUB PUSH1 0x24 CALLDATALOAD DUP2 DUP2 GT PUSH2 0x9EC JUMPI PUSH2 0x10A5 SWAP1 CALLDATASIZE SWAP1 DUP7 ADD PUSH2 0x1966 JUMP JUMPDEST SWAP4 PUSH1 0x44 CALLDATALOAD SWAP2 DUP3 GT PUSH2 0x9EC JUMPI PUSH2 0x10BC SWAP2 CALLDATASIZE SWAP2 ADD PUSH2 0x1966 JUMP JUMPDEST SWAP2 PUSH1 0x1 PUSH1 0x1 PUSH1 0xA0 SHL SUB AND CALLER DUP2 EQ DUP1 ISZERO PUSH2 0x118E JUMPI JUMPDEST PUSH2 0x10D9 SWAP1 PUSH2 0x1BC8 JUMP JUMPDEST PUSH2 0x10E4 DUP2 ISZERO ISZERO PUSH2 0x1EA3 JUMP JUMPDEST PUSH2 0x10F1 DUP5 MLOAD DUP5 MLOAD EQ PUSH2 0x1C9F JUMP JUMPDEST DUP5 DUP3 MLOAD PUSH2 0x10FD DUP2 PUSH2 0x18BB JUMP JUMPDEST MSTORE DUP5 JUMPDEST DUP6 DUP6 MLOAD DUP3 LT ISZERO PUSH2 0x1165 JUMPI POP DUP1 PUSH2 0x1119 PUSH2 0x1160 SWAP3 DUP8 PUSH2 0x1B44 JUMP JUMPDEST MLOAD PUSH2 0x1124 DUP3 DUP8 PUSH2 0x1B44 JUMP JUMPDEST MLOAD DUP2 DUP10 MSTORE PUSH2 0x1149 PUSH1 0x20 SWAP2 DUP11 DUP4 MSTORE DUP8 DUP12 KECCAK256 DUP8 DUP13 MSTORE DUP4 MSTORE DUP8 DUP12 KECCAK256 SLOAD PUSH2 0x187 DUP3 DUP3 LT ISZERO PUSH2 0x1EFB JUMP JUMPDEST SWAP2 DUP10 MSTORE DUP9 DUP2 MSTORE DUP6 DUP10 KECCAK256 SWAP1 DUP6 DUP11 MSTORE MSTORE DUP5 DUP9 KECCAK256 SSTORE PUSH2 0x1B1F JUMP JUMPDEST PUSH2 0x1100 JUMP JUMPDEST DUP1 DUP4 DUP8 PUSH1 0x0 DUP1 MLOAD PUSH1 0x20 PUSH2 0x1FAA DUP4 CODECOPY DUP2 MLOAD SWAP2 MSTORE PUSH2 0x1188 DUP10 DUP10 MLOAD SWAP2 DUP3 SWAP2 CALLER SWAP6 DUP4 PUSH2 0x1CFC JUMP JUMPDEST SUB SWAP1 LOG4 DUP1 RETURN JUMPDEST POP DUP1 DUP6 MSTORE PUSH1 0x1 PUSH1 0x20 SWAP1 DUP2 MSTORE DUP3 DUP7 KECCAK256 CALLER DUP8 MSTORE SWAP1 MSTORE DUP2 DUP6 KECCAK256 SLOAD PUSH1 0xFF AND PUSH2 0x10D0 JUMP JUMPDEST SWAP1 POP CALLVALUE PUSH2 0x289 JUMPI DUP2 PUSH1 0x3 NOT CALLDATASIZE ADD SLT PUSH2 0x289 JUMPI DUP1 CALLDATALOAD PUSH1 0x1 PUSH1 0x1 PUSH1 0x40 SHL SUB DUP1 DUP3 GT PUSH2 0x4E3 JUMPI CALLDATASIZE PUSH1 0x23 DUP4 ADD SLT ISZERO PUSH2 0x4E3 JUMPI DUP2 DUP4 ADD CALLDATALOAD SWAP1 PUSH2 0x11E9 DUP3 PUSH2 0x194F JUMP JUMPDEST SWAP3 PUSH2 0x11F6 DUP7 MLOAD SWAP5 DUP6 PUSH2 0x18EC JUMP JUMPDEST DUP3 DUP5 MSTORE PUSH1 0x20 SWAP3 PUSH1 0x24 DUP5 DUP7 ADD SWAP2 PUSH1 0x5 SHL DUP4 ADD ADD SWAP2 CALLDATASIZE DUP4 GT PUSH2 0x9BA JUMPI PUSH1 0x24 ADD SWAP1 JUMPDEST DUP3 DUP3 LT PUSH2 0x131F JUMPI POP POP POP PUSH1 0x24 CALLDATALOAD SWAP1 DUP2 GT PUSH2 0x9EC JUMPI PUSH2 0x1236 SWAP1 CALLDATASIZE SWAP1 DUP6 ADD PUSH2 0x1966 JUMP JUMPDEST SWAP3 DUP3 MLOAD DUP5 MLOAD SUB PUSH2 0x12CC JUMPI POP DUP2 MLOAD SWAP5 PUSH2 0x124D DUP7 PUSH2 0x194F JUMP JUMPDEST SWAP6 PUSH2 0x125A DUP7 MLOAD SWAP8 DUP9 PUSH2 0x18EC JUMP JUMPDEST DUP1 DUP8 MSTORE PUSH2 0x1269 PUSH1 0x1F NOT SWAP2 PUSH2 0x194F JUMP JUMPDEST ADD CALLDATASIZE DUP4 DUP9 ADD CALLDATACOPY JUMPDEST DUP3 MLOAD DUP2 LT ISZERO PUSH2 0x12BA JUMPI PUSH2 0x12B5 SWAP1 PUSH2 0x12A5 PUSH1 0x1 PUSH1 0x1 PUSH1 0xA0 SHL SUB PUSH2 0x1292 DUP4 DUP8 PUSH2 0x1B44 JUMP JUMPDEST MLOAD AND PUSH2 0x129E DUP4 DUP9 PUSH2 0x1B44 JUMP JUMPDEST MLOAD SWAP1 PUSH2 0x1A99 JUMP JUMPDEST PUSH2 0x12AF DUP3 DUP10 PUSH2 0x1B44 JUMP JUMPDEST MSTORE PUSH2 0x1B1F JUMP JUMPDEST PUSH2 0x1270 JUMP JUMPDEST DUP5 MLOAD DUP3 DUP2 MSTORE DUP1 PUSH2 0xE3F DUP2 DUP6 ADD DUP10 PUSH2 0x1A1A JUMP JUMPDEST PUSH1 0x84 SWAP2 DUP6 MLOAD SWAP2 PUSH3 0x461BCD PUSH1 0xE5 SHL DUP4 MSTORE DUP3 ADD MSTORE PUSH1 0x29 PUSH1 0x24 DUP3 ADD MSTORE PUSH32 0x455243313135353A206163636F756E747320616E6420696473206C656E677468 PUSH1 0x44 DUP3 ADD MSTORE PUSH9 0x40DAD2E6DAC2E8C6D PUSH1 0xBB SHL PUSH1 0x64 DUP3 ADD MSTORE REVERT JUMPDEST DUP2 CALLDATALOAD PUSH1 0x1 PUSH1 0x1 PUSH1 0xA0 SHL SUB DUP2 AND DUP2 SUB PUSH2 0x133E JUMPI DUP2 MSTORE SWAP1 DUP5 ADD SWAP1 DUP5 ADD PUSH2 0x1215 JUMP JUMPDEST DUP10 DUP1 REVERT JUMPDEST SWAP1 POP CALLVALUE PUSH2 0x289 JUMPI PUSH1 0x3 NOT SWAP2 PUSH1 0xA0 CALLDATASIZE DUP5 ADD SLT PUSH2 0x9F0 JUMPI PUSH2 0x135F PUSH2 0x1850 JUMP JUMPDEST PUSH2 0x1367 PUSH2 0x186B JUMP JUMPDEST SWAP4 PUSH1 0x1 PUSH1 0x1 PUSH1 0x40 SHL SUB SWAP4 PUSH1 0x44 CALLDATALOAD DUP6 DUP2 GT PUSH2 0xCF9 JUMPI PUSH2 0x1388 SWAP1 CALLDATASIZE SWAP1 DUP4 ADD PUSH2 0x1966 JUMP JUMPDEST SWAP1 PUSH1 0x64 CALLDATALOAD DUP7 DUP2 GT PUSH2 0x9BA JUMPI PUSH2 0x13A0 SWAP1 CALLDATASIZE SWAP1 DUP4 ADD PUSH2 0x1966 JUMP JUMPDEST SWAP6 PUSH1 0x84 CALLDATALOAD SWAP1 DUP2 GT PUSH2 0x9BA JUMPI PUSH2 0x13B8 SWAP1 CALLDATASIZE SWAP1 DUP4 ADD PUSH2 0x19C4 JUMP JUMPDEST SWAP3 PUSH2 0x13C6 DUP4 MLOAD DUP9 MLOAD EQ PUSH2 0x1C9F JUMP JUMPDEST PUSH1 0x1 PUSH1 0x1 PUSH1 0xA0 SHL SUB DUP9 DUP2 AND SWAP6 PUSH2 0x13DD DUP8 ISZERO ISZERO PUSH2 0x1B6E JUMP JUMPDEST AND SWAP4 CALLER DUP6 EQ DUP1 ISZERO PUSH2 0x1608 JUMPI JUMPDEST ISZERO PUSH2 0x15AA JUMPI DUP10 JUMPDEST DUP11 DUP6 MLOAD DUP3 LT ISZERO PUSH2 0x146E JUMPI SWAP1 DUP10 PUSH2 0x69E DUP11 PUSH2 0x1469 SWAP5 PUSH2 0x1419 DUP6 PUSH2 0x1412 DUP2 DUP14 PUSH2 0x1B44 JUMP JUMPDEST MLOAD SWAP6 PUSH2 0x1B44 JUMP JUMPDEST MLOAD SWAP4 DUP1 DUP3 MSTORE PUSH1 0x20 SWAP1 DUP3 DUP3 MSTORE DUP4 DUP4 KECCAK256 DUP14 DUP5 MSTORE DUP3 MSTORE PUSH2 0x1440 DUP7 DUP6 DUP6 KECCAK256 SLOAD PUSH2 0x187 DUP3 DUP3 LT ISZERO PUSH2 0x1C26 JUMP JUMPDEST DUP2 DUP5 MSTORE DUP4 DUP4 MSTORE DUP14 DUP6 DUP6 KECCAK256 SWAP1 DUP6 MSTORE DUP4 MSTORE DUP5 DUP5 KECCAK256 SSTORE DUP3 MSTORE DUP2 DUP2 MSTORE DUP3 DUP3 KECCAK256 SWAP1 DUP14 DUP4 MSTORE MSTORE KECCAK256 SWAP2 DUP3 SLOAD PUSH2 0x1C92 JUMP JUMPDEST PUSH2 0x13F0 JUMP JUMPDEST POP POP SWAP1 SWAP5 SWAP4 SWAP6 SWAP7 SWAP3 SWAP2 SWAP8 DUP5 DUP8 DUP10 MLOAD PUSH1 0x0 DUP1 MLOAD PUSH1 0x20 PUSH2 0x1FAA DUP4 CODECOPY DUP2 MLOAD SWAP2 MSTORE CALLER SWAP2 DUP1 PUSH2 0x1499 DUP11 DUP11 DUP4 PUSH2 0x1CFC JUMP JUMPDEST SUB SWAP1 LOG4 EXTCODESIZE PUSH2 0x14A5 JUMPI DUP9 DUP1 RETURN JUMPDEST DUP7 MLOAD SWAP5 DUP6 SWAP4 DUP5 SWAP4 PUSH4 0xBC197C81 PUSH1 0xE0 SHL SWAP9 DUP10 DUP7 MSTORE CALLER DUP13 DUP8 ADD MSTORE PUSH1 0x24 DUP7 ADD MSTORE PUSH1 0x44 DUP6 ADD PUSH1 0xA0 SWAP1 MSTORE PUSH1 0xA4 DUP6 ADD PUSH2 0x14D7 SWAP2 PUSH2 0x1A1A JUMP JUMPDEST DUP3 DUP6 DUP3 SUB ADD PUSH1 0x64 DUP7 ADD MSTORE PUSH2 0x14EA SWAP2 PUSH2 0x1A1A JUMP JUMPDEST SWAP1 DUP4 DUP3 SUB ADD PUSH1 0x84 DUP5 ADD MSTORE PUSH2 0x14FD SWAP2 PUSH2 0x190F JUMP JUMPDEST SUB DUP2 DUP9 GAS SWAP5 PUSH1 0x20 SWAP6 CALL DUP6 SWAP2 DUP2 PUSH2 0x158A JUMPI JUMPDEST POP PUSH2 0x1574 JUMPI POP POP PUSH1 0x1 PUSH2 0x151F PUSH2 0x1D8D JUMP JUMPDEST PUSH4 0x8C379A0 EQ PUSH2 0x153D JUMPI JUMPDEST PUSH2 0x414 JUMPI POP POP JUMPDEST CODESIZE DUP1 DUP1 DUP1 DUP1 DUP1 DUP1 DUP1 DUP9 DUP1 RETURN JUMPDEST PUSH2 0x1545 PUSH2 0x1DAB JUMP JUMPDEST DUP1 PUSH2 0x1550 JUMPI POP PUSH2 0x152A JUMP JUMPDEST SWAP1 POP PUSH2 0x42D SWAP2 PUSH1 0x20 SWAP5 POP MLOAD SWAP4 DUP5 SWAP4 PUSH3 0x461BCD PUSH1 0xE5 SHL DUP6 MSTORE DUP5 ADD MSTORE PUSH1 0x24 DUP4 ADD SWAP1 PUSH2 0x190F JUMP JUMPDEST PUSH1 0x1 PUSH1 0x1 PUSH1 0xE0 SHL SUB NOT AND SUB PUSH2 0x47C JUMPI POP POP PUSH2 0x1531 JUMP JUMPDEST PUSH2 0x15A3 SWAP2 SWAP3 POP PUSH1 0x20 RETURNDATASIZE DUP2 GT PUSH2 0x4BD JUMPI PUSH2 0x4AE DUP2 DUP4 PUSH2 0x18EC JUMP JUMPDEST SWAP1 CODESIZE PUSH2 0x150E JUMP JUMPDEST DUP7 MLOAD PUSH3 0x461BCD PUSH1 0xE5 SHL DUP2 MSTORE PUSH1 0x20 DUP2 DUP6 ADD MSTORE PUSH1 0x32 PUSH1 0x24 DUP3 ADD MSTORE PUSH32 0x455243313135353A207472616E736665722063616C6C6572206973206E6F7420 PUSH1 0x44 DUP3 ADD MSTORE PUSH18 0x1BDDDB995C881B9BDC88185C1C1C9BDD9959 PUSH1 0x72 SHL PUSH1 0x64 DUP3 ADD MSTORE PUSH1 0x84 SWAP1 REVERT JUMPDEST POP DUP5 DUP11 MSTORE PUSH1 0x1 PUSH1 0x20 MSTORE DUP7 DUP11 KECCAK256 CALLER DUP12 MSTORE PUSH1 0x20 MSTORE PUSH1 0xFF DUP8 DUP12 KECCAK256 SLOAD AND PUSH2 0x13E9 JUMP JUMPDEST SWAP2 SWAP1 POP CALLVALUE PUSH2 0x289 JUMPI PUSH1 0x20 SWAP2 DUP3 PUSH1 0x3 NOT CALLDATASIZE ADD SLT PUSH2 0x9F0 JUMPI CALLDATALOAD DUP4 MSTORE PUSH1 0x6 DUP3 MSTORE DUP1 DUP4 KECCAK256 DUP2 MLOAD SWAP4 DUP5 SWAP2 DUP2 DUP2 SLOAD SWAP1 PUSH2 0x1658 DUP3 PUSH2 0x1881 JUMP JUMPDEST SWAP3 DUP4 DUP7 MSTORE PUSH1 0x1 SWAP3 DUP9 DUP5 DUP3 AND SWAP2 DUP3 PUSH1 0x0 EQ PUSH2 0x16D5 JUMPI POP POP PUSH1 0x1 EQ PUSH2 0x1697 JUMPI JUMPDEST DUP6 DUP9 PUSH2 0xE3F DUP10 PUSH2 0x1688 DUP5 DUP11 SUB DUP6 PUSH2 0x18EC JUMP JUMPDEST MLOAD SWAP3 DUP3 DUP5 SWAP4 DUP5 MSTORE DUP4 ADD SWAP1 PUSH2 0x190F JUMP JUMPDEST DUP8 SWAP5 POP DUP2 SWAP4 SWAP3 SWAP2 MSTORE DUP4 DUP4 KECCAK256 JUMPDEST DUP3 DUP5 LT PUSH2 0x16BD JUMPI POP POP POP DUP3 ADD ADD DUP2 PUSH2 0x1688 PUSH2 0xE3F CODESIZE PUSH2 0x1676 JUMP JUMPDEST DUP1 SLOAD DUP5 DUP11 ADD DUP7 ADD MSTORE DUP9 SWAP6 POP DUP8 SWAP5 SWAP1 SWAP4 ADD SWAP3 DUP2 ADD PUSH2 0x16A3 JUMP JUMPDEST PUSH1 0xFF NOT AND DUP9 DUP3 ADD MSTORE SWAP5 ISZERO ISZERO PUSH1 0x5 SHL DUP8 ADD SWAP1 SWAP5 ADD SWAP5 POP DUP6 SWAP4 POP PUSH2 0x1688 SWAP3 POP PUSH2 0xE3F SWAP2 POP CODESIZE SWAP1 POP PUSH2 0x1676 JUMP JUMPDEST DUP4 DUP4 CALLVALUE PUSH2 0x535 JUMPI DUP2 PUSH1 0x3 NOT CALLDATASIZE ADD SLT PUSH2 0x535 JUMPI DUP1 MLOAD SWAP2 DUP1 SWAP4 DUP1 SLOAD PUSH2 0x1721 DUP2 PUSH2 0x1881 JUMP JUMPDEST DUP1 DUP7 MSTORE SWAP2 PUSH1 0x1 SWAP2 DUP1 DUP4 AND SWAP1 DUP2 ISZERO PUSH2 0x1787 JUMPI POP PUSH1 0x1 EQ PUSH2 0x174C JUMPI JUMPDEST PUSH2 0xE3F DUP7 DUP7 PUSH2 0xE2D DUP3 DUP12 SUB DUP4 PUSH2 0x18EC JUMP JUMPDEST DUP4 MSTORE PUSH1 0x20 DUP1 DUP5 KECCAK256 SWAP1 SWAP7 POP JUMPDEST DUP3 DUP5 LT PUSH2 0x1774 JUMPI POP POP POP DUP3 PUSH2 0xE3F SWAP5 PUSH2 0xE2D SWAP3 DUP3 ADD ADD SWAP5 DUP7 PUSH2 0x173B JUMP JUMPDEST DUP1 SLOAD DUP7 DUP6 ADD DUP9 ADD MSTORE SWAP3 DUP7 ADD SWAP3 DUP2 ADD PUSH2 0x1757 JUMP JUMPDEST SWAP1 POP PUSH2 0xE3F SWAP8 POP PUSH2 0xE2D SWAP5 POP PUSH1 0x20 SWAP3 POP DUP7 SWAP4 SWAP2 POP PUSH1 0xFF NOT AND DUP3 DUP5 ADD MSTORE ISZERO ISZERO PUSH1 0x5 SHL DUP3 ADD ADD SWAP5 DUP7 PUSH2 0x173B JUMP JUMPDEST SWAP1 POP CALLVALUE PUSH2 0x289 JUMPI PUSH1 0x20 CALLDATASIZE PUSH1 0x3 NOT ADD SLT PUSH2 0x289 JUMPI CALLDATALOAD SWAP1 PUSH4 0xFFFFFFFF PUSH1 0xE0 SHL DUP3 AND DUP1 SWAP3 SUB PUSH2 0x289 JUMPI PUSH1 0x20 SWAP3 POP PUSH4 0x6CDB3D13 PUSH1 0xE1 SHL DUP3 EQ SWAP2 DUP3 ISZERO PUSH2 0x180F JUMPI JUMPDEST DUP3 ISZERO PUSH2 0x17FE JUMPI JUMPDEST POP MLOAD SWAP1 ISZERO ISZERO DUP2 MSTORE RETURN JUMPDEST PUSH4 0x1FFC9A7 PUSH1 0xE0 SHL EQ SWAP2 POP CODESIZE PUSH2 0x17F5 JUMP JUMPDEST PUSH4 0x3A24D07 PUSH1 0xE2 SHL DUP2 EQ SWAP3 POP PUSH2 0x17EE JUMP JUMPDEST POP POP CALLVALUE PUSH2 0x535 JUMPI DUP1 PUSH1 0x3 NOT CALLDATASIZE ADD SLT PUSH2 0x535 JUMPI PUSH1 0x20 SWAP1 PUSH2 0x1849 PUSH2 0x1840 PUSH2 0x1850 JUMP JUMPDEST PUSH1 0x24 CALLDATALOAD SWAP1 PUSH2 0x1A99 JUMP JUMPDEST SWAP1 MLOAD SWAP1 DUP2 MSTORE RETURN JUMPDEST PUSH1 0x4 CALLDATALOAD SWAP1 PUSH1 0x1 PUSH1 0x1 PUSH1 0xA0 SHL SUB DUP3 AND DUP3 SUB PUSH2 0x1866 JUMPI JUMP JUMPDEST PUSH1 0x0 DUP1 REVERT JUMPDEST PUSH1 0x24 CALLDATALOAD SWAP1 PUSH1 0x1 PUSH1 0x1 PUSH1 0xA0 SHL SUB DUP3 AND DUP3 SUB PUSH2 0x1866 JUMPI JUMP JUMPDEST SWAP1 PUSH1 0x1 DUP3 DUP2 SHR SWAP3 AND DUP1 ISZERO PUSH2 0x18B1 JUMPI JUMPDEST PUSH1 0x20 DUP4 LT EQ PUSH2 0x189B JUMPI JUMP JUMPDEST PUSH4 0x4E487B71 PUSH1 0xE0 SHL PUSH1 0x0 MSTORE PUSH1 0x22 PUSH1 0x4 MSTORE PUSH1 0x24 PUSH1 0x0 REVERT JUMPDEST SWAP2 PUSH1 0x7F AND SWAP2 PUSH2 0x1890 JUMP JUMPDEST PUSH1 0x20 DUP2 ADD SWAP1 DUP2 LT PUSH1 0x1 PUSH1 0x1 PUSH1 0x40 SHL SUB DUP3 GT OR PUSH2 0x18D6 JUMPI PUSH1 0x40 MSTORE JUMP JUMPDEST PUSH4 0x4E487B71 PUSH1 0xE0 SHL PUSH1 0x0 MSTORE PUSH1 0x41 PUSH1 0x4 MSTORE PUSH1 0x24 PUSH1 0x0 REVERT JUMPDEST PUSH1 0x1F SWAP1 SWAP2 ADD PUSH1 0x1F NOT AND DUP2 ADD SWAP1 PUSH1 0x1 PUSH1 0x1 PUSH1 0x40 SHL SUB DUP3 GT SWAP1 DUP3 LT OR PUSH2 0x18D6 JUMPI PUSH1 0x40 MSTORE JUMP JUMPDEST SWAP2 SWAP1 DUP3 MLOAD SWAP3 DUP4 DUP3 MSTORE PUSH1 0x0 JUMPDEST DUP5 DUP2 LT PUSH2 0x193B JUMPI POP POP DUP3 PUSH1 0x0 PUSH1 0x20 DUP1 SWAP5 SWAP6 DUP5 ADD ADD MSTORE PUSH1 0x1F DUP1 NOT SWAP2 ADD AND ADD ADD SWAP1 JUMP JUMPDEST PUSH1 0x20 DUP2 DUP4 ADD DUP2 ADD MLOAD DUP5 DUP4 ADD DUP3 ADD MSTORE ADD PUSH2 0x191A JUMP JUMPDEST PUSH1 0x1 PUSH1 0x1 PUSH1 0x40 SHL SUB DUP2 GT PUSH2 0x18D6 JUMPI PUSH1 0x5 SHL PUSH1 0x20 ADD SWAP1 JUMP JUMPDEST DUP2 PUSH1 0x1F DUP3 ADD SLT ISZERO PUSH2 0x1866 JUMPI DUP1 CALLDATALOAD SWAP2 PUSH2 0x197D DUP4 PUSH2 0x194F JUMP JUMPDEST SWAP3 PUSH2 0x198B PUSH1 0x40 MLOAD SWAP5 DUP6 PUSH2 0x18EC JUMP JUMPDEST DUP1 DUP5 MSTORE PUSH1 0x20 SWAP3 DUP4 DUP1 DUP7 ADD SWAP3 PUSH1 0x5 SHL DUP3 ADD ADD SWAP3 DUP4 GT PUSH2 0x1866 JUMPI DUP4 ADD SWAP1 JUMPDEST DUP3 DUP3 LT PUSH2 0x19B5 JUMPI POP POP POP POP SWAP1 JUMP JUMPDEST DUP2 CALLDATALOAD DUP2 MSTORE SWAP1 DUP4 ADD SWAP1 DUP4 ADD PUSH2 0x19A7 JUMP JUMPDEST DUP2 PUSH1 0x1F DUP3 ADD SLT ISZERO PUSH2 0x1866 JUMPI DUP1 CALLDATALOAD SWAP1 PUSH1 0x1 PUSH1 0x1 PUSH1 0x40 SHL SUB DUP3 GT PUSH2 0x18D6 JUMPI PUSH1 0x40 MLOAD SWAP3 PUSH2 0x19F8 PUSH1 0x1F DUP5 ADD PUSH1 0x1F NOT AND PUSH1 0x20 ADD DUP6 PUSH2 0x18EC JUMP JUMPDEST DUP3 DUP5 MSTORE PUSH1 0x20 DUP4 DUP4 ADD ADD GT PUSH2 0x1866 JUMPI DUP2 PUSH1 0x0 SWAP3 PUSH1 0x20 DUP1 SWAP4 ADD DUP4 DUP7 ADD CALLDATACOPY DUP4 ADD ADD MSTORE SWAP1 JUMP JUMPDEST SWAP1 DUP2 MLOAD DUP1 DUP3 MSTORE PUSH1 0x20 DUP1 DUP1 SWAP4 ADD SWAP4 ADD SWAP2 PUSH1 0x0 JUMPDEST DUP3 DUP2 LT PUSH2 0x1A3A JUMPI POP POP POP POP SWAP1 JUMP JUMPDEST DUP4 MLOAD DUP6 MSTORE SWAP4 DUP2 ADD SWAP4 SWAP3 DUP2 ADD SWAP3 PUSH1 0x1 ADD PUSH2 0x1A2C JUMP JUMPDEST ISZERO PUSH2 0x1A55 JUMPI JUMP JUMPDEST PUSH1 0x64 PUSH1 0x40 MLOAD PUSH3 0x461BCD PUSH1 0xE5 SHL DUP2 MSTORE PUSH1 0x20 PUSH1 0x4 DUP3 ADD MSTORE PUSH1 0x20 PUSH1 0x24 DUP3 ADD MSTORE PUSH32 0x4F776E61626C653A2063616C6C6572206973206E6F7420746865206F776E6572 PUSH1 0x44 DUP3 ADD MSTORE REVERT JUMPDEST PUSH1 0x1 PUSH1 0x1 PUSH1 0xA0 SHL SUB AND SWAP1 DUP2 ISZERO PUSH2 0x1AC6 JUMPI PUSH1 0x0 MSTORE PUSH1 0x0 PUSH1 0x20 MSTORE PUSH1 0x40 PUSH1 0x0 KECCAK256 SWAP1 PUSH1 0x0 MSTORE PUSH1 0x20 MSTORE PUSH1 0x40 PUSH1 0x0 KECCAK256 SLOAD SWAP1 JUMP JUMPDEST PUSH1 0x40 MLOAD PUSH3 0x461BCD PUSH1 0xE5 SHL DUP2 MSTORE PUSH1 0x20 PUSH1 0x4 DUP3 ADD MSTORE PUSH1 0x2B PUSH1 0x24 DUP3 ADD MSTORE PUSH32 0x455243313135353A2062616C616E636520717565727920666F7220746865207A PUSH1 0x44 DUP3 ADD MSTORE PUSH11 0x65726F2061646472657373 PUSH1 0xA8 SHL PUSH1 0x64 DUP3 ADD MSTORE PUSH1 0x84 SWAP1 REVERT JUMPDEST PUSH1 0x0 NOT DUP2 EQ PUSH2 0x1B2E JUMPI PUSH1 0x1 ADD SWAP1 JUMP JUMPDEST PUSH4 0x4E487B71 PUSH1 0xE0 SHL PUSH1 0x0 MSTORE PUSH1 0x11 PUSH1 0x4 MSTORE PUSH1 0x24 PUSH1 0x0 REVERT JUMPDEST DUP1 MLOAD DUP3 LT ISZERO PUSH2 0x1B58 JUMPI PUSH1 0x20 SWAP2 PUSH1 0x5 SHL ADD ADD SWAP1 JUMP JUMPDEST PUSH4 0x4E487B71 PUSH1 0xE0 SHL PUSH1 0x0 MSTORE PUSH1 0x32 PUSH1 0x4 MSTORE PUSH1 0x24 PUSH1 0x0 REVERT JUMPDEST ISZERO PUSH2 0x1B75 JUMPI JUMP JUMPDEST PUSH1 0x40 MLOAD PUSH3 0x461BCD PUSH1 0xE5 SHL DUP2 MSTORE PUSH1 0x20 PUSH1 0x4 DUP3 ADD MSTORE PUSH1 0x25 PUSH1 0x24 DUP3 ADD MSTORE PUSH32 0x455243313135353A207472616E7366657220746F20746865207A65726F206164 PUSH1 0x44 DUP3 ADD MSTORE PUSH5 0x6472657373 PUSH1 0xD8 SHL PUSH1 0x64 DUP3 ADD MSTORE PUSH1 0x84 SWAP1 REVERT JUMPDEST ISZERO PUSH2 0x1BCF JUMPI JUMP JUMPDEST PUSH1 0x40 MLOAD PUSH3 0x461BCD PUSH1 0xE5 SHL DUP2 MSTORE PUSH1 0x20 PUSH1 0x4 DUP3 ADD MSTORE PUSH1 0x29 PUSH1 0x24 DUP3 ADD MSTORE PUSH32 0x455243313135353A2063616C6C6572206973206E6F74206F776E6572206E6F72 PUSH1 0x44 DUP3 ADD MSTORE PUSH9 0x8185C1C1C9BDD9959 PUSH1 0xBA SHL PUSH1 0x64 DUP3 ADD MSTORE PUSH1 0x84 SWAP1 REVERT JUMPDEST ISZERO PUSH2 0x1C2D JUMPI JUMP JUMPDEST PUSH1 0x40 MLOAD PUSH3 0x461BCD PUSH1 0xE5 SHL DUP2 MSTORE PUSH1 0x20 PUSH1 0x4 DUP3 ADD MSTORE PUSH1 0x2A PUSH1 0x24 DUP3 ADD MSTORE PUSH32 0x455243313135353A20696E73756666696369656E742062616C616E636520666F PUSH1 0x44 DUP3 ADD MSTORE PUSH10 0x39103A3930B739B332B9 PUSH1 0xB1 SHL PUSH1 0x64 DUP3 ADD MSTORE PUSH1 0x84 SWAP1 REVERT JUMPDEST SWAP2 SWAP1 DUP3 SUB SWAP2 DUP3 GT PUSH2 0x1B2E JUMPI JUMP JUMPDEST SWAP2 SWAP1 DUP3 ADD DUP1 SWAP3 GT PUSH2 0x1B2E JUMPI JUMP JUMPDEST ISZERO PUSH2 0x1CA6 JUMPI JUMP JUMPDEST PUSH1 0x40 MLOAD PUSH3 0x461BCD PUSH1 0xE5 SHL DUP2 MSTORE PUSH1 0x20 PUSH1 0x4 DUP3 ADD MSTORE PUSH1 0x28 PUSH1 0x24 DUP3 ADD MSTORE PUSH32 0x455243313135353A2069647320616E6420616D6F756E7473206C656E67746820 PUSH1 0x44 DUP3 ADD MSTORE PUSH8 0xDAD2E6DAC2E8C6D PUSH1 0xC3 SHL PUSH1 0x64 DUP3 ADD MSTORE PUSH1 0x84 SWAP1 REVERT JUMPDEST SWAP1 SWAP2 PUSH2 0x1D13 PUSH2 0x1D21 SWAP4 PUSH1 0x40 DUP5 MSTORE PUSH1 0x40 DUP5 ADD SWAP1 PUSH2 0x1A1A JUMP JUMPDEST SWAP2 PUSH1 0x20 DUP2 DUP5 SUB SWAP2 ADD MSTORE PUSH2 0x1A1A JUMP JUMPDEST SWAP1 JUMP JUMPDEST SWAP1 DUP2 PUSH1 0x20 SWAP2 SUB SLT PUSH2 0x1866 JUMPI MLOAD PUSH1 0x1 PUSH1 0x1 PUSH1 0xE0 SHL SUB NOT DUP2 AND DUP2 SUB PUSH2 0x1866 JUMPI SWAP1 JUMP JUMPDEST PUSH1 0x80 SWAP1 PUSH1 0x20 DUP2 MSTORE PUSH1 0x28 PUSH1 0x20 DUP3 ADD MSTORE PUSH32 0x455243313135353A204552433131353552656365697665722072656A65637465 PUSH1 0x40 DUP3 ADD MSTORE PUSH8 0x6420746F6B656E73 PUSH1 0xC0 SHL PUSH1 0x60 DUP3 ADD MSTORE ADD SWAP1 JUMP JUMPDEST PUSH1 0x0 SWAP1 PUSH1 0x3 RETURNDATASIZE GT PUSH2 0x1D9A JUMPI JUMP JUMPDEST SWAP1 POP PUSH1 0x4 PUSH1 0x0 DUP1 RETURNDATACOPY PUSH1 0x0 MLOAD PUSH1 0xE0 SHR SWAP1 JUMP JUMPDEST PUSH1 0x0 PUSH1 0x44 RETURNDATASIZE LT PUSH2 0x1D21 JUMPI PUSH1 0x40 MLOAD PUSH1 0x3 NOT SWAP2 RETURNDATASIZE DUP4 ADD PUSH1 0x4 DUP4 RETURNDATACOPY DUP2 MLOAD PUSH1 0x1 PUSH1 0x1 PUSH1 0x40 SHL SUB SWAP2 DUP3 DUP3 GT RETURNDATASIZE PUSH1 0x24 DUP5 ADD GT OR PUSH2 0x1E08 JUMPI DUP2 DUP5 ADD SWAP5 DUP6 MLOAD SWAP4 DUP5 GT PUSH2 0x1E10 JUMPI RETURNDATASIZE DUP6 ADD ADD PUSH1 0x20 DUP5 DUP8 ADD ADD GT PUSH2 0x1E08 JUMPI POP PUSH2 0x1D21 SWAP3 SWAP2 ADD PUSH1 0x20 ADD SWAP1 PUSH2 0x18EC JUMP JUMPDEST SWAP5 SWAP4 POP POP POP POP JUMP JUMPDEST POP SWAP5 SWAP4 POP POP POP POP JUMP JUMPDEST PUSH1 0x80 SWAP1 PUSH1 0x20 DUP2 MSTORE PUSH1 0x34 PUSH1 0x20 DUP3 ADD MSTORE PUSH32 0x455243313135353A207472616E7366657220746F206E6F6E2045524331313535 PUSH1 0x40 DUP3 ADD MSTORE PUSH20 0x2932B1B2B4BB32B91034B6B83632B6B2B73A32B9 PUSH1 0x61 SHL PUSH1 0x60 DUP3 ADD MSTORE ADD SWAP1 JUMP JUMPDEST PUSH1 0x40 DUP1 MLOAD SWAP2 SWAP1 DUP3 ADD PUSH1 0x1 PUSH1 0x1 PUSH1 0x40 SHL SUB DUP2 GT DUP4 DUP3 LT OR PUSH2 0x18D6 JUMPI PUSH1 0x40 MSTORE PUSH1 0x1 DUP3 MSTORE PUSH1 0x20 DUP3 ADD PUSH1 0x20 CALLDATASIZE DUP3 CALLDATACOPY DUP3 MLOAD ISZERO PUSH2 0x1B58 JUMPI MSTORE SWAP1 JUMP JUMPDEST ISZERO PUSH2 0x1EAA JUMPI JUMP JUMPDEST PUSH1 0x40 MLOAD PUSH3 0x461BCD PUSH1 0xE5 SHL DUP2 MSTORE PUSH1 0x20 PUSH1 0x4 DUP3 ADD MSTORE PUSH1 0x23 PUSH1 0x24 DUP3 ADD MSTORE PUSH32 0x455243313135353A206275726E2066726F6D20746865207A65726F2061646472 PUSH1 0x44 DUP3 ADD MSTORE PUSH3 0x657373 PUSH1 0xE8 SHL PUSH1 0x64 DUP3 ADD MSTORE PUSH1 0x84 SWAP1 REVERT JUMPDEST ISZERO PUSH2 0x1F02 JUMPI JUMP JUMPDEST PUSH1 0x40 MLOAD PUSH3 0x461BCD PUSH1 0xE5 SHL DUP2 MSTORE PUSH1 0x20 PUSH1 0x4 DUP3 ADD MSTORE PUSH1 0x24 DUP1 DUP3 ADD MSTORE PUSH32 0x455243313135353A206275726E20616D6F756E7420657863656564732062616C PUSH1 0x44 DUP3 ADD MSTORE PUSH4 0x616E6365 PUSH1 0xE0 SHL PUSH1 0x64 DUP3 ADD MSTORE PUSH1 0x84 SWAP1 REVERT JUMPDEST ISZERO PUSH2 0x1F5A JUMPI JUMP JUMPDEST PUSH1 0x40 MLOAD PUSH3 0x461BCD PUSH1 0xE5 SHL DUP2 MSTORE PUSH1 0x20 PUSH1 0x4 DUP3 ADD MSTORE PUSH1 0x21 PUSH1 0x24 DUP3 ADD MSTORE PUSH32 0x455243313135353A206D696E7420746F20746865207A65726F20616464726573 PUSH1 0x44 DUP3 ADD MSTORE PUSH1 0x73 PUSH1 0xF8 SHL PUSH1 0x64 DUP3 ADD MSTORE PUSH1 0x84 SWAP1 REVERT INVALID 0x4A CODECOPY 0xDC MOD 0xD4 0xC0 0xDB 0xC6 0x4B PUSH17 0xAF90FD698A233A518AA5D07E595D983B8C SDIV 0x26 0xC8 0xF7 0xFB 0xC3 0xD5 DUP2 PUSH9 0xC5AE7397731D063D5B 0xBF RETURNDATASIZE PUSH6 0x7854427343F4 0xC0 DUP4 0x24 0xF PUSH27 0xACAA2D0F628BE0079C531659141344CD1FD0A4F28419497F9722A3 0xDA 0xAF 0xE3 0xB4 XOR PUSH16 0x6B6457E0A2646970667358221220661F SWAP4 0xEF PC SWAP2 SHR SSTORE 0x24 SMOD LOG2 SWAP5 TIMESTAMP JUMPI BALANCE 0xCD PUSH14 0xA151104AF99E286490AE3EA5BEB0 EXP PUSH5 0x736F6C6343 STOP ADDMOD SGT STOP CALLER "},"gasEstimates":{"creation":{"codeDepositCost":"1651000","executionCost":"infinite","totalCost":"infinite"},"external":{"balanceOf(address,uint256)":"2547","balanceOfBatch(address[],uint256[])":"infinite","burn(address,uint256,uint256)":"infinite","burnBatch(address,uint256[],uint256[])":"infinite","isApprovedForAll(address,address)":"2888","mint(address,uint256,uint256,string,bytes)":"infinite","mintBatch(address,uint256[],uint256[],string[],bytes)":"infinite","name()":"infinite","owner()":"2494","renounceOwnership()":"26142","safeBatchTransferFrom(address,address,uint256[],uint256[],bytes)":"infinite","safeTransferFrom(address,address,uint256,uint256,bytes)":"infinite","setApprovalForAll(address,bool)":"26694","setURI(uint256,string)":"infinite","supportsInterface(bytes4)":"366","symbol()":"infinite","transferOwnership(address)":"26459","uri(uint256)":"infinite"}},"methodIdentifiers":{"balanceOf(address,uint256)":"00fdd58e","balanceOfBatch(address[],uint256[])":"4e1273f4","burn(address,uint256,uint256)":"f5298aca","burnBatch(address,uint256[],uint256[])":"6b20c454","isApprovedForAll(address,address)":"e985e9c5","mint(address,uint256,uint256,string,bytes)":"a4b645eb","mintBatch(address,uint256[],uint256[],string[],bytes)":"b9571e84","name()":"06fdde03","owner()":"8da5cb5b","renounceOwnership()":"715018a6","safeBatchTransferFrom(address,address,uint256[],uint256[],bytes)":"2eb2c2d6","safeTransferFrom(address,address,uint256,uint256,bytes)":"f242432a","setApprovalForAll(address,bool)":"a22cb465","setURI(uint256,string)":"862440e2","supportsInterface(bytes4)":"01ffc9a7","symbol()":"95d89b41","transferOwnership(address)":"f2fde38b","uri(uint256)":"0e89341c"}},"storageLayout":{"storage":[{"astId":227,"contract":"contracts/FCTVToken.sol:FCTVToken","label":"_balances","offset":0,"slot":"0","type":"t_mapping(t_uint256,t_mapping(t_address,t_uint256))"},{"astId":233,"contract":"contracts/FCTVToken.sol:FCTVToken","label":"_operatorApprovals","offset":0,"slot":"1","type":"t_mapping(t_address,t_mapping(t_address,t_bool))"},{"astId":235,"contract":"contracts/FCTVToken.sol:FCTVToken","label":"_uri","offset":0,"slot":"2","type":"t_string_storage"},{"astId":7,"contract":"contracts/FCTVToken.sol:FCTVToken","label":"_owner","offset":0,"slot":"3","type":"t_address"},{"astId":5306,"contract":"contracts/FCTVToken.sol:FCTVToken","label":"name","offset":0,"slot":"4","type":"t_string_storage"},{"astId":5308,"contract":"contracts/FCTVToken.sol:FCTVToken","label":"symbol","offset":0,"slot":"5","type":"t_string_storage"},{"astId":5312,"contract":"contracts/FCTVToken.sol:FCTVToken","label":"_tokenURIs","offset":0,"slot":"6","type":"t_mapping(t_uint256,t_string_storage)"}],"types":{"t_address":{"encoding":"inplace","label":"address","numberOfBytes":"20"},"t_bool":{"encoding":"inplace","label":"bool","numberOfBytes":"1"},"t_mapping(t_address,t_bool)":{"encoding":"mapping","key":"t_address","label":"mapping(address => bool)","numberOfBytes":"32","value":"t_bool"},"t_mapping(t_address,t_mapping(t_address,t_bool))":{"encoding":"mapping","key":"t_address","label":"mapping(address => mapping(address => bool))","numberOfBytes":"32","value":"t_mapping(t_address,t_bool)"},"t_mapping(t_address,t_uint256)":{"encoding":"mapping","key":"t_address","label":"mapping(address => uint256)","numberOfBytes":"32","value":"t_uint256"},"t_mapping(t_uint256,t_mapping(t_address,t_uint256))":{"encoding":"mapping","key":"t_uint256","label":"mapping(uint256 => mapping(address => uint256))","numberOfBytes":"32","value":"t_mapping(t_address,t_uint256)"},"t_mapping(t_uint256,t_string_storage)":{"encoding":"mapping","key":"t_uint256","label":"mapping(uint256 => string)","numberOfBytes":"32","value":"t_string_storage"},"t_string_storage":{"encoding":"bytes","label":"string","numberOfBytes":"32"},"t_uint256":{"encoding":"inplace","label":"uint256","numberOfBytes":"32"}}},"userdoc":{"kind":"user","methods":{},"version":1}}}}