{
  "_format": "hh-sol-artifact-1",
  "contractName": "NFTVenture",
  "sourceName": "contracts/NFTVenture.sol",
  "abi": [
    {
      "inputs": [],
      "stateMutability": "nonpayable",
      "type": "constructor"
    },
    {
      "anonymous": false,
      "inputs": [
        {
          "indexed": true,
          "internalType": "address",
          "name": "owner",
          "type": "address"
        },
        {
          "indexed": true,
          "internalType": "address",
          "name": "approved",
          "type": "address"
        },
        {
          "indexed": true,
          "internalType": "uint256",
          "name": "tokenId",
          "type": "uint256"
        }
      ],
      "name": "Approval",
      "type": "event"
    },
    {
      "anonymous": false,
      "inputs": [
        {
          "indexed": true,
          "internalType": "address",
          "name": "owner",
          "type": "address"
        },
        {
          "indexed": true,
          "internalType": "address",
          "name": "operator",
          "type": "address"
        },
        {
          "indexed": false,
          "internalType": "bool",
          "name": "approved",
          "type": "bool"
        }
      ],
      "name": "ApprovalForAll",
      "type": "event"
    },
    {
      "anonymous": false,
      "inputs": [
        {
          "indexed": true,
          "internalType": "address",
          "name": "previousOwner",
          "type": "address"
        },
        {
          "indexed": true,
          "internalType": "address",
          "name": "newOwner",
          "type": "address"
        }
      ],
      "name": "OwnershipTransferred",
      "type": "event"
    },
    {
      "anonymous": false,
      "inputs": [
        {
          "indexed": false,
          "internalType": "address",
          "name": "account",
          "type": "address"
        }
      ],
      "name": "Paused",
      "type": "event"
    },
    {
      "anonymous": false,
      "inputs": [
        {
          "indexed": true,
          "internalType": "address",
          "name": "from",
          "type": "address"
        },
        {
          "indexed": true,
          "internalType": "address",
          "name": "to",
          "type": "address"
        },
        {
          "indexed": true,
          "internalType": "uint256",
          "name": "tokenId",
          "type": "uint256"
        }
      ],
      "name": "Transfer",
      "type": "event"
    },
    {
      "anonymous": false,
      "inputs": [
        {
          "indexed": false,
          "internalType": "address",
          "name": "account",
          "type": "address"
        }
      ],
      "name": "Unpaused",
      "type": "event"
    },
    {
      "inputs": [
        {
          "internalType": "uint256",
          "name": "assetId",
          "type": "uint256"
        },
        {
          "components": [
            {
              "internalType": "uint256",
              "name": "assetId",
              "type": "uint256"
            },
            {
              "internalType": "uint256",
              "name": "price",
              "type": "uint256"
            },
            {
              "internalType": "string",
              "name": "author",
              "type": "string"
            },
            {
              "internalType": "string",
              "name": "title",
              "type": "string"
            },
            {
              "internalType": "string",
              "name": "description",
              "type": "string"
            },
            {
              "internalType": "uint256",
              "name": "projectStartDate",
              "type": "uint256"
            },
            {
              "internalType": "uint256",
              "name": "projectEndDate",
              "type": "uint256"
            },
            {
              "components": [
                {
                  "internalType": "string",
                  "name": "title",
                  "type": "string"
                },
                {
                  "internalType": "string",
                  "name": "description",
                  "type": "string"
                },
                {
                  "internalType": "uint256",
                  "name": "tokenAmount",
                  "type": "uint256"
                },
                {
                  "internalType": "uint256",
                  "name": "individualPrice",
                  "type": "uint256"
                },
                {
                  "internalType": "uint256",
                  "name": "availableTokens",
                  "type": "uint256"
                },
                {
                  "internalType": "uint256",
                  "name": "rewardTokenId",
                  "type": "uint256"
                }
              ],
              "internalType": "struct Reward[]",
              "name": "rewards",
              "type": "tuple[]"
            },
            {
              "internalType": "enum ProjectStatus",
              "name": "status",
              "type": "uint8"
            },
            {
              "internalType": "address",
              "name": "rewardTokenAddress",
              "type": "address"
            },
            {
              "internalType": "string",
              "name": "mainPhoto",
              "type": "string"
            },
            {
              "internalType": "string[]",
              "name": "secondaryPhotos",
              "type": "string[]"
            },
            {
              "internalType": "enum Category",
              "name": "category",
              "type": "uint8"
            }
          ],
          "internalType": "struct Asset",
          "name": "asset",
          "type": "tuple"
        },
        {
          "internalType": "address",
          "name": "to",
          "type": "address"
        }
      ],
      "name": "_addAsset",
      "outputs": [],
      "stateMutability": "nonpayable",
      "type": "function"
    },
    {
      "inputs": [
        {
          "internalType": "uint256",
          "name": "",
          "type": "uint256"
        }
      ],
      "name": "activeAssets",
      "outputs": [
        {
          "internalType": "uint256",
          "name": "",
          "type": "uint256"
        }
      ],
      "stateMutability": "view",
      "type": "function"
    },
    {
      "inputs": [
        {
          "internalType": "uint256",
          "name": "assetId",
          "type": "uint256"
        },
        {
          "internalType": "address",
          "name": "investor",
          "type": "address"
        },
        {
          "internalType": "uint256",
          "name": "amount",
          "type": "uint256"
        }
      ],
      "name": "addInvestment",
      "outputs": [],
      "stateMutability": "nonpayable",
      "type": "function"
    },
    {
      "inputs": [
        {
          "internalType": "uint256",
          "name": "assetId",
          "type": "uint256"
        },
        {
          "internalType": "address",
          "name": "investor",
          "type": "address"
        }
      ],
      "name": "addInvestor",
      "outputs": [],
      "stateMutability": "nonpayable",
      "type": "function"
    },
    {
      "inputs": [
        {
          "internalType": "uint256",
          "name": "assetId",
          "type": "uint256"
        },
        {
          "internalType": "bool",
          "name": "allowed",
          "type": "bool"
        }
      ],
      "name": "allowRefunding",
      "outputs": [],
      "stateMutability": "nonpayable",
      "type": "function"
    },
    {
      "inputs": [
        {
          "internalType": "uint256",
          "name": "assetId",
          "type": "uint256"
        },
        {
          "internalType": "bool",
          "name": "allowed",
          "type": "bool"
        }
      ],
      "name": "allowTransfers",
      "outputs": [],
      "stateMutability": "nonpayable",
      "type": "function"
    },
    {
      "inputs": [
        {
          "internalType": "address",
          "name": "to",
          "type": "address"
        },
        {
          "internalType": "uint256",
          "name": "assetId",
          "type": "uint256"
        }
      ],
      "name": "approve",
      "outputs": [],
      "stateMutability": "nonpayable",
      "type": "function"
    },
    {
      "inputs": [
        {
          "internalType": "uint256",
          "name": "",
          "type": "uint256"
        }
      ],
      "name": "assetApprovals",
      "outputs": [
        {
          "internalType": "address",
          "name": "",
          "type": "address"
        }
      ],
      "stateMutability": "view",
      "type": "function"
    },
    {
      "inputs": [
        {
          "internalType": "uint256",
          "name": "",
          "type": "uint256"
        }
      ],
      "name": "assetExists",
      "outputs": [
        {
          "internalType": "bool",
          "name": "",
          "type": "bool"
        }
      ],
      "stateMutability": "view",
      "type": "function"
    },
    {
      "inputs": [
        {
          "internalType": "uint256",
          "name": "",
          "type": "uint256"
        },
        {
          "internalType": "uint256",
          "name": "",
          "type": "uint256"
        }
      ],
      "name": "assetInvestors",
      "outputs": [
        {
          "internalType": "address",
          "name": "",
          "type": "address"
        }
      ],
      "stateMutability": "view",
      "type": "function"
    },
    {
      "inputs": [
        {
          "internalType": "uint256",
          "name": "",
          "type": "uint256"
        }
      ],
      "name": "assetMap",
      "outputs": [
        {
          "internalType": "uint256",
          "name": "assetId",
          "type": "uint256"
        },
        {
          "internalType": "uint256",
          "name": "price",
          "type": "uint256"
        },
        {
          "internalType": "string",
          "name": "author",
          "type": "string"
        },
        {
          "internalType": "string",
          "name": "title",
          "type": "string"
        },
        {
          "internalType": "string",
          "name": "description",
          "type": "string"
        },
        {
          "internalType": "uint256",
          "name": "projectStartDate",
          "type": "uint256"
        },
        {
          "internalType": "uint256",
          "name": "projectEndDate",
          "type": "uint256"
        },
        {
          "internalType": "enum ProjectStatus",
          "name": "status",
          "type": "uint8"
        },
        {
          "internalType": "address",
          "name": "rewardTokenAddress",
          "type": "address"
        },
        {
          "internalType": "string",
          "name": "mainPhoto",
          "type": "string"
        },
        {
          "internalType": "enum Category",
          "name": "category",
          "type": "uint8"
        }
      ],
      "stateMutability": "view",
      "type": "function"
    },
    {
      "inputs": [
        {
          "internalType": "uint256",
          "name": "",
          "type": "uint256"
        }
      ],
      "name": "assetOwner",
      "outputs": [
        {
          "internalType": "address",
          "name": "",
          "type": "address"
        }
      ],
      "stateMutability": "view",
      "type": "function"
    },
    {
      "inputs": [],
      "name": "assetsCount",
      "outputs": [
        {
          "internalType": "uint256",
          "name": "",
          "type": "uint256"
        }
      ],
      "stateMutability": "view",
      "type": "function"
    },
    {
      "inputs": [
        {
          "internalType": "address",
          "name": "owner",
          "type": "address"
        }
      ],
      "name": "balanceOf",
      "outputs": [
        {
          "internalType": "uint256",
          "name": "",
          "type": "uint256"
        }
      ],
      "stateMutability": "view",
      "type": "function"
    },
    {
      "inputs": [],
      "name": "balanceOf",
      "outputs": [
        {
          "internalType": "uint256",
          "name": "",
          "type": "uint256"
        }
      ],
      "stateMutability": "view",
      "type": "function"
    },
    {
      "inputs": [
        {
          "internalType": "uint256",
          "name": "tokenId",
          "type": "uint256"
        }
      ],
      "name": "burn",
      "outputs": [],
      "stateMutability": "nonpayable",
      "type": "function"
    },
    {
      "inputs": [
        {
          "internalType": "enum Category",
          "name": "",
          "type": "uint8"
        },
        {
          "internalType": "uint256",
          "name": "",
          "type": "uint256"
        }
      ],
      "name": "categoryAssets",
      "outputs": [
        {
          "internalType": "uint256",
          "name": "",
          "type": "uint256"
        }
      ],
      "stateMutability": "view",
      "type": "function"
    },
    {
      "inputs": [
        {
          "internalType": "uint256",
          "name": "assetId",
          "type": "uint256"
        },
        {
          "internalType": "address",
          "name": "approved",
          "type": "address"
        }
      ],
      "name": "clearApproval",
      "outputs": [],
      "stateMutability": "nonpayable",
      "type": "function"
    },
    {
      "inputs": [
        {
          "internalType": "uint256",
          "name": "",
          "type": "uint256"
        }
      ],
      "name": "completedAssets",
      "outputs": [
        {
          "internalType": "uint256",
          "name": "",
          "type": "uint256"
        }
      ],
      "stateMutability": "view",
      "type": "function"
    },
    {
      "inputs": [
        {
          "internalType": "uint256",
          "name": "assetId",
          "type": "uint256"
        }
      ],
      "name": "exists",
      "outputs": [
        {
          "internalType": "bool",
          "name": "",
          "type": "bool"
        }
      ],
      "stateMutability": "view",
      "type": "function"
    },
    {
      "inputs": [
        {
          "internalType": "uint256",
          "name": "",
          "type": "uint256"
        }
      ],
      "name": "failedAssets",
      "outputs": [
        {
          "internalType": "uint256",
          "name": "",
          "type": "uint256"
        }
      ],
      "stateMutability": "view",
      "type": "function"
    },
    {
      "inputs": [
        {
          "internalType": "uint256",
          "name": "",
          "type": "uint256"
        }
      ],
      "name": "fundedAssets",
      "outputs": [
        {
          "internalType": "uint256",
          "name": "",
          "type": "uint256"
        }
      ],
      "stateMutability": "view",
      "type": "function"
    },
    {
      "inputs": [],
      "name": "getActiveAssets",
      "outputs": [
        {
          "internalType": "uint256[]",
          "name": "",
          "type": "uint256[]"
        }
      ],
      "stateMutability": "view",
      "type": "function"
    },
    {
      "inputs": [
        {
          "internalType": "uint256",
          "name": "assetId",
          "type": "uint256"
        }
      ],
      "name": "getApproved",
      "outputs": [
        {
          "internalType": "address",
          "name": "",
          "type": "address"
        }
      ],
      "stateMutability": "view",
      "type": "function"
    },
    {
      "inputs": [
        {
          "internalType": "uint256",
          "name": "assetId",
          "type": "uint256"
        }
      ],
      "name": "getAsset",
      "outputs": [
        {
          "components": [
            {
              "internalType": "uint256",
              "name": "assetId",
              "type": "uint256"
            },
            {
              "internalType": "uint256",
              "name": "price",
              "type": "uint256"
            },
            {
              "internalType": "string",
              "name": "author",
              "type": "string"
            },
            {
              "internalType": "string",
              "name": "title",
              "type": "string"
            },
            {
              "internalType": "string",
              "name": "description",
              "type": "string"
            },
            {
              "internalType": "uint256",
              "name": "projectStartDate",
              "type": "uint256"
            },
            {
              "internalType": "uint256",
              "name": "projectEndDate",
              "type": "uint256"
            },
            {
              "components": [
                {
                  "internalType": "string",
                  "name": "title",
                  "type": "string"
                },
                {
                  "internalType": "string",
                  "name": "description",
                  "type": "string"
                },
                {
                  "internalType": "uint256",
                  "name": "tokenAmount",
                  "type": "uint256"
                },
                {
                  "internalType": "uint256",
                  "name": "individualPrice",
                  "type": "uint256"
                },
                {
                  "internalType": "uint256",
                  "name": "availableTokens",
                  "type": "uint256"
                },
                {
                  "internalType": "uint256",
                  "name": "rewardTokenId",
                  "type": "uint256"
                }
              ],
              "internalType": "struct Reward[]",
              "name": "rewards",
              "type": "tuple[]"
            },
            {
              "internalType": "enum ProjectStatus",
              "name": "status",
              "type": "uint8"
            },
            {
              "internalType": "address",
              "name": "rewardTokenAddress",
              "type": "address"
            },
            {
              "internalType": "string",
              "name": "mainPhoto",
              "type": "string"
            },
            {
              "internalType": "string[]",
              "name": "secondaryPhotos",
              "type": "string[]"
            },
            {
              "internalType": "enum Category",
              "name": "category",
              "type": "uint8"
            }
          ],
          "internalType": "struct Asset",
          "name": "",
          "type": "tuple"
        }
      ],
      "stateMutability": "view",
      "type": "function"
    },
    {
      "inputs": [
        {
          "internalType": "uint256",
          "name": "assetId",
          "type": "uint256"
        }
      ],
      "name": "getAssetInvestors",
      "outputs": [
        {
          "internalType": "address[]",
          "name": "",
          "type": "address[]"
        }
      ],
      "stateMutability": "view",
      "type": "function"
    },
    {
      "inputs": [
        {
          "internalType": "enum Category",
          "name": "category",
          "type": "uint8"
        }
      ],
      "name": "getAssetsByCategory",
      "outputs": [
        {
          "internalType": "uint256[]",
          "name": "",
          "type": "uint256[]"
        }
      ],
      "stateMutability": "view",
      "type": "function"
    },
    {
      "inputs": [],
      "name": "getAssetsCount",
      "outputs": [
        {
          "internalType": "uint256",
          "name": "",
          "type": "uint256"
        }
      ],
      "stateMutability": "view",
      "type": "function"
    },
    {
      "inputs": [
        {
          "internalType": "address",
          "name": "owner",
          "type": "address"
        }
      ],
      "name": "getAssetsOfOwner",
      "outputs": [
        {
          "internalType": "uint256[]",
          "name": "",
          "type": "uint256[]"
        }
      ],
      "stateMutability": "view",
      "type": "function"
    },
    {
      "inputs": [],
      "name": "getCompletedAssets",
      "outputs": [
        {
          "internalType": "uint256[]",
          "name": "",
          "type": "uint256[]"
        }
      ],
      "stateMutability": "view",
      "type": "function"
    },
    {
      "inputs": [],
      "name": "getFailedAssets",
      "outputs": [
        {
          "internalType": "uint256[]",
          "name": "",
          "type": "uint256[]"
        }
      ],
      "stateMutability": "view",
      "type": "function"
    },
    {
      "inputs": [],
      "name": "getFundedAssets",
      "outputs": [
        {
          "internalType": "uint256[]",
          "name": "",
          "type": "uint256[]"
        }
      ],
      "stateMutability": "view",
      "type": "function"
    },
    {
      "inputs": [
        {
          "internalType": "uint256",
          "name": "assetId",
          "type": "uint256"
        },
        {
          "internalType": "address",
          "name": "investor",
          "type": "address"
        }
      ],
      "name": "getInvestmentAmount",
      "outputs": [
        {
          "internalType": "uint256",
          "name": "",
          "type": "uint256"
        }
      ],
      "stateMutability": "view",
      "type": "function"
    },
    {
      "inputs": [
        {
          "internalType": "address",
          "name": "investor",
          "type": "address"
        }
      ],
      "name": "getInvestorAssets",
      "outputs": [
        {
          "internalType": "uint256[]",
          "name": "",
          "type": "uint256[]"
        }
      ],
      "stateMutability": "view",
      "type": "function"
    },
    {
      "inputs": [
        {
          "internalType": "uint256",
          "name": "assetId",
          "type": "uint256"
        },
        {
          "internalType": "address",
          "name": "investor",
          "type": "address"
        }
      ],
      "name": "getInvestorTokens",
      "outputs": [
        {
          "internalType": "uint256[]",
          "name": "",
          "type": "uint256[]"
        },
        {
          "internalType": "uint256[]",
          "name": "",
          "type": "uint256[]"
        }
      ],
      "stateMutability": "view",
      "type": "function"
    },
    {
      "inputs": [
        {
          "internalType": "uint256",
          "name": "assetId",
          "type": "uint256"
        }
      ],
      "name": "getTotalInvestment",
      "outputs": [
        {
          "internalType": "uint256",
          "name": "",
          "type": "uint256"
        }
      ],
      "stateMutability": "view",
      "type": "function"
    },
    {
      "inputs": [
        {
          "internalType": "uint256",
          "name": "assetId",
          "type": "uint256"
        }
      ],
      "name": "getTotalInvestors",
      "outputs": [
        {
          "internalType": "uint256",
          "name": "",
          "type": "uint256"
        }
      ],
      "stateMutability": "view",
      "type": "function"
    },
    {
      "inputs": [
        {
          "internalType": "uint256",
          "name": "assetId",
          "type": "uint256"
        },
        {
          "internalType": "string",
          "name": "title",
          "type": "string"
        },
        {
          "internalType": "string",
          "name": "description",
          "type": "string"
        },
        {
          "internalType": "uint256",
          "name": "tokenAmount",
          "type": "uint256"
        },
        {
          "internalType": "uint256",
          "name": "individualPrice",
          "type": "uint256"
        },
        {
          "internalType": "bytes32",
          "name": "rewardId",
          "type": "bytes32"
        }
      ],
      "name": "handleRewardAddedToAsset",
      "outputs": [],
      "stateMutability": "nonpayable",
      "type": "function"
    },
    {
      "inputs": [],
      "name": "incrementAssetsCount",
      "outputs": [],
      "stateMutability": "nonpayable",
      "type": "function"
    },
    {
      "inputs": [
        {
          "internalType": "uint256",
          "name": "",
          "type": "uint256"
        },
        {
          "internalType": "address",
          "name": "",
          "type": "address"
        }
      ],
      "name": "investmentAmountOf",
      "outputs": [
        {
          "internalType": "uint256",
          "name": "",
          "type": "uint256"
        }
      ],
      "stateMutability": "view",
      "type": "function"
    },
    {
      "inputs": [
        {
          "internalType": "uint256",
          "name": "",
          "type": "uint256"
        }
      ],
      "name": "investmentReceived",
      "outputs": [
        {
          "internalType": "uint256",
          "name": "",
          "type": "uint256"
        }
      ],
      "stateMutability": "view",
      "type": "function"
    },
    {
      "inputs": [
        {
          "internalType": "uint256",
          "name": "",
          "type": "uint256"
        }
      ],
      "name": "investmentRefunded",
      "outputs": [
        {
          "internalType": "uint256",
          "name": "",
          "type": "uint256"
        }
      ],
      "stateMutability": "view",
      "type": "function"
    },
    {
      "inputs": [
        {
          "internalType": "address",
          "name": "",
          "type": "address"
        },
        {
          "internalType": "uint256",
          "name": "",
          "type": "uint256"
        }
      ],
      "name": "investorAssets",
      "outputs": [
        {
          "internalType": "uint256",
          "name": "",
          "type": "uint256"
        }
      ],
      "stateMutability": "view",
      "type": "function"
    },
    {
      "inputs": [
        {
          "internalType": "uint256",
          "name": "",
          "type": "uint256"
        },
        {
          "internalType": "address",
          "name": "",
          "type": "address"
        },
        {
          "internalType": "uint256",
          "name": "",
          "type": "uint256"
        }
      ],
      "name": "investorTokens",
      "outputs": [
        {
          "internalType": "uint256",
          "name": "",
          "type": "uint256"
        }
      ],
      "stateMutability": "view",
      "type": "function"
    },
    {
      "inputs": [
        {
          "internalType": "address",
          "name": "owner",
          "type": "address"
        },
        {
          "internalType": "address",
          "name": "operator",
          "type": "address"
        }
      ],
      "name": "isApprovedForAll",
      "outputs": [
        {
          "internalType": "bool",
          "name": "",
          "type": "bool"
        }
      ],
      "stateMutability": "view",
      "type": "function"
    },
    {
      "inputs": [
        {
          "internalType": "address",
          "name": "spender",
          "type": "address"
        },
        {
          "internalType": "uint256",
          "name": "assetId",
          "type": "uint256"
        }
      ],
      "name": "isApprovedOrOwner",
      "outputs": [
        {
          "internalType": "bool",
          "name": "",
          "type": "bool"
        }
      ],
      "stateMutability": "view",
      "type": "function"
    },
    {
      "inputs": [
        {
          "internalType": "uint256",
          "name": "",
          "type": "uint256"
        }
      ],
      "name": "isRefundingAllowed",
      "outputs": [
        {
          "internalType": "bool",
          "name": "",
          "type": "bool"
        }
      ],
      "stateMutability": "view",
      "type": "function"
    },
    {
      "inputs": [
        {
          "internalType": "uint256",
          "name": "",
          "type": "uint256"
        }
      ],
      "name": "isTransferAllowed",
      "outputs": [
        {
          "internalType": "bool",
          "name": "",
          "type": "bool"
        }
      ],
      "stateMutability": "view",
      "type": "function"
    },
    {
      "inputs": [
        {
          "internalType": "address",
          "name": "to",
          "type": "address"
        },
        {
          "internalType": "uint256",
          "name": "assetId",
          "type": "uint256"
        },
        {
          "internalType": "string",
          "name": "asseturi",
          "type": "string"
        }
      ],
      "name": "mint",
      "outputs": [],
      "stateMutability": "nonpayable",
      "type": "function"
    },
    {
      "inputs": [],
      "name": "name",
      "outputs": [
        {
          "internalType": "string",
          "name": "",
          "type": "string"
        }
      ],
      "stateMutability": "view",
      "type": "function"
    },
    {
      "inputs": [
        {
          "internalType": "address",
          "name": "",
          "type": "address"
        }
      ],
      "name": "ownedAssetsCount",
      "outputs": [
        {
          "internalType": "uint256",
          "name": "",
          "type": "uint256"
        }
      ],
      "stateMutability": "view",
      "type": "function"
    },
    {
      "inputs": [],
      "name": "owner",
      "outputs": [
        {
          "internalType": "address",
          "name": "",
          "type": "address"
        }
      ],
      "stateMutability": "view",
      "type": "function"
    },
    {
      "inputs": [
        {
          "internalType": "uint256",
          "name": "assetId",
          "type": "uint256"
        }
      ],
      "name": "ownerOf",
      "outputs": [
        {
          "internalType": "address",
          "name": "",
          "type": "address"
        }
      ],
      "stateMutability": "view",
      "type": "function"
    },
    {
      "inputs": [
        {
          "internalType": "address",
          "name": "",
          "type": "address"
        },
        {
          "internalType": "uint256",
          "name": "",
          "type": "uint256"
        }
      ],
      "name": "ownerToAssets",
      "outputs": [
        {
          "internalType": "uint256",
          "name": "",
          "type": "uint256"
        }
      ],
      "stateMutability": "view",
      "type": "function"
    },
    {
      "inputs": [],
      "name": "pause",
      "outputs": [],
      "stateMutability": "nonpayable",
      "type": "function"
    },
    {
      "inputs": [],
      "name": "paused",
      "outputs": [
        {
          "internalType": "bool",
          "name": "",
          "type": "bool"
        }
      ],
      "stateMutability": "view",
      "type": "function"
    },
    {
      "inputs": [
        {
          "internalType": "uint256",
          "name": "",
          "type": "uint256"
        },
        {
          "internalType": "address",
          "name": "",
          "type": "address"
        }
      ],
      "name": "pendingReturns",
      "outputs": [
        {
          "internalType": "uint256",
          "name": "",
          "type": "uint256"
        }
      ],
      "stateMutability": "view",
      "type": "function"
    },
    {
      "inputs": [],
      "name": "renounceOwnership",
      "outputs": [],
      "stateMutability": "nonpayable",
      "type": "function"
    },
    {
      "inputs": [
        {
          "internalType": "address",
          "name": "from",
          "type": "address"
        },
        {
          "internalType": "address",
          "name": "to",
          "type": "address"
        },
        {
          "internalType": "uint256",
          "name": "tokenId",
          "type": "uint256"
        }
      ],
      "name": "safeTransferFrom",
      "outputs": [],
      "stateMutability": "nonpayable",
      "type": "function"
    },
    {
      "inputs": [
        {
          "internalType": "address",
          "name": "from",
          "type": "address"
        },
        {
          "internalType": "address",
          "name": "to",
          "type": "address"
        },
        {
          "internalType": "uint256",
          "name": "tokenId",
          "type": "uint256"
        },
        {
          "internalType": "bytes",
          "name": "_data",
          "type": "bytes"
        }
      ],
      "name": "safeTransferFrom",
      "outputs": [],
      "stateMutability": "nonpayable",
      "type": "function"
    },
    {
      "inputs": [
        {
          "internalType": "address",
          "name": "operator",
          "type": "address"
        },
        {
          "internalType": "bool",
          "name": "approved",
          "type": "bool"
        }
      ],
      "name": "setApprovalForAll",
      "outputs": [],
      "stateMutability": "nonpayable",
      "type": "function"
    },
    {
      "inputs": [
        {
          "internalType": "bytes4",
          "name": "interfaceId",
          "type": "bytes4"
        }
      ],
      "name": "supportsInterface",
      "outputs": [
        {
          "internalType": "bool",
          "name": "",
          "type": "bool"
        }
      ],
      "stateMutability": "view",
      "type": "function"
    },
    {
      "inputs": [],
      "name": "symbol",
      "outputs": [
        {
          "internalType": "string",
          "name": "",
          "type": "string"
        }
      ],
      "stateMutability": "view",
      "type": "function"
    },
    {
      "inputs": [
        {
          "internalType": "uint256",
          "name": "index",
          "type": "uint256"
        }
      ],
      "name": "tokenByIndex",
      "outputs": [
        {
          "internalType": "uint256",
          "name": "",
          "type": "uint256"
        }
      ],
      "stateMutability": "view",
      "type": "function"
    },
    {
      "inputs": [
        {
          "internalType": "address",
          "name": "owner",
          "type": "address"
        },
        {
          "internalType": "uint256",
          "name": "index",
          "type": "uint256"
        }
      ],
      "name": "tokenOfOwnerByIndex",
      "outputs": [
        {
          "internalType": "uint256",
          "name": "",
          "type": "uint256"
        }
      ],
      "stateMutability": "view",
      "type": "function"
    },
    {
      "inputs": [
        {
          "internalType": "uint256",
          "name": "tokenId",
          "type": "uint256"
        }
      ],
      "name": "tokenURI",
      "outputs": [
        {
          "internalType": "string",
          "name": "",
          "type": "string"
        }
      ],
      "stateMutability": "view",
      "type": "function"
    },
    {
      "inputs": [
        {
          "internalType": "uint256",
          "name": "",
          "type": "uint256"
        }
      ],
      "name": "totalInvestment",
      "outputs": [
        {
          "internalType": "uint256",
          "name": "",
          "type": "uint256"
        }
      ],
      "stateMutability": "view",
      "type": "function"
    },
    {
      "inputs": [
        {
          "internalType": "uint256",
          "name": "",
          "type": "uint256"
        }
      ],
      "name": "totalInvestors",
      "outputs": [
        {
          "internalType": "uint256",
          "name": "",
          "type": "uint256"
        }
      ],
      "stateMutability": "view",
      "type": "function"
    },
    {
      "inputs": [],
      "name": "totalSupply",
      "outputs": [
        {
          "internalType": "uint256",
          "name": "",
          "type": "uint256"
        }
      ],
      "stateMutability": "view",
      "type": "function"
    },
    {
      "inputs": [
        {
          "internalType": "address",
          "name": "recipient",
          "type": "address"
        },
        {
          "internalType": "uint256",
          "name": "amount",
          "type": "uint256"
        }
      ],
      "name": "transfer",
      "outputs": [
        {
          "internalType": "bool",
          "name": "",
          "type": "bool"
        }
      ],
      "stateMutability": "nonpayable",
      "type": "function"
    },
    {
      "inputs": [
        {
          "internalType": "address",
          "name": "from",
          "type": "address"
        },
        {
          "internalType": "address",
          "name": "to",
          "type": "address"
        },
        {
          "internalType": "uint256",
          "name": "tokenId",
          "type": "uint256"
        }
      ],
      "name": "transferFrom",
      "outputs": [],
      "stateMutability": "nonpayable",
      "type": "function"
    },
    {
      "inputs": [
        {
          "internalType": "address",
          "name": "newOwner",
          "type": "address"
        }
      ],
      "name": "transferOwnership",
      "outputs": [],
      "stateMutability": "nonpayable",
      "type": "function"
    },
    {
      "inputs": [],
      "name": "unpause",
      "outputs": [],
      "stateMutability": "nonpayable",
      "type": "function"
    },
    {
      "inputs": [
        {
          "internalType": "uint256",
          "name": "assetId",
          "type": "uint256"
        },
        {
          "components": [
            {
              "internalType": "uint256",
              "name": "assetId",
              "type": "uint256"
            },
            {
              "internalType": "uint256",
              "name": "price",
              "type": "uint256"
            },
            {
              "internalType": "string",
              "name": "author",
              "type": "string"
            },
            {
              "internalType": "string",
              "name": "title",
              "type": "string"
            },
            {
              "internalType": "string",
              "name": "description",
              "type": "string"
            },
            {
              "internalType": "uint256",
              "name": "projectStartDate",
              "type": "uint256"
            },
            {
              "internalType": "uint256",
              "name": "projectEndDate",
              "type": "uint256"
            },
            {
              "components": [
                {
                  "internalType": "string",
                  "name": "title",
                  "type": "string"
                },
                {
                  "internalType": "string",
                  "name": "description",
                  "type": "string"
                },
                {
                  "internalType": "uint256",
                  "name": "tokenAmount",
                  "type": "uint256"
                },
                {
                  "internalType": "uint256",
                  "name": "individualPrice",
                  "type": "uint256"
                },
                {
                  "internalType": "uint256",
                  "name": "availableTokens",
                  "type": "uint256"
                },
                {
                  "internalType": "uint256",
                  "name": "rewardTokenId",
                  "type": "uint256"
                }
              ],
              "internalType": "struct Reward[]",
              "name": "rewards",
              "type": "tuple[]"
            },
            {
              "internalType": "enum ProjectStatus",
              "name": "status",
              "type": "uint8"
            },
            {
              "internalType": "address",
              "name": "rewardTokenAddress",
              "type": "address"
            },
            {
              "internalType": "string",
              "name": "mainPhoto",
              "type": "string"
            },
            {
              "internalType": "string[]",
              "name": "secondaryPhotos",
              "type": "string[]"
            },
            {
              "internalType": "enum Category",
              "name": "category",
              "type": "uint8"
            }
          ],
          "internalType": "struct Asset",
          "name": "asset",
          "type": "tuple"
        }
      ],
      "name": "updateAsset",
      "outputs": [],
      "stateMutability": "nonpayable",
      "type": "function"
    },
    {
      "inputs": [
        {
          "internalType": "uint256",
          "name": "assetId",
          "type": "uint256"
        },
        {
          "internalType": "uint256",
          "name": "rewardIndex",
          "type": "uint256"
        },
        {
          "internalType": "uint256",
          "name": "newAvailableTokens",
          "type": "uint256"
        }
      ],
      "name": "updateAssetReward",
      "outputs": [],
      "stateMutability": "nonpayable",
      "type": "function"
    },
    {
      "inputs": [
        {
          "internalType": "uint256",
          "name": "assetId",
          "type": "uint256"
        },
        {
          "internalType": "uint256",
          "name": "amount",
          "type": "uint256"
        }
      ],
      "name": "updateInvestmentRefunded",
      "outputs": [],
      "stateMutability": "nonpayable",
      "type": "function"
    },
    {
      "inputs": [
        {
          "internalType": "uint256",
          "name": "assetId",
          "type": "uint256"
        },
        {
          "internalType": "address",
          "name": "investor",
          "type": "address"
        },
        {
          "internalType": "uint256",
          "name": "tokenId",
          "type": "uint256"
        },
        {
          "internalType": "uint256",
          "name": "tokenAmount",
          "type": "uint256"
        }
      ],
      "name": "updateInvestorTokens",
      "outputs": [],
      "stateMutability": "nonpayable",
      "type": "function"
    },
    {
      "inputs": [
        {
          "internalType": "uint256",
          "name": "assetId",
          "type": "uint256"
        },
        {
          "internalType": "address",
          "name": "investor",
          "type": "address"
        },
        {
          "internalType": "uint256",
          "name": "amount",
          "type": "uint256"
        }
      ],
      "name": "updatePendingReturns",
      "outputs": [],
      "stateMutability": "nonpayable",
      "type": "function"
    },
    {
      "inputs": [
        {
          "internalType": "uint256",
          "name": "assetId",
          "type": "uint256"
        },
        {
          "internalType": "address",
          "name": "rewardTokenAddress",
          "type": "address"
        }
      ],
      "name": "updateRewardTokenAddress",
      "outputs": [],
      "stateMutability": "nonpayable",
      "type": "function"
    }
  ],
  "bytecode": "0x6080346200035f576001600160401b039060408181018381118382101762000349578152600d82526020916c233930b1ba34b7b730b621aa2b60991b83820152815193828501858110828211176200034957835260048552632321aa2b60e11b84860152815181811162000349576000948554916001948584811c941680156200033e575b838510146200032a578190601f94858111620002d7575b5083908583116001146200027357899262000267575b5050600019600383901b1c191690851b1786555b8651928311620002535783548481811c9116801562000248575b828210146200023457828111620001ec575b50809183116001146200018557508495829394959262000179575b5050600019600383901b1c191690821b1790555b600b80546001600160a81b03191633600881901b610100600160a81b0316919091179091559051917f8be0079c531659141344cd1fd0a4f28419497f9722a3daafe3b4186f6b6457e08180a36144db9081620003658239f35b0151905038806200010c565b90601f198316968487528287209287905b898210620001d4575050838596979810620001ba575b505050811b01905562000120565b015160001960f88460031b161c19169055388080620001ac565b80878596829496860151815501950193019062000196565b8487528187208380860160051c8201928487106200022a575b0160051c019085905b8281106200021e575050620000f1565b8881550185906200020e565b9250819262000205565b634e487b7160e01b87526022600452602487fd5b90607f1690620000df565b634e487b7160e01b86526041600452602486fd5b015190503880620000b1565b898052848a208894509190601f1984168b5b87828210620002c05750508411620002a6575b505050811b018655620000c5565b015160001960f88460031b161c1916905538808062000298565b8385015186558b9790950194938401930162000285565b9091508880528389208580850160051c82019286861062000320575b918991869594930160051c01915b828110620003115750506200009b565b8b815585945089910162000301565b92508192620002f3565b634e487b7160e01b88526022600452602488fd5b93607f169362000084565b634e487b7160e01b600052604160045260246000fd5b600080fdfe6080604052600436101561001257600080fd5b60003560e01c806301bdc460146104ee57806301ffc9a7146104e957806303385770146104e457806306fdde03146104df57806307c90547146104da578063081812fc146104d5578063095ea7b3146104d05780630aac5dfd146103cc5780630fd8aee8146104cb578063129f9008146104c657806314fcde03146104c157806318160ddd146104bc57806323b872dd146104b75780632a0ee644146104b25780632c5bdb1f146104ad5780632f745c59146104a857806332a643701461049e57806333a90c36146104a357806334422a471461049e57806334899521146104995780633adc860e1461046c5780633d3eb314146104945780633f4ba83a1461048f5780633f9aa1541461048a57806342842e0e1461048557806342966c6814610480578063430c20811461047b5780634f558e79146104715780634f6ccce714610476578063518e2bdd146104715780635531ad6a1461046c5780635c975abb146104675780635d0dead2146104625780636352211e1461045d57806368ad1c79146104585780636dd501d71461045357806370a082311461044e578063715018a614610449578063722713f71461044457806377394a731461043f57806379f484241461043a5780638456cb591461043557806384bbffe71461043057806386887e1b1461042b57806387a115e6146104265780638da5cb5b146104215780638ddac1ef1461041c57806395d89b4114610417578063a22cb46514610412578063a2311d5f1461040d578063a9059cbb14610408578063adc649e114610403578063ae7d9553146103fe578063ae908698146103ea578063b5ff2582146103f9578063b6160915146103f4578063b88d4fde146103ef578063bb7e385a146103ea578063bbe30722146103e5578063c0adb910146103e0578063c619c4a2146103db578063c87b56dd146103d6578063cbeaba77146103d1578063cd9df190146103cc578063d166e4ee146103c7578063d3fc9864146103c2578063d86da278146103bd578063daa5fe2d146103b8578063dc289f48146103b3578063e14ca948146103ae578063e985e9c5146103a9578063e9e7854c146103a4578063eac8f5b81461039f578063ebcab6051461039a578063f2fde38b14610395578063f35b25a814610390578063f3ab880e1461038b578063fbdc985a146103865763fd27ff811461038157600080fd5b612e71565b612e40565b612dc8565b612d77565b612ca6565b612b1a565b612a5a565b6127f4565b6127a3565b6126ab565b6124e8565b6121dc565b6121ab565b612088565b612043565b6109e1565b612007565b611fd4565b611f82565b611f56565b611f05565b611de9565b611ea6565b611e75565b611e1b565b611d9f565b611d55565b611d24565b611ca0565b611bda565b611b46565b611b0b565b611ade565b611a4d565b611a0e565b6119bd565b61194d565b61184f565b611815565b611795565b611743565b611718565b6116e7565b611691565b61163e565b611614565b6115f1565b610ff4565b611527565b611558565b6114ab565b6112a2565b61127a565b6111a4565b611079565b61101f565b610fc0565b610f10565b610f6f565b610e5d565b610e3c565b610e08565b610ddd565b610d8a565b610d62565b610ca2565b6109ff565b6108df565b610859565b6107da565b6106dc565b61064f565b6105c7565b61053b565b90815180825260208080930193019160005b828110610513575050505090565b835185529381019392810192600101610505565b9060206105389281815201906104f3565b90565b346105b0576000806003193601126105ad5760405180918260145480845260208094019060148452848420935b858282106105975750505061057f92500383610b00565b6105936040519282849384528301906104f3565b0390f35b8554845260019586019588955093019201610568565b80fd5b600080fd5b6001600160e01b03198116036105b057565b346105b05760203660031901126105b05760206004356105e6816105b5565b63ffffffff60e01b1663780e9d6360e01b811490811561060c575b506040519015158152f35b6380ac58cd60e01b81149150811561063e575b811561062d575b5038610601565b6301ffc9a760e01b14905038610626565b635b5e139f60e01b8114915061061f565b346105b05760203660031901126105b0576004356000526010602052602060018060a01b0360406000205416604051908152f35b60005b8381106106965750506000910152565b8181015183820152602001610686565b906020916106bf81518092818552858086019101610683565b601f01601f1916010190565b9060206105389281815201906106a6565b346105b0576000806003193601126105ad576040518180546106fd81610a59565b8084529060019081811690811561076e5750600114610733575b6105938461072781880382610b00565b604051918291826106cb565b93508180526020938483205b82841061075b5750505081610593936107279282010193610717565b805485850187015292850192810161073f565b61059396506107279450602092508593915060ff191682840152151560051b82010193610717565b6020908160408183019282815285518094520193019160005b8281106107bd575050505090565b83516001600160a01b0316855293810193928101926001016107af565b346105b0576020806003193601126105b057600435600052601a8152604060002090604051908181845491828152019360005281600020916000905b828210610839576105938561082d81890382610b00565b60405191829182610796565b83546001600160a01b031686529485019460019384019390910190610816565b346105b05760203660031901126105b0576020610877600435613bde565b6040516001600160a01b039091168152f35b600435906001600160a01b03821682036105b057565b602435906001600160a01b03821682036105b057565b604435906001600160a01b03821682036105b057565b35906001600160a01b03821682036105b057565b346105b05760403660031901126105b0576108f8610889565b602435906001600160a01b038061090e84613b88565b16908216918183146109a55781330361096d5761095890610939856000526010602052604060002090565b80546001600160a01b0319166001600160a01b03909216919091179055565b600080516020614486833981519152600080a4005b60405162461bcd60e51b815260206004820152601060248201526f2737ba2a3432a0b9b9b2ba27bbb732b960811b6044820152606490fd5b60405162461bcd60e51b815260206004820152601460248201527310dd5c9c995b9d13dddb995c905c1c1c9bdd985b60621b6044820152606490fd5b346105b05760003660031901126105b0576020600c54604051908152f35b346105b0576000806003193601126105ad5760405180918260135480845260208094019060138452848420935b85828210610a435750505061057f92500383610b00565b8554845260019586019588955093019201610a2c565b90600182811c92168015610a89575b6020831014610a7357565b634e487b7160e01b600052602260045260246000fd5b91607f1691610a68565b634e487b7160e01b600052604160045260246000fd5b6101a081019081106001600160401b03821117610ac557604052565b610a93565b60c081019081106001600160401b03821117610ac557604052565b602081019081106001600160401b03821117610ac557604052565b601f909101601f19168101906001600160401b03821190821017610ac557604052565b9060405191826000825492610b3784610a59565b908184526001948581169081600014610ba65750600114610b63575b5050610b6192500383610b00565b565b9093915060005260209081600020936000915b818310610b8e575050610b6193508201013880610b53565b85548884018501529485019487945091830191610b76565b915050610b6194506020925060ff191682840152151560051b8201013880610b53565b634e487b7160e01b600052602160045260246000fd5b60041115610be957565b610bc9565b906004821015610be95752565b60051115610be957565b906005821015610be95752565b9b9a98938c610b619b96610c5a610c6893610c4c610c7d986101409e98610c9a9e98875260208701526101608060408801528601906106a6565b9084820360608601526106a6565b9160808184039101526106a6565b9560a08d015260c08c015260e08b0190610bee565b6001600160a01b03166101008901528782036101208901526106a6565b940190610c05565b346105b05760203660031901126105b057600435600052600d60205260406000208054610593600183015491610cda60028501610b23565b93610ce760038201610b23565b91610cf460048301610b23565b90600583015460068401549060088501549360ff600b610d1660098901610b23565b97015416966040519a8b9a60ff60018060a01b038960081c169816968c610c12565b60609060031901126105b057600435906024356001600160a01b03811681036105b0579060443590565b346105b057610d87610d7336610d38565b9291600052601e60205260406000206117fe565b55005b346105b05760003660031901126105b0576020600854604051908152f35b60609060031901126105b0576001600160a01b039060043582811681036105b0579160243590811681036105b0579060443590565b346105b057610e06610dee36610da8565b91610e01610dfc843361311a565b612fa2565b6132cf565b005b346105b05760203660031901126105b0576004356000526011602052602060018060a01b0360406000205416604051908152f35b346105b05760003660031901126105b057610e58600c54613a91565b600c55005b346105b05760403660031901126105b057610e76610889565b60243590610e8381612f6c565b821015610eb7576001600160a01b031660009081526006602090815260408083209383529281529082902054915191825290f35b60405162461bcd60e51b815260206004820152602b60248201527f455243373231456e756d657261626c653a206f776e657220696e646578206f7560448201526a74206f6620626f756e647360a81b6064820152608490fd5b346105b05760203660031901126105b05760043560005260216020526020604060002054604051908152f35b634e487b7160e01b600052603260045260246000fd5b8054821015610f6a5760005260206000200190600090565b610f3c565b346105b05760203660031901126105b0576004356016548110156105b05760166000527fd833147d7dc355ba459fc788f669e58cfaf9dc25ddcd0702e87d69c7b51242890154604051908152602090f35b346105b05760403660031901126105b057610e06610fdc61089f565b600435600052600d6020526008604060002001612ee8565b346105b05760203660031901126105b057600435600052602080526020604060002054604051908152f35b346105b0576000806003193601126105ad5760405180918260155480845260208094019060158452848420935b858282106110635750505061057f92500383610b00565b855484526001958601958895509301920161104c565b346105b05760003660031901126105b057600b546110a5600882901c6001600160a01b03163314612e9d565b60ff8116156110e15760ff1916600b557f5db9ee0a495bf2e6ff9c91a7834c1ba4fdd244a5e8aa4e537bd38aeae4b073aa6020604051338152a1005b60405162461bcd60e51b815260206004820152601460248201527314185d5cd8589b194e881b9bdd081c185d5cd95960621b6044820152606490fd5b60405190610b6182610aca565b60405190610b6182610aa9565b6001600160401b038111610ac557601f01601f191660200190565b92919261115e82611137565b9161116c6040519384610b00565b8294818452818301116105b0578281602093846000960137010152565b9080601f830112156105b05781602061053893359101611152565b346105b05760c03660031901126105b0576001600160401b036024358181116105b0576111d5903690600401611189565b906044359081116105b0576111ee903690600401611189565b90606435916000926004358452600d60205260076040852001916040519361121585610aca565b84526020840152604083018190526084356060840152608083015260a43560a08301528054600160401b811015610ac55761125591600182018155614368565b611266579061126391613ede565b80f35b634e487b7160e01b83526004839052602483fd5b346105b057610e0661128b36610da8565b906040519261129984610ae5565b6000845261301b565b346105b05760203660031901126105b0576004356112c0813361311a565b1561144d57806112cf81613194565b6112de60ff600b54161561359a565b6001600160a01b038116908161139857906113156000926112fe85613795565b611307856137db565b611310856133ba565b6117e4565b61131f8154613297565b9055611348611338846000526002602052604060002090565b80546001600160a01b0319169055565b6000805160206144668339815191528280a461137661137182600052600a602052604060002090565b613887565b61137c57005b611393610e0691600052600a602052604060002090565b6138a8565b9091506113a481612f6c565b600019810192908311611448576113156000928594611402859187835260076020526040832054818103611408575b50826113e9896000526007602052604060002090565b556113f3846117ca565b90600052602052604060002090565b556112fe565b868452600660205260408420828552602052611441604085205480611430846113f38a6117ca565b556000526007602052604060002090565b55386113d3565b613281565b60405162461bcd60e51b815260206004820152603060248201527f4552433732314275726e61626c653a2063616c6c6572206973206e6f74206f7760448201526f1b995c881b9bdc88185c1c1c9bdd995960821b6064820152608490fd5b346105b05760403660031901126105b05760206114c6610889565b6024359081600052600e83526114e360ff604060002054166130b9565b6001600160a01b0380806114f685613b88565b169216918214928315611511575b5050506040519015158152f35b61151d91929350613bde565b1614388080611504565b346105b05760203660031901126105b057600435600052600e602052602060ff604060002054166040519015158152f35b346105b05760203660031901126105b0576004356008548110156115975760086000526000805160206144468339815191520154604051908152602090f35b60405162461bcd60e51b815260206004820152602c60248201527f455243373231456e756d657261626c653a20676c6f62616c20696e646578206f60448201526b7574206f6620626f756e647360a01b6064820152608490fd5b346105b05760003660031901126105b057602060ff600b54166040519015158152f35b346105b05760403660031901126105b057600435600052601d602052602435604060002055600080f35b346105b05760203660031901126105b0576020610877600435613b88565b6004359060058210156105b057565b359060058210156105b057565b6005811015610be9576000526017602052604060002090565b346105b05760403660031901126105b0576116aa61165c565b602435906005811015610be9576000526017602052604060002080548210156105b0576020916116d991610f52565b90546040519160031b1c8152f35b346105b05760203660031901126105b057600435600052601c602052602060ff604060002054166040519015158152f35b346105b05760203660031901126105b057602061173b611736610889565b612f6c565b604051908152f35b346105b0576000806003193601126105ad57600b5481600882901c6001600160a01b0316611772338214612e9d565b6000805160206144268339815191528280a3610100600160a81b031916600b5580f35b346105b05760003660031901126105b0576117b1331515612f0d565b3360005260126020526020604060002054604051908152f35b6001600160a01b0316600090815260066020526040902090565b6001600160a01b0316600090815260036020526040902090565b9060018060a01b0316600052602052604060002090565b346105b05760203660031901126105b0576001600160a01b03611836610889565b1660005260126020526020604060002054604051908152f35b346105b05761185d36610d38565b91600092818452601860205261187683604086206117fe565b805490828201809211611448575581845260196020526040842061189b8282546132c2565b90556118b1826000526021602052604060002090565b6118bc8282546132c2565b90556118db836118d6846000526018602052604060002090565b6117fe565b54146118e5578280f35b61192c816119278461190d61193b9661190885600052601a602052604060002090565b614384565b6001600160a01b0316600090815260226020526040902090565b613760565b60005260208052604060002090565b6119458154613a91565b905538808280f35b346105b05760003660031901126105b057600b5460019061197c600882901c6001600160a01b03163314612e9d565b61198960ff82161561359a565b60ff191617600b557f62e78cea01bee320cd4e420270b5ea74000d11b0c9f74754ebdbfc544b05a2586020604051338152a1005b346105b05760203660031901126105b0576004356014548110156105b05760146000527fce6d7b5282bd9a3661ae061feed1dbda4e52ab073b1f9285be6e155d9c38d4ec0154604051908152602090f35b346105b05760203660031901126105b0576004356013548110156105b05760136000526000805160206144068339815191520154604051908152602090f35b346105b05760603660031901126105b05760043560243590600091818352600d6020526007604084200154811015611aa257611a96918352600d60205260076040842001614368565b50600460443591015580f35b60405162461bcd60e51b8152602060048201526014602482015273092dcecc2d8d2c840e4caeec2e4c840d2dcc8caf60631b6044820152606490fd5b346105b05760003660031901126105b057600b5460405160089190911c6001600160a01b03168152602090f35b346105b05760403660031901126105b0576020611b3d611b2961089f565b600435600052601e835260406000206117fe565b54604051908152f35b346105b0576000806003193601126105ad57604051816001805490611b6a82610a59565b8085529181811690811561076e5750600114611b90576105938461072781880382610b00565b80945082526020938483205b828410611bb85750505081610593936107279282010193610717565b8054858501870152928501928101611b9c565b6024359081151582036105b057565b346105b05760403660031901126105b057611bf3610889565b611bfb611bcb565b6001600160a01b03821691338314611c5f5781611c28611c2d9233600052600560205260406000206117fe565b612f91565b604051901515815233907f17307eab39ab6107e8899845ad3d59bd9653f200f220920489ca2b5937696c3190602090a3005b60405162461bcd60e51b815260206004820152601960248201527822a9219b99189d1030b8383937bb32903a379031b0b63632b960391b6044820152606490fd5b346105b0576020806003193601126105b057611cba61165c565b6005811015610be95760005260178152604060002090604051908181845491828152019360005281600020916000905b828210611d0d5761059385611d0181890382610b00565b60405191829182610527565b835486529485019460019384019390910190611cea565b346105b05760403660031901126105b057611d4a611d40610889565b60243590336132cf565b602060405160018152f35b346105b05760403660031901126105b057611d6e610889565b6001600160a01b03166000908152600f60205260409020805460243591908210156105b0576020916116d991610f52565b346105b05760403660031901126105b057611db8610889565b6001600160a01b03166000908152602260205260409020805460243591908210156105b0576020916116d991610f52565b346105b05760403660031901126105b0576020611b3d611e0761089f565b6004356000526018835260406000206117fe565b346105b0576000806003193601126105ad5760405180918260165480845260208094019060168452848420935b85828210611e5f5750505061057f92500383610b00565b8554845260019586019588955093019201611e48565b346105b05760203660031901126105b057600435600052601b602052602060ff604060002054166040519015158152f35b346105b05760803660031901126105b057611ebf610889565b611ec761089f565b606435916001600160401b0383116105b057366023840112156105b057611efb610e06933690602481600401359101611152565b916044359161301b565b346105b05760403660031901126105b057600435611263611f2461089f565b91600092818452601a602052611f3d8160408620614384565b6001600160a01b03168352602260205260408320613760565b346105b05760203660031901126105b05760043560005260196020526020604060002054604051908152f35b346105b05760403660031901126105b057602435600435600052601a602052604060002080548210156105b057602091611fbb91610f52565b905460405160039290921b1c6001600160a01b03168152f35b346105b05760203660031901126105b057610593611ff3600435613908565b6040519182916020835260208301906106a6565b346105b05761202c61201836610d38565b9291600052601f60205260406000206117fe565b906000526020526020604060002054604051908152f35b346105b05760803660031901126105b05761205c61089f565b6120756000916004358352601f602052604083206117fe565b6044358252602052606435604082205580f35b346105b05760603660031901126105b0576120a1610889565b6024356044356001600160401b0381116105b0576120c3903690600401611189565b6001600160a01b0383169081156121705761215f9361216a604051926120e884610ae5565b612164600097858980975261210b6121066121028b61320c565b1590565b613c61565b61211589876135d9565b61211e866117e4565b61212881546132a6565b9055612142866109398b6000526002602052604060002090565b8860008051602061446683398151915296818a8a8a8180a461349d565b613095565b85613dbf565b8180a480f35b60405162461bcd60e51b81526020600482015260136024820152725a65726f416464726573734d696e6974696e6760681b6044820152606490fd5b346105b05760403660031901126105b057610e066121c7611bcb565b600435600052601b6020526040600020612f91565b346105b05760403660031901126105b0576121f561089f565b6004356000908152601060205260409020805490916001600160a01b0380831691161461221e57005b6001600160a01b0319169055005b6001600160401b038111610ac55760051b60200190565b81601f820112156105b05780356122598161222c565b9260409161226983519586610b00565b808552602093848087019260051b820101938385116105b057858201925b858410612298575050505050505090565b6001600160401b0384358181116105b05784019160c09283601f19828a0301126105b0576122c461111d565b908a8101358481116105b057898c6122de92840101611189565b8252858101359384116105b0578a946122fc8a878097850101611189565b858401526060918281013588850152608092838201359085015260a0928382013590850152013590820152815201930192612287565b359060048210156105b057565b9080601f830112156105b0578135906123578261222c565b926123656040519485610b00565b828452602092838086019160051b830101928084116105b057848301915b8483106123935750505050505090565b82356001600160401b0381116105b05786916123b484848094890101611189565b815201920191612383565b9190916101a0818403126105b0576123d561112a565b8135815260208083013590820152926001600160401b0360408301358181116105b05782612404918501611189565b604086015260608301358181116105b05782612421918501611189565b606086015260808301358181116105b0578261243e918501611189565b608086015260a083013560a086015260c083013560c086015260e08301358181116105b0578261246f918501612243565b60e0860152610100612482818501612332565b908601526101206124948185016108cb565b90860152610140808401358281116105b057836124b2918601611189565b9086015261016091828401359182116105b0576124d091840161233f565b908401526124e261018080920161166b565b90830152565b346105b05760603660031901126105b0576024356004356001600160401b0382116105b057611927612521610e069336906004016123bf565b61266f836119276125306108b5565b82600052600d6020526126196101806040600020968051885560208101516001890155612564604082015160028a01613cf1565b612575606082015160038a01613cf1565b612586608082015160048a01613cf1565b60a0810151600589015560c081015160068901556125ab60e082015160078a01613ff3565b6125df600889016125ca6101008401516125c481610bdf565b826140c1565b6101208301516001600160a01b031690612ee8565b6125f161014082015160098a01613cf1565b612603610160820151600a8a016140d9565b0195600b87519161261383610bfb565b01614166565b61263181610939856000526011602052604060002090565b6001600160a01b03811660009081526012602052604090206126538154613a91565b90556001600160a01b03166000908152600f6020526040902090565b61269361268684600052600e602052604060002090565b805460ff19166001179055565b61269c8361372a565b516126a681610bfb565b611678565b346105b05760403660031901126105b0576024356001600160401b0381116105b0576126de610e069136906004016123bf565b600435600052600d602052600b6101806040600020928051845560208101516001850155612713604082015160028601613cf1565b612724606082015160038601613cf1565b612735608082015160048601613cf1565b60a0810151600585015560c0810151600685015561275a60e082015160078601613ff3565b612773600885016125ca6101008401516125c481610bdf565b61278561014082015160098601613cf1565b612797610160820151600a86016140d9565b01519161261383610bfb565b346105b05760403660031901126105b057602060ff6127e86127c3610889565b6127cb61089f565b6001600160a01b03909116600090815260058552604090206117fe565b54166040519015158152f35b346105b0576020806003193601126105b0576001600160a01b03612816610889565b1660005260228152604060002090604051908181845491828152019360005281600020916000905b8282106128555761059385611d0181890382610b00565b83548652948501946001938401939091019061283e565b90815180825260208092019182818360051b85019501936000915b8483106128975750505050505090565b909192939495848082846001940386528951906128cf6128bf835160c08085528401906106a6565b84840151838203868501526106a6565b9160408082015190830152606080820151908301526080808201519083015260a0809101519101529801930193019194939290612887565b90815180825260208092019182818360051b82019501936000915b8483106129325750505050505090565b909192939495848061294c83856001950387528a516106a6565b9801930193019194939290612922565b6105389060208152825160208201526020830151604082015260408301516129926101a0918260608501526101c08401906106a6565b612a4f6129c86129b4606088015193601f1994858883030160808901526106a6565b6080880151848783030160a08801526106a6565b60a087015160c086015260c087015160e0860152612a3a6129fa60e089015192610100938689830301858a015261286c565b91880151612a0e6101209182890190610bee565b8801516001600160a01b03166101408781019190915288015191610160928588830301848901526106a6565b90870151610180938683030184870152612907565b940151910190610c05565b346105b05760203660031901126105b057604051612a7781610aa9565b610180600091828152826020820152606080604083015280808301528060808301528360a08301528360c08301528060e08301528361010083015283610120830152806101408301526101608201520152610593612ae9612ae4600435600052600d602052604060002090565b61428d565b6040519182918261295c565b9091612b0c610538936040845260408401906104f3565b9160208184039101526104f3565b346105b05760403660031901126105b057600435612b3661089f565b81600052600d602052604060002091612b4d61112a565b918354835260018401546020840152612b6860028501610b23565b6040840152612b7960038501610b23565b6060840152612b8a60048501610b23565b6080840152612c2560058501549360a09485820152600686015460c0820152610180612c1e600b612bbd60078a0161417e565b9860e08501998a52612bf26008820154612bde60ff82166101008901614220565b60081c6001600160a01b0316610120870152565b612bfe60098201610b23565b610140860152612c10600a820161422c565b610160860152015460ff1690565b9101614281565b83515191612c32836143bf565b93612c3c846143bf565b9560005b858110612c5657604051806105938a8a83612af5565b80612c9084612c69612ca19486516143f1565b51015180612c77848c6143f1565b526113f3886118d689600052601f602052604060002090565b54612c9b828b6143f1565b52613a91565b612c40565b346105b05760203660031901126105b057612cbf610889565b600b5460081c6001600160a01b039081169190612cdd338414612e9d565b81168015612d2357610e0692600080516020614426833981519152600080a3600b8054610100600160a81b03191660089290921b610100600160a81b0316919091179055565b60405162461bcd60e51b815260206004820152602660248201527f4f776e61626c653a206e6577206f776e657220697320746865207a65726f206160448201526564647265737360d01b6064820152608490fd5b346105b05760203660031901126105b0576004356015548110156105b05760156000527f55f448fdea98c4d29eb340757ef0a66cd03dbb9538908a6a81d96026b71ec4750154604051908152602090f35b346105b0576020806003193601126105b0576001600160a01b03612dea610889565b16600052600f8152604060002090604051908181845491828152019360005281600020916000905b828210612e295761059385611d0181890382610b00565b835486529485019460019384019390910190612e12565b346105b05760403660031901126105b057610e06612e5c611bcb565b600435600052601c6020526040600020612f91565b346105b05760203660031901126105b057600435600052601d6020526020604060002054604051908152f35b15612ea457565b606460405162461bcd60e51b815260206004820152602060248201527f4f776e61626c653a2063616c6c6572206973206e6f7420746865206f776e65726044820152fd5b8054610100600160a81b03191660089290921b610100600160a81b0316919091179055565b15612f1457565b60405162461bcd60e51b815260206004820152602a60248201527f4552433732313a2062616c616e636520717565727920666f7220746865207a65604482015269726f206164647265737360b01b6064820152608490fd5b6001600160a01b0316612f80811515612f0d565b600052600360205260406000205490565b9060ff801983541691151516179055565b15612fa957565b60405162461bcd60e51b815260206004820152603160248201527f4552433732313a207472616e736665722063616c6c6572206973206e6f74206f6044820152701ddb995c881b9bdc88185c1c1c9bdd9959607a1b6064820152608490fd5b6040519061301582610ae5565b60008252565b91610b61939161215f93613032610dfc843361311a565b61303d8383836132cf565b61355e565b60809060208152603260208201527f4552433732313a207472616e7366657220746f206e6f6e20455243373231526560408201527131b2b4bb32b91034b6b83632b6b2b73a32b960711b60608201520190565b1561309c57565b60405162461bcd60e51b8152806130b560048201613042565b0390fd5b156130c057565b60405162461bcd60e51b815260206004820152602c60248201527f4552433732313a206f70657261746f7220717565727920666f72206e6f6e657860448201526b34b9ba32b73a103a37b5b2b760a11b6064820152608490fd5b61312b6131268361320c565b6130b9565b6001600160a01b038061313d84613194565b16908083169082821494851561317c575b505050821561315c57505090565b60ff92509061317791600052600560205260406000206117fe565b541690565b6131899192939550613bde565b16149138808061314e565b6000908152600260205260409020546001600160a01b031680156131b55790565b60405162461bcd60e51b815260206004820152602960248201527f4552433732313a206f776e657220717565727920666f72206e6f6e657869737460448201526832b73a103a37b5b2b760b91b6064820152608490fd5b6000908152600260205260409020546001600160a01b0316151590565b1561323057565b60405162461bcd60e51b8152602060048201526024808201527f4552433732313a207472616e7366657220746f20746865207a65726f206164646044820152637265737360e01b6064820152608490fd5b634e487b7160e01b600052601160045260246000fd5b60001981019190821161144857565b906001820180921161144857565b603001908160301161144857565b9190820180921161144857565b906132d983613194565b6001600160a01b0383811692909182168390036133635761331961334e92821694613305861515613229565b613310878483613613565b611310876133ba565b6133238154613297565b905561332e816117e4565b61333881546132a6565b9055610939856000526002602052604060002090565b600080516020614466833981519152600080a4565b60405162461bcd60e51b815260206004820152602960248201527f4552433732313a207472616e73666572206f6620746f6b656e2074686174206960448201526839903737ba1037bbb760b91b6064820152608490fd5b600081815260046020526040812080546001600160a01b03191690556001600160a01b036133e783613194565b166000805160206144868339815191528280a4565b908160209103126105b05751610538816105b5565b610538939260809260018060a01b0316825260006020830152604082015281606082015201906106a6565b6001600160a01b039182168152911660208201526040810191909152608060608201819052610538929101906106a6565b3d15613498573d9061347e82611137565b9161348c6040519384610b00565b82523d6000602084013e565b606090565b909190803b15613556576134cf602091600093604051948580948193630a85bd0160e11b998a84523360048501613411565b03926001600160a01b03165af160009181613526575b50613518576134f261346d565b805190816135135760405162461bcd60e51b8152806130b560048201613042565b602001fd5b6001600160e01b0319161490565b61354891925060203d811161354f575b6135408183610b00565b8101906133fc565b90386134e5565b503d613536565b505050600190565b92909190823b15613591576134cf926020926000604051809681958294630a85bd0160e11b9a8b8552336004860161343c565b50505050600190565b156135a157565b60405162461bcd60e51b815260206004820152601060248201526f14185d5cd8589b194e881c185d5cd95960821b6044820152606490fd5b906135e960ff600b54161561359a565b6135f281613795565b6001600160a01b03821661360a57610b6191506137db565b610b61916136f2565b91909161362560ff600b54161561359a565b6001600160a01b03818116918261365c575061364083613795565b831680613653575050610b6191506137db565b0361360a575050565b818516830361366c575b50613640565b61367581612f6c565b6000198101908111611448576136bc906113f3600093878552600760205260408520548381036136c3575b50846136b6896000526007602052604060002090565b556117ca565b5538613666565b8786526006602052604086208487526020526136eb604087205480611430846113f3876117ca565b55386136a0565b6040906136fe81612f6c565b9260009160018060a01b0316825260066020528282208483526020528083832055815260076020522055565b601354600160401b811015610ac5576001810180601355811015610f6a5760136000526000805160206144068339815191520155565b8054600160401b811015610ac55761377d91600182018155610f52565b819291549060031b91821b91600019901b1916179055565b60085481600052600960205280604060002055600160401b811015610ac5576001810180600855811015610f6a5760086000526000805160206144468339815191520155565b60088054600019929083810190808211611448576000928084526009602052816040852054931015610f6a5784845285826020862001015491831015610f6a57839261383f6138509387865280836020882001556000526009602052604060002090565b556000526009602052604060002090565b558154928315613873578084019380851015610f6a578383526020832001015555565b634e487b7160e01b82526031600452602482fd5b6105389054610a59565b81811061389c575050565b60008155600101613891565b6138b28154610a59565b90816138bc575050565b81601f600093116001146138ce575055565b9080839182526138ed601f60208420940160051c840160018501613891565b5555565b9061390460209282815194859201610683565b0190565b6139118161320c565b156139885761393261392d82600052600a602052604060002090565b610b23565b9061393b613008565b805115613983578251613953575061053891506139e7565b610538915061397561396f9360405194859360208501906138f1565b906138f1565b03601f198101835282610b00565b505090565b60405162461bcd60e51b815260206004820152603160248201527f45524337323155524953746f726167653a2055524920717565727920666f72206044820152703737b732bc34b9ba32b73a103a37b5b2b760791b6064820152608490fd5b6139f08161320c565b15613a34576139fd613008565b805190919015613a2a5761396f91613975613a1a61053893613ab1565b60405194859360208501906138f1565b5050610538613008565b60405162461bcd60e51b815260206004820152602f60248201527f4552433732314d657461646174613a2055524920717565727920666f72206e6f60448201526e3732bc34b9ba32b73a103a37b5b2b760891b6064820152608490fd5b60001981146114485760010190565b908151811015610f6a570160200190565b8015613b5a57806000908282935b613b465750613acd83611137565b92613adb6040519485610b00565b80845281601f19613aeb83611137565b013660208701375b613afd5750505090565b613b0690613297565b90600a90613b31613b21613b1b8484066132b4565b60ff1690565b60f81b6001600160f81b03191690565b841a613b3d8487613aa0565b53049081613af3565b92613b52600a91613a91565b930480613abf565b50604080519081016001600160401b03811182821017610ac55760405260018152600360fc1b602082015290565b6000908152601160205260409020546001600160a01b03168015613ba95790565b60405162461bcd60e51b815260206004820152600d60248201526c4e6f417373657445786973747360981b6044820152606490fd5b613be78161320c565b15613c07576000908152601060205260409020546001600160a01b031690565b60405162461bcd60e51b815260206004820152602c60248201527f4552433732313a20617070726f76656420717565727920666f72206e6f6e657860448201526b34b9ba32b73a103a37b5b2b760a11b6064820152608490fd5b15613c6857565b60405162461bcd60e51b815260206004820152601c60248201527b115490cdcc8c4e881d1bdad95b88185b1c9958591e481b5a5b9d195960221b6044820152606490fd5b9190601f8111613cbb57505050565b610b61926000526020600020906020601f840160051c83019310613ce7575b601f0160051c0190613891565b9091508190613cda565b81519192916001600160401b038111610ac557613d1881613d128454610a59565b84613cac565b602080601f8311600114613d54575081929394600092613d49575b50508160011b916000199060031b1c1916179055565b015190503880613d33565b90601f19831695613d6a85600052602060002090565b926000905b888210613da757505083600195969710613d8e575b505050811b019055565b015160001960f88460031b161c19169055388080613d84565b80600185968294968601518155019501930190613d6f565b919091613dcb8161320c565b15613e82576000526020600a815260406000209083519060018060401b038211610ac557613e0382613dfd8554610a59565b85613cac565b80601f8311600114613e31575081929394600092613d495750508160011b916000199060031b1c1916179055565b90601f19831695613e4785600052602060002090565b926000905b888210613e6a57505083600195969710613d8e57505050811b019055565b80600185968294968601518155019501930190613e4c565b60405162461bcd60e51b815260206004820152602e60248201527f45524337323155524953746f726167653a2055524920736574206f66206e6f6e60448201526d32bc34b9ba32b73a103a37b5b2b760911b6064820152608490fd5b815180519192916001600160401b038111610ac557613f0781613f018654610a59565b86613cac565b6020918290601f8311600114613f7d57928260059593613f4d9360a096600092613f72575b50508160011b916000199060031b1c19161786555b82015160018601613cf1565b6040810151600285015560608101516003850155608081015160048501550151910155565b015190503880613f2c565b90601f19831691613f9387600052602060002090565b9260005b818110613fdc575093613f4d9360a096936001938360059a9810613fc3575b505050811b018655613f41565b015160001960f88460031b161c19169055388080613fb6565b929386600181928786015181550195019301613f97565b815191600160401b8311610ac5578154838355808410614052575b50614023602080920192600052602060002090565b6000925b848410614035575050505050565b600683826140466001945186613ede565b01920193019290614027565b6006908082029082820403611448578482028281048603611448576000908582526020822092830192015b82811061408c5750505061400e565b8061409785926138a8565b6140a3600182016138a8565b8260028201558260038201558260048201558260058201550161407d565b906004811015610be95760ff80198354169116179055565b815191600160401b8311610ac5578154838355808410614137575b50614109602080920192600052602060002090565b6000925b84841061411b575050505050565b6001838261412b83945186613cf1565b0192019301929061410d565b8260005283602060002091820191015b81811061415457506140f4565b806141606001926138a8565b01614147565b906005811015610be95760ff80198354169116179055565b90815461418a8161222c565b9260409361419a85519182610b00565b828152809460208092019260005281600020906000935b8585106141c057505050505050565b60068460019284516141d181610aca565b6141da87610b23565b81526141e7858801610b23565b838201526002870154868201526003870154606082015260048701546080820152600587015460a08201528152019301940193916141b1565b6004821015610be95752565b9081546142388161222c565b926142466040519485610b00565b818452600090815260208082208186015b848410614265575050505050565b600183819261427385610b23565b815201920193019290614257565b6005821015610be95752565b90610b6161435e600b61429e61112a565b9480548652600181015460208701526142b960028201610b23565b60408701526142ca60038201610b23565b60608701526142db60048201610b23565b6080870152600581015460a0870152600681015460c08701526143006007820161417e565b60e0870152614332600882015461431e60ff82166101008a01614220565b60081c6001600160a01b0316610120880152565b61433e60098201610b23565b610140870152614350600a820161422c565b610160870152015460ff1690565b6101808401614281565b8054821015610f6a576000526006602060002091020190600090565b8054600160401b811015610ac5576143a191600182018155610f52565b819291549060031b9160018060a01b03809116831b921b1916179055565b906143c98261222c565b6143d66040519182610b00565b82815280926143e7601f199161222c565b0190602036910137565b8051821015610f6a5760209160051b01019056fe66de8ffda797e3de9c05e8fc57b3bf0ec28a930d40b0d285d93c06501cf6a0908be0079c531659141344cd1fd0a4f28419497f9722a3daafe3b4186f6b6457e0f3f7a9fe364faab93b216da50a3214154f22a0a2b415b23a84c8169e8b636ee3ddf252ad1be2c89b69c2b068fc378daa952ba7f163c4a11628f55a4df523b3ef8c5be1e5ebec7d5bd14f71427d1e84f3dd0314c0f7b2291e5b200ac8c7c3b925a2646970667358221220f737762fbc1faa179f3ab77afb22c46756b5334a07426068acb66d41bee2b86d64736f6c63430008130033",
  "linkReferences": {},
  "deployedLinkReferences": {}
}