{
  "_format": "hh-sol-artifact-1",
  "contractName": "Assets",
  "sourceName": "contracts/Assets.sol",
  "abi": [
    {
      "inputs": [
        {
          "internalType": "address",
          "name": "nftAddress",
          "type": "address"
        }
      ],
      "stateMutability": "nonpayable",
      "type": "constructor"
    },
    {
      "anonymous": false,
      "inputs": [
        {
          "indexed": true,
          "internalType": "uint256",
          "name": "assetId",
          "type": "uint256"
        },
        {
          "indexed": true,
          "internalType": "address",
          "name": "owner",
          "type": "address"
        },
        {
          "indexed": false,
          "internalType": "string",
          "name": "tokenURI",
          "type": "string"
        }
      ],
      "name": "AssetCreated",
      "type": "event"
    },
    {
      "anonymous": false,
      "inputs": [
        {
          "indexed": true,
          "internalType": "address",
          "name": "investor",
          "type": "address"
        },
        {
          "indexed": true,
          "internalType": "uint256",
          "name": "assetId",
          "type": "uint256"
        },
        {
          "indexed": true,
          "internalType": "uint256",
          "name": "tokenId",
          "type": "uint256"
        },
        {
          "indexed": false,
          "internalType": "uint256",
          "name": "tokenAmount",
          "type": "uint256"
        },
        {
          "indexed": false,
          "internalType": "uint256",
          "name": "value",
          "type": "uint256"
        }
      ],
      "name": "LogInvestment",
      "type": "event"
    },
    {
      "inputs": [
        {
          "internalType": "uint256",
          "name": "price",
          "type": "uint256"
        },
        {
          "internalType": "string",
          "name": "author",
          "type": "string"
        },
        {
          "internalType": "string",
          "name": "title",
          "type": "string"
        },
        {
          "internalType": "string",
          "name": "description",
          "type": "string"
        },
        {
          "internalType": "uint256",
          "name": "projectEndDate",
          "type": "uint256"
        },
        {
          "internalType": "address",
          "name": "to",
          "type": "address"
        },
        {
          "internalType": "string",
          "name": "tokenURI",
          "type": "string"
        },
        {
          "internalType": "string",
          "name": "mainPhoto",
          "type": "string"
        },
        {
          "internalType": "string[]",
          "name": "secondaryPhotos",
          "type": "string[]"
        },
        {
          "internalType": "enum Category",
          "name": "category",
          "type": "uint8"
        }
      ],
      "name": "addAsset",
      "outputs": [],
      "stateMutability": "nonpayable",
      "type": "function"
    },
    {
      "inputs": [
        {
          "internalType": "enum ProjectStatus",
          "name": "status",
          "type": "uint8"
        }
      ],
      "name": "getAllAssets",
      "outputs": [
        {
          "components": [
            {
              "internalType": "uint256",
              "name": "assetId",
              "type": "uint256"
            },
            {
              "internalType": "uint256",
              "name": "price",
              "type": "uint256"
            },
            {
              "internalType": "string",
              "name": "author",
              "type": "string"
            },
            {
              "internalType": "string",
              "name": "title",
              "type": "string"
            },
            {
              "internalType": "string",
              "name": "description",
              "type": "string"
            },
            {
              "internalType": "uint256",
              "name": "projectStartDate",
              "type": "uint256"
            },
            {
              "internalType": "uint256",
              "name": "projectEndDate",
              "type": "uint256"
            },
            {
              "components": [
                {
                  "internalType": "string",
                  "name": "title",
                  "type": "string"
                },
                {
                  "internalType": "string",
                  "name": "description",
                  "type": "string"
                },
                {
                  "internalType": "uint256",
                  "name": "tokenAmount",
                  "type": "uint256"
                },
                {
                  "internalType": "uint256",
                  "name": "individualPrice",
                  "type": "uint256"
                },
                {
                  "internalType": "uint256",
                  "name": "availableTokens",
                  "type": "uint256"
                },
                {
                  "internalType": "uint256",
                  "name": "rewardTokenId",
                  "type": "uint256"
                }
              ],
              "internalType": "struct Reward[]",
              "name": "rewards",
              "type": "tuple[]"
            },
            {
              "internalType": "enum ProjectStatus",
              "name": "status",
              "type": "uint8"
            },
            {
              "internalType": "address",
              "name": "rewardTokenAddress",
              "type": "address"
            },
            {
              "internalType": "string",
              "name": "mainPhoto",
              "type": "string"
            },
            {
              "internalType": "string[]",
              "name": "secondaryPhotos",
              "type": "string[]"
            },
            {
              "internalType": "enum Category",
              "name": "category",
              "type": "uint8"
            }
          ],
          "internalType": "struct Asset[]",
          "name": "",
          "type": "tuple[]"
        }
      ],
      "stateMutability": "view",
      "type": "function"
    },
    {
      "inputs": [
        {
          "internalType": "enum ProjectStatus",
          "name": "status",
          "type": "uint8"
        },
        {
          "internalType": "enum Category",
          "name": "category",
          "type": "uint8"
        }
      ],
      "name": "getAllAssetsByCategory",
      "outputs": [
        {
          "components": [
            {
              "internalType": "uint256",
              "name": "assetId",
              "type": "uint256"
            },
            {
              "internalType": "uint256",
              "name": "price",
              "type": "uint256"
            },
            {
              "internalType": "string",
              "name": "author",
              "type": "string"
            },
            {
              "internalType": "string",
              "name": "title",
              "type": "string"
            },
            {
              "internalType": "string",
              "name": "description",
              "type": "string"
            },
            {
              "internalType": "uint256",
              "name": "projectStartDate",
              "type": "uint256"
            },
            {
              "internalType": "uint256",
              "name": "projectEndDate",
              "type": "uint256"
            },
            {
              "components": [
                {
                  "internalType": "string",
                  "name": "title",
                  "type": "string"
                },
                {
                  "internalType": "string",
                  "name": "description",
                  "type": "string"
                },
                {
                  "internalType": "uint256",
                  "name": "tokenAmount",
                  "type": "uint256"
                },
                {
                  "internalType": "uint256",
                  "name": "individualPrice",
                  "type": "uint256"
                },
                {
                  "internalType": "uint256",
                  "name": "availableTokens",
                  "type": "uint256"
                },
                {
                  "internalType": "uint256",
                  "name": "rewardTokenId",
                  "type": "uint256"
                }
              ],
              "internalType": "struct Reward[]",
              "name": "rewards",
              "type": "tuple[]"
            },
            {
              "internalType": "enum ProjectStatus",
              "name": "status",
              "type": "uint8"
            },
            {
              "internalType": "address",
              "name": "rewardTokenAddress",
              "type": "address"
            },
            {
              "internalType": "string",
              "name": "mainPhoto",
              "type": "string"
            },
            {
              "internalType": "string[]",
              "name": "secondaryPhotos",
              "type": "string[]"
            },
            {
              "internalType": "enum Category",
              "name": "category",
              "type": "uint8"
            }
          ],
          "internalType": "struct Asset[]",
          "name": "",
          "type": "tuple[]"
        }
      ],
      "stateMutability": "view",
      "type": "function"
    },
    {
      "inputs": [
        {
          "internalType": "uint256",
          "name": "assetId",
          "type": "uint256"
        }
      ],
      "name": "getAssetById",
      "outputs": [
        {
          "components": [
            {
              "internalType": "uint256",
              "name": "assetId",
              "type": "uint256"
            },
            {
              "internalType": "uint256",
              "name": "price",
              "type": "uint256"
            },
            {
              "internalType": "string",
              "name": "author",
              "type": "string"
            },
            {
              "internalType": "string",
              "name": "title",
              "type": "string"
            },
            {
              "internalType": "string",
              "name": "description",
              "type": "string"
            },
            {
              "internalType": "uint256",
              "name": "projectStartDate",
              "type": "uint256"
            },
            {
              "internalType": "uint256",
              "name": "projectEndDate",
              "type": "uint256"
            },
            {
              "components": [
                {
                  "internalType": "string",
                  "name": "title",
                  "type": "string"
                },
                {
                  "internalType": "string",
                  "name": "description",
                  "type": "string"
                },
                {
                  "internalType": "uint256",
                  "name": "tokenAmount",
                  "type": "uint256"
                },
                {
                  "internalType": "uint256",
                  "name": "individualPrice",
                  "type": "uint256"
                },
                {
                  "internalType": "uint256",
                  "name": "availableTokens",
                  "type": "uint256"
                },
                {
                  "internalType": "uint256",
                  "name": "rewardTokenId",
                  "type": "uint256"
                }
              ],
              "internalType": "struct Reward[]",
              "name": "rewards",
              "type": "tuple[]"
            },
            {
              "internalType": "enum ProjectStatus",
              "name": "status",
              "type": "uint8"
            },
            {
              "internalType": "address",
              "name": "rewardTokenAddress",
              "type": "address"
            },
            {
              "internalType": "string",
              "name": "mainPhoto",
              "type": "string"
            },
            {
              "internalType": "string[]",
              "name": "secondaryPhotos",
              "type": "string[]"
            },
            {
              "internalType": "enum Category",
              "name": "category",
              "type": "uint8"
            }
          ],
          "internalType": "struct Asset",
          "name": "",
          "type": "tuple"
        }
      ],
      "stateMutability": "view",
      "type": "function"
    },
    {
      "inputs": [
        {
          "internalType": "address",
          "name": "owner",
          "type": "address"
        }
      ],
      "name": "getAssetsOfOwner",
      "outputs": [
        {
          "components": [
            {
              "internalType": "uint256",
              "name": "assetId",
              "type": "uint256"
            },
            {
              "internalType": "uint256",
              "name": "price",
              "type": "uint256"
            },
            {
              "internalType": "string",
              "name": "author",
              "type": "string"
            },
            {
              "internalType": "string",
              "name": "title",
              "type": "string"
            },
            {
              "internalType": "string",
              "name": "description",
              "type": "string"
            },
            {
              "internalType": "uint256",
              "name": "projectStartDate",
              "type": "uint256"
            },
            {
              "internalType": "uint256",
              "name": "projectEndDate",
              "type": "uint256"
            },
            {
              "components": [
                {
                  "internalType": "string",
                  "name": "title",
                  "type": "string"
                },
                {
                  "internalType": "string",
                  "name": "description",
                  "type": "string"
                },
                {
                  "internalType": "uint256",
                  "name": "tokenAmount",
                  "type": "uint256"
                },
                {
                  "internalType": "uint256",
                  "name": "individualPrice",
                  "type": "uint256"
                },
                {
                  "internalType": "uint256",
                  "name": "availableTokens",
                  "type": "uint256"
                },
                {
                  "internalType": "uint256",
                  "name": "rewardTokenId",
                  "type": "uint256"
                }
              ],
              "internalType": "struct Reward[]",
              "name": "rewards",
              "type": "tuple[]"
            },
            {
              "internalType": "enum ProjectStatus",
              "name": "status",
              "type": "uint8"
            },
            {
              "internalType": "address",
              "name": "rewardTokenAddress",
              "type": "address"
            },
            {
              "internalType": "string",
              "name": "mainPhoto",
              "type": "string"
            },
            {
              "internalType": "string[]",
              "name": "secondaryPhotos",
              "type": "string[]"
            },
            {
              "internalType": "enum Category",
              "name": "category",
              "type": "uint8"
            }
          ],
          "internalType": "struct Asset[]",
          "name": "",
          "type": "tuple[]"
        }
      ],
      "stateMutability": "view",
      "type": "function"
    },
    {
      "inputs": [],
      "name": "supervisor",
      "outputs": [
        {
          "internalType": "address",
          "name": "",
          "type": "address"
        }
      ],
      "stateMutability": "view",
      "type": "function"
    },
    {
      "inputs": [
        {
          "internalType": "uint256",
          "name": "assetId",
          "type": "uint256"
        },
        {
          "internalType": "string",
          "name": "mainPhoto",
          "type": "string"
        },
        {
          "internalType": "string[]",
          "name": "secondaryPhotos",
          "type": "string[]"
        },
        {
          "internalType": "string",
          "name": "description",
          "type": "string"
        }
      ],
      "name": "updateAsset",
      "outputs": [],
      "stateMutability": "nonpayable",
      "type": "function"
    }
  ],
  "bytecode": "0x60803461007c57601f61183438819003918201601f19168301916001600160401b038311848410176100815780849260209460405283398101031261007c57516001600160a01b0381169081900361007c5760018060a01b0319908160005416176000553390600154161760015560405161179c90816100988239f35b600080fd5b634e487b7160e01b600052604160045260246000fdfe608080604052600436101561001357600080fd5b600090813560e01c9081633803112314610ca6575080634663a28c1461097a5780635563633d146106e757806356e4b68b146106be57806386275c5a14610240578063b3e444a7146101ab5763f3ab880e1461006e57600080fd5b346101a85760203660031901126101a8576004356001600160a01b0381811692918390036101a357815416604051926379d5c40760e11b8452600484015260249082848381845afa938415610198578394610174575b508351916100d1836113c2565b94845b8481106100ed57604051806100e989826110fc565b0390f35b6100f78183611437565b5160405190631d591eb760e31b8252600482015286818581885afa908115610169579061014292918891610147575b50610131828a611437565b5261013c8189611437565b50611412565b6100d4565b61016391503d808a833e61015b81836111a3565b8101906114a3565b38610126565b6040513d89823e3d90fd5b6101919194503d8085833e61018981836111a3565b8101906112e8565b92386100c4565b6040513d85823e3d90fd5b600080fd5b80fd5b50346101a85760203660031901126101a8576101c5611361565b508054604051631d591eb760e31b81526004803590820152908290829060249082906001600160a01b03165afa90811561023557826100e9939261021a575b5050604051918291602083526020830190610f26565b61022e92503d8091833e61015b81836111a3565b3880610204565b6040513d84823e3d90fd5b50346101a8576101403660031901126101a8576001600160401b03602435818111610556576102739036906004016111e1565b60443582811161053a5761028b9036906004016111e1565b906064358381116106ba576102a49036906004016111e1565b9260a435916001600160a01b03831683036101a35760c435828111610586576102d19036906004016111e1565b9460e4358381116106b6576102ea9036906004016111e1565b92610104359081116106b65761030490369060040161123f565b60056101243510156106b6576001546001600160a01b0316330361066257600435156106265742608435106105d0576001600160a01b03851615610592578754604051630aac5dfd60e01b81529689956001600160a01b039092169390602089600481885afa98891561016957879961055a575b506040519561038687611187565b89875260043560208801526040870152606086015260808501524260a085015260843560c0850152606060e0850152846101008501528461012085015261014084015261016083015261012435610180830152803b15610556576104128392918392604051948580948193631b8513e960e31b83528b6004840152606060248401526064830190610f26565b6001600160a01b038a16604483015203925af1801561023557610542575b5080546001600160a01b0316803b1561053e576040516334ff261960e21b81526001600160a01b038416600482015260248101859052606060448201529082908290818381610482606482018c610ede565b03925af1801561023557610526575b505060405160208082526001600160a01b03909216937f49b4e4c6879cdc85b51d8c3b572252aaa7842edb863810854acb6d2ed420d9629282916104d791830190610ede565b0390a3805481906001600160a01b0316803b1561052357818091600460405180948193632c5bdb1f60e01b83525af18015610235576105135750f35b61051c9061115e565b6101a85780f35b50fd5b61052f9061115e565b61053a578338610491565b8380fd5b5080fd5b61054b9061115e565b61053a578338610430565b8280fd5b9098506020813d60201161058a575b81610576602093836111a3565b8101031261058657519738610378565b8680fd5b3d9150610569565b60405162461bcd60e51b8152602060048201526016602482015275416464726573732063616e6e6f74206265207a65726f60501b6044820152606490fd5b60405162461bcd60e51b815260206004820152602860248201527f50726f6a65637420656e6420646174652073686f756c6420626520696e207468604482015267652066757475726560c01b6064820152608490fd5b60405162461bcd60e51b815260206004820152601460248201527350726963652063616e6e6f74206265207a65726f60601b6044820152606490fd5b60405162461bcd60e51b815260206004820152602660248201527f4f6e6c792073757065727669736f722063616e2063616c6c20746869732066756044820152653731ba34b7b760d11b6064820152608490fd5b8780fd5b8480fd5b50346101a857806003193601126101a8576001546040516001600160a01b039091168152602090f35b50346101a85760803660031901126101a8576024906001600160401b03600435833582811161053a5761071e9036906004016111e1565b916044358181116106ba5761073790369060040161123f565b906064359081116106ba576107509036906004016111e1565b8454604051634f558e7960e01b8152600481018590526001600160a01b03909116929060209081818a81885afa90811561091857889161095d575b50156109235760405163430c208160e01b81523360048201528881018690528181604481885afa9081156109185788916108eb575b50156108b0575085939291879160405196631d591eb760e31b885285600489015286888581885afa978815610169578798610894575b50805115610888575b61014088015280511561087c575b610160870152805115610871575b6080860152813b1561053a5783604093610853855197889687958694631c29952960e31b865260048601528401526044830190610f26565b03925af1801561023557610865575080f35b61086e9061115e565b80f35b50608085015161081b565b5061016086015161080d565b506101408701516107ff565b6108a99198503d8089833e61015b81836111a3565b96896107f6565b6064906015896040519262461bcd60e51b84526004840152820152742737ba1030b8383937bb32b21037b91037bbb732b960591b6044820152fd5b61090b9150823d8411610911575b61090381836111a3565b81019061174e565b386107c0565b503d6108f9565b6040513d8a823e3d90fd5b6064906014896040519262461bcd60e51b8452600484015282015273105cdcd95d08191bd95cc81b9bdd08195e1a5cdd60621b6044820152fd5b6109749150823d84116109115761090381836111a3565b3861078b565b50346101a85760403660031901126101a857600435600481101561053e576024803591600583101561053a5780610bae575082546040516301fb15dd60e31b8152908490829060049082906001600160a01b03165afa908115610ba3578491610b89575b50925b805460405163a2311d5f60e01b81526001600160a01b0390911693610a0a906004830190610f03565b81818481875afa908115610235578291610b6f575b50805192610a2c84611228565b93610a3a60405195866111a3565b808552610a49601f1991611228565b013660208601378290835b8751811015610a815780610a6b610a7c928a611437565b51610a768289611437565b52611412565b610a54565b5090919294610a9084516113c2565b9186945b8051861015610b6157875b8751811015610b5657610ab28783611437565b51610abd828a611437565b5114610ad157610acc90611412565b610a9f565b509493610ade8587611437565b5160405190631d591eb760e31b8252600482015288818481875afa918215610b4b57610b2b92610b25928b91610b31575b50610b1a8288611437565b5261013c8187611437565b94611412565b94610a94565b610b4591503d808d833e61015b81836111a3565b8b610b0f565b6040513d8b823e3d90fd5b5094610b2b90611412565b604051806100e986826110fc565b610b8391503d8084833e61018981836111a3565b38610a1f565b610b9d91503d8086833e61018981836111a3565b386109de565b6040513d86823e3d90fd5b60018103610c0957508254604051620dee2360e51b8152908490829060049082906001600160a01b03165afa908115610ba3578491610bef575b50926109e1565b610c0391503d8086833e61018981836111a3565b38610be8565b60028103610c4a57508254604051630f4facc560e21b8152908490829060049082906001600160a01b03165afa908115610ba3578491610bef5750926109e1565b600303610c89578254604051635aff92c160e11b8152908490829060049082906001600160a01b03165afa908115610ba3578491610bef5750926109e1565b60405162461bcd60e51b815280610ca2600482016112bf565b0390fd5b90503461053e57602036600319011261053e5760043560048110156105565780610dc757505080546040516301fb15dd60e31b8152908290829060049082906001600160a01b03165afa908115610235578291610dad575b50905b8151610d0c816113c2565b825490936001600160a01b0390911690835b838110610d3357604051806100e988826110fc565b610d3d8183611437565b5160405190631d591eb760e31b825260048201528581602481875afa908115610da25790610d8392918791610d88575b50610d788289611437565b5261013c8188611437565b610d1e565b610d9c91503d8089833e61015b81836111a3565b38610d6d565b6040513d88823e3d90fd5b610dc191503d8084833e61018981836111a3565b38610cfe565b60018103610e235750508054604051620dee2360e51b8152908290829060049082906001600160a01b03165afa908115610235578291610e09575b5090610d01565b610e1d91503d8084833e61018981836111a3565b38610e02565b60028103610e655750508054604051630f4facc560e21b8152908290829060049082906001600160a01b03165afa908115610235578291610e09575090610d01565b600303610ea557508054604051635aff92c160e11b8152908290829060049082906001600160a01b03165afa908115610235578291610e09575090610d01565b62461bcd60e51b815280610ca2600482016112bf565b60005b838110610ece5750506000910152565b8181015183820152602001610ebe565b90602091610ef781518092818552858086019101610ebb565b601f01601f1916010190565b906005821015610f105752565b634e487b7160e01b600052602160045260246000fd5b91908251815260209081840151828201526040610f50818601516101a08084860152840190610ede565b610f666060918288015185820384870152610ede565b91610f7d6080938489015186820386880152610ede565b60a093848901518587015260c092838a01518488015260e08a01519587840360e0890152865194858552898501938a808860051b8801019901976000965b8c89891061108957505050505050505050505061010090818601516004811015610f105761100d9284015261012060018060a01b03818801511690840152610140808701519084830390850152610ede565b936101609283820151938387039084015283518087528187019180808360051b8a01019601926000905b83821061105c5750505050506110599293945061018080910151910190610f03565b90565b9091929396838061107a6001938d601f199082030186528b51610ede565b99019201920190939291611037565b80600192939495969798999a9b9c601f19858203018b528d519089806110c96110b985518d86528d860190610ede565b8686015185820388870152610ede565b938d8082015190850152898101518a8501528a8101518b85015201519101529c0198019801969897959493929190610fbb565b602080820190808352835180925260408301928160408460051b8301019501936000915b8483106111305750505050505090565b909192939495848061114e600193603f198682030187528a51610f26565b9801930193019194939290611120565b6001600160401b03811161117157604052565b634e487b7160e01b600052604160045260246000fd5b6101a081019081106001600160401b0382111761117157604052565b601f909101601f19168101906001600160401b0382119082101761117157604052565b6001600160401b03811161117157601f01601f191660200190565b81601f820112156101a3578035906111f8826111c6565b9261120660405194856111a3565b828452602083830101116101a357816000926020809301838601378301015290565b6001600160401b0381116111715760051b60200190565b9080601f830112156101a35781359061125782611228565b9261126560405194856111a3565b828452602092838086019160051b830101928084116101a357848301915b8483106112935750505050505090565b82356001600160401b0381116101a35786916112b4848480948901016111e1565b815201920191611283565b60609060208152600e60208201526d496e76616c69642073746174757360901b60408201520190565b60209081818403126101a3578051906001600160401b0382116101a357019180601f840112156101a357825161131d81611228565b9361132b60405195866111a3565b818552838086019260051b8201019283116101a3578301905b828210611352575050505090565b81518152908301908301611344565b6040519061136e82611187565b81610180600091828152826020820152606080604083015280808301528060808301528360a08301528360c08301528060e08301528361010083015283610120830152806101408301526101608201520152565b906113cc82611228565b6113d960405191826111a3565b82815280926113ea601f1991611228565b019060005b8281106113fb57505050565b602090611406611361565b828285010152016113ef565b60001981146114215760010190565b634e487b7160e01b600052601160045260246000fd5b805182101561144b5760209160051b010190565b634e487b7160e01b600052603260045260246000fd5b81601f820112156101a3578051611477816111c6565b9261148560405194856111a3565b818452602082840101116101a3576110599160208085019101610ebb565b602080828403126101a35781516001600160401b03928382116101a35701916101a0838503126101a3576040918251946114dc86611187565b845186528185015182870152838501518381116101a357816114ff918701611461565b848701526060808601518481116101a3578261151c918801611461565b818801526080808701518581116101a35783611539918901611461565b8189015260a09081880151828a015260c09182890151838b015260e08901518781116101a35789019285601f850112156101a35783519261157984611228565b956115868b5197886111a3565b848752888088019560051b870101958887116101a357898101955b87871061169f57505050505050505060e0870152610100808601519060048210156101a35787015261012085810151906001600160a01b03821682036101a357870152610140808601518481116101a357826115fe918801611461565b9087015261016092838601518181116101a35786019082601f830112156101a35781519061163761162e83611228565b975197886111a3565b818752848088019260051b840101938085116101a357858401925b85841061167a5750505050505050830152610180809101519060058210156101a35782015290565b83518381116101a3578791611694848480948a0101611461565b815201930192611652565b86518c81116101a357820185601f19828d0301126101a3578d5186810192908e84118185101761173957928f52818d0151928e84116101a3578f8f948f8f906116ea92870101611461565b82528301519384116101a3578f838f95918f61170c90888d9581990101611461565b86850152888201519084015288810151888401528a810151898401520151898201528152019601956115a1565b60246000634e487b7160e01b81526041600452fd5b908160209103126101a3575180151581036101a3579056fea26469706673582212203483fb1e171a03db292543765ec4d2134a4b89bfefb91fd57742336ac5088e3064736f6c63430008130033",
  "linkReferences": {},
  "deployedLinkReferences": {}
}